:10000000A8311C2DFF3F29005708003A0319212869
:1000100021000D170630FD00FD0B0C2800008D1788
:100020000630FD00FD0B122800008D130630FD0088
:10003000FD0B182800000D130630FD00FD0B1E28D7
:100040000000080029005708003A03195C28F10154
:100050007108073C031C49282B00BB1B32282100D8
:100060008D13342821008D170630FD00FD0B362836
:1000700000000D170630FD00FD0B3C2800000D139D
:100080000630FD00FD0B422800002B00BB35F10AB5
:10009000282821008D170630FD00FD0B4D2800009B
:1000A0000D170630FD00FD0B532800000D13063020
:1000B000FD00FD0B592800000800290056082B0000
:1000C0003707BA000320290057082B00BB00222065
:1000D0002B00BB0122202B003608B03EBB002220A3
:1000E0002B003A080F3C031C79283A08B800B901E4
:1000F0008A283A08F200F236F236F236F236720800
:10010000B9007208F000F035F035F035F0357008C0
:100110003A02B8003808BB0022202B003908103EF4
:10012000BB0022200320290057082B00BB002220FF
:1001300040302B00BB002220080020002230FC00B1
:10014000F801F901FA01FB01FC030319D22803109D
:10015000FB0CFA0CF90CF80CF30CF20CF10CF00C93
:10016000031CA428FC030319C4287408F8077508A5
:100170000318750FF90776080318760FFA07770842
:100180000318770FFB07A8287408F80775080318E9
:10019000750FF90776080318760FFA077708031822
:1001A000770FFB0708002000F801F9011030FC0070
:1001B000710DF80DF90D7408F8027508031C750F20
:1001C000F9020318EA287408F80775080318750F70
:1001D000F9070310F00DF10DFC0BD82808002000E2
:1001E0007008F100F0010830FC007108F40C0318ED
:1001F000FD28FC0BF628F101003403100229F40C51
:100200000318F107F10CF00CFC0BFF280800290083
:100210005708003A03191F2921008D130630FD00ED
:10022000FD0B102900000D170630FD00FD0B1629EF
:1002300000008D170630FD00FD0B1C290000080092
:10024000FA1FF21300300800FB14FB1F2E29FF30A9
:10025000F300F200F100F000FA0DF20CFF3008009C
:100260007B15FB1F3A290130F300F201F101F00187
:10027000FA0DF20CFF3008002B00AD012900D4016B
:100280000130D3002B002C08AD00AD35AD35AD35B8
:10029000AD35290052080319502908302B00AD074D
:1002A000290053080319572904302B00AD072900F2
:1002B000540803195E2902302B00AD0729005808A5
:1002C000031964292B00AD0A0320290057082B00CD
:1002D000BB0022202B002D08BB0022200721063066
:1002E000FC003030FD00FD0B7329FC0B732900006E
:1002F00004302B00AD020320290057082B00BB005F
:1003000022202B002D08BB00222007210630FC00F4
:100310003030FD00FD0B8A29FC0B8A290000080003
:10032000F201F101F001F801F301003008000320AF
:10033000290057082B00BB00222040302B00BB00B7
:1003400022202B002D08B6002C08B7005D202B00C2
:10035000B1013008310203185D2A31082E078400EC
:1003600000302F3D85000008003A031DB929B30174
:10037000C22931082E07840000302F3D850020302F
:100380000002B300B2013208043C031C552A3308B2
:10039000F0000530F400EF202B003208F0070030A9
:1003A000F13D003070078400B030713D85000008D9
:1003B000B4002D08023A013003190030F1002D0875
:1003C000043A013003190030F0007008F1052D08DF
:1003D000063A013003190030F0007108F0050319E6
:1003E0001A2AB419F529B513F629B517B419FA293B
:1003F0003513FB2935173419FF29B512002AB51614
:100400003419042A3512052A3516B418092AB511EB
:100410000A2AB515B4180E2A35110F2A35153418C5
:10042000132AB510142AB5143418182A3510192AAD
:1004300035143A2A34191E2AB5131F2AB517341950
:10044000232A3513242A3517B418282AB512292A45
:10045000B516B4182D2A35122E2A35163418322A1C
:10046000B511332AB5153418372A3511382A351500
:10047000B51035103508BB00222029005908043A70
:100480000130031D0030F1005908053A0130031D09
:100490000030F0007108F0040319522A2B003508CF
:1004A000BB0022202B00B20AC329BB0122202B0053
:1004B000BB0122202B00B10AA9292D0AB6002C0865
:1004C000B7005D202B00B101300831020318202B4A
:1004D00031082E07840000302F3D85000008003AC7
:1004E000031D742AB3017D2A31082E0784000030D1
:1004F0002F3D850020300002B300B2013208043CD9
:10050000031C182B3308F0000530F400EF202B00FB
:100510003208F0070030F13D003070078400B03041
:10052000713D85000008B4002D08023A013003191E
:100530000030F1002D08043A013003190030F000BA
:100540007008F1052D08063A013003190030F0005B
:100550007108F0050319D52AB41BB02AB513B12AC6
:10056000B517B41BB52A3513B62A3517341BBA2A6A
:10057000B512BB2AB516341BBF2A3512C02A351650
:10058000B41AC42AB511C52AB515B41AC92A351129
:10059000CA2A3515341ACE2AB510CF2AB514341A02
:1005A000D32A3510D42A3514FD2A341BD92AB51381
:1005B000DA2AB517341BDE2A3513DF2A3517B41AA9
:1005C000E32AB512E42AB516B41AE82A3512E92A44
:1005D0003516341AED2AB511EE2AB515341AF22A59
:1005E0003511F32A3515B419F72AB510F82AB514C0
:1005F000B419FC2A3510FD2A35143508BB00222019
:1006000029005908043A0130031D0030F10059084F
:10061000053A0130031D0030F0007108F0040319A1
:10062000152B2B003508BB0022202B00B20A7E2A96
:10063000BB0122202B00BB0122202B00B10A642A1F
:10064000072108001D30FD00FD0B242B0800A03001
:100650002B00AE000F30AF00B001B101A030F000B0
:100660000F30F1000030F2000030F3002C08F400ED
:100670002D08F500F601F7019D2070082B00AE0053
:100680007108AF007208B0007308B1000030730247
:10069000031D542B00307202031D542B02307102D3
:1006A000031D542BB23070020318572B862BB23027
:1006B000AE020230AF3B0030B03BB13B0530F00042
:1006C00070080319692BB136B00CAF0CAE0CFF3EAD
:1006D000612B2E08F0002F08F1003008F2003108DD
:1006E000F3000130AE020030AF3BB03BB13B7008CD
:1006F0007104720473040319862B000000000000CB
:1007000000000000000000000000692B08002B0022
:10071000B001053030020318972B30082E078600F1
:1007200000302F3D870020308100B00A892B30082F
:100730002E07860000302F3D87008101B00330086E
:100740002E07B10000302F3DB2000A30F400F50151
:100750002C08F0002D08F100D3207808F00079086B
:10076000F1003030F0072B00310886003208870096
:10077000700881000A30F400F5012C08F0002D0803
:10078000F100D32070082B00AC007108AD000030E0
:100790007106031DCD2B00307006031DD02BD22B0C
:1007A000B0039F2B0800833021009D052B002208F9
:1007B000F000F035F035700821009D0422239D14CF
:1007C0009D1CE32BE02B1C08F100F0011B08F0043A
:1007D0000030F10408007408F8027508031C750F56
:1007E000F9027608031C760FFA027708031C770FCC
:1007F000FB02F30D0730FC00730DF80DF90DFA0D37
:10080000FB0D7408731C122CF8027508031C750F7D
:10081000F9027608031C760FFA027708031C770F9B
:10082000FB021F2CF80775080318750FF9077608E7
:100830000318760FFA0777080318770FFB07F30DF5
:10084000FC0BFC2B720DF80DF90DFA0DFB0D740865
:10085000731C382CF8027508031C750FF902760812
:10086000031C760FFA027708031C770FFB02452C56
:10087000F80775080318750FF90776080318760F3F
:10088000FA0777080318770FFB07F20D0730FC0013
:10089000720DF80DF90DFA0DFB0D7408721C5E2C2B
:1008A000F8027508031C750FF9027608031C760F11
:1008B000FA027708031C770FFB026B2CF807750808
:1008C0000318750FF90776080318760FFA077708EB
:1008D0000318770FFB07F20DFC0B482C710DF80D78
:1008E000F90DFA0DFB0D7408721C842CF8027508C2
:1008F000031C750FF9027608031C760FFA027708BD
:10090000031C770FFB02912CF80775080318750F6D
:10091000F90776080318760FFA0777080318770F98
:10092000FB07F10D0730FC00710DF80DF90DFA0D04
:10093000FB0D7408711CAA2CF8027508031C750FB6
:10094000F9027608031C760FFA027708031C770F6A
:10095000FB02B72CF80775080318750FF90776081E
:100960000318760FFA0777080318770FFB07F10DC6
:10097000FC0B942C700DF80DF90DFA0DFB0D74089D
:10098000711CD02CF8027508031C750FF90276084B
:10099000031C760FFA027708031C770FFB02DD2C8D
:1009A000F80775080318750FF90776080318760F0E
:1009B000FA0777080318770FFB07F00D0730FC00E4
:1009C000700DF80DF90DFA0DFB0D7408701CF62C66
:1009D000F8027508031C750FF9027608031C760FE0
:1009E000FA027708031C770FFB02032DF80775083E
:1009F0000318750FF90776080318760FFA077708BA
:100A00000318770FFB07F00DFC0BE02C7018162D68
:100A10007408F80775080318750FF90776080318A6
:100A2000760FFA0777080318770FFB0708007C1882
:100A30004D2DFC181E2D7C196C2D172DA10172084F
:100A4000031D3E2D7108F2007008F1007808F000D7
:100A5000F801A1157208031D3E2D7108F2007008FF
:100A6000F100F001A11121167208031D3E2D71083D
:100A7000F200F101A11572080319602D2108F3029B
:100A8000031D031C642D0310F21B4D2DF80DF00DFA
:100A9000F10DF20DF30B442D642D7B1B701C682DA2
:100AA000F81F682DF00A0319F10A0319F20A031D51
:100AB000682DF20CF10CF00CF30A03196C2D682D63
:100AC0000130FC0090216F2D0230FC0030216F2D91
:100AD0000430FC0020216F2D0830FC002421000090
:100AE00008002B002218772D22008E13792D22006A
:100AF0008E172B00A2187F2D22008E11812D22002F
:100B00008E152B002219872D22000E13892D22000D
:100B10000E172B00A2198F2D22000E11912D2200ED
:100B20000E152B00221A972D22008E12992D2200CD
:100B30008E162B00A21A9F2D22008E10A12D2200AE
:100B40008E142B00221BA72D22000E12A92D22008D
:100B50000E162A0043082B00AC002A0044082B0084
:100B6000AD002723080029005908043A0130031D6D
:100B70000030F1005908053A0130031D0030F00043
:100B80007108F0040319D12D2B002308AC002208B2
:100B9000AD002408AE002508AF002608B00097215C
:100BA0002B2E29005908023A0130031D0030F100B4
:100BB0005908033A0130031D0030F0007108F004B9
:100BC0000319F72D0730F0002B002308F400EF2065
:100BD000043070072B00AC002208AD00AD352408AE
:100BE000AE002508AF002608B00097212B2E290063
:100BF000D8012B002208F000F035F0357008083ECF
:100C0000AC003C212B002308AC003C210130290022
:100C1000D8002B00A7012608270203182B2E27082F
:100C2000240784000030253D85000008F10071088C
:100C3000AC00AC36AC36AC36AC363C212B002708C9
:100C4000240784000030253D85000008AC003C21CD
:100C50002B00A70A0B2E08002B00A801A9012208CF
:100C6000AA002308AB0080302306F0008030700219
:100C7000031D3C2E0030220203184A2E0130A8002A
:100C80000030A9002208003CAA002308031C013EF2
:100C9000AB01AB022A08AC002B08AD002408AE0063
:100CA0002508AF0087230630A6000030A7002708DC
:100CB000003C031D5D2E2608003C0318782E2608F4
:100CC000240786002708253D870001302602F00012
:100CD0000030273BF1007008240784007108253D8F
:100CE0008500000881000130A6020030A73B572E86
:100CF0002408860025088700203081002808290460
:100D000003199E2EA601A7012608240784002708A0
:100D1000253D85000008203A031D922EA60A0319DE
:100D2000A70A842E0130A6020030A73B260824071C
:100D300086002708253D87002D3081000800FB151F
:100D4000FF3008007B14FB1FAD2EF201FA1FFF30AD
:100D5000F200F100F000FA0DF20CFF30080026005E
:100D60006C08003A031DED2E2B002218BA2E22002B
:100D70008D11BC2E22008D152B00A218C22E220030
:100D80000C11C42E22000C152B002219CA2E220091
:100D90000D12CC2E22000D162B00A219D22E2200ED
:100DA0008C11D42E22008C152B00221ADA2E220050
:100DB0008D12DC2E22008D162B00A21AE22E2200AC
:100DC0008C12E42E22008C162B00221BEA2E22000D
:100DD0000C12EC2E22000C16252F2B002218F32EBD
:100DE00022008D15F52E22008D112B00A218FB2E4E
:100DF00022000C15FD2E22000C112B002219032FAE
:100E000022000D16052F22000D122B00A2190B2F08
:100E100022008C150D2F22008C112B00221A132F6B
:100E200022008D16152F22008D122B00A21A1B2FC7
:100E300022008C161D2F22008C122B00221B232F28
:100E400022000C16252F22000C122A0043082B002A
:100E5000AC002A0044082B00AD0027230800200026
:100E6000FB01FA01F9018030F800F10CF00C031CD1
:100E7000422F7408F90775080318750FFA0703184D
:100E8000FB0A0310F01F4A2F7408FA0775080318AD
:100E9000750FFB07FB0CFA0CF90CF80C031C352F33
:100EA0007B08F3007A08F2007908F1007808F00076
:100EB0000800A1017208031D6E2F7108F20070086E
:100EC000F100F001A1157208031D6E2F7108F200E8
:100ED000F101A1112116720803197C2F2108F302D8
:100EE000031D031C802F0310F21B842FF00DF10D46
:100EF000F20DF30B742F802F0130FC009021872F0F
:100F00000230FC003021872F0430FC002021080033
:100F1000FB09FA09F909F809F80A0319F90A03198A
:100F2000FA0A0319FB0A08002900CE012600EF0186
:100F30002B00A201AF2626006F082B00A20071250E
:100F40002A0043082B00AC002A0044082B00AD0007
:100F50002723080020007008F8007108F000F10154
:100F6000F201F301FB01FC019630F300FA01F01FDE
:100F7000BF2FF809F009F80A0319F00AFA177008E8
:100F8000F1007808F000F801F2015927080020006C
:100F90007008F8007108F0007208F1007308F200A0
:100FA000F301FB01FC019E30F300FA01F21FE42F74
:100FB000F809F009F109F209F80A0319F00A03190E
:100FC000F10A0319F20AFA170230FC00172508008B
:100FD0000330FC009530FD00FD0BEC2FFC0BEC2FDB
:100FE0000800D3302A00BF000330C000A230C10087
:100FF0000530C200F03021009E009D011D14080044
:101000002000FB01730803193C287208FA00F2174C
:101010008E30F302F31F3F28F309F30A08307302FE
:10102000031C2228F300F10D7208F100F2010830D0
:101030007302031C2228F300F10DF1017308031D54
:1010400003102A28730803192A280310F20CF10C44
:10105000F30B25287B1B711C3428031C3428F10A50
:101060000319F20AF21B4B28FA1F4E28F209F10964
:10107000F10A0319F20A4E28F201F1014E287B14FD
:10108000FB1F5128F201FA1F5128FF30F200F10036
:10109000FA0DF20C51280130FC0053280030FC00FE
:1010A0005328FF30FC00FC08031959288031A22680
:1010B00088317108F0007208F10008007408003AE5
:1010C000031D77287508003A031D77287608003A33
:1010D000031D77287708003A031D7728FF30F000BA
:1010E000FF30F1007F30F200FF30F30019292000BB
:1010F000770803190529730803190A297208760667
:101100008039FA00F217F617A1017208F800710889
:10111000FC007008FD007408FD027508031C750FC3
:10112000FC027608031C760FF802F801FC01FD01B1
:10113000031CA1280310F20CF10CF00CF80C013088
:10114000A1007708F302031CAB287E302107F307C8
:1011500003180F29B0287E302107F307031C142938
:101160001830FA07FD0DFC0DF80DF00DF10DF20D24
:10117000A10D7408F0027508031C750FF1027608C2
:10118000031C760FF202760DA104211CC9287D14E0
:10119000D4287408F00775080318750FF10776084E
:1011A0000318760AF2077D10FA031F307A05031D33
:1011B000B2287B1B7D1CFB280310F00DF10DF20DF6
:1011C000A10D7408F0027508031C750FF102760872
:1011D000031C760FF202760D21040139FD07031876
:1011E000FC0A0319F80A031DFB28F80CFC0CFD0C83
:1011F000F30A03190F29FA1FF8137808F2007C0884
:10120000F1007D08F00000301829013080319F2660
:101210008831182902308031902188311829043012
:1012200080312421883118290830803130218831DB
:10123000000008002B002008F0002108F100033016
:10124000F4000030F50080312F27883170082B0022
:10125000A0007108A1008030F20080307106720297
:10126000031D34297008503C031C3929F001F10199
:101270000C2A8030F000803021067002031D4229C4
:101280002008AB3C031C4929F430A0070030A13DE5
:10129000082A8030013AF000803021067002031DD8
:1012A00053292008483C031C5A29FE30A00700306F
:1012B000A13D082A8030023AF000803021067002F9
:1012C000031D64292008463C031C6B291830A00725
:1012D0000130A13D082A8030033AF0008030210619
:1012E0007002031D75292008343C031C7C29293019
:1012F000A0070130A13D082A8030043AF000803078
:1013000021067002031D862920084C3C031C8D29F0
:101310003630A0070130A13D082A8030083AF0009D
:10132000803021067002031D97292008853C031C8C
:101330009E29AE30A0070130A13D082A80300C3A2A
:10134000F000803021067002031DA8292008FA3C15
:10135000031CAF29E430A0070130A13D082A8030EA
:10136000123AF000803021067002031DB9292008CE
:101370000F3C031CC0291230A0070230A13D082AEF
:101380008030163AF000803021067002031DCA2911
:101390002008E63C031CD1298830A0070230A13D7B
:1013A000082A80301B3AF000803021067002031DAD
:1013B000DB292008EA3C031CE229E730A0070230C1
:1013C000A13D082A8030213AF000803021067002C9
:1013D000031DEC292008363C031CF3292030A0070C
:1013E0000330A13D082A8030293AF00080302106E0
:1013F0007002031DFD292008043C031C042A483008
:10140000A0070330A13D082A5C30A0070330A13DAE
:101410002008F0002108F100080081302200970028
:10142000171B132A102A2B00A2018031D3238831E5
:1014300070082B00A0007108A1008030033AF20070
:10144000803071067202031D272A7008E83C031CD5
:101450002E2A2008F0002108F1006D2A8230220097
:101460009700171B342A312A2B00A2018031D32385
:10147000883170082B00A0007108A1008030033A69
:10148000F200803071067202031D482A7008E83CA1
:10149000031C512A2008F0002108F100F035F10D5D
:1014A0006D2A833022009700171B572A542A2B00DD
:1014B000A2018031D323883170082B00A00071086D
:1014C000A1007008F2007108F300F235F30DF23557
:1014D000F30D7208F0007308F1000800813022005B
:1014E0009700171B742A712A01302B00A20080314B
:1014F000D323883170082B00A0007108A100803030
:10150000033AF200803071067202031D892A7008C6
:10151000E83C031C902A2008F0002108F100D12AA1
:10152000823022009700171B962A932A01302B0045
:10153000A2008031D323883170082B00A0007108ED
:10154000A1008030033AF200803071067202031D60
:10155000AB2A7008E83C031CB42A2008F0002108DC
:10156000F100F035F10DD12A833022009700171BCE
:10157000BA2AB72A01302B00A2008031D323883148
:1015800070082B00A0007108A1007008F20071081B
:10159000F300F235F30DF235F30D7208F000730825
:1015A000F1000800640029004E084F0601300319BD
:1015B0000030F1004D0828006F060130031900309B
:1015C000F0007108F0040319072C29004E08CF0021
:1015D0002A00AD01AE0129004E1CF32A2A002F0873
:1015E000AD073008AE3D2900CE1CFD2A6E082A004A
:1015F000AD0729006F082A00AE3D29004E1D052BBE
:101600002A002908AD072A08AE3D2900CE1D0D2B62
:101610002A003708AD073808AE3D29004E1E152BAD
:101620002A003B08AD073C08AE3D2900CE1E1D2B0D
:101630002A003908AD073A08AE3D29004E1F252B78
:101640002A003508AD073608AE3D2A002D082B00CC
:10165000A2002A002E082B00A3002030A400053091
:10166000A50080312C2688312A002208203A03194F
:101670003D2B22082900E400402B29003030E400F3
:101680002E30E5002A002308203A03194B2B2308AB
:101690002900E6004E2B29003030E6002A002408FD
:1016A000203A0319572B24082900E7005A2B290058
:1016B0003030E7006B08043A0130031D0030F100C0
:1016C0006B08053A0130031D0030F0007108F0048A
:1016D0000319982B4D08013A031D722B04302B007F
:1016E000A000752B2B000630A00029004D08280013
:1016F0006F060319892B2B002008A2001030A300CD
:10170000BA30A4000430A5000830A6008031B3250B
:1017100088312B002008A2002830A300E430A40068
:101720000430A5000430A6008031B3258831072C91
:1017300029006B08023A0130031D0030F1006B08EC
:10174000033A0130031D0030F0007108F004031962
:10175000D62B4D08013A031DB02B2B00A001B32B53
:101760002B000130A00029004D0828006F06031946
:10177000C72B2B002008A2000930A300C330A4000F
:101780000430A5000830A6008031B32588312B0035
:101790002008A2000B30A300E430A4000430A50010
:1017A0000430A6008031B3258831072C29006B084E
:1017B000003A0319072C4D08013A031DE22B2B00B8
:1017C000A001E52B2B000130A00029004D082800C6
:1017D0006F060319F92B2B002008A2000930A30083
:1017E000B230A4000430A5000730A6008031B32534
:1017F00088312B002008A2000B30A300E430A400A5
:101800000430A5000430A6008031B32588312600BD
:101810006F0829004C06013003190030F1004D0813
:1018200028006F06013003190030F0007108F00441
:101830000319252D26006F082900CC002A00AD01D0
:10184000AE0126006F1C292C2A003308AD0734088E
:10185000AE3D2600EF1C312C2A002B08AD072C08CA
:10186000AE3D26006F1D392C2A002708AD07280839
:10187000AE3D2600EF1D412C2A003108AD0732088D
:10188000AE3D26006F1E492C2A004508AD074608CC
:10189000AE3D2600EF1E512C2A004708AD07480830
:1018A000AE3D26006F1F592C2A003D08AD073E08AB
:1018B000AE3D2A002D082B00A2002A002E082B0086
:1018C000A3002030A4000530A50080312C268831EB
:1018D0002A0022082900E4002A0023082900E50044
:1018E0002A0024082900E6002A0025082900E7002C
:1018F0006B08043A0130031D0030F1006B08053A13
:101900000130031D0030F0007108F0040319B62CFB
:101910004D08013A031D902C06302B00A000932C9B
:101920002B000430A00029004D0828006F06031981
:10193000A72C2B002008A2001030A300A030A40088
:101940000330A5000830A6008031B32588312B0074
:101950002008A2002830A300E430A4000430A50031
:101960000430A6008031B3258831252D29006B086D
:10197000023A0130031D0030F1006B08033A0130D8
:10198000031D0030F0007108F0040319F42C4D0819
:10199000013A031DCF2C01302B00A000D12C2B00CD
:1019A000A00129004D0828006F060319E52C2B0023
:1019B0002008A2000930A3004A30A4000130A5008D
:1019C0000830A6008031B32588312B002008A20002
:1019D0000B30A300E430A4000430A5000430A600BE
:1019E0008031B3258831252D29006B08003A031971
:1019F000252D4D08013A031D012D01302B00A000BB
:101A0000032D2B00A00129004D0828006F060319A3
:101A1000172D2B002008A2000930A3004230A4009B
:101A20000130A5000730A6008031B32588312B0096
:101A30002008A2000B30A300E430A4000430A5006D
:101A40000430A6008031B3258831640029004D0898
:101A50002800EF0027006D08003A031DC42D29005F
:101A60006B08043A0130031D0030F1006B08053AA1
:101A70000130031D0030F0007108F0040319802DBF
:101A8000220041080130031D0030F00028006908E1
:101A9000F0050319592D2B00A2017030A300573017
:101AA000A4000130A5000130A6008031B3258831A3
:101AB0007F2D280069080130031D0030F00022004E
:101AC0004108F0050319722D2B00A2017030A3000C
:101AD0005530A4000130A5000130A6008031B325A7
:101AE00088317F2D2B00A2017030A3005330A40059
:101AF0000130A5000130A6008031B3258831C42D06
:101B000029006B08003A0319C42D22004108013056
:101B1000031D0030F00028006908F00503199E2D10
:101B20002B00A2010830A3003F30A4000130A50023
:101B30000130A6008031B3258831C42D2800690802
:101B40000130031D0030F00022004108F0050319A8
:101B5000B72D2B00A2010830A3003D30A4000130B6
:101B6000A5000130A6008031B3258831C42D2B009B
:101B7000A2010830A3003B30A4000130A5000130D1
:101B8000A6008031B3258831640008002000720867
:101B90007606A100F801F90173087702031CE82D0D
:101BA0007708FD007308F7007D08F3007608FD0054
:101BB0007208F6007D08F2007508FD007108F50056
:101BC0007D08F1007408FD007008F4007D08F00045
:101BD00077080319692E7208FA00F217F6177708CA
:101BE0007302F70003191B2E08307702031C112E15
:101BF000F7007408F9007508F4007608F500F6019E
:101C000008307702031C112EF7007408F9007508DC
:101C1000F400F50108307702031C112E7A08F20057
:101C2000692E770803191B2E0310F60CF50CF40C23
:101C3000F90CF70B142EA11F282EF909F409F50948
:101C4000F609F90A0319F40A0319F50A0319F60A41
:101C50007908F80774080318740FF007750803185B
:101C6000750FF10776080318760FF207A11B412EB6
:101C7000031C512EF20CF10CF00CF80CF30F512E4A
:101C8000632E0318572EF809F009F109F209F80A32
:101C90000319F00A0319F10A0319F20A8030FA064F
:101CA0005D2E0130FC008031172588316B2E02300B
:101CB000FC008031172588316B2E0430FC00803108
:101CC000592788316B2E0830FC008031242188315F
:101CD0006B2E0030FC00000008007408003A031D61
:101CE000862E7508003A031D862E7608003A031DDD
:101CF000862E7708003A031D862EFF30F000FF3055
:101D0000F100FF30F2007F30F300222F2000FC01B1
:101D1000F71BFC0AFD01FB01FA01F901F801730848
:101D200072047104700403191B2F73087706A00056
:101D3000A01BFD09F71FA72EF409F509F609F709FD
:101D4000F40A0319F50A0319F60A0319F70AF31F2F
:101D5000B42EF009F109F209F309F00A0319F10AA6
:101D60000319F20A0319F30A73087704A000A01BF1
:101D7000D72E8031EB238831FC1BF42EFD1F1B2F47
:101D8000F009F109F209F309F00A0319F10A03193C
:101D9000F20A0319F30AF809F909FA09FB09F80A22
:101DA0000319F90A0319FA0A0319FB0A1B2FF71F73
:101DB000EE2EF31BE82E7308FB007208FA00710880
:101DC000F9007008F800F301F201F101F001BE2EF4
:101DD000F301F201F101F001F00A0034F309F20914
:101DE000F109F009FC17B92EF80A0319F90A0319C9
:101DF000FA0A0319FB0A74087802031DBE2E75083F
:101E00007902031DBE2E76087A02031DBE2E7708C6
:101E10007B02031DBE2EFB01FA01F901F801F00A55
:101E20000319F10A0319F20A0319F30AF31FBE2E6C
:101E3000A0012016FF34A0017C1C212F80318827AF
:101E40008831003E08002B002008230091009201F9
:101E50002B002108230093001513951315150B086B
:101E6000F0008B1355309600AA3096009514F01BA5
:101E70003B2F8B133C2F8B171511951C402F3D2F9B
:101E800008002000FB017308031D77080319972F32
:101E900072087606FA007708F3077E30031C542F89
:101EA000F30203189C2F572FF302031CA12F720873
:101EB000F8007108FC007008FD00F817F617031011
:101EC000F201F101F0011830A1007D1C712F74089E
:101ED000F00775080318750FF10776080318760FD9
:101EE000F207F20CF10CF00CF80CFC0CFD0C0310DA
:101EF000A10B652FF21B812FF80DF00DF10DF20DE6
:101F0000F3037B1B701C932FF81F932FF00A031908
:101F1000F10A0319F20A031D932FF20CF10CF00CD5
:101F2000F30A03199C2FFA1FF2130030A52F01307A
:101F3000803190218831A52F0230803124218831D1
:101F4000A52F043080313021883100000800710D48
:101F5000F80DF90D7408F8027508031C750FF902E5
:101F6000F00DF10D0F30FC00710DF80DF90D740836
:101F7000701CC02FF8027508031C750FF902C52FDD
:101F8000F80775080318750FF907F00DF10DFC0B34
:101F9000B42F7018D12F7408F80775080318750F3F
:101FA000F907000008002A005918D92F22000E1046
:101FB000DB2F22000E142A0043082B00AC002A005D
:101FC00044082B00AD0080312723883108002A0007
:101FD0004B08F000F036F036F036F0360A30F400F8
:101FE0008031EF2088310F302A004B05F100710855
:101FF000F0070800003401340034003400340034A9
:102000002A00650820005806031D092857082A00E1
:1020100064060319EE282A0064082000D7002A006D
:1020200065082000D80026006A08003A031D7528BC
:1020300080302A006506F00080307002031D2228DF
:1020400064306402031C492805306407F000003046
:10205000653DF1007008E4007108E50070082B0090
:10206000A2007108A3002030A4000530A500803133
:102070002C2690312A0022082900E4002A00230897
:102080002900E5002A0024082900E6005730E7006F
:1020900074282A0064082B00A2002A0065082B007F
:1020A000A3002030A4000530A50080312C269031FB
:1020B0002A002408203A0319612824082900E40092
:1020C000642829003030E4002E30E5002A0025087D
:1020D000203A03196F2825082900E60072282900F4
:1020E0003030E6005730E700BE2880302A00650611
:1020F000F0008030033A7002031D8028E73064024C
:1021000003189F2864082B00A2002A0065082B00F2
:10211000A3002030A4000530A50080312C2690318A
:102120002A0023082900E4002A0024082900E500E9
:102130002A0025082900E6005730E700BE282A00BB
:1021400064082B00A2002A0065082B00A3002030A1
:10215000A4000530A50080312C2690312A002208E9
:102160002900E4002A0023082900E5002A002408A9
:102170002900E6002A0025082900E6006B08043A39
:102180000130031D0030F1006B08053A0130031DDA
:102190000030F0007108F0040319DC282B00A201C4
:1021A0004030A300E430A4000430A5000430A600B1
:1021B0008031B3259031EE2829006B08003A0319CD
:1021C000EE282B00A2010430A300E430A400043068
:1021D000A5000430A6008031B325903108002A0004
:1021E000EA016608F1000130F00071080319FB28CC
:1021F000F035FF3EF6287008E900640884006508A1
:10220000850070080005F10071080130031D0030E1
:10221000F0006808F00603192B296708003C031832
:1022200019298031E82790318031E8279031E70380
:102230000D29640884006508850069080005F1001F
:1022400071080130031D0030F0006808F006031922
:102250002B29FF30EA006A08F0000800640088318A
:102260006E22903170082A00E4007108E500003009
:10227000E51BFF30E600E70088310D229031700841
:102280002A00E8007108E9000030E91BFF30EA008D
:10229000EB0026006B08013A031D66292A0064083A
:1022A0002B00A0002A0065082B00A10088311A210C
:1022B00090318031AA27903170082A00EC00710813
:1022C000ED007208EE007308EF007B292A00640815
:1022D000F0006508F1006608F2006708F30080313D
:1022E000C727903170082A00EC007108ED007208D1
:1022F000EE007308EF0080306B06F0008030670658
:102300007002031D8D2966086A02031D8D29650868
:102310006902031D8D2964086802031C9629E730B1
:10232000E4000330E500E601E701E02968086407FE
:10233000F0006908653DF1006A08663DF2006B082F
:10234000673DF3006430F400F501F601F7018031D8
:102350009D2090312A006408F4006508F5006608A5
:10236000F6006708F7006808F4026908F53B6A0898
:10237000F63B6B08F73B88316D26903170082A00D8
:10238000E4007108E5007208E6007308E700803099
:10239000F400803073067402031DD8297208003CD3
:1023A000031DD8297108033C031DD8297008E73C98
:1023B0000318E029E730E4000330E500E601E70117
:1023C00026006A08013A031D552A2A006C08F0000D
:1023D0006D08F1006E08F2006F08F3000030F400A1
:1023E0000030F5000030F6008430F70088314127D6
:1023F00090310030F4000030F5007A30F60088307B
:10240000F70088315E20903170082A00EC007108D6
:10241000ED007208EE007308EF00F430F400FD30B8
:10242000F5003430F6007F30F70088315E209031BF
:1024300070082A00EC007108ED007208EE007308C5
:10244000EF007008F4007108F5007208F6007308D8
:10245000F7008831412790310030F4000030F5005A
:102460004830F6008430F70088315E2090317008E3
:102470002A00EC007108ED007208EE007308EF000E
:102480000030F4000030F5000030F6007E30F70038
:102490008831C625903170082A00EC007108ED00E3
:1024A0007208EE007308EF00C42A2A006C08F000DE
:1024B0006D08F1006E08F2006F08F3000030F400C0
:1024C0000030F5002030F6008230F70088314127D7
:1024D00090310030F4000030F5007A30F60088309A
:1024E000F70088315E20903170082A00EC007108F6
:1024F000ED007208EE007308EF00F430F400FD30D8
:10250000F5003430F6007F30F70088315E209031DE
:1025100070082A00EC007108ED007208EE007308E4
:10252000EF007008F4007108F5007208F6007308F7
:10253000F7008831412790310030F4000030F50079
:102540002030F6008130F70088315E20903170082D
:102550002A00EC007108ED007208EE007308EF002D
:102560000030F4000030F5000030F6007E30F70057
:102570008831C625903170082A00EC007108ED0002
:102580007208EE007308EF006C08F0006D08F100AF
:102590006E08F2006F08F300883100209031700857
:1025A0002900E0007108E10080307106F2008030FF
:1025B0007202031DDD2A0A3070020318E42A01307A
:1025C000EC000030ED00062B80302A006706F0009A
:1025D00080307002031DF62A00306602031DF62AC1
:1025E00000306502031DF62A643064020318FE2AD7
:1025F000E7302900EC000330ED00062B2A006408C8
:102600002900EC002A0065082900ED00080080314F
:1026100094279031FF30A000A10188312327903109
:10262000FE302B00A000A101883123279031FD301E
:102630002B00A000A1018831232790318831D222BC
:10264000903129006B08003A031D292B22000D1739
:102650008D1722008C130C172900EC01ED01E0010D
:10266000E1012800EC01ED0129006B08043A01307A
:10267000031D0030F1006B08053A0130031D0030E6
:10268000F0007108F0040319922B02302B00A20015
:102690001030A300CD30A4000130A5000830A60002
:1026A0008031B325903164000D30FB002D30FC00EB
:1026B000D730FD00FD0B5A2BFC0B5A2BFB0B5A2B72
:1026C0000000000002302B00A2001030A300C43034
:1026D000A4000130A5000830A6008031B325903158
:1026E00026006A08013A031D832B2B00A20110303B
:1026F000A300BB30A4000130A5000830A600803143
:10270000B3259031902B2B00A2011030A300A030F4
:10271000A4000130A5000830A6008031B325903117
:102720006400DF2B29006B08003A0319DF2B01300E
:102730002B00A200A3016230A4000130A5000830E4
:10274000A6008031B325903164000D30FB002D30A0
:10275000FC00D730FD00FD0BAB2BFC0BAB2BFB0BB8
:10276000AB2B0000000001302B00A200A301593068
:10277000A4000130A5000830A6008031B3259031B7
:1027800026006A08013A031DD22B2B00A201A301E7
:10279000B230A4000130A5000830A6008031B32576
:1027A0009031DE2B2B00A201A301A930A40001303F
:1027B000A5000830A6008031B325903164000800E0
:1027C0002E2126006908643A0319F92BE90A8030A2
:1027D00029005B06F000803061067002031DF22BB9
:1027E00060085A020318F82B6008DA006108DB0061
:1027F000072C2600E90129005A082A00E4002900D4
:102800005B082A00E50000202900DA01DB0129002D
:1028100080306106F20080305D067202031D122CCA
:102820005C086002013003180030F20080305F065F
:10283000F100803061067102031D202C60085E02E9
:10284000013003180030F1008030F00080305F0666
:102850007002031D2D2C5E08003C0130031800306F
:10286000F0007108F0057208F00403198B2C640065
:102870002E2126006908643A0319512CE90A803098
:1028800029005B06F000803061067002031D4A2CAF
:1028900060085A020318502C6008DA006108DB0057
:1028A0005F2C2600E90129005A082A00E4002900CB
:1028B0005B082A00E50000202900DA01DB010D3069
:1028C0002A00E4000030E500E6010530E7000130B1
:1028D000E800EF2070080319702C01302600EE008C
:1028E00026006E08013A0130031D00302A00E30083
:1028F0000D30E4000030E500E6010530E700E801B6
:10290000EF206308F00503198A2C07232900EC0146
:10291000ED018B2C072C08007408003A031D992C3C
:102920007508003A031D992CFF30F0007F30F1004C
:10293000F32C2000FD01F901F8017108700403195E
:10294000003471087506FA00FA1BFD09FB01F51F3A
:10295000AE2CF409F509F40A0319F50AF11FB52C98
:10296000F009F109F00A0319F10A71087504FA0077
:10297000FA1BCA2C8831A72790317B18DF2CFD1F4A
:102980000034F009F109F00A0319F10AF809F9090C
:10299000F80A0319F90A0034F51FDB2CF11BD72CB8
:1029A0007108F9007008F800F101F001BF2CF10185
:1029B000F001F00A0034F109F009FB0ABC2CF80A16
:1029C0000319F90A74087802031DBF2C75087902EF
:1029D000031DBF2CF901F801F00A0319F10AF11FD8
:1029E000BF2C0000FF34080003302A00E20026005C
:1029F000EF012B00A2018031712590312A0062087D
:102A00002700E900E023003029006D06031D0A2D90
:102A100000306C06031D0D2DB92D1430F40000306C
:102A2000F5006C08F0006D08F1008C247008290096
:102A30006C072A00E000710829006D3D2A00E100C2
:102A40006208DF002A005F081F3C031CB22D5F08EC
:102A5000F00027006808F4008031EF209031700802
:102A60002B00A200803171259031E0230030290035
:102A70006D06031D3D2D00306C06031D402DB92D44
:102A800080306D06F00080302A0061067002031D60
:102A90004C2D600829006C020318B02D2900143059
:102AA000F4000030F5006C08F0006D08F1008C2493
:102AB000700829006C072A00E000710829006D3DAC
:102AC0002A00E1005F08F00027006808F400803168
:102AD000EF20903170082600EF002A0062082700DE
:102AE000E900803029006D06F00080307002031D7F
:102AF0007B2D78306C0203187E2DB22D2A006208DF
:102B00005F07F2007208DF0026006D08003A01300E
:102B1000031D0030F1007208093A0130031D003036
:102B2000F0007108F0050319992D08302A00DF0024
:102B3000AF2D26006D08003A0130031D0030F10072
:102B40002A005F08113A0130031D0030F0007108BF
:102B5000F0050319AF2D1030DF000430E200B12D75
:102B6000B22D222D26006F082B00A2008031712586
:102B70009031080003302A00DE00DA015E082000F0
:102B8000D60003302A00DB001430F4000030F500DA
:102B900029006C08F0006D08F1008C2470082900F1
:102BA0006C072A00DC00710829006D3D2A00DD0059
:102BB0005E08D9002A0059081F3C031C722E5908D0
:102BC000F00020005508F4008031EF2090317008AB
:102BD0002B00A2008031AF269031F424E023003096
:102BE00029006D06031DF62D00306C06031DF92D1E
:102BF000922E80306D06F00080302A005D06700253
:102C0000031D052E5C0829006C020318702E290094
:102C10001430F4000030F5006C08F0006D08F1008D
:102C20008C24700829006C072A00DC007108290038
:102C30006D3D2A00DD005908F00020005508F40021
:102C40008031EF20903170082900CE0026006F08F7
:102C50002A00DA005E082000D600270069082A0052
:102C6000DB00803029006D06F00080307002031D0B
:102C70003B2E78306C0203183E2E722E2A005E081E
:102C80005907F2007208D90020006D08003A01309F
:102C9000031D0030F1007208093A0130031D0030B5
:102CA000F0007108F0050319592E08302A00D900E8
:102CB0006F2E20006D08003A0130031D0030F10036
:102CC0002A005908113A0130031D0030F000710844
:102CD000F00503196F2E1030D9000430DE00712E7C
:102CE000722EDA2D2A005A082600EF0029004E081D
:102CF0002B00A2008031AF26903126006F082B00F8
:102D0000A2008031712590312A005B082700E9007C
:102D10003430FC00F130FD00FD0B8C2EFC0B8C2EB2
:102D200000000000080020005608F0005508F400DC
:102D30008031EF20903170082A00D90070082900F6
:102D40004E07F40074082A00DB000530F200200072
:102D50005508F000F10172080319B22EF035F10D9B
:102D6000FF3EAC2E01307002F2000030713BF300E8
:102D700080307306F00080307002031DC12E74088D
:102D800072020318CF2E0530F00055082A00DB0030
:102D900070080319CE2EDB35FF3EC92EDB03290058
:102DA0004E082A0059020318DB2E590829004E024A
:102DB0002A00DC00DC2EDC015C082900CE002A00A1
:102DC0005C082B00A2008031AF269031E023003058
:102DD00029006D06031DEE2E00306C06031DF12E3A
:102DE000792F6C082A00DD0029006D082A00DE001A
:102DF000200055082A005C07DA005A085B02031C11
:102E0000722F5A082B00A2008031AF269031E023A8
:102E1000003029006D06031D0F2F00306C06031DC6
:102E2000122F792F80306D06F00080302A005E0668
:102E30007002031D1E2F5D0829006C02031C2B2F3E
:102E40003430FC00F130FD00FD0B242FFC0B242F4F
:102E500000000000E023803029006D06F000803083
:102E60002A005E067002031D382F5D0829006C02DF
:102E7000031C452F3430FC00F130FD00FD0B3E2FCC
:102E8000FC0B3E2F00000000E023803029006D067F
:102E9000F00080302A005E067002031D522F5D088C
:102EA00029006C0203186C2F29006C082A00DD0031
:102EB00029006D082A00DE005A082900CE00803063
:102EC0006D06F00080307002031D682F78306C02B0
:102ED00003186B2F722F6D2F722F200055082A00B8
:102EE000DA07FD2E29004E082B00A2008031AF2604
:102EF000903108000D302A00E4000030E500E601C2
:102F00003230E700E801EF207008D3000D30E40014
:102F10000030E5000130E6003230E700E801EF2044
:102F20007008D3040D30E4000030E5000230E60004
:102F30003230E700E801EF205308F0040319A32F13
:102F400001302700EC000800803103209031290077
:102F500057082B00BB0080312220903180302B009D
:102F6000BB008031222090312A004D082B00BB008D
:102F700080312220903180310721903108002A00D1
:102F80004B08230091009201951315131514130893
:102F9000F00008002A00CB01BF2770082900D700E5
:102FA0007008003A031DDB2F21000D138D13220042
:102FB0000D178D17E12F21000D178D1722000D130E
:102FC0008D13080012001E00F003031DE22FF10311
:102FD000031DE22F0800543455344E344534003478
:102FE00063340034003400346334003446344134F4
:102FF000533454342034543445345334543400342A
:1030000027006908F0006808F4008031EF2098314B
:1030100070082A00D900700826006F07F4007408B1
:103020002A00DB000530F20027006808F000F101FB
:10303000720803191F28F035F10DFF3E19280130E1
:103040007002F2000030713BF30080307306F00034
:1030500080307002031D2E287408720203183C2869
:103060000530F00068082A00DB00700803193B28CF
:10307000DB35FF3E3628DB0326006F082A005902A5
:1030800003184828590826006F022A00DC00492846
:10309000DC015C082600EF002A005C082B00A2007F
:1030A0008031712598319031E0239831003029002A
:1030B0006D06031D5D2800306C06031D6028EF2897
:1030C0006C082A00DD0029006D082A00DE002700B8
:1030D00068082A005C07DA005A085B02031CE8282B
:1030E0005A082B00A2008031712598319031E023DD
:1030F0009831003029006D06031D802800306C06D1
:10310000031D8328EF2880306D06F00080302A00F0
:103110005E067002031D8F285D0829006C02031CE7
:103120009E283430FC00F130FD00FD0B9528FC0B8F
:103130009528000000009031E0239831803029006C
:103140006D06F00080302A005E067002031DAB2879
:103150005D0829006C02031CBA283430FC00F130F1
:10316000FD00FD0BB128FC0BB128000000009031E0
:10317000E0239831803029006D06F00080302A006D
:103180005E067002031DC7285D0829006C02031843
:10319000E22829006C082A00DD0029006D082A00B9
:1031A000DE005A082600EF00803029006D06F0008E
:1031B00080307002031DDE2878306C020318E1288D
:1031C000E828E328E828270068082A00DA076C289E
:1031D00026006F082B00A20080317125983108006D
:1031E00064002A00540827006F06031DFA286E08A1
:1031F0002A00530603199B292A0053082700EE00D2
:103200002A0054082700EF0000302A005406031D4E
:103210000B2901305306031D442929006B08043A89
:103220000130031D0030F1006B08053A0130031D29
:103230000030F0007108F00403192D2902302B0032
:10324000A2004030A3003230A4000430A5000430B6
:10325000A6008031B3259831402929006B08003A37
:103260000319402901302B00A2000430A30037309D
:10327000A4000430A5000430A6008031B3259831A5
:103280002700EE01EF019B292A0053082700EE00DA
:103290002A0054082700EF002A0053082B00A20040
:1032A0002A0054082B00A3002030A4000530A500FC
:1032B00080312C2698312A0023082900E4002E3082
:1032C000E5002A0024082900E6002A002508290034
:1032D000E7006B08043A0130031D0030F1006B0871
:1032E000053A0130031D0030F0007108F0040319A5
:1032F000882902302B00A2004030A300E430A40053
:103300000430A5000430A6008031B32598319B29F4
:1033100029006B08003A03199B2901302B00A200F9
:103320000430A300E430A4000430A5000430A6005B
:103330008031B32598316400080029006C082A0008
:10334000D30029006D082A00D4009031BA259831A5
:10335000003029006D06031DAF2900306C06031DE7
:10336000B5298031942798311C2B9031E023983176
:10337000803029006D06F00080307002031DC229E4
:1033800078306C020318C5291C2B90319326983194
:10339000003029006D06031DCF2900306C06031D87
:1033A000D5298031942798311C2B9031E023983116
:1033B000803029006D06F00080307002031DE22984
:1033C00078306C020318E5291C2B002000302900FE
:1033D0006D06031DED2900306C06031DF3298031B5
:1033E000942798311C2B9031E023983180302900AC
:1033F0006D06F00080307002031D002A78306C02E8
:103400000318032A1C2B80306D06F10080307102F6
:10341000031D0C2AC8306C02013003180030F10083
:1034200080306D06F00080302A0054067002031DC3
:103430001C2A530829006C022900013003180030AF
:10344000F00070087105F3006C082A005302F100C7
:1034500029006D082A00543BF2008030F0008030D3
:1034600072067002031D362A7108643C013003188D
:103470000030F0007308F00503193F2A1C2B2900C7
:103480006C082A00D30029006D082A00D400290006
:103490004E082A00D500D60126006F082A00D70062
:1034A000D80129004D08013A031D582ACD015A2A96
:1034B0000130CD0080319427983129004D082A0031
:1034C000D9008831D32798310230FB000430FC004A
:1034D000BA30FD00FD0B6A2AFC0B6A2AFB0B6A2A34
:1034E00000009031E0239831803029006D06F00013
:1034F00080307002031D7E2A78306C020318812A06
:103500001C2B9031BA259831003029006D06031D1F
:103510008B2A00306C06031D912A80319427983144
:103520001C2B9031E0239831803029006D06F0008B
:1035300080307002031D9E2A78306C020318A12A85
:103540001C2B903193269831003029006D06031D05
:10355000AB2A00306C06031DB12A803194279831C4
:103560001C2B9031E0239831803029006D06F0004B
:1035700080307002031DBE2A78306C020318C12A05
:103580001C2B0020003029006D06031DC92A0030C5
:103590006C06031DCF2A8031942798311C2B903163
:1035A000E0239831803029006D06F00080307002F1
:1035B000031DDC2A78306C020318DF2A1C2B8030B4
:1035C0002A005406F000803029006D067002031DA9
:1035D000EC2A6C082A00530203181B2B29004D0803
:1035E000013A031DF52ACD01F72A0130CD004D081F
:1035F0002A00D9008831D32798312A00550829009C
:10360000CE002A0057082600EF002A0055082B009C
:10361000A2008031AF26983126006F082B00A2004F
:103620008031712598312A0053082900EC002A00C6
:1036300054082900ED00640008002A00D101D201DD
:103640006430290062022A00CE0000302900633B6A
:103650002A00CF002900E001E10101302700EA0043
:103660000030EB0064006D08013A031D3B2B28304D
:103670002A00D0003E2B2A007830D000CD0150081F
:103680004D020318A82B27006D08003A0130031DD6
:103690000030F10020000D184F2B7614502B7610BF
:1036A0008D18542B0314552B031076185B2B03181D
:1036B0005B2B76105C2B761420000D19612B031404
:1036C000622B03107618682B0318682B7610692B71
:1036D0007614F0017618F00A7108F00503197A2BB8
:1036E00090317A27983127006C08013A031D7A2B14
:1036F000EC018C2E90312E21983180302A00520618
:10370000F0008030290061067002031D8A2B6008DA
:103710002A00510203189C2B290060082A00D100BE
:10372000290061082A00D20029006C082700EA005D
:1037300029006D082700EB001030FC009430FD00DC
:10374000FD0BA02BFC0BA02B00002A00CD0A3F2B69
:10375000640051082800EA002A0052082800EB0003
:1037600027006A082A00D30027006B082A00D4002B
:10377000F020803027006B06F000803029006306BF
:103780007002031DC62B620827006A020130031C69
:103790000030F000700828006905F50080306D06E3
:1037A000F300803027006B067302031DDA2B6A08D2
:1037B00028006C022800013003180030F3006C0868
:1037C00027006A02F10028006D0827006B3BF20019
:1037D00080302A004F06F000803072067002031D10
:1037E000F32B71084E02013003180030F00070080E
:1037F0007305F400803027006B06F300803028004A
:103800006D067302031D072C6C0827006A0227004F
:10381000013003180030F3006A0828006C02F10040
:1038200027006B0828006D3BF20080302A004F060D
:10383000F000803072067002031D202C71084E02C9
:10384000013003180030F0007308F00570087404AC
:10385000F10028006D08033A031D302CE7306C0698
:103860000130031D0030F0007108F0047508F00508
:1038700003193C2C0130EE0027006D08003A01309E
:10388000031D0030F10020000D18482C7614492C3F
:1038900076108D184D2C03144E2C03107618542CD2
:1038A0000318542C7610552C761420000D195A2C20
:1038B00003145B2C03107618612C0318612C76100E
:1038C000622C7614F0017618F00A7108F0050319DD
:1038D000732C90317A27983127006C08013A031D28
:1038E000732CEC018C2E28006A082A00E4002800C2
:1038F0006B082A00E50090310020983127006D0800
:10390000003A0130031D0030F10020000D188A2C10
:1039100076148B2C76108D188F2C0314902C03109A
:103920007618962C0318962C7610972C7614200077
:103930000D199C2C03149D2C03107618A32C03182E
:10394000A32C7610A42C7614F0017618F00A7108D6
:10395000F0050319B52C90317A27983127006C08AF
:10396000013A031DB52CEC018C2E64008030053A21
:10397000F000803028006B067002031DC12C6A081D
:10398000DC3C03188C2E29006B08043A0130031D1F
:103990000030F1006B08053A0130031D0030F000E3
:1039A0007108F0040319A42D02302B00A20010307E
:1039B000A300A930A4000430A5000830A60080317F
:1039C000B32598310330FB000830FC007730FD0050
:1039D000FD0BE82CFC0BE82CFB0BE82C02302B0039
:1039E000A2001030A300A030A4000430A5000830CD
:1039F000A6008031B32598310B30FB002630FC0047
:103A00005D30FD00FD0B022DFC0B022DFB0B022D8A
:103A100000000000640002302B00A2001030A30060
:103A20004530A4000430A5000830A6008031B3253D
:103A300098310730FB001730FC006A30FD00FD0BA9
:103A40001F2DFC0B1F2DFB0B1F2D000002302B0028
:103A5000A2001030A3003C30A4000430A5000830C0
:103A6000A6008031B32598310B30FB002630FC00D6
:103A70005D30FD00FD0B3A2DFC0B3A2DFB0B3A2D72
:103A800000000000640002302B00A2001030A300F0
:103A90004E30A4000430A5000830A6008031B325C4
:103AA00098310730FB001730FC006A30FD00FD0B39
:103AB000572DFC0B572DFB0B572D000002302B0010
:103AC000A2001030A3006030A4000430A50008302C
:103AD000A6008031B32598310B30FB002630FC0066
:103AE0005D30FD00FD0B722DFC0B722DFB0B722D5A
:103AF00000000000640002302B00A2001030A30080
:103B00005730A4000430A5000830A6008031B3254A
:103B100098310330FB000830FC007730FD00FD0BCE
:103B20008F2DFC0B8F2DFB0B8F2D02302B00A20055
:103B30001030A300D630A4000330A5000830A60042
:103B40008031B3259831702E29006B08003A031993
:103B5000702E01302B00A200A301CD30A400033051
:103B6000A5000830A6008031B32598310330FB0052
:103B70000830FC007730FD00FD0BBC2DFC0BBC2D8C
:103B8000FB0BBC2D01302B00A200A301DF30A400F1
:103B90000330A5000830A6008031B32598310B30E2
:103BA000FB002630FC005D30FD00FD0BD52DFC0B2D
:103BB000D52DFB0BD52D00000000640001302B003B
:103BC000A200A3012930A4000430A5000830A600FB
:103BD0008031B32598310730FB001730FC006A3084
:103BE000FD00FD0BF12DFC0BF12DFB0BF12D000069
:103BF00001302B00A200A3012030A4000430A50056
:103C00000830A6008031B32598310B30FB002630F8
:103C1000FC005D30FD00FD0B0B2EFC0B0B2EFB0B97
:103C20000B2E00000000640001302B00A200A30155
:103C3000C430A4000330A5000830A6008031B325AD
:103C400098310730FB001730FC006A30FD00FD0B97
:103C5000272EFC0B272EFB0B272E000001302B00FC
:103C6000A200A301B230A4000330A5000830A600D2
:103C70008031B32598310B30FB002630FC005D30DD
:103C8000FD00FD0B412EFC0B412EFB0B412E0000D5
:103C90000000640001302B00A200A301A930A400A1
:103CA0000330A5000830A6008031B32598310330D9
:103CB000FB000830FC007730FD00FD0B5D2EFC0B97
:103CC0005D2EFB0B5D2E01302B00A200A301BB304B
:103CD000A4000330A5000830A6008031B325983138
:103CE0000B30FB002630FC005D30FD00FD0B762E16
:103CF000FC0B762EFB0B762E0000000064001030CB
:103D00002700EE002730EF006A082A00D3002700C2
:103D10006B082A00D400F020080064002600200868
:103D2000053A031D972E01302000D500A82E26004D
:103D30002008063A031DA02E02302000D500A82E30
:103D400026002008073A031DA82E04302000D500C5
:103D500023006B08053A031DB12E01302700E8004F
:103D6000C22E23006B08063A031DBA2E023027002C
:103D7000E800C22E23006B08073A031DC22E043050
:103D80002700E8002600E9012900DA01DB0126000E
:103D9000EE019031E0239831803029006D06F0006B
:103DA00080307002031DD62E6E306C020318D92E9F
:103DB000622F8031942798318831D2229831023095
:103DC000FB000430FC00BA30FD00FD0BE52EFC0BBF
:103DD000E52EFB0BE52E00009031E023983180307A
:103DE00029006D06F00080307002031DF92E6E3040
:103DF0006C020318FC2E622F8030F10080305106D7
:103E00007102031D052F50086E3C0130031800306D
:103E1000F10080305106F00080306D067002031D05
:103E2000132F6C085002013003180030F0007108A5
:103E3000F00503191C2F622F9D21003029006D060B
:103E4000031D242F00306C06031D2A2F8031942778
:103E50009831622F803029006D06F00080307002AA
:103E6000031D342F78306C020318372F622F230084
:103E70006B08053A0130031D0030F10026002008D0
:103E8000053A0130031D0030F0007108F0050319F8
:103E90004A2F622F2008053C0318562F2000550892
:103EA000D6000130D50090319326983123006B085D
:103EB000053C0318612F27006808E9000130E8007D
:103EC00000206400080001302A00CB009031BF2799
:103ED000983170082900D90007302A00CB009031B2
:103EE000BF27983170082900D50008302A00CB0080
:103EF0009031BF27983170082900D6005908013A3F
:103F00000319862FA031A0219831F52F0130290007
:103F1000D200D80103302B00AC0080313C21983115
:103F20001A30FC00F830FD00FD0B942FFC0B942F91
:103F3000000003302B00AC0080313C21983106306A
:103F4000FC003030FD00FD0BA32FFC0BA32F000065
:103F500003302B00AC0080313C21983102302B0023
:103F6000AC0080313C21983102302B00AC00803114
:103F70003C21983108302B00AC0080313C21983135
:103F80002B00AC0180313C21983108302B00AC0073
:103F900080313C2198312B00AC0180313C2198319B
:103FA00001302B00AC0080313C2198311A30FC00EC
:103FB000F830FD00FD0BDA2FFC0BDA2F00002B0090
:103FC000AC0180313C21983106302B00AC008031AF
:103FD0003C2198312B00AC0180313C2198310C30D0
:103FE0002B00AC0080313C2198310800463441342C
:103FF000533454342034543445345334543400341A
:10400000640029006B08003A031D092822000D17DF
:104010008D1729006B08043A0130031D0030F100B0
:104020006B08053A0130031D0030F0007108F00400
:104030000319292802302B00A2004030A300D630FB
:10404000A4000130A5000430A6008031B325A031C2
:104050003C2829006B08003A03193C2801302B004A
:10406000A2000430A3006B30A4000130A50004308E
:10407000A6008031B325A03198318D26A031FF30C4
:104080002B00A00026006F082B00A10088312327F9
:10409000A031FE302B00A00029004E082B00A1000B
:1040A00088312327A031FD302B00A00029004D08C6
:1040B0002B00A10088312327A03129006B08003A8A
:1040C000031D82288030F00080306D067002031DD1
:1040D0006B286C08963C031C702822000D13822864
:1040E0008030F000803029006D067002031D7A28B0
:1040F0006C08FA3C031C802820000D138D138228C5
:1041000020008D1310302700EE002730EF00103014
:104110002000D7002730D80098311D23A031290076
:104120006C082800EC0029006D082800ED0088319B
:10413000D222A03122008C130C1764000800640006
:1041400029006B08043A0130031D0030F1006B08B0
:10415000053A0130031D0030F0007108F004031926
:10416000142926006A08003A031DC4282B00A20166
:104170001030A3004230A4000030A5000830A60093
:104180008031B325A031D1282B00A2011030A3002B
:104190003930A4000030A5000830A6008031B325D6
:1041A000A03102302B00A2001030A3003030A40058
:1041B0000030A5000830A6008031B325A0310430BE
:1041C0002B00A2001030A300A030A4000030A500F6
:1041D0000830A6008031B325A03106302B00A200A4
:1041E0001030A3002030A4000130A5000830A60044
:1041F0008031B325A03127006D080130031D003048
:10420000F00028006908F005031913292B00A2010A
:104210007030A300E630A4000030A5000130A600F5
:104220008031B325A031982929006B08003A031981
:10423000982926006A08003A031D2B292B00A201A9
:10424000A301DD30A4000030A5000830A6008031B5
:10425000B325A03137292B00A201A3013230A400DD
:104260000130A5000830A6008031B325A03101300F
:104270002B00A200A3012930A4000130A5000830C2
:10428000A6008031B325A03129006B08013A031D37
:1042900065292B00A2010930A300E830A4000030FA
:1042A000A5000730A6008031B325A03101302B00D6
:1042B000A2000930A300D530A4000030A5000730CB
:1042C000A6008031B325A03180292B00A20109303E
:1042D000A300B230A4000030A5000830A600803151
:1042E000B325A03101302B00A2000930A300A93072
:1042F000A4000030A5000830A6008031B325A0310D
:1043000027006D080130031D0030F0002800690807
:10431000F005031998292B00A2010830A3006E3084
:10432000A4000030A5000130A6008031B325A031E3
:1043300064002900CF01CC018831D222A0310800CD
:1043400080310320A031290057082B00BB008031A9
:104350002220A0312B00BB0180312220A031AE30C1
:104360002B00BB0080312220A03129005908023ADD
:104370000130031D0030F1005908033A0130031DDC
:104380000030F0007108F00403197C2AD5302B00AE
:10439000BB0080312220A03180302B00BB00803157
:1043A0002220A031A8302B00BB0080312220A03178
:1043B0003F302B00BB0080312220A031D3302B00B6
:1043C000BB0080312220A03129005908023A031D88
:1043D000F02955082B00BB0080312220A031F8299C
:1043E000290055081F3E2B00BB0080312220A03140
:1043F00040302B00BB0080312220A0318D302B00BB
:10440000BB0080312220A03114302B00BB00803152
:104410002220A03181302B00BB0080312220A0312E
:10442000B4302B00BB0080312220A031D9302B00CA
:10443000BB0080312220A03122302B00BB00803114
:104440002220A03120302B00BB0080312220A0315F
:1044500002302B00BB0080312220A03121302B0004
:10446000BB0080312220A0312B00BB0180312220F3
:10447000A0317F302B00BB0080312220A0312E30B4
:104480002B00BB0080312220A03129005908023ABC
:10449000031D572AA0302B00BB0080312220A03101
:1044A000C0302B00BB0080312220A031632AA13014
:1044B0002B00BB0080312220A031C8302B00BB0074
:1044C00080312220A031DA302B00BB008031222045
:1044D000A03102302B00BB0080312220A031DB3024
:1044E0002B00BB0080312220A03140302B00BB00CC
:1044F00080312220A031242BD5302B00BB0080310D
:104500002220A03180302B00BB0080312220A0313E
:10451000A8302B00BB0080312220A0313F302B007F
:10452000BB0080312220A031D3302B00BB00803172
:104530002220A031290055082B00BB008031222009
:10454000A03140302B00BB0080312220A0318D30C3
:104550002B00BB0080312220A03114302B00BB0087
:1045600080312220A03181302B00BB0080312220FD
:10457000A031FF302B00BB0080312220A031D93088
:104580002B00BB0080312220A031F1302B00BB007A
:1045900080312220A03120302B00BB00803122202E
:1045A000A03102302B00BB0080312220A03121300D
:1045B0002B00BB0080312220A0312B00BB018031B9
:1045C0002220A0317F302B00BB0080312220A0317F
:1045D0002E302B00BB0080312220A0312900590849
:1045E000043A031D002BA0302B00BB008031222099
:1045F000A031C0302B00BB0080312220A0310C2B19
:10460000A1302B00BB0080312220A031C8302B000C
:10461000BB0080312220A031DA302B00BB0080317A
:104620002220A03112302B00BB0080312220A0318B
:10463000DB302B00BB0080312220A03140302B002A
:10464000BB0080312220A031A4302B00BB00803180
:104650002220A031A6302B00BB0080312220A031C7
:1046600080310721A0310330FB000830FC00773097
:10467000FD00FD0B392BFC0B392BFB0B392B80314B
:104680000320A031290057082B00BB0080312220D5
:10469000A03140302B00BB0080312220A031290006
:1046A0005908023A0130031D0030F1005908033A5D
:1046B0000130031D0030F0007108F00403197F2B56
:1046C0002A00CC014C08033C031C7E2B4C082B0019
:1046D000B600B70180315D20A0312A00CB012A004D
:1046E00080304B0203187B2BCB0A2B00BB0180319F
:1046F0002220A0316F2B2A00CC0A622B9D2B2A008E
:10470000CC014C08073C031C9D2B4C082B00B60029
:10471000B70180315D20A0312A00CB012A00803012
:104720004B0203189A2BCB0A2B00BB0180312220AD
:10473000A0318E2B2A00CC0A812B80310721A03199
:10474000AF302A00CD009031A427A03108000D30F1
:104750002A00E4000030E500E6013230E700E8011D
:104760009031EF20A031700803195F2C0630FB0058
:104770001330FC00AD30FD00FD0BBC2BFC0BBC2B43
:10478000FB0BBC2B00000000640020000D1CDB2B89
:1047900029004D08003A031DD02B0130CD00D12B4C
:1047A000CD014D082A00D9008831D327A0318831A6
:1047B000D222A0314B2C24002A08013A031DE22BFF
:1047C000AA01E42B0130AA002A08013A031D1A2C81
:1047D00029006B08043A0130031D0030F1006B081A
:1047E000053A0130031D0030F0007108F004031990
:1047F000072C2B00A2017030A300EE30A400013082
:10480000A5000130A6008031B325A031192C290064
:104810006B08003A0319192C2B00A2010830A300E1
:10482000EC30A4000130A5000130A6008031B32592
:10483000A0314B2C29006B08043A0130031D0030D5
:10484000F1006B08053A0130031D0030F0007108DB
:10485000F0040319392C2B00A2017030A300DF30C3
:10486000A4000130A5000130A6008031B325A0319D
:104870004B2C29006B08003A03194B2C2B00A2018A
:104880000830A300DB30A4000130A5000130A600F1
:104890008031B325A0310D302A00E4000030E5005E
:1048A000E6013230E700E8019031EF20A0317008D6
:1048B00003195F2C98311D23A03164004B2C0D305F
:1048C0002A00E4000030E5000230E6003230E70064
:1048D000E8019031EF20A03170080319EA2C640040
:1048E0002A000D30E4000030E5000230E6003230EE
:1048F000E700E8019031EF20A03170080319EA2C9D
:104900000530F20020005508F000F101720803198B
:104910008D2CF035F10DFF3E872C01307002F20036
:104920000030713BF3008030F0008030730670027D
:10493000031D9D2C720829004E020130031800301F
:10494000F00024002A08F0050319AF2C2900CE0A34
:104950004E082B00A2008031AF26A031E22C2400AB
:104960002A080130031D0030F4000530F200200059
:104970005508F000F10172080319C22CF035F10D51
:10498000FF3EBC2C01307002F2000030713BF3009E
:104990008030F000803073067002031DD22C720844
:1049A00026006F02013003180030F0007408F00593
:1049B0000319E22C2600EF0A6F082B00A2008031B9
:1049C0007125A0318831D222A03198311D23A03128
:1049D0006400702C0D302A00E4000030E500013046
:1049E000E6003230E700E8019031EF20A0312200EC
:1049F0004108003A0130031D0030F1007108F00554
:104A00000319482D64000D302A00E4000030E50051
:104A10000130E6003230E700E8019031EF20A031AC
:104A200070080319482D29004E08003C0130031876
:104A30000030F00024002A08F0050319282D290071
:104A4000CE034E082B00A2008031AF26A031402DAE
:104A500024002A080130031D0030F10026006F08F1
:104A6000003C013003180030F0007108F005031914
:104A7000402DEF036F082B00A20080317125A0317B
:104A80008831D222A03198311D23A0316400032D3A
:104A90000800640029006B08043A0130031D00304F
:104AA000F1006B08053A0130031D0030F000710879
:104AB000F0040319892E2B00A2011630A300CD307B
:104AC000A4000030A5000730A6008031B325A03136
:104AD00002302B00A2000630A300C330A400003037
:104AE000A5000930A6008031B325A03104302B0089
:104AF000A2001030A300BB30A4000030A500083095
:104B0000A6008031B325A0310630FC003030FD0016
:104B1000FD0B882DFC0B882D000004302B00A2001B
:104B20001030A300BB30A4000030A5000830A60060
:104B30008031B325A0310630FC003030FD00FD0B84
:104B40009F2DFC0B9F2D000004302B00A200103085
:104B5000A300BB30A4000030A5000830A6008031BF
:104B6000B325A0310630FC003030FD00FD0BB62D22
:104B7000FC0BB62D000006302B00A2000430A30071
:104B8000A930A4000230A5000A30A6008031B32568
:104B9000A03164000D30FB002D30FC00D730FD004B
:104BA000FD0BD02DFC0BD02DFB0BD02D00000000F9
:104BB00064000B30FB002630FC005D30FD00FD0B77
:104BC000DF2DFC0BDF2DFB0BDF2D00000000640050
:104BD0002B00A2011030A300A030A4000230A500D9
:104BE0000830A6008031B325A03102302B00A2008E
:104BF0000430A3006530A4000230A5000A30A600EE
:104C00008031B325A03104302B00A2001030A30066
:104C1000C830A4000230A5000830A6008031B325BA
:104C2000A03106302B00A2000430A300BD30A40048
:104C30000230A5000A30A6008031B325A03104302F
:104C4000FB000C30FC003330FD00FD0B252EFC0B6F
:104C5000252EFB0B252E0000000026006A08013AD5
:104C6000031D402E2B00A2011030A300B430A4007D
:104C70000230A5000830A6008031B325A0314D2EAA
:104C80002B00A2011030A3005C30A4000230A5006C
:104C90000830A6008031B325A03102302B00A200DD
:104CA0001030A3003F30A4000230A5000830A60059
:104CB0008031B325A03104302B00A2001030A300B6
:104CC0003630A4000230A5000830A6008031B3259C
:104CD000A03106302B00A2001030A3002D30A4001C
:104CE0000230A5000830A6008031B325A03128008D
:104CF00069080319882E2B00A2017030A3005A30D6
:104D0000A4000230A5000130A6008031B325A031F7
:104D1000D62F29006B08003A0319D62F2B00A201C9
:104D20000430A3005230A4000230A5000730A600D2
:104D30008031B325A03101302B00A2000330A30045
:104D40004830A4000230A5000930A6008031B32508
:104D5000A03164000F30FB003530FC005130FD0005
:104D6000FD0BB02EFC0BB02EFB0BB02E64000B30F5
:104D7000FB002630FC005D30FD00FD0BBD2EFC0B62
:104D8000BD2EFB0BBD2E0000000064002B00A20115
:104D90000430A300BB30A4000030A5000830A600FA
:104DA0008031B325A0310630FC003030FD00FD0B12
:104DB000D72EFC0BD72E00002B00A2010430A3003D
:104DC000BB30A4000030A5000830A6008031B32518
:104DD000A0310630FC003030FD00FD0BED2EFC0B49
:104DE000ED2E00002B00A2010430A300BB30A40074
:104DF0000030A5000830A6008031B325A031063070
:104E0000FC003030FD00FD0B032FFC0B032F0000D6
:104E100001302B00A2000330A300D130A4000230E7
:104E2000A5000A30A6008031B325A03164000D3002
:104E3000FB002D30FC00D730FD00FD0B1D2FFC0BBF
:104E40001D2FFB0B1D2F0000000064000B30FB002A
:104E50002630FC005D30FD00FD0B2C2FFC0B2C2FB1
:104E6000FB0B2C2F0000000064002B00A20104307B
:104E7000A3004630A4000330A5000830A60080310E
:104E8000B325A03101302B00A2000330A3003B303A
:104E9000A4000330A5000A30A6008031B325A0315C
:104EA0000430FB000C30FC003330FD00FD0B562FAE
:104EB000FC0B562FFB0B562F0000000026006A0843
:104EC000013A031D702F2B00A201A3013230A40070
:104ED0000330A5000830A6008031B325A0317C2F17
:104EE0002B00A201A3016030A4000330A50008300C
:104EF000A6008031B325A03101302B00A200A30110
:104F00005730A4000330A5000830A6008031B32537
:104F1000A03129006B08013A031DAA2F2B00A20122
:104F20000930A3004F30A4000330A5000730A600CD
:104F30008031B325A03101302B00A2000930A3003D
:104F40002A30A4000330A5000730A6008031B32525
:104F5000A031C52F2B00A2010930A300E730A40027
:104F60000230A5000830A6008031B325A031013001
:104F70002B00A2000930A300DE30A4000230A500FF
:104F80000830A6008031B325A03128006908031934
:104F9000D62F2B00A2010830A300DC30A400023081
:104FA000A5000130A6008031B325A03164000800BF
:104FB00043343D342034203420342034703446349B
:104FC0000034203420342034203420342034203461
:104FD000203400344F345634453452344C344F343A
:104FE0004134443400345334573452343D34203443
:104FF0002034203420340034003401342E34003482
:105000000D302A00E4000030E500E6013230E70010
:10501000E8019031EF20A83128006E08F004031950
:105020005A2822008C170C130630FB001330FC00AA
:10503000AD30FD00FD0B1A28FC0B1A28FB0B1A28BB
:1050400000000000640028006E08003A0130031DD3
:105050000030F10020000D182F2803103028031411
:10506000F0010318F00A7108F00503193D2890318A
:105070000723A8312200C1015728A0310020A83100
:10508000C1010D302A00E4000030E500E6013230B5
:10509000E700E8019031EF20A83170080319552886
:1050A00098311D23A831640041282800EE01883181
:1050B000D222A8310D302A00E4000030E500023091
:1050C000E6003230E700E8019031EF20A8317008A7
:1050D0000319E028640022004108003A031DA128BA
:1050E0000130C10026006F082300DE0029004E08B1
:1050F0002300DD0029004D082400AB002600EF014D
:105100002900CE010130CD002B00A2018031AF2655
:10511000A83126006F082B00A20080317125A8312C
:1051200029004D082A00D9008831D327A83128004A
:1051300069082400AC002800E9018831D222A83196
:10514000CB282200C10123005E082600EF002300C7
:105150005D082900CE0024002B082900CD00230083
:105160005E082B00A20080317125A83129004E086D
:105170002B00A2008031AF26A83129004D082A005B
:10518000D9008831D327A83124002C082800E90051
:105190008831D222A8310D302A00E4000030E50029
:1051A0000230E6003230E700E8019031EF20A8310C
:1051B00070080319E02898311D23A8316400CB281A
:1051C0000D302A00E4000030E5000130E600323006
:1051D000E700E8019031EF20A83122004108003AB1
:1051E0000130031D0030F1007108F0050319242976
:1051F000640028006908003A031D01290130E90014
:105200000229E90102302B00A000280069082B00C8
:10521000A10088312327A8318831D222A8310D304E
:105220002A00E4000030E5000130E6003230E700FB
:10523000E8019031EF20A831700803192429983132
:105240001D23A83164000F290800640001302A00E2
:10525000CB009031BF27A83170082900EB00023045
:105260002A00CB009031BF27A8317008013A031DF6
:105270003C2901302800E90003302A00CB0090319E
:10528000BF27A83170082A00CB008831E727A83152
:105290007008C300C4010430CB009031BF27A8318F
:1052A00070082A00CB008831E727A8310A30F400C3
:1052B0008031EF20A83170082900E2007108E30076
:1052C00005302A00CB009031BF27A83170082A0092
:1052D000CB008831E727A8310A30F4008031EF2075
:1052E000A83170082900DC007108DD0006302A00B2
:1052F000CB009031BF27A83170082A00CB0088313D
:10530000E727A8310A30F4008031EF20A831700877
:105310002900DE007108DF0009302A00CB0090313F
:10532000BF27A83170082A00CB008831E727A831B1
:105330000A30F4008031EF20A83170082900D00035
:105340007108D1000A302A00CB009031BF27A83164
:1053500070082600A0000B302A00CB009031BF2738
:10536000A83170082000ED000C302A00CB009031ED
:10537000BF27A8317008EB000D302A00CB00903118
:10538000BF27A83170082600ED000E302A00CB00A0
:105390009031BF27A83170082600EB000F302A009B
:1053A000CB009031BF27A83170082600EC006400C4
:1053B00010302A00CB009031BF27A83170082A0096
:1053C000CB008831E727A8316430F4008031EF202A
:1053D000A83170082A00C9007108CA001130CB003A
:1053E0009031BF27A83170082A00CB008831E72709
:1053F000A83170084907AF0000304A3DB0001230B4
:10540000CB009031BF27A83170082A00CB0088312B
:10541000E727A8316430F4008031EF20A83170080C
:105420002A00C9007108CA001330CB009031BF2791
:10543000A83170082A00CB008831E727A83170080E
:1054400049072900EE0000302A004A3D2900EF00FC
:1054500014302A00CB009031BF27A83170082A00F1
:10546000CB008831E727A8316430F4008031EF2089
:10547000A83170082A00C9007108CA001530CB0095
:105480009031BF27A83170082A00CB008831E72768
:10549000A83170084907A90000304A3DAA0016301B
:1054A000CB009031BF27A83170082A00CB0088318B
:1054B000E727A8316430F4008031EF20A83170086C
:1054C0002A00C9007108CA001730CB009031BF27ED
:1054D000A83170082A00CB008831E727A83170086E
:1054E0004907B70000304A3DB8001830CB00903172
:1054F000BF27A83170082A00CB008831E727A831E0
:105500006430F4008031EF20A83170082A00C9000F
:105510007108CA001930CB009031BF27A83170083C
:105520002A00CB008831E727A83170084907BB0063
:1055300000304A3DBC001A30CB009031BF27A83163
:1055400070082A00CB008831E727A8316430F400C6
:105550008031EF20A83170082A00C9007108CA0004
:105560001B30CB009031BF27A83170082A00CB0038
:105570008831E727A83170084907B90000304A3D53
:10558000BA001C30CB009031BF27A83170082A0028
:10559000CB008831E727A8316430F4008031EF2058
:1055A000A83170082A00C9007108CA001D30CB005C
:1055B0009031BF27A83170082A00CB008831E72737
:1055C000A83170084907B50000304A3DB6002030C8
:1055D000CB009031BF27A83170082A00CB0088315A
:1055E000E727A8316430F4008031EF20A83170083B
:1055F0002A00C9007108CA002130CB009031BF27B2
:10560000A83170082A00CB008831E727A83170083C
:105610004907B30000304A3DB4002230CB0090313E
:10562000BF27A83170082A00CB008831E727A831AE
:105630006430F4008031EF20A83170082A00C900DE
:105640007108CA002330CB009031BF27A831700801
:105650002A00CB008831E727A83170084907AB0042
:1056600000304A3DAC002430CB009031BF27A83138
:1056700070082A00CB008831E727A8316430F40095
:105680008031EF20A83170082A00C9007108CA00D3
:105690002530CB009031BF27A83170082A00CB00FD
:1056A0008831E727A83170084907A70000304A3D34
:1056B000A8002630CB009031BF27A83170082A00FF
:1056C000CB008831E727A8316430F4008031EF2027
:1056D000A83170082A00C9007108CA002730CB0021
:1056E0009031BF27A83170082A00CB008831E72706
:1056F000A83170084907B10000304A3DB200283097
:10570000CB009031BF27A83170082A00CB00883128
:10571000E727A8316430F4008031EF20A831700809
:105720002A00C9007108CA002930CB009031BF2778
:10573000A83170082A00CB008831E727A83170080B
:105740004907C50000304A3DC6002A30CB009031E1
:10575000BF27A83170082A00CB008831E727A8317D
:105760006430F4008031EF20A83170082A00C900AD
:105770007108CA002B30CB009031BF27A8317008C8
:105780002A00CB008831E727A83170084907C700F5
:1057900000304A3DC8002C30CB009031BF27A831E3
:1057A00070082A00CB008831E727A8316430F40064
:1057B0008031EF20A83170082A00C9007108CA00A2
:1057C0002D30CB009031BF27A83170082A00CB00C4
:1057D0008831E727A83170084907BD0000304A3DED
:1057E000BE003030CB009031BF27A83170082600B2
:1057F000EA00640008006400210097121716971150
:1058000017159710640023008C010C148C148D0163
:1058100022009113931378302100990020008C010D
:105820008D018E0122008C018D018E01033021003B
:105830008C0007308D008E018031F127A8311E14B5
:105840009E14951324000D148D140D158B13080050
:1058500029006B08043A0130031D0030F1006B0889
:10586000053A0130031D0030F0007108F0040319FF
:10587000472C2B00A2010A30A3006330A4000030A3
:10588000A5000930A6008031B325A831592C290084
:105890006B08003A0319592C2B00A2010330A30016
:1058A0005930A4000030A5000930A6008031B3258E
:1058B000A83164000B30FB002630FC005D30FD0099
:1058C000FD0B602CFC0B602CFB0B602C000000001F
:1058D00064000B30FB002630FC005D30FD00FD0B4A
:1058E0006F2CFC0B6F2CFB0B6F2C00000000640076
:1058F0000B30FB002630FC005D30FD00FD0B7E2CE4
:10590000FC0B7E2CFB0B7E2C0000000064000B3097
:10591000FB002630FC005D30FD00FD0B8D2CFC0BE8
:105920008D2CFB0B8D2C00000000640029006B08FF
:10593000043A0130031D0030F1006B08053A0130D4
:10594000031D0030F0007108F0040319B52C2B0082
:10595000A2010A30A3004B30A4000030A50009309A
:10596000A6008031B325A831C72C29006B08003A66
:105970000319C72C2B00A2010330A3002630A4007A
:105980000030A5000930A6008031B325A831803150
:105990009427A831FF30A000A10188312327A83126
:1059A000FE302B00A000A10188312327A831FD3053
:1059B0002B00A000A10188312327A8310130290044
:1059C000CD0001302A00D9008831D327A831290021
:1059D0006B08043A0130031D0030F1006B08053AF2
:1059E0000130031D0030F0007108F0040319062D8A
:1059F0002B00A2017030A3002430A4000030A500C9
:105A00000130A6008031B325A831182D29006B087C
:105A1000003A0319182D2B00A2010830A3002230F0
:105A2000A4000030A5000130A6008031B325A831C4
:105A3000A0319F20A8310800B0315423A831031AA7
:105A4000242D01302600A90022000C175530260015
:105A500021072100BB002D30260028072100C200AD
:105A6000FB237230260022072100BC0032302600C2
:105A700027072100C1000330FB000830FC0077300D
:105A8000FD00FD0B412DFC0B412DFB0B412D640056
:105A90001E30260023072100BD003B3026002607CC
:105AA0002100C00025219031CA27A83142302600AC
:105AB00024072100BE000530FB000F30FC00F13050
:105AC000FD00FD0B612DFC0B612DFB0B612D6400B6
:105AD00020008D186D2D72146E2D72100D19722DFF
