:10000000A831D02DFF3F28003E08003A03192128CF
:1000100021000D170630FD00FD0B0C2800008D1788
:100020000630FD00FD0B122800008D130630FD0088
:10003000FD0B182800000D130630FD00FD0B1E28D7
:100040000000080028003E08003A03195C28F1016E
:100050007108073C031C49282A00AB1B32282100E9
:100060008D13342821008D170630FD00FD0B362836
:1000700000000D170630FD00FD0B3C2800000D139D
:100080000630FD00FD0B422800002A00AB35F10AC6
:10009000282821008D170630FD00FD0B4D2800009B
:1000A0000D170630FD00FD0B532800000D13063020
:1000B000FD00FD0B592800000800280041082A0017
:1000C0002707AA000320280040082A00AB002220AE
:1000D0002A00AB0122202A002608B03EAB002220D5
:1000E0002A002A080F3C031C79282A08A800A90125
:1000F0008A282A08F200F236F236F236F236720810
:10010000A9007208F000F035F035F035F0357008D0
:100110002A02A8002808AB0022202A002908103E45
:10012000AB0022200320280040082A00AB00222038
:1001300040302A00AB002220080020007008F100A7
:10014000F0010830FC007108F40C0318AB28FC0B1C
:10015000A428F10100340310B028F40C0318F107AF
:10016000F10CF00CFC0BAD28080028003E08003A0A
:100170000319CD2821008D130630FD00FD0BBE288C
:1001800000000D170630FD00FD0BC42800008D1780
:100190000630FD00FD0BCA28000008002000F80111
:1001A000F9011030FC00710DF80DF90D7408F8021A
:1001B0007508031C750FF9020318E5287408F80781
:1001C00075080318750FF9070310F00DF10DFC0BFE
:1001D000D3280800F201F101F001F801F301003029
:1001E00008001D30FD00FD0BF32808002900ED017B
:1001F0002800BF010130BB0029006C08ED00ED357F
:10020000ED35ED35ED3528003D0803190A29083094
:100210002900ED0728003B080319112904302900A3
:10022000ED0728003F080319182902302900ED07BF
:1002300028003C0803191E292900ED0A0320280084
:1002400040082A00AB00222029006D082A00AB00DC
:100250002220B5200630FC003030FD00FD0B2E2999
:10026000FC0B2E29000004302900ED020320280099
:1002700040082A00AB00222029006D082A00AB00AC
:100280002220B5200630FC003030FD00FD0B462951
:10029000FC0B4629000008000320280040082A0023
:1002A000AB00222040302A00AB0022202A00210887
:1002B000A6002008A7005D202900EC012A002408E0
:1002C00029006C020318452A6C082A0022078400C2
:1002D0000030233D85000008003A031D72292900E3
:1002E000EE017E2929006C082A00220784000030D4
:1002F000233D8500203000022900EE00ED016D084D
:10030000043C031C3C2A6E08F0000530F4009D20DC
:1003100029006D08F0070030F13D37307007840088
:10032000B330713D85000008EF002A002108023A31
:10033000013003190030F1002108043A013003199B
:100340000030F0007008F1052108063A0130031969
:100350000030F0007108F0050319EF292900EF19AA
:10036000B4292A00A513B6292A00A5172900EF19D8
:10037000BC292A002513BE292A00251729006F1938
:10038000C4292A00A512C6292A00A51629006F191A
:10039000CC292A002512CE292A0025162900EF187B
:1003A000D4292A00A511D6292A00A5152900EF185D
:1003B000DC292A002511DE292A00251529006F18BD
:1003C000E4292A00A510E6292A00A51429006F189F
:1003D000EC292A002510EE292A002514212A2900BB
:1003E0006F19F5292A00A513F7292A00A517290056
:1003F0006F19FD292A002513FF292A002517290036
:10040000EF18052A2A00A512072A2A00A516290096
:10041000EF180D2A2A0025120F2A2A002516290076
:100420006F18152A2A00A511172A2A00A5152900D8
:100430006F181D2A2A0025111F2A2A002515A5102C
:1004400025102508AB00222028003E08043A013080
:10045000031D0030F1003E08053A0130031D003055
:10046000F0007108F0040319392A2A002508AB00AE
:1004700022202900ED0A7F292A00AB0122202A0030
:10048000AB0122202900EC0A5E292A00210AA600DD
:100490002008A7005D202900EC012A00240829007B
:1004A0006C020318422B6C082A00220784000030DB
:1004B000233D85000008003A031D612A2900EE0152
:1004C0006D2A29006C082A00220784000030233D91
:1004D0008500203000022900EE00ED016D08043C8B
:1004E000031C392B6E08F0000530F4009D20290014
:1004F0006D08F0070030F13D373070078400B330ED
:10050000713D85000008EF002A002108023A013001
:1005100003190030F1002108043A013003190030BA
:10052000F0007008F1052108063A01300319003087
:10053000F0007108F0050319DE2A2900EF1BA32A39
:100540002A00A513A52A2A00A5172900EF1BAB2A0C
:100550002A002513AD2A2A00251729006F1BB32A6C
:100560002A00A512B52A2A00A51629006F1BBB2A4E
:100570002A002512BD2A2A0025162900EF1AC32AAF
:100580002A00A511C52A2A00A5152900EF1ACB2A91
:100590002A002511CD2A2A00251529006F1AD32AF1
:1005A0002A00A510D52A2A00A51429006F1ADB2AD3
:1005B0002A002510DD2A2A0025141E2B29006F1B76
:1005C000E42A2A00A513E62A2A00A51729006F1B92
:1005D000EC2A2A002513EE2A2A0025172900EF1AF3
:1005E000F42A2A00A512F62A2A00A5162900EF1AD5
:1005F000FC2A2A002512FE2A2A00251629006F1A35
:10060000042B2A00A511062B2A00A51529006F1A14
:100610000C2B2A0025110E2B2A0025152900EF1975
:10062000142B2A00A510162B2A00A5142900EF1957
:100630001C2B2A0025101E2B2A0025142508AB0090
:10064000222028003E08043A0130031D0030F1004A
:100650003E08053A0130031D0030F0007108F00437
:100660000319362B2A002508AB0022202900ED0AA9
:100670006E2A2A00AB0122202A00AB012220290089
:10068000EC0A4D2AB5200800FA1FF21300300800CA
:100690007B15FB1F522B0130F300F201F101F00139
:1006A000FA0DF20CFF3008002A00A00105302002EC
:1006B0000318662B200829006E07860000306F3D66
:1006C0008700203081002A00A00A562B200829002C
:1006D0006E07860000306F3D870081012A00A0036D
:1006E000200829006E072A00A100003029006F3D74
:1006F0002A00A2000A30F400F50129006C08F0007D
:100700006D08F100CE207808F0007908F100303053
:10071000F0072A002108860022088700700881005F
:100720000A30F400F50129006C08F0006D08F100B2
:10073000CE2070082900EC007108ED000030710631
:10074000031DA42B00307006031DA72BAA2B2A0023
:10075000A003702B0800FB14FB1FB52BFF30F30028
:10076000F200F100F000FA0DF20CFF3008008330C7
:1007700021009D0529006208F000F035F035700871
:1007800021009D04F1209D149D1CC72BC42B1C0827
:10079000F100F0011B08F0040030F104080029000A
:1007A000E801E9016208EA006308EB0080306306B3
:1007B000F00080307002031DDF2B0030620203184E
:1007C000ED2B0130E8000030E9006208003CEA004F
:1007D0006308031C013EEB01EB026A08EC006B08A6
:1007E000ED006408EE006508EF0054230630290090
:1007F000E6000030E7006708003C031D012C660896
:10080000003C03181C2C6608640786006708653DD9
:10081000870001306602F0000030673BF10070088D
:10082000640784007108653D85000008810001307F
:10083000E6020030E73BFB2B640886006508870072
:1008400020308100680869040319422CE601E701A1
:100850006608640784006708653D85000008203A43
:10086000031D362CE60A0319E70A282C0130E6029C
:100870000030E73B6608640786006708653D87002F
:100880002D30810008002000FB01FA01F9018030C1
:10089000F800F10CF00C031C562C7408F9077508CD
:1008A0000318750FFA070318FB0A0310F01F5E2CDC
:1008B0007408FA0775080318750FFB07FB0CFA0C90
:1008C000F90CF80C031C492C7B08F3007A08F200A1
:1008D0007908F1007808F00008000320280040089B
:1008E0002A00AB00222080302A00AB002220290001
:1008F00062082A00AB002220B52008007C18B42C26
:10090000FC18852C7C19D32C7E2CA1017208031DA8
:10091000A52C7108F2007008F1007808F000F801C9
:10092000A1157208031DA52C7108F2007008F100D2
:10093000F001A11121167208031DA52C7108F20007
:10094000F101A11572080319C72C2108F302031D38
:10095000031CCB2C0310F21BB42CF80DF00DF10D81
:10096000F20DF30BAB2CCB2C7B1B701CCF2CF81F88
:10097000CF2CF00A0319F10A0319F20A031DCF2C38
:10098000F20CF10CF00CF30A0319D32CCF2C01302C
:10099000FC00EA20D62C0230FC004823D62C043080
:1009A000FC004423D62C0830FC00AB2300000800D8
:1009B00028003E08043A0130031D0030F1003E08D3
:1009C000053A0130031D0030F0007108F0040319EE
:1009D000FF2C290063082A00A000290062082A00D1
:1009E000A100290064082A00A200290065082A0045
:1009F000A300290066082A00A4004C21612D2800CC
:100A00003E08023A0130031D0030F1003E08033A6F
:100A10000130031D0030F0007108F00403192D2D82
:100A20000730F00029006308F4009D2004307007AF
:100A30002A00A000290062082A00A100A13529008F
:100A400064082A00A200290065082A00A3002900E2
:100A500066082A00A4004C21612D2800BC01290051
:100A60006208F000F035F0357008083EEC00F62022
:100A700029006308EC00F62001302800BC002900A2
:100A8000E701660867020318612D670864078400A0
:100A90000030653D85000008F1007108EC00EC367F
:100AA000EC36EC36EC36F620290067086407840043
:100AB0000030653D85000008EC00F6202900E70ABB
:100AC000412D08000330FC009530FD00FD0B662D24
:100AD000FC0B662D08007B14FB1F762DF201FA1F1C
:100AE000FF30F200F100F000FA0DF20CFF300800C8
:100AF0007408F8027508031C750FF9027608031CC8
:100B0000760FFA027708031C770FFB02F30D07300C
:100B1000FC00730DF80DF90DFA0DFB0D7408731C34
:100B20009F2DF8027508031C750FF9027608031C47
:100B3000760FFA027708031C770FFB02AC2DF8073B
:100B400075080318750FF90776080318760FFA076A
:100B500077080318770FFB07F30DFC0B892D720D37
:100B6000F80DF90DFA0DFB0D7408731CC52DF80274
:100B70007508031C750FF9027608031C760FFA023C
:100B80007708031C770FFB02D22DF80775080318AE
:100B9000750FF90776080318760FFA077708031818
:100BA000770FFB07F20D0730FC00720DF80DF90D01
:100BB000FA0DFB0D7408721CEB2DF8027508031C6E
:100BC000750FF9027608031C760FFA027708031CEA
:100BD000770FFB02F82DF80775080318750FF90752
:100BE00076080318760FFA0777080318770FFB07C4
:100BF000F20DFC0BD52D710DF80DF90DFA0DFB0D55
:100C00007408721C112EF8027508031C750FF90286
:100C10007608031C760FFA027708031C770FFB0295
:100C20001E2EF80775080318750FF90776080318C4
:100C3000760FFA0777080318770FFB07F10D0730D7
:100C4000FC00710DF80DF90DFA0DFB0D7408711C07
:100C5000372EF8027508031C750FF9027608031C7D
:100C6000760FFA027708031C770FFB02442EF80771
:100C700075080318750FF90776080318760FFA0739
:100C800077080318770FFB07F10DFC0B212E700D71
:100C9000F80DF90DFA0DFB0D7408711C5D2EF802AC
:100CA0007508031C750FF9027608031C760FFA020B
:100CB0007708031C770FFB026A2EF80775080318E4
:100CC000750FF90776080318760FFA0777080318E7
:100CD000770FFB07F00D0730FC00700DF80DF90DD4
:100CE000FA0DFB0D7408701C832EF8027508031CA6
:100CF000750FF9027608031C760FFA027708031CB9
:100D0000770FFB02902EF80775080318750FF90787
:100D100076080318760FFA0777080318770FFB0792
:100D2000F00DFC0B6D2E7018A32E7408F8077508D3
:100D30000318750FF90776080318760FFA07770876
:100D40000318770FFB070800A1017208031DB92ED5
:100D50007108F2007008F100F001A1157208031D7E
:100D6000B92E7108F200F101A111211672080319C0
:100D7000C72E2108F302031D031CCB2E0310F21B08
:100D8000CF2EF00DF10DF20DF30BBF2ECB2E013057
:100D9000FC00EA20D22E0230FC004823D22E043080
:100DA000FC0044230800FB09FA09F909F809F80ACC
:100DB0000319F90A0319FA0A0319FB0A08002000AB
:100DC0002230FC00F801F901FA01FB01FC030319D0
:100DD000142F0310FB0CFA0CF90CF80CF30CF20CAA
:100DE000F10CF00C031CE62EFC030319062F74080B
:100DF000F80775080318750FF90776080318760FBA
:100E0000FA0777080318770FFB07EA2E7408F8072C
:100E100075080318750FF90776080318760FFA0797
:100E200077080318770FFB070800FB15FF30080051
:100E30007408003A031D312F7508003A031D312F45
:100E40007608003A031D312F7708003A031D312F31
:100E5000FF30F000FF30F1007F30F200FF30F30090
:100E6000CB2F200077080319BF2F73080319C22F57
:100E7000720876068039FA00F217F617A101720897
:100E8000F8007108FC007008FD007408FD02750888
:100E9000031C750FFC027608031C760FF802F8019C
:100EA000FC01FD01031C5B2F0310F20CF10CF00C94
:100EB000F80C0130A1007708F302031C652F7E3087
:100EC0002107F3070318C52F6A2F7E302107F30788
:100ED000031CC82F1830FA07FD0DFC0DF80DF00D9E
:100EE000F10DF20DA10D7408F0027508031C750FC9
:100EF000F1027608031C760FF202760DA104211C84
:100F0000832F7D148E2F7408F00775080318750F52
:100F1000F10776080318760AF2077D10FA031F30EE
:100F20007A05031D6C2F7B1B7D1CB52F0310F00D64
:100F3000F10DF20DA10D7408F0027508031C750F78
:100F4000F1027608031C760FF202760D21040139B6
:100F5000FD070318FC0A0319F80A031DB52FF80C46
:100F6000FC0CFD0CF30A0319C52FFA1FF8137808BF
:100F7000F2007C08F1007D08F0000030CA2F01303B
:100F80001527CA2F0230EA20CA2F0430AB23CA2FFC
:100F9000083048230000080028003E08013C0318E0
:100FA000D62FAF302900E2006D24E42F28003E0840
:100FB000013A031DE42F0130BD00BC012900EC0102
:100FC000F6202900EC01F620080020007008F80047
:100FD000FB01FC019E30F300FA01F201F101F00186
:100FE0000230FC007E24080029002A08230091001A
:100FF00092019513151315141308F0000800FD3421
:101000002000FB017308031D770803195628720896
:101010007606FA007708F3077E30031C1328F302E4
:1010200003185B281628F302031C60287208F800D6
:101030007108FC007008FD00F817F6170310F201A4
:10104000F101F0011830A1007D1C30287408F00770
:1010500075080318750FF10776080318760FF20765
:10106000F20CF10CF00CF80CFC0CFD0C0310A10BB5
:101070002428F21B4028F80DF00DF10DF20DF303BA
:101080007B1B701C5228F81F5228F00A0319F10A22
:101090000319F20A031D5228F20CF10CF00CF30AAA
:1010A00003195B28FA1FF2130030642801308031E5
:1010B000EA208831642802308031AB2388316428EB
:1010C0000430803148238831000008002000700877
:1010D000F8007108F000F101F201F301FB01FC01DD
:1010E0009630F300FA01F01F7B28F809F009F80A9E
:1010F0000319F00AFA177008F1007808F000F801F7
:10110000F2018031A426883108002900E1015D0840
:10111000F1000130F000710803199128F035FF3E0D
:101120008C287008E0005B0884005C08850070086B
:101130000005F10071080130031D0030F0005F0868
:10114000F0060319C1285E08003C0318AF2880315F
:1011500062258831803162258831DE03A3285B084F
:1011600084005C08850060080005F100710801300A
:10117000031D0030F0005F08F0060319C128FF309E
:10118000E1006108F000080029005B08F0005C083D
:10119000F1000330F4000030F50080314324883141
:1011A00070082900DB007108DC008030F20080301C
:1011B00071067202031DDE287008503C031CE328F0
:1011C000F001F101B6298030F00080305C06700239
:1011D000031DEC285B08AB3C031CF328F430DB0751
:1011E0000030DC3DB2298030013AF00080305C06EE
:1011F0007002031DFD285B08483C031C0429FE30D7
:10120000DB070030DC3DB2298030023AF00080304C
:101210005C067002031D0E295B08463C031C152961
:101220001830DB070130DC3DB2298030033AF00092
:1012300080305C067002031D1F295B08343C031CD0
:1012400026292930DB070130DC3DB2298030043A01
:10125000F00080305C067002031D30295B084C3CB6
:10126000031C37293630DB070130DC3DB2298030E2
:10127000083AF00080305C067002031D41295B08CB
:10128000853C031C4829AE30DB070130DC3DB22928
:1012900080300C3AF00080305C067002031D522949
:1012A0005B08FA3C031C5929E430DB070130DC3DC4
:1012B000B2298030123AF00080305C067002031DC3
:1012C00063295B080F3C031C6A291230DB070230DC
:1012D000DC3DB2298030163AF00080305C067002A6
:1012E000031D74295B08E63C031C7B298830DB075F
:1012F0000230DC3DB22980301B3AF00080305C06C1
:101300007002031D85295B08EA3C031C8C29E73029
:10131000DB070230DC3DB2298030213AF00080301A
:101320005C067002031D96295B08363C031C9D2950
:101330002030DB070330DC3DB2298030293AF00051
:1013400080305C067002031DA7295B08043C031C67
:10135000AE294830DB070330DC3DB2295C30DB07C7
:101360000330DC3D5B08F0005C08F100080064001D
:1013700027004D08D9002900A601A70127004D1C10
:10138000C62929002408A6072508A73D2700CD1C4B
:10139000D129280060082900A60728006108290033
:1013A000A73D27004D1DDC2928005E082900A6075F
:1013B00028005F082900A73D2700CD1DE729280048
:1013C00062082900A607280063082900A73D270016
:1013D0004D1EF229280066082900A6072800670884
:1013E0002900A73D2700CD1EFD29280064082900FB
:1013F000A607280065082900A73D27004D1F082AD9
:1014000028005C082900A60728005D082900A73DE0
:1014100029002608E2002708E3004830E4000430F1
:10142000E5008031CF23883128004A08203A03198B
:101430001C2A4A08CF001E2A3030CF002E30D000A0
:101440004B08203A0319272A4B08D100292A3030AB
:10145000D1004C08203A0319302A4C08D200322A15
:101460003030D2005B08043A0130031D0030F10037
:101470005B08053A0130031D0030F0007108F004EC
:101480000319782A26006E08013A031D4B2A0430FE
:101490002900DB004E2A29000630DB005B08E20051
:1014A0001030E300B230E4000330E5000230E60023
:1014B0008031D824883129005B08E2005830E300ED
:1014C000B830E4000330E5000230E6008031D82473
:1014D000883129005B08E2002830E3004F30E40047
:1014E0000430E5000430E6008031D8248831F72A42
:1014F00028005B08023A0130031D0030F1005B0850
:10150000033A0130031D0030F0007108F0040319A4
:10151000BE2A26006E08013A031D912A2900DB012C
:10152000942A29000130DB005B08E2000930E30067
:10153000B530E4000330E5000230E6008031D82405
:10154000883129005B08E2000F30E300BB30E40083
:101550000330E5000230E6008031D82488312900CC
:101560005B08E2000B30E3004F30E4000430E5009C
:101570000430E6008031D8248831F72A28005B083F
:10158000013A031DF72A26006E08013A031DCB2AF3
:101590002900DB01CE2A29000130DB005B08E200D4
:1015A0000930E300C030E4000330E5000230E6001B
:1015B0008031D824883129005B08E2000F30E30035
:1015C000BE30E4000330E5000130E6008031D8246D
:1015D000883129005B08E2000B30E3004F30E40063
:1015E0000430E5000430E6008031D824883127003B
:1015F00043082600EF002900A601A7012700431C8D
:10160000062B29002208A6072308A73D2700C31C94
:10161000112B28006A082900A60728006B0829005A
:10162000A73D2700431D1C2B280068082900A6079A
:10163000280069082900A73D2700C31D272B280083
:101640006C082900A60728006D082900A73D27007F
:10165000431E2F2B29002008A6072108A73D27009D
:10166000C31E3A2B28006E082900A60728006F0821
:101670002900A73D2700431F452B280042082900C9
:10168000A607280043082900A73D29002608E200F4
:101690002708E3004830E4000430E5008031CF2320
:1016A000883128004A08CF004B08D0004C08D100F0
:1016B0004D08D2005B08043A0130031D0030F100F0
:1016C0005B08053A0130031D0030F0007108F0049A
:1016D0000319A02B26006E08013A031D732B063058
:1016E0002900DB00762B29000430DB005B08E200D8
:1016F0001030E3003830E4000130E5000230E6004D
:101700008031D824883129005B08E2005830E3009A
:101710003530E4000130E5000230E6008031D824A5
:10172000883129005B08E2002830E3004F30E400F4
:101730000430E5000430E6008031D82488311F2CC5
:1017400028005B08023A0130031D0030F1005B08FD
:10175000033A0130031D0030F0007108F004031952
:10176000E62B26006E08013A031DBA2B0130290032
:10177000DB00BC2B2900DB015B08E2000930E30041
:101780003230E4000130E5000230E6008031D82438
:10179000883129005B08E2000F30E3004030E400AC
:1017A0000130E5000230E6008031D824883129007C
:1017B0005B08E2000B30E3004F30E4000430E5004A
:1017C0000430E6008031D82488311F2C28005B08C3
:1017D000013A031D1F2C26006E08013A031DF42B4D
:1017E00001302900DB00F62B2900DB015B08E20059
:1017F0000930E3003D30E4000130E5000230E6004E
:101800008031D824883129005B08E2000F30E300E2
:101810003B30E4000130E5000130E6008031D8249F
:10182000883129005B08E2000B30E3004F30E40010
:101830000430E5000430E6008031D82488316400AB
:1018400026006E082100EE0008007408003A031D0F
:101850003E2C7508003A031D3E2C7608003A031D05
:101860003E2C7708003A031D3E2CFF30F000FF307D
:10187000F100FF30F2007F30F300DA2C2000FC0191
:10188000F71BFC0AFD01FB01FA01F901F8017308DD
:101890007204710470040319D32C73087706A00036
:1018A000A01BFD09F71F5F2CF409F509F609F709DC
:1018B000F40A0319F50A0319F60A0319F70AF31FC4
:1018C0006C2CF009F109F209F309F00A0319F10A85
:1018D0000319F20A0319F30A73087704A000A01B86
:1018E0008F2C803178258831FC1BAC2CFD1FD32C2C
:1018F000F009F109F209F309F00A0319F10A0319D1
:10190000F20A0319F30AF809F909FA09FB09F80AB6
:101910000319F90A0319FA0A0319FB0AD32CF71F52
:10192000A62CF31BA02C7308FB007208FA007108A8
:10193000F9007008F800F301F201F101F001762CD2
:10194000F301F201F101F001F00A0034F309F209A8
:10195000F109F009FC17712CF80A0319F90A0319A7
:10196000FA0A0319FB0A74087802031D762C75081D
:101970007902031D762C76087A02031D762C7708EF
:101980007B02031D762CFB01FA01F901F801F00A34
:101990000319F10A0319F20A0319F30AF31F762C4B
:1019A000A0012016FF34A0017C1CD92C8031D32645
:1019B0008831003E08002000FB0173080319172D31
:1019C0007208FA00F2178E30F302F31F1A2DF30992
:1019D000F30A08307302031CFD2CF300F10D7208AA
:1019E000F100F20108307302031CFD2CF300F10D2D
:1019F000F1017308031D0310052D73080319052D4C
:101A00000310F20CF10CF30B002D7B1B711C0F2D3E
:101A1000031C0F2DF10A0319F20AF21B262DFA1FDF
:101A2000292DF209F109F10A0319F20A292DF2010F
:101A3000F101292D7B14FB1F2C2DF201FA1F2C2DF7
:101A4000FF30F200F100FA0DF20C2C2D0130FC00F9
:101A50002E2D0030FC002E2DFF30FC00FC08031959
:101A6000342D80316B2588317108F0007208F10047
:101A70000800813022009700171B3F2D3C2D2900C4
:101A8000E2018031B723883170082900DB0071083A
:101A9000DC008030033AF200803071067202031DD0
:101AA000532D7008E83C031C5A2D5B08F0005C08BD
:101AB000F100992D823022009700171B602D5D2DBB
:101AC0002900E2018031B723883170082900DB004A
:101AD0007108DC008030033AF20080307106720237
:101AE000031D742D7008E83C031C7D2D5B08F0007D
:101AF0005C08F100F035F10D992D8330220097003C
:101B0000171B832D802D2900E2018031B7238831F6
:101B100070082900DB007108DC007008F200710811
:101B2000F300F235F30DF235F30D7208F00073088F
:101B3000F1000800813022009700171BA02D9D2D79
:101B400001302900E2008031B72388317008290074
:101B5000DB007108DC008030033AF200803071064F
:101B60007202031DB52D7008E83C031CBC2D5B08F8
:101B7000F0005C08F100082E823022009700171B4D
:101B8000C22DBF2D01302900E2008031B7238831FA
:101B900070082900DB007108DC008030033AF20095
:101BA000803071067202031DD72D7008E83C031CBB
:101BB000E02D5B08F0005C08F100F035F10D082E17
:101BC000833022009700171BE62DE32D01302900FA
:101BD000E2008031B723883170082900DB007108EA
:101BE000DC007108043A031DF72D00307006031D58
:101BF000FD2D01302500D800FF2D2500D80129003A
:101C00005B08F0005C08F100F035F10DF035F10DE6
:101C10000800200072087606A100F801F901730897
:101C20007702031C2B2E7708FD007308F7007D0850
:101C3000F3007608FD007208F6007D08F2007508D2
:101C4000FD007108F5007D08F1007408FD007008C2
:101C5000F4007D08F00077080319AC2E7208FA0032
:101C6000F217F61777087302F70003195E2E083093
:101C70007702031C542EF7007408F9007508F4006D
:101C80007608F500F60108307702031C542EF700A1
:101C90007408F9007508F400F50108307702031C98
:101CA000542E7A08F200AC2E770803195E2E03102A
:101CB000F60CF50CF40CF90CF70B572EA11F6B2E3C
:101CC000F909F409F509F609F90A0319F40A0319DF
:101CD000F50A0319F60A7908F80774080318740F4F
:101CE000F00775080318750FF10776080318760FCB
:101CF000F207A11B842E031C942EF20CF10CF00CA5
:101D0000F80CF30F942EA62E03189A2EF809F0095A
:101D1000F109F209F80A0319F00A0319F10A031983
:101D2000F20A8030FA06A02E0130FC0080317E24B9
:101D30008831AE2E0230FC0080317E248831AE2EF8
:101D40000430FC008031A4268831AE2E0830FC001F
:101D50008031AB238831AE2E0030FC00000008003B
:101D6000A0302900DD000F30DE00DF01E001A030EF
:101D7000F0000F30F1000030F2000030F3005B089B
:101D8000F4005C08F500F601F7018031DF268831A8
:101D900070082900DD007108DE007208DF0073089A
:101DA000E00000307302031DDF2E00307202031DBD
:101DB000DF2E02307102031DDF2EB23070020318D5
:101DC000E22E112FB230DD020230DE3B0030DF3B6D
:101DD000E03B0530F00070080319F42EE036DF0C0C
:101DE000DE0CDD0CFF3EEC2E5D08F0005E08F1001D
:101DF0005F08F2006008F3000130DD020030DE3BD6
:101E0000DF3BE03B70087104720473040319112F67
:101E100000000000000000000000000000000000C2
:101E2000F42E080020007008F8007108F000720815
:101E3000F1007308F200F301FB01FC019E30F30096
:101E4000FA01F21F2F2FF809F009F109F209F80A37
:101E50000319F00A0319F10A0319F20AFA170230FA
:101E6000FC0080317E2488310800290045183B2F72
:101E700022008E133D2F22008E172900C518432FF4
:101E800022008E11452F22008E15290045194B2F57
:101E900022000E134D2F22000E172900C519532FB3
:101EA00022000E11552F22000E152900451A5B2F16
:101EB00022008E125D2F22008E162900C51A632F74
:101EC00022008E10652F22008E142900451B6B2FD7
:101ED00022000E126D2F22000E162800590829002C
:101EE000DB0028005A082900DC00B02608000D306D
:101EF0002900DB000030DC00DD011930DE00DF01ED
:101F000085207008C5000D30DB000030DC0001309A
:101F1000DD001930DE00DF0185207008C5040D30BA
:101F2000DB000030DC000230DD001930DE00DF01B4
:101F300085204508F0040319A02F01302400EA0091
:101F400008002700CD01C3012900C50190311227E7
:101F50008831270043082900C50035272800590883
:101F60002900DB0028005A082900DC00B026080000
:101F700029003D0823009100920129003E0823001A
:101F800093001513951315150B08F0008B1355309E
:101F90009600AA3096009514F01BD02F8B13D12FEA
:101FA0008B171511951CD52FD22F080029003D182D
:101FB000DC2F22000E10DE2F22000E1428005908FC
:101FC0002900DB0028005A082900DC00B0260800A0
:101FD00029002A08F000F036F036F036F0360A30E4
:101FE000F40080319D2088310F3029002A05F1004E
:101FF0007108F00708000034003400346C340034F9
:10200000640025006C08003A0130031D0030F10027
:102010006E08013A0130031D0030F0007008F10530
:10202000803029004806F00080307002031D1A2815
:10203000643047020130031C0030F0007108F005E5
:102040000319E02825006D08003A031DDC2828004C
:102050005B08043A0130031D0030F1005B08053ACB
:102060000130031D0030F0007108F00403196928E5
:1020700025006F08013A031D4C2804302900E200B6
:102080001030E3005C30E4000330E5000830E60087
:102090008031D82490315A2804302900E2001030D1
:1020A000E300A030E4000330E5000830E6008031B2
:1020B000D824903106302900E2001030E30065306A
:1020C000E4000330E5000830E6008031D824903188
:1020D000DC2828005B08023A0130031D0030F100C3
:1020E0005B08033A0130031D0030F0007108F00472
:1020F0000319A92825006F08013A031D8D2829001E
:10210000E2010930E3005330E4000330E500083019
:10211000E6008031D82490319A282900E201093064
:10212000E3003230E4000330E5000830E60080319F
:10213000D824903101302900E2000930E300293031
:10214000E4000330E5000830E6008031D824903107
:10215000DC2828005B08013A031DDC2825006F08F5
:10216000013A031DC1282900E2010930E3003B3098
:10217000E4000330E5000730E6008031D8249031D8
:10218000CE282900E2010930E3004B30E40003309F
:10219000E5000730E6008031D82490310130290075
:1021A000E2000930E3004330E4000330E50007308B
:1021B000E6008031D824903101302500ED00EA2876
:1021C00025006D08013A031DE8288831B7219031B8
:1021D0002500ED012900460825002106031DF328EE
:1021E00020082900450603194B2C29004508250025
:1021F000A000290046082500A1006F08003A031D31
:102200005029803029004606F00080307002031DFE
:102210000B2964304502031C2C2905304507F000CA
:102220000030463DF1007008C5007108C600700816
:10223000E2007108E3004830E4000430E50080313A
:10224000CF23903128004A08CF004B08D0004C081B
:10225000D1005730D2004F2929004508E200460836
:10226000E3004830E4000430E5008031CF239031B2
:1022700028004C08203A031940294C08CF00422975
:102280003030CF002E30D0004D08203A03194B29B2
:102290004D08D1004D293030D1005730D200872968
:1022A000803029004606F0008030033A7002031D9A
:1022B0005B29E7304502031872294508E200460809
:1022C000E3004830E4000430E5008031CF23903152
:1022D00028004B08CF004C08D0004D08D1005730E3
:1022E000D200872929004508E2004608E30048306B
:1022F000E4000430E5008031CF23903128004A0803
:10230000CF004B08D0004C08D1004D08D1005B082D
:10231000043A0130031D0030F1005B08053A01303A
:10232000031D0030F0007108F0040319A5292900ED
:10233000E2014030E3004F30E4000430E5000430B7
:10234000E6008031D8249031B72928005B08003A94
:102350000319B7292900E2010430E3004F30E400FB
:102360000430E5000430E6008031D82490312500A7
:102370006D08013A031D4B2C29004708F00048085E
:10238000F10088316620903170082900CF00710873
:10239000D0007208D1007308D2000030F400003081
:1023A000F5004830F6008530F7004F08F00050087F
:1023B000F1005108F2005208F300803118279031E3
:1023C00070082900D7007108D8007208D900730876
:1023D000DA004F08F4005008F5005108F6005208E2
:1023E000F7000030F0000030F1004830F200853096
:1023F000F30080311827903170082900D30071084C
:10240000D4007208D5007308D6005708F0005808A9
:10241000F1005908F2005A08F3005308F400540878
:10242000F5005508F6005608F70088310926903166
:1024300070082900CF007108D0007208D10073081D
:10244000D20028005808F0008031E527903129009B
:102450004F08F4005008F5005108F6005208F70044
:102460008831002090310030F4000030F500203039
:10247000F6008230F7008031182790311F30F400C9
:102480008530F5006B30F6007B30F7008831002096
:1024900090310030F4000030F5000030F6007F305D
:1024A000F7008831092690317008F4007108F500B2
:1024B0007208F6007308F7000030F0000030F100F9
:1024C0000030F2007F30F30080311827903170081F
:1024D0002900CF007108D0007208D1007308D20023
:1024E0000030F0000030F1000030F2008030F300E6
:1024F0005708F4005808F5005908F6005A08F70084
:1025000088310926903129005308F4005408F50059
:102510005508F6005608F7008831092690317008F2
:10252000F4007108F5007208F6007308F700003037
:10253000F0000030F1000030F2008130F300803113
:102540001827903129004F08F4005008F500510871
:10255000F6005208F7008831002090310A30F4006C
:10256000D730F5002330F6007730F70088310926A0
:10257000903170082900CF007108D0007208D10096
:102580007308D2004F08CB005008CC005108CD0092
:102590005208CE004508F0004608F1008831662058
:1025A000903129004F08F4005008F5005108F6005A
:1025B0005208F7008831002090318831DB249031B7
:1025C00070082900C9007108CA004F08F0005008BF
:1025D000F1005108F2005208F3000030F40000301E
:1025E000F5004830F6008530F70088310020903142
:1025F00070082900CB007108CC007208CD00730868
:10260000CE0025006F08003A031D552B80302900AD
:102610004A06F00080307002031D102B643049021E
:10262000031C312B05304907F00000304A3DF10012
:102630007008C9007108CA007008E2007108E30060
:102640004830E4000430E5008031CF239031280089
:102650004A08CF004B08D0004C08D1005730D200B8
:10266000542B29004908E2004A08E3004830E400FE
:102670000430E5008031CF23903128004C08203A07
:102680000319452B4C08CF00472B3030CF002E309C
:10269000D0004D08203A0319502B4D08D100522B81
:1026A0003030D1005730D2008C2B803029004A06C0
:1026B000F0008030033A7002031D602BE7304902BE
:1026C0000318772B4908E2004A08E3004830E40089
:1026D0000430E5008031CF23903128004B08CF0033
:1026E0004C08D0004D08D1005730D2008C2B290067
:1026F0004908E2004A08E3004830E4000430E500FD
:102700008031CF23903128004A08CF004B08D000F9
:102710004C08D1004D08D1005B08043A0130031D7C
:102720000030F1005B08053A0130031D0030F00075
:102730007108F0040319AB2B04302900E20040308B
:10274000E3004F30E4000430E5000430E60080315F
:10275000D8249031DC2B28005B08023A0130031D9D
:102760000030F1005B08033A0130031D0030F00037
:102770007108F0040319CA2B2900E2010D30E300AF
:102780004F30E4000430E5000430E6008031D82406
:102790009031DC2B28005B08013A031DDC2B29005B
:1027A000E2010C30E3004F30E4000430E500043077
:1027B000E6008031D824903129004B08F0004C0805
:1027C000F1004D08F2004E08F3008831DB2490310F
:1027D00070082900E2007108E3004830E40004308A
:1027E000E5008031CF23903128004C08CF004D0800
:1027F000D0005B08043A0130031D0030F1005B0893
:10280000053A0130031D0030F0007108F00403198F
:10281000182C06302900E2004C30E3004F30E40071
:102820000430E5000230E6008031D82490314B2C92
:1028300028005B08033A0130031D0030F1005B08FB
:10284000043A0130031D0030F0007108F004031950
:10285000382C01302900E2000E30E3004F30E40054
:102860000430E5000230E6008031D82490314B2C52
:1028700028005B08013A031D4B2C01302900E200BF
:102880000D30E3004F30E4000430E5000230E60094
:102890008031D82490316400080064002900460883
:1028A00027005806031D572C570829004506031911
:1028B0003E2D290045082700D7002900460827009B
:1028C000D800003029004606031D682C013045065B
:1028D000031DAA2C28005B08043A0130031D0030B8
:1028E000F1005B08053A0130031D0030F00071086B
:1028F000F00403198A2C02302900E2004030E30082
:102900002C30E4000030E5000430E6008031D824AB
:102910009031A62C28005B08003A03199E2C013048
:102920002900E2000430E3002730E4000030E50035
:102930000430E6008031D8249031A62C28005B08B2
:10294000003A031DA62C22000D178D172700D70172
:10295000D8013E2D8031CC27903120003B08F0007B
:102960008031E527903121003A08F4003B08F5005A
:102970003C08F6003D08F70088310020903188318E
:10298000DB2490317008A5007108A60029004508D5
:102990002700D700290046082700D800290045084D
:1029A000E2004608E3004830E4000430E5008031EE
:1029B000CF23903128004B08CF002E30D0004C0898
:1029C000D1004D08D2005B08043A0130031D0030ED
:1029D000F1005B08053A0130031D0030F00071087A
:1029E000F0040319022D02302900E2004030E30018
:1029F0004F30E4000430E5000430E6008031D82494
:102A000090313E2D28005B08003A0319162D013045
:102A10002900E2000430E3004F30E4000430E50018
:102A20000430E6008031D82490313E2D28005B0828
:102A3000003A031D3E2D8030F0008030290046060C
:102A40007002031D252D4508963C031C2B2D2200EA
:102A50000D138D173E2D8030F00080302900460682
:102A60007002031D352D4508FA3C031C3B2D200048
:102A70000D138D133E2D20000D178D1364000800DB
:102A8000640088319A2590317008C5007108C6002D
:102A90000030C61BFF30C700C8008831392590318F
:102AA0007008C9007108CA000030CA1BFF30CB0093
:102AB000CC0020002308013A031D732D290045088E
:102AC000DB004608DC008831C42090318831662064
:102AD000903170082900CD007108CE007208CF0037
:102AE0007308D000882D29004508F0004608F10041
:102AF0004708F2004808F300883112279031700827
:102B00002900CD007108CE007208CF007308D000F4
:102B100080304C06F000803048067002031D9A2D6C
:102B200047084B02031D9A2D46084A02031D9A2DA1
:102B300045084902031CA32DE730C5000330C60039
:102B4000C701C801ED2D49084507F0004A08463D78
:102B5000F1004B08473DF2004C08483DF30064305B
:102B6000F400F501F601F7018031DF2690312900EC
:102B70004508F4004608F5004708F6004808F70045
:102B80004908F4024A08F53B4B08F63B4C08F73B72
:102B900088312524903170082900C5007108C600CD
:102BA0007208C7007308C8008030F40080307306D4
:102BB0007402031DE52D7208003C031DE52D71080C
:102BC000033C031DE52D7008E73C0318ED2DE730AD
:102BD000C5000330C600C701C80125006F08013ACF
:102BE000031D602E20002208F0008031E52790317F
:102BF00029004D08F4004E08F5004F08F600500873
:102C0000F7008831002090310030F4000030F500EA
:102C10007A30F6008830F70080311827903170083C
:102C20002900CD007108CE007208CF007308D000D3
:102C3000F430F400FD30F5003430F6007F30F7005A
:102C400080311827903170082900CD007108CE001E
:102C50007208CF007308D0007008F4007108F50006
:102C60007208F6007308F7008831002090310030B8
:102C7000F4000030F5004830F6008430F700803171
:102C80001827903170082900CD007108CE00720815
:102C9000CF007308D0000030F4000030F5000030A1
:102CA000F6007E30F700883109269031700829003F
:102CB000CD007108CE007208CF007308D000CF2E6F
:102CC00029004D08F0004E08F1004F08F2005008AE
:102CD000F3000030F4000030F5002030F6008230C0
:102CE000F7008831002090310030F4000030F5000A
:102CF0007A30F6008830F70080311827903170085C
:102D00002900CD007108CE007208CF007308D000F2
:102D1000F430F400FD30F5003430F6007F30F70079
:102D200080311827903170082900CD007108CE003D
:102D30007208CF007308D0007008F4007108F50025
:102D40007208F6007308F7008831002090310030D7
:102D5000F4000030F5002030F6008130F7008031BB
:102D60001827903170082900CD007108CE00720834
:102D7000CF007308D0000030F4000030F5000030C0
:102D8000F6007E30F700883109269031700829005E
:102D9000CD007108CE007208CF007308D0004D0836
:102DA000F0004E08F1004F08F2005008F30088319F
:102DB000DB24903170082800C6007108C7008030FD
:102DC0007106F20080307202031DE82E0A30700294
:102DD0000318EF2E0130C4000030C500112F8030E1
:102DE00029004806F00080307002031D012F0030DA
:102DF0004702031D012F00304602031D012F6430DE
:102E000045020318092FE7302800C4000330C5002D
:102E1000112F290045082800C40029004608280071
:102E2000C500080022004408003A031D502F290065
:102E300045181D2F22008D111F2F22008D152900EE
:102E4000C518252F22000C11272F22000C15290050
:102E500045192D2F22000D122F2F22000D162900AB
:102E6000C519352F22008C11372F22008C1529000F
:102E7000451A3D2F22008D123F2F22008D1629006A
:102E8000C51A452F22008C12472F22008C162900CC
:102E9000451B4D2F22000C124F2F22000C16882F9D
:102EA00029004518562F22008D15582F22008D110C
:102EB0002900C5185E2F22000C15602F22000C116E
:102EC00029004519662F22000D16682F22000D12C9
:102ED0002900C5196E2F22008C15702F22008C112D
:102EE0002900451A762F22008D16782F22008D1288
:102EF0002900C51A7E2F22008C16802F22008C12EA
:102F00002900451B862F22000C16882F22000C1248
:102F1000280059082900DB0028005A082900DC0095
:102F20008831B02690310800710DF80DF90D740844
:102F3000F8027508031C750FF902F00DF10D0F3042
:102F4000FC00710DF80DF90D7408701CAD2FF8021E
:102F50007508031C750FF902B22FF80775080318DE
:102F6000750FF907F00DF10DFC0BA12F7018BE2F96
:102F70007408F80775080318750FF90700000800B2
:102F8000B7302800B7000330B800E230B900043091
:102F9000BA00F03021009E009D011D140800290098
:102FA000AA018031F427903170082800C000013058
:102FB0002900AA008031F427903170082800BE0053
:102FC0007008003A031DEB2F21000D138D13220012
:102FD0000D178D17F12F21000D178D1722000D13DE
:102FE0008D13080012001E00F003031DF22FF103E1
:102FF000031DF22F08000034003400340034003484
:103000002900C101C2016430280056022900BE0017
:1030100000302800573B2900BF000130C3000030BA
:10302000C4002800C601C701640025006C08013AED
:10303000031D1E281E302900C000212829007830D9
:10304000C000BD0140083D0203187F2820008D18F4
:103050002B2876142C2876100D19302803143128CB
:103060000310761837280318372876103828761476
:1030700020000D183D2803143E280310761844281C
:1030800003184428761045287614761C5128883178
:103090007727983124006A08013A031D5128EA0174
:1030A000372B903140259831803029004206F000BE
:1030B0008030280047067002031D61284608290059
:1030C000410203187328280046082900C10028007F
:1030D00047082900C200280044082900C30028002E
:1030E00045082900C4001030FC009430FD00290080
:1030F000FD0B7728FC0B77280000BD0A222864000E
:1031000041082400EB00290042082400EC002900BB
:103110004308C5004408C60090314D2498318030E2
:1031200029004406F0008030280057067002031D75
:103130009C285608290043020130031C0030F0008F
:10314000700824006F05F50080306E06F3008030B3
:10315000290044067302031DB028430824006D02B1
:103160002400013003180030F3006D0829004302E9
:10317000F10024006E082900443BF20080303F0635
:10318000F000803072067002031DC82871083E02EC
:10319000013003180030F00070087305F40080302F
:1031A0004406F300803024006E067302031DDB2802
:1031B0006D08290043022900013003180030F30094
:1031C000430824006D02F1002900440824006E3BEE
:1031D000F200803029003F06F00080307206700255
:1031E000031DF42871083E02013003180030F0007E
:1031F0007308F00570087404F10024006E08033AA7
:10320000031D0429E7306D060130031D0030F00076
:103210007108F0047508F005031911290130250023
:10322000D90020008D1816297614172976100D194B
:103230001B2903141C29031076182229031822299C
:1032400076102329761420000D1828290314292923
:10325000031076182F2903182F2976103029761499
:10326000761C3C2988317727983124006A08013A76
:10327000031D3C29EA01372B24006B082900C500F7
:1032800024006C082900C6004308C7004408C80091
:1032900090310020983120008D1850297614512942
:1032A00076100D19552903145629031076185C2938
:1032B00003185C2976105D29761420000D18622908
:1032C00003146329031076186929031869297610F5
:1032D0006A297614761C762988317727983124005C
:1032E0006A08013A031D7629EA01372B640025009C
:1032F0005808013A031D372B28005B08043A0130B7
:10330000031D0030F1005B08053A0130031D003059
:10331000F0007108F00403195D2A02302900E20070
:103320001030E300DA30E4000230E5000830E60057
:103330008031D82498310330FB000830FC0077300E
:10334000FD00FD0BA129FC0BA129FB0BA1290230DB
:103350002900E2001030E3002030E4000330E500F3
:103360000830E6008031D82498310B30FB0026303D
:10337000FC005D30FD00FD0BBB29FC0BBB29FB0BEA
:10338000BB2900000000640002302900E200103078
:10339000E300E330E4000230E5000830E60080316D
:1033A000D82498310730FB001730FC006A30FD004C
:1033B000FD0BD829FC0BD829FB0BD82900000230C3
:1033C0002900E2001030E300CF30E4000230E500D5
:1033D0000830E6008031D82498310B30FB002630CD
:1033E000FC005D30FD00FD0BF329FC0BF329FB0B0A
:1033F000F32900000000640002302900E2001030D0
:10340000E300AB30E4000230E5000830E600803134
:10341000D82498310730FB001730FC006A30FD00DB
:10342000FD0B102AFC0B102AFB0B102A00000230A7
:103430002900E2001030E300A230E4000230E50091
:103440000830E6008031D82498310B30FB0026305C
:10345000FC005D30FD00FD0B2B2AFC0B2B2AFB0B27
:103460002B2A00000000640002302900E200103026
:10347000E300B430E4000230E5000830E6008031BB
:10348000D82498310330FB000830FC007730FD0071
:10349000FD0B482AFC0B482AFB0B482A0230290066
:1034A000E2001030E300C630E4000230E5000830EE
:1034B000E6008031D8249831292B28005B08003A97
:1034C0000319292B01302900E200E301BD30E4009B
:1034D0000230E5000830E6008031D824983103300E
:1034E000FB000830FC007730FD00FD0B752AFC0B5B
:1034F000752AFB0B752A01302900E200E301A9308F
:10350000E4000330E5000830E6008031D82498312B
:103510000B30FB002630FC005D30FD00FD0B8E2AD9
:10352000FC0B8E2AFB0B8E2A000000006400013089
:103530002900E200E301DA30E4000330E50008305E
:10354000E6008031D82498310730FB001730FC00AA
:103550006A30FD00FD0BAA2AFC0BAA2AFB0BAA2A43
:10356000000001302900E200E301E330E400033011
:10357000E5000830E6008031D82498310B30FB009C
:103580002630FC005D30FD00FD0BC42AFC0BC42A74
:10359000FB0BC42A00000000640001302900E20097
:1035A000E3012930E4000430E5000830E600803112
:1035B000D82498310730FB001730FC006A30FD003A
:1035C000FD0BE02AFC0BE02AFB0BE02A0000013097
:1035D0002900E200E3012030E4000430E500083077
:1035E000E6008031D82498310B30FB002630FC00F7
:1035F0005D30FD00FD0BFA2AFC0BFA2AFB0BFA2AC0
:1036000000000000640001302900E200E301CE3038
:10361000E4000330E5000830E6008031D82498311A
:103620000330FB000830FC007730FD00FD0B162B4B
:10363000FC0B162BFB0B162B01302900E200E301DB
:10364000C430E4000330E5000830E6008031D824BF
:103650009831640010302700D7002730D8002900A7
:103660004308C5004408C60090314D249831080035
:103670008831A127983101302600EE000130290061
:10368000BD008831D6279831FF30BD00BE0188319A
:10369000B8279831FE302900BD00BE018831B82717
:1036A0009831FD302900BD000130BE008831B827B7
:1036B00098318831B72198312500ED0122008C1313
:1036C0000C172800C401C501C601C7012400ED0183
:1036D000EE0128005B08043A0130031D0030F100C0
:1036E0005B08053A0130031D0030F0007108F0045A
:1036F0000319A72B02302900E2001030E300DC3070
:10370000E4000030E5000830E6008031D82498312C
:1037100064000D30FB002D30FC00D730FD00FD0BA8
:103720008F2BFC0B8F2BFB0B8F2B0000000002302C
:103730002900E2001030E3002930E4000130E50008
:103740000830E6008031D82498316400DA2B280054
:103750005B08003A0319D72B01302900E200E3018E
:103760002030E4000130E5000830E6008031D82444
:10377000983164000D30FB002D30FC00D730FD0087
:10378000FD0BC02BFC0BC02BFB0BC02B0000000063
:1037900001302900E200E301E530E4000030E500FB
:1037A0000830E6008031D82498316400DA2B2200FA
:1037B0000D178D1710302700D7002730D800103094
:1037C0002500A0002730A1000020080090314025EE
:1037D000983121006F08643A0319012CEF0A8030F8
:1037E00028003306F000803047067002031DFA2BD4
:1037F000460832020318002C4608B2004708B300FE
:10380000192C2100EF01280032082900C5002800EA
:1038100033082900C600280044082900C7002800F2
:1038200045082900C8009031002098312800B201D5
:10383000B301280080304706F200803027006F0671
:103840007202031D262C6E08280046020130031860
:103850000030F200803027006D06F1008030280033
:1038600047067102031D372C460827006C0227000B
:10387000013003180030F1008030F00080306D0618
:103880007002031D452C6C08003C01300318003009
:10389000F0007108F0057208F0040319B32C6400FD
:1038A00090314025983121006F08643A03196B2C40
:1038B000EF0A803028003306F0008030470670029F
:1038C000031D642C4608320203186A2C4608B20015
:1038D0004708B300832C2100EF012800320829009B
:1038E000C500280033082900C60028004408290024
:1038F000C700280045082900C800903100209831F1
:103900002800B201B3010D302900DB000030DC00DB
:10391000DD010530DE000130DF008831852098317F
:1039200070080319962C01302200C50022004508BA
:10393000013A0130031D00302900BC000D30DB00CE
:103940000030DC00DD010530DE00DF01883185203C
:1039500098313C08F0050319B22C38232800C40123
:10396000C501B32C192C08007408003A031DC12CA2
:103970007508003A031DC12CFF30F0007F30F100C4
:103980001B2D2000FD01F901F801710870040319D5
:10399000003471087506FA00FA1BFD09FB01F51FDA
:1039A000D62CF409F509F40A0319F50AF11FDD2CE8
:1039B000F009F109F00A0319F10A71087504FA0017
:1039C000FA1BF22C9031942798317B18072DFD1F9C
:1039D0000034F009F109F00A0319F10AF809F909AC
:1039E000F80A0319F90A0034F51F032DF11BFF2C07
:1039F0007108F9007008F800F101F001E72CF101FD
:103A0000F001F00A0034F109F009FB0AE42CF80A8D
:103A10000319F90A74087802031DE72C7508790266
:103A2000031DE72CF901F801F00A0319F10AF11F4F
:103A3000E72C0000FF34080003302900BB002700FA
:103A4000C3012900C5018831352798313B08200082
:103A5000B100E623003028004506031D312D00305B
:103A60004406031D342DE02D1430F4000030F50021
:103A70004408F0004508F100B42470082800440709
:103A80002900B90071082800453D2900BA003B080B
:103A9000B800290038081F3C031CD92D3808F00055
:103AA00020002408F40080319D20983170082900FE
:103AB000C500883135279831E623003028004506B7
:103AC000031D642D00304406031D672DE02D80305A
:103AD0004506F000803029003A067002031D732D60
:103AE0003908280044020318D72D28001430F400A8
:103AF0000030F5004408F0004508F100B4247008D7
:103B0000280044072900B90071082800453D290014
:103B1000BA003808F00020002408F40080319D200D
:103B2000983170082700C30029003B082000B1002D
:103B3000803028004506F00080307002031DA22D61
:103B4000783044020318A52DD92D29003B083807E9
:103B5000F2007208B80022004908003A0130031D43
:103B60000030F1007208093A0130031D0030F00006
:103B70007108F0050319C02D08302900B800D62DB2
:103B800022004908003A0130031D0030F1002900ED
:103B90003808113A0130031D0030F0007108F005BB
:103BA0000319D62D1030B8000430BB00D82DD92D04
:103BB000492D270043082900C50088313527983151
:103BC000080003302900B700B30137082000B8000F
:103BD00003302900B4001430F4000030F500280050
:103BE0004408F0004508F100B42470082800440798
:103BF0002900B50071082800453D2900B600B20132
:103C0000290032081F3C031C962E3208F0002000C9
:103C10003A08F40080319D20983170082900C500D1
:103C20009031122798311C25E623003028004506E4
:103C3000031D1C2E00304406031D1F2EB42E8030A1
:103C40004506F0008030290036067002031D2B2E39
:103C50003508280044020318942E28001430F4007C
:103C60000030F5004408F0004508F100B424700865
:103C7000280044072900B50071082800453D2900A7
:103C8000B6003208F00020003A08F40080319D2090
:103C9000983170082700CD0043082900B300370889
:103CA0002000B80031082900B40080302800450603
:103CB000F00080307002031D5F2E7830440203183C
:103CC000622E962E290037083207F2007208B200E1
:103CD00022006408003A0130031D0030F100720830
:103CE000093A0130031D0030F0007108F005031996
:103CF0007D2E08302900B200932E22006408003A7D
:103D00000130031D0030F10029003208113A013062
:103D1000031D0030F0007108F0050319932E1030D8
:103D2000B2000430B700952E962E002E29003308DD
:103D30002700C3004D082900C50090311227983193
:103D4000270043082900C5008831352798313408F9
:103D50002000B1003430FC00F130FD00FD0BAE2E30
:103D6000FC0BAE2E00000000080020003808F00018
:103D70003A08F40080319D20983170082900B20083
:103D8000700827004D07F40074082900B4000530BE
:103D9000F20020003A08F000F10172080319D42E55
:103DA000F035F10DFF3ECE2E01307002F2000030F2
:103DB000713BF30080307306F00080307002031D09
:103DC000E32E740872020318F12E0530F0003A0851
:103DD0002900B40070080319F02EB435FF3EEB2E15
:103DE000B40327004D08290032020318FD2E3208C3
:103DF00027004D022900B500FE2EB5013508270029
:103E0000CD0029003508C500903112279831E623EE
:103E1000003028004506031D0F2F00304406031D07
:103E2000122F9A2F44082900B600280045082900BF
:103E3000B70020003A0829003507B30033083402E0
:103E4000031C932F3308C500903112279831E623C5
:103E5000003028004506031D2F2F00304406031DA7
:103E6000322F9A2F80304506F00080302900370627
:103E70007002031D3E2F360828004402031C4B2FFE
:103E80003430FC00F130FD00FD0B442FFC0B442FBF
:103E900000000000E623803028004506F000803056
:103EA000290037067002031D582F360828004402E7
:103EB000031C652F3430FC00F130FD00FD0B5E2F3C
:103EC000FC0B5E2F00000000E62380302800450632
:103ED000F0008030290037067002031D722F36086B
:103EE0002800440203188D2F280044082900B6003A
:103EF000280045082900B70033082700CD0080308E
:103F000028004506F00080307002031D892F7830AC
:103F1000440203188C2F932F8E2F932F20003A08E2
:103F20002900B3071E2F27004D082900C500903136
:103F300012279831080028003E08013C0318A72FDB
:103F4000AE302900E20080316D249831B82F28006E
:103F50003E08013A031DB82FBD01BC012900EC0148
:103F60008031F62098312900EC018031F62098311B
:103F70000800640021009712171697111715971063
:103F8000640023008C010C148C148D012200911309
:103F9000931378302100990020008C018D018E014F
:103FA000403022008C008D018E01033021008C00F6
:103FB00007308D008E019031C02798311E149E1459
:103FC000951324000D148D140D158B130800203447
:103FD0002034203420342034203420342034203441
:103FE0000034203420342034203420342034203451
:103FF0002034203400340034FF3FFF3FFF3FFF3FB9
:1040000020003108F0002408F40080319D20A03108
:1040100070082900B200700827004307F4007408F4
:104020002900B4000530F20020002408F000F1015E
:10403000720803191F28F035F10DFF3E19280130D1
:104040007002F2000030713BF30080307306F00024
:1040500080307002031D2E287408720203183C2859
:104060000530F00024082900B400700803193B282B
:10407000B435FF3E3628B403270043082900320236
:10408000031848283208270043022900B5004928B0
:10409000B50135082700C30029003508C50088315F
:1040A0003527A0319831E623A0310030280045069D
:1040B000031D5C2800304406031D5F28ED284408DA
:1040C0002900B600280045082900B7002000240870
:1040D00029003507B30033083402031CE6283308EF
:1040E000C50088313527A0319831E623A031003052
:1040F00028004506031D7E2800304406031D812844
:10410000ED2880304506F000803029003706700227
:10411000031D8D28360828004402031C9C283430D7
:10412000FC00F130FD00FD0B9328FC0B93280000F0
:1041300000009831E623A031803028004506F000C9
:104140008030290037067002031DA9283608280090
:104150004402031CB8283430FC00F130FD00FD0B94
:10416000AF28FC0BAF28000000009831E623A031F7
:10417000803028004506F0008030290037067002A4
:10418000031DC5283608280044020318E02828002B
:1041900044082900B600280045082900B700330864
:1041A0002700C300803028004506F00080307002F0
:1041B000031DDC28783044020318DF28E628E128B4
:1041C000E628200024082900B3076B2827004308AD
:1041D0002900C50088313527A0310800280044088F
:1041E0002900AC00280045082900AD009831E125E0
:1041F000A031003028004506031D00290030440688
:10420000031D06298831A127A0316A2A9831E623A7
:10421000A031803028004506F00080307002031D78
:10422000132978304402031816296A2A9831B526D2
:10423000A031003028004506031D20290030440627
:10424000031D26298831A127A0316A2A9831E62347
:10425000A031803028004506F00080307002031D38
:10426000332978304402031836296A2A00200030A6
:1042700028004506031D3E2900304406031D44293D
:104280008831A127A0316A2A9831E623A0318030F5
:1042900028004506F00080307002031D5129783057
:1042A0004402031854296A2A80304506F100803000
:1042B0007102031D5D29C83044020130031800302B
:1042C000F10080304506F000803029002D06700294
:1042D000031D6D292C082800440228000130031812
:1042E0000030F00070087105F300440829002C022A
:1042F000F1002800450829002D3BF2008030F00035
:10430000803072067002031D87297108643C0130F9
:1043100003180030F0007308F005031990296A2A89
:10432000280044082900AC00280045082900AD00F9
:1043300027004D082900AE00AF01270043082900DF
:10434000B000B10126006E08013A031DA929EE0153
:10435000AB290130EE008831A127A03126006E087C
:104360002900BD008831D627A0310230FB0004307F
:10437000FC00BA30FD00FD0BBB29FC0BBB29FB0B7D
:10438000BB2900009831E623A03180302800450683
:10439000F00080307002031DCF29783044020318EA
:1043A000D2296A2A9831E125A0310030280045063B
:1043B000031DDC2900304406031DE2298831A127B2
:1043C000A0316A2A9831E623A031803028004506C2
:1043D000F00080307002031DEF297830440203188A
:1043E000F2296A2A9831B526A03100302800450606
:1043F000031DFC2900304406031D022A8831A12731
:10440000A0316A2A9831E623A03180302800450681
:10441000F00080307002031D0F2A78304402031828
:10442000122A6A2A0020003028004506031D1A2A95
:1044300000304406031D202A8831A127A0316A2AB2
:104440009831E623A031803028004506F000803006
:104450007002031D2D2A783044020318302A6A2A7C
:10446000803029002D06F0008030280045067002BB
:10447000031D3D2A440829002C020318692A26003E
:104480006E08013A031D462AEE01482A0130EE006B
:104490006E082900BD008831D627A0312E082700DC
:1044A000CD00290030082700C30029002E08C500D0
:1044B00090311227A031270043082900C500883118
:1044C0003527A0312C082800C40029002D08280019
:1044D000C50064000800640022006708053A031D57
:1044E000752A01302000BA00862A22006708063AA1
:1044F000031D7E2A02302000BA00862A22006708A7
:10450000073A031D862A04302000BA0022004A0818
:10451000053A031D8F2A01302000A400A02A2200A2
:104520004A08063A031D982A02302000A400A02A57
:1045300022004A08073A031DA02A04302000A400E4
:104540002100EF012800B201B3012200C50198311A
:10455000E623A031803028004506F000803070024C
:10456000031DB42A6E3044020318B72A492B883140
:10457000A127A0310230FB000430FC00BA30FD005E
:10458000FD0BC02AFC0BC02AFB0BC02A000098318F
:10459000E623A031803028004506F000803070020C
:1045A000031DD42A6E3044020318D72A492B8030C9
:1045B000F100803035067102031DE02A34086E3C9C
:1045C000013003180030F10080303506F0008030F3
:1045D00045067002031DEE2A440834020130031818
:1045E0000030F0007108F0050319F72A492BEE207E
:1045F000003028004506031DFF2A00304406031D35
:10460000052B8831A127A031492B80302800450691
:10461000F00080307002031D0F2B78304402031825
:10462000122B492B22004A08053A0130031D0030A5
:10463000F1006708053A0130031D0030F0007108F1
:10464000F0050319242B492B6708053C0318302B70
:1046500020003A08B8000130BA009831B526A031E0
:10466000803028004506F00080307002031D3A2B90
:104670007830440203183D2B492B22004A08053CA0
:104680000318482B20002408B1000130A4000020AA
:1046900064000800640028005B08043A0130031D30
:1046A0000030F1005B08053A0130031D0030F000D6
:1046B0007108F00403196B2B02302900E20040302E
:1046C000E3004B30E4000130E5000430E6008031C7
:1046D000D824A031822B28005B08003A03197F2BD5
:1046E00001302900E2000430E3006A30E4000130C8
:1046F000E5000430E6008031D824A031822B22006E
:104700000D178D176B2228005B08003A031DAA2B9A
:104710008030F000803045067002031D912B440864
:10472000963C031C972B22000D138D17AA2B80306B
:10473000F0008030280045067002031DA12B4408BC
:10474000FA3C031CA72B20000D138D13AA2B20006D
:104750000D178D13FF302900BD00270043082900E5
:10476000BE008831B827A031FE302900BD002700E7
:104770004D082900BE008831B827A031FD3029003E
:10478000BD0026006E082900BE008831B827A03180
:1047900010302700D7002730D80010302500A000A7
:1047A0002730A10098310020A031280044082400BF
:1047B000ED00280045082400EE0022008C130C17A1
:1047C0006400080080310320A031280040082A003E
:1047D000AB0080312220A0312A00AB0180312220A1
:1047E000A031AE302A00AB0080312220A031280059
:1047F0003E08023A0130031D0030F1003E08033A42
:104800000130031D0030F0007108F0040319BE2CC4
:10481000D5302A00AB0080312220A03180302A0020
:10482000AB0080312220A031A8302A00AB008031BB
:104830002220A0313F302A00AB0080312220A0315D
:10484000D3302A00AB0080312220A03128003E085E
:10485000023A031D322C36082A00AB008031222098
:10486000A0313A2C280036081F3E2A00AB008031C8
:104870002220A03140302A00AB0080312220A0311C
:104880008D302A00AB0080312220A03114302A0064
:10489000AB0080312220A03181302A00AB00803172
:1048A0002220A031B4302A00AB0080312220A03178
:1048B000D9302A00AB0080312220A03122302A00DA
:1048C000AB0080312220A03120302A00AB008031A3
:1048D0002220A03102302A00AB0080312220A031FA
:1048E00021302A00AB0080312220A0312A00AB0108
:1048F00080312220A0317F302A00AB00803122207D
:10490000A0312E302A00AB0080312220A0312800B7
:104910003E08023A031D992CA0302A00AB008031DA
:104920002220A031C0302A00AB0080312220A031EB
:10493000A52CA1302A00AB0080312220A031C83044
:104940002A00AB0080312220A031DA302A00AB00EF
:1049500080312220A03102302A00AB008031222099
:10496000A031DB302A00AB0080312220A031403062
:104970002A00AB0080312220A031662DD5302A00DC
:10498000AB0080312220A03180302A00AB00803182
:104990002220A031A8302A00AB0080312220A03193
:1049A0003F302A00AB0080312220A031D3302A00D2
:1049B000AB0080312220A031280036082A00AB004D
:1049C00080312220A03140302A00AB0080312220EB
:1049D000A0318D302A00AB0080312220A03114306C
:1049E0002A00AB0080312220A03181302A00AB00A8
:1049F00080312220A031FF302A00AB0080312220FC
:104A0000A031D9302A00AB0080312220A031F13012
:104A10002A00AB0080312220A03120302A00AB00D8
:104A200080312220A03102302A00AB0080312220C8
:104A3000A03121302A00AB0080312220A0312A0091
:104A4000AB0180312220A0317F302A00AB008031C1
:104A50002220A0312E302A00AB0080312220A0314C
:104A600028003E08043A031D422DA0302A00AB0066
:104A700080312220A031C0302A00AB0080312220BA
:104A8000A0314E2DA1302A00AB0080312220A03170
:104A9000C8302A00AB0080312220A031DA302A0051
:104AA000AB0080312220A03112302A00AB008031CF
:104AB0002220A031DB302A00AB0080312220A0313F
:104AC00040302A00AB0080312220A031A4302A00DF
:104AD000AB0080312220A031A6302A00AB0080310B
:104AE0002220A0318031B520A0310330FB000830F6
:104AF000FC007730FD00FD0B7B2DFC0B7B2DFB0BB1
:104B00007B2D80310320A031280040082A00AB0013
:104B100080312220A03140302A00AB008031222099
:104B2000A03128003E08023A0130031D0030F10098
:104B30003E08033A0130031D0030F0007108F00414
:104B40000319C12D2900AB012B08033C031CC02D08
:104B50002B082A00A600A70180315D20A031290082
:104B6000AA01290080302A020318BD2DAA0A2A00B2
:104B7000AB0180312220A031B12D2900AB0AA42D38
:104B8000DF2D2900AB012B08073C031CDF2D2B0870
:104B90002A00A600A70180315D20A0312900AA01CA
:104BA000290080302A020318DC2DAA0A2A00AB0152
:104BB00080312220A031D02D2900AB0AC32D8031B5
:104BC000B520A031AF302900E20080316D24A03142
:104BD0000800640028005B08043A0130031D00301F
:104BE000F1005B08053A0130031D0030F000710848
:104BF000F0040319DB2E20006D08003A031D8D2EF2
:104C00002900E2011630E300B230E4000030E50094
:104C10000730E6008031D824A03102302900E200BC
:104C20000630E300D230E4000030E5000930E60051
:104C30008031D824A03104302900E2001030E30094
:104C4000C930E4000030E5000830E6008031D824A7
:104C5000A03106302900E2000430E300BE30E40059
:104C60000030E5000A30E6008031D824A03164002D
:104C70000D30FB002D30FC00D730FD00FD0B3E2E2B
:104C8000FC0B3E2EFB0B3E2E0000000064000B30A0
:104C9000FB002630FC005D30FD00FD0B4D2EFC0BB3
:104CA0004D2EFB0B4D2E0000000064002900E20198
:104CB0001030E300A930E4000030E5000830E600E1
:104CC0008031D824A03102302900E2000430E30012
:104CD0005030E4000030E5000A30E6008031D8248E
:104CE000A03104302900E2001030E3004730E40036
:104CF0000030E5000830E6008031D824A0310630CD
:104D00002900E2000430E3003C30E4000030E5001C
:104D10000A30E6008031D824A0310430FB000C308A
:104D2000FC003330FD00FD0B932EFC0B932EFB0B90
:104D3000932E0000000025006F08013A031DAE2EDF
:104D40002900E2011030E300A030E4000030E5006B
:104D50000830E6008031D824A031BB2E2900E201C2
:104D60001030E3006430E4000030E5000830E60075
:104D70008031D824A03102302900E2001030E30055
:104D80005B30E4000030E5000830E6008031D824D4
:104D9000A03124006F080319DA2E2900E2017030D7
:104DA000E3004630E4000130E5000130E6008031E8
:104DB000D824A031BC2F28005B08003A0319BC2F6F
:104DC00020006D08003A031D722F2900E201043013
:104DD000E3002030E4000230E5000730E6008031D7
:104DE000D824A03101302900E2000330E300E6308E
:104DF000E4000130E5000930E6008031D824A0311C
:104E000064000F30FB003530FC005130FD00FD0B1D
:104E1000072FFC0B072FFB0B072F64000B30FB0049
:104E20002630FC005D30FD00FD0B142FFC0B142F11
:104E3000FB0B142F0000000064002900E201043085
:104E4000E300DD30E4000130E5000830E6008031A9
:104E5000D824A03101302900E2000330E3003C30C7
:104E6000E4000230E5000A30E6008031D824A031A9
:104E700064000D30FB002D30FC00D730FD00FD0B31
:104E80003F2FFC0B3F2FFB0B3F2F00000000640067
:104E90000B30FB002630FC005D30FD00FD0B4E2F7B
:104EA000FC0B4E2FFB0B4E2F00000000640029006E
:104EB000E2010430E3003330E4000230E500083062
:104EC000E6008031D824A03101302900E20003300F
:104ED000E3002830E4000230E5000A30E6008031CB
:104EE000D824A0310430FB000C30FC003330FD002E
:104EF000FD0B782FFC0B782FFB0B782F00000000A8
:104F000025006F08013A031D922F2900E201E301F9
:104F1000D430E4000130E5000830E6008031D824C8
:104F2000A0319E2F2900E201E301C930E4000130E5
:104F3000E5000830E6008031D824A0310130290096
:104F4000E200E301C030E4000130E5000830E60093
:104F50008031D824A03124006F080319BC2F290008
:104F6000E2010830E300BE30E4000130E50001302A
:104F7000E6008031D824A0316400FF302700D9003A
:104F8000FF302600EF008831B721A03108004534FA
:104F9000463446343D342034203430342534003413
:104FA00041344E3454343D3430342E34303457345C
:104FB000003441344E343D342034203430345734BE
:104FC00000344534463446343D34203430342534BE
:104FD000003441344E343D3430342E343034573480
:104FE000003441344E3454343D3420342034303491
:104FF00057340034FF3FFF3FFF3FFF3FFF3FFF3F7E
:1050000028005B08043A0130031D0030F1005B0802
:10501000053A0130031D0030F0007108F004031957
:105020001F282900E2010A30E3004E30E40002307C
:10503000E5000930E6008031D824A8313128280065
:105040005B08003A031931282900E2010330E3002C
:10505000B430E4000130E5000930E6008031D824A6
:10506000A83164000B30FB002630FC005D30FD00F1
:10507000FD0B3828FC0B3828FB0B382800000000FB
:1050800064000B30FB002630FC005D30FD00FD0BA2
:105090004728FC0B4728FB0B472800000000640052
:1050A0000B30FB002630FC005D30FD00FD0B562868
:1050B000FC0B5628FB0B56280000000064000B3048
:1050C000FB002630FC005D30FD00FD0B6528FC0B6D
:1050D0006528FB0B652800000000640028005B08C1
:1050E000043A0130031D0030F1005B08053A01303D
:1050F000031D0030F0007108F00403198D28290009
:10510000E2010A30E300AA30E4000130E500093092
:10511000E6008031D824A8319F2828005B08003A97
:1051200003199F282900E2010330E300A030E400C6
:105130000130E5000930E6008031D824A8318831FB
:10514000A127A83101302600EE0001302900BD0062
:105150008831D627A831FF30BD0027004308290039
:10516000BE008831B827A831FE302900BD002700D5
:105170004D082900BE008831B827A831FD3029002C
:10518000BD0026006E082900BE008831B827A8316E
:1051900028005B08043A0130031D0030F1005B0871
:1051A000053A0130031D0030F0007108F0040319C6
:1051B000E7282900E2017030E3006530E4000130A7
:1051C000E5000130E6008031D824A831F928280014
:1051D0005B08003A0319F9282900E2010830E300CE
:1051E0006830E4000130E5000130E6008031D82469
:1051F000A83101302000ED00A031E925A8310800D8
:1052000007302900AA008031F427A831700828004F
:10521000B60008302900AA008031F427A8317008B0
:105220002800C1003E08013C03181A29A031E223DE
:10523000A8318D2928003E08013A031D8D2901302F
:10524000BD00BC0103302900EC008031F620A831FC
:105250001A30FC00F830FD00FD0B2C29FC0B2C292A
:10526000000003302900EC008031F620A831063020
:10527000FC003030FD00FD0B3B29FC0B3B290000FE
:1052800003302900EC008031F620A83102302900DB
:10529000EC008031F620A83102302900EC0080318A
:1052A000F620A83108302900EC008031F620A83122
:1052B0002900EC018031F620A83108302900EC00EB
:1052C0008031F620A8312900EC018031F620A83188
:1052D00001302900EC008031F620A8311A30FC00A2
:1052E000F830FD00FD0B7229FC0B7229000029002B
:1052F000EC018031F620A83106302900EC00803125
:10530000F620A8312900EC018031F620A8310C30BC
:105310002900EC008031F620A83108000D3029006A
:10532000DB000030DC00DD013230DE00DF018831DF
:105330008520A83170080319462A0430FB000C3080
:10534000FC003330FD00FD0BA329FC0BA329FB0B54
:10535000A32900000000640020000D1CC2292600C3
:105360006E08003A031DB7290130EE00B829EE019E
:105370006E082900BD008831D627A8318831B721B1
:10538000A831322A22004308013A031DC929C3016A
:10539000CB290130C3004308013A031D012A28002C
:1053A0005B08043A0130031D0030F1005B08053A48
:1053B0000130031D0030F0007108F0040319EE29DC
:1053C0002900E2017030E3006E30E4000030E500B7
:1053D0000130E6008031D824A831002A28005B087B
:1053E000003A0319002A2900E2010830E3003630B0
:1053F000E4000030E5000130E6008031D824A83117
:10540000322A28005B08043A0130031D0030F10005
:105410005B08053A0130031D0030F0007108F0040C
:105420000319202A2900E2017030E3003430E4003F
:105430000030E5000130E6008031D824A831322A5E
:1054400028005B08003A0319322A2900E2010830DB
:10545000E3003230E4000030E5000130E600803146
:10546000D824A8310D302900DB000030DC00DD013C
:105470003230DE00DF0188318520A8317008031941
:10548000462A98310020A8316400322A0D302900C4
:10549000DB000030DC000230DD003230DE00DF01F6
:1054A00088318520A83170080319D12A64002900A9
:1054B0000D30DB000030DC000230DD003230DE0079
:1054C000DF0188318520A83170080319D12A053001
:1054D000F20020003A08F000F10172080319742A62
:1054E000F035F10DFF3E6E2A01307002F2000030FF
:1054F000713BF3008030F000803073067002031DB2
:10550000842A720827004D02013003180030F00091
:1055100022004308F0050319962A2700CD0A4D08FA
:105520002900C50090311227A831C92A220043085A
:105530000130031D0030F4000530F20020003A086D
:10554000F000F10172080319A92AF035F10DFF3EB0
:10555000A32A01307002F2000030713BF30080306A
:10556000F000803073067002031DB92A720827000C
:105570004302013003180030F0007408F0050319ED
:10558000C92A2700C30A43082900C50088313527E6
:10559000A8318831B721A83198310020A8316400A2
:1055A000572A0D302900DB000030DC000130DD001F
:1055B0003230DE00DF0188318520A8312000390833
:1055C000003A0130031D0030F1007108F0050319A5
:1055D0002F2B64000D302900DB000030DC0001308F
:1055E000DD003230DE00DF0188318520A83170080F
:1055F00003192F2B27004D08003C01300318003001
:10560000F00022004308F00503190F2B2700CD03FB
:105610004D082900C50090311227A831272B220000
:1056200043080130031D0030F10027004308003C0F
:10563000013003180030F0007108F0050319272B22
:10564000C30343082900C50088313527A8318831B4
:10565000B721A83198310020A8316400EA2A080057
:105660000D302900DB000030DC00DD013230DE00CF
:10567000DF0188318520A83125005908F00403197D
:10568000B02B8031CC27A83120003B08F0008031BE
:10569000E527A83121003A08F4003B08F5003C0852
:1056A000F6003D08F70088310020A8318831DB245E
:1056B000A8317008A5007108A6000330FB0008306F
:1056C000FC007730FD00FD0B632BFC0B632BFB0B09
:1056D000632B640025005908003A0130031D003097
:1056E000F10020000D18762B0310772B0314F00126
:1056F0000318F00A7108F0050319842B9831382338
:10570000A8312000B901B02B22008C170C130630F1
:10571000FB001330FC00AD30FD00FD0B8D2BFC0BAE
:105720008D2BFB0B8D2B00000000A0314A23A831EC
:105730002000B9010D302900DB000030DC00DD0164
:105740003230DE00DF0188318520A831700803196E
:10575000AE2B98310020A83164009A2B2500D90186
:105760000D302900DB000030DC000230DD0032307B
:10577000DE00DF0188318520A83170080319DD2C97
:105780008031CC27A83120003B08F0008031E5278C
:10579000A83121003A08F4003B08F5003C08F60067
:1057A0003D08F70088310020A8318831DB24A8317A
:1057B0007008A5007108A60064003908003A031DAE
:1057C0000D2C0130B900270043082300D300270027
:1057D0004D082300D20026006E082200EF002700AB
:1057E000C301CD0101302600EE002900C501903132
:1057F0001227A831270043082900C5008831352722
:10580000A83126006E082900BD008831D627A831AE
:1058100024006F08C700EF01332C2000B9012300DA
:1058200053082700C300230052082700CD002200A0
:105830006F082600EE00230053082900C5008831B8
:105840003527A83127004D082900C50090311227BF
:10585000A83126006E082900BD008831D627A8315E
:1058600024004708EF0028005B08043A0130031DBC
:105870000030F1005B08053A0130031D0030F000F4
:105880007108F0040319842C200039080130031D2D
:105890000030F00024006F08F00503195D2C29008A
:1058A000E2017030E3006230E4000230E5000130D4
:1058B000E6008031D824A831832C24006F08013001
:1058C000031D0030F00020003908F0050319762C84
:1058D0002900E2017030E3006030E4000230E500AE
:1058E0000130E6008031D824A831832C2900E20160
:1058F0007030E3005E30E4000230E5000130E60085
:105900008031D824A831C82C28005B08003A03193C
:10591000C82C200039080130031D0030F00024009D
:105920006F08F0050319A22C2900E2010830E300FA
:105930006830E4000230E5000130E6008031D82410
:10594000A831C82C24006F080130031D0030F0007E
:1059500020003908F0050319BB2C2900E2010830AA
:10596000E3006630E4000230E5000130E6008031FB
:10597000D824A831C82C2900E2010830E3006430A3
:10598000E4000230E5000130E6008031D824A8317F
:105990000D302900DB000030DC000230DD00323049
:1059A000DE00DF0188318520A83170080319DD2C65
:1059B00098310020A8316400C82C0D302900DB008C
:1059C0000030DC000130DD003230DE00DF018831E4
:1059D0008520A83120003908003A0130031D00302D
:1059E000F1007108F0050319CF2D8031CC27A831C3
:1059F00020003B08F0008031E527A83121003A085B
:105A0000F4003B08F5003C08F6003D08F70088313B
:105A10000020A8318831DB24A8317008A500710866
:105A2000A600640024006F08003A031D1A2D0130FF
:105A3000EF001B2DEF0102302900BD0024006F088C
:105A40002900BE008831B827A83128005B08043A35
:105A50000130031D0030F1005B08053A0130031DE1
:105A60000030F0007108F0040319762D2000390889
:105A70000130031D0030F00024006F08F005031909
:105A80004F2D2900E2017030E3005C30E400023069
:105A9000E5000130E6008031D824A831752D2400BE
:105AA0006F080130031D0030F00020003908F005B8
:105AB0000319682D2900E2017030E3004C30E40046
:105AC0000230E5000130E6008031D824A831752D80
:105AD0002900E2017030E3004A30E4000230E500C2
