:10000000A031532EFF3F29002E08003A0319212862
:1000100021000D170630FD00FD0B0C2800008D1788
:100020000630FD00FD0B122800008D130630FD0088
:10003000FD0B182800000D130630FD00FD0B1E28D7
:100040000000080029002E08003A03195C28F1017D
:100050007108073C031C49282A00DB1B32282100B9
:100060008D13342821008D170630FD00FD0B362836
:1000700000000D170630FD00FD0B3C2800000D139D
:100080000630FD00FD0B422800002A00DB35F10A96
:10009000282821008D170630FD00FD0B4D2800009B
:1000A0000D170630FD00FD0B532800000D13063020
:1000B000FD00FD0B59280000080028006E082A00EA
:1000C0005707DA00032029002E082A00DB0022202F
:1000D0002A00DB0122202A005608B03EDB00222045
:1000E0002A005A080F3C031C79285A08D800D90165
:1000F0008A285A08F200F236F236F236F2367208E0
:10010000D9007208F000F035F035F035F0357008A0
:100110005A02D8005808DB0022202A005908103E55
:10012000DB002220032029002E082A00DB002220E9
:1001300040302A00DB002220080020002230FC0092
:10014000F801F901FA01FB01FC030319D22803109D
:10015000FB0CFA0CF90CF80CF30CF20CF10CF00C93
:10016000031CA428FC030319C4287408F8077508A5
:100170000318750FF90776080318760FFA07770842
:100180000318770FFB07A8287408F80775080318E9
:10019000750FF90776080318760FFA077708031822
:1001A000770FFB0708002000F801F9011030FC0070
:1001B000710DF80DF90D7408F8027508031C750F20
:1001C000F9020318EA287408F80775080318750F70
:1001D000F9070310F00DF10DFC0BD82808002000E2
:1001E0007008F100F0010830FC007108F40C0318ED
:1001F000FD28FC0BF628F101003403100229F40C51
:100200000318F107F10CF00CFC0BFF280800290083
:100210002E08003A03191F2921008D130630FD0016
:10022000FD0B102900000D170630FD00FD0B1629EF
:1002300000008D170630FD00FD0B1C290000080092
:10024000FA1FF21300300800FB14FB1F2E29FF30A9
:10025000F300F200F100F000FA0DF20CFF3008009C
:100260007B15FB1F3A290130F300F201F101F00187
:10027000FA0DF20CFF3008002A00CD012900B1016F
:100280000130B0002A004C08CD00CD35CD35CD353C
:10029000CD3529002F080319502908302A00CD0731
:1002A000290030080319572904302A00CD072900F6
:1002B000310803195E2902302A00CD0729002D08D4
:1002C000031964292A00CD0A032029002E082A00D8
:1002D000DB0022202A004D08DB0022200721063007
:1002E000FC003030FD00FD0B7329FC0B732900006E
:1002F00004302A00CD02032029002E082A00DB004A
:1003000022202A004D08DB00222007210630FC00B5
:100310003030FD00FD0B8A29FC0B8A290000080003
:10032000F201F101F001F801F301003008000320AF
:1003300029002E082A00DB00222040302A00DB00A2
:1003400022202A004D08D6004C08D7005D202A0044
:10035000D1015008510203185D2A51084E0784004C
:1003600000304F3D85000008003A031DB929D30134
:10037000C22951084E07840000304F3D85002030CF
:100380000002D300D2015208043C031C552A530832
:10039000F0000530F400EF202A005208F00700308A
:1003A000F13D323070078400AD30713D85000008AA
:1003B000D4004D08023A013003190030F1004D0815
:1003C000043A013003190030F0007008F1054D08BF
:1003D000063A013003190030F0007108F0050319E6
:1003E0001A2AD419F529D513F629D517D419FA29BB
:1003F0005513FB2955175419FF29D512002AD51674
:100400005419042A5512052A5516D418092AD5114B
:100410000A2AD515D4180E2A55110F2A5515541825
:10042000132AD510142AD5145418182A5510192A2D
:1004300055143A2A54191E2AD5131F2AD5175419B0
:10044000232A5513242A5517D418282AD512292AC5
:10045000D516D4182D2A55122E2A55165418322A7C
:10046000D511332AD5155418372A5511382A551560
:10047000D51055105508DB00222028006F08043ADB
:100480000130031D0030F1006F08053A0130031DF3
:100490000030F0007108F0040319522A2A005508B0
:1004A000DB0022202A00D20AC329DB0122202A00F5
:1004B000DB0122202A00D10AA9294D0AD6004C08C6
:1004C000D7005D202A00D101500851020318202BCB
:1004D00051084E07840000304F3D85000008003A67
:1004E000031D742AD3017D2A51084E078400003071
:1004F0004F3D850020300002D300D2015208043C59
:10050000031C182B5308F0000530F400EF202A00DC
:100510005208F0070030F13D323070078400AD30F2
:10052000713D85000008D4004D08023A01300319DE
:100530000030F1004D08043A013003190030F0009A
:100540007008F1054D08063A013003190030F0003B
:100550007108F0050319D52AD41BB02AD513B12A86
:10056000D517D41BB52A5513B62A5517541BBA2ACA
:10057000D512BB2AD516541BBF2A5512C02A5516B0
:10058000D41AC42AD511C52AD515D41AC92A551189
:10059000CA2A5515541ACE2AD510CF2AD514541A62
:1005A000D32A5510D42A5514FD2A541BD92AD51301
:1005B000DA2AD517541BDE2A5513DF2A5517D41A09
:1005C000E32AD512E42AD516D41AE82A5512E92AC4
:1005D0005516541AED2AD511EE2AD515541AF22AB9
:1005E0005511F32A5515D419F72AD510F82AD51420
:1005F000D419FC2A5510FD2A55145508DB00222079
:1006000028006F08043A0130031D0030F1006F0824
:10061000053A0130031D0030F0007108F0040319A1
:10062000152B2A005508DB0022202A00D20A7E2A38
:10063000DB0122202A00DB0122202A00D10A642AC1
:10064000072108001D30FD00FD0B242B0800A03001
:100650002A00CE000F30CF00D001D101A030F00031
:100660000F30F1000030F2000030F3004C08F400CD
:100670004D08F500F601F7019D2070082A00CE0014
:100680007108CF007208D0007308D10000307302E7
:10069000031D542B00307202031D542B02307102D3
:1006A000031D542BB23070020318572B862BB23027
:1006B000CE020230CF3B0030D03BD13B0530F000C2
:1006C00070080319692BD136D00CCF0CCE0CFF3E2D
:1006D000612B4E08F0004F08F1005008F20051085D
:1006E000F3000130CE020030CF3BD03BD13B70084D
:1006F0007104720473040319862B000000000000CB
:1007000000000000000000000000692B08002A0023
:10071000D001053050020318972B50084E07860071
:1007200000304F3D870020308100D00A892B5008CF
:100730004E07860000304F3D87008101D0035008EE
:100740004E07D10000304F3DD2000A30F400F501D1
:100750004C08F0004D08F100D3207808F00079082B
:10076000F1003030F0072A00510886005208870057
:10077000700881000A30F400F5014C08F0004D08C3
:10078000F100D32070082A00CC007108CD000030A1
:100790007106031DCD2B00307006031DD02BD22B0C
:1007A000D0039F2B0800833021009D052A004208BA
:1007B000F000F035F035700821009D0422239D14CF
:1007C0009D1CE32BE02B1C08F100F0011B08F0043A
:1007D0000030F10408007408F8027508031C750F56
:1007E000F9027608031C760FFA027708031C770FCC
:1007F000FB02F30D0730FC00730DF80DF90DFA0D37
:10080000FB0D7408731C122CF8027508031C750F7D
:10081000F9027608031C760FFA027708031C770F9B
:10082000FB021F2CF80775080318750FF9077608E7
:100830000318760FFA0777080318770FFB07F30DF5
:10084000FC0BFC2B720DF80DF90DFA0DFB0D740865
:10085000731C382CF8027508031C750FF902760812
:10086000031C760FFA027708031C770FFB02452C56
:10087000F80775080318750FF90776080318760F3F
:10088000FA0777080318770FFB07F20D0730FC0013
:10089000720DF80DF90DFA0DFB0D7408721C5E2C2B
:1008A000F8027508031C750FF9027608031C760F11
:1008B000FA027708031C770FFB026B2CF807750808
:1008C0000318750FF90776080318760FFA077708EB
:1008D0000318770FFB07F20DFC0B482C710DF80D78
:1008E000F90DFA0DFB0D7408721C842CF8027508C2
:1008F000031C750FF9027608031C760FFA027708BD
:10090000031C770FFB02912CF80775080318750F6D
:10091000F90776080318760FFA0777080318770F98
:10092000FB07F10D0730FC00710DF80DF90DFA0D04
:10093000FB0D7408711CAA2CF8027508031C750FB6
:10094000F9027608031C760FFA027708031C770F6A
:10095000FB02B72CF80775080318750FF90776081E
:100960000318760FFA0777080318770FFB07F10DC6
:10097000FC0B942C700DF80DF90DFA0DFB0D74089D
:10098000711CD02CF8027508031C750FF90276084B
:10099000031C760FFA027708031C770FFB02DD2C8D
:1009A000F80775080318750FF90776080318760F0E
:1009B000FA0777080318770FFB07F00D0730FC00E4
:1009C000700DF80DF90DFA0DFB0D7408701CF62C66
:1009D000F8027508031C750FF9027608031C760FE0
:1009E000FA027708031C770FFB02032DF80775083E
:1009F0000318750FF90776080318760FFA077708BA
:100A00000318770FFB07F00DFC0BE02C7018162D68
:100A10007408F80775080318750FF90776080318A6
:100A2000760FFA0777080318770FFB0708007C1882
:100A30004D2DFC181E2D7C196C2D172DA10172084F
:100A4000031D3E2D7108F2007008F1007808F000D7
:100A5000F801A1157208031D3E2D7108F2007008FF
:100A6000F100F001A11121167208031D3E2D71083D
:100A7000F200F101A11572080319602D2108F3029B
:100A8000031D031C642D0310F21B4D2DF80DF00DFA
:100A9000F10DF20DF30B442D642D7B1B701C682DA2
:100AA000F81F682DF00A0319F10A0319F20A031D51
:100AB000682DF20CF10CF00CF30A03196C2D682D63
:100AC0000130FC0090216F2D0230FC0030216F2D91
:100AD0000430FC0020216F2D0830FC002421000090
:100AE00008002A004218772D22008E13792D22004B
:100AF0008E172A00C2187F2D22008E11812D220010
:100B00008E152A004219872D22000E13892D2200EE
:100B10000E172A00C2198F2D22000E11912D2200CE
:100B20000E152A00421A972D22008E12992D2200AE
:100B30008E162A00C21A9F2D22008E10A12D22008F
:100B40008E142A00421BA72D22000E12A92D22006E
:100B50000E16290032082A00CC00290033082A008A
:100B6000CD002723080028006F08043A0130031D38
:100B70000030F1006F08053A0130031D0030F0002D
:100B80007108F0040319D12D2A004308CC00420853
:100B9000CD004408CE004508CF004608D00097217C
:100BA0002B2E28006F08023A0130031D0030F1009F
:100BB0006F08033A0130031D0030F0007108F004A3
:100BC0000319F72D0730F0002A004308F400EF2046
:100BD000043070072A00CC004208CD00CD3544080F
:100BE000CE004508CF004608D00097212B2E2900C3
:100BF000AD012A004208F000F035F0357008083EDB
:100C0000CC003C212A004308CC003C2101302900C3
:100C1000AD002A00C7014608470203182B2E4708DB
:100C2000440784000030453D85000008F10071084C
:100C3000CC00CC36CC36CC36CC363C212A0047080A
:100C4000440784000030453D85000008CC003C216D
:100C50002A00C70A0B2E08002A00C801C901420851
:100C6000CA004308CB0080304306F0008030700299
:100C7000031D3C2E0030420203184A2E0130C800EA
:100C80000030C9004208003CCA004308031C013E72
:100C9000CB01CB024A08CC004B08CD004408CE0063
:100CA0004508CF0087230630C6000030C70047083C
:100CB000003C031D5D2E4608003C0318782E4608B4
:100CC000440786004708453D870001304602F00092
:100CD0000030473BF1007008440784007108453D2F
:100CE0008500000881000130C6020030C73B572E46
:100CF00044088600450887002030810048084904E0
:100D000003199E2EC601C701460844078400470800
:100D1000453D85000008203A031D922EC60A03199E
:100D2000C70A842E0130C6020030C73B460844077C
:100D300086004708453D87002D3081000800FB15DF
:100D4000FF3008007B14FB1FAD2EF201FA1FFF30AD
:100D5000F200F100F000FA0DF20CFF300800240060
:100D60006F08003A031DED2E2A004218BA2E220009
:100D70008D11BC2E22008D152A00C218C22E220011
:100D80000C11C42E22000C152A004219CA2E220072
:100D90000D12CC2E22000D162A00C219D22E2200CE
:100DA0008C11D42E22008C152A00421ADA2E220031
:100DB0008D12DC2E22008D162A00C21AE22E22008D
:100DC0008C12E42E22008C162A00421BEA2E2200EE
:100DD0000C12EC2E22000C16252F2A004218F32E9E
:100DE00022008D15F52E22008D112A00C218FB2E2F
:100DF00022000C15FD2E22000C112A004219032F8F
:100E000022000D16052F22000D122A00C2190B2FE9
:100E100022008C150D2F22008C112A00421A132F4C
:100E200022008D16152F22008D122A00C21A1B2FA8
:100E300022008C161D2F22008C122A00421B232F09
:100E400022000C16252F22000C12290032082A003D
:100E5000CC00290033082A00CD00272308002000F9
:100E6000FB01FA01F9018030F800F10CF00C031CD1
:100E7000422F7408F90775080318750FFA0703184D
:100E8000FB0A0310F01F4A2F7408FA0775080318AD
:100E9000750FFB07FB0CFA0CF90CF80C031C352F33
:100EA0007B08F3007A08F2007908F1007808F00076
:100EB0000800A1017208031D6E2F7108F20070086E
:100EC000F100F001A1157208031D6E2F7108F200E8
:100ED000F101A1112116720803197C2F2108F302D8
:100EE000031D031C802F0310F21B842FF00DF10D46
:100EF000F20DF30B742F802F0130FC009021872F0F
:100F00000230FC003021872F0430FC002021080033
:100F1000FB09FA09F909F809F80A0319F90A03198A
:100F2000FA0A0319FB0A08002A004008230091006E
:100F300092012A00410823009300151395131515FB
:100F40000B08F0008B1355309600AA3096009514CC
:100F5000F01BAC2F8B13AD2F8B171511951CB12FD8
:100F6000AE2F080020007008F8007108F000720829
:100F7000F1007308F200F301FB01FC019E30F30065
:100F8000FA01F21FCF2FF809F009F109F209F80A66
:100F90000319F00A0319F10A0319F20AFA170230C9
:100FA000FC00172508002800AC012700E8012A00F2
:100FB000C201AF26270068082A00C2007125290057
:100FC00032082A00CC00290033082A00CD0027234C
:100FD00008000330FC009530FD00FD0BED2FFC0BED
:100FE000ED2F080029006B08230091009201951352
:100FF000151315141308F0000800013400340034F0
:101000002A004008F0004108F1000330F4000030ED
:10101000F50080312F27883170082A00C000710840
:10102000C1008030F200803071067202031D1A2860
:101030007008503C031C1F28F001F101F228803099
:10104000F000803041067002031D28284008AB3CA8
:10105000031C2F28F430C0070030C13DEE2880303B
:10106000013AF000803041067002031D3928400823
:10107000483C031C4028FE30C0070030C13DEE282C
:101080008030023AF000803041067002031D4A2889
:101090004008463C031C51281830C0070130C13DB0
:1010A000EE288030033AF000803041067002031DC4
:1010B0005B284008343C031C62282930C0070130FB
:1010C000C13DEE288030043AF000803041067002C5
:1010D000031D6C2840084C3C031C73283630C007A5
:1010E0000130C13DEE288030083AF00080304106E2
:1010F0007002031D7D284008853C031C8428AE3007
:10110000C0070130C13DEE2880300C3AF00080303D
:1011100041067002031D8E284008FA3C031C9528E6
:10112000E430C0070130C13DEE288030123AF000B3
:10113000803041067002031D9F2840080F3C031CAD
:10114000A6281230C0070230C13DEE288030163A82
:10115000F000803041067002031DB0284008E63CD4
:10116000031CB7288830C0070230C13DEE2880300C
:101170001B3AF000803041067002031DC128400870
:10118000EA3C031CC828E730C0070230C13DEE2806
:101190008030213AF000803041067002031DD228D1
:1011A0004008363C031CD9282030C0070330C13D1D
:1011B000EE288030293AF000803041067002031D8D
:1011C000E3284008043C031CEA283430C0070330FD
:1011D000C13DEE285230C0070330C13D4008F00049
:1011E0004108F10008002000FB01730803192F29B2
:1011F0007208FA00F2178E30F302F31F3229F30956
:10120000F30A08307302031C1529F300F10D72086C
:10121000F100F20108307302031C1529F300F10DEF
:10122000F1017308031D03101D29730803191D29FB
:101230000310F20CF10CF30B18297B1B711C2729EE
:10124000031C2729F10A0319F20AF21B3E29FA1F8F
:101250004129F209F109F10A0319F20A4129F201BF
:10126000F10141297B14FB1F4429F201FA1F442993
:10127000FF30F200F100FA0DF20C44290130FC00BD
:1012800046290030FC004629FF30FC00FC08031909
:101290004C298031A22688317108F0007208F100D3
:1012A0000800813022009700171B5729542901306C
:1012B0002A00C2008031D323883170082A00C00080
:1012C0007108C1008030033AF2008030710672026A
:1012D000031D6C297008E83C031C73294008F000CA
:1012E0004108F100B429823022009700171B7929A8
:1012F000762901302A00C2008031D323883170085A
:101300002A00C0007108C1008030033AF20080302A
:1013100071067202031D8E297008E83C031C972990
:101320004008F0004108F100F035F10DB429833098
:1013300022009700171B9D299A2901302A00C2001C
:101340008031D323883170082A00C0007108C100A1
:101350007008F2007108F300F235F30DF235F30D69
:101360007208F0007308F100080081302200970035
:10137000171BBB29B8292A00C2018031D323883129
:1013800070082A00C0007108C1008030033AF200E2
:10139000803071067202031DCF297008E83C031CDF
:1013A000D6294008F0004108F100152A82302200B9
:1013B0009700171BDC29D9292A00C2018031D323C9
:1013C000883170082A00C0007108C1008030033ADB
:1013D000F200803071067202031DF0297008E83CAB
:1013E000031CF9294008F0004108F100F035F10D27
:1013F000152A833022009700171BFF29FC292A0099
:10140000C2018031D323883170082A00C0007108DE
:10141000C1007008F2007108F300F235F30DF235E7
:10142000F30D7208F0007308F10008007408003A28
:10143000031D2F2A7508003A031D2F2A7608003A4B
:10144000031D2F2A7708003A031D2F2AFF30F000D2
:10145000FF30F100FF30F2007F30F300CB2A200094
:10146000FC01F71BFC0AFD01FB01FA01F901F8017F
:1014700073087204710470040319C42A7308770690
:10148000A000A01BFD09F71F502AF409F509F60971
:10149000F709F40A0319F50A0319F60A0319F70AFA
:1014A000F31F5D2AF009F109F209F309F00A0319A3
:1014B000F10A0319F20A0319F30A73087704A0006A
:1014C000A01B802A8031EB238831FC1B9D2AFD1F45
:1014D000C42AF009F109F209F309F00A0319F10A23
:1014E0000319F20A0319F30AF809F909FA09FB09C1
:1014F000F80A0319F90A0319FA0A0319FB0AC42A9C
:10150000F71F972AF31B912A7308FB007208FA0051
:101510007108F9007008F800F301F201F101F0011F
:10152000672AF301F201F101F001F00A0034F30936
:10153000F209F109F009FC17622AF80A0319F90AFD
:101540000319FA0A0319FB0A74087802031D672AB3
:1015500075087902031D672A76087A02031D672A37
:1015600077087B02031D672AFB01FA01F901F801E4
:10157000F00A0319F10A0319F20A0319F30AF31F17
:10158000672AA0012016FF34A0017C1CCA2A8031E2
:1015900088278831003E0800640028002C082700B6
:1015A0006606013003190030F10025006F0827009E
:1015B0006706013003190030F0007108F0040319C8
:1015C000FD2B28002C082700E6002900C001C101DE
:1015D00028002C1CF02A29003E08C0073F08C13D06
:1015E0002800AC1CF82A29003608C0073708C13D7E
:1015F00028002C1D002B29003408C0073508C13DE8
:101600002800AC1D082B29003808C0073908C13D47
:1016100028002C1E102B29003C08C0073D08C13DA6
:101620002800AC1E182B29003A08C0073B08C13D12
:1016300028002C1F202B29005908C0075A08C13D3B
:10164000290040082A00C200290041082A00C300DE
:10165000C930C4000430C50080312C2688312900EF
:101660004B08203A0319372B4B08C200392B303076
:10167000C2002E30C3004C08203A0319422B4C08FC
:10168000C400442B3030C4004D08203A03194B2BC2
:101690004D08C5004D2B3030C5005208043A0130CA
:1016A000031D0030F1005208053A0130031D0030DF
:1016B000F0007108F00403198C2B25006F08013A23
:1016C000031D662B04302A00C000692B2A00063057
:1016D000C00025006F082700670603197D2B2A002C
:1016E0004008C2001030C3005830C4000430C500A8
:1016F0000830C6008031B32588312A004008C20076
:101700002830C300C230C4000430C5000430C60015
:101710008031B3258831FD2B29005208023A01306F
:10172000031D0030F1005208033A0130031D003060
:10173000F0007108F0040319CB2B25006F08013A63
:10174000031DA52B2A00C001A82B2A000130C000D0
:1017500025006F08270067060319BC2B2A004008E4
:10176000C2000930C3004630C4000430C500083050
:10177000C6008031B32588312A004008C2000B30F2
:10178000C300C230C4000430C5000430C60080313C
:10179000B3258831FD2B29005208003A0319FD2B8F
:1017A00025006F08013A031DD82B2A00C001DB2B4E
:1017B0002A000130C00025006F08270067060319C2
:1017C000EF2B2A004008C2000930C300A030C4003B
:1017D0000430C5000730C6008031B32588312A00A7
:1017E0004008C2000B30C300C230C4000430C50042
:1017F0000430C6008031B3258831270068082800EE
:101800004506013003190030F10025006F0827005C
:101810006706013003190030F0007108F004031965
:10182000172D68082800C5002900C001C101270044
:10183000681C1F2C29006308C0076408C13D2700ED
:10184000E81C272C29006108C0076208C13D270059
:10185000681D2F2C29006708C0076808C13D2700B4
:10186000E81D372C29006508C0076608C13D270020
:10187000681E3F2C29005D08C0075E08C13D270097
:10188000E81E472C29005B08C0075C08C13D270003
:10189000681F4F2C29005F08C0076008C13D290060
:1018A00040082A00C200290041082A00C300C930AC
:1018B000C4000430C50080312C26883129004B0833
:1018C000C2004C08C3004D08C4004E08C5005208B1
:1018D000043A0130031D0030F1005208053A01308E
:1018E000031D0030F0007108F0040319A62C250038
:1018F0006F08013A031D802C06302A00C000832C9B
:101900002A000430C00025006F082700670603196D
:10191000972C2A004008C2001030C3006130C40078
:101920000430C5000830C6008031B32588312A0054
:101930004008C2002830C300C230C4000430C500D3
:101940000430C6008031B3258831172D2900520894
:10195000023A0130031D0030F1005208033A013011
:10196000031D0030F0007108F0040319E52C250078
:101970006F08013A031DC02C01302A00C000C22CA0
:101980002A00C00125006F08270067060319D62C1E
:101990002A004008C2000930C3004F30C4000430A0
:1019A000C5000830C6008031B32588312A004008C0
:1019B000C2000B30C300C230C4000430C500043084
:1019C000C6008031B3258831172D29005208003A0E
:1019D0000319172D25006F08013A031DF32C013060
:1019E0002A00C000F52C2A00C00125006F0827003E
:1019F00067060319092D2A004008C2000930C300F8
:101A00003730C4000430C5000730C6008031B3252C
:101A100088312A004008C2000B30C300C230C40025
:101A20000430C5000430C6008031B325883164001D
:101A300025006F082700E70028003608003A031D3C
:101A4000B22D29005208043A0130031D0030F10084
:101A50005208053A0130031D0030F0007108F0040F
:101A60000319702D28003F080130031D0030F000DD
:101A70004008F00503194A2D2A00C2017030C30046
:101A80003030C4000430C5000130C6008031B325B9
:101A900088316F2D280040080130031D0030F00010
:101AA0003F08F0050319622D2A00C2017030C300FF
:101AB0002E30C4000430C5000130C6008031B3258B
:101AC00088316F2D2A00C2017030C3003430C40049
:101AD0000430C5000130C6008031B3258831B22DF5
:101AE00029005208003A0319B22D28003F0801309E
:101AF000031D0030F0004008F00503198D2D2A0069
:101B0000C2010830C3003230C4000430C5000130C7
:101B1000C6008031B3258831B22D2800400801303D
:101B2000031D0030F0003F08F0050319A52D2A0021
:101B3000C2010830C3004330C4000430C500013086
:101B4000C6008031B3258831B22D2A00C201083089
:101B5000C3004130C4000430C5000130C6008031EC
:101B6000B3258831640008007408003A031DCD2DA8
:101B70007508003A031DCD2D7608003A031DCD2DC2
:101B80007708003A031DCD2DFF30F000FF30F10043
:101B90007F30F200FF30F3006F2E2000770803192A
:101BA0005B2E73080319602E720876068039FA00DE
:101BB000F217F617A1017208F8007108FC0070080E
:101BC000FD007408FD027508031C750FFC02760801
:101BD000031C760FF802F801FC01FD01031CF72D30
:101BE0000310F20CF10CF00CF80C0130A100770896
:101BF000F302031C012E7E302107F3070318652E24
:101C0000062E7E302107F307031C6A2E1830FA07D0
:101C1000FD0DFC0DF80DF00DF10DF20DA10D740888
:101C2000F0027508031C750FF1027608031C760F8D
:101C3000F202760DA104211C1F2E7D142A2E740899
:101C4000F00775080318750FF10776080318760A70
:101C5000F2077D10FA031F307A05031D082E7B1B47
:101C60007D1C512E0310F00DF10DF20DA10D740825
:101C7000F0027508031C750FF1027608031C760F3D
:101C8000F202760D21040139FD070318FC0A03193D
:101C9000F80A031D512EF80CFC0CFD0CF30A031975
:101CA000652EFA1FF8137808F2007C08F1007D0811
:101CB000F00000306E2E013080319F2688316E2E6C
:101CC00002308031902188316E2E04308031242101
:101CD00088316E2E083080313021883100000800B4
:101CE0002000FB017308031D77080319C62E720834
:101CF0007606FA007708F3077E30031C832EF30282
:101D00000318CB2E862EF302031CD02E7208F80087
:101D10007108FC007008FD00F817F6170310F201B7
:101D2000F101F0011830A1007D1CA02E7408F0070D
:101D300075080318750FF10776080318760FF20778
:101D4000F20CF10CF00CF80CFC0CFD0C0310A10BC8
:101D5000942EF21BB02EF80DF00DF10DF20DF303E1
:101D60007B1B701CC22EF81FC22EF00A0319F10A49
:101D70000319F20A031DC22EF20CF10CF00CF30A47
:101D80000319CB2EFA1FF2130030D42E013080310C
:101D900090218831D42E0230803124218831D42EF4
:101DA00004308031302188310000080020007008A4
:101DB000F8007108F000F101F201F301FB01FC01F0
:101DC0009630F300FA01F01FEB2EF809F009F80A3B
:101DD0000319F00AFA177008F1007808F000F8010A
:101DE000F2018031592788310800200072087606F8
:101DF000A100F801F90173087702031C172F770877
:101E0000FD007308F7007D08F3007608FD007208F6
:101E1000F6007D08F2007508FD007108F5007D08E8
:101E2000F1007408FD007008F4007D08F0007708E8
:101E30000319982F7208FA00F217F6177708730241
:101E4000F70003194A2F08307702031C402FF700D0
:101E50007408F9007508F4007608F500F6010830FA
:101E60007702031C402FF7007408F9007508F4008E
:101E7000F50108307702031C402F7A08F200982FF2
:101E8000770803194A2F0310F60CF50CF40CF90C23
:101E9000F70B432FA11F572FF909F409F509F6098C
:101EA000F90A0319F40A0319F50A0319F60A79085D
:101EB000F80774080318740FF00775080318750FF6
:101EC000F10776080318760FF207A11B702F031C89
:101ED000802FF20CF10CF00CF80CF30F802F922FE6
:101EE0000318862FF809F009F109F209F80A031915
:101EF000F00A0319F10A0319F20A8030FA068C2F4E
:101F00000130FC008031172588319A2F0230FC0007
:101F10008031172588319A2F0430FC0080315927F1
:101F200088319A2F0830FC008031242188319A2F83
:101F30000030FC0000000800710DF80DF90D740868
:101F4000F8027508031C750FF902F00DF10D0F3042
:101F5000FC00710DF80DF90D7408701CB52FF80216
:101F60007508031C750FF902BA2FF80775080318D6
:101F7000750FF907F00DF10DFC0BA92F7018C62F86
:101F80007408F80775080318750FF90700000800B2
:101F90002A002918CE2F22000E10D02F22000E1456
:101FA000290032082A00CC00290033082A00CD007D
:101FB00080312723883108008031032088312900AF
:101FC0002E082A00DB0080312220883180302A0050
:101FD000DB0080312220883129006D082A00DB00D7
:101FE0008031222088318031072188310800120099
:101FF0001E00F003031DF72FF103031DF72F080048
:1020000064008831512190317008B4007108B50026
:102010000030B51BFF30B600B7008831B5219031D4
:102020007008B8007108B9000030B91BFF30BA0061
:10203000BB0027006D08013A031D33282A0034082D
:10204000C0003508C1008831002090318831D62683
:10205000903170082A00BC007108BD007208BE00F3
:102060007308BF0048282A003408F0003508F10042
:102070003608F2003708F3008031B227903170083B
:102080002A00BC007108BD007208BE007308BF00C2
:1020900080303B06F000803037067002031D5A285E
:1020A00036083A02031D5A2835083902031D5A28FA
:1020B00034083802031C6328E730B4000330B5004D
:1020C000B601B701AD2838083407F0003908353DAE
:1020D000F1003A08363DF2003B08373DF30064302A
:1020E000F400F501F601F70180319D2090312A00BE
:1020F0003408F4003508F5003608F6003708F70014
:102100003808F4023908F53B3A08F63B3B08F73B40
:1021100088311622903170082A00B4007108B50089
:102120007208B6007308B7008030F4008030730680
:102130007402031DA5287208003C031DA528710820
:10214000033C031DA5287008E73C0318AD28E730C1
:10215000B4000330B500B601B7013C08F0003D08FB
:10216000F1003E08F2003F08F3000030F4000030B8
:10217000F5002030F6008230F7008831702690316B
:102180000030F4000030F5007A30F6008830F700B7
:102190008831B425903170082A00BC007108BD0058
:1021A0007208BE007308BF00F430F400FD30F50083
:1021B0003430F6007F30F7008831B4259031700854
:1021C0002A00BC007108BD007208BE007308BF0081
:1021D0007008F4007108F5007208F6007308F70043
:1021E0008831702690310030F4000030F500203046
:1021F000F6008130F7008831B425903170082A004C
:10220000BC007108BD007208BE007308BF0000303A
:10221000F4000030F5000030F6007E30F700883121
:10222000F526903170082A00BC007108BD007208C4
:10223000BE007308BF008831F32090317008290078
:10224000D3007108D40080307106F2008030720231
:10225000031D2C290A307002031833290130D000E5
:102260000030D100552980302A003706F000803038
:102270007002031D452900303602031D4529003038
:102280003502031D45296430340203184D29E73017
:102290002900D0000330D10055292A003408290034
:1022A000D0002A0035082900D10008008031D3274A
:1022B0009031FF30C000C101803194279031FE3051
:1022C0002A00C000C101803194279031FD302A00DE
:1022D000C000C1018031942790318831CC229031E7
:1022E00029005208003A031D782922000D178D1786
:1022F00022008C130C172900D001D101D301D40185
:102300002200E201E30129005208043A0130031DD2
:102310000030F1005208053A0130031D0030F00092
:102320007108F0040319CE2902302A00C2001030CF
:10233000C3005930C4000130C5000830C6008031E8
:10234000B325903164000D30FB002D30FC00D730F8
:10235000FD00FD0BA929FC0BA929FB0BA9290000F5
:10236000000002302A00C2001030C3005030C40008
:102370000130C5000830C6008031B32590312A00F5
:10238000C2011030C3004730C4000130C50008301E
:10239000C6008031B32590316400092A2900520813
:1023A000003A0319092A01302A00C200C3013C3057
:1023B000C4000130C5000830C6008031B32590311B
:1023C00064000D30FB002D30FC00D730FD00FD0B0C
:1023D000E729FC0BE729FB0BE7290000000001308F
:1023E0002A00C200C3013330C4000130C5000830E8
:1023F000C6008031B32590312A00C201C3012A30C2
:10240000C4000130C5000830C6008031B3259031CA
:10241000640008002A00BA013608F1000130F0001B
:1024200071080319162AF035FF3E112A7008B90009
:10243000340884003508850070080005F100710833
:102440000130031D0030F0003808F0060319462A59
:102450003708003C0318342A8031E9279031803155
:10246000E9279031B703282A34088400350885000D
:1024700039080005F10071080130031D0030F0003B
:102480003808F0060319462AFF30BA003A08F0006F
:1024900008007408003A031D562A7508003A031D07
:1024A000562AFF30F0007F30F100B02A2000FD01F5
:1024B000F901F801710870040319003471087506F8
:1024C000FA00FA1BFD09FB01F51F6B2AF409F50957
:1024D000F40A0319F50AF11F722AF009F109F00A4A
:1024E0000319F10A71087504FA00FA1B872A88316A
:1024F0009C2790317B189C2AFD1F0034F009F109BC
:10250000F00A0319F10AF809F909F80A0319F90A96
:102510000034F51F982AF11B942A7108F9007008FD
:10252000F800F101F0017C2AF101F001F00A003419
:10253000F109F009FB0A792AF80A0319F90A740863
:102540007802031D7C2A75087902031D7C2AF90193
:10255000F801F00A0319F10AF11F7C2A0000FF3488
:1025600008000020290080305406F2008030580610
:102570007202031DBD2A57085302013003180030B0
:10258000F20080305606F100803054067102031DBF
:10259000CB2A53085502013003180030F100803077
:1025A000F000803056067002031DD82A5508003C02
:1025B000013003180030F0007108F0057208F004D3
:1025C0000319102B640000200D302A00B4000030E5
:1025D000B500B6010530B7000130B8000A22700816
:1025E0000319F52A01302500EE0025006E08013A96
:1025F0000130031D00302A00B3000D30B40000305C
:10260000B500B6010530B700B8010A223308F0055D
:1026100003190F2B56212900D001D101102BB22A0A
:10262000080003302A00B2002700E8012A00C20196
:1026300080317125903132082700E900B122003045
:1026400029005106031D262B00305006031D292B9F
:10265000D52B1430F4000030F5005008F00051087C
:10266000F10049227008290050072A00B0007108C3
:102670002900513D2A00B1003208AF002A002F087E
:102680001F3C031CCE2B2F08F00028002A08F40062
:102690008031EF20903170082A00C200803171250E
:1026A0009031B122003029005106031D592B003012
:1026B0005006031D5C2BD52B80305106F000803076
:1026C0002A0031067002031D682B300829005002D1
:1026D0000318CC2B29001430F4000030F50050080A
:1026E000F0005108F10049227008290050072A0023
:1026F000B00071082900513D2A00B1002F08F000F8
:1027000028002A08F4008031EF209031700827005B
:10271000E8002A0032082700E9008030290051062D
:10272000F00080307002031D972B783050020318A0
:102730009A2BCE2B2A0032082F07F2007208AF0026
:1027400027006F08003A0130031D0030F1007208C5
:10275000093A0130031D0030F0007108F00503193B
:10276000B52B08302A00AF00CB2B27006F08003AAA
:102770000130031D0030F1002A002F08113A01300A
:10278000031D0030F0007108F0050319CB2B103049
:10279000AF000430B200CD2BCE2B3E2B27006808B3
:1027A0002A00C20080317125903108002700690895
:1027B000F00028002A08F4008031EF2090317008E2
:1027C0002A00A900700827006807F40074082A008E
:1027D000AB000530F20028002A08F000F101720871
:1027E0000319F62BF035F10DFF3EF02B013070028E
:1027F000F2000030713BF30080307306F00080304F
:102800007002031D052C740872020318132C053086
:10281000F0002A082A00AB0070080319122CAB350F
:10282000FF3E0D2CAB03270068082A00290203187D
:102830001F2C2908270068022A00AC00202CAC01BC
:102840002C082700E8002A002C08C20080317125DE
:102850009031B122003029005106031D312C003087
:102860005006031D342CBC2C50082A00AD00290052
:1028700051082A00AE0028002A082A002C07AA00C6
:102880002A082B02031CB52C2A08C20080317125AE
:102890009031B122003029005106031D512C003027
:1028A0005006031D542CBC2C80305106F0008030A3
:1028B0002A002E067002031D602C2D0829005002EC
:1028C000031C6D2C3430FC00F130FD00FD0B662C38
:1028D000FC0B662C00000000B1228030290051065C
:1028E000F00080302A002E067002031D7A2C2D087D
:1028F00029005002031C872C3430FC00F130FD000D
:10290000FD0B802CFC0B802C00000000B1228030DD
:1029100029005106F00080302A002E067002031DA7
:10292000942C2D08290050020318AF2C29005008C0
:102930002A00AD00290051082A00AE002A0827000D
:10294000E800803029005106F00080307002031D3D
:10295000AB2C783050020318AE2CB52CB02CB52C13
:1029600028002A082A00AA07402C270068082A0005
:10297000C200803171259031080028002B08F0003A
:102980002D08F4008031EF20903170082A00A90052
:10299000700828002C07F40074082A00AB000530EA
:1029A000F20028002D08F000F10172080319DC2C58
:1029B000F035F10DFF3ED62C01307002F2000030F0
:1029C000713BF30080307306F00080307002031D0D
:1029D000EB2C740872020318F92C0530F0002D0856
:1029E0002A00AB0070080319F82CAB35FF3EF32C1E
:1029F000AB0328002C082A0029020318052D2908FA
:102A000028002C022A00AC00062DAC012C0828005E
:102A1000AC002A002C08C2008031AF269031B122D0
:102A2000003029005106031D172D00305006031DEC
:102A30001A2DA22D50082A00AD00290051082A00A5
:102A4000AE0028002D082A002C07AA002A082B0215
:102A5000031C9B2D2A08C2008031AF269031B12281
:102A6000003029005106031D372D00305006031D8C
:102A70003A2DA22D80305106F00080302A002E061B
:102A80007002031D462D2D0829005002031C532DF2
:102A90003430FC00F130FD00FD0B4C2DFC0B4C2DB7
:102AA00000000000B122803029005106F000803083
:102AB0002A002E067002031D602D2D0829005002E9
:102AC000031C6D2D3430FC00F130FD00FD0B662D34
:102AD000FC0B662D00000000B12280302900510659
:102AE000F00080302A002E067002031D7A2D2D087A
:102AF000290050020318952D290050082A00AD0026
:102B0000290051082A00AE002A082800AC008030B5
:102B100029005106F00080307002031D912D78309D
:102B200050020318942D9B2D962D9B2D28002D08C7
:102B30002A00AA07262D28002C082A00C20080316E
:102B4000AF269031080003302A00AE00AA012E08FB
:102B50002800AB0003302A00AB001430F400003032
:102B6000F50029005008F0005108F10049227008D2
:102B7000290050072A00AC0071082900513D2A00A5
:102B8000AD002E08A9002A0029081F3C031C5B2E5B
:102B90002908F00028002D08F4008031EF20903142
:102BA00070082A00C2008031AF2690311123B12273
:102BB000003029005106031DDF2D00305006031D93
:102BC000E22D7A2E80305106F00080302A002D064A
:102BD0007002031DEE2D2C08290050020318592EF7
:102BE00029001430F4000030F5005008F0005108BE
:102BF000F10049227008290050072A00AC00710832
:102C00002900513D2A00AD002908F00028002D08B8
:102C1000F4008031EF20903170082800AC002700CC
:102C200068082A00AA002E082800AB0027006908BF
:102C30002A00AB00803029005106F000803070027D
:102C4000031D242E783050020318272E5B2E2A00F5
:102C50002E082907F2007208A90027006E08003A22
:102C60000130031D0030F1007208093A0130031DE4
:102C70000030F0007108F0050319422E08302A00D8
:102C8000A900582E27006E08003A0130031D0030BD
:102C9000F1002A002908113A0130031D0030F0002C
:102CA0007108F0050319582E1030A9000430AE0049
:102CB0005A2E5B2EC32D2A002A082700E800280080
:102CC0002C082A00C2008031AF2690312700680806
:102CD0002A00C2008031712590312B082700E900BD
:102CE0003430FC00F130FD00FD0B742EFC0B742E13
:102CF00000000000080064002A00240827006B067A
:102D0000031D852E6A082A00230603191E2F2A0098
:102D100023082700EA002A0024082700EB000030DF
:102D20002A002406031D962E01302306031DCF2EF4
:102D300029005208043A0130031D0030F100520806
:102D4000053A0130031D0030F0007108F00403194A
:102D5000B82E02302A00C2004030C3002530C40023
:102D60000430C5000430C6008031B3259031CB2E2D
:102D700029005208003A0319CB2E01302A00C20064
:102D80000430C3002030C4000430C5000430C60045
:102D90008031B32590312700EA01EB011E2F2A0074
:102DA00023082700EA002A0024082700EB002A0055
:102DB0002308C2002408C300C930C4000430C50081
:102DC00080312C26903129004C08C2002E30C300DF
:102DD0004D08C4004E08C5005208043A0130031DD6
:102DE0000030F1005208053A0130031D0030F000B8
:102DF0007108F00403190B2F02302A00C200403082
:102E0000C300C230C4000430C5000430C6008031A5
:102E1000B32590311E2F29005208003A03191E2FA6
:102E200001302A00C2000430C300C230C4000430A4
:102E3000C5000430C6008031B3259031640008001D
:102E40000D302A00B4000030B500B6013230B700B2
:102E5000B8010A227008A3000D30B4000030B5009C
:102E60000130B6003230B700B8010A227008A3045E
:102E70000D30B4000030B5000230B6003230B7007B
:102E8000B8010A222308F0040319492F0130270052
:102E9000EC000800D3302900A8000330A90042301C
:102EA000AA000530AB00F03021009E009D011D14EA
:102EB000080029006B08F000F036F036F036F036E6
:102EC0000A30F4008031EF2090310F3029006B057B
:102ED000F1007108F00708002900EB018031F227AA
:102EE000903170082900AE007008003A031D7F2F52
:102EF00021000D138D1322000D178D17852F210032
:102F00000D178D1722000D138D130800640021008A
:102F100097121716971117159710640023008C014C
:102F20000C148C148D01220091139313783021001E
:102F3000990020008C018D018E0122008C018D01F1
:102F40008E01033021008C0007308D008E014A274E
:102F50001E149E14951324000D148D140D158B133F
:102F60000800543445345334543420344D344F34F1
:102F70004434453400345034573452343D343034C2
:102F80002E343034573400345334573452343D34B3
:102F900030342E34303430340034523445345334E9
:102FA0004534543420342034203400340034003488
:102FB0005034573452343D3430342E343034573456
:102FC00000345334573452343D3430342E3430349A
:102FD000303400345234453453344534543420347E
:102FE00020342034003400340034003400345334AE
:102FF000573452343D3420342034203420340034CB
:10300000290050082A00A300290051082A00A40022
:103010009031A3259831003029005106031D122854
:1030200000305006031D18288031D327983180299D
:103030009031B1229831803029005106F000803063
:103040007002031D25287830500203182828802993
:103050009031BD249831003029005106031D3228DB
:1030600000305006031D38288031D327983180293D
:103070009031B1229831803029005106F000803023
:103080007002031D45287830500203184828802913
:103090009031D6239831003029005106031D522863
:1030A00000305006031D58288031D32798318029DD
:1030B0009031B1229831803029005106F0008030E3
:1030C0007002031D65287830500203186828802993
:1030D00080305106F10080307102031D7128C83024
:1030E0005002013003180030F10080305106F0002A
:1030F00080302A0024067002031D8128230829003D
:1031000050022900013003180030F00070087105EA
:10311000F30050082A002302F100290051082A0078
:10312000243BF2008030F000803072067002031DF4
:103130009B287108643C013003180030F0007308CC
:10314000F0050319A4288029290050082A00A300AB
:10315000290051082A00A40028002C082A00A500F4
:10316000A601270068082A00A700A80125006F080B
:10317000013A031DBD28EF01BF280130EF00803167
:10318000D327983125006F082A00A9008831C82765
:1031900098310230FB000430FC00BA30FD00FD0B1A
:1031A000CF28FC0BCF28FB0BCF2800009031B12299
:1031B0009831803029005106F00080307002031DE4
:1031C000E328783050020318E62880299031A3259F
:1031D0009831003029005106031DF02800305006B8
:1031E000031DF6288031D327983180299031B122F0
:1031F0009831803029005106F00080307002031DA4
:103200000329783050020318062980299031BD2403
:103210009831003029005106031D10290030500656
:10322000031D16298031D327983180299031B1228E
:103230009831803029005106F00080307002031D63
:103240002329783050020318262980299031D6236B
:103250009831003029005106031D302900305006F6
:10326000031D36298031D327983180299031B1222E
:103270009831803029005106F00080307002031D23
:1032800043297830500203184629802980302A00CB
:103290002406F0008030290051067002031D5329D6
:1032A00050082A00230203187F2925006F08013ADD
:1032B000031D5C29EF015E290130EF006F082A0031
:1032C000A9008831C827983125082800AC002A00B9
:1032D00027082700E8002A002508C2008031AF2611
:1032E0009831270068082A00C20080317125983182
:1032F00023082900D0002A0024082900D1006400F6
:1033000008002A00A101A201643028006C022900F3
:10331000EE00003028006D3B2900EF00D301D401FE
:1033200001302200C5000030C600640028003608C5
:10333000013A031D9F2928302A00A000A2292A0053
:103340007830A0002900ED012A00200829006D0234
:1033500003180F2A28003608003A0130031D0030F8
:10336000F10020000D18B6297614B72976108D18B3
:10337000BB290314BC2903107618C2290318C229DB
:103380007610C329761420000D19C8290314C92901
:1033900003107618CF290318CF297610D029761478
:1033A000F0017618F00A7108F0050319E12990314F
:1033B0002027983127006C08013A031DE129EC0110
:1033C000782D90310020983180302A002206F000BC
:1033D0008030290054067002031DF12953082A0089
:1033E00021020318032A290053082A00A1002900FA
:1033F00054082A00A200290050082200C500290014
:1034000051082200C6001030FC009430FD00FD0B76
:10341000072AFC0B072A00002900ED0AA4296400F2
:103420002A0021082200E4002A0022082200E500E8
:1034300045082A00A300220046082A00A400903173
:103440007B269831803022004606F000803028002C
:103450006D067002031D2F2A6C0822004502013000
:10346000031C0030F000700828004005F500803093
:1034700022006306F300803046067302031D422AD1
:1034800045086202013003180030F300620845026B
:10349000F1006308463BF200803029006F06F0001F
:1034A000803072067002031D572A71086E020130C7
:1034B00003180030F00070087305F400803022001B
:1034C0004606F300803063067302031D692A620812
:1034D0004502013003180030F30045086202F10094
:1034E0004608633BF200803029006F06F000803010
:1034F00072067002031D7E2A71086E0201300318E5
:103500000030F0007308F00570087404F100220028
:103510006308033A031D8E2AE73062060130031D5B
:103520000030F0007108F0047508F00503199B2ABB
:1035300001302000EF0028003608003A0130031D5A
:103540000030F10020000D18A72A7614A82A761062
:103550008D18AC2A0314AD2A03107618B32A031869
:10356000B32A7610B42A761420000D19B92A031450
:10357000BA2A03107618C02A0318C02A7610C12A66
:103580007614F0017618F00A7108F0050319D22AB2
:1035900090312027983127006C08013A031DD22A68
:1035A000EC01782D2200650823006006031DDB2A4C
:1035B0005F08220064060319672B220064082300B9
:1035C000DF00220065082300E0008030220065064D
:1035D000F00080307002031DEF2A64306402031C87
:1035E000112B05306407F0000030653DF1007008D4
:1035F000E4007108E50070082A00C2007108C300E9
:10360000C930C4000430C50080312C26983129000F
:103610004B08C2004C08C3004D08C4005730C50019
:10362000372B220064082A00C200220065082A0005
:10363000C300C930C4000430C50080312C26983145
:1036400029004D08203A0319282B4D08C2002A2BC7
:103650003030C2002E30C3004E08203A0319332BFD
:103660004E08C400352B3030C4005730C500520816
:10367000043A0130031D0030F1005208053A0130D0
:10368000031D0030F0007108F0040319552B2A00C7
:10369000C2014030C300C230C4000430C500043051
:1036A000C6008031B3259831672B29005208003AB3
:1036B0000319672B2A00C2010430C300C230C400C2
:1036C0000430C5000430C6008031B325983128008D
:1036D0003608003A0130031D0030F10020000D18BB
:1036E000732B7614742B76108D18782B0314792B8A
:1036F000031076187F2B03187F2B7610802B7614FF
:1037000020000D19852B0314862B031076188C2BA3
:1037100003188C2B76108D2B7614F0017618F00A96
:103720007108F00503199E2B90312027983127004E
:103730006C08013A031D9E2BEC01782D640080304B
:10374000053AF0008030220065067002031DAA2BA6
:103750006408DC3C0318782D29005208043A013033
:10376000031D0030F1005208053A0130031D0030FE
:10377000F0007108F00403198D2C02302A00C200F9
:103780001030C300D630C4000130C5000830C60078
:103790008031B32598310330FB000830FC007730CE
:1037A000FD00FD0BD12BFC0BD12BFB0BD12B0230E1
:1037B0002A00C2001030C3002930C4000230C50006
:1037C0000830C6008031B32598310B30FB0026301D
:1037D000FC005D30FD00FD0BEB2BFC0BEB2BFB0B22
:1037E000EB2B00000000640002302A00C200103001
:1037F000C3002030C4000230C5000830C60080314C
:10380000B32598310730FB001730FC006A30FD000B
:10381000FD0B082CFC0B082CFB0B082C00000230C5
:103820002A00C2001030C300E130C4000130C500DE
:103830000830C6008031B32598310B30FB002630AC
:10384000FC005D30FD00FD0B232CFC0B232CFB0B3F
:10385000232C00000000640002302A00C200103057
:10386000C300CD30C4000130C5000830C60080312F
:10387000B32598310730FB001730FC006A30FD009B
:10388000FD0B402CFC0B402CFB0B402C00000230AD
:103890002A00C2001030C300A930C4000130C500A6
:1038A0000830C6008031B32598310B30FB0026303C
:1038B000FC005D30FD00FD0B5B2CFC0B5B2CFB0B5F
:1038C0005B2C00000000640002302A00C2001030AF
:1038D000C300A030C4000130C5000830C6008031EC
:1038E000B32598310330FB000830FC007730FD0031
:1038F000FD0B782CFC0B782CFB0B782C02302A006B
:10390000C2001030C3006630C4000130C50008306A
:10391000C6008031B3259831592D29005208003A4C
:103920000319592D01302A00C200C301C430C4005C
:103930000130C5000830C6008031B325983103300E
:10394000FB000830FC007730FD00FD0BA52CFC0BC4
:10395000A52CFB0BA52C01302A00C200C301BB30F3
:10396000C4000130C5000830C6008031B32598314D
:103970000B30FB002630FC005D30FD00FD0BBE2C43
:10398000FC0BBE2CFB0BBE2C0000000064000130C1
:103990002A00C200C301B230C4000130C5000830A3
:1039A000C6008031B32598310730FB001730FC008A
:1039B0006A30FD00FD0BDA2CFC0BDA2CFB0BDA2C49
:1039C000000001302A00C200C3014D30C4000030A5
:1039D000C5000830C6008031B32598310B30FB009C
:1039E0002630FC005D30FD00FD0BF42CFC0BF42CAC
:1039F000FB0BF42C00000000640001302A00C20020
:103A0000C3014430C4000030C5000830C600803116
:103A1000B32598310730FB001730FC006A30FD00F9
:103A2000FD0B102DFC0B102DFB0B102D0000013099
:103A30002A00C200C3013B30C4000030C50008307A
:103A4000C6008031B32598310B30FB002630FC00D6
:103A50005D30FD00FD0B2A2DFC0B2A2DFB0B2A2DC2
:103A600000000000640001302A00C200C301603081
:103A7000C4000030C5000830C6008031B32598313D
:103A80000330FB000830FC007730FD00FD0B462DB5
:103A9000FC0B462DFB0B462D01302A00C200C30152
:103AA0005730C4000030C5000830C6008031B3254F
:103AB00098310B30FB002630FC005D30FD00FD0B23
:103AC0005F2DFC0B5F2DFB0B5F2D000000006400E1
:103AD00010302700EA002730EB00220045082A00BA
:103AE000A300220046082A00A40090317B269831CA
:103AF0000800640020006E08053A031D832D013084
:103B00002800AD00942D20006E08063A031D8C2D70
:103B100002302800AD00942D20006E08073A031DE6
:103B2000942D04302800AD0020006D08053A031DD7
:103B30009D2D01302800AA00AE2D20006D08063A08
:103B4000031DA62D02302800AA00AE2D20006D080E
:103B5000073A031DAE2D04302800AA002500EE010F
:103B60009031B1229831803029005106F000803028
:103B70007002031DBD2D6E3050020318C02D4C2E57
:103B80008031D32798310230FB000430FC00BA307A
:103B9000FD00FD0BC92DFC0BC92DFB0BC92D000031
:103BA0009031B1229831803029005106F0008030E8
:103BB0007002031DDD2D6E3050020318E02D4C2ED7
:103BC0008030F100803028006B067102031DEA2D61
:103BD0006A086E3C013003180030F10080306B063B
:103BE000F0008030290051067002031DFA2D5008A4
:103BF00028006A02013003180030F0007108F00557
:103C00000319032E4C2E0020003029005106031DFD
:103C10000B2E00305006031D112E8031D327983112
:103C20004C2E803029005106F00080307002031DB8
:103C30001B2E7830500203181E2E4C2E20006D08CB
:103C4000053A0130031D0030F1006E08053A0130DD
:103C5000031D0030F0007108F0050319302E4C2EC2
:103C60006E08053C03183C2E28002D08AB000130DF
:103C7000AD009031BD24983120006D08053C03183B
:103C80004B2E28002A082700E90001302800AA004E
:103C90009031D6239831640008006400290052084E
:103CA000043A0130031D0030F1005208053A01309A
:103CB000031D0030F0007108F0040319AE2E2A0035
:103CC000C2011030C300A930C4000330C500083061
:103CD000C6008031B325983102302A00C20010306E
:103CE000C300A030C4000330C5000830C6008031D6
:103CF000B325983104302A00C2001030C30055307B
:103D0000C4000230C5000830C6008031B3259831A8
:103D100006302A00C2001030C3004C30C40002300C
:103D2000C5000830C6008031B32598312800360818
:103D30000130031D0030F0004008F0050319AD2EDE
:103D40002A00C2017030C300ED30C4000130C5004C
:103D50000130C6008031B32598311F2F2900520849
:103D6000003A03191F2F2A00C201C301A030C4006A
:103D70000230C5000830C6008031B32598310130CB
:103D80002A00C200C3016630C4000230C5000830FA
:103D9000C6008031B325983129005208013A031D2D
:103DA000ED2E2A00C2010930C3005E30C40002308B
:103DB000C5000730C6008031B325983101302A0094
:103DC000C2000930C3004430C4000230C5000730CF
:103DD000C6008031B3259831082F2A00C20109306E
:103DE000C3003B30C4000230C5000830C60080313B
:103DF000B325983101302A00C2000930C3003230A7
:103E0000C4000230C5000830C6008031B3259831A7
:103E1000280036080130031D0030F0004008F0058E
:103E200003191F2F2A00C2010830C300EA30C40062
:103E30000130C5000130C6008031B32598316400DF
:103E40002700E6012800C5018831CC2298310800FE
:103E5000640029005208003A031D312F22000D177B
:103E60008D1729005208043A0130031D0030F1007B
:103E70005208053A0130031D0030F0007108F004CB
:103E800003195E2F2A00C2014030C3006630C4000F
:103E90000330C5000430C6008031B32598310230AC
:103EA0002A00C2004030C3006130C4000330C500A6
:103EB0000430C6008031B32598317E2F2900520886
:103EC000003A03197E2F2A00C2010430C3005C307F
:103ED000C4000330C5000430C6008031B3259831DA
:103EE00001302A00C2000430C3006B30C40003302C
:103EF000C5000430C6008031B32598317925FF30E4
:103F00002A00C000270068082A00C10080319427D9
:103F10009831FE302A00C00028002C082A00C10079
:103F2000803194279831FD302A00C00025006F08A9
:103F30002A00C10080319427983129005208003AA4
:103F4000031DC22F8030F000803051067002031D27
:103F5000AB2F5008963C031CB02F22000D13C22F2C
:103F60008030F0008030290051067002031DBA2F06
:103F70005008FA3C031CC02F20000D138D13C22FD4
:103F800020008D1310302700EA002730EB0010309E
:103F90002300DF002730E0008121290050082200A3
:103FA000E200290051082200E3008831CC22983138
:103FB00022008C130C176400080043343D34203475
:103FC0002034203430347034463400344C343D34A2
:103FD00030342E34303430347534483400344C347A
:103FE0003D3430342E34303430347534003453346E
:103FF000573452343D3430342E343034303400347D
:1040000080310320A03129002E082A00DB008031F6
:104010002220A0312A00DB0180312220A031AE30E5
:104020002A00DB0080312220A03128006F08023AEC
:104030000130031D0030F1006F08033A0130031D09
:104040000030F0007108F0040319DD28D5302A0093
:10405000DB0080312220A03180302A00DB0080315B
:104060002220A031A8302A00DB0080312220A0319C
:104070003F302A00DB0080312220A031D3302A00DB
:10408000DB0080312220A03128006F08023A031D96
:10409000512829002C082A00DB0080312220A03181
:1040A000592829002C081F3E2A00DB0080312220DD
:1040B000A03140302A00DB0080312220A0318D3039
:1040C0002A00DB0080312220A03114302A00DB00DE
:1040D00080312220A03181302A00DB008031222073
:1040E000A031B4302A00DB0080312220A031D93049
:1040F0002A00DB0080312220A03122302A00DB00A0
:1041000080312220A03120302A00DB0080312220A3
:10411000A03102302A00DB0080312220A031213082
:104120002A00DB0080312220A0312A00DB0180310F
:104130002220A0317F302A00DB0080312220A031F4
:104140002E302A00DB0080312220A03128006F08A9
:10415000023A031DB828A0302A00DB00803122205B
:10416000A031C0302A00DB0080312220A031C428D9
:10417000A1302A00DB0080312220A031C8302A0083
:10418000DB0080312220A031DA302A00DB008031D0
:104190002220A03102302A00DB0080312220A03111
:1041A000DB302A00DB0080312220A03140302A00A1
:1041B000DB0080312220A0318529D5302A00DB00A8
:1041C00080312220A03180302A00DB008031222083
:1041D000A031A8302A00DB0080312220A0313F30FE
:1041E0002A00DB0080312220A031D3302A00DB00FE
:1041F00080312220A03129002C082A00DB008031E8
:104200002220A03140302A00DB0080312220A03162
:104210008D302A00DB0080312220A03114302A00AA
:10422000DB0080312220A03181302A00DB00803188
:104230002220A031FF302A00DB0080312220A03173
:10424000D9302A00DB0080312220A031F1302A0051
:10425000DB0080312220A03120302A00DB008031B9
:104260002220A03102302A00DB0080312220A03140
:1042700021302A00DB0080312220A0312A00DB011E
:1042800080312220A0317F302A00DB0080312220C3
:10429000A0312E302A00DB0080312220A0312800FE
:1042A0006F08043A031D6129A0302A00DB00803129
:1042B0002220A031C0302A00DB0080312220A03132
:1042C0006D29A1302A00DB0080312220A031C830C6
:1042D0002A00DB0080312220A031DA302A00DB0006
:1042E00080312220A03112302A00DB0080312220D0
:1042F000A031DB302A00DB0080312220A0314030A9
:104300002A00DB0080312220A031A4302A00DB000B
:1043100080312220A031A6302A00DB00803122200B
:10432000A03180310721A0310330FB000830FC00B0
:104330007730FD00FD0B9A29FC0B9A29FB0B9A297B
:1043400080310320A03129002E082A00DB008031B3
:104350002220A03140302A00DB0080312220A03111
:1043600028006F08023A0130031D0030F1006F0889
:10437000033A0130031D0030F0007108F004031906
:10438000E0292900EC016C08033C031CDF296C08C0
:104390002A00D600D70180315D20A0312900EB0131
:1043A000290080306B020318DC29EB0A2A00DB01AC
:1043B00080312220A031D0292900EC0AC329FE290E
:1043C0002900EC016C08073C031CFE296C082A003C
:1043D000D600D70180315D20A0312900EB012900F2
:1043E00080306B020318FB29EB0A2A00DB018031C5
:1043F0002220A031EF292900EC0AE229803107218F
:10440000A031AF302900ED008831DC27A031080051
:104410000D302A00B4000030B500B6013230B700CC
:10442000B80190310A22A03120006F08F00403196E
:10443000622A22008C170C130630FB001330FC009C
:10444000AD30FD00FD0B222AFC0B222AFB0B222A99
:1044500000000000640020006F08003A0130031DD6
:104460000030F1000D18362A0310372A0314F0012A
:104470000318F00A7108F0050319442A90315621F7
:10448000A0312800BF015F2A98312827A0312800D9
:10449000BF010D302A00B4000030B500B601323043
:1044A000B700B80190310A22A031700803195D2AC3
:1044B00098318121A0316400492A2000EF01883120
:1044C000CC22A0310D302A00B4000030B5000230FB
:1044D000B6003230B700B80190310A22A03170081E
:1044E0000319E92A640028003F08003A031DAA2A9C
:1044F0000130BF00270068082300EC0028002C08CA
:104500002200EF0025006F082100EF002700E801DE
:104510002800AC0101302500EF002A00C2018031E3
:10452000AF26A031270068082A00C200803171251B
:10453000A03125006F082A00A9008831C827A031C2
:10454000280040082300EF002800C0018831CC2259
:10455000A031D42A2800BF0123006C082700E800FE
:1045600022006F082800AC0021006F082500EF0032
:1045700023006C082A00C20080317125A031280078
:104580002C082A00C2008031AF26A03125006F0818
:104590002A00A9008831C827A03123006F0828000D
:1045A000C0008831CC22A0310D302A00B400003088
:1045B000B5000230B6003230B700B80190310A229F
:1045C000A03170080319E92A98318121A0316400D3
:1045D000D42A0D302A00B4000030B5000130B600F6
:1045E0003230B700B80190310A22A03128003F08CC
:1045F000003A0130031D0030F1007108F005031985
:104600002C2B64004008003A031D092B0130C00028
:104610000A2BC00102302A00C000280040082A00EE
:10462000C10080319427A0318831CC22A0310D30D7
:104630002A00B4000030B5000130B6003230B700B7
:10464000B80190310A22A031700803192C2B98313F
:104650008121A0316400172B08000D302A00B4001E
:104660000030B500B6013230B700B80190310A22EF
:10467000A03170080319E52B0630FB001330FC0055
:10468000AD30FD00FD0B422BFC0B422BFB0B422BF4
:1046900000000000640020000D1C612B25006F0845
:1046A000003A031D562B0130EF00572BEF016F0826
:1046B0002A00A9008831C827A0318831CC22A03136
:1046C000D12B20005608013A031D682BD6016A2B16
:1046D0000130D6005608013A031DA02B29005208CC
:1046E000043A0130031D0030F1005208053A013050
:1046F000031D0030F0007108F00403198D2B2A000F
:10470000C2017030C3003930C4000030C500013030
:10471000C6008031B325A0319F2B29005208003AF2
:1047200003199F2B2A00C2010830C3002630C400A1
:104730000030C5000130C6008031B325A031D12B37
:1047400029005208043A0130031D0030F1005208DC
:10475000053A0130031D0030F0007108F004031920
:10476000BF2B2A00C2017030C3002430C4000030C7
:10477000C5000130C6008031B325A031D12B2900FE
:104780005208003A0319D12B2A00C2010830C30095
:104790002230C4000030C5000130C6008031B3258E
:1047A000A0310D302A00B4000030B500B60132301F
:1047B000B700B80190310A22A03170080319E52B27
:1047C00098318121A0316400D12B0D302A00B40032
:1047D0000030B5000230B6003230B700B801903179
:1047E0000A22A03170080319702C64002A000D30D1
:1047F000B4000030B5000230B6003230B700B80166
:1048000090310A22A03170080319702C0530F20093
:1048100028002D08F000F10172080319132CF0355F
:10482000F10DFF3E0D2C01307002F2000030713BA3
:10483000F3008030F000803073067002031D232CDB
:10484000280072082C02013003180030F00020000C
:104850005608F0050319352C2800AC0A2C082A004C
:10486000C2008031AF26A031682C200056080130EC
:10487000031D0030F4000530F20028002D08F00080
:10488000F10172080319482CF035F10DFF3E422C5E
:1048900001307002F2000030713BF3008030F00014
:1048A000803073067002031D582C720827006802BE
:1048B000013003180030F0007408F0050319682C6B
:1048C0002700E80A68082A00C20080317125A0315B
:1048D0008831CC22A03198318121A0316400F62B9F
:1048E0000D302A00B4000030B5000130B60032307F
:1048F000B700B80190310A22A03128003F08003AE1
:104900000130031D0030F1007108F0050319CE2CB1
:1049100064000D302A00B4000030B5000130B6004C
:104920003230B700B80190310A22A0317008031963
:10493000CE2C28002C08003C013003180030F00079
:1049400020005608F0050319AE2C2800AC032C08F3
:104950002A00C2008031AF26A031C62C20005608A4
:104960000130031D0030F10027006808003C0130D1
:1049700003180030F0007108F0050319C62CE80395
:1049800068082A00C20080317125A0318831CC220C
:10499000A03198318121A0316400892C08000130B8
:1049A0002900EB008031F227A03170082800EF00C9
:1049B00007302900EB008031F227A0317008290070
:1049C000AC000830EB008031F227A03170082800DD
:1049D000EE006F08013A0319EF2C00205E2D013024
:1049E0002900AF00AD0103302A00CC0080313C210A
:1049F000A0311A30FC00F830FD00FD0BFD2CFC0B43
:104A0000FD2C000003302A00CC0080313C21A03175
:104A10000630FC003030FD00FD0B0C2DFC0B0C2D86
:104A2000000003302A00CC0080313C21A03102304C
:104A30002A00CC0080313C21A03102302A00CC0079
:104A400080313C21A03108302A00CC0080313C214B
:104A5000A0312A00CC0180313C21A03108302A004D
:104A6000CC0080313C21A0312A00CC0180313C2196
:104A7000A03101302A00CC0080313C21A0311A3015
:104A8000FC00F830FD00FD0B432DFC0B432D000016
:104A90002A00CC0180313C21A03106302A00CC0014
:104AA00080313C21A0312A00CC0180313C21A03151
:104AB0000C302A00CC0080313C21A03108002900B4
:104AC0005208043A0130031D0030F1005208053A43
:104AD0000130031D0030F0007108F00403197E2D31
:104AE0002A00C2010A30C3002030C4000130C500D2
:104AF0000930C6008031B325A031902D290052081D
:104B0000003A0319902D2A00C2010330C300E5309A
:104B1000C4000030C5000930C6008031B325A03183
:104B200064000B30FB002630FC005D30FD00FD0B07
:104B3000972DFC0B972DFB0B972D000000006400B8
:104B40000B30FB002630FC005D30FD00FD0BA62D78
:104B5000FC0BA62DFB0BA62D0000000064000B3003
:104B6000FB002630FC005D30FD00FD0BB52DFC0B7D
:104B7000B52DFB0BB52D0000000064000B30FB00D1
:104B80002630FC005D30FD00FD0BC42DFC0BC42D58
:104B9000FB0BC42D00000000640029005208043AF9
:104BA0000130031D0030F1005208053A0130031DA9
:104BB0000030F0007108F0040319EC2D2A00C20146
:104BC0000A30C300DB30C4000030C5000930C60025
:104BD0008031B325A031FE2D29005208003A031977
:104BE000FE2D2A00C2010330C300C730C4000030CC
:104BF000C5000930C6008031B325A0318031D327EC
:104C0000A031FF30C000C10180319427A031FE30B7
:104C10002A00C000C10180319427A031FD302A0054
:104C2000C000C10180319427A03101302500EF0080
:104C300001302A00A9008831C827A0312900520874
:104C4000043A0130031D0030F1005208053A0130EA
:104C5000031D0030F0007108F00403193D2E2A00F6
:104C6000C2017030C3006B30C4000030C500013099
:104C7000C6008031B325A0314F2E29005208003ADA
:104C800003194F2E2A00C2010830C3006930C40046
:104C90000030C5000130C6008031B325A031983105
:104CA0004D26A0310800B0315621A031031A5B2EE9
:104CB00001302000B80022000C17553020002807D2
:104CC000B0002D302F07B70090318627A031723009
:104CD00020002907B10032302E07B6000330FB0058
:104CE0000830FC007730FD00FD0B742EFC0B742E99
:104CF000FB0B742E64001E302A07B2003B302D07D8
:104D0000B500A8316A22A03190316C27A031423021
:104D100020002B07B3000530FB000F30FC00F13002
:104D2000FD00FD0B912EFC0B912EFB0B912E6400D0
:104D30008D189C2E72149D2E72100D19A12E031425
:104D4000A22E0310721CA82E031CA82E7214A92ECA
:104D50007210721CAE2E01302800B600CF24200045
:104D60008D18B42E7214B52E72100D19B92E0314AD
:104D7000BA2E0310721CC02E031CC02E7214C12E3A
:104D8000721020000D18C62E0314C72E0310721CBB
:104D9000CD2E031CCD2E7214CE2E7210721C212F1C
:104DA000290052080A3A031DE32E2A00C2010330EB
:104DB000C300A030C4000030C5000930C6008031F7
:104DC000B325A031F52E29005208003A0319F52E1B
:104DD0002A00C2010C30C300D130C4000030C5002D
:104DE0000930C6008031B325A031FF302A00C2004F
:104DF00080317125A03124006F08003A031D072F70
:104E0000FF302A00C2008031AF26A0310C2F2A00CB
:104E1000C2018031AF26A0310130A9008831C827F6
:104E2000A0310B30FB002630FC005D30FD00FD0B97
:104E3000172FFC0B172FFB0B172F0000000064002F
:104E4000112F1C3020002C07B40064003808003AF1
:104E50000130031D0030F10028003608003A01300F
:104E6000031D0030F0007108F00503195B2F80313D
:104E7000D327A031FF30C000C10180319427A03179
:104E8000FE302A00C000C10180319427A031FD30DE
:104E90002A00C000C10180319427A03101302500D3
:104EA000EF0001302A00A9008831C827A031A831BD
:104EB0000020A031A22F20003808013A0130031D44
:104EC0000030F10028003608003A0130031D0030A0
:104ED000F0007108F0050319A12FFF302900EB0045
:104EE0008031F227A03170082700E800FE30290049
:104EF000EB008031F227A03170082800AC00FD30B3
:104F00002900EB008031F227A03170082500EF0066
:104F100028002C082A00C2008031AF26A0312700CB
:104F200068082A00C20080317125A03125006F0871
:104F30002A00A9008831C827A03198314D26A03118
:104F4000A22F5F2520006E08053A031DAB2F01300C
:104F50002800AD00BC2F20006E08063A031DB42FB8
:104F600002302800AD00BC2F20006E08073A031D58
:104F7000BC2F04302800AD0020006D08053A031D49
:104F8000C52F01302800AA00D62F20006D08063A50
:104F9000031DCE2F02302800AA00D62F20006D0856
:104FA000073A031DD62F04302800AA008831CC22EE
:104FB000A031640098318121A03128003608003AE0
:104FC000031DE42F0822E52F2D23D92FE62FFF3FC5
:104FD0002034203420342034203420342034203431
:104FE00000344F345634453452344C344F34413409
:104FF00044340034543455344E3445340034003491
:10500000640029005208043A0130031D0030F10009
:105010005208053A0130031D0030F0007108F00419
:1050200003192D292A00C2011630C300BF30C40065
:105030000030C5000730C6008031B325A8310230EA
:105040002A00C2000630C300B530C4000030C500DD
:105050000930C6008031B325A83104302A00C200CF
:105060001030C3003030C4000030C5000830C60026
:105070008031B325A8310630FC003030FD00FD0B37
:105080003F28FC0B3F28000004302A00C2001030EB
:10509000C3003030C4000030C5000830C600803185
:1050A000B325A8310630FC003030FD00FD0B56283A
:1050B000FC0B5628000004302A00C2001030C30048
:1050C0003030C4000030C5000830C6008031B32540
:1050D000A8310630FC003030FD00FD0B6D28FC0BC4
:1050E0006D28000006302A00C2000430C300AA3038
:1050F000C4000030C5000A30C6008031B325A83195
:1051000064000D30FB002D30FC00D730FD00FD0B9E
:105110008728FC0B8728FB0B872800000000640011
:105120000B30FB002630FC005D30FD00FD0B9628A7
:10513000FC0B9628FB0B96280000000064002A0058
:10514000C2011030C3002B30C4000330C50008304A
:10515000C6008031B325A83102302A00C2000430D5
:10516000C3002030C4000330C5000A30C6008031BF
:10517000B325A83104302A00C2001030C300E33048
:10518000C4000230C5000830C6008031B325A83104
:1051900006302A00C2000430C3004630C400033089
:1051A000C5000A30C6008031B325A8310430FB00A9
:1051B0000C30FC003330FD00FD0BDC28FC0BDC2840
:1051C000FB0BDC28000000002A00C2011030C300E5
:1051D0003D30C4000330C5000830C6008031B3251F
:1051E000A83102302A00C2001030C3003430C4009D
:1051F0000330C5000830C6008031B325A831043023
:105200002A00C2001030C300DA30C4000230C500EA
:105210000830C6008031B325A83106302A00C2000C
:105220001030C300B330C4000230C5000830C600DF
:105230008031B325A8312800400803192C292A0001
:10524000C2017030C300B130C4000230C50001306B
:10525000C6008031B325A831682A29005208003AD7
:105260000319682A2A00C2010430C300A930C4000F
:105270000230C5000730C6008031B325A8310130A7
:105280002A00C2000330C300D030C4000230C50081
:105290000930C6008031B325A83164000F30FB000F
:1052A0003530FC005130FD00FD0B5429FC0B542916
:1052B000FB0B542964000B30FB002630FC005D30F2
:1052C000FD00FD0B6129FC0B6129FB0B612900002E
:1052D000000064002A00C2010430C3003030C40062
:1052E0000030C5000830C6008031B325A831063033
:1052F000FC003030FD00FD0B7B29FC0B7B290000FE
:105300002A00C2010430C3003030C4000030C500A0
:105310000830C6008031B325A8310630FC0030309B
:10532000FD00FD0B9129FC0B912900002A00C20110
:105330000430C3003030C4000030C5000830C6005F
:105340008031B325A8310630FC003030FD00FD0B64
:10535000A729FC0BA729000001302A00C200033056
:10536000C300C530C4000230C5000A30C600803119
:10537000B325A83164000D30FB002D30FC00D73080
:10538000FD00FD0BC129FC0BC129FB0BC12900004D
:10539000000064000B30FB002630FC005D30FD0097
:1053A000FD0BD029FC0BD029FB0BD02900000000FD
:1053B00064002A00C2010430C300BC30C4000230C3
:1053C000C5000830C6008031B325A83101302A005D
:1053D000C2000330C3005130C4000330C5000A309E
:1053E000C6008031B325A8310430FB000C30FC002E
:1053F0003330FD00FD0BFA29FC0BFA29FB0BFA29CF
:10540000000000002A00C201C301C330C400033001
:10541000C5000830C6008031B325A83101302A000C
:10542000C200C301BA30C4000330C5000830C60052
:105430008031B325A83129005208013A031D3C2AC6
:105440002A00C2010930C300B230C4000330C500D5
:105450000730C6008031B325A83101302A00C200D0
:105460000930C300DE30C4000330C5000730C60079
:105470008031B325A831572A2A00C2010930C30060
:10548000D530C4000330C5000830C6008031B325D4
:10549000A83101302A00C2000930C300CC30C4005A
:1054A0000330C5000830C6008031B325A83128007C
:1054B00040080319682A2A00C2010830C300EC30F2
:1054C000C4000230C5000130C6008031B325A831C8
:1054D00064000800640001302900EB008031F227ED
:1054E000A83170082900D2000230EB008031F22789
:1054F000A8317008013A031D802A01302800C0003D
:1055000003302900EB008031F227A8317008290010
:10551000EB0090315927A8317008B200B301043074
:10552000EB008031F227A83170082900EB009031A0
:105530005927A8310A30F4008031EF20A8317008D3
:105540002800EC007108ED0005302900EB008031E7
:10555000F227A83170082900EB0090315927A831B3
:105560000A30F4008031EF20A83170082900D700FC
:105570007108D8000630EB008031F227A83170089E
:105580002900EB0090315927A8310A30F40080310E
:10559000EF20A83170082900D5007108D600093025
:1055A000EB008031F227A83170082900EB00903120
:1055B0005927A8310A30F4008031EF20A831700853
:1055C0002800EA007108EB000A302900EB00803166
:1055D000F227A83170082000EE000B302900EB0004
:1055E0008031F227A83170082700EE000C30290026
:1055F000EB008031F227A83170082000ED000D305B
:105600002900EB008031F227A83170082700EF0055
:105610000E302900EB008031F227A83170082700F6
:10562000ED000F302900EB008031F227A83170081F
:105630002400EF00640010302900EB008031F227D5
:10564000A83170082900EB0090315927A831643047
:10565000F4008031EF20A83170082900E9007108BA
:10566000EA001130EB008031F227A83170082900E0
:10567000EB0090315927A83170086907BE0000304F
:105680006A3DBF001230EB008031F227A83170086C
:105690002900EB0090315927A8316430F4008031A3
:1056A000EF20A83170082900E9007108EA001330E2
:1056B000EB008031F227A83170082900EB0090310F
:1056C0005927A83170086907B60000306A3DB70055
:1056D0001430EB008031F227A83170082900EB006C
:1056E00090315927A8316430F4008031EF20A8317F
:1056F00070082900E9007108EA001530EB008031DC
:10570000F227A83170082900EB0090315927A83101
:1057100070086907B40000306A3DB5001630EB0030
:105720008031F227A83170082900EB009031592709
:10573000A8316430F4008031EF20A83170082900CE
:10574000E9007108EA001730EB008031F227A83138
:1057500070082900EB0090315927A83170086907BB
:10576000B80000306A3DB9001830EB008031F227F4
:10577000A83170082900EB0090315927A831643016
:10578000F4008031EF20A83170082900E900710889
:10579000EA001930EB008031F227A83170082900A7
:1057A000EB0090315927A83170086907BC00003020
:1057B0006A3DBD001A30EB008031F227A831700835
:1057C0002900EB0090315927A8316430F400803172
:1057D000EF20A83170082900E9007108EA001B30A9
:1057E000EB008031F227A83170082900EB009031DE
:1057F0005927A83170086907BA0000306A3DBB001C
:105800001C30EB008031F227A83170082900EB0032
:1058100090315927A8316430F4008031EF20A8314D
:1058200070082900E9007108EA001D30EB008031A2
:10583000F227A83170082900EB0090315927A831D0
:1058400070086907D90000306A3DDA002030EB00AB
:105850008031F227A83170082900EB0090315927D8
:10586000A8316430F4008031EF20A831700829009D
:10587000E9007108EA002130EB008031F227A831FD
:1058800070082900EB0090315927A831700869078A
:10589000E30000306A3DE4002230EB008031F22763
:1058A000A83170082900EB0090315927A8316430E5
:1058B000F4008031EF20A83170082900E900710858
:1058C000EA002330EB008031F227A831700829006C
:1058D000EB0090315927A83170086907E1000030CA
:1058E0006A3DE2002430EB008031F227A8317008D5
:1058F0002900EB0090315927A8316430F400803141
:10590000EF20A83170082900E9007108EA0025306D
:10591000EB008031F227A83170082900EB009031AC
:105920005927A83170086907E70000306A3DE80090
:105930002630EB008031F227A83170082900EB00F7
:1059400090315927A8316430F4008031EF20A8311C
:1059500070082900E9007108EA002730EB00803167
:10596000F227A83170082900EB0090315927A8319F
:1059700070086907E50000306A3DE6002830EB005A
:105980008031F227A83170082900EB0090315927A7
:10599000A8316430F4008031EF20A831700829006C
:1059A000E9007108EA002930EB008031F227A831C4
:1059B00070082900EB0090315927A8317008690759
:1059C000DD0000306A3DDE002A30EB008031F22736
:1059D000A83170082900EB0090315927A8316430B4
:1059E000F4008031EF20A83170082900E900710827
:1059F000EA002B30EB008031F227A8317008290033
:105A0000EB0090315927A83170086907DB0000309E
:105A10006A3DDC002C30EB008031F227A8317008A1
:105A20002900EB0090315927A8316430F40080310F
:105A3000EF20A83170082900E9007108EA002D3034
:105A4000EB008031F227A83170082900EB0090317B
:105A50005927A83170086907DF0000306A3DE0006F
:105A60006400080000340034003400340034003492
:105A700000345F3400340034003407340034073419
:105A8000003414347F3414347F34143424342A34EE
:105A90007F342A34123423341334083464346234A7
:105AA0003634493455342234503400340534033408
:105AB0000034003400341C342234413400340034C7
:105AC000413422341C34003408342A341C342A343F
:105AD0000834083408343E34083408340034503470
