:10000000A8313B2DFF3F29003A08003A0319212867
:1000100021000D170630FD00FD0B0C2800008D1788
:100020000630FD00FD0B122800008D130630FD0088
:10003000FD0B182800000D130630FD00FD0B1E28D7
:100040000000080029003A08003A03195C28F10171
:100050007108073C031C49282A00E61B32282100AE
:100060008D13342821008D170630FD00FD0B362836
:1000700000000D170630FD00FD0B3C2800000D139D
:100080000630FD00FD0B422800002A00E635F10A8B
:10009000282821008D170630FD00FD0B4D2800009B
:1000A0000D170630FD00FD0B532800000D13063020
:1000B000FD00FD0B592800000800FB14FB1F6728FA
:1000C000FF30F300F200F100F000FA0DF20CFF3007
:1000D00008007B15FB1F73280130F300F201F101CA
:1000E000F001FA0DF20CFF3008002000F801F901D0
:1000F0001030FC00710DF80DF90D7408F802750848
:10010000031C750FF90203188C287408F80775088A
:100110000318750FF9070310F00DF10DFC0B7A2889
:100120000800FA1FF213003008001D30FD00FD0B1F
:100130009728080029003A08003A0319B22821003C
:100140008D130630FD00FD0BA32800000D170630AF
:10015000FD00FD0BA92800008D170630FD00FD0BEA
:10016000AF2800000800290031082A006207E500D6
:10017000032029003A082A00E60022202A00E6018E
:1001800022202A006108B03EE60022202A006508ED
:100190000F3C031CCF286508E300E401E028650854
:1001A000F200F236F236F236F2367208E4007208E5
:1001B000F000F035F035F035F03570086502E300F9
:1001C0006308E60022202A006408103EE600222090
:1001D000032029003A082A00E600222040302A00A5
:1001E000E60022200800F201F101F001F801F3011C
:1001F0000030080020007008F100F0010830FC0019
:100200007108F40C03180829FC0B0129F1010034D2
:1002100003100D29F40C0318F107F10CF00CFC0B82
:100220000A290800032029003A082A00E6002220B3
:1002300040302A00E60022202A005808E100570832
:10024000E200B3202A00DC015B085C020318D82915
:100250005C085907840000305A3D85000008003AC8
:10026000031D3429DE013D295C0859078400003054
:100270005A3D850020300002DE00DD015D08043CAF
:10028000031CD0295E08F0000530F400FA202A0093
:100290005D08F0070030F13D003070078400B03099
:1002A000713D85000008DF005808023A013003194B
:1002B0000030F1005808043A013003190030F00012
:1002C0007008F1055808063A013003190030F000B3
:1002D0007108F00503199529DF197029E0137129B8
:1002E000E017DF1975296013762960175F197A29DD
:1002F000E0127B29E0165F197F29601280296016C1
:10030000DF188429E0118529E015DF18892960119B
:100310008A2960155F188E29E0108F29E0145F1874
:100320009329601094296014B5295F199929E01365
:100330009A29E0175F199E2960139F296017DF181B
:10034000A329E012A429E016DF18A8296012A92920
:1003500060165F18AD29E011AE29E0155F18B229CB
:100360006011B3296015E01060106008E6002220DB
:1003700029003008043A0130031D0030F100300834
:10038000053A0130031D0030F0007108F004031934
:10039000CD292A006008E60022202A00DD0A3E2935
:1003A000E60122202A00E60122202A00DC0A242974
:1003B000580AE1005708E200B3202A00DC015B087C
:1003C0005C0203189B2A5C085907840000305A3DE0
:1003D00085000008003A031DEF29DE01F8295C08BA
:1003E0005907840000305A3D850020300002DE00AD
:1003F000DD015D08043C031C932A5E08F000053013
:10040000F400FA202A005D08F0070030F13D0030CA
:1004100070078400B030713D85000008DF00580887
:10042000023A013003190030F1005808043A013053
:1004300003190030F0007008F1055808063A013041
:1004400003190030F0007108F0050319502ADF1B72
:100450002B2AE0132C2AE017DF1B302A6013312AE5
:1004600060175F1B352AE012362AE0165F1B3A2A16
:1004700060123B2A6016DF1A3F2AE011402AE0157D
:10048000DF1A442A6011452A60155F1A492AE010D4
:100490004A2AE0145F1A4E2A60104F2A6014782A04
:1004A0005F1B542AE013552AE0175F1B592A60137B
:1004B0005A2A6017DF1A5E2AE0125F2AE016DF1A56
:1004C000632A6012642A60165F1A682AE011692A9A
:1004D000E0155F1A6D2A60116E2A6015DF19722A05
:1004E000E010732AE014DF19772A6010782A60146C
:1004F0006008E600222029003008043A0130031D7C
:100500000030F1003008053A0130031D0030F000E2
:100510007108F0040319902A2A006008E6002220DE
:100520002A00DD0AF929E60122202A00E60122201C
:100530002A00DC0ADF299A20080020002230FC0073
:10054000F801F901FA01FB01FC030319D22A031097
:10055000FB0CFA0CF90CF80CF30CF20CF10CF00C8F
:10056000031CA42AFC030319C42A7408F80775089D
:100570000318750FF90776080318760FFA0777083E
:100580000318770FFB07A82A7408F80775080318E3
:10059000750FF90776080318760FFA07770803181E
:1005A000770FFB0708007B14FB1FDE2AF201FA1FFE
:1005B000FF30F200F100F000FA0DF20CFF300800FD
:1005C0000330FC009530FD00FD0BE42AFC0BE42A0F
:1005D00008002A00DB0105305B020318F92A5B08DA
:1005E0005907860000305A3D870020308100DB0A21
:1005F000EB2A5B085907860000305A3D87008101CD
:10060000DB035B085907DC0000305A3DDD000A308F
:10061000F400F5015708F0005808F100752078083B
:10062000F0007908F1003030F0072A005C088600FD
:100630005D088700700881000A30F400F501570852
:10064000F0005808F100752070082A00D7007108E2
:10065000D80000307106031D2F2B00307006031DDB
:10066000322B342BDB03012B08002A00D801290090
:10067000B8010130B7002A005708D800D835D8355E
:10068000D835D835290039080319492B08302A00F4
:10069000D807290037080319502B04302A00D8073F
:1006A000290038080319572B02302A00D8072900DF
:1006B0003B0803195D2B2A00D80A032029003A08B9
:1006C0002A00E60022202A005808E60022209A206C
:1006D0000630FC003030FD00FD0B6C2BFC0B6C2B4E
:1006E000000004302A00D802032029003A082A001A
:1006F000E60022202A005808E60022209A20063030
:10070000FC003030FD00FD0B832BFC0B832B000025
:1007100008002000FB01FA01F9018030F800F10C1B
:10072000F00C031C9C2B7408F90775080318750F4F
:10073000FA070318FB0A0310F01FA42B7408FA072A
:1007400075080318750FFB07FB0CFA0CF90CF80C75
:10075000031C8F2B7B08F3007A08F2007908F10064
:100760007808F0000800FB15FF30080083302100F6
:100770009D052A005708F000F035F035700821007B
:100780009D0495209D149D1CC62BC32B1C08F100B5
:10079000F0011B08F0040030F1040800FB09FA091D
:1007A000F909F809F80A0319F90A0319FA0A0319E9
:1007B000FB0A08007C18102CFC18E12B7C192F2C4C
:1007C000DA2BA1017208031D012C7108F2007008D8
:1007D000F1007808F000F801A1157208031D012C42
:1007E0007108F2007008F100F001A11121167208E1
:1007F000031D012C7108F200F101A1157208031903
:10080000232C2108F302031D031C272C0310F21BC9
:10081000102CF80DF00DF10DF20DF30B072C272C19
:100820007B1B701C2B2CF81F2B2CF00A0319F10AD0
:100830000319F20A031D2B2CF20CF10CF00CF30A35
:1008400003192F2C2B2C0130FC00F320322C02300A
:10085000FC006920322C0430FC009120322C08303E
:10086000FC005D2000000800A1017208031D492C56
:100870007108F2007008F100F001A1157208031D63
:10088000492C7108F200F101A11121167208031917
:10089000572C2108F302031D031C5B2C0310F21BD1
:1008A0005F2CF00DF10DF20DF30B4F2C5B2C013092
:1008B000FC00F320622C0230FC006920622C043022
:1008C000FC00912008007408F8027508031C750FDD
:1008D000F9027608031C760FFA027708031C770FDB
:1008E000FB02F30D0730FC00730DF80DF90DFA0D46
:1008F000FB0D7408731C8A2CF8027508031C750F15
:10090000F9027608031C760FFA027708031C770FAA
:10091000FB02972CF80775080318750FF90776087E
:100920000318760FFA0777080318770FFB07F30D04
:10093000FC0B742C720DF80DF90DFA0DFB0D7408FB
:10094000731CB02CF8027508031C750FF9027608A9
:10095000031C760FFA027708031C770FFB02BD2CED
:10096000F80775080318750FF90776080318760F4E
:10097000FA0777080318770FFB07F20D0730FC0022
:10098000720DF80DF90DFA0DFB0D7408721CD62CC2
:10099000F8027508031C750FF9027608031C760F20
:1009A000FA027708031C770FFB02E32CF80775089F
:1009B0000318750FF90776080318760FFA077708FA
:1009C0000318770FFB07F20DFC0BC02C710DF80D0F
:1009D000F90DFA0DFB0D7408721CFC2CF802750859
:1009E000031C750FF9027608031C760FFA027708CC
:1009F000031C770FFB02092DF80775080318750F04
:100A0000F90776080318760FFA0777080318770FA7
:100A1000FB07F10D0730FC00710DF80DF90DFA0D13
:100A2000FB0D7408711C222DF8027508031C750F4C
:100A3000F9027608031C760FFA027708031C770F79
:100A4000FB022F2DF80775080318750FF9077608B4
:100A50000318760FFA0777080318770FFB07F10DD5
:100A6000FC0B0C2D700DF80DF90DFA0DFB0D740833
:100A7000711C482DF8027508031C750FF9027608E1
:100A8000031C760FFA027708031C770FFB02552D23
:100A9000F80775080318750FF90776080318760F1D
:100AA000FA0777080318770FFB07F00D0730FC00F3
:100AB000700DF80DF90DFA0DFB0D7408701C6E2DFC
:100AC000F8027508031C750FF9027608031C760FEF
:100AD000FA027708031C770FFB027B2DF8077508D5
:100AE0000318750FF90776080318760FFA077708C9
:100AF0000318770FFB07F00DFC0B582D70188E2D87
:100B00007408F80775080318750FF90776080318B5
:100B1000760FFA0777080318770FFB070800200005
:100B2000FB0173080319CB2D7208FA00F2178E30FF
:100B3000F302F31FCE2DF309F30A08307302031CEE
:100B4000B12DF300F10D7208F100F20108307302CB
:100B5000031CB12DF300F10DF1017308031D031007
:100B6000B92D73080319B92D0310F20CF10CF30B16
:100B7000B42D7B1B711CC32D031CC32DF10A03195B
:100B8000F20AF21BDA2DFA1FDD2DF209F109F10A42
:100B90000319F20ADD2DF201F101DD2D7B14FB1F9B
:100BA000E02DF201FA1FE02DFF30F200F100FA0D06
:100BB000F20CE02D0130FC00E22D0030FC00E22DB3
:100BC000FF30FC00FC080319E62DD3227108F00069
:100BD0007208F10008007408003A031D042E75081D
:100BE000003A031D042E7608003A031D042E7708F0
:100BF000003A031D042EFF30F000FF30F1007F307B
:100C0000F200FF30F3009E2E200077080319922E89
:100C100073080319952E720876068039FA00F217C8
:100C2000F617A1017208F8007108FC007008FD00B9
:100C30007408FD027508031C750FFC027608031C7E
:100C4000760FF802F801FC01FD01031C2E2E0310A3
:100C5000F20CF10CF00CF80C0130A1007708F30253
:100C6000031C382E7E302107F3070318982E3D2EE3
:100C70007E302107F307031C9B2E1830FA07FD0D69
:100C8000FC0DF80DF00DF10DF20DA10D7408F00240
:100C90007508031C750FF1027608031C760FF2022B
:100CA000760DA104211C562E7D14612E7408F007C8
:100CB00075080318750FF10776080318760AF2070E
:100CC0007D10FA031F307A05031D3F2E7B1B7D1C10
:100CD000882E0310F00DF10DF20DA10D7408F00235
:100CE0007508031C750FF1027608031C760FF202DB
:100CF000760D21040139FD070318FC0A0319F80ACF
:100D0000031D882EF80CFC0CFD0CF30A0319982E19
:100D1000FA1FF8137808F2007C08F1007D08F00053
:100D200000309D2E0130B3239D2E0230F3209D2EE6
:100D300004305D209D2E08306920000008007408F2
:100D4000003A031DB82E7508003A031DB82E760828
:100D5000003A031DB82E7708003A031DB82EFF3065
:100D6000F000FF30F100FF30F2007F30F300502F31
:100D70002000FC01F71BFC0AFD01FB01FA01F9014F
:100D8000F801730872047104700403194B2F73087F
:100D90007706A000A01BFD09F71FD92EF409F5095D
:100DA000F609F709F40A0319F50A0319F60A0319F3
:100DB000F70AF31FE62EF009F109F209F309F00A28
:100DC0000319F10A0319F20A0319F30A73087704E5
:100DD000A000A01B072F6324FC1B242FFD1F4B2FFB
:100DE000F009F109F209F309F00A0319F10A0319EC
:100DF000F20A0319F30AF809F909FA09FB09F80AD2
:100E00000319F90A0319FA0A0319FB0A4B2FF71FF2
:100E10001E2FF31B182F7308FB007208FA007108CD
:100E2000F9007008F800F301F201F101F001EE2E73
:100E3000F301F201F101F001F00A0034F309F209C3
:100E4000F109F009FC17EB2EF80A0319F90A031946
:100E5000FA0A0319FB0A74087802031DEE2E7508BE
:100E60007902031DEE2E76087A02031DEE2E770816
:100E70007B02031DEE2EFB01FA01F901F801F00AD5
:100E80000319F10A0319F20A0319F30AF31FEE2EEC
:100E9000A0012016FF34A0017C1C4F2FCE23003E62
:100EA0000800200072087606A100F801F901730815
:100EB0007702031C732F7708FD007308F7007D0885
:100EC000F3007608FD007208F6007D08F200750850
:100ED000FD007108F5007D08F1007408FD00700840
:100EE000F4007D08F00077080319EC2F7208FA006F
:100EF000F217F61777087302F7000319A62F0830C8
:100F00007702031C9C2FF7007408F9007508F400A1
:100F10007608F500F60108307702031C9C2FF700D5
:100F20007408F9007508F400F50108307702031C15
:100F30009C2F7A08F200EC2F77080319A62F0310D4
:100F4000F60CF50CF40CF90CF70B9F2FA11FB32F27
:100F5000F909F409F509F609F90A0319F40A03195C
:100F6000F50A0319F60A7908F80774080318740FCC
:100F7000F00775080318750FF10776080318760F48
:100F8000F207A11BCC2F031CDC2FF20CF10CF00C90
:100F9000F80CF30FDC2FE82F0318E02FF809F00905
:100FA000F109F209F80A0319F00A0319F10A031901
:100FB000F20A8030FA06E42F0130FC00DA23EE2F2B
:100FC0000230FC00DA23EE2F0430FC003424EE2F34
:100FD0000830FC005D20EE2F0030FC00000008000F
:100FE000B6302900B3000330B4005730B5000530E7
:100FF000B600F03021009E009D011D140800003451
:1010000020007008F8007108F0007208F100730801
:10101000F200F301FB01FC019E30F300FA01F21F24
:101020001D28F809F009F109F209F80A0319F00A74
:101030000319F10A0319F20AFA170230FC00803191
:10104000DA238831080029003008043A0130031DF2
:101050000030F1003008053A0130031D0030F00087
:101060007108F004031943282A004E08D7004D08E0
:10107000D8004F08D9005008DA005108DB00803151
:1010800012218831A92829003008023A0130031DB5
:101090000030F1003008033A0130031D0030F00049
:1010A0007108F00403196D280730F0002A004E087B
:1010B000F4008031FA208831043070072A00D7000C
:1010C0004D08D800D8354F08D9005008DA0051082B
:1010D000DB00803112218831A9282900BB012A00B8
:1010E0004D08F000F035F0357008083ED70080312B
:1010F000352388312A004E08D700803135238831C6
:1011000001302900BB002A00D20151085202031805
:10111000A92852084F0784000030503D8500000880
:10112000F1007108D700D736D736D736D736803199
:10113000352388312A0052084F0784000030503D83
:1011400085000008D7008031352388312A00D20A73
:10115000852808002A00D301D4014D08D5004E0887
:10116000D60080304E06F00080307002031DBA2891
:1011700000304D020318C8280130D3000030D400DD
:101180004D08003CD5004E08031C013ED601D60296
:101190005508D7005608D8004F08D9005008DA0083
:1011A0008031E92288310630D1000030D200520867
:1011B000003C031DDD285108003C0318F8285108A5
:1011C0004F0786005208503D870001305102F00061
:1011D0000030523BF10070084F0784007108503D09
:1011E0008500000881000130D1020030D23BD728B1
:1011F0004F088600500887002030810053085404AF
:1012000003191E29D101D20151084F078400520849
:10121000503D85000008203A031D1229D10A031908
:10122000D20A04290130D1020030D23B51084F07C5
:1012300086005208503D87002D3081000800813023
:1012400022009700171B2529222901302A00D700E8
:101250008031B623883170082A00CD007108CE0095
:101260008030033AF200803071067202031D3A2981
:101270007008E83C031C41294D08F0004E08F100BD
:101280008229823022009700171B47294429013008
:101290002A00D7008031B623883170082A00CD009B
:1012A0007108CE008030033AF2008030710672027D
:1012B000031D5C297008E83C031C65294D08F000FB
:1012C0004E08F100F035F10D82298330220097009D
:1012D000171B6B29682901302A00D7008031B623FB
:1012E000883170082A00CD007108CE007008F20025
:1012F0007108F300F235F30DF235F30D7208F000CA
:101300007308F1000800A0302A00CF000F30D00091
:10131000D101D201A030F0000F30F1000030F20016
:101320000030F3004D08F4004E08F500F601F70117
:1013300080319D22883170082A00CF007108D000CA
:101340007208D1007308D20000307302031DB22965
:1013500000307202031DB22902307102031DB2294E
:10136000B23070020318B529E429B230CF0202303E
:10137000D03B0030D13BD23B0530F0007008031960
:10138000C729D236D10CD00CCF0CFF3EBF294F0855
:10139000F0005008F1005108F2005208F30001304B
:1013A000CF020030D03BD13BD23B700871047204B5
:1013B00073040319E429000000000000000000008D
:1013C000000000000000C729080020007008F80095
:1013D0007108F000F101F201F301FB01FC0196300C
:1013E000F300FA01F01FFA29F809F009F80A0319C5
:1013F000F00AFA177008F1007808F000F801F2011D
:101400008031342488310800813022009700171B76
:101410000A2A072A2A00D7018031B62388317008AA
:101420002A00CD007108CE008030033AF2008030EF
:1014300071067202031D1E2A7008E83C031C252A4F
:101440004D08F0004E08F100642A82302200970017
:10145000171B2B2A282A2A00D7018031B62388316E
:1014600070082A00CD007108CE008030033AF200E7
:10147000803071067202031D3F2A7008E83C031C8D
:10148000482A4D08F0004E08F100F035F10D642AAD
:10149000833022009700171B4E2A4B2A2A00D701BF
:1014A0008031B623883170082A00CD007108CE0043
:1014B0007008F2007108F300F235F30DF235F30D08
:1014C0007208F0007308F10008002000FB017308A7
:1014D000031D77080319BB2A72087606FA007708FD
:1014E000F3077E30031C782AF3020318C02A7B2AF4
:1014F000F302031CC52A7208F8007108FC0070088A
:10150000FD00F817F6170310F201F101F001183091
:10151000A1007D1C952A7408F00775080318750F43
:10152000F10776080318760FF207F20CF10CF00CB5
:10153000F80CFC0CFD0C0310A10B892AF21BA52A48
:10154000F80DF00DF10DF20DF3037B1B701CB72AA3
:10155000F81FB72AF00A0319F10A0319F20A031D4A
:10156000B72AF20CF10CF00CF30A0319C02AFA1F87
:10157000F2130030C92A01308031F3208831C92AA2
:10158000023080315D208831C92A043080316920E1
:101590008831000008002A004D08F0004E08F100D4
:1015A0000330F4000030F500803189238831700861
:1015B0002A00CD007108CE008030F2008030710624
:1015C0007202031DE52A7008503C031CEA2AF00150
:1015D000F101BD2B8030F00080304E067002031DFB
:1015E000F32A4D08AB3C031CFA2AF430CD07003037
:1015F000CE3DB92B8030013AF00080304E067002AB
:10160000031D042B4D08483C031C0B2BFE30CD075B
:101610000030CE3DB92B8030023AF00080304E06CB
:101620007002031D152B4D08463C031C1C2B183063
:10163000CD070130CE3DB92B8030033AF000803029
:101640004E067002031D262B4D08343C031C2D2B27
:101650002930CD070130CE3DB92B8030043AF0005F
:1016600080304E067002031D372B4D084C3C031C86
:101670003E2B3630CD070130CE3DB92B8030083AB5
:10168000F00080304E067002031D482B4D08853C4B
:10169000031C4F2BAE30CD070130CE3DB92B80302F
:1016A0000C3AF00080304E067002031D592B4D0895
:1016B000FA3C031C602BE430CD070130CE3DB92B42
:1016C0008030123AF00080304E067002031D6A2B03
:1016D0004D080F3C031C712B1230CD070230CE3D5C
:1016E000B92B8030163AF00080304E067002031D90
:1016F0007B2B4D08E63C031C822B8830CD07023043
:10170000CE3DB92B80301B3AF00080304E0670027F
:10171000031D8C2B4D08EA3C031C932BE730CD07AF
:101720000230CE3DB92B8030213AF00080304E0699
:101730007002031D9D2B4D08363C031CA42B20304A
:10174000CD070330CE3DB92B8030293AF0008030F0
:101750004E067002031DAE2B4D08043C031CB52B36
:101760004830CD070330CE3DB92B5C30CD07033078
:10177000CE3D4D08F0004E08F10008002A00D301CC
:101780004F08F1000130F00071080319CA2BF03541
:10179000FF3EC52B7008D2004D0884004E0885001E
:1017A00070080005F10071080130031D0030F000E1
:1017B0005108F0060319FA2B5008003C0318E82BD7
:1017C0008031E02288318031E0228831D003DC2B67
:1017D0004D0884004E08850052080005F10071088C
:1017E0000130031D0030F0005108F0060319FA2BF8
:1017F000FF30D3005308F000080028003108003AF9
:10180000031D3B2C2A004118082C22008D110A2CA4
:1018100022008D152A00C118102C22000C11122C48
:1018200022000C152A004119182C22000D121A2C26
:1018300022000D162A00C119202C22008C11222C06
:1018400022008C152A00411A282C22008D122A2CE5
:1018500022008D162A00C11A302C22008C12322C44
:1018600022008C162A00411B382C22000C123A2C24
:1018700022000C16732C2A004118412C22008D15D1
:10188000432C22008D112A00C118492C22000C156E
:101890004B2C22000C112A004119512C22000D164C
:1018A000532C22000D122A00C119592C22008C152C
:1018B0005B2C22008C112A00411A612C22008D160B
:1018C000632C22008D122A00C11A692C22008C166A
:1018D0006B2C22008C122A00411B712C22000C164A
:1018E000732C22000C1229004F082A00CD00290079
:1018F00050082A00CE00832108002A004208280050
:101900002106031D862C20082A00410603193F2DBD
:101910002A0041082800A0002A0042082800A1004F
:1019200027006F08003A031DE02C80302A00420691
:10193000F00080307002031D9F2C64304102031CB4
:10194000BE2C05304107F0000030423DF100700828
:10195000C1007108C2007008CD007108CE00C4300B
:10196000CF000430D000AA2029004608BD00470857
:10197000BE004808BF005730C000DF2C2A004108D5
:10198000CD004208CE00C430CF000430D000AA20E1
:1019900029004808203A0319D02C4808BD00D22C51
:1019A0003030BD002E30BE004908203A0319DB2C30
:1019B0004908BF00DD2C3030BF005730C000132D68
:1019C00080302A004206F0008030033A7002031D86
:1019D000EB2CE73041020318002D4108CD004208EE
:1019E000CE00C430CF000430D000AA202900470820
:1019F000BD004808BE004908BF005730C000132D85
:101A00002A004108CD004208CE00C430CF00043087
:101A1000D000AA2029004608BD004708BE0048089B
:101A2000BF004908BF003C08043A0130031D0030E4
:101A3000F1003C08053A0130031D0030F000710848
:101A4000F00403192F2D2A00CD014030CE00BD3007
:101A5000CF000430D0000430D10023203F2D2900D6
:101A60003C08003A03193F2D2A00CD010430CE0076
:101A7000BD30CF000430D0000430D1002320080056
:101A80002A004118462D22008E13482D22008E1761
:101A90002A00C1184E2D22008E11502D22008E15C5
:101AA0002A004119562D22000E13582D22000E1720
:101AB0002A00C1195E2D22000E11602D22000E1584
:101AC0002A00411A662D22008E12682D22008E16E1
:101AD0002A00C11A6E2D22008E10702D22008E1445
:101AE0002A00411B762D22000E12782D22000E16A0
:101AF00029004F082A00CD00290050082A00CE00F6
:101B0000832108000D302A00CD000030CE00CF0127
:101B10003230D000D101BE237008C1000D30CD009D
:101B20000030CE000130CF003230D000D101BE23D2
:101B30007008C1040D30CD000030CE000230CF005F
:101B40003230D000D101BE234108F0040319AB2D7F
:101B500001302000EF00080064002A00420828003D
:101B60006906031DB62D68082A0041060319452E93
:101B70002A0041082800E8002A0042082800E9005D
:101B800000302A004206031DC72D01304106031D07
:101B9000FC2D29003C08043A0130031D0030F100FF
:101BA0003C08053A0130031D0030F0007108F004D4
:101BB0000319E72D02302A00CD004030CE00593005
:101BC000CF000430D0000430D1002320F82D2900AC
:101BD0003C08003A0319F82D01302A00CD000430EA
:101BE000CE00A930CF000430D0000430D100232033
:101BF0002800E801E901452E2A0041082800E800F4
:101C00002A0042082800E9002A004108CD004208C5
:101C1000CE00C430CF000430D000AA2029004708ED
:101C2000BD002E30BE004808BF004908C0003C0877
:101C3000043A0130031D0030F1003C08053A013040
:101C4000031D0030F0007108F0040319342E023037
:101C50002A00CD004030CE00BD30CF000430D0008F
:101C60000430D1002320452E29003C08003A0319F6
:101C7000452E01302A00CD000430CE00BD30CF000B
:101C80000430D0000430D100232064000800280074
:101C9000B4012700EE012A00C101FD2327006E08D0
:101CA0002A00C100402529004F082A00CD00290044
:101CB00050082A00CE00832108002A003B08230098
:101CC000910092012A003C082300930015139513FC
:101CD00015150B08F0008B1355309600AA309600AE
:101CE0009514F01B752E8B13762E8B171511951CE2
:101CF0007A2E772E08002A003B18812E22000E1023
:101D0000832E22000E1429004F082A00CD0029003E
:101D100050082A00CE008321080047260130280001
:101D2000AF0001302A00BB007B26FF30BB00BC01A6
:101D30005D26FE302A00BB00BC015D26FD302A0076
:101D4000BB000130BC005D2698310020883129009D
:101D50003C08003A031DAF2E22000D178D172200FC
:101D60008C130C172900CD01CE01CB01CC0128002A
:101D7000AB01AC0129003C08043A0130031D0030DE
:101D8000F1003C08053A0130031D0030F0007108F5
:101D9000F0040319F42E02302A00CD001030CE00DA
:101DA0002230CF000430D0000830D100232064005E
:101DB0000D30FB002D30FC00D730FD00FD0BDE2E7A
:101DC000FC0BDE2EFB0BDE2E0000000002302A0092
:101DD000CD001030CE005E30CF000430D00008308F
:101DE000D100232064001F2F29003C08003A03196A
:101DF0001F2F01302A00CD00CE015030CF0004301B
:101E0000D0000830D100232064000D30FB002D30BD
:101E1000FC00D730FD00FD0B0B2FFC0B0B2FFB0B39
:101E20000B2F0000000001302A00CD00CE01A030B1
:101E3000CF000430D0000830D100232064001030DF
:101E40002800E8002730E9001030A0002730A1006A
:101E50009031D42188310800710DF80DF90D740806
:101E6000F8027508031C750FF902F00DF10D0F3023
:101E7000FC00710DF80DF90D7408701C452FF80267
:101E80007508031C750FF9024A2FF8077508031827
:101E9000750FF907F00DF10DFC0B392F7018562F47
:101EA0007408F80775080318750FF9070000080093
:101EB0007408003A031D652F7508003A031D652F4D
:101EC000FF30F0007F30F100BD2F2000FD01F9014F
:101ED000F801710870040319003471087506FA00DE
:101EE000FA1BFD09FB01F51F7A2FF409F509F40A25
:101EF0000319F50AF11F812FF009F109F00A0319FE
:101F0000F10A71087504FA00FA1B962F2C277B182A
:101F1000A92FFD1F0034F009F109F00A0319F10A95
:101F2000F809F909F80A0319F90A0034F51FA52F71
:101F3000F11BA12F7108F9007008F800F101F00100
:101F4000892FF101F001F00A0034F109F009FB0AD0
:101F5000862FF80A0319F90A74087802031D892FDD
:101F600075087902031D892FF901F801F00A031998
:101F7000F10AF11F892F0000FF340800803103208F
:101F8000883129003A082A00E60080312220883171
:101F900080302A00E6008031222088312A0029087A
:101FA000E60080312220883180319A208831080073
:101FB00029006F08F000F036F036F036F0360A30BF
:101FC000F4008031FA2088310F3029006F05F100CC
:101FD0007108F007080029006F08230091009201A2
:101FE0009513151315141308F000080012001E00B5
:101FF000F003031DF62FF103031DF62F0800003434
:10200000640088311F2190317008C1007108C2003E
:102010000030C21BFF30C300C4008831042290315D
:102020007008C5007108C6000030C61BFF30C7002D
:10203000C80028006A08013A031D33282A00410815
:10204000CD004208CE008831CB2290318831E52185
:10205000903170082A00C9007108CA007208CB00CC
:102060007308CC0048282A004108F0004208F1001B
:102070004308F2004408F3008831002090317008D2
:102080002A00C9007108CA007208CB007308CC008E
:1020900080304806F000803044067002031D5A2844
:1020A00043084702031D5A2842084602031D5A28C6
:1020B00041084502031C6328E730C1000330C20019
:1020C000C301C401AD2845084107F0004608423D60
:1020D000F1004708433DF2004808443DF3006430F6
:1020E000F400F501F601F70180319D2290312A00BC
:1020F0004108F4004208F5004308F6004408F700E0
:102100004508F4024608F53B4708F63B4808F73B0C
:1021100080319F26903170082A00C1007108C200EA
:102120007208C3007308C4008030F4008030730666
:102130007402031DA5287208003C031DA528710820
:10214000033C031DA5287008E73C0318AD28E730C1
:10215000C1000330C200C301C40127006F08013A67
:10216000031D22292A004908F0004A08F1004B0803
:10217000F2004C08F3000030F4000030F5000030AD
:10218000F6008430F7008831652290310030F40089
:102190000030F5007A30F6008830F7008031EB250A
:1021A000903170082A00C9007108CA007208CB007B
:1021B0007308CC00F430F400FD30F5003430F60044
:1021C0007F30F7008031EB25903170082A00C9007C
:1021D0007108CA007208CB007308CC007008F400C4
:1021E0007108F5007208F6007308F700883165225F
:1021F00090310030F4000030F5004830F6008430B3
:10220000F7008031EB25903170082A00C900710871
:10221000CA007208CB007308CC000030F400003014
:10222000F5000030F6007E30F70080315127903104
:1022300070082A00C9007108CA007208CB00730830
:10224000CC0091292A004908F0004A08F1004B0807
:10225000F2004C08F3000030F4000030F5002030AC
:10226000F6008230F7008831652290310030F400AA
:102270000030F5007A30F6008830F7008031EB2529
:10228000903170082A00C9007108CA007208CB009A
:102290007308CC00F430F400FD30F5003430F60063
:1022A0007F30F7008031EB25903170082A00C9009B
:1022B0007108CA007208CB007308CC007008F400E3
:1022C0007108F5007208F6007308F700883165227E
:1022D00090310030F4000030F5002030F6008130FD
:1022E000F7008031EB25903170082A00C900710891
:1022F000CA007208CB007308CC000030F400003034
:10230000F5000030F6007E30F70080315127903123
:1023100070082A00C9007108CA007208CB0073084F
:10232000CC004908F0004A08F1004B08F2004C08C4
:10233000F30080318F25903170082900CB0071089F
:10234000CC0080307106F20080307202031DAA2991
:102350000A3070020318B1290130CD000030CE00E0
:10236000D32980302A004406F00080307002031D1B
:10237000C32900304302031DC32900304202031D5C
:10238000C329643041020318CB29E7302900CD006E
:102390000330CE00D3292A0041082900CD002A00AD
:1023A00042082900CE0008002A00BF01C0016430A5
:1023B00029002E022A00BC00003029002F3B2A00F1
:1023C000BD002900CB01CC0101302400B200003057
:1023D000B300640023003C08013A031DF3292830B0
:1023E0002A00BE00F6292A007830BE00BB013E0854
:1023F0003B0203185E2A23003C08003A0130031D0B
:102400000030F10020000D18072A7614082A7610F3
:102410008D180C2A03140D2A03107618132A03189A
:10242000132A7610142A761420000D19192A031481
:102430001A2A03107618202A0318202A7610212A37
:102440007614F0017618F00A7108F0050319322AA3
:1024500088318225903120006F08013A031D322A0D
:10246000EF01482D002080302A004006F000803027
:1024700029004C067002031D402A4B082A003F0227
:102480000318522A29004B082A00BF0029004C08D3
:102490002A00C00029004D082400B20029004E087F
:1024A0002400B3001030FC009430FD00FD0B562AD0
:1024B000FC0B562A00002A00BB0AF72964003F08DB
:1024C0002300EE002A0040082300EF002400320819
:1024D0002A00C100240033082A00C2008831AC253C
:1024E0009031803024003306F000803029002F0620
:1024F0007002031D7E2A2E08240032020130031CC4
:102500000030F000700823004005F50080302800FE
:102510002C06F3008030240033067302031D932A37
:10252000320828002B022800013003180030F30085
:102530002B0824003202F10028002C082400333B31
:10254000F20080302A003D06F000803072067002F2
:10255000031DAC2A71083C02013003180030F00062
:1025600070087305F400803024003306F3008030D7
:1025700028002C067302031DC02A2B0824003202F7
:102580002400013003180030F300320828002B0229
:10259000F1002400330828002C3BF20080302A0090
:1025A0003D06F000803072067002031DD92A7108C2
:1025B0003C02013003180030F0007308F005700889
:1025C0007404F10028002C08033A031DE92AE730BF
:1025D0002B060130031D0030F0007108F00475086F
:1025E000F0050319F62A01302400B40023003C084A
:1025F000003A0130031D0030F10020000D18022BBD
:102600007614032B76108D18072B0314082B031058
:1026100076180E2B03180E2B76100F2B7614200035
:102620000D19142B0314152B031076181B2B0318EC
:102630001B2B76101C2B7614F0017618F00A71080B
:10264000F00503192D2B88318225903120006F0869
:10265000013A031D2D2BEF01482D23006E082A009F
:10266000C10023006F082A00C20088317D24903108
:1026700023003C08003A0130031D0030F100200027
:102680000D18442B7614452B76108D18492B031406
:102690004A2B03107618502B0318502B7610512B11
:1026A00076140D19552B0314562B031076185C2B3A
:1026B00003185C2B76105D2B7614F0017618F00A67
:1026C0007108F00503196E2B8831822590312000A6
:1026D0006F08013A031D6E2BEF01482D6400803016
:1026E000053AF000803023006F067002031D7A2B3C
:1026F0006E08DC3C0318482D29003C08043A0130E0
:10270000031D0030F1003C08053A0130031D003084
:10271000F0007108F00403195D2C02302A00CD008E
:102720001030CE004730CF000230D0000830D1004A
:102730008831232090310330FB000830FC007730D3
:10274000FD00FD0BA12BFC0BA12BFB0BA12B0230E1
:102750002A00CD001030CE003E30CF000230D00035
:102760000830D1008831232090310B30FB00263017
:10277000FC005D30FD00FD0BBB2BFC0BBB2BFB0BF2
:10278000BB2B00000000640002302A00CD00103096
:10279000CE003530CF000230D0000830D100883173
:1027A000232090310730FB001730FC006A30FD0019
:1027B000FD0BD82BFC0BD82BFB0BD82B00000230C9
:1027C0002A00CD001030CE00D330CF000130D00031
:1027D0000830D1008831232090310B30FB002630A7
:1027E000FC005D30FD00FD0BF32BFC0BF32BFB0B12
:1027F000F32B00000000640002302A00CD001030EE
:10280000CE00CA30CF000130D0000830D10088316E
:10281000232090310730FB001730FC006A30FD00A8
:10282000FD0B102CFC0B102CFB0B102C00000230AD
:102830002A00CD001030CE00C130CF000130D000D2
:102840000830D1008831232090310B30FB00263036
:10285000FC005D30FD00FD0B2B2CFC0B2B2CFB0B2F
:102860002B2C00000000640002302A00CD00103044
:10287000CE00DC30CF000130D0000830D1008831EC
:10288000232090310330FB000830FC007730FD003E
:10289000FD0B482CFC0B482CFB0B482C02302A006B
:1028A000CD001030CE002930CF000230D0000830EB
:1028B000D100883123209031292D29003C08003A8D
:1028C0000319292D01302A00CD00CE012030CF0080
:1028D0000230D0000830D1008831232090310330FD
:1028E000FB000830FC007730FD00FD0B752CFC0B65
:1028F000752CFB0B752C01302A00CD00CE01E53084
:10290000CF000130D0000830D10088312320903131
:102910000B30FB002630FC005D30FD00FD0B8E2CE3
:10292000FC0B8E2CFB0B8E2C000000006400013091
:102930002A00CD00CE016430CF000030D000083036
:10294000D1008831232090310730FB001730FC0084
:102950006A30FD00FD0BAA2CFC0BAA2CFB0BAA2C49
:10296000000001302A00CD00CE015B30CF000030E6
:10297000D0000830D1008831232090310B30FB008B
:102980002630FC005D30FD00FD0BC42CFC0BC42C7C
:10299000FB0BC42C00000000640001302A00CD00B5
:1029A000CE015230CF000030D0000830D100883145
:1029B000232090310730FB001730FC006A30FD0007
:1029C000FD0BE02CFC0BE02CFB0BE02C000001309D
:1029D0002A00CD00CE01A030CF000030D00008305A
:1029E000D1008831232090310B30FB002630FC00D1
:1029F0005D30FD00FD0BFA2CFC0BFA2CFB0BFA2CC6
:102A000000000000640001302A00CD00CE01B23089
:102A1000CF000030D0000830D10088312320903121
:102A20000330FB000830FC007730FD00FD0B162D55
:102A3000FC0B162DFB0B162D01302A00CD00CE010C
:102A4000A930CF000030D0000830D10088312320D9
:102A500090310B30FB002630FC005D30FD00FD0B9B
:102A60002F2DFC0B2F2DFB0B2F2D000000006400E1
:102A700010302800E8002730E900240032082A003E
:102A8000C100240033082A00C2008831AC259031EF
:102A90000800002028006D08643A0319682DED0A2B
:102AA00080302A002106F000803029004C06700298
:102AB000031D5D2D4B082A0020020318672D2900F5
:102AC0004B082A00A00029004C082A00A100752DFF
:102AD0002800ED012A002008C1002108C200883129
:102AE0007D2490312A00A001A101803029004C06EC
:102AF000F20080302A0025067202031D822D240870
:102B000029004B02013003180030F20080302A0007
:102B10002306F100803029004C067102031D932D1D
:102B20004B082A0022022A00013003180030F1006D
:102B30008030F000803023067002031DA12D220892
:102B4000003C013003180030F0007108F0057208F5
:102B5000F00403190A2E6400002028006D08643A6E
:102B60000319CB2DED0A80302A002106F0008030B9
:102B700029004C067002031DC02D4B082A002002BC
:102B80000318CA2D29004B082A00A00029004C0870
:102B90002A00A100D82D2800ED012A002008C1003C
:102BA0002108C20088317D2490312A00A001A101B2
:102BB0002A000D30CD000030CE00CF010530D0000E
:102BC0000130D1008831BE23903170080319EB2DFC
:102BD00001302800E70028006708013A0130031D92
:102BE00000302A00BA000D30CD000030CE00CF01F9
:102BF0000530D000D1018831BE2390313A08F0056C
:102C00000319092E88318D2690312900CD01CE017E
:102C10000A2E752D080027006D08013A031D142E99
:102C200001302A00B600172E2A000330B600270014
:102C3000EE012A00C1018831402590313608280074
:102C4000AE004925003029004E06031D292E003014
:102C50004D06031D2C2EF52E1430F4000030F50027
:102C60004D08F0004E08F100883158279031700867
:102C700029004D072A00B800710829004E3D2A009E
:102C8000B9003608B7002A0037081F3C031CEE2E97
:102C90003708F00028002D08F4008031FA20903128
:102CA00070082A00C1008831402590314925003044
:102CB00029004E06031D5E2E00304D06031D612EB9
:102CC000F52E80304E06F00080302A003906700262
:102CD000031D6D2E380829004D020318EC2E290023
:102CE0001430F4000030F5004D08F0004E08F100FB
:102CF000883158279031700829004D072A00B80004
:102D0000710829004E3D2A00B9003708F00028005C
:102D10002D08F4008031FA20903170082700EE0071
:102D20002A0036082800AE00803029004E06F00048
:102D300080307002031D9E2E78304D020318A12EA4
:102D4000EE2E27006D08013A0130031D0030F2001D
:102D50002A003708F100F136F1367108003A0130E7
:102D600003190030F0007208F0050319BB2E370874
:102D7000B600B636B63636083707F2007208B70026
:102D800027006D08003A0130031D0030F100720881
:102D9000093A0130031D0030F0007108F0050319F5
:102DA000D52E08302A00B700EB2E27006D08003A18
:102DB0000130031D0030F1002A003708113A0130BC
:102DC000031D0030F0007108F0050319EB2E1030E0
:102DD000B7000430B600ED2EEE2E432E27006E080D
:102DE0002A00C100883140259031080028003308AE
:102DF000F0003208F4008031FA20903170082A0087
:102E0000B000700828003407F40074082A00B200EB
:102E10000530F20028003208F000F10172080319B1
:102E2000152FF035F10DFF3E0F2F01307002F2002B
:102E30000030713BF30080307306F0008030700288
:102E4000031D242F740872020318322F0530F0007E
:102E500032082A00B20070080319312FB235FF3E44
:102E60002C2FB203280034082A00300203183E2F0A
:102E70003008280034022A00B3003F2FB301330882
:102E80002800B4002A003308C1008831FD239031A6
:102E90004925003029004E06031D502F00304D06F5
:102EA000031D532FDB2F4D082A00B40029004E08C4
:102EB0002A00B500280032082A003307B100310883
:102EC0003202031CD42F3108C1008831FD23903118
:102ED0004925003029004E06031D702F00304D0695
:102EE000031D732FDB2F80304E06F00080302A0048
:102EF00035067002031D7F2F340829004D02031C84
:102F00008C2F3430FC00F130FD00FD0B852FFC0BC5
:102F1000852F000000004925803029004E06F00072
:102F200080302A0035067002031D992F34082900CD
:102F30004D02031CA62F3430FC00F130FD00FD0BC8
:102F40009F2FFC0B9F2F0000000049258030290097
:102F50004E06F00080302A0035067002031DB32FA4
:102F6000340829004D020318CE2F29004D082A00ED
:102F7000B40029004E082A00B50031082800B4002A
:102F8000803029004E06F00080307002031DCA2FE9
:102F900078304D020318CD2FD42FCF2FD42F2800F7
:102FA00032082A00B1075F2F280034082A00C10028
:102FB0008831FD23903108002900EF018831EB278B
:102FC000903170082900BA007008003A031DEF2FF5
:102FD00021000D138D1322000D178D17F52F2100E1
:102FE0000D178D1722000D138D130800533457341D
:102FF00052343D3430342E343034303400340034E4
:103000006400280034086B06013003190030F10019
:103010002F086C06013003190030F0007108F0042D
:10302000031929293408EB002900DB01DC01280001
:10303000341C1F2829005908DB075A08DC3D2800EA
:10304000B41C272829005F08DB076008DC3D280046
:10305000341D2F2829005D08DB075E08DC3D2800B1
:10306000B41D372829005708DB075808DC3D280025
:10307000341E3F2829005308DB075408DC3D280094
:10308000B41E472829005108DB075208DC3D280000
:10309000341F4F2829005508DB075608DC3D29005E
:1030A0005B082A00CD0029005C082A00CE00C4304D
:1030B000CF000430D0008831AA209831290046087A
:1030C000203A031966284608BD0068283030BD0044
:1030D0002E30BE004708203A031971284708BF0068
:1030E00073283030BF004808203A03197A2848086E
:1030F000C0007C283030C0003C08043A0130031D79
:103100000030F1003C08053A0130031D0030F000AA
:103110007108F0040319BA2828002F08013A031D8A
:10312000952804302A00BB0098282A000630BB00EE
:1031300028002F086C060319AB282A003B08CD0095
:103140001030CE003530CF000430D0000830D10030
:103150008831232098312A003B08CD002830CE004A
:10316000BD30CF000430D0000430D100883123209E
:103170009831292929003C08023A0130031D00300A
:10318000F1003C08033A0130031D0030F0007108E3
:10319000F0040319F82828002F08013A031DD3284A
:1031A0002A00BB01D6282A000130BB0028002F08C6
:1031B0006C060319E9282A003B08CD000930CE002F
:1031C0003E30CF000430D0000830D10088312320B9
:1031D00098312A003B08CD000B30CE00BD30CF0027
:1031E0000430D0000430D1008831232098312929BF
:1031F00029003C08003A0319292928002F08013A20
:10320000031D05292A00BB0108292A000130BB0043
:1032100028002F086C0603191B292A003B08CD0043
:103220000930CE004830CF000430D0000730D10044
:103230008831232098312A003B08CD000B30CE0086
:10324000BD30CF000430D0000430D10088312320BD
:10325000983127006E082800470601300319003016
:10326000F1002F086C06013003190030F0007108DE
:10327000F00403193F2A27006E082800C700290020
:10328000DB01DC0127006E1C4A2929006D08DB07E1
:103290006E08DC3D2700EE1C522929006B08DB0775
:1032A0006C08DC3D27006E1D5A2929006908DB07E0
:1032B0006A08DC3D2700EE1D622929006308DB0750
:1032C0006408DC3D27006E1E6A2929006108DB07BF
:1032D0006208DC3D2700EE1E722929006708DB0723
:1032E0006808DC3D27006E1F7A2929006508DB0786
:1032F0006608DC3D29005B082A00CD0029005C0837
:103300002A00CE00C430CF000430D0008831AA207B
:10331000983129004608BD004708BE004808BF0094
:103320004908C0003C08043A0130031D0030F10098
:103330003C08053A0130031D0030F0007108F0042C
:103340000319D02928002F08013A031DAB290630A4
:103350002A00BB00AE292A000430BB0028002F0839
:103360006C060319C1292A003B08CD001030CE009D
:10337000B330CF000130D0000830D1008831232095
:1033800098312A003B08CD002830CE00BD30CF0058
:103390000430D0000430D1008831232098313F2AF6
:1033A00029003C08023A0130031D0030F1003C08BE
:1033B000033A0130031D0030F0007108F0040319D6
:1033C0000E2A28002F08013A031DEA2901302A009D
:1033D000BB00EC292A00BB0128002F086C0603194A
:1033E000FF292A003B08CD000930CE00AA30CF00CB
:1033F0000130D0000830D1008831232098312A00D4
:103400003B08CD000B30CE00BD30CF000430D000E3
:103410000430D1008831232098313F2A29003C080C
:10342000003A03193F2A28002F08013A031D1C2ADD
:1034300001302A00BB001E2A2A00BB0128002F08E9
:103440006C060319312A2A003B08CD000930CE0052
:10345000A230CF000130D0000730D10088312320C6
:1034600098312A003B08CD000B30CE00BD30CF0094
:103470000430D0000430D10088312320983164001A
:1034800028002F08EC0023003C08003A031DD92A2D
:1034900029003C08043A0130031D0030F1003C08CB
:1034A000053A0130031D0030F0007108F0040319E3
:1034B000972A23003F080130031D0030F000400828
:1034C000F0050319712A2A00CD017030CE00BD30FD
:1034D000CF000130D0000130D10088312320983155
:1034E000962A230040080130031D0030F0003F08F9
:1034F000F0050319892A2A00CD017030CE00EE3084
:10350000CF000030D0000130D10088312320983125
:10351000962A2A00CD017030CE00EC30CF0000306A
:10352000D0000130D100883123209831D92A2900D8
:103530003C08003A0319D92A23003F080130031D33
:103540000030F0004008F0050319B42A2A00CD012C
:103550000830CE00EA30CF000030D0000130D1007A
:10356000883123209831D92A230040080130031DD7
:103570000030F0003F08F0050319CC2A2A00CD01E5
:103580000830CE006E30CF000130D0000130D100C5
:10359000883123209831D92A2A00CD010830CE0065
:1035A000A030CF000130D0000130D100883123207D
:1035B00098316400080028002E08F0002D08F4005F
:1035C0008031FA20983170082A00B0007008270076
:1035D0006E07F40074082A00B2000530F2002800DB
:1035E0002D08F000F10172080319FA2AF035F10DE7
:1035F000FF3EF42A01307002F2000030713BF3000C
:1036000080307306F00080307002031D092B7408AF
:1036100072020318172B0530F0002D082A00B200A3
:1036200070080319162BB235FF3E112BB203270089
:103630006E082A0030020318232B300827006E0280
:103640002A00B300242BB30133082700EE002A0020
:103650003308C1008831402598319031492598318F
:10366000003029004E06031D372B00304D06031D88
:103670003A2BC82B4D082A00B40029004E082A0016
:10368000B50028002D082A003307B10031083202A6
:10369000031CC12B3108C10088314025983190317D
:1036A00049259831003029004E06031D592B003062
:1036B0004D06031D5C2BC82B80304E06F000803079
:1036C0002A0035067002031D682B340829004D02BC
:1036D000031C772B3430FC00F130FD00FD0B6E2B0A
:1036E000FC0B6E2B00000000903149259831803092
:1036F00029004E06F00080302A0035067002031DB6
:10370000842B340829004D02031C932B3430FC0019
:10371000F130FD00FD0B8A2BFC0B8A2B0000000012
:10372000903149259831803029004E06F0008030D4
:103730002A0035067002031DA02B340829004D0213
:103740000318BB2B29004D082A00B40029004E089D
:103750002A00B50031082700EE00803029004E060F
:10376000F00080307002031DB72B78304D02031833
:10377000BA2BC12BBC2BC12B28002D082A00B10766
:10378000462B27006E082A00C10088314025983159
:10379000080028003008013A031DD22B01302A000E
:1037A000B000D52B2A000330B000B2013008280049
:1037B000B30003302A00B3001430F4000030F500E9
:1037C00029004D08F0004E08F10088315827983143
:1037D000700829004D072A00B400710829004E3DE9
:1037E0002A00B500B1012A0031081F3C031CA92C96
:1037F0003108F00028003208F4008031FA209831B6
:1038000070082A00C1008831FD23983190310B26C1
:103810009831903149259831003029004E06031D1A
:10382000132C00304D06031D162CC82C80304E067C
:10383000F00080302A0035067002031D222C340867
:1038400029004D020318A72C29001430F400003081
:10385000F5004D08F0004E08F100883158279831E6
:10386000700829004D072A00B400710829004E3D58
:103870002A00B5003108F00028003208F400803139
:10388000FA20983170082800B40027006E082A003A
:10389000B20030082800B3002E082A00B3008030A0
:1038A00029004E06F00080307002031D592C78303C
:1038B0004D0203185C2CA92C28003008013A013075
:1038C000031D0030F2002A003108F100F136F13614
:1038D0007108003A013003190030F0007208F00559
:1038E0000319762C3108B000B036B03630083107F5
:1038F000F2007208B10028003008003A0130031DC0
:103900000030F1007208093A0130031D0030F00068
:103910007108F0050319902C08302A00B100A62C7C
:1039200028003008003A0130031D0030F1002A0061
:103930003108113A0130031D0030F0007108F00524
:103940000319A62C1030B1000430B000A82CA92C0B
:10395000F32B2A0032082700EE00280034082A0042
:10396000C1008831FD23983127006E082A00C1006C
:1039700088314025983133082800AE003430FC00EF
:10398000F130FD00FD0BC22CFC0BC22C000000002E
:10399000080029004D082A00AA0029004E082A0024
:1039A000AB00C923003029004E06031DD92C00307E
:1039B0004D06031DDF2C883147269831412E90316A
:1039C00049259831803029004E06F0008030700281
:1039D000031DEC2C78304D020318EF2C412E903152
:1039E000F6269831003029004E06031DF92C0030D0
:1039F0004D06031DFF2C883147269831412E90310A
:103A000049259831803029004E06F0008030700240
:103A1000031D0C2D78304D0203180F2D412EDB2293
:103A2000003029004E06031D172D00304D06031DE2
:103A30001D2D883147269831412E903149259831E6
:103A4000803029004E06F00080307002031D2A2DC0
:103A500078304D0203182D2D412E80304E06F10096
:103A600080307102031D362DC8304D02013003181D
:103A70000030F10080304E06F00080302A002B0626
:103A80007002031D462D2A0829004D02290001302D
:103A900003180030F00070087105F3004D082A008B
:103AA0002A02F10029004E082A002B3BF200803048
:103AB000F000803072067002031D602D7108643CB6
:103AC000013003180030F0007308F0050319692D68
:103AD000412E29004D082A00AA0029004E082A007C
:103AE000AB00280034082A00AC00AD0127006E08A6
:103AF0002A00AE00AF0128002F08013A031D822DD5
:103B0000AF01842D0130AF0088314726983128005D
:103B10002F082A00BB0088317B2698310230FB0039
:103B20000430FC00BA30FD00FD0B942DFC0B942DED
:103B3000FB0B942D000090314925983180302900ED
:103B40004E06F00080307002031DA82D78304D0223
:103B50000318AB2D412EC923003029004E06031D4A
:103B6000B32D00304D06031DB92D883147269831FD
:103B7000412E903149259831803029004E06F000C1
:103B800080307002031DC62D78304D020318C92DF8
:103B9000412E9031F6269831003029004E06031D43
:103BA000D32D00304D06031DD92D8831472698317D
:103BB000412E903149259831803029004E06F00081
:103BC00080307002031DE62D78304D020318E92D78
:103BD000412EDB22003029004E06031DF12D00305E
:103BE0004D06031DF72D883147269831412E90311F
:103BF00049259831803029004E06F000803070024F
:103C0000031D042E78304D020318072E412E8030FC
:103C10002A002B06F000803029004E067002031D9A
:103C2000142E4D082A002A020318402E28002F08BF
:103C3000013A031D1D2EAF011F2E0130AF002F08CA
:103C40002A00BB0088317B2698312C082800B4005C
:103C50002A002E082700EE002A002C08C100883117
:103C6000FD23983127006E082A00C10088314025C5
:103C700098312A082900CD002A002B082900CE00FF
:103C800064000800640020002B08053A031D4C2E38
:103C900001302800B2005D2E20002B08063A031DDB
:103CA000552E02302800B2005D2E20002B08073A66
:103CB000031D5D2E04302800B20020002A08053ABA
:103CC000031D662E01302800AD00772E20002A0843
:103CD000063A031D6F2E02302800AD00772E20001B
:103CE0002A08073A031D772E04302800AD0028006B
:103CF000ED012A00A001A1012800E701903149252A
:103D00009831803029004E06F00080307002031D8B
:103D10008B2E6E304D0203188E2E242F88314726AD
:103D2000983100200230FB000430FC00BA30FD0066
:103D3000FD0B982EFC0B982EFB0B982E000090315B
:103D400049259831803029004E06F00080307002FD
:103D5000031DAC2E6E304D020318AF2E242F803081
:103D6000F100803028006F067102031DB92E6E0825
:103D70006E3C013003180030F10080306F06F00017
:103D8000803029004E067002031DC92E4D08280000
:103D90006E02013003180030F0007108F0050319BD
:103DA000D22E242FC924003029004E06031DDA2EFE
:103DB00000304D06031DE02E883147269831242F10
:103DC000803029004E06F00080307002031DEA2E7C
:103DD00078304D020318ED2E242F20002A08053AD2
:103DE0000130031D0030F1002B08053A0130031D9E
:103DF0000030F0007108F0050319FF2E242F2B0866
:103E0000053C03180B2F28003208B3000130B20024
:103E10009031F6269831803029004E06F00080302F
:103E20007002031D152F78304D020318182F242F10
:103E300020002A08053C0318232F28002D08AE0077
:103E40000130AD00DB2264000800640029003C085A
:103E5000003A031D2E2F22000D178D1729003C0854
:103E6000043A0130031D0030F1003C08053A0130EE
:103E7000031D0030F0007108F00403194E2F0230CA
:103E80002A00CD004030CE005430CF000330D000A7
:103E90000430D100883123209831612F29003C085B
:103EA000003A0319612F01302A00CD000430CE0002
:103EB0005930CF000330D0000430D10088312320A6
:103EC00098314226FF302A00BB0027006E082A00E6
:103ED000BC0088315D269831FE302A00BB002800E6
:103EE00034082A00BC0088315D269831FD302A0054
:103EF000BB0028002F082A00BC0088315D269831BD
:103F000029003C08003A031DA52F8030F0008030C6
:103F10004E067002031D8E2F4D08963C031C932FF6
:103F200022000D13A52F8030F000803029004E06AE
:103F30007002031D9D2F4D08FA3C031CA32F200087
:103F40000D138D13A52F20008D1310302800E800CD
:103F50002730E9001030A0002730A1009031D42193
:103F6000983129004D082800AB0029004E08280090
:103F7000AC00002022008C130C17640008006400C1
:103F80002100971217169711171597106400230038
:103F90008C010C148C148D01220091139313783032
:103FA0002100990020008C018D018E0122008C01DE
:103FB0008D018E01033021008C0007308D008E01B1
:103FC0008031F02798311E149E14951324000D148F
:103FD0008D140D158B130800203420342034203428
:103FE00020342034203420340034533457345234B5
:103FF0003D34203420342034203400340034003464
:10400000640029003C08043A0130031D0030F1002F
:104010003C08053A0130031D0030F0007108F0043F
:104020000319742827006F08003A031D25282A0069
:10403000CD011030CE00A030CF000330D0000830CA
:10404000D10088312320A03132282A00CD01103040
:10405000CE006730CF000330D0000830D100883167
:104060002320A03102302A00CD001030CE005E3077
:10407000CF000330D0000830D10088312320A03198
:1040800004302A00CD001030CE00AB30CF0002301B
:10409000D0000830D10088312320A03106302A001A
:1040A000CD001030CE00A230CF000230D00008305A
:1040B000D10088312320A03123003C080130031DAA
:1040C0000030F0004008F005031973282A00CD01E4
:1040D0007030CE00A030CF000230D0000130D100CF
:1040E00088312320A031F72829003C08003A031921
:1040F000F72827006F08003A031D8B282A00CD01FE
:10410000CE01B430CF000230D0000830D100883169
:104110002320A03197282A00CD01CE01CE30CF0038
:104120000230D0000830D10088312320A031013086
:104130002A00CD00CE01C530CF000230D0000830BB
:10414000D10088312320A03129003C08013A031D09
:10415000C5282A00CD010930CE00BD30CF00023085
:10416000D0000730D10088312320A03101302A004F
:10417000CD000930CE006230CF000230D0000730D1
:10418000D10088312320A031E0282A00CD01093058
:10419000CE005930CF000230D0000830D100883135
:1041A0002320A03101302A00CD000930CE0050304C
:1041B000CF000230D0000830D10088312320A03158
:1041C00023003C080130031D0030F0004008F005DA
:1041D0000319F7282A00CD010830CE006A30CF003D
:1041E0000230D0000130D10088312320A03164009A
:1041F0002800EB01C70198310020A0310800803170
:104200000320A03129003A082A00E600803122204C
:10421000A0312A00E60180312220A031AE302A00F0
:10422000E60080312220A03129003008023A013016
:10423000031D0030F1003008033A0130031D003047
:10424000F0007108F0040319DB29D5302A00E600DC
:1042500080312220A03180302A00E60080312220E7
:10426000A031A8302A00E60080312220A0313F3062
:104270002A00E60080312220A031D3302A00E60057
:1042800080312220A03129003008023A031D4F2935
:1042900032082A00E60080312220A0315729290067
:1042A00032081F3E2A00E60080312220A031403033
:1042B0002A00E60080312220A0318D302A00E6005D
:1042C00080312220A03114302A00E60080312220E3
:1042D000A03181302A00E60080312220A031B430A4
:1042E0002A00E60080312220A031D9302A00E600E1
:1042F00080312220A03122302A00E60080312220A5
:10430000A03120302A00E60080312220A031023086
:104310002A00E60080312220A03121302A00E60068
:1043200080312220A0312A00E60180312220A031F4
:104330007F302A00E60080312220A0312E302A0072
:10434000E60080312220A03129003008023A031D06
:10435000B629A0302A00E60080312220A031C030EA
:104360002A00E60080312220A031C229A1302A0093
:10437000E60080312220A031C8302A00E6008031DA
:104380002220A031DA302A00E60080312220A0313C
:1043900002302A00E60080312220A031DB302A00E2
:1043A000E60080312220A03140302A00E600803132
:1043B0002220A031832AD5302A00E6008031222035
:1043C000A03180302A00E60080312220A031A830C0
:1043D0002A00E60080312220A0313F302A00E6008A
:1043E00080312220A031D3302A00E6008031222003
:1043F000A031290032082A00E60080312220A031B5
:1044000040302A00E60080312220A0318D302A0081
:10441000E60080312220A03114302A00E6008031ED
:104420002220A03181302A00E60080312220A031F4
:10443000FF302A00E60080312220A031D9302A0046
:10444000E60080312220A031F1302A00E6008031E0
:104450002220A03120302A00E60080312220A03125
:1044600002302A00E60080312220A03121302A00CB
:10447000E60080312220A0312A00E601803122208E
:10448000A0317F302A00E60080312220A0312E307A
:104490002A00E60080312220A03129003008043AA9
:1044A000031D5F2AA0302A00E60080312220A031BF
:1044B000C0302A00E60080312220A0316B2AA130D2
:1044C0002A00E60080312220A031C8302A00E60010
:1044D00080312220A031DA302A00E600803122200B
:1044E000A03112302A00E60080312220A031DB30DA
:1044F0002A00E60080312220A03140302A00E60068
:1045000080312220A031A4302A00E6008031222010
:10451000A031A6302A00E60080312220A03180316F
:104520009A20A0310330FB000830FC007730FD00FA
:10453000FD0B982AFC0B982AFB0B982A803103204C
:10454000A03129003A082A00E60080312220A0315B
:1045500040302A00E60080312220A03129003008B6
:10456000023A0130031D0030F1003008033A0130F7
:10457000031D0030F0007108F0040319DD2A2A0041
:10458000A8012808033C031CDC2A2808E100E201FA
:104590008031B320A0312900EF01290080306F0263
:1045A0000318D92AEF0A2A00E60180312220A0311F
:1045B000CD2A2A00A80AC12AFA2A2A00A801280816
:1045C000073C031CFA2A2808E100E2018031B320ED
:1045D000A0312900EF01290080306F020318F72A6B
:1045E000EF0A2A00E60180312220A031EB2A2A00BE
:1045F000A80ADF2A80319A20A031AF302A00A90012
:104600008831BE27A03108000D302A00CD000030CF
:10461000CE00CF013230D000D1018831BE23A0318D
:1046200070080319BC2B0630FB001330FC00AD30C2
:10463000FD00FD0B192BFC0B192BFB0B192B00009C
:104640000000640020000D1C382B28002F08003AC1
:10465000031D2D2B0130AF002E2BAF012F082A0098
:10466000BB0088317B26A03198310020A031A82BD7
:1046700025005908013A031D3F2BD901412B013078
:10468000D9005908013A031D772B29003C08043A48
:104690000130031D0030F1003C08053A0130031DD4
:1046A0000030F0007108F0040319642B2A00CD01DA
:1046B0007030CE00D730CF000230D0000130D100B2
:1046C00088312320A031762B29003C08003A0319B9
:1046D000762B2A00CD010830CE00DC30CF0002302E
:1046E000D0000130D10088312320A031A82B29002F
:1046F0003C08043A0130031D0030F1003C08053A43
:104700000130031D0030F0007108F0040319962BEE
:104710002A00CD017030CE00E130CF000230D00051
:104720000130D10088312320A031A82B29003C087A
:10473000003A0319A82B2A00CD010830CE00DF3043
:10474000CF000230D0000130D10088312320A031C9
:104750000D302A00CD000030CE00CF013230D00025
:10476000D1018831BE23A03170080319BC2B9031D0
:10477000D421A0316400A82B0D302A00CD000030D8
:10478000CE000230CF003230D000D1018831BE23BC
:10479000A03170080319472C64002A000D30CD00A9
:1047A0000030CE000230CF003230D000D10188314D
:1047B000BE23A03170080319472C0530F2002800F1
:1047C0003208F000F10172080319EA2BF035F10DFF
:1047D000FF3EE42B01307002F2000030713BF30029
:1047E0008030F000803073067002031DFA2B280021
:1047F00072083402013003180030F0002500590817
:10480000F00503190C2C2800B40A34082A00C10052
:104810008831FD23A0313F2C250059080130031DAC
:104820000030F4000530F20028003208F000F101F9
:10483000720803191F2CF035F10DFF3E192C0130C1
:104840007002F2000030713BF3008030F0008030E5
:1048500073067002031D2F2C720827006E020130B0
:1048600003180030F0007408F00503193F2C2700EE
:10487000EE0A6E082A00C10088314025A031983127
:104880000020A0319031D421A0316400CD2B0D3017
:104890002A00CD000030CE000130CF003230D000F1
:1048A000D1018831BE23A03123003F08003A0130F6
:1048B000031D0030F1007108F0050319A52C6400F8
:1048C0000D302A00CD000030CE000130CF00323054
:1048D000D000D1018831BE23A03170080319A52C66
:1048E00028003408003C013003180030F000250097
:1048F0005908F0050319852C2800B40334082A0050
:10490000C1008831FD23A0319D2C250059080130BC
:10491000031D0030F10027006E08003C0130031831
:104920000030F0007108F00503199D2CEE036E08AD
:104930002A00C10088314025A03198310020A031E3
:104940009031D421A0316400602C0800640029005B
:104950003C08043A0130031D0030F1003C08053AE0
:104960000130031D0030F0007108F0040319E62D3A
:104970002A00CD011630CE002230CF000030D0000A
:104980000730D10088312320A03102302A00CD0029
:104990000630CE002C30CF000030D0000930D100DE
:1049A00088312320A03104302A00CD001030CE0001
:1049B0004A30CF000030D0000830D10088312320A9
:1049C000A0310630FC003030FD00FD0BE52CFC0B67
:1049D000E52C000004302A00CD001030CE004A3013
:1049E000CF000030D0000830D10088312320A03122
:1049F0000630FC003030FD00FD0BFC2CFC0BFC2CC9
:104A0000000004302A00CD001030CE004A30CF0024
:104A10000030D0000830D10088312320A03106308A
:104A2000FC003030FD00FD0B132DFC0B132D00009E
:104A300006302A00CD000430CE003F30CF000030D9
:104A4000D0000A30D10088312320A03164000D301D
:104A5000FB002D30FC00D730FD00FD0B2D2DFC0B95
:104A60002D2DFB0B2D2D0000000064000B30FB00F2
:104A70002630FC005D30FD00FD0B3C2DFC0B3C2D79
:104A8000FB0B3C2D0000000064002A00CD0110301B
:104A9000CE003630CF000030D0000830D100883151
:104AA0002320A03102302A00CD000430CE003F3058
:104AB000CF000130D0000A30D10088312320A0314E
:104AC00004302A00CD001030CE003630CF00013047
:104AD000D0000830D10088312320A03106302A00D0
:104AE000CD000430CE002B30CF000130D0000A3092
:104AF000D10088312320A0310430FB000C30FC00B1
:104B00003330FD00FD0B822DFC0B822DFB0B822D23
:104B10000000000027006F08013A031D9D2D2A00A8
:104B2000CD011030CE004A30CF000130D000083027
:104B3000D10088312320A031AA2D2A00CD011030C8
:104B4000CE006530CF000130D0000830D100883170
:104B50002320A03102302A00CD001030CE005C307E
:104B6000CF000130D0000830D10088312320A0319F
:104B700004302A00CD001030CE005330CF00013079
:104B8000D0000830D10088312320A03106302A001F
:104B9000CD001030CE00C330CF000030D000083040
:104BA000D10088312320A031230040080319E52DCE
:104BB0002A00CD017030CE006D30CF000030D00023
:104BC0000130D10088312320A031332F29003C0847
:104BD000003A0319332F2A00CD010430CE00BB3038
:104BE000CF000030D0000730D10088312320A03121
:104BF00001302A00CD000330CE00CC30CF00003091
:104C0000D0000930D10088312320A03164000F305A
:104C1000FB003530FC005130FD00FD0B0D2EFC0B70
:104C20000D2EFB0B0D2E64000B30FB002630FC001C
:104C30005D30FD00FD0B1A2EFC0B1A2EFB0B1A2EFD
:104C40000000000064002A00CD010430CE004A308C
:104C5000CF000030D0000830D10088312320A031AF
:104C60000630FC003030FD00FD0B342EFC0B342EE2
:104C700000002A00CD010430CE004A30CF000030C1
:104C8000D0000830D10088312320A0310630FC004C
:104C90003030FD00FD0B4A2EFC0B4A2E00002A008E
:104CA000CD010430CE004A30CF000030D0000830B3
:104CB000D10088312320A0310630FC003030FD00C7
:104CC000FD0B602EFC0B602E000001302A00CD0091
:104CD0000330CE002030CF000130D0000A30D100A8
:104CE00088312320A03164000D30FB002D30FC0002
:104CF000D730FD00FD0B7A2EFC0B7A2EFB0B7A2EA3
:104D00000000000064000B30FB002630FC005D302A
:104D1000FD00FD0B892EFC0B892EFB0B892E00005C
:104D2000000064002A00CD010430CE00E130CF0045
:104D30000030D0000830D10088312320A03101306C
:104D40002A00CD000330CE00D630CF000030D00096
:104D50000A30D10088312320A0310430FB000C3010
:104D6000FC003330FD00FD0BB32EFC0BB32EFB0B10
:104D7000B32E0000000027006F08013A031DCD2E5E
:104D80002A00CD01CE012930CF000330D0000830F9
:104D9000D10088312320A031D92E2A00CD01CE01A7
:104DA0002030CF000330D0000830D10088312320DC
:104DB000A03101302A00CD00CE01E330CF00023017
:104DC000D0000830D10088312320A03129003C08D0
:104DD000013A031D072F2A00CD010930CE003230E1
:104DE000CF000330D0000730D10088312320A0311C
:104DF00001302A00CD000930CE004C30CF00033006
:104E0000D0000730D10088312320A031222F2A0082
:104E1000CD010930CE004330CF000330D000083040
:104E2000D10088312320A03101302A00CD00093083
:104E3000CE003A30CF000330D0000830D1008831A6
:104E40002320A031230040080319332F2A00CD016D
:104E50000830CE00DA30CF000230D0000130D1006F
:104E600088312320A0316400080001302900EF00C0
:104E70008831EB27A03170082900B0000730EF001F
:104E80008831EB27A03170082900B2000830EF000C
:104E90008831EB27A03170082900B1003008013AB1
:104EA0000319542FFF20C32F01302900B900BB0183
:104EB00003302A00D70080313523A0311A30FC009E
:104EC000F830FD00FD0B622FFC0B622F0000033059
:104ED0002A00D70080313523A0310630FC00303065
:104EE000FD00FD0B712FFC0B712F000003302A0019
:104EF000D70080313523A03102302A00D70080311D
:104F00003523A03102302A00D70080313523A0316B
:104F100008302A00D70080313523A0312A00D7017C
:104F200080313523A03108302A00D7008031352365
:104F3000A0312A00D70180313523A03101302A0069
:104F4000D70080313523A0311A30FC00F830FD0045
:104F5000FD0BA82FFC0BA82F00002A00D7018031E1
:104F60003523A03106302A00D70080313523A03107
:104F70002A00D70180313523A0310C302A00D70018
:104F800080313523A03108005034573452343D3439
:104F900030342E3430345734003450345734523493
:104FA0003D34203420343034573400344C343D34D4
:104FB00030342E34303430347534003443343D349E
:104FC00020342034203430347034463400344C34AF
:104FD0003D3430342E343034303475344834003479
:104FE00043343D34203420342034303470340034A1
:104FF000543455344E34453400340134FD340134D6
:105000000D302A00CD000030CE00CF013230D0006C
:10501000D1018831BE23A83124003408F0040319DB
:105020005B2822008C170C130630FB001330FC00A9
:10503000AD30FD00FD0B1A28FC0B1A28FB0B1A28BB
:1050400000000000640024003408003A0130031D11
:105050000030F10020000D182F2803103028031411
:10506000F0010318F00A7108F00503193D28883192
:105070008D26A8312300BF01582898312527A83153
:105080002300BF010D302A00CD000030CE00CF013B
:105090003230D000D1018831BE23A8317008031905
:1050A00056289031D421A831640042282400B4014C
:1050B00098310020A8310D302A00CD000030CE00FC
:1050C0000230CF003230D000D1018831BE23A83168
:1050D00070080319E128640023003F08003A031D0B
:1050E000A2280130BF0027006E082400EE0028002F
:1050F00034082400ED0028002F082400EC002700CD
:10510000EE012800B4010130AF002A00C10188314E
:10511000FD23A83127006E082A00C10088314025F0
:10512000A83128002F082A00BB0088317B26A8312F
:10513000230040082400EF002300C0019831002024
:10514000A831CC282300BF0124006E082700EE0000
:1051500024006D082800B40024006C082800AF006B
:1051600024006E082A00C10088314025A83128009B
:1051700034082A00C1008831FD23A83128002F08F7
:105180002A00BB0088317B26A83124006F08230049
:10519000C00098310020A8310D302A00CD00003029
:1051A000CE000230CF003230D000D1018831BE2392
:1051B000A83170080319E1289031D421A831640086
:1051C000CC280D302A00CD000030CE000130CF00B9
:1051D0003230D000D1018831BE23A83123003F08EE
:1051E000003A0130031D0030F1007108F005031989
:1051F000242964004008003A031D01290130C00041
:105200000229C00102302A00BB00230040082A0006
:10521000BC0088315D26A83198310020A8310D30BE
:105220002A00CD000030CE000130CF003230D00057
:10523000D1018831BE23A831700803192429903187
:10524000D421A83164000F2908006400013029002E
:10525000EF008831EB27A83170082900BC0002302C
:10526000EF008831EB27A8317008013A031D3A2975
:105270000130C00003302900EF008831EB27A8314E
:1052800070082900EF008831D827A8317008CF00B6
:10529000D0010430EF008831EB27A83170082900D5
:1052A000EF008831D827A8310A30F4008031FA2085
:1052B000A83170082900AE007108AF000530EF007A
:1052C0008831EB27A83170082900EF008831D827F2
:1052D000A8310A30F4008031FA20A83170082A0081
:1052E000A4007108A50006302900EF008831EB27E3
:1052F000A83170082900EF008831D827A8310A307A
:10530000F4008031FA20A83170082A00A200710848
:10531000A30009302900EF008831EB27A83170087D
:105320002900EF008831D827A8310A30F4008031F5
:10533000FA20A83170082800EE007108EF000A304A
:105340002900EF008831EB27A83170082000AB005E
:105350000B302900EF008831EB27A83170082800B6
:10536000B0000C302900EF008831EB27A83170081D
:105370002000AA000D302900EF008831EB27A8316A
:1053800070082700ED000E302900EF008831EB2770
:10539000A83170082800EA000F302900EF0088319A
:1053A000EB27A83170082800B100640010302900F4
:1053B000EF008831EB27A83170082900EF00883111
:1053C000D827A8316430F4008031FA20A831700861
:1053D0002A00A6007108A70011302900EF008831CB
:1053E000EB27A83170082900EF008831D827A831B1
:1053F00070082A0026072900D90000302A00273D1E
:105400002900DA001230EF008831EB27A83170084C
:105410002900EF008831D827A8316430F4008031AA
:10542000FA20A83170082A00A6007108A7001330DE
:105430002900EF008831EB27A83170082900EF0020
:105440008831D827A83170082A0026072900DF00F4
:1054500000302A00273D2900E0001430EF00883199
:10546000EB27A83170082900EF008831D827A83130
:105470006430F4008031FA20A83170082A00A600B8
:105480007108A70015302900EF008831EB27A831FB
:1054900070082900EF008831D827A83170082A0049
:1054A00026072900DD0000302A00273D2900DE0004
:1054B0001630EF008831EB27A83170082900EF0083
:1054C0008831D827A8316430F4008031FA20A8311F
:1054D00070082A00A6007108A70017302900EF0005
:1054E0008831EB27A83170082900EF008831D827D0
:1054F000A83170082A0026072900D70000302A00AA
:10550000273D2900D8001830EF008831EB27A8315B
:1055100070082900EF008831D827A8316430F400E2
:105520008031FA20A83170082A00A6007108A7006F
:1055300019302900EF008831EB27A83170082900C5
:10554000EF008831D827A83170082A0026072900E3
:10555000D30000302A00273D2900D4001A30EF0084
:105560008831EB27A83170082900EF008831D8274F
:10557000A8316430F4008031FA20A83170082A0084
:10558000A6007108A7001B302900EF008831EB2727
:10559000A83170082900EF008831D827A831700899
:1055A0002A0026072900D10000302A00273D2900C3
:1055B000D2001C30EF008831EB27A8317008290099
:1055C000EF008831D827A8316430F4008031FA2008
:1055D000A83170082A00A6007108A7001D30290014
:1055E000EF008831EB27A83170082900EF008831DF
:1055F000D827A83170082A0026072900D5000030D6
:105600002A00273D2900D6002030EF008831EB2703
:10561000A83170082900EF008831D827A8316430FC
:10562000F4008031FA20A83170082A00A600710821
:10563000A70021302900EF008831EB27A83170083E
:105640002900EF008831D827A83170082A002607E2
:105650002900ED0000302A00273D2900EE0022300D
:10566000EF008831EB27A83170082900EF0088315E
:10567000D827A8316430F4008031FA20A8317008AE
:105680002A00A6007108A70023302900EF00883106
:10569000EB27A83170082900EF008831D827A831FE
:1056A00070082A0026072900EB0000302A00273D59
:1056B0002900EC002430EF008831EB27A831700876
:1056C0002900EF008831D827A8316430F4008031F8
:1056D000FA20A83170082A00A6007108A70025301A
:1056E0002900EF008831EB27A83170082900EF006E
:1056F0008831D827A83170082A0026072900E90038
:1057000000302A00273D2900EA002630EF008831CA
:10571000EB27A83170082900EF008831D827A8317D
:105720006430F4008031FA20A83170082A00A60005
:105730007108A70027302900EF008831EB27A83136
:1057400070082900EF008831D827A83170082A0096
:1057500026072900E30000302A00273D2900E40045
:105760002830EF008831EB27A83170082900EF00BE
:105770008831D827A8316430F4008031FA20A8316C
:1057800070082A00A6007108A70029302900EF0040
:105790008831EB27A83170082900EF008831D8271D
:1057A000A83170082A0026072900E10000302A00ED
:1057B000273D2900E2002A30EF008831EB27A8318D
:1057C00070082900EF008831D827A8316430F40030
:1057D0008031FA20A83170082A00A6007108A700BD
:1057E0002B302900EF008831EB27A8317008290001
:1057F000EF008831D827A83170082A002607290031
:10580000E70000302A00273D2900E8002C30EF0097
:105810008831EB27A83170082900EF008831D8279C
:10582000A8316430F4008031FA20A83170082A00D1
:10583000A6007108A7002D302900EF008831EB2762
:10584000A83170082900EF008831D827A8317008E6
:105850002A0026072900E50000302A00273D2900FC
:10586000E6003030EF008831EB27A83170082700C0
:10587000EF006400080029003C08043A0130031DD1
:105880000030F1003C08053A0130031D0030F00003
:105890007108F00403195A2C2A00CD010A30CE00F9
:1058A000C530CF000330D0000930D100883123202B
:1058B000A8316C2C29003C08003A03196C2C2A00F2
:1058C000CD010330CE00E330CF000330D0000930EB
:1058D000D10088312320A83164000B30FB00263032
:1058E000FC005D30FD00FD0B732CFC0B732CFB0BDF
:1058F000732C0000000064000B30FB002630FC001D
:105900005D30FD00FD0B822CFC0B822CFB0B822CEE
:105910000000000064000B30FB002630FC005D300E
:10592000FD00FD0B912CFC0B912CFB0B912C00002E
:10593000000064000B30FB002630FC005D30FD00F1
:10594000FD0BA02CFC0BA02CFB0BA02C00000000DE
:10595000640029003C08043A0130031D0030F100C6
:105960003C08053A0130031D0030F0007108F004D6
:105970000319C82C2A00CD010A30CE00D930CF003F
:105980000330D0000930D10088312320A831DA2C2F
:1059900029003C08003A0319DA2C2A00CD01033013
:1059A000CE00CF30CF000330D0000930D100883195
:1059B0002320A83188314726A83101302800AF00C4
:1059C00001302A00BB0088317B26A831FF30BB00A4
:1059D00027006E082A00BC0088315D26A831FE3001
:1059E0002A00BB00280034082A00BC0088315D264C
:1059F000A831FD302A00BB0028002F082A00BC0077
:105A000088315D26A83101302800AF0029003C080C
:105A1000043A0130031D0030F1003C08053A013022
:105A2000031D0030F0007108F0040319252D2A0031
:105A3000CD017030CE00EE30CF000230D00001300A
:105A4000D10088312320A831372D29003C08003AA5
:105A50000319372D2A00CD010830CE00EC30CF00DD
:105A60000230D0000130D10088312320A831A0318C
:105A70000020A8310800B0312223A831031A432D99
:105A800001302500DE0022000C17553027003D07AD
:105A90002000CA002D30270044072000D100983193
:105AA000BF27A831723027003E072000CB003230DC
:105AB000270043072000D0000330FB000830FC0023
:105AC0007730FD00FD0B622DFC0B622DFB0B622D70
:105AD00064001E3027003F072000CC003B30270029
