:1000000086EF27F00000000000EF00F00000000085
:100010000000000000000000F3D7FFFF03011451AF
:10002000000A30E0016A015007081AE39FBF02D0BE
:10003000939E01D0938E060E0D6E0D2EFED70000FE
:10004000938C060E0D6E0D2EFED70000939C060EAF
:100050000D6E0D2EFED700009F379F91012AE3D72A
:10006000938E060E0D6E0D2EFED70000938C060E9D
:100070000D6E0D2EFED70000939C060E0D6E0D2EFC
:10008000FED70000120003011451000A18E0938CFF
:10009000060E0D6E0D2EFED70000938E060E0D6E11
:1000A0000D2EFED70000939E060E0D6E0D2EFED770
:1000B0000000939C060E0D6E0D2EFED70000120060
:1000C000086A096A100E0C6E0134083609360450AD
:1000D000085E0550D8A0053C095ED8B007D0045092
:1000E00008260550D8B0053C0926D89000360136C0
:1000F0000C2EEAD712000AAE029E000E1200030177
:100100001E519B259E6FBFDF14C39FF387DF9F6B3C
:1001100085DF9A51B00F9F6F81DF9E510F0804E376
:100120009EC39CF39D6B19D09EC302F00232029EC7
:100130000232029E0232029E0232029E02C09DF3F1
:1001400002C000F0003600900036009000360090AB
:100150000036009000509E5D9C6F9CC39FF35EDF55
:100160009D51100F9F6F5ADF8EDF14C39FF356DF30
:10017000400E9F6F53DF120003011451000A12E07A
:10018000939E060E0D6E0D2EFED70000938C060E6C
:100190000D6E0D2EFED70000938E060E0D6E0D2EE9
:1001A000FED7000012000B840BAEDEEF00F0010E54
:1001B000036E026A016A006A0A360232FF0E1200FA
:1001C000220E0C6E086A096A0A6A0B6A0C06D8B419
:1001D0001FD0D8900B320A32093208320332023271
:1001E00001320032D8A0F2D70C06D8B409D004509E
:1001F00008260550092206500A2207500B22EAD78A
:10020000045008260550092206500A2207500B22E6
:100210001200026A016A006A086A036A000E12008C
:10022000A00E0301926F0F0E936F000E946F956FE7
:10023000A00E006E0F0E016E000E026E000E036E19
:1002400090C304F091C305F0000E066E076EB8DF90
:1002500000C092F301C093F302C094F303C095F37E
:10026000000E035C08E1000E025C05E1020E015C79
:1002700002E1940E005C01E231D0940E925F020E16
:10028000935B000E945B955B050E006E005007E0DB
:100290009533943393339233959FFF0FF8D792C3DE
:1002A00000F093C301F094C302F095C303F0010E74
:1002B000925F000E935B945B955B005001100210FF
:1002C00003100CE00000000000000000000000002F
:1002D00000000000000000000000E1D712000B80C9
:1002E0000BAE7BEF01F0026A0AAEFF0E026E016EEA
:1002F000006E0A360232FF0E12000301946B050EE7
:10030000945D0AE294519225E16E000E9321E26E13
:10031000200EE66E942BF3D794519225E16E000ED9
:100320009321E26EE66A940794519225956F000E30
:100330009321966F0A0E046E000E056E90C300F0B6
:1003400091C301F0BDDE08C000F009C001F0300E1D
:10035000002695C3E1FF96C3E2FF00C0E6FF0A0E48
:10036000046E000E056E90C300F091C301F0A8DE8C
:1003700000C090F301C091F3000E011802E1000EDD
:10038000001801E102D09407CFD712007CDE14C31D
:100390009FF344DE400E9F6F41DE91C39AF390C3FA
:1003A0009BF3ADDE956B9451955DD8B0AFD0955170
:1003B0009225E96E000E9321EA6EEE50000A02E1EA
:1003C000976B09D095519225E96E000E9321EA6E44
:1003D000200EEE5C976F966B96510408D8A090D0D3
:1003E000050E9703F3CF00F0F4CF01F096510026ED
:1003F000000E0122B10E0024F66E540E0120F76E9D
:10040000000EF86E000E01BEFF0EF8220900F5CFB7
:1004100098F39151020A000ED8A4010E016E915179
:10042000040A000ED8A4010E006E0050011691516E
:10043000060A000ED8A4010E006E0150001629E035
:1004400098B702D0999F01D0998F98B702D0999D03
:1004500001D0998D98B502D0999B01D0998B98B510
:1004600002D0999901D0998998B302D0999701D077
:10047000998798B302D0999501D0998598B102D007
:10048000999301D0998398B102D0999101D0998123
:1004900020D098B502D0999F01D0998F98B502D0FD
:1004A000999D01D0998D98B302D0999B01D0998BD9
:1004B00098B302D0999901D0998998B102D09997AF
:1004C00001D0998798B102D0999501D099859993D7
:1004D000999199C39FF3A2DD1C51040A010ED8A47F
:1004E000000E016E1C51050A010ED8A4000E006E0C
:1004F0000150001203E099C39FF390DD962B6CD757
:100500009F6B8CDD9F6B8ADD952B4DD79151010F31
:100510009A6F90C39BF3F3DD956B9451955DD8B0C2
:10052000B7D095519225E96E000E9321EA6EEE50F8
:10053000000A02E1976B09D095519225E96E000EF1
:100540009321EA6E200EEE5C976F966B965104082D
:10055000D8A098D0050E9703F3CF00F0F4CF01F0A8
:1005600096510026000E0122B10E0024F66E540EA4
:100570000120F76E000EF86E000E01BEFF0EF8228D
:100580000900F5CF98F39151020A000ED8A4010E8C
:10059000016E9151040A000ED8A4010E006E0050A5
:1005A00001169151060A000ED8A4010E006E0150EA
:1005B000001629E098BF02D0999F01D0998F98BF6B
:1005C00002D0999D01D0998D98BD02D0999B01D000
:1005D000998B98BD02D0999901D0998998BB02D086
:1005E000999701D0998798BB02D0999501D09985A8
:1005F00098B902D0999301D0998398B902D0999172
:1006000001D0998128D098BD02D0999F01D0998FAF
:1006100098BD02D0999D01D0998D98BB02D0999B2D
:1006200001D0998B98BB02D0999901D0998998B93A
:1006300002D0999701D0998798B902D0999501D0A5
:10064000998598B702D0999301D0998398B702D031
:10065000999101D0998199C39FF3E0DC1C51040A60
:10066000010ED8A4000E016E1C51050A010ED8A47B
:10067000000E006E0150001203E099C39FF3CEDC20
:10068000962B64D79F6BCADC9F6BC8DC952B45D734
:1006900073DD12000B820BAE54EF03F003680268A7
:1006A000016800680A360232FF0E12000C6A0E6AF8
:1006B0000250D8A46FEF03F001C002F000C001F0B7
:1006C000006A0E860250D8A46FEF03F001C002F05A
:1006D000016A0E960E880250D8B481EF03F00E50D6
:1006E000035ED8A4D8A086EF03F0D89002BE8BEFAB
:1006F00003F0003601360236032E76EF03F086EF64
:1007000003F0010E0C6E85DD8EEF03F0020E0C6E11
:100710004ADD8EEF03F0040E0C6EEDDC12001D0EB0
:100720000D6E0D2EFED712000301916B1D6B010E95
:100730001B6F90C391F391379191913791919137BC
:10074000919191379191165302E0080E91271B5316
:1007500002E0040E91271D5302E0020E91271F5361
:10076000D8A4912B90DC14C39FF358DC91C39FF362
:1007700055DC02DD060E0C6E300E0D6E0D2EFED712
:100780000C2EFCD70000040E915F7DDC14C39FF398
:1007900045DC91C39FF342DCEFDC060E0C6E300E9D
:1007A0000D6E0D2EFED70C2EFCD7000012000B6A2A
:1007B0000A6A096A00500402F4CF09F0F3CF08F086
:1007C00001500502F4CF0BF0F3CF0AF00050050200
:1007D000F3500926F4500A22E86A0B220150040261
:1007E000F3500926F4500A22E86A0B2208C000F0F0
:1007F00009C001F00AC002F00BC003F012000201B0
:100800007C51000A25E1030186B102D08A9601D00D
:100810008A8686B302D0899401D0898486B502D0B5
:100820008A9801D08A8886B702D0899601D08986B5
:1008300086B902D08A9A01D08A8A86BB02D0899A68
:1008400001D0898A86BD02D0899801D0898824D0B8
:10085000030186B102D08A8601D08A9686B302D07F
:10086000898401D0899486B502D08A8801D08A987B
:1008700086B702D0898601D0899686B902D08A8A45
:1008800001D08A9A86BB02D0898A01D0899A86BD16
:1008900002D0898801D0899824C390F325C391F3AD
:1008A000BFDC12000B6A0B86FF0E12000450085EBC
:1008B0000550D8A0053C095E0650D8A0063C0A5E4B
:1008C0000750D8A0073C0B5E0336070E0C6E0334AE
:1008D000083609360A360B36045003A00ED0085EDF
:1008E0000550D8A0053C095E0650D8A0063C0A5E1B
:1008F0000750D8A0073C0B5E0DD008260550D8B095
:10090000053C09260650D8B0063C0A260750D8B048
:10091000073C0B2603360C2EDAD70234083609368C
:100920000A360B36045003A00ED0085E0550D8A03E
:10093000053C095E0650D8A0063C0A5E0750D8A0C8
:10094000073C0B5E0DD008260550D8B0053C0926A3
:100950000650D8B0063C0A260750D8B0073C0B26F4
:100960000236070E0C6E0234083609360A360B368C
:10097000045002A00ED0085E0550D8A0053C095EC8
:100980000650D8A0063C0A5E0750D8A0073C0B5E74
:100990000DD008260550D8B0053C09260650D8B021
:1009A000063C0A260750D8B0073C0B2602360C2E10
:1009B000DAD70134083609360A360B36045002A05D
:1009C0000ED0085E0550D8A0053C095E0650D8A0A0
:1009D000063C0A5E0750D8A0073C0B5E0DD00826E7
:1009E0000550D8B0053C09260650D8B0063C0A266A
:1009F0000750D8B0073C0B260136070E0C6E0134A9
:100A0000083609360A360B36045001A00ED0085EAF
:100A10000550D8A0053C095E0650D8A0063C0A5EE9
:100A20000750D8A0073C0B5E0DD008260550D8B063
:100A3000053C09260650D8B0063C0A260750D8B017
:100A4000073C0B2601360C2EDAD70034083609365F
:100A50000A360B36045001A00ED0085E0550D8A00F
:100A6000053C095E0650D8A0063C0A5E0750D8A097
:100A7000073C0B5E0DD008260550D8B0053C092672
:100A80000650D8B0063C0A260750D8B0073C0B26C3
:100A90000036070E0C6E0034083609360A360B365F
:100AA000045000A00ED0085E0550D8A0053C095E99
:100AB0000650D8A0063C0A5E0750D8A0073C0B5E43
:100AC0000DD008260550D8B0053C09260650D8B0F0
:100AD000063C0A260750D8B0073C0B2600360C2EE1
:100AE000DAD700B00ED0045008260550D8B0053C27
:100AF00009260650D8B0063C0A260750D8B0073C55
:100B00000B2612000B1E0A1E091E081E082AD8B446
:100B1000092AD8B40A2AD8B40B2A12000CB0D0EF94
:100B200005F00CA278EF06F00E6A000E0264E7EF03
:100B300005F0F00E0214D8A4B2EF05F0023A013825
:100B40000F0B02260138F00B016E00380F0B012647
:100B50000038F00B006E08380F0B00260838F00B39
:100B6000086E0E84D89002BECBEF05F00836003632
:100B7000013602360E2A02BECBEF05F008360036EB
:100B8000013602360E2A02BECBEF05F008360036DB
:100B9000013602360E2A0E5003646CEF06F0035E37
:100BA0000BBC08AE72EF06F0D880800E08640030EF
:100BB000000E002201220222D8A072EF06F00232BB
:100BC00001320032034A78EF06F072EF06F001C0FE
:100BD00002F000C001F008C000F0086A000E0E86A6
:100BE00002641EEF06F0F00E0214D8A406EF06F021
:100BF000023A01380F0B02260138F00B016E003863
:100C00000F0B01260038F00B006E0E84D89002BE48
:100C1000CBEF05F00036013602360E2A02BECBEFCE
:100C200005F00036013602360E2A02BECBEF05F083
:100C30000036013602360E2ACBEF05F001C002F075
:100C400000C001F0006A000E0E960E8802644BEFA1
:100C500006F0F00E0214D8A436EF06F0023A01387E
:100C60000F0B02260138F00B016E0E84D89002BEE5
:100C7000CBEF05F0013602360E2A02BECBEF05F0AF
:100C8000013602360E2A02BECBEF05F001360236DF
:100C90000E2ACBEF05F001C002F0016A000E0E86AD
:100CA00002647DEF06F0F00E0214D8A45AEF06F0AD
:100CB000023A0E84D89002BECBEF05F002360E2A1F
:100CC00002BECBEF05F002360E2A02BECBEF05F0D6
:100CD00002360E2ACBEF05F0010E0C6ED3EC00F0BD
:100CE00081EF06F0020E0C6E7BEC00F081EF06F057
:100CF000040E0C6ECFDC81EF06F0080E0C6E09ECD2
:100D000001F01200830EC21686C300F00036009078
:100D1000003600900050C21202DDC282C2A201D091
:100D2000FDD7C4CF01F0006AC3500012000E0112BB
:100D3000120003018C6B8D6B86C38EF387C38FF318
:100D4000800E8719006E800E005C02E1000E865D49
:100D50000BE2010E8C6F000E8D6F865100088E6FB6
:100D600087C38FF3000E8F578EC390F38FC391F319
:100D700088C392F389C393F37DEC01F0060E8A6F6A
:100D8000000E8B6F000E006E8B51005C02E18A51E9
:100D9000000819E28A518825E16E8B518921E26EA3
:100DA000010E8A5D006E000E8B59016E0050882581
:100DB000E96E01508921EA6EEECFE6FF010E8A5FEF
:100DC000000E8B5BDFD788C3E1FF89C3E2FF200EF3
:100DD000E66E8C518D111AE08A6B8B6B8A518825D7
:100DE000E96E8B518921EA6EEE50200A03E18A4BAD
:100DF0008B2BF4D7010E8A5F000E8B5B8A518825FE
:100E0000E16E8B518921E26E2D0EE66E12000B6AA7
:100E10000350D8B44DEF07F002500A6E028E8E0ECA
:100E2000035E03AE51EF07F0036C080E035CD8A01D
:100E30002CEF07F0036E013602C001F0026A080EC3
:100E4000035CD8A02CEF07F0036E0136016A035053
:100E5000D8A4D89036EF07F00350D8B436EF07F097
:100E6000D89002320132032E30EF07F00BBC01A004
:100E700043EF07F0D8A043EF07F0012AD8B4022AC5
:100E800002BE60EF07F00AAE66EF07F0021E011E19
:100E9000012AD8B4022A66EF07F0026A016A66EFF7
:100EA00007F00B800BAE6AEF07F0026A0AAE6AEF3A
:100EB00007F0FF0E026E016E0A3602326AEF07F08B
:100EC000010E0C6E6FEC01F06CEF07F0000E0C6E73
:100ED0006CEF07F0FF0E0C6E0150006E0250016EB9
:100EE00012000050086E0150006E016A026A036A27
:100EF0000B6A0C6A960E036E0A6A00C001F008C005
:100F000000F0086A026A56EC03F01200030186B191
:100F100002D08B9E01D08B8E86B302D08B9601D0EF
:100F20008B8686B502D08B9C01D08B8C86B702D085
:100F30008B9401D08B8486B902D08B9A01D08B8A96
:100F400086BB02D08B9201D08B8286BD02D08B985B
:100F500001D08B8824C390F325C391F310EC01F0EA
:100F6000120003011C51040A010ED8A4000E016EE8
:100F70001C51050A010ED8A4000E006E015000128B
:100F80000DE087C390F386C391F388C392F389C3BE
:100F900093F38AC394F3C6EC01F058D01C51020AB3
:100FA000010ED8A4000E016E1C51030A010ED8A434
:100FB000000E006E0150001213E0070E8703F3CFFE
:100FC00090F3040E902786C391F39137919188C3D3
:100FD00092F389C393F38AC394F3C6EC01F036D03D
:100FE0001F6B86C300F00036009000360090005062
:100FF000080F906F94EC03F087C390F394EC03F028
:10100000010E1F6F8B6B8A518B5D20E28B518825FF
:10101000E96E000E8921EA6EEECF01F001C090F377
:101020009033909F9033909F9033909F9033909FF8
:1010300094EC03F08B518825E96E000E8921EA6E4D
:10104000EECF90F394EC03F08B2BDDD71200086AFF
:10105000096A000E07620364ACEF08F0025006183C
:101060000A6E075003267E0ED8A03DEF08F0035EFF
:10107000D8B0B1EF08F041EF08F0035ED8A0B6EFAA
:1010800008F0028E068E02C00EF001C00BF000C008
:101090000DF000500402F4CF0CF001500502F4CF23
:1010A00000F0F3CF08F00402F3500C26F4500822AD
:1010B000000E00220D500502F3500C26F4500822B9
:1010C000000E002202500402F3500826F4500022C1
:1010D00002500502016A000E0122F3500026F4506E
:1010E00001220D500602F3500826F4500022026A35
:1010F000000E012202220B500602F3500026F4508B
:101100000122000E02220E500602F3500126F45076
:10111000022202BE94EF08F008360036013602368D
:101120000306D8B4B6EF08F0A7EF08F0D880800E19
:1011300008640030000E002201220222D8A0A7EF8E
:1011400008F0023201320032034AB1EF08F00AAE71
:10115000029E000EB9EF08F0010E09EC01F0B9EFA4
:1011600008F0020E4AEC03F0B9EF08F0040ED3ECDD
:1011700000F01200A6A202D00000FCD7A69C84C3F7
:10118000A9FF85C3A8FFA69EA684F2CF00F0F29E19
:10119000550EA76EAA0EA76EA68200BE02D0F29EC2
:1011A00001D0F28EA694A1B802D00000FCD7A1987D
:1011B0001200025006180E6E086A096A0B6A035084
:1011C0000764CCEF09F006500A6E068E028E0350BB
:1011D0000B6E0750036E000E0B641CEF09F00B50F2
:1011E000075ED8B4BDEF09F0070E07648BEF09F076
:1011F000075E00C008F001C000F002C001F0026A02
:10120000074EBDEF09F0076460EF09F0075E00C00C
:1012100008F001C000F0016A074EBDEF09F0076455
:101220003EEF09F0075E00C008F0006A074EBDEF10
:1012300009F0076425EF09F00AC002F005C001F0CB
:1012400004C000F0086AE9EF0AF0030E076430EF0B
:1012500009F0075E08380F0B086E074EBDEF09F066
:10126000D8900832074EBDEF09F0D8900832074EEB
:10127000BDEF09F0D8900832BDEF09F0030E076406
:101280004FEF09F0075E08380F0B086E0038F00BBF
:10129000082600380F0B006E074EBDEF09F0D890FE
:1012A00000320832074EBDEF09F0D8900032083204
:1012B000074EBDEF09F0D89000320832BDEF09F0BB
:1012C000030E076477EF09F0075E08380F0B086E0E
:1012D0000038F00B082600380F0B006E0138F00BB9
:1012E000002601380F0B016E074EBDEF09F0D890B4
:1012F000013200320832074EBDEF09F0D8900132BA
:1013000000320832074EBDEF09F0D89001320032AA
:101310000832BDEF09F0030E0764A8EF09F0075E7D
:1013200008380F0B086E0038F00B082600380F0B3A
:10133000006E0138F00B002601380F0B016E0238E9
:10134000F00B012602380F0B026E074EBDEF09F0BD
:10135000D8900232013200320832074EBDEF09F058
:10136000D8900232013200320832074EBDEF09F048
:10137000D8900232013200320832096A000E0EAEF5
:10138000B1EF0AF0081E001E011E021E082A0022EC
:1013900001220222B1EF0AF00750D8A4D2EF09F0DF
:1013A000E9EF0AF0096A02C00AF0028E068E0750C1
:1013B000035C076ED8B4A4EF0AF0070E076472EF5F
:1013C0000AF0075E0450096E0550046E0650056E63
:1013D000066A074EA4EF0AF0070E076447EF0AF00B
:1013E000075E0450096E0550046E056A074EA4EFAF
:1013F0000AF0070E076425EF0AF0075E0450096E35
:10140000046A074EA4EF0AF0070E07640CEF0AF017
:101410000AC002F0E9EF0AF0030E076417EF0AF0C2
:10142000075E09380F0B096E074EA4EF0AF0D8903B
:101430000932074EA4EF0AF0D8900932074EA4EF04
:101440000AF0D8900932A4EF0AF0030E076436EFD1
:101450000AF0075E09380F0B096E0438F00B0926F5
:1014600004380F0B046E074EA4EF0AF0D890043234
:101470000932074EA4EF0AF0D89004320932074E21
:10148000A4EF0AF0D89004320932A4EF0AF0030E58
:1014900007645EEF0AF0075E09380F0B096E043827
:1014A000F00B092604380F0B046E0538F00B0426E8
:1014B00005380F0B056E074EA4EF0AF0D8900532E1
:1014C00004320932074EA4EF0AF0D89005320432F4
:1014D0000932074EA4EF0AF0D890053204320932DF
:1014E000A4EF0AF0030E07648FEF0AF0075E0938D5
:1014F0000F0B096E0438F00B092604380F0B046E2D
:101500000538F00B042605380F0B056E0638F00B76
:10151000052606380F0B066E074EA4EF0AF0D8908A
:101520000632053204320932074EA4EF0AF0D89091
:101530000632053204320932074EA4EF0AF0D89081
:101540000632053204320932086A000E0EAEB1EFDF
:101550000AF0091E041E051E061E092A0422052281
:101560000622095008260450002205500122065088
:1015700002220EBEC8EF0AF0D8A0D7EF0AF002325E
:10158000013200320832033ED7EF0AF0E3EF0AF0EF
:10159000D8B0DDEF0AF0000E081E001E011E021E6C
:1015A000082A0022012202220A7EDDEF0AF0010E43
:1015B0000C6E8EEC05F0EBEF0AF0020E0C6E8EEC6A
:1015C00005F0EBEF0AF0040E0C6E4AEC03F0EBEFC3
:1015D0000AF0000E0C6E1200010E0301866F82EC01
:1015E00006F07FDC890E046E410E056E1C0E066E41
:1015F000810E076E2CDD0BDC12000301866B82EC82
:1016000006F06FDC890E046E410E056E1C0E066E30
:10161000810E076E1CDD07EC07F01200030E0C6E46
:10162000950E0D6E0D2EFED70C2EFCD71200040069
:10163000030111511319000ED8A4010E016E1251AD
:101640000201F519000ED8A4010E006E015000121F
:10165000D8B4E4D011C313F303014B6B4C6B11A14D
:1016600004D04F514B2750514C2311A304D04D515E
:101670004B274E514C2311A504D049514B274A51B9
:101680004C2311A704D043514B2744514C2311A99B
:1016900004D041514B2742514C2311AB04D0475148
:1016A0004B2748514C2311AD04D045514B2746518F
:1016B0004C234BC386F34CC387F32F0E886F030E66
:1016C000896F99EC06F03151200A03E031C328F309
:1016D00002D0300E286F2E0E296F3251200A03E0FF
:1016E00032C32AF302D0300E2A6F3351200A03E0AE
:1016F00033C32BF302D0300E2B6F3A51040A010E84
:10170000D8A4000E016E3A51050A010ED8A4000EAD
:10171000006E0150001225E01251010A03E1040E8F
:10172000846F02D0060E846F12510201F5190CE08D
:1017300084C386F3100E0301876FF60E886F020EC6
:10174000896F080E8A6F0DDC030184C386F3280EAF
:10175000876F280E886F030E896F040E8A6F01DC75
:101760005DD03A51020A010ED8A4000E016E3A5122
:10177000030A010ED8A4000E006E0150001226E0EC
:101780001251010A02E1846B02D0010E846F1251E2
:101790000201F5190DE084C386F3090E0301876F7A
:1017A000070E886F030E896F080E8A6FB1EC07F081
:1017B000030184C386F30B0E876F280E886F030E18
:1017C000896F040E8A6FB1EC07F028D03A51000AF5
:1017D00025E01251010A02E1846B02D0010E846FF0
:1017E00012510201F5190DE084C386F3090E0301BD
:1017F000876FFF0E886F020E896F070E8A6FB1EC3C
:1018000007F0030184C386F30B0E876F280E886FE1
:10181000030E896F040E8A6FB1EC07F00201465186
:1018200003011019000ED8A4010E016E125102011D
:10183000F519000ED8A4010E006E01500012D8B4A4
:10184000E3D046C210F303014B6B4C6B020146A17F
:1018500005D003015B514B275C514C23020146A389
:1018600005D0030159514B275A514C23020146A57B
:1018700005D0030153514B2754514C23020146A775
:1018800005D0030151514B2752514C23020146A967
:1018900005D0030157514B2758514C23020146AB49
:1018A00005D0030155514B2756514C23020146AD3B
:1018B00005D0030122514B2723514C2303014BC375
:1018C00086F34CC387F32F0E886F030E896F99EC54
:1018D00006F031C328F332C329F333C32AF334C3E8
:1018E0002BF33A51040A010ED8A4000E016E3A51AE
:1018F000050A010ED8A4000E006E0150001227E068
:101900001251010A03E1060E846F02D0040E846FA7
:1019100012510201F5190DE084C386F3100E030184
:10192000876FD40E886F000E896F080E8A6FB1EC36
:1019300007F0030184C386F3280E876F280E886F93
:10194000030E896F040E8A6FB1EC07F05DD03A5137
:10195000020A010ED8A4000E016E3A51030A010ECC
:10196000D8A4000E006E0150001226E01251010AA8
:1019700003E1010E846F01D0846B12510201F5194D
:101980000DE084C386F3090E0301876FCB0E886FC9
:10199000000E896F080E8A6FB1EC07F0030184C353
:1019A00086F30B0E876F280E886F030E896F040E67
:1019B0008A6FB1EC07F028D03A51000A25E01251A5
:1019C000010A03E1010E846F01D0846B1251020100
:1019D000F5190DE084C386F3090E0301876FC30E6A
:1019E000886F000E896F070E8A6FB1EC07F0030154
:1019F00084C386F30B0E876F280E886F030E896FE2
:101A0000040E8A6FB1EC07F0040012C3F5F2020174
:101A10008851000AD8A488D003013A51040A010E63
:101A2000D8A4000E016E3A51050A010ED8A4000E8A
:101A3000006E015000123BE00001E153010ED8A4FA
:101A4000000E006E02017F5100160DE00301866B4F
:101A5000700E876FDF0E886F000E896F010E8A6F20
:101A6000B1EC07F023D002017F53010ED8A4000E81
:101A7000006E0001E15100160DE00301866B700E4F
:101A8000876FDD0E886F000E896F010E8A6FB1ECD3
:101A900007F00CD00301866B700E876FC10E886F44
:101AA000000E896F010E8A6FB1EC07F03DD03A51FC
:101AB000000A3AE00001E153010ED8A4000E006EC6
:101AC00002017F5100160DE00301866B080E876F3F
:101AD000BF0E886F000E896F010E8A6FB1EC07F0A0
:101AE00023D002017F53010ED8A4000E006E000126
:101AF000E15100160DE00301866B080E876FBD0EE5
:101B0000886F000E896F010E8A6FB1EC07F00CD060
:101B10000301866B080E876FBB0E886F000E896FFE
:101B2000010E8A6FB1EC07F0040012000450000AA5
:101B300012E10550000A0FE10650000A0CE10750BF
:101B4000000A09E1FF0E006EFF0E016E7F0E026EAD
:101B5000FF0E036EA8D0086A096A0750D8B441EF97
:101B60000EF00350D8B446EF0EF0025006180A6E7D
:101B7000028E068E0E6A02C008F001C00CF000C092
:101B80000DF004500D5E0550D8A0053C0C5E0650CB
:101B9000D8A0063C085E086A0C6A0D6AD8A0D8EF87
:101BA0000DF0D8900232013200320832010E0E6E72
:101BB0000750035ED8A0E5EF0DF07E0E0E2403263D
:101BC000D8B04BEF0EF0EBEF0DF07E0E0E24032697
:101BD000D8A050EF0EF0180E0B6E0D360C360836EE
:101BE0000036013602360E360450005E0550D8A08D
:101BF000053C015E0650D8A0063C025E06340E127B
:101C00000EA006EF0EF00D8011EF0EF0045000262E
:101C10000550D8B0053C01260650D8B0062802264B
:101C20000D900B2EEDEF0DF037EF0EF0D890003643
:101C3000013602360E360450005E0550D8A0053C31
:101C4000015E0650D8A0063C025E06340E10010B61
:101C50000D26D8B00C2AD8B4082AD8A437EF0EF035
:101C600008320C320D32032AD8B44BEF0EF00AAE14
:101C7000089E0850026E0C50016E0D50006E53EF1E
:101C80000EF0010E52EC04F053EF0EF0020E09ECD0
:101C900001F053EF0EF0040E4AEC03F053EF0EF098
:101CA000080ED3EC00F012000301116B0201466B29
:101CB0000301866BFFEC03F046C286F386EC07F067
:101CC00024C390F325C391F310EC01F0120084C3F8
:101CD00000F085C301F0030E046E000E056ED7EC14
:101CE00003F000C084F301C085F3800E026E800E05
:101CF0000118025C02E10050500803E3006A016A27
:101D0000BCD0800E006E800E03018519005C02E1DC
:101D10008451AB0805E3F40E8427000E8523A9D077
:101D2000800E010A006E800E8519005C02E184516C
:101D3000480805E3FE0E8427000E85239AD0800E06
:101D4000020A006E800E8519005C02E1845146088B
:101D500005E3180E8427010E85238BD0800E030A1D
:101D6000006E800E8519005C02E18451340805E3A1
:101D7000290E8427010E85237CD0800E040A006E74
:101D8000800E8519005C02E184514C0805E3360E93
:101D90008427010E85236DD0800E080A006E800E08
:101DA0008519005C02E18451850805E3AE0E8427A5
:101DB000010E85235ED0800E0C0A006E800E851900
:101DC000005C02E18451FA0805E3E40E8427010E69
:101DD00085234FD0800E120A006E800E8519005C9C
:101DE00002E184510F0805E3120E8427020E8523B9
:101DF00040D0800E160A006E800E8519005C02E14C
:101E00008451E60805E3880E8427020E852331D02D
:101E1000800E1B0A006E800E8519005C02E1845161
:101E2000EA0805E3E70E8427020E852322D0800E00
:101E3000210A006E800E8519005C02E1845136088B
:101E400005E3200E8427030E852313D0800E290A74
:101E5000006E800E8519005C02E18451040805E3E0
:101E6000480E8427030E852304D05C0E8427030EBE
:101E7000852384C300F085C301F0120000C008F080
:101E80000150006E016A026A036A0B6A0C6A016AF9
:101E9000026A036A960E036E0A6A00AE56EF0FF0EE
:101EA000081E001E082AD8B4002A0A8E00C001F0BD
:101EB00008C000F0086A026A56EC03F012000050F5
:101EC000086E0150006E0250016E0350026E036AEC
:101ED0000B6A0C6A9E0E036E0A6A02AE7CEF0FF06C
:101EE000081E001E011E021E082AD8B4002AD8B4FB
:101EF000012AD8B4022A0A8E020E0C6E8EEC05F06E
:101F000012000450000A12E10550000A0FE10650C9
:101F1000000A0CE10750000A09E1FF0E006EFF0EF7
:101F2000016EFF0E026E7F0E036E99D00C6A07BE23
:101F30000C2A0D6A0B6A0A6A096A086A03500210C1
:101F400001100010D8B485D0035007180E6E0EBED5
:101F50000D1E07AE0BD0041E051E061E071E042A0A
:101F6000D8B4052AD8B4062AD8B4072A03AE0BD0B1
:101F7000001E011E021E031E002AD8B4012AD8B476
:101F8000022AD8B4032A035007100E6E0EBE1DD0CD
:101F900056EC04F00CBE36D00DAE5BD0001E011E18
:101FA000021E031E002AD8B4012AD8B4022AD8B4CB
:101FB000032A081E091E0A1E0B1E082AD8B4092A65
:101FC000D8B40A2AD8B40B2A44D007AE15D003BE21
:101FD0000DD003500B6E02500A6E0150096E005076
:101FE000086E036A026A016A006AD6D7036A026A47
:101FF000016A006A002A000C031E021E011E001E58
:102000000C8EC6D7082AD8B4092AD8B40A2AD8B45C
:102010000B2A0450085CD8A4BFD70550095CD8A48B
:10202000BBD706500A5CD8A4B7D707500B5CD8A41E
:10203000B3D70B6A0A6A096A086A002AD8B4012A67
:10204000D8B4022AD8B4032A03AEA6D70E6A0E88E3
:10205000FF0C0E6A0CA002D082EC05F0000F1200FB
:102060000400FDEC0AF000C078F301C079F3000E23
:1020700001BEFF0E03017A6F7B6FECEC0AF000C02B
:102080007CF301C07DF3000E01BEFF0E03017E6FE5
:102090007F6F02017B51010A0FE178C384F379C39A
:1020A00085F315DEEBDE00C080F301C081F302C0D2
:1020B00082F303C083F311D078C300F079C301F039
:1020C0007AC302F07BC303F0FADE00C080F301C0E4
:1020D00081F302C082F303C083F3800E03017F19F2
:1020E000006E800E7B19005C08E17A517E5D05E18F
:1020F00079517D5D02E178517C5D08E3E70E786FF0
:10210000030E796F000E7A6F7B6F44D07C51782577
:10211000006E7D517921016E7E517A21026E7F51D0
:102120007B21036E640E046E000E056E066E076E54
:10213000E0EC00F078C304F079C305F07AC306F050
:102140007BC307F07C51045E7D51055A7E51065ACF
:102150007F51075AD6DE00C078F301C079F302C080
:102160007AF303C07BF3800E046E800E0318045CC8
:1021700008E10250000805E10150030802E10050A7
:10218000E70808E2E70E0301786F030E796F000E8F
:102190007A6F7B6F02017D51010A62E180C300F01A
:1021A00081C301F082C302F083C303F0000E046E0A
:1021B000000E056E000E066E840E076E27EC08F00A
:1021C000000E046E000E056E7A0E066E880E076E07
:1021D000ADDC00C080F301C081F302C082F303C014
:1021E00083F3F40E046EFD0E056E340E066E7F0E44
:1021F000076E9CDC00C080F301C081F302C082F353
:1022000003C083F300C004F001C005F002C006F073
:1022100003C007F027EC08F0000E046E000E056EF8
:10222000480E066E840E076E81DC00C080F301C08C
:1022300081F302C082F303C083F3000E046E000E2C
:10224000056E000E066E7E0E076ED9EC08F000C01B
:1022500080F301C081F302C082F303C083F361D035
:1022600080C300F081C301F082C302F083C303F096
:10227000000E046E000E056E200E066E820E076EB6
:1022800027EC08F0000E046E000E056E7A0E066E46
:10229000880E076E4BDC00C080F301C081F302C0E2
:1022A00082F303C083F3F40E046EFD0E056E340E4C
:1022B000066E7F0E076E3ADC00C080F301C081F32A
:1022C00002C082F303C083F300C004F001C005F034
:1022D00002C006F003C007F027EC08F0000E046E01
:1022E000000E056E200E066E810E076E1FDC00C00C
:1022F00080F301C081F302C082F303C083F3000EB8
:10230000046E000E056E000E066E7E0E076ED9EC92
:1023100008F000C080F301C081F302C082F303C063
:1023200083F380C300F081C301F082C302F083C352
:1023300003F007EC07F000C03DF301C03EF3800E50
:102340000118026E800E025C02E10A0E005C06E2D9
:10235000010E03013B6F000E3C6F19D00301800E8C
:102360007B19006E800E005C08E1000E7A5D05E1CD
:10237000000E795D02E1640E785D05E2E70E3B6FC9
:10238000030E3C6F04D078C33BF379C33CF31200D7
:102390000134083609360450085E0550D8A0053CC3
:1023A000095E003601360F0E0C6E01340836093610
:1023B000045000A006D0085E0550D8A0053C095E78
:1023C00005D008260550D8B0053C09260036013650
:1023D0000C2EEBD700B006D0045008260550D8B01C
:1023E000053C09260000120003017E6B7AC301F050
:1023F000010E006E015004E000360090FF0FFBD785
:1024000000C07DF378C3E9FF79C3EAFF0050EE1402
:10241000016E0152010ED8A4000E006E7C51001A0C
:102420001AE07B51000806E20EEC0BF00EEC0BF00C
:102430007B07F7D778C3E9FF79C3EAFF7D51EE1434
:10244000016E0152010ED8A4000E006E7C51001ADC
:1024500002E0FF0E7E6F7EC300F01200030179518F
:102460004E1802E14D507819D8B4A7D078C34DF07A
:1024700079C34EF002017D51000A46E1800E03014E
:102480007919006E800E005C02E1640E785D1DE338
:10249000050E7825006E000E7921016E00C078F3DC
:1024A00001C079F300C086F301C087F32F0E886F57
:1024B000030E896F99EC06F031C328F332C329F378
:1024C00033C32AF3570E2B6F1ED078C386F379C31C
:1024D00087F32F0E886F030E896F99EC06F0335146
:1024E000200A03E033C328F302D0300E286F2E0EEB
:1024F000296F3451200A03E034C32AF302D0300E8E
:102500002A6F570E2B6F30D00301800E7919006EA1
:10251000800E030A005C02E1E70E785D13E278C3E7
:1025200086F379C387F32F0E886F030E896F99ECBA
:1025300006F032C328F333C329F334C32AF3570E0A
:102540002B6F12D078C386F379C387F32F0E886F71
:10255000030E896F99EC06F031C328F332C329F3D7
:1025600033C32AF334C32AF33A51040A010ED8A420
:10257000000E016E3A51050A010ED8A4000E006E3D
:10258000015000120CE0866B400E876F280E886F9A
:10259000030E896F040E8A6FB1EC07F00ED03A512A
:1025A000000A0BE0866B040E876F280E886F030EFF
:1025B000896F040E8A6FB1EC07F0120054EC0EF034
:1025C000FF0E846F856BBAEC08F0FE0E0301846F7A
:1025D000856BBAEC08F0FD0E0301846F856BBAECD5
:1025E00008F017EC0BF003013A51000A02E18A8C63
:1025F0008A8E899E898C3B6B3C6B3D6B3E6B0201E6
:10260000826B836B03013A51040A010ED8A4000EB9
:10261000016E3A51050A010ED8A4000E006E015059
:10262000001246E0020E866F100E876F210E886F33
:10263000010E896F080E8A6FB1EC07F004000D0ED1
:102640000B6E2D0E0C6ED70E0D6E0D2EFED70C2EB2
:10265000FCD70B2EFAD700000000020E866F100E7A
:10266000876F180E886F010E896F080E8A6FB1ECA4
:1026700007F002017D51000A0DE10301866B100E87
:10268000876FF40E886F000E896F080E8A6FB1ECA9
:1026900007F00CD00301866B100E876FEB0E886F6E
:1026A000000E896F080E8A6FB1EC07F0040044D069
:1026B0003A51000A41E0010E866F876BE20E886F87
:1026C000000E896F080E8A6FB1EC07F004000D0E42
:1026D0000B6E2D0E0C6ED70E0D6E0D2EFED70C2E22
:1026E000FCD70B2EFAD700000000010E866F876B17
:1026F0000F0E886F010E896F080E8A6FB1EC07F01C
:1027000002017D51000A0CE10301866B876B060E06
:10271000886F010E896F080E8A6FB1EC07F00BD03D
:102720000301866B876BFD0E886F000E896F080EA4
:102730008A6FB1EC07F00400120092DC02017E51B6
:10274000640A11E07E2B800E03013919006E800EA1
:102750003E19005C02E13D51385D04E23DC338F3AF
:102760003EC339F309D002017E6B38C378F339C315
:1027700079F374DE386B396B800E3E19026E800E71
:102780003719025C02E136513D5D010ED8B0000EF2
:10279000026E800E2719016E800E3E19015C02E167
:1027A0003D51265D010ED8B0000E016E800E006E08
:1027B000800E2719005C02E126510008010ED8B0F6
:1027C000000E006E015000160250001248E0040096
:1027D00047DC02017E51640A11E07E2B800E03016A
:1027E0003919006E800E3E19005C02E13D51385DE2
:1027F00004E23DC338F33EC339F309D002017E6BD6
:1028000038C378F339C379F329DE386B396B810E1D
:10281000786F0F0E796F7A6B050E7B6F010E7C6FF0
:10282000E3DD005203E0010E02017A6F02017A51EA
:10283000010A010ED8A4000E0301776F810E786F94
:102840000F0E796F7A6B050E7B6F7C6BCDDD775148
:10285000001604E0B3DE3B6B3C6B01D08DD7120059
:102860000450000A08E10550000A05E1FF0E006E61
:102870007F0E016E57D00D6A096A086A0150001078
:10288000D8B4000C015005180A6E0ABE0D1E0B6A62
:1028900005AE05D0041E051E042AD8B4052A01AED3
:1028A00005D0001E011E002AD8B4012A01500510CF
:1028B0000A6E0ABE10D06CDD0BB020D00DAE000C3D
:1028C000001E011E002AD8B4012A081E091E082A6B
:1028D000D8B4092A000C05AE0DD001BE07D00150B6
:1028E000096E0050086E016A006AE8D7016A006A42
:1028F000002A000C011E001E0B2ADDD7082AD8B4BE
:10290000092A0450085CD8A4D9D70550095CD8A47A
:10291000D5D7096A086A002AD8B4012A01AECED7F1
:102920000000FF0C1200030E0301766F0201466BDC
:102930000301866B86EC07F076C34DF2FEDE000ED7
:102940003C1902E1000E3B1901E186D0140E046E21
:10295000000E056E3BC300F03CC301F081DF005068
:1029600003013B25746F01503C21756F76C373F3EF
:1029700073511F08D8A06CD0735102014703F3CFE5
:1029800086F386EC07F0D9DE000E3C1902E1000E5A
:102990003B1901E161D0800E3C19006E800E751963
:1029A000005C02E174513B5D51E2140E046E000EB6
:1029B000056E3BC300F03CC301F052DF0050030141
:1029C0003B25746F01503C21756F73510201470321
:1029D000F3CF46F276C34DF2800E03013C19006E30
:1029E000800E005C02E1780E3B5D01E231D0765151
:1029F0007325026E02C073F302017951000A010EC1
:102A0000D8A4000E016E0250090A010ED8A4000ECF
:102A1000006E0150001604E0080E0301736F15D01C
:102A200002017951000A010ED8A4000E016E0301C3
:102A30007351110A010ED8A4000E006E0150001649
:102A400004E0100E736F040E766F01D001D090D7A2
:102A500046C286F386EC07F0120002014D5147038F
:102A6000F3CF00F000C06DF300504625046E04C0A3
:102A70006FF3050E026E47C200F0000E016E0250A9
:102A800005E0003600900136FF0FFAD7010E005C1A
:102A9000026E000E0158036E800E0318006E800E49
:102AA000005C02E10450025C0DE2050E006E47C2BC
:102AB0006FF3005005E003016F376F91FF0FFAD7F6
:102AC00003016F070201465103016D5D06E26D517E
:102AD0000201465D0301706F01D0706B70C346F256
:102AE00070C386F386EC07F028DE000E3C1902E185
:102AF000000E3B1901E167D03BC371F33CC372F395
:102B000002014751030170256E6F6E516F5D57E3EF
:102B10006EC386F386EC07F010DE000E3C1902E16E
:102B2000000E3B1901E14FD0800E3C19006E800E63
:102B30007219005C02E171513B5D0BE3340E0C6EC7
:102B4000F10E0D6E0D2EFED70C2EFCD700000000EE
:102B5000F4DD800E3C19006E800E7219005C02E1FB
:102B600071513B5D0BE3340E0C6EF10E0D6E0D2EAC
:102B7000FED70C2EFCD700000000DFDD800E3C19D4
:102B8000006E800E7219005C02E171513B5D11E232
:102B90003BC371F33CC372F36EC346F2800E3C1923
:102BA000006E800E005C02E1780E3B5D01E207D012
:102BB00001D005D00201475103016E27A6D746C2B6
:102BC00086F386EC07F0120003016DB102D08B9002
:102BD00001D08B8024C390F325C391F310EC01F056
:102BE0001200030E0301726F6E6B72C3BAF0030E14
:102BF0006F6F140E046E000E056E3BC300F03CC3F5
:102C000001F02EDE005003013B25706F01503C2186
:102C1000716F72C36DF36D511F08D8A06AD06D51EA
:102C20004F02F3CF86F3FFEC03F07DDE86DD000E6E
:102C30003C1902E1000E3B1901E171D0800E3C19F4
:102C4000006E800E7119005C02E170513B5D4FE235
:102C5000140E046E000E056E3BC300F03CC301F081
:102C6000FFDD005003013B25706F01503C21716F67
:102C70006D514F02F3CF11F346C26EF372C3BAF037
:102C80004DC26FF3800E3C19006E800E005C02E1B5
:102C9000780E3B5D01E22DD072516D25026E02C0AF
:102CA0006DF34C50000A010ED8A4000E016E0250C4
:102CB000090A010ED8A4000E006E0150001603E0B0
:102CC000080E6D6F13D04C50000A010ED8A4000EF0
:102CD000016E6D51110A010ED8A4000E006E015054
:102CE000001604E0100E6D6F040E726F01D001D05B
:102CF00092D76EC346F211C386F3FFEC03F046C2CF
:102D000086F386EC07F06FC34DF2340E0C6EF10EB5
:102D10000D6E0D2EFED70C2EFCD700000000120009
:102D20000001BA514F02F3CF00F000C06DF3005024
:102D300003011125046E04C06FF3050E026E4FC02F
:102D400000F0000E016E025005E0003600900136E2
:102D5000FF0FFAD7010E005C026E000E0158036EE1
:102D6000800E0318006E800E005C02E10450025CCD
:102D70000BE2050E006E4FC06FF3005004E06F379A
:102D80006F91FF0FFBD76F0711516D5D04E26D511D
:102D9000115D706F01D0706B70C311F370C386F357
:102DA000FFEC03F0CADC000E3C1902E1000E3B19F7
:102DB00001E163D03BC371F33CC372F34F50702504
:102DC0006E6F6E516F5D55E36EC386F3FFEC03F0DB
:102DD000B4DC000E3C1902E1000E3B1901E14DD0BC
:102DE000800E3C19006E800E7219005C02E1715178
:102DF0003B5D0BE3340E0C6EF10E0D6E0D2EFED707
:102E00000C2EFCD70000000098DC800E3C19006EF0
:102E1000800E7219005C02E171513B5D0BE3340ED0
:102E20000C6EF10E0D6E0D2EFED70C2EFCD7000091
:102E3000000083DC800E3C19006E800E7219005C6D
:102E400002E171513B5D11E23BC371F33CC372F38C
:102E50006EC311F3800E3C19006E800E005C02E11F
:102E6000780E3B5D01E205D001D003D04F506E27B4
:102E7000A8D711C386F3FFEC03F01200810E030103
:102E8000786F0F0E796F7A6B320E7B6F7C6BF4EC80
:102E900011F000C067F3810E786F0F0E796F010E8D
:102EA0007A6F320E7B6F7C6BF4EC11F0005067137D
:102EB000810E786F0F0E796F020E7A6F320E7B6F74
:102EC0007C6BF4EC11F06751001203E0010E02017B
:102ED000876F12003BC367F33CC368F382DE000ECA
:102EE0003C1902E1000E3B1903E154EC0EF000D155
:102EF00024DC800E3C19006E800E005C02E1780E2E
:102F00003B5D01E2F5D00CDF000E3C1902E1000E42
:102F10003B1903E154EC0EF0EBD00FDC800E3C19B2
:102F2000006E800E005C02E1780E3B5D01E2E0D0B5
:102F300094DD000E3C1902E1000E3B1903E154EC54
:102F40000EF0D6D09DEC13F0800E3C19006E800E72
:102F5000005C02E1780E3B5D01E2CAD0800E3C19B4
:102F6000016E800E015C02E1C80E3B5D010ED8B01F
:102F7000000E016E800E3C19006E800E6819005C18
:102F800002E167513B5D010ED8B0000E006E0050AB
:102F90000114036E3B51675D016E3C516859026E2E
:102FA000800E006E800E0218005C02E10150640881
:102FB000010ED8B0000E006E0350001601E098D04C
:102FC0003BC367F33CC368F311C369F3000E6A6F38
:102FD00046C26BF3000E6C6F1251010A02E1126BD4
:102FE00002D0010E126F54EC0EF012C36DF3ECDD43
:102FF000020E0B6E040E0C6EBA0E0D6E0D2EFED769
:103000000C2EFCD70B2EFAD700009DEC13F0800E8F
:103010003C19006E800E005C02E1780E3B5D01E21F
:1030200067D0DFDD000E3C1902E1000E3B1903E121
:1030300054EC0EF05DD09DEC13F0800E3C19006E48
:10304000800E005C02E1780E3B5D01E251D068DE4B
:10305000000E3C1902E1000E3B1903E154EC0EF0A6
:1030600047D09DEC13F0800E3C19006E800E005C82
:1030700002E1780E3B5D01E23BD0EFDC000E3C1933
:1030800002E1000E3B1903E154EC0EF031D09DEC4F
:1030900013F0800E3C19006E800E005C02E1780E89
:1030A0003B5D01E225D0800E6819006E800E3C1950
:1030B000005C02E13B51675D1AE21251010A02E134
:1030C000126B02D0010E126F12C36DF37DDD69C366
:1030D00011F36BC346F269C386F3FFEC03F046C2FB
:1030E00086F386EC07F067C33BF368C33CF3040048
:1030F000120004000301685102016A1903E16951D9
:1031000003016719D8B47CD0030167C369F268C3AF
:103110006AF2000E681902E1010E67192FE13A51B7
:10312000040A010ED8A4000E016E3A51050A010EE0
:10313000D8A4000E006E015000120DE0020E866F42
:10314000400E876F480E886F020E896F040E8A6FDB
:10315000B1EC07F00FD03A51000A0CE0010E866F77
:10316000040E876F740E886F020E896F040E8A6FCB
:10317000B1EC07F00201696B6A6B42D067C369F278
:1031800068C36AF267C386F368C387F32F0E03012F
:10319000886F030E896F99EC06F032C328F32E0E68
:1031A000296F33C32AF334C32BF33A51040A010EB7
:1031B000D8A4000E016E3A51050A010ED8A4000EE3
:1031C000006E015000120DE0020E866F400E876FF8
:1031D000280E886F030E896F040E8A6FB1EC07F01A
:1031E0000FD03A51000A0CE0010E866F040E876F73
:1031F000280E886F030E896F040E8A6FB1EC07F0FA
:103200000400120004000101B651050A03E1010E99
:103210004F6E0BD0B651060A03E1020E4F6E05D079
:10322000B651070A02E1040E4F6ECB51050A04E1C4
:10323000010E0201476F0FD00101CB51060A04E1D4
:10324000020E0201476F07D00101CB51070A03E1CB
:10325000040E0201476F02017E6B0301386B396B6C
:1032600002017A6B9DEC13F0800E3C19006E800E0B
:10327000005C02E16E0E3B5D01E273D054EC0EF097
:1032800017EC0BF0020E0B6E040E0C6EBA0E0D6EE8
:103290000D2EFED70C2EFCD70B2EFAD700009DEC7E
:1032A00013F0800E3C19006E800E005C02E16E0E81
:1032B0003B5D01E256D0800E016E800E2119015C4B
:1032C00002E120516E08010ED8B0000E016E800E92
:1032D0002119006E800E3C19005C02E13B51205D1B
:1032E000010ED8B0000E006E0150001601E039D07A
:1032F000F1DD000E3C1902E1000E3B1903E154EC34
:103300000EF02FD0800E3C19006E800E005C02E1A2
:10331000780E3B5D01E225D00101CB51050A010E7B
:10332000D8A4000E016EB651050A010ED8A4000EF5
:10333000006E0150001601E014D0B651050805E2F8
:103340004FC0BAF0010E4F6EEBDC0101CB51050806
:1033500007E247C24DF2010E0201476F2DEC15F056
:103360000400120043EC00F014C39FF30EEC00F0D5
:10337000800E9F6F0EEC00F061C39FF30EEC00F027
:10338000BCEC00F012000301656B666B640E3F5DE0
:10339000626F000E4059636F3D6B3E6B010E020180
:1033A000856F000E866F04008851010A04E1280E23
:1033B0000301646F03D00301780E646F616B645185
:1033C000615D4EE202018851000A010ED8A4000E90
:1033D000016E81B002D0068001D0069081B202D089
:1033E000D88001D0D89006B003D002E2069001D078
:1033F000068081B402D0D88001D0D89006B003D026
:1034000002E2069001D00680006A06B0002A015050
:10341000001607E033DD02018751010A02E1876BE4
:10342000AFD230EC10F0800E6619006E800E3E199F
:10343000005C02E13D51655D08E23DC365F33EC3BA
:1034400066F33BC385F23CC386F2100E0C6E940EFD
:103450000D6E0D2EFED70C2EFCD70000612BAFD7C2
:10346000040065C380F266C381F285C267F386C239
:1034700068F33FDE800E02018619006E800E0301A4
:103480004019005C03E13F510201855D0201000E1D
:10349000D8B0010E006E00507F15056E800E8319A6
:1034A000036E800E8619035C02E18551825D010E78
:1034B000D8B0000E036E8251855D016E835186592E
:1034C000026E800E03016319006E800E0218005C0C
:1034D00002E10150625D010ED8B0000E006E005096
:1034E0000314046E800E02018619036E800E831988
:1034F000035C02E18251855D010ED8B0000E036EBF
:103500008551825D016E86518359026E800E0301E2
:103510006319006E800E0218005C02E10150625DCA
:10352000010ED8B0000E006E0350001600500410BB
:10353000016E02018351030A02E1E70E8219010EB6
:10354000D8A4000E006E015000120550001602E0D3
:10355000010E846F8851000A010ED8A4000E016E7E
:1035600081B002D0068001D0069081B202D0D8800E
:1035700001D0D89006B003D002E2069001D00680B8
:1035800081B402D0D88001D0D89006B003D002E236
:10359000069001D00680006A06B0002A015000168D
:1035A00007E06CDC02018751010A02E1876BE8D178
:1035B00080C278F381C279F32EEC12F002018851B7
:1035C000000A010ED8A4000E016E81B002D0068060
:1035D00001D0069081B202D0D88001D0D89006B038
:1035E00003D002E2069001D0068081B402D0D880D8
:1035F00001D0D89006B003D002E2069001D0068038
:10360000006A06B0002A0150001607E037DC02010C
:103610008751010A02E1876BB3D102010400800ED9
:10362000050A006E800E8119005C02E18051DC0801
:10363000D8B0A6D103013A51040A010ED8A4000E55
:10364000016E3A51050A010ED8A4000E006E015019
:103650000012D8B4C0D0020E866F100E876F890E8C
:10366000886F020E896F080E8A6FB1EC07F0030EA7
:103670000B6E080E0C6E770E0D6E0D2EFED70C2EF7
:10368000FCD70B2EFAD7020E866F100E876FD10E65
:10369000886F020E896F080E8A6FB1EC07F00B0E6F
:1036A0000B6E260E0C6E5D0E0D6E0D2EFED70C2EC3
:1036B000FCD70B2EFAD7000000000400020E866F24
:1036C000100E876FC80E886F020E896F080E8A6F02
:1036D000B1EC07F0070E0B6E170E0C6E6A0E0D6E36
:1036E0000D2EFED70C2EFCD70B2EFAD70000020EA3
:1036F000866F100E876FDA0E886F020E896F080EC4
:103700008A6FB1EC07F00B0E0B6E260E0C6E5D0E81
:103710000D6E0D2EFED70C2EFCD70B2EFAD7000007
:1037200000000400020E866F100E876FEC0E886F8B
:10373000020E896F080E8A6FB1EC07F0070E0B6E50
:10374000170E0C6E6A0E0D6E0D2EFED70C2EFCD7CA
:103750000B2EFAD70000020E866F100E876FE30E55
:10376000886F020E896F080E8A6FB1EC07F00B0E9E
:103770000B6E260E0C6E5D0E0D6E0D2EFED70C2EF2
:10378000FCD70B2EFAD7000000000400020E866F53
:10379000100E876FBF0E886F020E896F080E8A6F3A
:1037A000B1EC07F0030E0B6E080E0C6E770E0D6E6B
:1037B0000D2EFED70C2EFCD70B2EFAD7020E866FDD
:1037C000100E876F9B0E886F020E896F080E8A6F2E
:1037D000B1EC07F0BBD03A51000AD8B4B7D0010E13
:1037E000866F876B920E886F020E896F080E8A6F44
:1037F000B1EC07F0030E0B6E080E0C6E770E0D6E1B
:103800000D2EFED70C2EFCD70B2EFAD7010E866F8D
:10381000876BA40E886F020E896F080E8A6FB1EC59
:1038200007F00B0E0B6E260E0C6E5D0E0D6E0D2E40
:10383000FED70C2EFCD70B2EFAD700000000040098
:10384000010E866F876BB60E886F020E896F080EA9
:103850008A6FB1EC07F0070E0B6E170E0C6E6A0E36
:103860000D6E0D2EFED70C2EFCD70B2EFAD70000B6
:10387000010E866F876BAD0E886F020E896F080E82
:103880008A6FB1EC07F00B0E0B6E260E0C6E5D0E00
:103890000D6E0D2EFED70C2EFCD70B2EFAD7000086
:1038A00000000400010E866F876B570E886F020EB2
:1038B000896F080E8A6FB1EC07F0070E0B6E170EBA
:1038C0000C6E6A0E0D6E0D2EFED70C2EFCD70B2E35
:1038D000FAD70000010E866F876B4E0E886F020EBE
:1038E000896F080E8A6FB1EC07F00B0E0B6E260E77
:1038F0000C6E5D0E0D6E0D2EFED70C2EFCD70B2E12
:10390000FAD7000000000400010E866F876B600E7E
:10391000886F020E896F080E8A6FB1EC07F0030EF4
:103920000B6E080E0C6E770E0D6E0D2EFED70C2E44
:10393000FCD70B2EFAD7010E866F876B6B0E886F44
:10394000020E896F080E8A6FB1EC07F00B0E0B6E3A
:10395000260E0C6E5D0E0D6E0D2EFED70C2EFCD7B6
:103960000B2EFAD7000000000400100E0201696F50
:10397000270E6A6F85C267F386C268F379EC18F088
:103980001200040E0301176F0D0E186F860E196FCB
:10399000030E1A6FC26A0101691D006E0050C11644
:1039A000070EC012C08EC280120043EC00F014C398
:1039B0009FF30EEC00F09F6B0EEC00F0AE0E9F6FCD
:1039C0000EEC00F01C51020A010ED8A4000E016E8C
:1039D0001C51030A010ED8A4000E006E0150001203
:1039E000D8B479D0D50E9F6F0EEC00F0800E9F6F8B
:1039F0000EEC00F0A80E9F6F0EEC00F03F0E9F6FD4
:103A00000EEC00F0D30E9F6F0EEC00F01C51020A7A
:103A100005E115C39FF30EEC00F005D015511F0F03
:103A20009F6F0EEC00F0400E9F6F0EEC00F08D0EBD
:103A30009F6F0EEC00F0140E9F6F0EEC00F0810EE5
:103A40009F6F0EEC00F0B40E9F6F0EEC00F0D90EDD
:103A50009F6F0EEC00F0220E9F6F0EEC00F0200E18
:103A60009F6F0EEC00F0020E9F6F0EEC00F0210E27
:103A70009F6F0EEC00F09F6B0EEC00F07F0E9F6FBF
:103A80000EEC00F02E0E9F6F0EEC00F01C51020A9F
:103A900009E1A00E9F6F0EEC00F0C00E9F6F0EECC0
:103AA00000F008D0A10E9F6F0EEC00F0C80E9F6FC3
:103AB0000EEC00F0DA0E9F6F0EEC00F0020E9F6F1E
:103AC0000EEC00F0DB0E9F6F0EEC00F0400E9F6FCF
:103AD0000EEC00F06FD0D50E9F6F0EEC00F0800E54
:103AE0009F6F0EEC00F0A80E9F6F0EEC00F03F0EE3
:103AF0009F6F0EEC00F0D30E9F6F0EEC00F015C31D
:103B00009FF30EEC00F0400E9F6F0EEC00F08D0E58
:103B10009F6F0EEC00F0140E9F6F0EEC00F0810E04
:103B20009F6F0EEC00F0FF0E9F6F0EEC00F0D90EB1
:103B30009F6F0EEC00F0F10E9F6F0EEC00F0200E68
:103B40009F6F0EEC00F0020E9F6F0EEC00F0210E46
:103B50009F6F0EEC00F09F6B0EEC00F07F0E9F6FDE
:103B60000EEC00F02E0E9F6F0EEC00F01C51040ABC
:103B700009E1A00E9F6F0EEC00F0C00E9F6F0EECDF
:103B800000F008D0A10E9F6F0EEC00F0C80E9F6FE2
:103B90000EEC00F0DA0E9F6F0EEC00F0120E9F6F2D
:103BA0000EEC00F0DB0E9F6F0EEC00F0400E9F6FEE
:103BB0000EEC00F0A40E9F6F0EEC00F0A60E9F6FAF
:103BC0000EEC00F0BCEC00F0030E0B6E080E0C6E59
:103BD000770E0D6E0D2EFED70C2EFCD70B2EFAD7BE
:103BE00043EC00F014C39FF30EEC00F0400E9F6F07
:103BF0000EEC00F01C51020A010ED8A4000E016E5A
:103C00001C51030A010ED8A4000E006E01500012D0
:103C100015E0606B6051030810E360C39AF39B6B7F
:103C20007FEC00F05F6B800E5F5D05E25F2B9F6BAA
:103C30000EEC00F0F8D7602BEDD714D0606B60511C
:103C4000070810E360C39AF39B6B7FEC00F05F6B97
:103C5000800E5F5D05E25F2B9F6B0EEC00F0F8D7E6
:103C6000602BEDD7BCEC00F0AF0E616FB2EC19F039
:103C70001200040003013A51040A010ED8A4000EF8
:103C8000016E3A51050A010ED8A4000E006E0150D3
:103C9000001257E002017D51000A0DE10301866B1D
:103CA000100E876F620E886F000E896F080E8A6F84
:103CB000B1EC07F00CD00301866B100E876F590E24
:103CC000886F000E896F080E8A6FB1EC07F0020E44
:103CD000866F100E876F500E886F000E896F080E6A
:103CE0008A6FB1EC07F0040E866F100E876F430EDB
:103CF000886F000E896F080E8A6FB1EC07F0060E10
:103D0000866F100E876F200E886F000E896F080E69
:103D10008A6FB1EC07F002018853010ED8A4000E9F
:103D2000006E7F5100160CE00301866B700E876FEA
:103D30001E0E886F000E896F010E8A6FB1EC07F0BE
:103D400071D003013A51000A6DE002017D51000A71
:103D50000CE10301866B876B150E886F000E896F6F
:103D6000080E8A6FB1EC07F00BD00301866B876BEE
:103D70003A0E886F000E896F080E8A6FB1EC07F05B
:103D8000010E866F876B310E886F000E896F080EEB
:103D90008A6FB1EC07F03A51010A18E1866B090EFF
:103DA000876F290E886F000E896F070E8A6FB1EC3E
:103DB00007F0010E866F090E876F6B0E886F000E7D
:103DC000896F070E8A6FB1EC07F017D0866B090E6A
:103DD000876FAC0E886F000E896F080E8A6FB1EC8A
:103DE00007F0010E866F090E876FA30E886F000E15
:103DF000896F080E8A6FB1EC07F002018853010E3B
:103E0000D8A4000E006E7F5100160CE00301866BF3
:103E1000080E876FA10E886F000E896F010E8A6FE2
:103E2000B1EC07F003010400136B106B17EC0BF0FF
:103E300012005FC300F00032009E0032009E00328C
:103E4000009E0032009E0A0E0002F3CF01F00F0E1A
:103E500003015F15006E01500026120004000301EB
:103E60003A51000A02E18A8C8A8E3A51040A010E04
:103E7000D8A4000E016E3A51050A010ED8A4000E16
:103E8000006E015000120DE0020E866F400E876F2B
:103E9000640E886F010E896F040E8A6FB1EC07F013
:103EA0000FD03A51000A0CE0010E866F040E876FA6
:103EB0005F0E886F010E896F040E8A6FB1EC07F0F8
:103EC00002EC19F0FF0E0301846F46C285F3BAECD1
:103ED00008F0FE0E0301846F11C385F3BAEC08F0FD
:103EE000FD0E0301846F12C385F3BAEC08F00301E1
:103EF0003A51000A18E1800E006E800E3C19005CF9
:103F000002E13B51960802E38A9C0DD0800E006EC0
:103F1000800E3C19005C02E13B51FA0803E3819CEE
:103F2000819E01D0819E100E0201696F270E6A6F7B
:103F3000100E4D6E270E4E6EC3EC19F03BC382F28D
:103F40003CC383F217EC0BF0899E898C04001200AD
:103F5000A69C5FC3A9FFA69EA680A8CF00F0120072
:103F60000900F5CFE6FF0006FBE10106F9E11200CA
:103F7000070EB46E600ED36E9B8C806A816A826A73
:103F8000896A8A6A8B6A030E926E070E936E946A30
:103F9000F8DC0D0EC16EF19EF29E12000400010EBF
:103FA00003015F6FD5DF00C03AF3020E5F6FD0DF11
:103FB0000050010A03E1010E02017F6F030E0301AD
:103FC0005F6FC6DF00C05FF334DF00C024F3000E74
:103FD000256F040E5F6FBCDF00C05FF32ADF0A0E9F
:103FE0000002F3CF3FF3F4CF40F3050E5F6FB0DF75
:103FF00000C05FF31EDF0A0E0002F3CF36F3F4CFEA
:1040000037F3060E5F6FA4DF00C05FF312DF0A0E06
:104010000002F3CF26F3F4CF27F3090E5F6F98DF8A
:1040200000C05FF306DF0A0E0002F3CF20F3F4CFE7
:1040300021F30A0E5F6F8CDF00C0B6F10B0E5F6FCD
:1040400087DF00C04CF00C0E5F6F82DF00C0CBF149
:104050000D0E5F6F7DDF00C079F20E0E5F6F78DFAF
:1040600000C07BF20F0E5F6F73DF00C07CF20400B4
:10407000100E5F6F6DDF00C05FF3DBDE640E0002C9
:10408000F3CF5DF3F4CF5EF3110E5F6F61DF00C01D
:104090005FF3CFDE00505D254F6F000E5E21506F45
:1040A000120E5F6F55DF00C05FF3C3DE640E0002C7
:1040B000F3CF5DF3F4CF5EF3130E5F6F49DF00C003
:1040C0005FF3B7DE00505D254D6F000E5E214E6F31
:1040D000140E5F6F3DDF00C05FF3ABDE640E0002C5
:1040E000F3CF5DF3F4CF5EF3150E5F6F31DF00C0E9
:1040F0005FF39FDE00505D25496F000E5E214A6F21
:10410000160E5F6F25DF00C05FF393DE640E0002C2
:10411000F3CF5DF3F4CF5EF3170E5F6F19DF00C0CE
:104120005FF387DE00505D25436F000E5E21446F14
:10413000180E5F6F0DDF00C05FF37BDE640E0002C0
:10414000F3CF5DF3F4CF5EF3190E5F6F01DF00C0B4
:104150005FF36FDE00505D25416F000E5E21426F00
:104160001A0E5F6FF5DE00C05FF363DE640E0002BF
:10417000F3CF5DF3F4CF5EF31B0E5F6FE9DE00C09B
:104180005FF357DE00505D25476F000E5E21486FDC
:104190001C0E5F6FDDDE00C05FF34BDE640E0002BD
:1041A000F3CF5DF3F4CF5EF31D0E5F6FD1DE00C081
:1041B0005FF33FDE00505D25456F000E5E21466FC8
:1041C000200E5F6FC5DE00C05FF333DE640E0002B9
:1041D000F3CF5DF3F4CF5EF3210E5F6FB9DE00C065
:1041E0005FF327DE00505D255B6F000E5E215C6F84
:1041F000220E5F6FADDE00C05FF31BDE640E0002B7
:10420000F3CF5DF3F4CF5EF3230E5F6FA1DE00C04A
:104210005FF30FDE00505D25596F000E5E215A6F6F
:10422000240E5F6F95DE00C05FF303DE640E0002B4
:10423000F3CF5DF3F4CF5EF3250E5F6F89DE00C030
:104240005FF3F7DD00505D25536F000E5E21546F64
:10425000260E5F6F7DDE00C05FF3EBDD640E0002B3
:10426000F3CF5DF3F4CF5EF3270E5F6F71DE00C016
:104270005FF3DFDD00505D25516F000E5E21526F50
:10428000280E5F6F65DE00C05FF3D3DD640E0002B1
:10429000F3CF5DF3F4CF5EF3290E5F6F59DE00C0FC
:1042A0005FF3C7DD00505D25576F000E5E21586F2C
:1042B0002A0E5F6F4DDE00C05FF3BBDD640E0002AF
:1042C000F3CF5DF3F4CF5EF32B0E5F6F41DE00C0E2
:1042D0005FF3AFDD00505D25556F000E5E21566F18
:1042E0002C0E5F6F35DE00C05FF3A3DD640E0002AD
:1042F000F3CF5DF3F4CF5EF32D0E5F6F29DE00C0C8
:104300005FF397DD00505D25226F000E5E21236F65
:10431000300E5F6F1DDE00C07DF20400120003014D
:104320003A51040A010ED8A4000E016E3A51050A52
:10433000010ED8A4000E006E015000120CE0866B36
:104340000A0E876F7D0E886F000E896F090E8A6FC7
:10435000B1EC07F00ED03A51000A0BE0866B030E69
:10436000876F730E886F000E896F090E8A6FB1EC2C
:1043700007F004000B0E0B6E260E0C6E5D0E0D6E1C
:104380000D2EFED70C2EFCD70B2EFAD70000000006
:1043900004000B0E0B6E260E0C6E5D0E0D6E0D2EB8
:1043A000FED70C2EFCD70B2EFAD70000000004001D
:1043B0000B0E0B6E260E0C6E5D0E0D6E0D2EFED7C7
:1043C0000C2EFCD70B2EFAD70000000004000B0EB9
:1043D0000B6E260E0C6E5D0E0D6E0D2EFED70C2E86
:1043E000FCD70B2EFAD70000000004003A51040A53
:1043F000010ED8A4000E016E3A51050A010ED8A490
:10440000000E006E015000120CE0866B0A0E876FE2
:10441000950E886F000E896F090E8A6FB1EC07F058
:104420000ED03A51000A0BE0866B030E876F8B0E9D
:10443000886F000E896F090E8A6FB1EC07F054EC9B
:104440000EF0FF0E846F856BBAEC08F0FE0E0301D0
:10445000846F856BBAEC08F0FD0E0301846F856BE9
:10446000BAEC08F0010E0301126F010E6D6FE4EC5F
:1044700015F03A51040A010ED8A4000E016E3A510B
:10448000050A010ED8A4000E006E015000120CE0C7
:10449000866B700E876F890E886F000E896F010E14
:1044A0008A6FB1EC07F00ED03A51000A0BE0866B30
:1044B000080E876FB70E886F010E896F010E8A6F25
:1044C000B1EC07F039EC1EF01200810E0301786F99
:1044D0000F0E796F7A6B320E7B6F7C6BF4EC11F000
:1044E0000201845100123FE0898E899C060E0B6EFA
:1044F000130E0C6EAD0E0D6E0D2EFED70C2EFCD7CE
:104500000B2EFAD70000000004008451000A010EAF
:10451000D8A4000E016E81B002D0D89001D0D8800E
:10452000006AD8B0002A0150001605E0DEEC12F057
:104530000001E16B16D092DC0001E16B810E0301FA
:10454000786F0F0E796F7A6B320E7B6F7C6BF4ECA9
:1045500011F0005204E0C3EC19F00400EFD702019F
:10456000846B17EC0BF0810E0301786F0F0E796FDF
:10457000020E7A6F320E7B6F7C6BF4EC11F00052FE
:104580004FE004000001E151000A20E1010EE16F5B
:1045900046C22AF111C341F112C340F10201466B38
:1045A0000301116B010E126F866BFFEC03F046C224
:1045B00086F386EC07F012C36DF3E4EC15F07FC2CE
:1045C0003FF102017F6B17EC0BF018D00001E16B9B
:1045D0002AC146F241C111F340C112F32AC186F348
:1045E00086EC07F011C386F3FFEC03F012C36DF302
:1045F000E4EC15F03FC17FF217EC0BF0810E0301E4
:10460000786F0F0E796F020E7A6F320E7B6F7C6BB4
:10461000F4EC11F0005204E0C3EC19F00400EED702
:10462000810E0301786F0F0E796F010E7A6F320ED3
:104630007B6F7C6BF4EC11F00001E151000A010E7C
:10464000D8A4000E016E0150001624E004000201FF
:104650007F51000A03E1010E7F6F01D07F6B020ED4
:104660000301846F7FC285F3BAEC08F017EC0BF0FE
:10467000810E0301786F0F0E796F010E7A6F320E83
:104680007B6F7C6BF4EC11F0005204E0C3EC19F08A
:104690000400EED71200810E0301786F0F0E796FC0
:1046A0007A6B320E7B6F7C6BF4EC11F00052D8B455
:1046B00090D0060E0B6E130E0C6EAD0E0D6E0D2E01
:1046C000FED70C2EFCD70B2EFAD7000000000400FA
:1046D00081A00ED01251000A03E1010E126F01D029
:1046E000126B12C36DF3E4EC15F017EC0BF060D015
:1046F0000001B951010A02E1B96B02D0010EB96F94
:10470000B951010A2BE103013A51040A010ED8A460
:10471000000E016E3A51050A010ED8A4000E006E7B
:10472000015000120CE0866B700E876FB70E886F19
:10473000000E896F010E8A6FB1EC07F00ED03A516E
:10474000000A0BE0866B080E876FB50E886F000EAF
:10475000896F010E8A6FB1EC07F02AD003013A513C
:10476000040A010ED8A4000E016E3A51050A010E8A
:10477000D8A4000E006E015000120CE0866B700E83
:10478000876F9F0E886F000E896F010E8A6FB1ECE4
:1047900007F00ED03A51000A0BE0866B080E876FC7
:1047A000870E886F000E896F010E8A6FB1EC07F0DB
:1047B0000301810E786F0F0E796F7A6B320E7B6F6B
:1047C0007C6BF4EC11F0005204E0C3EC19F004002F
:1047D000EFD7810E0301786F0F0E796F020E7A6F9B
:1047E000320E7B6F7C6BF4EC11F000526FE0040032
:1047F0000301810E786F0F0E796F020E7A6F320E01
:104800007B6F7C6BF4EC11F0005260E0050E026EE1
:104810004FC000F0000E016E025005E0003600901F
:104820000136FF0FFAD7010E005C026E000E015830
:10483000036E800E006E800E0318005C03E103011E
:104840000250115D010ED8B0000E006E0001B9518A
:10485000001607E00301112B11C386F3FFEC03F0F0
:104860002FD00001B953010ED8A4000E046E050E1E
:10487000026E4FC000F0000E016E025005E00036DF
:1048800000900136FF0FFAD7010E005C026E000E99
:104890000158036E800E006E800E0318005C03E169
:1048A00002500201465D010ED8B0000E006E0450A9
:1048B000001606E00201462B46C286F386EC07F09E
:1048C00017EC0BF0C3EC19F0040092D7810E030132
:1048D000786F0F0E796F010E7A6F320E7B6F7C6BE3
:1048E000F4EC11F00001E151000A010ED8A4000E11
:1048F000016E015000163BE00400810E0301786F49
:104900000F0E796F010E7A6F320E7B6F7C6BF4ECB9
:1049100011F000522CE011510008010ED8B0000E29
:10492000006E0001B951001607E00301110711C321
:1049300086F3FFEC03F015D00001B953010ED8A4A3
:10494000000E016E020146510008010ED8B0000EA3
:10495000006E0150001605E0460746C286F386EC5D
:1049600007F017EC0BF0C3EC19F00400C6D71200E7
:1049700003015F6BA8EC1FF000C014F30050000AA5
:1049800005E1939C939E8A8C8A8E04D0938C938E9F
:104990008A9C8A9E1200010E03015F6FA8EC1FF033
:1049A00000C01CF3070E5F6FA8EC1FF000C015F3EA
:1049B000080E5F6FA8EC1FF000C01EF31C51010A27
:1049C00003E0D5EC1CF052D0010E166F1F6B030EE6
:1049D000906F94EC03F01A0E0C6EF80E0D6E0D2E07
:1049E000FED70C2EFCD70000030E906F94EC03F062
:1049F000060E0C6E300E0D6E0D2EFED70C2EFCD753
:104A00000000030E906F94EC03F0020E906F94EC94
:104A100003F0020E906F94EC03F0080E906F94EC8C
:104A200003F0906B94EC03F0080E906F94EC03F09D
:104A3000906B94EC03F0010E906F94EC03F01A0E5F
:104A40000C6EF80E0D6E0D2EFED70C2EFCD700004E
:104A5000906B94EC03F0060E906F94EC03F0906B67
:104A600094EC03F00C0E906F94EC03F01200040031
:104A700003013A51040A010ED8A4000E016E3A5106
:104A8000050A010ED8A4000E006E01500012D8B421
:104A90000FD1866B160E876FC30E886F010E896F5C
:104AA000070E8A6FB1EC07F0020E866F060E876F55
:104AB000B90E886F010E896F090E8A6FB1EC07F08D
:104AC000040E866F100E876FAE0E886F010E896F11
:104AD000080E8A6FB1EC07F0060E0C6E300E0D6EEC
:104AE0000D2EFED70C2EFCD70000040E866F100E84
:104AF000876FAE0E886F010E896F080E8A6FB1EC5A
:104B000007F0060E0C6E300E0D6E0D2EFED70C2E1D
:104B1000FCD70000040E866F100E876FAE0E886FF4
:104B2000010E896F080E8A6FB1EC07F0060E0C6E4D
:104B3000300E0D6E0D2EFED70C2EFCD70000060E8B
:104B4000866F040E876F860E886F010E896F0A0EBE
:104B50008A6FB1EC07F004000D0E0B6E2D0E0C6E7B
:104B6000D70E0D6E0D2EFED70C2EFCD70B2EFAD7BE
:104B70000000000004000B0E0B6E260E0C6E5D0E86
:104B80000D6E0D2EFED70C2EFCD70B2EFAD7000083
:104B900000000400866B100E876F7D0E886F010E7B
:104BA000896F080E8A6FB1EC07F0020E866F040E53
:104BB000876F720E886F010E896F0A0E8A6FB1ECD3
:104BC00007F0040E866F100E876FA50E886F010E1A
:104BD000896F080E8A6FB1EC07F0060E866F040E1F
:104BE000876F9A0E886F010E896F0A0E8A6FB1EC7B
:104BF00007F0040E0B6E0C0E0C6E330E0D6E0D2EA8
:104C0000FED70C2EFCD70B2EFAD7000000000201B5
:104C10007D51000A0DE10301866B100E876F910E26
:104C2000886F010E896F080E8A6FB1EC07F00CD007
:104C30000301866B100E876FCC0E886F010E896F93
:104C4000080E8A6FB1EC07F0020E866F100E876FA8
:104C5000290E886F020E896F080E8A6FB1EC07F07B
:104C6000040E866F100E876F200E886F020E896FFC
:104C7000080E8A6FB1EC07F0060E866F100E876F74
:104C8000170E886F020E896F080E8A6FB1EC07F05D
:104C900002017F530CE00301866B700E876F440E98
:104CA000886F020E896F010E8A6FB1EC07F02CD16C
:104CB00003013A51000AD8B427D1866B040E876FDE
:104CC0003C0E886F020E896F070E8A6FB1EC07F0F9
:104CD000010E866F030E876F320E886F020E896F8A
:104CE000090E8A6FB1EC07F004000F0E0B6E350E43
:104CF0000C6E510E0D6E0D2EFED70C2EFCD70B2E0A
:104D0000FAD704000B0E0B6E260E0C6E5D0E0D6EA8
:104D10000D2EFED70C2EFCD70B2EFAD7000000006C
:104D20000400866B040E876FAE0E886F010E896FCC
:104D3000080E8A6FB1EC07F0060E0C6E300E0D6E89
:104D40000D2EFED70C2EFCD70000866B040E876F4D
:104D5000AE0E886F010E896F080E8A6FB1EC07F0F6
:104D6000060E0C6E300E0D6E0D2EFED70C2EFCD7DF
:104D70000000866B040E876FAE0E886F010E896F80
:104D8000080E8A6FB1EC07F0060E0C6E300E0D6E39
:104D90000D2EFED70C2EFCD70000010E866F030EE1
:104DA000876F0C0E886F020E896F0A0E8A6FB1EC46
:104DB00007F004000D0E0B6E2D0E0C6ED70E0D6E4F
:104DC0000D2EFED70C2EFCD70B2EFAD700000000BC
:104DD00004000B0E0B6E260E0C6E5D0E0D6E0D2E6E
:104DE000FED70C2EFCD70B2EFAD7000000000400D3
:104DF000866B040E876FE90E886F010E896F080EAF
:104E00008A6FB1EC07F0010E866F030E876FDE0E1E
:104E1000886F010E896F0A0E8A6FB1EC07F0040EDD
:104E20000B6E0C0E0C6E330E0D6E0D2EFED70C2E6F
:104E3000FCD70B2EFAD70000000002017D51000ABA
:104E40000CE10301866B876BD50E886F010E896FAD
:104E5000080E8A6FB1EC07F00BD00301866B876BED
:104E6000030E886F020E896F080E8A6FB1EC07F08F
:104E7000010E866F876BFA0E886F010E896F080E20
:104E80008A6FB1EC07F03A51010A18E1866B090EFE
:104E9000876FF20E886F010E896F070E8A6FB1EC73
:104EA00007F0010E866F090E876F6A0E886F010E7C
:104EB000896F070E8A6FB1EC07F017D0866B090E69
:104EC000876F550E886F010E896F080E8A6FB1ECDF
:104ED00007F0010E866F090E876F4C0E886F010E6A
:104EE000896F080E8A6FB1EC07F002017F530CE066
:104EF0000301866B080E876F4A0E886F010E896F5B
:104F0000010E8A6FB1EC07F00400120049EC2BF09F
:104F1000D0B603D0010E01015E6F0101898C550EE0
:104F20004225AE6F2D0E4925B56FB8EC1FF0720EFD
:104F30004325AF6F320E4825B46F030E0B6E080E7B
:104F40000C6E770E0D6E0D2EFED70C2EFCD70B2E91
:104F5000FAD704001E0E4425B06F3B0E4725B36FF1
:104F6000CEEC1FF005DD420E01014525B16F050EA7
:104F70000B6E0F0E0C6EF10E0D6E0D2EFED70C2E5D
:104F8000FCD70B2EFAD7040081B202D0028001D0E8
:104F9000029081B402D0D88001D0D89002A003D072
:104FA00002E3028001D0029002A003D0010E0201B0
:104FB000886FF1DC81B202D0028001D0029081B40E
:104FC00002D0D88001D0D89002A003D002E30280A2
:104FD00001D0029081B002D0D88001D0D89002A038
:104FE00003D002E3028001D0029002A044D003016A
:104FF0003A510A0A0CE1866B030E876F350E886FF3
:10500000010E896F090E8A6FB1EC07F00ED03A518C
:10501000000A0BE0866B0C0E876F2B0E886F010E5B
:10502000896F090E8A6FB1EC07F0FF0E866F86EC70
:1050300007F002017C51000A06E1FF0E0301866FB2
:10504000FFEC03F004D00301866BFFEC03F0010ECC
:105050006D6FE4EC15F00B0E0B6E260E0C6E5D0EF4
:105060000D6E0D2EFED70C2EFCD70B2EFAD700009E
:1050700000000400F0D71C0E01014625B26F0400A9
:105080005E51000A010ED8A4000E016E0201885183
:10509000000A010ED8A4000E006E015000161CE09C
:1050A00054EC0EF0FF0E846F856BBAEC08F0FE0E28
:1050B0000301846F856BBAEC08F0FD0E0301846F69
:1050C000856BBAEC08F0010E0301126F010E6D6FD3
:1050D000E4EC15F0CCDC35D001015E51010A010E83
:1050E000D8A4000E016E02018851000A010ED8A456
:1050F000000E006E0150001622E0FF0E03015F6FEC
:10510000A8EC1FF000C046F2FE0E5F6FA8EC1FF087
:1051100000C011F3FD0E5F6FA8EC1FF000C012F38A
:1051200011C386F3FFEC03F046C286F386EC07F06A
:1051300012C36DF3E4EC15F039EC1EF002D08FECE5
:1051400021F00101B651050A03E1010E4F6E0BD0AB
:10515000B651060A03E1020E4F6E05D0B651070A9A
:1051600002E1040E4F6ECB51050A04E1010E02016B
:10517000476F0FD00101CB51060A04E1020E020174
:10518000476F07D00101CB51070A03E1040E02016A
:10519000476F17EC0BF00400C3EC19F002018851C3
:1051A000000A03E165EC22F002D04BEC23F0F3D7C8
:1051B000FFD75057523D302E3057002E00433D2030
:1051C0002020307046004C3D302E30307500535753
:1051D000523D302E3030005057523D202030570085
:1051E0004C3D302E30307548000010270153575287
:1051F0003D302E3030005057523D20203057005067
:1052000057523D302E305700433D20202030700053
:1052100054455354204D4F44450054455354204D5C
:105220004F44450063006C002020202020202020D7
:1052300020002020202020202020200063002E009D
:10524000433D202020307046004C3D302E303175DB
:1052500048006C006C00010020005F002E00200060
:10526000433D202020207000433D20202020704618
:1052700000433D202020207046005F002E00005299
:1052800045534554202020005057523D2020305790
:10529000005057523D302E3057005057523D20207D
:1052A0003057005057523D302E3057005357523D23
:1052B000302E3030005357523D302E3030005245A2
:1052C0005345542020200000464153542054455358
:1052D0005400464153542054455354000000000DDF
:1052E00007020C1B0912162E00433D2020203070AF
:1052F00046004C3D302E30307548000054554E4528
:105300000054554E450030433D2020203070002091
:1053100020202020202020202000202020202020AD
:1053200020200046572076657220322E36005057D6
:10533000523D302E305700202020202020202020D9
:1053400020002020202020202020000C100E0D12F4
:105350000B1013076C0045585420626F6172640093
:105360004154552D31303000075057523D202030E8
:1053700057005057523D302E30570020202020201B
:105380002020202020002020202020202020004C31
:105390003D302E303075005357523D302E303000A6
:1053A0005057523D202030570046572076657220D6
:1053B000322E3600433D202020307046004C3D30D8
:1053C0002E30307548005357523D302E3030004556
:1053D000585420626F617264004154552D31303051
:1053E000002E000001302E303000004F5645524C48
:1053F0004F41440020202020202020200020202079
:1054000020202020200010275357523D202020200C
:1054100000302E30300000000100000000000000CD
:10542000000000000000202020202020202000205C
:1054300020202020202020005357523D20202020D3
:10544000004F5645524C4F4144004F5645524C4F29
:105450004144002020202020202020002020202047
:1054600020202020002020202020202020004F5617
:1054700045524C4F4144004F5645524C4F41440019
:105480004F5645524C4F41440020202020202020E0
:105490002000014C3D202020207548004C3D20205C
:1054A000202075004C3D20202020754800FD000084
:1054B000FD000000000000005F0000000700070082
:1054C000147F147F14242A7F2A122313086462365F
:1054D000495522500005030000001C2241000041F4
:1054E000221C00082A1C2A0808083E080800503020
:1054F00000000808080808003030000020100804E8
:10550000023E5149453E00427F40004261514946BA
:105510002141454B311814127F1027454545393C30
:105520004A49493001710905033649494936064956
:1055300049291E00363600000056360000000814C7
:1055400022411414141414412214080002015109B8
:1055500006324979413E7E1111117E7F4949493613
:105560003E414141227F4141221C7F494949417FBF
:10557000090901013E414151327F0808087F00417D
:105580007F41002040413F017F081422417F40407D
:1055900040407F0204027F7F0408107F3E4141416A
:1055A0003E7F090909063E4151215E7F09192946BE
:1055B000464949493101017F01013F4040403F1FB9
:1055C0002040201F7F2018207F63140814630304E9
:1055D000780403615149454300007F4141020408BA
:1055E000102041417F00000402010204404040407D
:1055F00040000102040020545454787F4844443849
:105600003844444420384444487F3854545418089B
:105610007E090102081454543C7F080404780044B5
:105620007D40002040443D00007F10284400417F21
:1056300040007C041804787C08040478384444440E
:10564000387C14141408081414187C7C080404080A
:105650004854545420043F4440203C4040207C1C8B
:105660002040201C3C4030403C44281028440C5032
:1056700050503C4464544C44000836410000007FC4
:105680000000004136080008082A1C08081C2A08E7
:1056900008FF10EE15F0FF0E006E030E016EB20E45
:1056A000F66E510EF76E000EF86EB0EC1FF01200A1
:020000040030CA
:0D000100081A11FF8181FF0FC00FE00F40B2
:0200000400F00A
:100000004E01001513050001020007000700010062
:100010000050011002200450100022004500FFFF94
:100020000010002200470100022004701000FFFFB2
:1000300000FFFFFFFFFFFFFFFFFFFFFFFFFFFFFFCF
:10004000FFFFFFFFFFFFFFFFFFFFFFFFFFFFFFFFC0
:10005000FFFFFFFFFFFFFFFFFFFFFFFFFFFFFFFFB0
:10006000FFFFFFFFFFFFFFFFFFFFFFFFFFFFFFFFA0
:10007000FFFFFFFFFFFFFFFFFFFFFFFFFFFFFFFF90
:10008000FFFFFFFFFFFFFFFFFFFFFFFFFFFFFFFF80
:10009000FFFFFFFFFFFFFFFFFFFFFFFFFFFFFFFF70
:1000A000FFFFFFFFFFFFFFFFFFFFFFFFFFFFFFFF60
:1000B000FFFFFFFFFFFFFFFFFFFFFFFFFFFFFFFF50
:1000C000FFFFFFFFFFFFFFFFFFFFFFFFFFFFFFFF40
:1000D000FFFFFFFFFFFFFFFFFFFFFFFFFFFFFFFF30
:1000E000FFFFFFFFFFFFFFFFFFFFFFFFFFFFFFFF20
:1000F000FFFFFFFFFFFFFFFFFFFFFFFFFFFFFFFF10
:00000001FF

