:1000000057EF2BF00000000000EF00F000000000B0
:100010000000000000000000F3D7FFFF0201C951FB
:10002000000A18E0938C060E0D6E0D2EFED7000010
:10003000938E060E0D6E0D2EFED70000939E060EBB
:100040000D6E0D2EFED70000939C060E0D6E0D2E2C
:10005000FED7000012000201C951000A32E0016A15
:10006000015007081CE303013FBF02D0939E01D05B
:10007000938E060E0D6E0D2EFED70000938C060E8D
:100080000D6E0D2EFED70000939C060E0D6E030123
:100090000D2EFDD700003F373F91012AE1D7938E07
:1000A000060E0D6E0D2EFED70000938C060E0D6E03
:1000B0000D2EFED70000939C060E0D6E0D2EFED762
:1000C000000012000201C85103013B253E6FA6DF6C
:1000D000CAC23FF3C0DF03013F6BBDDF03013A51EA
:1000E000B00F3F6FB8DF03013E510F0804E33EC37A
:1000F0003CF33D6B19D03EC302F00232029E023245
:10010000029E0232029E0232029E02C03DF302C0F3
:1001100000F0003600900036009000360090003667
:10012000009000503E5D3C6F3CC33FF394DF030101
:100130003D51100F3F6F8FDF71DFCAC23FF38BDF7E
:10014000400E03013F6F87DF1200086A096A100E34
:100150000C6E0134083609360450085E0550D8A0EC
:10016000053C095ED8B007D0045008260550D8B029
:10017000053C0926D890003601360C2EEAD712002D
:10018000026A016A006A086A036A000E12000B84A0
:100190000BAED2EF00F0010E036E026A016A006A34
:1001A0000A360232FF0E12000AAE029E000E120044
:1001B0000201C951000A12E0939E060E0D6E0D2E2B
:1001C000FED70000938C060E0D6E0D2EFED700009C
:1001D000938E060E0D6E0D2EFED7000012000B80C2
:1001E0000BAEFBEF00F0026A0AAEFF0E026E016E6C
:1001F000006E0A360232FF0E12000301346B050E48
:10020000345D0AE234513225E16E000E3321E26E94
:10021000200EE66E342BF3D734513225E16E000EFA
:100220003321E26EE66A340734513225356F000E11
:100230003321366F0A0E046E000E056E30C300F0D7
:1002400031C301F082DF08C000F009C001F0300EB8
:10025000002635C3E1FF36C3E2FF00C0E6FF0A0E09
:10026000046E000E056E30C300F031C301F06DDF87
:1002700000C030F301C031F3000E011802E1000E9E
:10028000001801E102D03407CFD712000B820BAE69
:1002900050EF01F003680268016800680A36023214
:1002A000FF0E12001D0E0D6E0D2EFED712000C6AF1
:1002B0000E6A0250D8A470EF01F001C002F000C035
:1002C00001F0006A0E860250D8A470EF01F001C060
:1002D00002F0016A0E960E880250D8B482EF01F047
:1002E0000E50035ED8A4D8A087EF01F0D89002BECC
:1002F0008CEF01F0003601360236032E77EF01F065
:1003000087EF01F0010E0C6E3BDF8FEF01F0020E64
:100310000C6E3DDF8FEF01F0040E0C6E45DF120016
:100320000301316B0201CE6B010ECD6F30C331F38F
:1003300003013137319131373191313731913137D3
:1003400031910201CC5303E0080E03013127020171
:10035000CD5303E0040E030131270201CE5303E025
:10036000020E030131270201CB5302E00301312BBE
:1003700055DECAC23FF36FDE31C33FF36CDE18DFD8
:10038000060E0C6E300E0D6E0D2EFED70C2EFCD709
:100390000000040E0301315F41DECAC23FF35BDEA1
:1003A00031C33FF358DE04DF060E0C6E300E0D6EC7
:1003B0000D2EFED70C2EFCD7000012002FDECAC275
:1003C0003FF349DE400E03013F6F45DE31C33AF390
:1003D00030C33BF377DE0301356B3451355DD8B064
:1003E000B3D035513225E96E000E3321EA6EEE505E
:1003F000000A02E1376B09D035513225E96E000E53
:100400003321EA6E200EEE5C376F366B36510408EE
:10041000D8A092D0050E3703F3CF00F0F4CF01F04F
:1004200036510026000E0122BD0E0024F66E5B0E32
:100430000120F76E000EF86E000E01BEFF0EF822CE
:100440000900F5CF38F33151020A000ED8A4010E8D
:10045000016E3151040A000ED8A4010E006E005046
:1004600001163151060A000ED8A4010E006E01508B
:10047000001629E038B702D0399F01D0398F38B73C
:1004800002D0399D01D0398D38B502D0399B01D0C9
:10049000398B38B502D0399901D0398938B302D0B7
:1004A000399701D0398738B302D0399501D03985D1
:1004B00038B102D0399301D0398338B102D03991A3
:1004C00001D0398120D038B502D0399F01D0398F81
:1004D00038B502D0399D01D0398D38B302D0399B5F
:1004E00001D0398B38B302D0399901D0398938B16C
:1004F00002D0399701D0398738B102D0399501D06F
:1005000039853993399139C33FF3A5DD0201C951CA
:10051000040A010ED8A4000E016EC951050A010E8D
:10052000D8A4000E006E0150001203E039C33FF35F
:1005300092DD0301362B6AD73F6B8DDD03013F6BE4
:100540008ADD0301352B49D73151010F3A6F30C392
:100550003BF3B8DD0301356B3451355DD8B0BBD00A
:1005600035513225E96E000E3321EA6EEE50000A55
:1005700002E1376B09D035513225E96E000E332187
:10058000EA6E200EEE5C376F366B36510408D8A049
:100590009AD0050E3703F3CF00F0F4CF01F03651B7
:1005A0000026000E0122BD0E0024F66E5B0E012017
:1005B000F76E000EF86E000E01BEFF0EF822090065
:1005C000F5CF38F33151020A000ED8A4010E016EA6
:1005D0003151040A000ED8A4010E006E005001161D
:1005E0003151060A000ED8A4010E006E015000160B
:1005F00029E038BF02D0399F01D0398F38BF02D0EF
:10060000399D01D0398D38BD02D0399B01D0398B4D
:1006100038BD02D0399901D0398938BB02D0399719
:1006200001D0398738BB02D0399501D0398538B926
:1006300002D0399301D0398338B902D0399101D031
:10064000398128D038BD02D0399F01D0398F38BDCB
:1006500002D0399D01D0398D38BB02D0399B01D0F1
:10066000398B38BB02D0399901D0398938B902D0D9
:10067000399701D0398738B902D0399501D03985F9
:1006800038B702D0399301D0398338B702D03991C5
:1006900001D0398139C33FF3DEDC0201C951040ABC
:1006A000010ED8A4000E016EC951050A010ED8A48E
:1006B000000E006E0150001203E039C33FF3CBDCA3
:1006C0000301362B62D73F6BC6DC03013F6BC3DCF3
:1006D0000301352B41D76CDD12000450085E055034
:1006E000D8A0053C095E0650D8A0063C0A5E07501B
:1006F000D8A0073C0B5E0336070E0C6E0334083699
:1007000009360A360B36045003A00ED0085E055099
:10071000D8A0053C095E0650D8A0063C0A5E0750EA
:10072000D8A0073C0B5E0DD008260550D8B0053C7C
:1007300009260650D8B0063C0A260750D8B0073C18
:100740000B2603360C2EDAD70234083609360A3661
:100750000B36045003A00ED0085E0550D8A0053C0F
:10076000095E0650D8A0063C0A5E0750D8A0073C98
:100770000B5E0DD008260550D8B0053C0926065062
:10078000D8B0063C0A260750D8B0073C0B260236E4
:10079000070E0C6E0234083609360A360B36045042
:1007A00002A00ED0085E0550D8A0053C095E065098
:1007B000D8A0063C0A5E0750D8A0073C0B5E0DD0BF
:1007C00008260550D8B0053C09260650D8B0063C8E
:1007D0000A260750D8B0073C0B2602360C2EDAD773
:1007E0000134083609360A360B36045002A00ED002
:1007F000085E0550D8A0053C095E0650D8A0063C0E
:100800000A5E0750D8A0073C0B5E0DD008260550A5
:10081000D8B0053C09260650D8B0063C0A26075039
:10082000D8B0073C0B260136070E0C6E0134083693
:1008300009360A360B36045001A00ED0085E05506A
:10084000D8A0053C095E0650D8A0063C0A5E0750B9
:10085000D8A0073C0B5E0DD008260550D8B0053C4B
:1008600009260650D8B0063C0A260750D8B0073CE7
:100870000B2601360C2EDAD70034083609360A3634
:100880000B36045001A00ED0085E0550D8A0053CE0
:10089000095E0650D8A0063C0A5E0750D8A0073C67
:1008A0000B5E0DD008260550D8B0053C0926065031
:1008B000D8B0063C0A260750D8B0073C0B260036B5
:1008C000070E0C6E0034083609360A360B36045013
:1008D00000A00ED0085E0550D8A0053C095E065069
:1008E000D8A0063C0A5E0750D8A0073C0B5E0DD08E
:1008F00008260550D8B0053C09260650D8B0063C5D
:100900000A260750D8B0073C0B2600360C2EDAD743
:1009100000B00ED0045008260550D8B0053C09267A
:100920000650D8B0063C0A260750D8B0073C0B2624
:100930001200086A096A000E076203641EEF05F0E0
:10094000025006180A6E075003267E0ED8A0AFEF9D
:1009500004F0035ED8B023EF05F0B3EF04F0035EBC
:10096000D8A027EF05F0028E068E02C00EF001C05F
:100970000BF000C00DF000500402F4CF0CF0015059
:100980000502F4CF00F0F3CF08F00402F3500C2678
:10099000F4500822000E00220D500502F3500C26E0
:1009A000F4500822000E002202500402F3500826E0
:1009B000F450002202500502016A000E0122F35099
:1009C0000026F45001220D500602F3500826F45080
:1009D0000022026A000E012202220B500602F3508E
:1009E0000026F4500122000E02220E500602F3509F
:1009F0000126F450022202BE06EF05F0083600364A
:100A0000013602360306D8B427EF05F019EF05F0DA
:100A1000D880800E08640030000E002201220222DD
:100A2000D8A019EF05F0023201320032034A23EF59
:100A300005F00AAE029E000E2AEF05F0010EC0EC92
:100A400000F02AEF05F0020E21DC2AEF05F0040E7B
:100A5000C7EC00F0120000C008F00150006E016AFF
:100A6000026A036A0B6A0C6A016A026A036A960EDA
:100A7000036E0A6A00AE43EF05F0081E001E082A46
:100A8000D8B4002A0A8E00C001F008C000F0086A3D
:100A9000026A0DDC12000B1E0A1E091E081E082A1F
:100AA000D8B4092AD8B40A2AD8B40B2A12000B6A7F
:100AB0000A6A096A00500402F4CF09F0F3CF08F083
:100AC00001500502F4CF0BF0F3CF0AF000500502FD
:100AD000F3500926F4500A22E86A0B22015004025E
:100AE000F3500926F4500A22E86A0B2208C000F0ED
:100AF00009C001F00AC002F00BC003F01200005060
:100B0000086E0150006E016A026A036A0B6A0C6A81
:100B1000960E036E0A6A00C001F008C000F0086A71
:100B2000026A57EC01F012000CB0D6EF05F00CA2EF
:100B30007EEF06F00E6A000E0264EDEF05F0F00E97
:100B40000214D8A4B8EF05F0023A01380F0B0226C0
:100B50000138F00B016E00380F0B01260038F00B46
:100B6000006E08380F0B00260838F00B086E0E8454
:100B7000D89002BED1EF05F00836003601360236B5
:100B80000E2A02BED1EF05F00836003601360236D5
:100B90000E2A02BED1EF05F00836003601360236C5
:100BA0000E2A0E50036472EF06F0035E0BBC08AE13
:100BB00078EF06F0D880800E08640030000E002226
:100BC00001220222D8A078EF06F002320132003270
:100BD000034A7EEF06F078EF06F001C002F000C095
:100BE00001F008C000F0086A000E0E86026424EFCF
:100BF00006F0F00E0214D8A40CEF06F0023A013809
:100C00000F0B02260138F00B016E00380F0B012686
:100C10000038F00B006E0E84D89002BED1EF05F0C4
:100C20000036013602360E2A02BED1EF05F000363C
:100C3000013602360E2A02BED1EF05F0003601362B
:100C400002360E2AD1EF05F001C002F000C001F01B
:100C5000006A000E0E960E88026451EF06F0F00E48
:100C60000214D8A43CEF06F0023A01380F0B02261A
:100C70000138F00B016E0E84D89002BED1EF05F062
:100C8000013602360E2A02BED1EF05F001360236D9
:100C90000E2A02BED1EF05F0013602360E2AD1EF40
:100CA00005F001C002F0016A000E0E86026484EFB6
:100CB00006F0F00E0214D8A460EF06F0023A0E849B
:100CC000D89002BED1EF05F002360E2A02BED1EF57
:100CD00005F002360E2A02BED1EF05F002360E2ACA
:100CE000D1EF05F0010E0C6EC7EC00F088EF06F0B6
:100CF000020E0C6ED4EC00F088EF06F0040E0C6EC1
:100D000046EC01F088EF06F0080E0C6EC0EC00F027
:100D100012000B6A0350D8B4CFEF06F002500A6EEF
:100D2000028E8E0E035E03AED3EF06F0036C080E48
:100D3000035CD8A0AEEF06F0036E013602C001F0EE
:100D4000026A080E035CD8A0AEEF06F0036E01360F
:100D5000016A0350D8A4D890B8EF06F00350D8B475
:100D6000B8EF06F0D89002320132032EB2EF06F04F
:100D70000BBC01A0C5EF06F0D8A0C5EF06F0012A14
:100D8000D8B4022A02BEE2EF06F00AAEE8EF06F09F
:100D9000021E011E012AD8B4022AE8EF06F0026AF8
:100DA000016AE8EF06F00B800BAEECEF06F0026A8A
:100DB0000AAEECEF06F0FF0E026E016E0A3602324A
:100DC000ECEF06F0010E0C6EEFEC00F0EEEF06F02B
:100DD000000E0C6EEEEF06F0FF0E0C6E0150006E72
:100DE0000250016E12000201C951040A010ED8A47A
:100DF000000E016EC951050A010ED8A4000E006E46
:100E0000015000120DE027C330F326C331F328C38D
:100E100032F329C333F32AC334F3DEEC01F05DD09F
:100E2000C951020A010ED8A4000E016EC951030A6D
:100E3000010ED8A4000E006E0150001214E0070E3F
:100E400003012703F3CF30F3040E302726C331F319
:100E50003137319128C332F329C333F32AC334F332
:100E6000DEEC01F03AD0CB6B26C300F000360090E8
:100E7000003600900050080F0301306F90EC01F035
:100E800027C330F390EC01F0010ECB6F03012B6B05
:100E90002A512B5D22E22B512825E96E000E2921D3
:100EA000EA6EEECF01F001C030F33033309F3033C3
:100EB000309F3033309F3033309F90EC01F003018E
:100EC0002B512825E96E000E2921EA6EEECF30F372
:100ED00090EC01F003012B2BDBD712000EEC00F09D
:100EE000CAC23FF32BEC00F0800E03013F6F2BECE6
:100EF00000F026C33FF32BEC00F0D8EC00F012001A
:100F0000220E0C6E086A096A0A6A0B6A0C06D8B4CB
:100F10001FD0D8900B320A32093208320332023223
:100F200001320032D8A0F2D70C06D8B409D0045050
:100F300008260550092206500A2207500B22EAD73C
:100F4000045008260550092206500A2207500B2299
:100F5000120003012C6B2D6B26C32EF327C32FF336
:100F6000800E2719006E800E005C02E1000E265DE7
:100F70000BE2010E2C6F000E2D6F265100082E6F14
:100F800027C32FF3000E2F572EC330F32FC331F397
:100F900028C332F329C333F3FDEC00F0060E2A6FA9
:100FA000000E2B6F000E006E2B51005C02E12A51E7
:100FB000000819E22A512825E16E2B512921E26E01
:100FC000010E2A5D006E000E2B59016E005028257F
:100FD000E96E01502921EA6EEECFE6FF010E2A5F8D
:100FE000000E2B5BDFD728C3E1FF29C3E2FF200EF1
:100FF000E66E2C512D111AE02A6B2B6B2A512825F5
:10100000E96E2B512921EA6EEE50200A03E12A4BAA
:101010002B2BF4D7010E2A5F000E2B5B2A512825BB
:10102000E16E2B512921E26E2D0EE66E1200030EA9
:101030000C6E950E0D6E0D2EFED70C2EFCD71200E9
:10104000830EC21626C300F00036009000360090D2
:101050000050C21252EC01F0C282C2A201D0FDD7F0
:10106000C4CF01F0006AC3500012000E011212003A
:101070000B6A0B86FF0E12000301256B21C301F0E2
:10108000010E006E015004E000360090FF0FFBD708
:1010900000C024F31FC3E9FF20C3EAFF0050EE1491
:1010A000016E0152010ED8A4000E006E2351001AE9
:1010B00018E02251000804E2BADFB9DF2207F9D7AD
:1010C0001FC3E9FF20C3EAFF2451EE14016E015251
:1010D000010ED8A4000E006E2351001A02E0FF0E8C
:1010E000256F25C300F012001FC300F020C301F0DC
:1010F000030E046E000E056EDADC00C01FF301C0A3
:1011000020F3800E026E800E0118025C02E1005096
:10111000500803E3006A016ABCD0800E006E800EA6
:1011200003012019005C02E11F51AB0805E3F40E36
:101130001F27000E2023A9D0800E010A006E800E0A
:101140002019005C02E11F51480805E3FE0E1F272D
:10115000000E20239AD0800E020A006E800E201905
:10116000005C02E11F51460805E3180E1F27010E1F
:1011700020238BD0800E030A006E800E2019005CA5
:1011800002E11F51340805E3290E1F27010E202319
:101190007CD0800E040A006E800E2019005C02E1F3
:1011A0001F514C0805E3360E1F27010E20236DD07A
:1011B000800E080A006E800E2019005C02E11F51AB
:1011C000850805E3AE0E1F27010E20235ED0800E9A
:1011D0000C0A006E800E2019005C02E11F51FA0813
:1011E00005E3E40E1F27010E20234FD0800E120AC4
:1011F000006E800E2019005C02E11F510F0805E30C
:10120000120E1F27020E202340D0800E160A006EF9
:10121000800E2019005C02E11F51E60805E3880EEC
:101220001F27020E202331D0800E1B0A006E800E75
:101230002019005C02E11F51EA0805E3E70E1F27B1
:10124000020E202322D0800E210A006E800E20196B
:10125000005C02E11F51360805E3200E1F27030E34
:10126000202313D0800E290A006E800E2019005C06
:1012700002E11F51040805E3480E1F27030E202337
:1012800004D05C0E1F27030E20231FC300F020C3D1
:1012900001F012000301266BD3DE00C01FF301C072
:1012A00020F30150040A02E1000E001804E1010ECF
:1012B0000201A16F02D00201A16B1FC300F020C385
:1012C00001F02BEC05F0890E046E410E056E1C0E2C
:1012D000066E810E076E99EC04F01BDD1200A00E65
:1012E0000301216F0F0E226F000E236F246FA00EDB
:1012F000006E0F0E016E000E026E000E036E1FC315
:1013000004F020C305F0000E066E076EF9DD00C084
:1013100021F301C022F302C023F303C024F3000E23
:10132000035C08E1000E025C05E1020E015C02E1D3
:10133000940E005C01E231D0940E215F020E225B1C
:10134000000E235B245B050E006E005007E0243383
:10135000233322332133249FFF0FF8D721C300F01A
:1013600022C301F023C302F024C303F0010E215F66
:10137000000E225B235B245B00500110021003105F
:101380000CE0000000000000000000000000000071
:101390000000000000000000E1D712000450000A25
:1013A00012E10550000A0FE10650000A0CE1075057
:1013B000000A09E1FF0E006EFF0E016EFF0E026EC5
:1013C0007F0E036E99D00C6A07BE0C2A0D6A0B6A59
:1013D0000A6A096A086A0350021001100010D8B4A2
:1013E00085D0035007180E6E0EBE0D1E07AE0BD033
:1013F000041E051E061E071E042AD8B4052AD8B4EA
:10140000062AD8B4072A03AE0BD0001E011E021E06
:10141000031E002AD8B4012AD8B4022AD8B4032A59
:10142000035007100E6E0EBE1DD06DEC03F00CBE07
:1014300036D00DAE5BD0001E011E021E031E002A18
:10144000D8B4012AD8B4022AD8B4032A081E091E27
:101450000A1E0B1E082AD8B4092AD8B40A2AD8B4FE
:101460000B2A44D007AE15D003BE0DD003500B6E2F
:1014700002500A6E0150096E0050086E036A026A3B
:10148000016A006AD6D7036A026A016A006A002A02
:10149000000C031E021E011E001E0C8EC6D7082A59
:1014A000D8B4092AD8B40A2AD8B40B2A0450085C44
:1014B000D8A4BFD70550095CD8A4BBD706500A5C96
:1014C000D8A4B7D707500B5CD8A4B3D70B6A0A6A65
:1014D000096A086A002AD8B4012AD8B4022AD8B402
:1014E000032A03AEA6D70E6A0E88FF0C0E6A0CA064
:1014F00002D04BEC05F0000F12000450000A12E17C
:101500000550000A0FE10650000A0CE10750000ADE
:1015100009E1FF0E006EFF0E016E7F0E026EFF0EE0
:10152000036EA7D0086A096A0750D8B428EF0BF0F9
:101530000350D8B42CEF0BF0025006180A6E028E3E
:10154000068E0E6A02C008F001C00CF000C00DF05B
:1015500004500D5E0550D8A0053C0C5E0650D8A086
:10156000063C085E086A0C6A0D6AD8A0BFEF0AF054
:10157000D8900232013200320832010E0E6E07504E
:10158000035ED8A0CCEF0AF07E0E0E240326D8B05E
:1015900031EF0BF0D2EF0AF07E0E0E240326D8A016
:1015A00036EF0BF0180E0B6E0D360C360836003683
:1015B000013602360E360450005E0550D8A0053CB8
:1015C000015E0650D8A0063C025E06340E120EA044
:1015D000EDEF0AF00D80F8EF0AF0045000260550F8
:1015E000D8B0053C01260650D8B0062802260D903A
:1015F0000B2ED4EF0AF01EEF0BF0D8900036013618
:1016000002360E360450005E0550D8A0053C015E3F
:101610000650D8A0063C025E06340E10010B0D26C3
:10162000D8B00C2AD8B4082AD8A41EEF0BF0083280
:101630000C320D32032AD8B431EF0BF00AAE089EFB
:101640000850026E0C50016E0D50006E39EF0BF019
:10165000010E0EDD39EF0BF0020EC0EC00F039EF99
:101660000BF0040E46EC01F039EF0BF0080EC7EC5E
:1016700000F012000050086E0150006E0250016E22
:101680000350026E036A0B6A0C6A9E0E036E0A6AAE
:1016900002AE57EF0BF0081E001E011E021E082AA4
:1016A000D8B4002AD8B4012AD8B4022A0A8E020E6D
:1016B0000C6E94EC05F012000201C951010805E21C
:1016C000AF0E0301266F0ADC0ED0C951010A0BE1EF
:1016D000010ECC6FCB6B0301306B90EC01F003017A
:1016E000306B90EC01F0120000C008F00B6A0C6A3D
:1016F0009E0E036E0A6A026A016A006A020E0C6E8E
:1017000094EC05F01200010E0301266F99DC7FECCA
:1017100005F0890E046E410E056E1C0E066E810EDC
:10172000076E99EC04F089EC06F0120002500618DE
:101730000E6E086A096A0B6A0350076489EF0CF0A1
:1017400006500A6E068E028E03500B6E0750036E13
:10175000000E0B64D9EF0BF00B50075ED8B47AEF94
:101760000CF0070E076448EF0CF0075E00C008F0AD
:1017700001C000F002C001F0026A074E7AEF0CF0DF
:1017800007641DEF0CF0075E00C008F001C000F018
:10179000016A074E7AEF0CF00764FBEF0BF0075E6F
:1017A00000C008F0006A074E7AEF0CF00764E2EF21
:1017B0000BF00AC002F005C001F004C000F0086A96
:1017C000A6EF0DF0030E0764EDEF0BF0075E08388F
:1017D0000F0B086E074E7AEF0CF0D8900832074EC8
:1017E0007AEF0CF0D8900832074E7AEF0CF0D890D0
:1017F00008327AEF0CF0030E07640CEF0CF0075E72
:1018000008380F0B086E0038F00B082600380F0B55
:10181000006E074E7AEF0CF0D89000320832074E77
:101820007AEF0CF0D89000320832074E7AEF0CF0C5
:10183000D890003208327AEF0CF0030E076434EFD0
:101840000CF0075E08380F0B086E0038F00B082606
:1018500000380F0B006E0138F00B002601380F0B1B
:10186000016E074E7AEF0CF0D89001320032083248
:10187000074E7AEF0CF0D890013200320832074E52
:101880007AEF0CF0D8900132003208327AEF0CF087
:10189000030E076465EF0CF0075E08380F0B086E47
:1018A0000038F00B082600380F0B006E0138F00BE3
:1018B000002601380F0B016E0238F00B01260238AA
:1018C0000F0B026E074E7AEF0CF0D8900232013205
:1018D00000320832074E7AEF0CF0D8900232013213
:1018E00000320832074E7AEF0CF0D8900232013203
:1018F00000320832096A000E0EAE6EEF0DF0081EBF
:10190000001E011E021E082A0022012202226EEF82
:101910000DF00750D8A48FEF0CF0A6EF0DF0096A78
:1019200002C00AF0028E068E0750035C076ED8B420
:1019300061EF0DF0070E07642FEF0DF0075E045006
:10194000096E0550046E0650056E066A074E61EF7B
:101950000DF0070E076404EF0DF0075E0450096EEA
:101960000550046E056A074E61EF0DF0070E07641F
:10197000E2EF0CF0075E0450096E046A074E61EF57
:101980000DF0070E0764C9EF0CF00AC002F0A6EFD5
:101990000DF0030E0764D4EF0CF0075E09380F0B4F
:1019A000096E074E61EF0DF0D8900932074E61EFD6
:1019B0000DF0D8900932074E61EF0DF0D890093242
:1019C00061EF0DF0030E0764F3EF0CF0075E0938CA
:1019D0000F0B096E0438F00B092604380F0B046E48
:1019E000074E61EF0DF0D89004320932074E61EFD7
:1019F0000DF0D89004320932074E61EF0DF0D89007
:101A00000432093261EF0DF0030E07641BEF0DF095
:101A1000075E09380F0B096E0438F00B09260438ED
:101A20000F0B046E0538F00B042605380F0B056EFE
:101A3000074E61EF0DF0D890053204320932074E9F
:101A400061EF0DF0D890053204320932074E61EF94
:101A50000DF0D89005320432093261EF0DF0030E1B
:101A600007644CEF0DF0075E09380F0B096E043860
:101A7000F00B092604380F0B046E0538F00B042612
:101A800005380F0B056E0638F00B052606380F0BD0
:101A9000066E074E61EF0DF0D89006320532043223
:101AA0000932074E61EF0DF0D8900632053204324C
:101AB0000932074E61EF0DF0D8900632053204323C
:101AC0000932086A000E0EAE6EEF0DF0091E041EFC
:101AD000051E061E092A0422052206220950082690
:101AE0000450002205500122065002220EBE85EF4E
:101AF0000DF0D8A094EF0DF002320132003208321E
:101B0000033E94EF0DF0A0EF0DF0D8B09AEF0DF07A
:101B1000000E081E001E011E021E082A00220122BD
:101B200002220A7E9AEF0DF0010E0C6E94EC05F085
:101B3000A8EF0DF0020E0C6E94EC05F0A8EF0DF07E
:101B4000040E0C6E46EC01F0A8EF0DF0000E0C6ECA
:101B5000120004000BC2A5F00201A96BAA6B0BA135
:101B600004D0AB51A927AC51AA230BA304D0B15187
:101B7000A927B251AA230BA504D0AF51A927B05170
:101B8000AA230BA704D0AD51A927AE51AA230BA9B4
:101B900004D0B351A927B451AA230BAB04D0C1512F
:101BA000A927C251AA230BAD04D0BF51A927C05108
:101BB000AA23A9C226F3AAC227F3DA0E0301286FCB
:101BC000020E296FA9EC07F00201DC51200A03E0A4
:101BD000DCC2D3F202D0300ED36F2E0ED46FDD51A3
:101BE000200A03E0DDC2D5F202D0300ED56FDE51FF
:101BF000200A03E0DEC2D6F202D0300ED66FE951E1
:101C0000040A010ED8A4000E016EE951050A010E66
:101C1000D8A4000E006E0150001231E00A51010AF2
:101C200004E1040E03011F6F03D00301060E1F6FB2
:101C30001FC326F3100E276FF10E286F000E296FB9
:101C4000020E2A6FF3EC06F01FC326F3580E0301B1
:101C5000276FF40E286F000E296F020E2A6FF3EC27
:101C600006F01FC326F3280E0301276FD30E286F3B
:101C7000020E296F040E2A6FF3EC06F073D00201F6
:101C8000E951020A010ED8A4000E016EE951030ABF
:101C9000010ED8A4000E006E0150001230E00A516F
:101CA000010A03E103011F6B03D00301010E1F6F43
:101CB0001FC326F3090E276FFD0E286F000E296F34
:101CC000020E2A6FF3EC06F01FC326F30F0E03017A
:101CD000276FFA0E286F000E296F020E2A6FF3ECA1
:101CE00006F01FC326F30B0E0301276FD30E286FD8
:101CF000020E296F040E2A6FF3EC06F033D00201B6
:101D0000E951010A2FE10A51010A03E103011F6BA6
:101D100003D00301010E1F6F1FC326F3090E276FA7
:101D2000F70E286F000E296F020E2A6FF3EC06F0F3
:101D30001FC326F30F0E0301276FEF0E286F000E4F
:101D4000296F010E2A6FF3EC06F01FC326F30B0E6A
:101D50000301276FD30E286F020E296F040E2A6F1E
:101D6000F3EC06F00DC2EEF00201A96BAA6B0DA117
:101D700004D0B551A927B651AA230DA304D0B75159
:101D8000A927B851AA230DA504D0BD51A927BE513A
:101D9000AA230DA704D0BB51A927BC51AA230DA982
:101DA00004D0B951A927BA51AA230DAB04D0A75129
:101DB000A927A851AA230DAD04D0A251A927A35148
:101DC000AA23A9C226F3AAC227F3DA0E0301286FB9
:101DD000020E296FA9EC07F0DCC2D3F2DDC2D4F207
:101DE000DEC2D5F2DFC2D6F20201E951040A010EC9
:101DF000D8A4000E016EE951050A010ED8A4000E08
:101E0000006E0150001231E00A51010A04E1060E91
:101E100003011F6F03D00301040E1F6F1FC326F3BE
:101E2000100E276F430E286F000E296F020E2A6FC7
:101E3000F3EC06F01FC326F3580E0301276F400E84
:101E4000286F000E296F020E2A6FF3EC06F01FC3F5
:101E500026F3280E0301276FD30E286F020E296F79
:101E6000040E2A6FF3EC06F073D00201E951020A66
:101E7000010ED8A4000E016EE951030A010ED8A488
:101E8000000E006E0150001230E00A51010A04E118
:101E9000010E03011F6F02D003011F6B1FC326F346
:101EA000090E276F460E286F000E296F020E2A6F4B
:101EB000F3EC06F01FC326F30F0E0301276F4E0E3F
:101EC000286F000E296F020E2A6FF3EC06F01FC375
:101ED00026F30B0E0301276FD30E286F020E296F16
:101EE000040E2A6FF3EC06F033D00201E951010A27
:101EF0002FE10A51010A04E1010E03011F6F02D014
:101F000003011F6B1FC326F3090E276F4B0E286FAB
:101F1000000E296F020E2A6FF3EC06F01FC326F3A2
:101F20000F0E0301276F490E286F000E296F010E57
:101F30002A6FF3EC06F01FC326F30B0E0301276F85
:101F4000D30E286F020E296F040E2A6FF3EC06F0F1
:101F500004000AC217F01200030109B102D08B9EDF
:101F600001D08B8E09B302D08B9601D08B8609B538
:101F700002D08B9C01D08B8C09B702D08B9401D0FE
:101F80008B8409B902D08B9A01D08B8A09BB02D00D
:101F90008B9201D08B8209BD02D08B9801D08B88A7
:101FA000E7C21FF3E8C220F36FEC09F01200020150
:101FB0001451000A25E1030109B102D08A9601D02B
:101FC0008A8609B302D0899401D0898409B502D0E8
:101FD0008A9801D08A8809B702D0899601D089866B
:101FE00009B902D08A9A01D08A8A09BB02D0899A9B
:101FF00001D0898A09BD02D0899801D0898824D06E
:10200000030109B102D08A8601D08A9609B302D0B1
:10201000898401D0899409B502D08A8801D08A9830
:1020200009B702D0898601D0899609B902D08A8A77
:1020300001D08A9A09BB02D0898A01D0899A09BD48
:1020400002D0898801D08998E7C21FF3E8C220F343
:102050006FEC09F01200040002012051000A010E89
:10206000D8A4000E016E7D50010A010ED8A4000E06
:10207000006E00500116800E03010C19006E800ED8
:10208000005C02E1640E0B5D000ED8B0010E006E24
:1020900001500016D8B4ABD002019F51000AD8A459
:1020A000A2D0E951040A010ED8A4000E016EE95134
:1020B000050A010ED8A4000E006E015000122CE09B
:1020C0009D51010A0EE1040E0301266F100E276FC9
:1020D000810E286F000E296F080E2A6FF3EC06F0B0
:1020E0000DD0040E0301266F100E276F9C0E286F73
:1020F000000E296F080E2A6FF3EC06F0060E03019E
:10210000266F100E276F930E286F000E296F080E92
:102110002A6FF3EC06F067D00201E951020A010EC2
:10212000D8A4000E016EE951030A010ED8A4000ED6
:10213000006E015000122AE09D51010A0DE10301D9
:10214000266B090E276F8A0E286F000E296F080E66
:102150002A6FF3EC06F00CD00301266B090E276FF3
:10216000640E286F000E296F080E2A6FF3EC06F03C
:10217000010E0301266F090E276F5B0E286F000EFC
:10218000296F080E2A6FF3EC06F02DD00201E951F9
:10219000010A29E19D51010A0DE10301266B090E97
:1021A000276F530E286F000E296F070E2A6FF3EC6E
:1021B00006F00CD00301266B090E276F6D0E286FF9
:1021C000000E296F070E2A6FF3EC06F0010E0301D3
:1021D000266F090E276F750E286F000E296F070EE8
:1021E0002A6FF3EC06F0010E02019F6F07D0020187
:1021F0009F51010A01E1ADDC02019F6B03010A510D
:1022000002017F1903E17E5103010919D8B409D3F2
:1022100009C37EF20AC37FF202019D51000A49E11F
:10222000800E03010A19006E800E005C02E1640E4C
:10223000095D1EE3050E0925006E000E0A21016EE0
:1022400000C009F301C00AF300C026F301C027F360
:10225000DA0E286F020E296FA9EC07F0DCC2D3F268
:10226000DDC2D4F2DEC2D5F2570E0201D66F20D005
:1022700009C326F30AC327F3DA0E0301286F020EFF
:10228000296FA9EC07F00201DE51200A03E0DEC24B
:10229000D3F202D0300ED36F2E0ED46FDF51200A4E
:1022A00003E0DFC2D5F202D0300ED56F570ED66FE5
:1022B00032D0800E03010A19006E800E030A005C02
:1022C00002E1E70E095D14E209C326F30AC327F30E
:1022D000DA0E286F020E296FA9EC07F0DDC2D3F2E7
:1022E000DEC2D4F2DFC2D5F2570E0201D66F13D090
:1022F00009C326F30AC327F3DA0E0301286F020E7F
:10230000296FA9EC07F0DCC2D3F2DDC2D4F2DEC241
:10231000D5F2DFC2D5F20201E951040A010ED8A4B8
:10232000000E016EE951050A010ED8A4000E006EE0
:10233000015000120DE00301266B400E276FD30EF3
:10234000286F020E296F040E2A6FF3EC06F010D0EE
:102350000201E951000A0CE00301266B040E276F0D
:10236000D30E286F020E296F040E2A6FF3EC06F0CD
:1023700002019F51010AD8A454D20BC300F00CC330
:1023800001F02BEC05F000C013F301C014F302C000
:1023900015F303C016F3000E046E000E056E480E12
:1023A000066E850E076E13C300F014C301F015C34B
:1023B00002F016C303F07DEC0AF000C01BF301C06D
:1023C0001CF302C01DF303C01EF313C304F014C3B7
:1023D00005F015C306F016C307F0000E006E000EE0
:1023E000016E480E026E850E036E7DEC0AF000C091
:1023F00017F301C018F302C019F303C01AF31BC38B
:1024000000F01CC301F01DC302F01EC303F017C38C
:1024100004F018C305F019C306F01AC307F096ECD0
:102420000BF000C013F301C014F302C015F303C096
:1024300016F3A6C200F074EC0BF013C304F014C33F
:1024400005F015C306F016C307F099EC04F0000E72
:10245000046E000E056E200E066E820E076E7DEC79
:102460000AF01F0E046E850E056E6B0E066E7B0E57
:10247000076E99EC04F0000E046E000E056E000E5F
:10248000066E7F0E076E96EC0BF000C004F001C0E4
:1024900005F002C006F003C007F0000E006E000E4B
:1024A000016E000E026E7F0E036E7DEC0AF000C01E
:1024B00013F301C014F302C015F303C016F3000EAA
:1024C000006E000E016E000E026E800E036E1BC3C6
:1024D00004F01CC305F01DC306F01EC307F096EC04
:1024E0000BF017C304F018C305F019C306F01AC3A4
:1024F00007F096EC0BF000C004F001C005F002C03C
:1025000006F003C007F0000E006E000E016E000E14
:10251000026E810E036E7DEC0AF013C304F014C347
:1025200005F015C306F016C307F099EC04F00A0E87
:10253000046ED70E056E230E066E770E076E96ECB0
:102540000BF000C013F301C014F302C015F303C075
:1025500016F313C30FF314C310F315C311F316C30B
:1025600012F309C300F00AC301F02BEC05F013C30A
:1025700004F014C305F015C306F016C307F099EC78
:1025800004F089EC06F000C00DF301C00EF313C394
:1025900000F014C301F015C302F016C303F0000EDF
:1025A000046E000E056E480E066E850E076E99ECE1
:1025B00004F000C00FF301C010F302C011F303C018
:1025C00012F302019D51000A49E1800E03010E1928
:1025D000006E800E005C02E1640E0D5D1EE3050ED0
:1025E0000D25006E000E0E21016E00C00DF301C01E
:1025F0000EF300C026F301C027F3DA0E286F020E97
:10260000296FA9EC07F0DCC2D3F2DDC2D4F2DEC23E
:10261000D5F2570E0201D66F20D00DC326F30EC39C
:1026200027F3DA0E0301286F020E296FA9EC07F0D9
:102630000201DE51200A03E0DEC2D3F202D0300EE6
:10264000D36F2E0ED46FDF51200A03E0DFC2D5F224
:1026500002D0300ED56F570ED66F32D0800E0301E8
:102660000E19006E800E030A005C02E1E70E0D5D9C
:1026700014E20DC326F30EC327F3DA0E286F020E01
:10268000296FA9EC07F0DDC2D3F2DEC2D4F2DFC2BB
:10269000D5F2570E0201D66F13D00DC326F30EC329
:1026A00027F3DA0E0301286F020E296FA9EC07F059
:1026B000DCC2D3F2DDC2D4F2DEC2D5F2DFC2D5F283
:1026C0000201E951040A010ED8A4000E016EE9517D
:1026D000050A010ED8A4000E006E015000120EE093
:1026E000040E0301266F400E276FD30E286F020ED3
:1026F000296F040E2A6FF3EC06F02DD00201E95188
:10270000020A010ED8A4000E016EE951030A010E5F
:10271000D8A4000E006E015000120DE00301266BDC
:102720000D0E276FD30E286F020E296F040E2A6F2D
:10273000F3EC06F010D00201E951010A0CE10301AB
:10274000266B0C0E276FD30E286F020E296F040E16
:102750002A6FF3EC06F00FC300F010C301F011C3B1
:1027600002F012C303F089EC06F000C026F301C0AA
:1027700027F3DA0E0301286F020E296FA9EC07F088
:10278000DEC2D3F2DFC2D4F20201E951040A010E23
:10279000D8A4000E016EE951050A010ED8A4000E5E
:1027A000006E015000120EE0060E0301266F4C0E63
:1027B000276FD30E286F020E296F020E2A6FF3ECDB
:1027C00006F02FD00201E951030A010ED8A4000E31
:1027D000016EE951040A010ED8A4000E006E0150EA
:1027E00000120EE0010E0301266F0E0E276FD30EAE
:1027F000286F020E296F020E2A6FF3EC06F011D03B
:102800000201E951010A0DE1010E0301266F0D0ECF
:10281000276FD30E286F020E296F020E2A6FF3EC7A
:1028200006F004001200810E03011F6F0F0E206FCF
:10283000216B190E226F236B3CEC08F000C009F3EA
:10284000810E1F6F0F0E206F010E216F190E226F68
:10285000236B3CEC08F000500913810E1F6F0F0E24
:10286000206F020E216F190E226F236B3CEC08F0D3
:102870000951001203E0010E02011C6F1200040056
:102880004AEC09F000C009F301C00AF3000E01BED2
:10289000FF0E03010B6F0C6F83EC0BF000C00DF308
:1028A00001C00EF3000E01BEFF0E03010F6F106F8B
:1028B0000201A051010A11E109C31FF30AC320F369
:1028C00074EC08F02BEC05F000C011F301C012F31A
:1028D00002C013F303C014F312D009C300F00AC3FB
:1028E00001F00BC302F00CC303F03AEC0BF000C094
:1028F00011F301C012F302C013F303C014F3800EEE
:1029000003011019006E800E0C19005C08E10B51D8
:102910000F5D05E10A510E5D02E109510D5D08E30D
:10292000E70E096F030E0A6F000E0B6F0C6F45D098
:102930000D510925006E0E510A21016E0F510B2118
:10294000026E10510C21036E640E046E000E056EB3
:10295000066E076E80EC07F009C304F00AC305F0A9
:102960000BC306F00CC307F00D51045E0E51055A5F
:102970000F51065A1051075ACEEC09F000C009F366
:1029800001C00AF302C00BF303C00CF3800E046E07
:10299000800E0318045C08E10250000805E10150B4
:1029A000030802E10050E70808E2E70E0301096F9F
:1029B000030E0A6F000E0B6F0C6F02019D51010A8E
:1029C00061E19EC200F074EC0BF011C304F012C37D
:1029D00005F013C306F014C307F099EC04F0000EE1
:1029E000046E000E056E7A0E066E880E076E7DEC84
:1029F0000AF000C011F301C012F302C013F303C0C8
:102A000014F3F40E046EFD0E056E340E066E7F0E8A
:102A1000076E7DEC0AF000C011F301C012F302C092
:102A200013F303C014F300C004F001C005F002C0AA
:102A300006F003C007F099EC04F0000E046E000EDF
:102A4000056E480E066E840E076E7DEC0AF000C01F
:102A500011F301C012F302C013F303C014F3000E0C
:102A6000046E000E056E000E066E7E0E076E96EC6E
:102A70000BF000C011F301C012F302C013F303C046
:102A800014F364D011C300F012C301F013C302F0B9
:102A900014C303F0000E046E000E056E200E066EC9
:102AA000820E076E99EC04F0000E046E000E056EA7
:102AB0007A0E066E880E076E7DEC0AF000C011F3E8
:102AC00001C012F302C013F303C014F3F40E046E3A
:102AD000FD0E056E340E066E7F0E076E7DEC0AF05D
:102AE00000C011F301C012F302C013F303C014F3CA
:102AF00000C004F001C005F002C006F003C007F0FA
:102B000099EC04F0000E046E000E056E200E066EA9
:102B1000810E076E7DEC0AF000C011F301C012F3C4
:102B200002C013F303C014F3000E046E000E056E12
:102B3000000E066E7E0E076E96EC0BF000C011F3D1
:102B400001C012F302C013F303C014F311C300F069
:102B500012C301F013C302F014C303F089EC06F0B2
:102B600000C0D1F201C0D2F2800E0118026E800EB8
:102B7000025C02E10A0E005C06E2010E0201E16F56
:102B8000000EE26F1AD0800E03010C19006E800E49
:102B9000005C08E1000E0B5D05E1000E0A5D02E13C
:102BA000640E095D06E2E70E0201E16F030EE26FBB
:102BB00004D009C3E1F20AC3E2F2120004000301E7
:102BC0000A510201161903E1155103010919D8B47C
:102BD000C1D0030109C315F20AC316F2000E0A1987
:102BE00002E1010E09193AE10201E951040A010E5C
:102BF000D8A4000E016EE951050A010ED8A4000EFA
:102C0000006E015000120EE0020E0301266F400E0E
:102C1000276F170E286F020E296F040E2A6FF3EC30
:102C200006F018D00201E951000A0EE0010E03017E
:102C3000266F040E276F0F0E286F020E296F040EE9
:102C40002A6FF3EC06F006D00201E951000A02E116
:102C50008A8C8A8E0201156B166B7CD05CEC0BF0B3
:102C600001C200F074EC0BF004C204F005C205F0E0
:102C700006C206F007C207F099EC04F089EC06F0F2
:102C800000C002F201C003F209C315F20AC316F232
:102C900009C326F30AC327F3DA0E0301286F020ED5
:102CA000296FA9EC07F0DDC2D3F22E0E0201D46F1A
:102CB000DEC2D5F2DFC2D6F2E951040A010ED8A471
:102CC000000E016EE951050A010ED8A4000E006E37
:102CD000015000120EE0020E0301266F400E276F16
:102CE000D30E286F020E296F040E2A6FF3EC06F044
:102CF00031D00201E951000A0EE0010E0301266FF6
:102D0000040E276FD30E286F020E296F040E2A6F50
:102D1000F3EC06F01FD00201E951000A1BE1800E1E
:102D2000006E800E03010A19005C02E10951960849
:102D300003E38A9C8A8E0ED0800E006E800E0A19E4
:102D4000005C02E10951FA0803E3819C819E02D0F4
:102D5000818C819E04001200A6A202D00000FCD744
:102D6000A69C01C3A9FF02C3A8FFA69EA684F2CF1A
:102D700000F0F29E550EA76EAA0EA76EA68200BEA8
:102D800002D0F29E01D0F28EA694A1B802D000002B
:102D9000FCD7A1981200030101B102D08B9001D0A1
:102DA0008B80E7C21FF3E8C220F36FEC09F012003A
:102DB00002010B6B0D6B0301096BD7EC0FF00DC219
:102DC00009F3ACEC0FF0E7C21FF3E8C220F36FEC9D
:102DD00009F012000301056B066B640E0201EA5D47
:102DE0000301026F000E0201EB590301036F010E94
:102DF000076F000E086F0201D16BD26B04002051E7
:102E0000010A04E11E0E0301046F03D00301780ED2
:102E1000046F016B0451015D46E281B202D006806D
:102E200001D0069081B402D0D88001D0D89006B0ED
:102E300003D002E2069001D0068081B002D0D88093
:102E400001D0D89006B003D002E2069001D00680EF
:102E500006A007D0E8DC02011C51010A02E11C6B4C
:102E6000A6D20DDD800E03010619006E800E020150
:102E7000D219005C03E1D1510301055D08E2D1C222
:102E800005F3D2C206F3E1C207F3E2C208F3100E63
:102E90000C6E940E0D6E03010D2EFDD70C2EFBD77C
:102EA0000000012BB7D7040005C31EF206C31FF2B2
:102EB00007C309F308C30AF381DE800E0301081972
:102EC000006E800E0201EB19005C03E1EA51030180
:102ED000075D000ED8B0010E006E005002015715BC
:102EE000056E800E8119036E800E03010819035CC4
:102EF00003E107510201805D0201010ED8B0000E0E
:102F0000036E80510301075D016E020181510301CF
:102F10000859026E800E0319006E800E0218005CC4
:102F200002E10150025D010ED8B0000E006E0050AB
:102F30000314046E800E0819036E800E02018119BD
:102F4000035C03E180510301075D0301010ED8B06A
:102F5000000E036E07510201805D016E03010851EE
:102F600002018159026E800E03010319006E800E6A
:102F70000218005C02E10150025D010ED8B0000EA3
:102F8000006E0350001600500410016E02018151C2
:102F9000030A02E1E70E8019010ED8A4000E006EAC
:102FA000015000120550001602E0010E616F81B25F
:102FB00002D0068001D0069081B402D0D88001D022
:102FC000D89006B003D002E2069001D0068081B00E
:102FD00002D0D88001D0D89006B003D002E206908B
:102FE00001D0068006A007D01EDC02011C51010A98
:102FF00002E11C6BDCD11EC209F31FC20AF307C336
:103000000BF308C30CF32BEC10F081B202D0068056
:1030100001D0069081B402D0D88001D0D89006B0FB
:1030200003D002E2069001D0068081B002D0D880A1
:1030300001D0D89006B003D002E2069001D00680FD
:1030400006A008D013EC14F002011C51010A02E1A1
:103050001C6BADD102010400A151010AD8A4A7D173
:10306000E951040A010ED8A4000E016EE951050AC7
:10307000010ED8A4000E006E01500012D8B4C8D0C2
:10308000020E0301266F100E276F6B0E286F020EC3
:10309000296F080E2A6FF3EC06F0030E0B6E080E74
:1030A0000C6E770E0D6E0D2EFED70C2EFCD70B2E50
:1030B000FAD7020E0301266F100E276F620E286FDB
:1030C000020E296F080E2A6FF3EC06F00B0E0B6E42
:1030D000260E0C6E5D0E0D6E0D2EFED70C2EFCD73F
:1030E0000B2EFAD7000000000400020E0301266F29
:1030F000100E276F330E286F020E296F080E2A6FED
:10310000F3EC06F0070E0B6E170E0C6E6A0E0D6ECA
:103110000D2EFED70C2EFCD70B2EFAD70000020E78
:103120000301266F100E276F2A0E286F020E296FDB
:10313000080E2A6FF3EC06F00B0E0B6E260E0C6ECB
:103140005D0E0D6E0D2EFED70C2EFCD70B2EFAD772
:10315000000000000400020E0301266F100E276F0E
:103160004E0E286F020E296F080E2A6FF3EC06F040
:10317000070E0B6E170E0C6E6A0E0D6E0D2EFED71F
:103180000C2EFCD70B2EFAD70000020E0301266F7F
:10319000100E276F450E286F020E296F080E2A6F3A
:1031A000F3EC06F00B0E0B6E260E0C6E5D0E0D6E24
:1031B0000D2EFED70C2EFCD70B2EFAD700000000E8
:1031C0000400020E0301266F100E276F3C0E286FBD
:1031D000020E296F080E2A6FF3EC06F0030E0B6E39
:1031E000080E0C6E770E0D6E0D2EFED70C2EFCD732
:1031F0000B2EFAD7020E0301266F100E276F580E02
:10320000286F020E296F080E2A6FF3EC06F0C4D067
:103210000201E951000AD8B4BFD0010E0301266FA4
:10322000276BC10E286F000E296F080E2A6FF3EC72
:1032300006F0030E0B6E080E0C6E770E0D6E0D2E43
:10324000FED70C2EFCD70B2EFAD7010E0301266FEA
:10325000276BB80E286F000E296F080E2A6FF3EC4B
:1032600006F00B0E0B6E260E0C6E5D0E0D6E0D2E07
:10327000FED70C2EFCD70B2EFAD70000000004005E
:10328000010E0301266F276BAF0E286F000E296F0A
:10329000080E2A6FF3EC06F0070E0B6E170E0C6E7D
:1032A0006A0E0D6E0D2EFED70C2EFCD70B2EFAD704
:1032B0000000010E0301266F276BCA0E286F000E57
:1032C000296F080E2A6FF3EC06F00B0E0B6E260E1C
:1032D0000C6E5D0E0D6E0D2EFED70C2EFCD70B2E38
:1032E000FAD7000000000400010E0301266F276BCF
:1032F000E50E286F000E296F080E2A6FF3EC06F01A
:10330000070E0B6E170E0C6E6A0E0D6E0D2EFED78D
:103310000C2EFCD70B2EFAD70000010E0301266FEE
:10332000276BDC0E286F000E296F080E2A6FF3EC56
:1033300006F00B0E0B6E260E0C6E5D0E0D6E0D2E36
:10334000FED70C2EFCD70B2EFAD70000000004008D
:10335000010E0301266F276BD30E286F000E296F15
:10336000080E2A6FF3EC06F0030E0B6E080E0C6EBF
:10337000770E0D6E0D2EFED70C2EFCD70B2EFAD726
:10338000010E0301266F276BA60E286F000E296F12
:10339000080E2A6FF3EC06F00400100E0201156F00
:1033A000270E166F07C309F308C30AF307DC1200E0
:1033B000FFDC010E02010A6F010E0301016FEBDC5D
:1033C000FF0E016F026BC8DCFE0E0301016F026B82
:1033D000C3DCFD0E0301016F010E026FBDDCA9EC21
:1033E0000DF002019F6B899E898CE16BE26BD16BC2
:1033F000D26B806B816BE951040A010ED8A4000ED8
:10340000016EE951050A010ED8A4000E006E0150AC
:1034100000122BE0020E0301266F100E276F750EAF
:10342000286F020E296F080E2A6FF3EC06F00400D5
:103430000D0E0B6E2D0E0C6ED70E0D6E0D2EFED7D3
:103440000C2EFCD70B2EFAD700000000020E030151
:10345000266F100E276F940E286F020E296F080E2C
:103460002A6FF3EC06F004002FD00201E951000AA4
:1034700029E0010E0301266F276B820E286F020ED2
:10348000296F080E2A6FF3EC06F004000D0E0B6E88
:103490002D0E0C6ED70E0D6E0D2EFED70C2EFCD7FA
:1034A0000B2EFAD700000000010E0301266F276BD8
:1034B0008B0E286F020E296F080E2A6FF3EC06F0B0
:1034C000040002D08A8C8A8E100E0201156F270E1E
:1034D000166F100E7E6F270E7F6F7CDC120001349A
:1034E000083609360450085E0550D8A0053C095E30
:1034F000003601360F0E0C6E0134083609360450C2
:1035000000A006D0085E0550D8A0053C095E05D095
:1035100008260550D8B0053C0926003601360C2E89
:10352000EBD700B006D0045008260550D8B0053CB3
:103530000926000012000450000A08E10550000AA4
:1035400005E1FF0E006E7F0E016E57D00D6A096A0D
:10355000086A01500010D8B4000C015005180A6E1A
:103560000ABE0D1E0B6A05AE05D0041E051E042AF8
:10357000D8B4052A01AE05D0001E011E002AD8B419
:10358000012A015005100A6E0ABE10D0A8DF0BB048
:1035900020D00DAE000C001E011E002AD8B4012A56
:1035A000081E091E082AD8B4092A000C05AE0DD041
:1035B00001BE07D00150096E0050086E016A006A12
:1035C000E8D7016A006A002A000C011E001E0B2ABF
:1035D000DDD7082AD8B4092A0450085CD8A4D9D762
:1035E0000550095CD8A4D5D7096A086A002AD8B45E
:1035F000012A01AECED70000FF0C12003FEC14F000
:1036000002010051640A10E0002B800ED019006EF8
:10361000800ED219005C02E1D151CF5D04E2D1C22B
:10362000CFF2D2C2D0F20ED0006BCFC209F3D0C21B
:103630000AF3E1C20BF3E2C20CF32BEC10F002012F
:10364000CF6BD06B0201800ED219026E800EE6198C
:10365000025C02E1E551D15D010ED8B0000E026EB0
:10366000800EE419016E800ED219015C02E1D15185
:10367000E35D010ED8B0000E016E800E006E800E6C
:10368000E419005C02E1E3510008010ED8B0000E1D
:10369000006E015000160250001251E004003FEC91
:1036A00014F002010051640A10E0002B800ED019C2
:1036B000006E800ED219005C02E1D151CF5D04E2B0
:1036C000D1C2CFF2D2C2D0F20ED0006BCFC209F37A
:1036D000D0C20AF3E1C20BF3E2C20CF32BEC10F000
:1036E0000201CF6BD06B810E03011F6F0F0E206F95
:1036F000216B050E226F010E236F3CEC08F0005287
:1037000003E0010E02010E6F02010E51010A010ECB
:10371000D8A4000E0301006F810E1F6F0F0E206FE3
:10372000216B050E226F236B3CEC08F00051001654
:1037300005E03EDE0201E16BE26B01D083D71200AF
:10374000030E0201FF6F0D6B0301096BACEC0FF070
:10375000FFC20CF253DF000E0201E21902E1000E7B
:10376000E11901E17FD0140E046E000E056EE1C276
:1037700000F0E2C201F0DFDE00500201E125FD6F42
:103780000150E221FE6FFFC2FCF2FC511F0866E30C
:10379000FC510903F3CF09F3ACEC0FF02FDF000E5F
:1037A0000201E21902E1000EE11901E15BD0800E95
:1037B000E219006E800EFE19005C02E1FD51E15D30
:1037C0004BE2140E046E000E056EE1C200F0E2C280
:1037D00001F0B1DE00500201E125FD6F0150E22150
:1037E000FE6FFC510903F3CF0DF2FFC20CF2800E05
:1037F000E219006E800E005C02E1780EE15D01E2EC
:103800002DD0FF51FC25026E02C0FCF20851000AC7
:10381000010ED8A4000E016E0250090A010ED8A4B0
:10382000000E006E0150001603E0080EFC6F13D06E
:103830000851000A010ED8A4000E016EFC51110AB5
:10384000010ED8A4000E006E0150001604E0100E08
:10385000FC6F040EFF6F01D001D097D70DC209F3A2
:10386000ACEC0FF01200030E0201FB6FF76BFBC212
:1038700016F0030EF86F140E046E000E056EE1C212
:1038800000F0E2C201F057DE00500201E125F96FBD
:103890000150E221FA6FF66BF6511F08D8A06BD0E9
:1038A000F6512703F3CF09F3D7EC0FF049DFA6DE7B
:1038B000000E0201E21902E1000EE11901E171D0EE
:1038C000800EE219006E800EFA19005C02E1F951D7
:1038D000E15D4FE2140E046E000E056EE1C200F0D1
:1038E000E2C201F028DE00500201E125F96F01502B
:1038F000E221FA6FF6512703F3CF0BF20DC2F7F274
:10390000FBC216F00CC2F8F2800EE219006E800EB7
:10391000005C02E1780EE15D01E22DD0FB51F6255D
:10392000026E02C0F6F21550000A010ED8A4000E75
:10393000016E0250090A010ED8A4000E006E01505B
:10394000001603E0080EF66F13D01550000A010EA2
:10395000D8A4000E016EF651110A010ED8A4000E73
:10396000006E0150001604E0100EF66F040EFB6F9F
:1039700001D001D091D7F7C20DF20BC209F3D7ECF9
:103980000FF00DC209F3ACEC0FF0F8C20CF2340EDC
:103990000C6EF10E0D6E0D2EFED70C2EFCD7000016
:1039A0000000120002010C510903F3CF00F000C027
:1039B000F6F200500D25046E04C0F8F2050E026EFA
:1039C00009C200F0000E016E025005E000360090C2
:1039D0000136FF0FFAD7010E005C026E000E01588F
:1039E000036E800E0318006E800E005C02E104502E
:1039F000025C0BE2050E006E09C2F8F2005004E012
:103A0000F837F891FF0FFBD7F8070D51F65D04E288
:103A1000F6510D5DF96F01D0F96BF9C20DF2F9C2E3
:103A200009F3ACEC0FF0EADD000E0201E21902E14D
:103A3000000EE11901E166D0E1C2FAF2E2C2FBF246
:103A40000951F925F76FF751F85D58E3F7C209F30B
:103A5000ACEC0FF0D3DD000E0201E21902E1000E22
:103A6000E11901E14FD0800EE219006E800EFB19C2
:103A7000005C02E1FA51E15D0BE3340E0C6EF10ED5
:103A80000D6E0D2EFED70C2EFCD700000000B6DD0B
:103A9000800E0201E219006E800EFB19005C02E14B
:103AA000FA51E15D0BE3340E0C6EF10E0D6E0D2E2E
:103AB000FED70C2EFCD700000000A0DD800E020116
:103AC000E219006E800EFB19005C02E1FA51E15D23
:103AD00011E2E1C2FAF2E2C2FBF2F7C20DF2800E8D
:103AE000E219006E800E005C02E1780EE15D01E2F9
:103AF00005D001D003D00951F727A5D70DC209F38E
:103B0000ACEC0FF01200165002012703F3CF00F0C7
:103B100000C0F6F200500B25046E04C0F8F2050E4A
:103B2000026E27C200F0000E016E025005E0003662
:103B300000900136FF0FFAD7010E005C026E000EF6
:103B40000158036E800E0318006E800E005C02E1C7
:103B50000450025C0BE2050E006E27C2F8F2005022
:103B600004E0F837F891FF0FFBD7F8070B51F65D2B
:103B700004E2F6510B5DF96F01D0F96BF9C20BF25B
:103B8000F9C209F3D7EC0FF039DD000E0201E2199A
:103B900002E1000EE11901E166D0E1C2FAF2E2C2EF
:103BA000FBF22751F925F76FF751F85D58E3F7C29B
:103BB00009F3D7EC0FF022DD000E0201E21902E159
:103BC000000EE11901E14FD0800EE219006E800E67
:103BD000FB19005C02E1FA51E15D0BE3340E0C6E5F
:103BE000F10E0D6E0D2EFED70C2EFCD7000000003E
:103BF00005DD800E0201E219006E800EFB19005CEB
:103C000002E1FA51E15D0BE3340E0C6EF10E0D6E24
:103C10000D2EFED70C2EFCD700000000EFDC800E2E
:103C20000201E219006E800EFB19005C02E1FA51FC
:103C3000E15D11E2E1C2FAF2E2C2FBF2F7C20BF27D
:103C4000800EE219006E800E005C02E1780EE15DEC
:103C500001E205D001D003D02751F727A5D70BC229
:103C600009F3D7EC0FF01200E1C2F0F2E2C2F1F278
:103C7000FADD000E0201E21902E1000EE11903E192
:103C8000D8EC16F00BD1BADC800E0201E219006EFE
:103C9000800E005C02E1780EE15D01E2FFD033DFCF
:103CA000000E0201E21902E1000EE11903E1D8EC75
:103CB00016F0F4D0A3DC800E0201E219006E800E33
:103CC000005C02E1780EE15D01E2E8D06BDE000EFF
:103CD0000201E21902E1000EE11903E1D8EC16F04D
:103CE000DDD08CDC800E0201E219006E800E005CDB
:103CF00002E1780EE15D01E2D1D0800EE219016EA1
:103D0000800E015C02E1C80EE15D010ED8B0000E2C
:103D1000016E800EE219006E800EF119005C02E166
:103D2000F051E15D010ED8B0000E006E005001149C
:103D3000036EE151F05D016EE251F159026E800EA9
:103D4000006E800E0218005C02E101506408010E52
:103D5000D8B0000E006E0350001601E09FD0E1C203
:103D6000F0F2E2C2F1F20BC2F2F2000EF36F0DC2FA
:103D7000F4F2000EF56F0A51010A02E10A6B02D05B
:103D8000010E0A6FD8EC16F00AC201F3CBEC16F064
:103D9000020E0B6E040E0C6EBA0E0D6E0D2EFED7BB
:103DA0000C2EFCD70B2EFAD7000028DC800E020167
:103DB000E219006E800E005C02E1780EE15D01E226
:103DC0006DD051DD000E0201E21902E1000EE11991
:103DD00003E1D8EC16F062D011DC800E0201E2198A
:103DE000006E800E005C02E1780EE15D01E256D0CB
:103DF0008ADE000E0201E21902E1000EE11903E180
:103E0000D8EC16F04BD0FEEC1AF0800E0201E2194D
:103E1000006E800E005C02E1780EE15D01E23ED0B2
:103E2000C1DD000E0201E21902E1000EE11903E119
:103E3000D8EC16F033D0FEEC1AF0800E0201E21935
:103E4000006E800E005C02E1780EE15D01E226D09A
:103E5000800EF119006E800EE219005C02E1E15162
:103E6000F05D1BE20A51010A02E10A6B02D0010E69
:103E70000A6F0AC201F3CBEC16F0F2C20BF2F4C2E5
:103E80000DF2F2C209F3D7EC0FF00DC209F3ACEC5E
:103E90000FF0F0C2E1F2F1C2E2F2040012000400FD
:103EA00001016251050A04E1010E0201276F0FD0E2
:103EB00001016251060A04E1020E0201276F07D0D8
:103EC00001016251070A03E1040E0201276F01019B
:103ED0006151050A04E1010E0201096F0FD00101D1
:103EE0006151060A04E1020E0201096F07D00101C7
:103EF0006151070A03E1040E0201096F0201006B20
:103F0000CF6BD06B0E6BFEEC1AF0800E0201E21943
:103F1000006E800E005C02E16E0EE15D01E281D078
:103F2000D8EC16F0A9EC0DF0020E0B6E040E0C6E20
:103F3000BA0E0D6E0D2EFED70C2EFCD70B2EFAD717
:103F40000000FEEC1AF0800E0201E219006E800EF5
:103F5000005C02E16E0EE15D01E263D0800E016E55
:103F6000800EA519015C02E1A4516E08010ED8B0C3
:103F7000000E016E800EA519006E800EE219005C25
:103F800002E1E151A45D010ED8B0000E006E0150B7
:103F9000001601E046D068DE000E0201E21902E1DF
:103FA000000EE11903E1D8EC16F03BD0800E0201BF
:103FB000E219006E800E005C02E1780EE15D01E224
:103FC00030D001016151050A010ED8A4000E016E26
:103FD0006251050A010ED8A4000E006E01500016B1
:103FE00001E01FD06251050806E227C216F0010E5B
:103FF0000201276F88DD800E0201E219006E800E3B
:10400000005C02E1780EE15D01E20BD0010161513B
:10401000050806E209C20CF2010E0201096FC2DCBA
:10402000040012000EEC00F0CAC23FF32BEC00F0CB
:1040300003013F6B2BEC00F0AE0E03013F6F2BEC46
:1040400000F00201C951020A010ED8A4000E016E4F
:10405000C951030A010ED8A4000E006E01500012CF
:10406000D8B497D0D50E03013F6F2BEC00F0800E33
:1040700003013F6F2BEC00F0A80E03013F6F2BEC08
:1040800000F03F0E03013F6F2BEC00F0D30E030155
:104090003F6F2BEC00F00201C951020A05E1C3C2D7
:1040A0003FF32BEC00F007D00201C3511F0F0301B7
:1040B0003F6F2BEC00F0400E03013F6F2BEC00F044
:1040C0008D0E03013F6F2BEC00F0140E03013F6FC8
:1040D0002BEC00F0810E03013F6F2BEC00F0B40ECF
:1040E00003013F6F2BEC00F0D90E03013F6F2BEC67
:1040F00000F0220E03013F6F2BEC00F0200E0301B5
:104100003F6F2BEC00F0020E03013F6F2BEC00F031
:10411000210E03013F6F2BEC00F003013F6B2BECF2
:1041200000F07F0E03013F6F2BEC00F02E0E030119
:104130003F6F2BEC00F00201C951020A0BE1A00E07
:1041400003013F6F2BEC00F0C00E03013F6F2BEC1F
:1041500000F00AD0A10E03013F6F2BEC00F0C80E57
:1041600003013F6F2BEC00F0DA0E03013F6F2BECE5
:1041700000F0020E03013F6F2BEC00F0DB0E030199
:104180003F6F2BEC00F0400E03013F6F2BEC00F073
:104190008AD0D50E03013F6F2BEC00F0800E030197
:1041A0003F6F2BEC00F0A80E03013F6F2BEC00F0EB
:1041B0003F0E03013F6F2BEC00F0D30E03013F6F66
:1041C0002BEC00F0C3C23FF32BEC00F0400E0301D8
:1041D0003F6F2BEC00F08D0E03013F6F2BEC00F0D6
:1041E000140E03013F6F2BEC00F0810E03013F6FB3
:1041F0002BEC00F0FF0E03013F6F2BEC00F0D90E0B
:1042000003013F6F2BEC00F0F10E03013F6F2BEC2D
:1042100000F0200E03013F6F2BEC00F0020E0301B3
:104220003F6F2BEC00F0210E03013F6F2BEC00F0F1
:1042300003013F6B2BEC00F07F0E03013F6F2BEC73
:1042400000F02E0E03013F6F2BEC00F00201C9516C
:10425000040A0BE1A00E03013F6F2BEC00F0C00E2F
:1042600003013F6F2BEC00F00AD0A10E03013F6F5A
:104270002BEC00F0C80E03013F6F2BEC00F0DA0EC0
:1042800003013F6F2BEC00F0120E03013F6F2BEC8C
:1042900000F0DB0E03013F6F2BEC00F0400E03013A
:1042A0003F6F2BEC00F0A40E03013F6F2BEC00F0EE
:1042B000A60E03013F6F2BEC00F0D8EC00F0030ECC
:1042C0000B6E080E0C6E770E0D6E0D2EFED70C2E9B
:1042D000FCD70B2EFAD70EEC00F0CAC23FF32BEC42
:1042E00000F0400E03013F6F2BEC00F00201C951BA
:1042F000020A010ED8A4000E016EC951030A010E74
:10430000D8A4000E006E015000121AE0EF6BEF51BE
:10431000030815E3EFC23AF303013B6B62EC00F0D4
:104320000201EE6B0201800EEE5D06E2EE2B030150
:104330003F6B2BEC00F0F6D70201EF2BE8D719D03A
:10434000EF6BEF51070815E3EFC23AF303013B6B44
:1043500062EC00F00201EE6B0201800EEE5D06E2FF
:10436000EE2B03013F6B2BEC00F0F6D70201EF2B95
:10437000E8D7D8EC00F0AF0E0301266F6EEC07F023
:10438000120004000201E951040A010ED8A4000E33
:10439000016EE951050A010ED8A4000E006E01500D
:1043A0000012D8B4D1D07E50000AD8A485D0030121
:1043B000266B160E276F300E286F010E296F070E21
:1043C0002A6FF3EC06F0020E0301266F060E276F2C
:1043D000260E286F010E296F090E2A6FF3EC06F0E6
:1043E000040E0301266F100E276F1D0E286F010E9D
:1043F000296F080E2A6FF3EC06F0060E0301266FF4
:10440000040E276F380E286F010E296F0A0E2A6FCF
:10441000F3EC06F004000D0E0B6E2D0E0C6ED70E95
:104420000D6E0D2EFED70C2EFCD70B2EFAD70000EA
:10443000000004000B0E0B6E260E0C6E5D0E0D6E52
:104440000D2EFED70C2EFCD70B2EFAD70000000045
:1044500004000301266B100E276F570E286F010E04
:10446000296F080E2A6FF3EC06F0020E0301266F87
:10447000040E276F4C0E286F010E296F0A0E2A6F4B
:10448000F3EC06F0040E0301266F100E276F430EA7
:10449000286F010E296F080E2A6FF3EC06F0060E46
:1044A0000301266F040E276F810E286F010E296FFE
:1044B0000A0E2A6FF3EC06F0040E0B6E0C0E0C6E57
:1044C000330E0D6E0D2EFED70C2EFCD70B2EFAD709
:1044D0000000000002019D51010A0DE10301266B5D
:1044E000100E276FDA0E286F010E296F080E2A6F43
:1044F000F3EC06F00CD00301266B100E276FD10EE3
:10450000286F010E296F080E2A6FF3EC06F0020ED9
:104510000301266F100E276FC80E286F010E296F3A
:10452000080E2A6FF3EC06F0020157530CE003016A
:10453000266B700E276FE30E286F010E296F010E98
:104540002A6FF3EC06F0D4D00201E951000AD8B486
:10455000CFD07E50000AD8A487D00301266B040E6A
:10456000276FF80E286F010E296F070E2A6FF3ECE4
:1045700006F0010E0301266F030E276FEE0E286F63
:10458000010E296F090E2A6FF3EC06F004000F0EDE
:104590000B6E350E0C6E510E0D6E0D2EFED70C2EC1
:1045A000FCD70B2EFAD704000B0E0B6E260E0C6EEA
:1045B0005D0E0D6E0D2EFED70C2EFCD70B2EFAD7EE
:1045C0000000000004000301266B040E276FE50EB7
:1045D000286F010E296F080E2A6FF3EC06F0010E0A
:1045E0000301266F030E276FA00E286F010E296F9F
:1045F0000A0E2A6FF3EC06F004000D0E0B6E2D0E62
:104600000C6ED70E0D6E0D2EFED70C2EFCD70B2E7A
:10461000FAD70000000004000B0E0B6E260E0C6E85
:104620005D0E0D6E0D2EFED70C2EFCD70B2EFAD77D
:104630000000000004000301266B040E276F970E94
:10464000286F010E296F080E2A6FF3EC06F0010E99
:104650000301266F030E276F8C0E286F010E296F42
:104660000A0E2A6FF3EC06F0040E0B6E0C0E0C6EA5
:10467000330E0D6E0D2EFED70C2EFCD70B2EFAD757
:104680000000000002019D51010A0CE10301266BAC
:10469000276BAB0E286F010E296F080E2A6FF3EC03
:1046A00006F00BD00301266B276BBF0E286F010E9F
:1046B000296F080E2A6FF3EC06F0010E0301266F36
:1046C000276BB60E286F010E296F080E2A6FF3ECC8
:1046D00006F0020157530CE00301266B080E276F0A
:1046E000B40E286F010E296F010E2A6FF3EC06F04D
:1046F0000400FF0E0001A56FFF0EEE6FA9EC0DF098
:104700001200A69CEEC2A9FFA69EA680A8CF00F02C
:104710001200EEC200F00032009E0032009E003215
:10472000009E0032009E0A0E0002F3CF01F00F0E31
:104730000201EE15006E0150002612000400020175
:10474000E951040A010ED8A4000E016EE951050AD0
:10475000010ED8A4000E006E015000120EE0020EF1
:104760000301266F400E276F720E286F010E296F0E
:10477000040E2A6FF3EC06F014D00201E951000A8E
:104780000EE0010E0301266F040E276F6D0E286FD9
:10479000010E296F040E2A6FF3EC06F002D08A8C0A
:1047A0008A8E4FEC1FF00201E951000A1AE1800ED7
:1047B000006E800EE219005C02E1E151960803E30D
:1047C0008A9C8A8E0ED0800E006E800EE219005CEC
:1047D00002E1E151FA0803E3819C819E02D0818CC1
:1047E000819EFF0E0301016F0DC202F3ACEC16F0C7
:1047F000FE0E0301016F0BC202F3ACEC16F0FD0ECE
:104800000301016F0AC202F3ACEC16F0100E0201B4
:10481000156F270E166F100E7E6F270E7F6FEAEC56
:1048200016F0E1C280F2E2C281F2899E898C040016
:104830001200400E0201C46F100EC56F260EC66F27
:10484000030EC76FC26A01011B1D006E0050C11626
:10485000070EC012C08EC28012000900F5CFE6FF1D
:104860000006FBE10106F9E11200070EB46E600ECE
:10487000D36E9B8C806A816A826A400E896E8A6AD6
:104880008B6A030E926E070E936E946AD2DF0D0E42
:10489000C16EF19EF29E12000400010E0201EE6F45
:1048A00030DF00C0E9F2020EEE6F2BDF0050010A8C
:1048B00002E1010E576F030EEE6F23DF00C0EEF230
:1048C00028DF00C0E7F2000EE86F040EEE6F19DF7C
:1048D00000C0EEF21EDF0A0E0002F3CFEAF2F4CFC0
:1048E000EBF2050EEE6F0DDF00C0EEF212DF0A0EE6
:1048F0000002F3CFE5F2F4CFE6F2060EEE6F01DF31
:1049000000C0EEF206DF0A0E0002F3CFE3F2F4CFAE
:10491000E4F2090EEE6FF5DE00C0EEF2FADE0A0EEA
:104920000002F3CFA4F2F4CFA5F20A0EEE6FE9DE97
:1049300000C062F10B0EEE6FE4DE00C015F00C0E4D
:10494000EE6FDFDE00C061F10D0EEE6FDADE00C04B
:1049500008F20E0EEE6FD5DE00C0A0F20F0EEE6F65
:10496000D0DE00C014F20400100EEE6FCADE00C0EC
:10497000EEF2CFDE640E0002F3CFECF2F4CFEDF2F4
:10498000110EEE6FBEDE00C0EEF2C3DE0050EC256D
:10499000AB6F000EED21AC6F120EEE6FB2DE00C0F9
:1049A000EEF2B7DE640E0002F3CFECF2F4CFEDF2DC
:1049B000130EEE6FA6DE00C0EEF2ABDE0050EC256B
:1049C000B16F000EED21B26F140EEE6F9ADE00C0D3
:1049D000EEF29FDE640E0002F3CFECF2F4CFEDF2C4
:1049E000150EEE6F8EDE00C0EEF293DE0050EC2569
:1049F000AF6F000EED21B06F160EEE6F82DE00C0BD
:104A0000EEF287DE640E0002F3CFECF2F4CFEDF2AB
:104A1000170EEE6F76DE00C0EEF27BDE0050EC2566
:104A2000AD6F000EED21AE6F180EEE6F6ADE00C0A6
:104A3000EEF26FDE640E0002F3CFECF2F4CFEDF293
:104A4000190EEE6F5EDE00C0EEF263DE0050EC2564
:104A5000B36F000EED21B46F1A0EEE6F52DE00C080
:104A6000EEF257DE640E0002F3CFECF2F4CFEDF27B
:104A70001B0EEE6F46DE00C0EEF24BDE0050EC2562
:104A8000C16F000EED21C26F1C0EEE6F3ADE00C04A
:104A9000EEF23FDE640E0002F3CFECF2F4CFEDF263
:104AA0001D0EEE6F2EDE00C0EEF233DE0050EC2560
:104AB000BF6F000EED21C06F200EEE6F22DE00C032
:104AC000EEF227DE640E0002F3CFECF2F4CFEDF24B
:104AD000210EEE6F16DE00C0EEF21BDE0050EC255C
:104AE000B56F000EED21B66F220EEE6F0ADE00C02C
:104AF000EEF20FDE640E0002F3CFECF2F4CFEDF233
:104B0000230EEE6FFEDD00C0EEF203DE0050EC255A
:104B1000B76F000EED21B86F240EEE6FF2DD00C00E
:104B2000EEF2F7DD640E0002F3CFECF2F4CFEDF21B
:104B3000250EEE6FE6DD00C0EEF2EBDD0050EC2559
:104B4000BD6F000EED21BE6F260EEE6FDADD00C0E8
:104B5000EEF2DFDD640E0002F3CFECF2F4CFEDF203
:104B6000270EEE6FCEDD00C0EEF2D3DD0050EC2557
:104B7000BB6F000EED21BC6F280EEE6FC2DD00C0D2
:104B8000EEF2C7DD640E0002F3CFECF2F4CFEDF2EB
:104B9000290EEE6FB6DD00C0EEF2BBDD0050EC2555
:104BA000B96F000EED21BA6F2A0EEE6FAADD00C0BC
:104BB000EEF2AFDD640E0002F3CFECF2F4CFEDF2D3
:104BC0002B0EEE6F9EDD00C0EEF2A3DD0050EC2553
:104BD000A76F000EED21A86F2C0EEE6F92DD00C0C6
:104BE000EEF297DD640E0002F3CFECF2F4CFEDF2BB
:104BF0002D0EEE6F86DD00C0EEF28BDD0050EC2551
:104C0000A26F000EED21A36F300EEE6F7ADD00C0B3
:104C10009DF2310EEE6F75DD00C0EEF27ADD00C060
:104C20009EF2320EEE6F6DDD00C0EEF272DD00C05E
:104C300001F2330EEE6F65DD00C07DF0340EEE6FD5
:104C400060DD00C0EEF265DD00C0A6F204001200D7
:104C5000810E03011F6F0F0E206F216B320E226F2A
:104C6000236B3CEC08F00201615100125FE05CEC48
:104C70000BF001C200F074EC0BF004C204F005C2AA
:104C800005F006C206F007C207F099EC04F089ECC3
:104C900006F000C002F201C003F2030E0B6E080E14
:104CA0000C6E770E0D6E0D2EFED70C2EFCD70B2E34
:104CB000FAD704006151000A010ED8A4000E016E5B
:104CC00081B002D0D89001D0D880006AD8B0002A34
:104CD0000150001605E0D8EC19F002011D6B26D03A
:104CE000898E899C060E0B6E130E0C6EAD0E0D6E2A
:104CF0000D2EFED70C2EFCD70B2EFAD7000000008D
:104D00001DDD02011D6B810E03011F6F0F0E206F51
:104D1000216B320E226F236B3CEC08F0005204E052
:104D2000EAEC16F00400EFD70201616B810E03017B
:104D30001F6F0F0E206F020E216F320E226F236B3A
:104D40003CEC08F00052D8B4E1D05CEC0BF001C2AE
:104D500000F074EC0BF004C204F005C205F006C2CA
:104D600006F007C207F099EC04F089EC06F000C0E9
:104D700002F201C003F204001D51000A1DE1010E00
:104D80001D6F0DC21CF10BC210F10AC20FF10D6BA9
:104D90000B6B010E0A6F0301096BD7EC0FF00DC20C
:104DA00009F3ACEC0FF00AC201F3CBEC16F057C2DA
:104DB0000EF10201576B15D01D6B1CC10DF210C115
:104DC0000BF20FC10AF21CC109F3ACEC0FF00BC2DD
:104DD00009F3D7EC0FF00AC201F3CBEC16F00EC1C9
:104DE00057F20201E951040A010ED8A4000E016E27
:104DF000E951050A010ED8A4000E006E0150001200
:104E000038E01D53010ED8A4000E006E5751001655
:104E10000DE00301266B700E276F110E286F010E37
:104E2000296F010E2A6FF3EC06F022D002015753CE
:104E3000010ED8A4000E006E1D5100160DE00301F6
:104E4000266B700E276F170E286F010E296F010E4B
:104E50002A6FF3EC06F00CD00301266B700E276F5F
:104E6000150E286F010E296F010E2A6FF3EC06F064
:104E70003BD00201E951000A37E01D53010ED8A4CE
:104E8000000E006E575100160DE00301266B080E50
:104E9000276F130E286F010E296F010E2A6FF3EC96
:104EA00006F022D002015753010ED8A4000E006E66
:104EB0001D5100160DE00301266B080E276F040E2E
:104EC000286F010E296F010E2A6FF3EC06F00CD04B
:104ED0000301266B080E276F020E286F010E296F43
:104EE000010E2A6FF3EC06F0810E03011F6F0F0E07
:104EF000206F020E216F320E226F236B3CEC08F004
:104F0000005204E0EAEC16F00400EED7810E030133
:104F10001F6F0F0E206F010E216F320E226F236B59
:104F20003CEC08F002011D51000A010ED8A4000E4D
:104F3000016E01500016D8B4BAD05CEC0BF001C27F
:104F400000F074EC0BF004C204F005C205F006C2D8
:104F500006F007C207F099EC04F089EC06F000C0F7
:104F600002F201C003F204005751000A03E1010EEE
:104F7000576F01D0576B020E0301016F57C202F346
:104F8000ACEC16F00201E951040A010ED8A4000E9F
:104F9000016EE951050A010ED8A4000E006E015001
:104FA000001238E01D53010ED8A4000E006E5751B8
:104FB00000160DE00301266B700E276F000E286FA0
:104FC000010E296F010E2A6FF3EC06F022D00201C8
:104FD0005753010ED8A4000E006E1D5100160DE0AF
:104FE0000301266B700E276F060E286F010E296FC6
:104FF000010E2A6FF3EC06F00CD00301266B700E45
:10500000276F0C0E286F010E296F010E2A6FF3EC2B
:1050100006F03BD00201E951000A37E01D53010EB2
:10502000D8A4000E006E575100160DE00301266B48
:10503000080E276F0A0E286F010E296F010E2A6FC6
:10504000F3EC06F022D002015753010ED8A4000E53
:10505000006E1D5100160DE00301266B080E276F30
:10506000080E286F010E296F010E2A6FF3EC06F06F
:105070000CD00301266B080E276F190E286F010E46
:10508000296F010E2A6FF3EC06F0810E03011F6FEA
:105090000F0E206F010E216F320E226F236B3CEC3E
:1050A00008F0005204E0EAEC16F00400EED712001B
:1050B0000201C951010806E2AE0E0301266F6EEC33
:1050C00007F00DD0C951010A0AE1CC6BCB6B03018B
:1050D000306B90EC01F00301306B90EC01F01200AA
:1050E000810E03011F6F0F0E206F216B320E226F96
:1050F000236B3CEC08F00052D8B496D0040E0B6E33
:105100000C0E0C6E330E0D6E0D2EFED70C2EFCD732
:105110000B2EFAD700000000040081A00FD002017E
:105120000A51000A03E1010E0A6F01D00A6B0AC29C
:1051300001F3CBEC16F0A9EC0DF065D0020174512F
:10514000010A02E1746B02D0010E746F7451010AFE
:105150002DE1E951040A010ED8A4000E016EE951B7
:10516000050A010ED8A4000E006E015000120DE0D9
:105170000301266B700E276F230E286F020E296F16
:10518000010E2A6FF3EC06F010D00201E951000A7B
:105190000CE00301266B080E276F210E286F020E0C
:1051A000296F010E2A6FF3EC06F02DD00201E951B0
:1051B000040A010ED8A4000E016EE951050A010E81
:1051C000D8A4000E006E015000120DE00301266B02
:1051D000700E276F250E286F020E296F010E2A6FA1
:1051E000F3EC06F010D00201E951000A0CE00301D3
:1051F000266B080E276F280E286F020E296F010EEE
:105200002A6FF3EC06F0810E03011F6F0F0E206F63
:10521000216B320E226F236B3CEC08F0005204E04D
:10522000EAEC16F00400EFD7810E03011F6F0F0E9A
:10523000206F020E216F320E226F236B3CEC08F0C0
:1052400000526EE004000301810E1F6F0F0E206FED
:10525000020E216F320E226F236B3CEC08F00052DD
:105260005FE0050E026E27C200F0000E016E0250D4
:1052700005E0003600900136FF0FFAD7010E005C02
:10528000026E000E0158036E800E006E800E031831
:10529000005C03E1025002010B5D0201010ED8B077
:1052A000000E006E7451001606E00B2B0BC209F3C2
:1052B000D7EC0FF02FD002017453010ED8A4000ECA
:1052C000046E050E026E27C200F0000E016E025041
:1052D00005E0003600900136FF0FFAD7010E005CA2
:1052E000026E000E0158036E800E006E800E0318D1
:1052F000005C03E1020102500D5D010ED8B0000E0A
:10530000006E0450001606E002010D2B0DC209F3D9
:10531000ACEC0FF0A9EC0DF0EAEC16F0040093D71A
:10532000810E03011F6F0F0E206F010E216F320ED1
:10533000226F236B3CEC08F002011D51000A010EA4
:10534000D8A4000E016E0150001639E00400810E51
:1053500003011F6F0F0E206F010E216F320E226F9F
:10536000236B3CEC08F000522AE002010B510008CC
:10537000010ED8B0000E006E7451001606E00B0747
:105380000BC209F3D7EC0FF014D002017453010ED5
:10539000D8A4000E016E0D510008010ED8B0000E09
:1053A000006E0150001605E00D070DC209F3ACECCC
:1053B0000FF0A9EC0DF0EAEC16F00400C8D71200CB
:1053C0000201EE6B81EC23F000C0CAF2010EEE6F19
:1053D00081EC23F000C0C9F20050000A05E1939C63
:1053E000939E8A8C8A8E04D0938C938E8A9C8A9EFC
:1053F0001200070E0201EE6F81EC23F000C0C3F231
:10540000080EEE6F81EC23F000C0C8F2C95101080C
:1054100003E212EC20F063D0C951010A60E1010EF1
:10542000CC6FCB6B030E0301306F90EC01F01A0EC2
:105430000C6EF80E0D6E0D2EFED70C2EFCD7000054
:10544000030E0301306F90EC01F0060E0C6E300E6F
:105450000D6E0D2EFED70C2EFCD70000030E03019F
:10546000306F90EC01F0020E0301306F90EC01F010
:10547000020E0301306F90EC01F0080E0301306F53
:1054800090EC01F00301306B90EC01F0080E030189
:10549000306F90EC01F00301306B90EC01F0010EE5
:1054A0000301306F90EC01F01A0E0C6EF80E0D6EC9
:1054B0000D2EFED70C2EFCD700000301306B90ECB4
:1054C00001F0060E0301306F90EC01F00301306B28
:1054D00090EC01F00C0E0301306F90EC01F0120023
:1054E0000201E951040A010ED8A4000E016EE9512F
:1054F000050A010ED8A4000E006E015000120DE046
:105500000301266B0A0E276F180E286F000E296FF5
:10551000090E2A6FF3EC06F010D00201E951000ADF
:105520000CE00301266B030E276F360E286F000E6A
:10553000296F090E2A6FF3EC06F004000B0E0B6EB8
:10554000260E0C6E5D0E0D6E0D2EFED70C2EFCD7AA
:105550000B2EFAD70000000004000B0E0B6E260E77
:105560000C6E5D0E0D6E0D2EFED70C2EFCD70B2E85
:10557000FAD70000000004000B0E0B6E260E0C6E16
:105580005D0E0D6E0D2EFED70C2EFCD70B2EFAD70E
:105590000000000004000B0E0B6E260E0C6E5D0E5C
:1055A0000D6E0D2EFED70C2EFCD70B2EFAD7000059
:1055B000000004000201E951040A010ED8A4000E03
:1055C000016EE951050A010ED8A4000E006E0150CB
:1055D00000120DE00301266B0A0E276F2C0E286FB8
:1055E000000E296F090E2A6FF3EC06F010D00201AD
:1055F000E951000A0CE00301266B030E276F220E0F
:10560000286F000E296F090E2A6FF3EC06F0D8EC14
:1056100016F0010E02010A6F010E0301016FCBECBF
:1056200016F0FF0E016F0DC202F3ACEC16F0FE0E89
:105630000301016F0BC202F3ACEC16F0FD0E030187
:10564000016F0AC202F3ACEC16F00201E951040A40
:10565000010ED8A4000E016EE951050A010ED8A46E
:10566000000E006E015000120DE00301266B700E5B
:10567000276F510E286F000E296F010E2A6FF3EC71
:1056800006F010D00201E951000A0CE00301266B7C
:10569000080E276F7F0E286F000E296F010E2A6FEC
:1056A000F3EC06F0010E7E6EC1EC21F01200CFEC9F
:1056B0002EF003E6010E0101606F35EC24F0030EBD
:1056C0000B6E080E0C6E770E0D6E0D2EFED70C2E87
:1056D000FCD70B2EFAD704004CEC24F071DEE95114
:1056E000000A02E18A8C8A8E01C200F074EC0BF091
:1056F00004C204F005C205F006C206F007C207F0B6
:1057000099EC04F089EC06F000C002F201C003F24B
:10571000050E0B6E0F0E0C6EF10E0D6E0D2EFED7DC
:105720000C2EFCD70B2EFAD7040081B202D00480D5
:1057300001D0049081B402D0D88001D0D89004A0C8
:1057400003D002E3048001D0049004A031D0020110
:10575000010E206F01016251050A04E1010E0201F0
:10576000276F0FD001016251060A04E1020E020107
:10577000276F07D001016251070A03E1040E0201FD
:10578000276F01016151050A04E1010E0201096F51
:105790000FD001016151060A04E1020E0201096FF6
:1057A00007D001016151070A03E1040E0201096FEC
:1057B00020DE81B202D0048001D0049081B402D0F6
:1057C000D88001D0D89004A003D002E3048001D097
:1057D000049081B002D0D88001D0D89004A003D02A
:1057E00002E3048001D0049004A048D00201E951F2
:1057F000010A0DE10301266B030E276F630E286F6C
:10580000010E296F090E2A6FF3EC06F010D0020189
:10581000E951000A0CE00301266B0C0E276F770E8E
:10582000286F010E296F090E2A6FF3EC06F0FF0EA8
:105830000301096FACEC0FF002011451000A06E1FC
:10584000FF0E0301096FD7EC0FF004D00301096BC1
:10585000D7EC0FF0010E016FCBEC16F00B0E0B6EB8
:10586000260E0C6E5D0E0D6E0D2EFED70C2EFCD787
:105870000B2EFAD7000000000400F0D7040002014C
:105880002051000A27E1FF0EEE6F81EC23F000C0EB
:105890000DF2FE0EEE6F81EC23F000C00BF2FD0E58
:1058A000EE6F81EC23F000C00AF20BC209F3D7ECD3
:1058B0000FF00DC209F3ACEC0FF00AC201F3CBEC10
:1058C00016F001016051010A02E1010E7E6EC1EC89
:1058D00021F001D005DEA9EC0DF00400EAEC16F091
:1058E00002012051000A03E128EC26F002D070ECFE
:1058F00028F0000E0201031902E1000E021905E072
:10590000010E025F000E035B11D02051000A010E50
:10591000D8A4000E016E0151000A000ED8A4010E99
:10592000006E0150001602E058EC28F0D6D7FFD7E1
:1059300000000054455354204D4F44450020202082
:105940002020202020200020202020202020202077
:105950000054455354204D4F444500704600433D8C
:1059600000433D007000433D007046006C00414E16
:105970003D20203057004546463D2020302500413F
:105980004E543D302E305700414E3D302E305700A2
:105990004546463D2030250000006C00414E543DF8
:1059A0002020305700414E543D20203057004546BE
:1059B000463D2020302500414E543D302E305700CA
:1059C000FD5357523D202020200020202020202061
:1059D0002020004F5645524C4F41440020202020AB
:1059E00020202020004F5645524C4F41440020209B
:1059F000202020202020004F5645524C4F4144008B
:105A0000202020202020202000FD75004C3D007526
:105A100048004C3D007548004C3D002E0020005FC2
:105A2000005F005F002E0020000000002E002E000E
:105A300020005F00200030006279204E374444434C
:105A40000045585420626F617264004154552D31F5
:105A500030300046572076657220322E39002020E3
:105A60002020202020200020202020202020202056
:105A70002000202020202020202000000707464171
:105A8000535420544553540054554E450054554EDC
:105A900045004641535420544553540020202020B3
:105AA0002020202020200020202020202020202016
:105AB000200020202020202020200046572076652E
:105AC0007220322E39005057523D20203057002E80
:105AD000005357523D302E3030005057523D302E3B
