:1000000071EF2BF00000000000EF00F00000000096
:100010000000000000000000F3D7FFFF0201CB51F9
:10002000000A18E0938C060E0D6E0D2EFED7000010
:10003000938E060E0D6E0D2EFED70000939E060EBB
:100040000D6E0D2EFED70000939C060E0D6E0D2E2C
:10005000FED7000012000201CB51000A32E0016A13
:10006000015007081CE3030141BF02D0939E01D059
:10007000938E060E0D6E0D2EFED70000938C060E8D
:100080000D6E0D2EFED70000939C060E0D6E030123
:100090000D2EFDD7000041374191012AE1D7938E03
:1000A000060E0D6E0D2EFED70000938C060E0D6E03
:1000B0000D2EFED70000939C060E0D6E0D2EFED762
:1000C000000012000201CA5103013D25406FA6DF66
:1000D000CCC241F3C0DF0301416BBDDF03013C51E2
:1000E000B00F416FB8DF030140510F0804E340C374
:1000F0003EF33F6B19D040C302F00232029E02323F
:10010000029E0232029E0232029E02C03FF302C0F1
:1001100000F0003600900036009000360090003667
:1001200000900050405D3E6F3EC341F394DF0301F9
:100130003F51100F416F8FDF71DFCCC241F38BDF76
:10014000400E0301416F87DF1200086A096A100E32
:100150000C6E0134083609360450085E0550D8A0EC
:10016000053C095ED8B007D0045008260550D8B029
:10017000053C0926D890003601360C2EEAD712002D
:10018000026A016A006A086A036A000E12000B84A0
:100190000BAED2EF00F0010E036E026A016A006A34
:1001A0000A360232FF0E12000AAE029E000E120044
:1001B0000201CB51000A12E0939E060E0D6E0D2E29
:1001C000FED70000938C060E0D6E0D2EFED700009C
:1001D000938E060E0D6E0D2EFED7000012000B80C2
:1001E0000BAEFBEF00F0026A0AAEFF0E026E016E6C
:1001F000006E0A360232FF0E12000301366B050E46
:10020000365D0AE236513425E16E000E3521E26E8C
:10021000200EE66E362BF3D736513425E16E000EF4
:100220003521E26EE66A360736513425376F000E07
:100230003521386F0A0E046E000E056E32C300F0D1
:1002400033C301F082DF08C000F009C001F0300EB6
:10025000002637C3E1FF38C3E2FF00C0E6FF0A0E05
:10026000046E000E056E32C300F033C301F06DDF83
:1002700000C032F301C033F3000E011802E1000E9A
:10028000001801E102D03607CFD712000B820BAE67
:1002900050EF01F003680268016800680A36023214
:1002A000FF0E12001D0E0D6E0D2EFED712000C6AF1
:1002B0000E6A0250D8A470EF01F001C002F000C035
:1002C00001F0006A0E860250D8A470EF01F001C060
:1002D00002F0016A0E960E880250D8B482EF01F047
:1002E0000E50035ED8A4D8A087EF01F0D89002BECC
:1002F0008CEF01F0003601360236032E77EF01F065
:1003000087EF01F0010E0C6E3BDF8FEF01F0020E64
:100310000C6E3DDF8FEF01F0040E0C6E45DF120016
:100320000301336B0201D06B010ECF6F32C333F385
:1003300003013337339133373391333733913337C5
:1003400033910201CE5303E0080E0301332702016B
:10035000CF5303E0040E030133270201D05303E01F
:10036000020E030133270201CD5302E00301332BB8
:1003700055DECCC241F36FDE33C341F36CDE18DFD0
:10038000060E0C6E300E0D6E0D2EFED70C2EFCD709
:100390000000040E0301335F41DECCC241F35BDE9B
:1003A00033C341F358DE04DF060E0C6E300E0D6EC3
:1003B0000D2EFED70C2EFCD7000012002FDECCC273
:1003C00041F349DE400E0301416F45DE33C33CF388
:1003D00032C33DF377DE0301376B3651375DD8B05A
:1003E000B3D037513425E96E000E3521EA6EEE5058
:1003F000000A02E1396B09D037513425E96E000E4D
:100400003521EA6E200EEE5C396F386B38510408E6
:10041000D8A092D0050E3903F3CF00F0F4CF01F04D
:1004200038510026000E0122EF0E0024F66E5B0EFE
:100430000120F76E000EF86E000E01BEFF0EF822CE
:100440000900F5CF3AF33351020A000ED8A4010E89
:10045000016E3351040A000ED8A4010E006E005044
:1004600001163351060A000ED8A4010E006E015089
:10047000001629E03AB702D03B9F01D03B8F3AB734
:1004800002D03B9D01D03B8D3AB502D03B9B01D0C1
:100490003B8B3AB502D03B9901D03B893AB302D0AD
:1004A0003B9701D03B873AB302D03B9501D03B85C7
:1004B0003AB102D03B9301D03B833AB102D03B9199
:1004C00001D03B8120D03AB502D03B9F01D03B8F79
:1004D0003AB502D03B9D01D03B8D3AB302D03B9B55
:1004E00001D03B8B3AB302D03B9901D03B893AB162
:1004F00002D03B9701D03B873AB102D03B9501D067
:100500003B853B933B913BC341F3A5DD0201CB51BE
:10051000040A010ED8A4000E016ECB51050A010E8B
:10052000D8A4000E006E0150001203E03BC341F35B
:1005300092DD0301382B6AD7416B8DDD0301416BDE
:100540008ADD0301372B49D73351010F3C6F32C38A
:100550003DF3B8DD0301376B3651375DD8B0BBD002
:1005600037513425E96E000E3521EA6EEE50000A4F
:1005700002E1396B09D037513425E96E000E35217F
:10058000EA6E200EEE5C396F386B38510408D8A043
:100590009AD0050E3903F3CF00F0F4CF01F03851B3
:1005A0000026000E0122EF0E0024F66E5B0E0120E5
:1005B000F76E000EF86E000E01BEFF0EF822090065
:1005C000F5CF3AF33351020A000ED8A4010E016EA2
:1005D0003351040A000ED8A4010E006E005001161B
:1005E0003351060A000ED8A4010E006E0150001609
:1005F00029E03ABF02D03B9F01D03B8F3ABF02D0E7
:100600003B9D01D03B8D3ABD02D03B9B01D03B8B43
:100610003ABD02D03B9901D03B893ABB02D03B970F
:1006200001D03B873ABB02D03B9501D03B853AB91C
:1006300002D03B9301D03B833AB902D03B9101D029
:100640003B8128D03ABD02D03B9F01D03B8F3ABDC1
:1006500002D03B9D01D03B8D3ABB02D03B9B01D0E9
:100660003B8B3ABB02D03B9901D03B893AB902D0CF
:100670003B9701D03B873AB902D03B9501D03B85EF
:100680003AB702D03B9301D03B833AB702D03B91BB
:1006900001D03B813BC341F3DEDC0201CB51040AB4
:1006A000010ED8A4000E016ECB51050A010ED8A48C
:1006B000000E006E0150001203E03BC341F3CBDC9F
:1006C0000301382B62D7416BC6DC0301416BC3DCED
:1006D0000301372B41D76CDD12000450085E055032
:1006E000D8A0053C095E0650D8A0063C0A5E07501B
:1006F000D8A0073C0B5E0336070E0C6E0334083699
:1007000009360A360B36045003A00ED0085E055099
:10071000D8A0053C095E0650D8A0063C0A5E0750EA
:10072000D8A0073C0B5E0DD008260550D8B0053C7C
:1007300009260650D8B0063C0A260750D8B0073C18
:100740000B2603360C2EDAD70234083609360A3661
:100750000B36045003A00ED0085E0550D8A0053C0F
:10076000095E0650D8A0063C0A5E0750D8A0073C98
:100770000B5E0DD008260550D8B0053C0926065062
:10078000D8B0063C0A260750D8B0073C0B260236E4
:10079000070E0C6E0234083609360A360B36045042
:1007A00002A00ED0085E0550D8A0053C095E065098
:1007B000D8A0063C0A5E0750D8A0073C0B5E0DD0BF
:1007C00008260550D8B0053C09260650D8B0063C8E
:1007D0000A260750D8B0073C0B2602360C2EDAD773
:1007E0000134083609360A360B36045002A00ED002
:1007F000085E0550D8A0053C095E0650D8A0063C0E
:100800000A5E0750D8A0073C0B5E0DD008260550A5
:10081000D8B0053C09260650D8B0063C0A26075039
:10082000D8B0073C0B260136070E0C6E0134083693
:1008300009360A360B36045001A00ED0085E05506A
:10084000D8A0053C095E0650D8A0063C0A5E0750B9
:10085000D8A0073C0B5E0DD008260550D8B0053C4B
:1008600009260650D8B0063C0A260750D8B0073CE7
:100870000B2601360C2EDAD70034083609360A3634
:100880000B36045001A00ED0085E0550D8A0053CE0
:10089000095E0650D8A0063C0A5E0750D8A0073C67
:1008A0000B5E0DD008260550D8B0053C0926065031
:1008B000D8B0063C0A260750D8B0073C0B260036B5
:1008C000070E0C6E0034083609360A360B36045013
:1008D00000A00ED0085E0550D8A0053C095E065069
:1008E000D8A0063C0A5E0750D8A0073C0B5E0DD08E
:1008F00008260550D8B0053C09260650D8B0063C5D
:100900000A260750D8B0073C0B2600360C2EDAD743
:1009100000B00ED0045008260550D8B0053C09267A
:100920000650D8B0063C0A260750D8B0073C0B2624
:100930001200086A096A000E076203641EEF05F0E0
:10094000025006180A6E075003267E0ED8A0AFEF9D
:1009500004F0035ED8B023EF05F0B3EF04F0035EBC
:10096000D8A027EF05F0028E068E02C00EF001C05F
:100970000BF000C00DF000500402F4CF0CF0015059
:100980000502F4CF00F0F3CF08F00402F3500C2678
:10099000F4500822000E00220D500502F3500C26E0
:1009A000F4500822000E002202500402F3500826E0
:1009B000F450002202500502016A000E0122F35099
:1009C0000026F45001220D500602F3500826F45080
:1009D0000022026A000E012202220B500602F3508E
:1009E0000026F4500122000E02220E500602F3509F
:1009F0000126F450022202BE06EF05F0083600364A
:100A0000013602360306D8B427EF05F019EF05F0DA
:100A1000D880800E08640030000E002201220222DD
:100A2000D8A019EF05F0023201320032034A23EF59
:100A300005F00AAE029E000E2AEF05F0010EC0EC92
:100A400000F02AEF05F0020E21DC2AEF05F0040E7B
:100A5000C7EC00F0120000C008F00150006E016AFF
:100A6000026A036A0B6A0C6A016A026A036A960EDA
:100A7000036E0A6A00AE43EF05F0081E001E082A46
:100A8000D8B4002A0A8E00C001F008C000F0086A3D
:100A9000026A0DDC12000B1E0A1E091E081E082A1F
:100AA000D8B4092AD8B40A2AD8B40B2A12000B6A7F
:100AB0000A6A096A00500402F4CF09F0F3CF08F083
:100AC00001500502F4CF0BF0F3CF0AF000500502FD
:100AD000F3500926F4500A22E86A0B22015004025E
:100AE000F3500926F4500A22E86A0B2208C000F0ED
:100AF00009C001F00AC002F00BC003F01200005060
:100B0000086E0150006E016A026A036A0B6A0C6A81
:100B1000960E036E0A6A00C001F008C000F0086A71
:100B2000026A57EC01F012000CB0D6EF05F00CA2EF
:100B30007EEF06F00E6A000E0264EDEF05F0F00E97
:100B40000214D8A4B8EF05F0023A01380F0B0226C0
:100B50000138F00B016E00380F0B01260038F00B46
:100B6000006E08380F0B00260838F00B086E0E8454
:100B7000D89002BED1EF05F00836003601360236B5
:100B80000E2A02BED1EF05F00836003601360236D5
:100B90000E2A02BED1EF05F00836003601360236C5
:100BA0000E2A0E50036472EF06F0035E0BBC08AE13
:100BB00078EF06F0D880800E08640030000E002226
:100BC00001220222D8A078EF06F002320132003270
:100BD000034A7EEF06F078EF06F001C002F000C095
:100BE00001F008C000F0086A000E0E86026424EFCF
:100BF00006F0F00E0214D8A40CEF06F0023A013809
:100C00000F0B02260138F00B016E00380F0B012686
:100C10000038F00B006E0E84D89002BED1EF05F0C4
:100C20000036013602360E2A02BED1EF05F000363C
:100C3000013602360E2A02BED1EF05F0003601362B
:100C400002360E2AD1EF05F001C002F000C001F01B
:100C5000006A000E0E960E88026451EF06F0F00E48
:100C60000214D8A43CEF06F0023A01380F0B02261A
:100C70000138F00B016E0E84D89002BED1EF05F062
:100C8000013602360E2A02BED1EF05F001360236D9
:100C90000E2A02BED1EF05F0013602360E2AD1EF40
:100CA00005F001C002F0016A000E0E86026484EFB6
:100CB00006F0F00E0214D8A460EF06F0023A0E849B
:100CC000D89002BED1EF05F002360E2A02BED1EF57
:100CD00005F002360E2A02BED1EF05F002360E2ACA
:100CE000D1EF05F0010E0C6EC7EC00F088EF06F0B6
:100CF000020E0C6ED4EC00F088EF06F0040E0C6EC1
:100D000046EC01F088EF06F0080E0C6EC0EC00F027
:100D100012000B6A0350D8B4CFEF06F002500A6EEF
:100D2000028E8E0E035E03AED3EF06F0036C080E48
:100D3000035CD8A0AEEF06F0036E013602C001F0EE
:100D4000026A080E035CD8A0AEEF06F0036E01360F
:100D5000016A0350D8A4D890B8EF06F00350D8B475
:100D6000B8EF06F0D89002320132032EB2EF06F04F
:100D70000BBC01A0C5EF06F0D8A0C5EF06F0012A14
:100D8000D8B4022A02BEE2EF06F00AAEE8EF06F09F
:100D9000021E011E012AD8B4022AE8EF06F0026AF8
:100DA000016AE8EF06F00B800BAEECEF06F0026A8A
:100DB0000AAEECEF06F0FF0E026E016E0A3602324A
:100DC000ECEF06F0010E0C6EEFEC00F0EEEF06F02B
:100DD000000E0C6EEEEF06F0FF0E0C6E0150006E72
:100DE0000250016E12000201CB51040A010ED8A478
:100DF000000E016ECB51050A010ED8A4000E006E44
:100E0000015000120DE029C332F328C333F32AC383
:100E100034F32BC335F32CC336F3DEEC01F05DD095
:100E2000CB51020A010ED8A4000E016ECB51030A69
:100E3000010ED8A4000E006E0150001214E0070E3F
:100E400003012903F3CF32F3040E322728C333F30F
:100E5000333733912AC334F32BC335F32CC336F322
:100E6000DEEC01F03AD0CD6B28C300F000360090E4
:100E7000003600900050080F0301326F90EC01F033
:100E800029C332F390EC01F0010ECD6F03012D6BFD
:100E90002C512D5D22E22D512A25E96E000E2B21C9
:100EA000EA6EEECF01F001C032F33233329F3233BB
:100EB000329F3233329F3233329F90EC01F0030184
:100EC0002D512A25E96E000E2B21EA6EEECF32F36A
:100ED00090EC01F003012D2BDBD712000EEC00F09B
:100EE000CCC241F32BEC00F0800E0301416F2BECE0
:100EF00000F028C341F32BEC00F0D8EC00F0120016
:100F0000220E0C6E086A096A0A6A0B6A0C06D8B4CB
:100F10001FD0D8900B320A32093208320332023223
:100F200001320032D8A0F2D70C06D8B409D0045050
:100F300008260550092206500A2207500B22EAD73C
:100F4000045008260550092206500A2207500B2299
:100F5000120003012E6B2F6B28C330F329C331F32A
:100F6000800E2919006E800E005C02E1000E285DE3
:100F70000BE2010E2E6F000E2F6F28510008306F0C
:100F800029C331F3000E315730C332F331C333F389
:100F90002AC334F32BC335F3FDEC00F0060E2C6F9F
:100FA000000E2D6F000E006E2D51005C02E12C51E1
:100FB000000819E22C512A25E16E2D512B21E26EF9
:100FC000010E2C5D006E000E2D59016E00502A2579
:100FD000E96E01502B21EA6EEECFE6FF010E2C5F89
:100FE000000E2D5BDFD72AC3E1FF2BC3E2FF200EEB
:100FF000E66E2E512F111AE02C6B2D6B2C512A25E9
:10100000E96E2D512B21EA6EEE50200A03E12C4BA4
:101010002D2BF4D7010E2C5F000E2D5B2C512A25B1
:10102000E16E2D512B21E26E2D0EE66E1200030EA5
:101030000C6E950E0D6E0D2EFED70C2EFCD71200E9
:10104000830EC21628C300F00036009000360090D0
:101050000050C21252EC01F0C282C2A201D0FDD7F0
:10106000C4CF01F0006AC3500012000E011212003A
:101070000B6A0B86FF0E12000301276B23C301F0DE
:10108000010E006E015004E000360090FF0FFBD708
:1010900000C026F321C3E9FF22C3EAFF0050EE148B
:1010A000016E0152010ED8A4000E006E2551001AE7
:1010B00018E02451000804E2BADFB9DF2407F9D7A9
:1010C00021C3E9FF22C3EAFF2651EE14016E01524B
:1010D000010ED8A4000E006E2551001A02E0FF0E8A
:1010E000276F27C300F0120021C300F022C301F0D4
:1010F000030E046E000E056EDADC00C021F301C0A1
:1011000022F3800E026E800E0118025C02E1005094
:10111000500803E3006A016ABCD0800E006E800EA6
:1011200003012219005C02E12151AB0805E3F40E32
:101130002127000E2223A9D0800E010A006E800E06
:101140002219005C02E12151480805E3FE0E212727
:10115000000E22239AD0800E020A006E800E221901
:10116000005C02E12151460805E3180E2127010E1B
:1011700022238BD0800E030A006E800E2219005CA1
:1011800002E12151340805E3290E2127010E222313
:101190007CD0800E040A006E800E2219005C02E1F1
:1011A00021514C0805E3360E2127010E22236DD074
:1011B000800E080A006E800E2219005C02E12151A7
:1011C000850805E3AE0E2127010E22235ED0800E96
:1011D0000C0A006E800E2219005C02E12151FA080F
:1011E00005E3E40E2127010E22234FD0800E120AC0
:1011F000006E800E2219005C02E121510F0805E308
:10120000120E2127020E222340D0800E160A006EF5
:10121000800E2219005C02E12151E60805E3880EE8
:101220002127020E222331D0800E1B0A006E800E71
:101230002219005C02E12151EA0805E3E70E2127AB
:10124000020E222322D0800E210A006E800E221967
:10125000005C02E12151360805E3200E2127030E30
:10126000222313D0800E290A006E800E2219005C02
:1012700002E12151040805E3480E2127030E222331
:1012800004D05C0E2127030E222321C300F022C3C9
:1012900001F012000301286BD3DE00C021F301C06E
:1012A00022F30150040A02E1000E001804E1010ECD
:1012B0000201A16F02D00201A16B21C300F022C381
:1012C00001F02BEC05F0890E046E410E056E1C0E2C
:1012D000066E810E076E99EC04F01BDD1200A00E65
:1012E0000301236F0F0E246F000E256F266FA00ED3
:1012F000006E0F0E016E000E026E000E036E21C313
:1013000004F022C305F0000E066E076EF9DD00C082
:1013100023F301C024F302C025F303C026F3000E1B
:10132000035C08E1000E025C05E1020E015C02E1D3
:10133000940E005C01E231D0940E235F020E245B18
:10134000000E255B265B050E006E005007E026337D
:10135000253324332333269FFF0FF8D723C300F010
:1013600024C301F025C302F026C303F0010E235F5E
:10137000000E245B255B265B005001100210031059
:101380000CE0000000000000000000000000000071
:101390000000000000000000E1D712000450000A25
:1013A00012E10550000A0FE10650000A0CE1075057
:1013B000000A09E1FF0E006EFF0E016EFF0E026EC5
:1013C0007F0E036E99D00C6A07BE0C2A0D6A0B6A59
:1013D0000A6A096A086A0350021001100010D8B4A2
:1013E00085D0035007180E6E0EBE0D1E07AE0BD033
:1013F000041E051E061E071E042AD8B4052AD8B4EA
:10140000062AD8B4072A03AE0BD0001E011E021E06
:10141000031E002AD8B4012AD8B4022AD8B4032A59
:10142000035007100E6E0EBE1DD06DEC03F00CBE07
:1014300036D00DAE5BD0001E011E021E031E002A18
:10144000D8B4012AD8B4022AD8B4032A081E091E27
:101450000A1E0B1E082AD8B4092AD8B40A2AD8B4FE
:101460000B2A44D007AE15D003BE0DD003500B6E2F
:1014700002500A6E0150096E0050086E036A026A3B
:10148000016A006AD6D7036A026A016A006A002A02
:10149000000C031E021E011E001E0C8EC6D7082A59
:1014A000D8B4092AD8B40A2AD8B40B2A0450085C44
:1014B000D8A4BFD70550095CD8A4BBD706500A5C96
:1014C000D8A4B7D707500B5CD8A4B3D70B6A0A6A65
:1014D000096A086A002AD8B4012AD8B4022AD8B402
:1014E000032A03AEA6D70E6A0E88FF0C0E6A0CA064
:1014F00002D04BEC05F0000F12000450000A12E17C
:101500000550000A0FE10650000A0CE10750000ADE
:1015100009E1FF0E006EFF0E016E7F0E026EFF0EE0
:10152000036EA7D0086A096A0750D8B428EF0BF0F9
:101530000350D8B42CEF0BF0025006180A6E028E3E
:10154000068E0E6A02C008F001C00CF000C00DF05B
:1015500004500D5E0550D8A0053C0C5E0650D8A086
:10156000063C085E086A0C6A0D6AD8A0BFEF0AF054
:10157000D8900232013200320832010E0E6E07504E
:10158000035ED8A0CCEF0AF07E0E0E240326D8B05E
:1015900031EF0BF0D2EF0AF07E0E0E240326D8A016
:1015A00036EF0BF0180E0B6E0D360C360836003683
:1015B000013602360E360450005E0550D8A0053CB8
:1015C000015E0650D8A0063C025E06340E120EA044
:1015D000EDEF0AF00D80F8EF0AF0045000260550F8
:1015E000D8B0053C01260650D8B0062802260D903A
:1015F0000B2ED4EF0AF01EEF0BF0D8900036013618
:1016000002360E360450005E0550D8A0053C015E3F
:101610000650D8A0063C025E06340E10010B0D26C3
:10162000D8B00C2AD8B4082AD8A41EEF0BF0083280
:101630000C320D32032AD8B431EF0BF00AAE089EFB
:101640000850026E0C50016E0D50006E39EF0BF019
:10165000010E0EDD39EF0BF0020EC0EC00F039EF99
:101660000BF0040E46EC01F039EF0BF0080EC7EC5E
:1016700000F012000050086E0150006E0250016E22
:101680000350026E036A0B6A0C6A9E0E036E0A6AAE
:1016900002AE57EF0BF0081E001E011E021E082AA4
:1016A000D8B4002AD8B4012AD8B4022A0A8E020E6D
:1016B0000C6E94EC05F012000201CB51010805E21A
:1016C000AF0E0301286F0ADC0ED0CB51010A0BE1EB
:1016D000010ECE6FCD6B0301326B90EC01F0030174
:1016E000326B90EC01F0120000C008F00B6A0C6A3B
:1016F0009E0E036E0A6A026A016A006A020E0C6E8E
:1017000094EC05F01200010E0301286F99DC7FECC8
:1017100005F0890E046E410E056E1C0E066E810EDC
:10172000076E99EC04F089EC06F0120002500618DE
:101730000E6E086A096A0B6A0350076489EF0CF0A1
:1017400006500A6E068E028E03500B6E0750036E13
:10175000000E0B64D9EF0BF00B50075ED8B47AEF94
:101760000CF0070E076448EF0CF0075E00C008F0AD
:1017700001C000F002C001F0026A074E7AEF0CF0DF
:1017800007641DEF0CF0075E00C008F001C000F018
:10179000016A074E7AEF0CF00764FBEF0BF0075E6F
:1017A00000C008F0006A074E7AEF0CF00764E2EF21
:1017B0000BF00AC002F005C001F004C000F0086A96
:1017C000A6EF0DF0030E0764EDEF0BF0075E08388F
:1017D0000F0B086E074E7AEF0CF0D8900832074EC8
:1017E0007AEF0CF0D8900832074E7AEF0CF0D890D0
:1017F00008327AEF0CF0030E07640CEF0CF0075E72
:1018000008380F0B086E0038F00B082600380F0B55
:10181000006E074E7AEF0CF0D89000320832074E77
:101820007AEF0CF0D89000320832074E7AEF0CF0C5
:10183000D890003208327AEF0CF0030E076434EFD0
:101840000CF0075E08380F0B086E0038F00B082606
:1018500000380F0B006E0138F00B002601380F0B1B
:10186000016E074E7AEF0CF0D89001320032083248
:10187000074E7AEF0CF0D890013200320832074E52
:101880007AEF0CF0D8900132003208327AEF0CF087
:10189000030E076465EF0CF0075E08380F0B086E47
:1018A0000038F00B082600380F0B006E0138F00BE3
:1018B000002601380F0B016E0238F00B01260238AA
:1018C0000F0B026E074E7AEF0CF0D8900232013205
:1018D00000320832074E7AEF0CF0D8900232013213
:1018E00000320832074E7AEF0CF0D8900232013203
:1018F00000320832096A000E0EAE6EEF0DF0081EBF
:10190000001E011E021E082A0022012202226EEF82
:101910000DF00750D8A48FEF0CF0A6EF0DF0096A78
:1019200002C00AF0028E068E0750035C076ED8B420
:1019300061EF0DF0070E07642FEF0DF0075E045006
:10194000096E0550046E0650056E066A074E61EF7B
:101950000DF0070E076404EF0DF0075E0450096EEA
:101960000550046E056A074E61EF0DF0070E07641F
:10197000E2EF0CF0075E0450096E046A074E61EF57
:101980000DF0070E0764C9EF0CF00AC002F0A6EFD5
:101990000DF0030E0764D4EF0CF0075E09380F0B4F
:1019A000096E074E61EF0DF0D8900932074E61EFD6
:1019B0000DF0D8900932074E61EF0DF0D890093242
:1019C00061EF0DF0030E0764F3EF0CF0075E0938CA
:1019D0000F0B096E0438F00B092604380F0B046E48
:1019E000074E61EF0DF0D89004320932074E61EFD7
:1019F0000DF0D89004320932074E61EF0DF0D89007
:101A00000432093261EF0DF0030E07641BEF0DF095
:101A1000075E09380F0B096E0438F00B09260438ED
:101A20000F0B046E0538F00B042605380F0B056EFE
:101A3000074E61EF0DF0D890053204320932074E9F
:101A400061EF0DF0D890053204320932074E61EF94
:101A50000DF0D89005320432093261EF0DF0030E1B
:101A600007644CEF0DF0075E09380F0B096E043860
:101A7000F00B092604380F0B046E0538F00B042612
:101A800005380F0B056E0638F00B052606380F0BD0
:101A9000066E074E61EF0DF0D89006320532043223
:101AA0000932074E61EF0DF0D8900632053204324C
:101AB0000932074E61EF0DF0D8900632053204323C
:101AC0000932086A000E0EAE6EEF0DF0091E041EFC
:101AD000051E061E092A0422052206220950082690
:101AE0000450002205500122065002220EBE85EF4E
:101AF0000DF0D8A094EF0DF002320132003208321E
:101B0000033E94EF0DF0A0EF0DF0D8B09AEF0DF07A
:101B1000000E081E001E011E021E082A00220122BD
:101B200002220A7E9AEF0DF0010E0C6E94EC05F085
:101B3000A8EF0DF0020E0C6E94EC05F0A8EF0DF07E
:101B4000040E0C6E46EC01F0A8EF0DF0000E0C6ECA
:101B50001200040003C2CAF00201AB6BAC6B03A11C
:101B600004D0A951AB27AA51AC2303A304D0A75199
:101B7000AB27A851AC2303A504D0AD51AB27AE5180
:101B8000AC2303A704D0B351AB27B451AC2303A9B2
:101B900004D0B151AB27B251AC2303AB04D0AF5149
:101BA000AB27B051AC2303AD04D0B551AB27B65130
:101BB000AC23ABC228F3ACC229F3DC0E03012A6FBD
:101BC000020E2B6FA9EC07F00201DE51200A03E0A0
:101BD000DEC2D5F202D0300ED56F2E0ED66FDF5199
:101BE000200A03E0DFC2D7F202D0300ED76FE051F7
:101BF000200A03E0E0C2D8F202D0300ED86FEB51D9
:101C0000040A010ED8A4000E016EEB51050A010E64
:101C1000D8A4000E006E0150001231E00251010AFA
:101C200004E1040E0301216F03D00301060E216FAE
:101C300021C328F3100E296FE30E2A6F000E2B6FBD
:101C4000020E2C6FF3EC06F021C328F3580E0301AB
:101C5000296FE00E2A6F000E2B6F020E2C6FF3EC33
:101C600006F021C328F3280E0301296FD50E2A6F31
:101C7000020E2B6F040E2C6FF3EC06F073D00201F2
:101C8000EB51020A010ED8A4000E016EEB51030ABB
:101C9000010ED8A4000E006E0150001230E0025177
:101CA000010A03E10301216B03D00301010E216F3F
:101CB00021C328F3090E296FDD0E2A6F000E2B6F4A
:101CC000020E2C6FF3EC06F021C328F30F0E030174
:101CD000296FE60E2A6F000E2B6F020E2C6FF3ECAD
:101CE00006F021C328F30B0E0301296FD50E2A6FCE
:101CF000020E2B6F040E2C6FF3EC06F033D00201B2
:101D0000EB51010A2FE10251010A03E10301216BAA
:101D100003D00301010E216F21C328F3090E296F9F
:101D2000EC0E2A6F000E2B6F020E2C6FF3EC06F0F8
:101D300021C328F30F0E0301296FEA0E2A6F000E4C
:101D40002B6F010E2C6FF3EC06F021C328F30B0E62
:101D50000301296FD50E2A6F020E2B6F040E2C6F14
:101D6000F3EC06F0040005C2E9F00201AB6BAC6BCA
:101D700005A104D0BB51AB27BC51AC2305A304D0B3
:101D8000B951AB27BA51AC2305A504D0B751AB2745
:101D9000B851AC2305A704D0BD51AB27BE51AC232D
:101DA00005A904D0C351AB27C451AC2305AB04D063
:101DB000C151AB27C251AC2305AD04D0BF51AB27F5
:101DC000C051AC23ABC228F3ACC229F3DC0E030133
:101DD0002A6F020E2B6FA9EC07F0DEC2D5F2DFC22C
:101DE000D6F2E0C2D7F2E1C2D8F20201EB51040A06
:101DF000010ED8A4000E016EEB51050A010ED8A405
:101E0000000E006E0150001231E00251010A04E19F
:101E1000060E0301216F03D00301040E216F21C3BD
:101E200028F3100E296FA30E2A6F000E2B6F020EDF
:101E30002C6FF3EC06F021C328F3580E0301296F31
:101E4000480E2A6F000E2B6F020E2C6FF3EC06F07B
:101E500021C328F3280E0301296FD50E2A6F020E25
:101E60002B6F040E2C6FF3EC06F073D00201EB51D4
:101E7000020A010ED8A4000E016EEB51030A010EF6
:101E8000D8A4000E006E0150001230E00251010A89
:101E900004E1010E0301216F02D00301216B21C374
:101EA00028F3090E296F450E2A6F000E2B6F020EC4
:101EB0002C6FF3EC06F021C328F30F0E0301296FFA
:101EC000420E2A6F000E2B6F020E2C6FF3EC06F001
:101ED00021C328F30B0E0301296FD50E2A6F020EC2
:101EE0002B6F040E2C6FF3EC06F033D00201EB5194
:101EF000010A2FE10251010A04E1010E0301216FE1
:101F000002D00301216B21C328F3090E296F4B0E68
:101F10002A6F000E2B6F020E2C6FF3EC06F021C31C
:101F200028F30F0E0301296F500E2A6F000E2B6F3E
:101F3000010E2C6FF3EC06F021C328F30B0E030106
:101F4000296FD50E2A6F020E2B6F040E2C6FF3EC47
:101F500006F0040002C24FF0120003010BB102D0E0
:101F60008B9E01D08B8E0BB302D08B9601D08B86CB
:101F70000BB502D08B9C01D08B8C0BB702D08B940D
:101F800001D08B840BB902D08B9A01D08B8A0BBB0A
:101F900002D08B9201D08B820BBD02D08B9801D0E6
:101FA0008B88E9C221F3EAC222F36FEC09F0120038
:101FB00002010C51000A25E103010BB102D08A96FF
:101FC00001D08A860BB302D0899401D089840BB5E5
:101FD00002D08A9801D08A880BB702D0899601D0A6
:101FE00089860BB902D08A9A01D08A8A0BBB02D0AB
:101FF000899A01D0898A0BBD02D0899801D089883D
:1020000024D003010BB102D08A8601D08A960BB38B
:1020100002D0898401D089940BB502D08A8801D07E
:102020008A980BB702D0898601D089960BB902D065
:102030008A8A01D08A9A0BBB02D0898A01D0899AF8
:102040000BBD02D0898801D08998E9C221F3EAC288
:1020500022F36FEC09F0120004007E50000A010E1A
:10206000D8A4000E016E7D50010A010ED8A4000E06
:10207000006E00500116800E03010E19006E800ED6
:10208000005C02E1640E0D5D000ED8B0010E006E22
:1020900001500016D8B4ABD002019451000AD8A464
:1020A000A2D0EB51040A010ED8A4000E016EEB5130
:1020B000050A010ED8A4000E006E015000122CE09B
:1020C0009F51010A0EE1040E0301286F100E296FC3
:1020D000740E2A6F000E2B6F080E2C6FF3EC06F0B7
:1020E0000DD0040E0301286F100E296F7F0E2A6F8A
:1020F000000E2B6F080E2C6FF3EC06F0060E03019A
:10210000286F100E296F9A0E2A6F000E2B6F080E83
:102110002C6FF3EC06F067D00201EB51020A010EBE
:10212000D8A4000E016EEB51030A010ED8A4000ED4
:10213000006E015000122AE09F51010A0DE10301D7
:10214000286B090E296F910E2A6F000E2B6F080E57
:102150002C6FF3EC06F00CD00301286B090E296FED
:10216000880E2A6F000E2B6F080E2C6FF3EC06F012
:10217000010E0301286F090E296F630E2A6F000EEE
:102180002B6F080E2C6FF3EC06F02DD00201EB51F3
:10219000010A29E19F51010A0DE10301286B090E93
:1021A000296F5B0E2A6F000E2B6F070E2C6FF3EC5E
:1021B00006F00CD00301286B090E296F530E2A6F0D
:1021C000000E2B6F070E2C6FF3EC06F0010E0301CF
:1021D000286F090E296F6C0E2A6F000E2B6F070EE9
:1021E0002C6FF3EC06F0010E0201946F07D0020190
:1021F0009451010A01E1ADDC0201946B040003017A
:102200000C510201781903E1775103010B19D8B47D
:102210003FD30BC377F20CC378F202019F51000A3F
:1022200049E1800E03010C19006E800E005C02E192
:10223000640E0B5D1EE3050E0B25006E000E0C21D7
:10224000016E00C00BF301C00CF300C028F301C005
:1022500029F3DC0E2A6F020E2B6FA9EC07F0DEC209
:10226000D5F2DFC2D6F2E0C2D7F2570E0201D86F24
:1022700020D00BC328F30CC329F3DC0E03012A6F13
:10228000020E2B6FA9EC07F00201E051200A03E0D7
:10229000E0C2D5F202D0300ED56F2E0ED66FE151CE
:1022A000200A03E0E1C2D7F202D0300ED76F570EFA
:1022B000D86F32D0800E03010C19006E800E030A15
:1022C000005C02E1E70E0B5D14E20BC328F30CC3C4
:1022D00029F3DC0E2A6F020E2B6FA9EC07F0DFC288
:1022E000D5F2E0C2D6F2E1C2D7F2570E0201D86FA2
:1022F00013D00BC328F30CC329F3DC0E03012A6FA0
:10230000020E2B6FA9EC07F0DEC2D5F2DFC2D6F2C7
:10231000E0C2D7F2E1C2D7F20201EB51040A010E8A
:10232000D8A4000E016EEB51050A010ED8A4000ED0
:10233000006E015000120DE00301286B400E296F62
:10234000D50E2A6F020E2B6F040E2C6FF3EC06F0E5
:1023500010D00201EB51000A0CE00301286B040EBF
:10236000296FD50E2A6F020E2B6F040E2C6FF3EC23
:1023700006F0040002019451010AD8A489D2035145
:10238000000A010ED8A4000E016E0551000A010ECC
:10239000D8A4000E006E0150001604E00DC3A5F293
:1023A0000EC3A6F2A5C200F0A6C201F02BEC05F008
:1023B00000C019F301C01AF302C01BF303C01CF3E1
:1023C000000E046E000E056E480E066E850E076E3A
:1023D00019C300F01AC301F01BC302F01CC303F0C1
:1023E0007DEC0AF000C015F301C016F302C017F32C
:1023F00003C018F319C304F01AC305F01BC306F099
:102400001CC307F0000E006E000E016E480E026E37
:10241000850E036E7DEC0AF015C304F016C305F0BB
:1024200017C306F018C307F096EC0BF000C015F3C5
:1024300001C016F302C017F303C018F3A4C200F0E2
:1024400074EC0BF015C304F016C305F017C306F0C7
:1024500018C307F099EC04F0000E046E000E056E30
:10246000200E066E820E076E7DEC0AF01F0E046EC3
:10247000850E056E6B0E066E7B0E076E99EC04F0F2
:10248000000E046E000E056E000E066E7F0E076EC7
:1024900096EC0BF000C004F001C005F002C006F09D
:1024A00003C007F0000E006E000E016E000E026EFB
:1024B0007F0E036E7DEC0AF000C01DF301C01EF319
:1024C00002C01FF303C020F30DC300F00EC301F0E0
:1024D0002BEC05F000C019F301C01AF302C01BF386
:1024E00003C01CF3000E046E000E056E480E066E4F
:1024F000850E076E19C300F01AC301F01BC302F06A
:102500001CC303F07DEC0AF0000E046E000E056E95
:10251000000E066E800E076E96EC0BF000C015F3F1
:1025200001C016F302C017F303C018F319C304F077
:102530001AC305F01BC306F01CC307F0000E006EA3
:10254000000E016E480E026E850E036E7DEC0AF0E1
:1025500015C304F016C305F017C306F018C307F03F
:1025600096EC0BF000C004F001C005F002C006F0CC
:1025700003C007F0000E006E000E016E000E026E2A
:10258000810E036E7DEC0AF01DC304F01EC305F03E
:102590001FC306F020C307F099EC04F00A0E046E86
:1025A000D70E056E230E066E770E076E96EC0BF0B7
:1025B00000C015F301C016F302C017F303C018F3EF
:1025C00015C311F316C312F317C313F318C314F38F
:1025D0000BC300F00CC301F02BEC05F015C304F0A5
:1025E00016C305F017C306F018C307F099EC04F002
:1025F00089EC06F000C00FF301C010F315C300F022
:1026000016C301F017C302F018C303F0000E046EE6
:10261000000E056E480E066E850E076E99EC04F0EE
:1026200000C011F301C012F302C013F303C014F38E
:1026300002019F51000A49E1800E03011019006E4A
:10264000800E005C02E1640E0F5D1EE3050E0F2597
:10265000006E000E1021016E00C00FF301C010F3D8
:1026600000C028F301C029F3DC0E2A6F020E2B6F85
:10267000A9EC07F0DEC2D5F2DFC2D6F2E0C2D7F293
:10268000570E0201D86F20D00FC328F310C329F3CF
:10269000DC0E03012A6F020E2B6FA9EC07F002017A
:1026A000E051200A03E0E0C2D5F202D0300ED56F2F
:1026B0002E0ED66FE151200A03E0E1C2D7F202D01C
:1026C000300ED76F570ED86F32D0800E030110191D
:1026D000006E800E030A005C02E1E70E0F5D14E25B
:1026E0000FC328F310C329F3DC0E2A6F020E2B6FE1
:1026F000A9EC07F0DFC2D5F2E0C2D6F2E1C2D7F210
:10270000570E0201D86F13D00FC328F310C329F35B
:10271000DC0E03012A6F020E2B6FA9EC07F0DEC25C
:10272000D5F2DFC2D6F2E0C2D7F2E1C2D7F202019F
:10273000EB51040A010ED8A4000E016EEB51050AFC
:10274000010ED8A4000E006E015000120EE0040E1F
:102750000301286F400E296FD50E2A6F020E2B6FD2
:10276000040E2C6FF3EC06F02DD00201EB51020A9F
:10277000010ED8A4000E016EEB51030A010ED8A47D
:10278000000E006E015000120DE00301286B0D0ECB
:10279000296FD50E2A6F020E2B6F040E2C6FF3ECEF
:1027A00006F010D00201EB51010A0CE10301286B85
:1027B0000C0E296FD50E2A6F020E2B6F040E2C6F94
:1027C000F3EC06F011C300F012C301F013C302F0E2
:1027D00014C303F089EC06F000C028F301C029F30C
:1027E000DC0E03012A6F020E2B6FA9EC07F0E0C28A
:1027F000D5F2E1C2D6F20201EB51040A010ED8A4CF
:10280000000E016EEB51050A010ED8A4000E006EF9
:10281000015000120EE0060E0301286F4C0E296FC6
:10282000D50E2A6F020E2B6F020E2C6FF3EC06F002
:102830002FD00201EB51030A010ED8A4000E016E45
:10284000EB51040A010ED8A4000E006E01500012D4
:102850000EE0010E0301286F0E0E296FD50E2A6FB0
:10286000020E2B6F020E2C6FF3EC06F011D002015A
:10287000EB51010A0DE1010E0301286F0D0E296FC6
:10288000D50E2A6F020E2B6F020E2C6FF3EC06F0A2
:1028900004001200810E0301216F0F0E226F236BC3
:1028A000190E246F256B3CEC08F000C00BF3810E71
:1028B000216F0F0E226F010E236F190E246F256BEF
:1028C0003CEC08F000500B13810E216F0F0E226FAD
:1028D000020E236F190E246F256B3CEC08F00B5190
:1028E000001203E0010E0201146F120004004AEC12
:1028F00009F000C00BF301C00CF3000E01BEFF0E87
:1029000003010D6F0E6F83EC0BF000C00FF301C0DD
:1029100010F3000E01BEFF0E0301116F126F0201D2
:102920009E51010A11E10BC321F30CC322F374EC95
:1029300008F02BEC05F000C013F301C014F302C043
:1029400015F303C016F312D00BC300F00CC301F053
:102950000DC302F00EC303F03AEC0BF000C013F30A
:1029600001C014F302C015F303C016F3800E030177
:102970001219006E800E0E19005C08E10D51115DF8
:1029800005E10C51105D02E10B510F5D08E3E70E0C
:102990000B6F030E0C6F000E0D6F0E6F45D00F51B5
:1029A0000B25006E10510C21016E11510D21026E8C
:1029B00012510E21036E640E046E000E056E066E3B
:1029C000076E80EC07F00BC304F00CC305F00DC3D9
:1029D00006F00EC307F00F51045E1051055A115155
:1029E000065A1251075ACEEC09F000C00BF301C091
:1029F0000CF302C00DF303C00EF3800E046E800EC4
:102A00000318045C08E10250000805E101500308C6
:102A100002E10050E70808E2E70E03010B6F030E26
:102A20000C6F000E0D6F0E6F02019F51010A61E1E4
:102A3000A0C200F074EC0BF013C304F014C305F053
:102A400015C306F016C307F099EC04F0000E046EEF
:102A5000000E056E7A0E066E880E076E7DEC0AF08B
:102A600000C013F301C014F302C015F303C016F342
:102A7000F40E046EFD0E056E340E066E7F0E076EAC
:102A80007DEC0AF000C013F301C014F302C015F38B
:102A900003C016F300C004F001C005F002C006F048
:102AA00003C007F099EC04F0000E046E000E056EF2
:102AB000480E066E840E076E7DEC0AF000C013F31C
:102AC00001C014F302C015F303C016F3000E046E28
:102AD000000E056E000E066E7E0E076E96EC0BF075
:102AE00000C013F301C014F302C015F303C016F3C2
:102AF00064D013C300F014C301F015C302F016C371
:102B000003F0000E046E000E056E200E066E820E9F
:102B1000076E99EC04F0000E046E000E056E7A0E3E
:102B2000066E880E076E7DEC0AF000C013F301C03C
:102B300014F302C015F303C016F3F40E046EFD0E79
:102B4000056E340E066E7F0E076E7DEC0AF000C037
:102B500013F301C014F302C015F303C016F300C051
:102B600004F001C005F002C006F003C007F099ECC4
:102B700004F0000E046E000E056E200E066E810E2F
:102B8000076E7DEC0AF000C013F301C014F302C01D
:102B900015F303C016F3000E046E000E056E000E52
:102BA000066E7E0E076E96EC0BF000C013F301C0AC
:102BB00014F302C015F303C016F313C300F014C3DB
:102BC00001F015C302F016C303F089EC06F000C053
:102BD000D3F201C0D4F2800E0118026E800E025CA6
:102BE00002E10A0E005C06E2010E0201E36F000E34
:102BF000E46F1AD0800E03010E19006E800E005C87
:102C000008E1000E0D5D05E1000E0C5D02E1640EB1
:102C10000B5D06E2E70E0201E36F030EE46F04D0E2
:102C20000BC3E3F20CC3E4F21200040003010C51E5
:102C300002010E1903E10D5103010B19D8B4C1D0E3
:102C400003010BC30DF20CC30EF2000E0C1902E1CE
:102C5000010E0B193AE10201EB51040A010ED8A44E
:102C6000000E016EEB51050A010ED8A4000E006E95
:102C7000015000120EE0020E0301286F400E296F72
:102C80000F0E2A6F020E2B6F040E2C6FF3EC06F062
:102C900018D00201EB51000A0EE0010E0301286F6B
:102CA000040E296F070E2A6F020E2B6F040E2C6F75
:102CB000F3EC06F006D00201EB51000A02E18A8C27
:102CC0008A8E02010D6B0E6B7CD05CEC0BF0F9C1AF
:102CD00000F074EC0BF0FCC104F0FDC105F0FEC186
:102CE00006F0FFC107F099EC04F089EC06F000C093
:102CF000FAF101C0FBF10BC30DF20CC30EF20BC3D2
:102D000028F30CC329F3DC0E03012A6F020E2B6F8C
:102D1000A9EC07F0DFC2D5F22E0E0201D66FE0C299
:102D2000D7F2E1C2D8F2EB51040A010ED8A4000E8A
:102D3000016EEB51050A010ED8A4000E006E015081
:102D400000120EE0020E0301286F400E296FD50E0F
:102D50002A6F020E2B6F040E2C6FF3EC06F031D0AD
:102D60000201EB51000A0EE0010E0301286F040E70
:102D7000296FD50E2A6F020E2B6F040E2C6FF3EC09
:102D800006F01FD00201EB51000A1BE1800E006E1D
:102D9000800E03010C19005C02E10B51960803E35D
:102DA0008A9C8A8E0ED0800E006E800E0C19005CFC
:102DB00002E10B51FA0803E3819C819E02D0818CD1
:102DC000819E04001200A6A202D00000FCD7A69C9F
:102DD00003C3A9FF04C3A8FFA69EA684F2CF00F0F8
:102DE000F29E550EA76EAA0EA76EA68200BE02D056
:102DF000F29E01D0F28EA694A1B802D00000FCD7BA
:102E0000A1981200030103B102D08B9001D08B80F6
:102E1000E9C221F3EAC222F36FEC09F012000201C9
:102E2000036B056B03010B6BD8EC0FF005C20BF3C2
:102E3000ADEC0FF0E9C221F3EAC222F36FEC09F026
:102E400012000301076B086B640E0201EC5D0301C5
:102E5000046F000E0201ED590301056F010E096FA9
:102E6000000E0A6F0201D36BD46B0400780E0301CD
:102E7000066F036B0651035D46E281B202D0068005
:102E800001D0069081B402D0D88001D0D89006B08D
:102E900003D002E2069001D0068081B002D0D88033
:102EA00001D0D89006B003D002E2069001D006808F
:102EB00006A007D0EFDC02011451010A02E1146BF5
:102EC000AAD214DD800E03010819006E800E0201E3
:102ED000D419005C03E1D3510301075D08E2D3C2BA
:102EE00007F3D4C208F3E3C209F3E4C20AF3100EF5
:102EF0000C6E940E0D6E03010D2EFDD70C2EFBD71C
:102F00000000032BB7D7040007C317F208C318F259
:102F100009C30BF30AC30CF388DE800E03010A1900
:102F2000006E800E0201ED19005C03E1EC5103011B
:102F3000095D000ED8B0010E006E0050020116159A
:102F4000056E800E7619036E800E03010A19035C6C
:102F500003E109510201755D0201010ED8B0000EB6
:102F6000036E75510301095D016E02017651030183
:102F70000A59026E800E0519006E800E0218005C60
:102F800002E10150045D010ED8B0000E006E005049
:102F90000314046E800E0A19036E800E0201761966
:102FA000035C03E175510301095D0301010ED8B013
:102FB000000E036E09510201755D016E03010A5195
:102FC00002017659026E800E03010519006E800E13
:102FD0000218005C02E10150045D010ED8B0000E41
:102FE000006E0350001600500410016E020176516D
:102FF000030A02E1E70E7519010ED8A4000E006E57
:10300000015000120550001602E0010E586F81B207
:1030100002D0068001D0069081B402D0D88001D0C1
:10302000D89006B003D002E2069001D0068081B0AD
:1030300002D0D88001D0D89006B003D002E206902A
:1030400001D0068006A007D025DC02011451010A38
:1030500002E1146BE0D117C20BF318C20CF309C3E1
:103060000DF30AC30EF32CEC10F081B202D00680EF
:1030700001D0069081B402D0D88001D0D89006B09B
:1030800003D002E2069001D0068081B002D0D88041
:1030900001D0D89006B003D002E2069001D006809D
:1030A00006A008D04AEC14F002011451010A02E112
:1030B000146BB1D102010400A151010AD8A4ABD113
:1030C000EB51040A010ED8A4000E016EEB51050A63
:1030D000010ED8A4000E006E01500012D8B4CAD060
:1030E000020E0301286F100E296F4F0E2A6F020E79
:1030F0002B6F080E2C6FF3EC06F0030E0B6E080E10
:103100000C6E770E0D6E0D2EFED70C2EFCD70B2EEF
:10311000FAD7020E0301286F100E296F590E2A6F7D
:10312000020E2B6F080E2C6FF3EC06F00B0E0B6EDD
:10313000260E0C6E5D0E0D6E0D2EFED70C2EFCD7DE
:103140000B2EFAD7000000000400020E0301286FC6
:10315000100E296F6B0E2A6F020E2B6F080E2C6F4C
:10316000F3EC06F0070E0B6E170E0C6E6A0E0D6E6A
:103170000D2EFED70C2EFCD70B2EFAD70000040024
:10318000020E0301286F100E296F620E2A6F020EC5
:103190002B6F080E2C6FF3EC06F00B0E0B6E260E49
:1031A0000C6E5D0E0D6E0D2EFED70C2EFCD70B2E69
:1031B000FAD7000000000400020E0301286F100E71
:1031C000296F2B0E2A6F020E2B6F080E2C6FF3EC5B
:1031D00006F0070E0B6E170E0C6E6A0E0D6E0D2E9E
:1031E000FED70C2EFCD70B2EFAD700000400020EDF
:1031F0000301286F100E296F220E2A6F020E2B6F0B
:10320000080E2C6FF3EC06F00B0E0B6E260E0C6EF8
:103210005D0E0D6E0D2EFED70C2EFCD70B2EFAD7A1
:10322000000000000400020E0301286F100E296F39
:10323000340E2A6F020E2B6F080E2C6FF3EC06F083
:10324000030E0B6E080E0C6E770E0D6E0D2EFED754
:103250000C2EFCD70B2EFAD7020E0301286F100E8E
:10326000296F460E2A6F020E2B6F080E2C6FF3EC9F
:1032700006F0C6D00201EB51000AD8B4C1D0010E4D
:103280000301286F296B3D0E2A6F020E2B6F080E6B
:103290002C6FF3EC06F0030E0B6E080E0C6E770E1F
:1032A0000D6E0D2EFED70C2EFCD70B2EFAD7010E6D
:1032B0000301286F296BEF0E2A6F010E2B6F080E8A
:1032C0002C6FF3EC06F00B0E0B6E260E0C6E5D0EE3
:1032D0000D6E0D2EFED70C2EFCD70B2EFAD700004C
:1032E00000000400010E0301286F296BB80E2A6F3D
:1032F000000E2B6F080E2C6FF3EC06F0070E0B6E12
:10330000170E0C6E6A0E0D6E0D2EFED70C2EFCD70E
:103310000B2EFAD700000400010E0301286F296B61
:10332000AF0E2A6F000E2B6F080E2C6FF3EC06F019
:103330000B0E0B6E260E0C6E5D0E0D6E0D2EFED757
:103340000C2EFCD70B2EFAD7000000000400010E53
:103350000301286F296BA60E2A6F000E2B6F080E33
:103360002C6FF3EC06F0070E0B6E170E0C6E6A0E48
:103370000D6E0D2EFED70C2EFCD70B2EFAD70000AB
:103380000400010E0301286F296BC10E2A6F000E85
:103390002B6F080E2C6FF3EC06F00B0E0B6E260E47
:1033A0000C6E5D0E0D6E0D2EFED70C2EFCD70B2E67
:1033B000FAD7000000000400010E0301286F296BFA
:1033C000D40E2A6F000E2B6F080E2C6FF3EC06F054
:1033D000030E0B6E080E0C6E770E0D6E0D2EFED7C3
:1033E0000C2EFCD70B2EFAD7010E0301286F296B88
:1033F000CB0E2A6F000E2B6F080E2C6FF3EC06F02D
:103400000400100E02010D6F270E0E6F09C30BF39F
:103410000AC30CF30ADC120002DD010E0201026F86
:10342000010E0301036FEEDCFF0E036F046BCBDCB8
:10343000FE0E0301036F046BC6DCFD0E0301036F78
:10344000010E046FC0DCA9EC0DF00201946B899EA3
:10345000898CE36BE46BD36BD46B756B766BEB5140
:10346000040A010ED8A4000E016EEB51050A010EEC
:10347000D8A4000E006E015000122BE0020E0301D2
:10348000286F100E296F790E2A6F020E2B6F080E0F
:103490002C6FF3EC06F004000D0E0B6E2D0E0C6E6F
:1034A000D70E0D6E0D2EFED70C2EFCD70B2EFAD795
:1034B00000000000020E0301286F100E296F950E08
:1034C0002A6F020E2B6F080E2C6FF3EC06F004002F
:1034D0002FD00201EB51000A29E0010E0301286FF1
:1034E000296B820E2A6F020E2B6F080E2C6FF3ECE5
:1034F00006F004000D0E0B6E2D0E0C6ED70E0D6E29
:103500000D2EFED70C2EFCD70B2EFAD70000000094
:10351000010E0301286F296B8B0E2A6F020E2B6F91
:10352000080E2C6FF3EC06F0040002D08A8C8A8E11
:10353000100E02010D6F270E0E6F100E776F270E03
:10354000786F7FDC12000134083609360450085EBB
:103550000550D8A0053C095E003601360F0E0C6EF2
:10356000013408360936045000A006D0085E055024
:10357000D8A0053C095E05D008260550D8B0053C0A
:103580000926003601360C2EEBD700B006D00450C9
:1035900008260550D8B0053C09260000120004504A
:1035A000000A08E10550000A05E1FF0E006E7F0EDB
:1035B000016E57D00D6A096A086A01500010D8B42C
:1035C000000C015005180A6E0ABE0D1E0B6A05AEEE
:1035D00005D0041E051E042AD8B4052A01AE05D064
:1035E000001E011E002AD8B4012A015005100A6EDF
:1035F0000ABE10D0A8DF0BB020D00DAE000C001E0C
:10360000011E002AD8B4012A081E091E082AD8B4AF
:10361000092A000C05AE0DD001BE07D00150096E7D
:103620000050086E016A006AE8D7016A006A002A41
:10363000000C011E001E0B2ADDD7082AD8B4092A67
:103640000450085CD8A4D9D70550095CD8A4D5D7B4
:10365000096A086A002AD8B4012A01AECED7000050
:10366000FF0C120076EC14F00101F851640A11E02D
:10367000F82B800E0201D219006E800ED419005C66
:1036800002E1D351D15D04E2D3C2D1F2D4C2D2F26D
:103690000FD00101F86BD1C20BF3D2C20CF3E3C21D
:1036A0000DF3E4C20EF32CEC10F00201D16BD26BDF
:1036B0000201800ED419026E800EE819025C02E14C
:1036C000E751D35D010ED8B0000E026E800EE619F0
:1036D000016E800ED419015C02E1D351E55D010E4B
:1036E000D8B0000E016E800E006E800EE619005CF0
:1036F00002E1E5510008010ED8B0000E006E015045
:1037000000160250001253E0040076EC14F00101A0
:10371000F851640A11E0F82B800E0201D219006EF4
:10372000800ED419005C02E1D351D15D04E2D3C212
:10373000D1F2D4C2D2F20FD00101F86BD1C20BF397
:10374000D2C20CF3E3C20DF3E4C20EF32CEC10F082
:103750000201D16BD26B810E0301216F0F0E226F1C
:10376000236B050E246F010E256F3CEC08F0005210
:1037700003E0010E0201066F02010651010A010E6B
:10378000D8A4000E0301006F810E216F0F0E226F6F
:10379000236B050E246F256B3CEC08F000510016DE
:1037A00005E03ADE0201E36BE46B01D081D7120041
:1037B000030E0201FF6F056B03010B6BADEC0FF005
:1037C000FFC204F24FDF000E0201E41902E1000E15
:1037D000E31901E18AD0140E046E000E056EE3C2F7
:1037E00000F0E4C201F0DBDE00500201E32503013A
:1037F000016F01500201E4210301026FFFC2FEF2DA
:103800000201FE511F08D8A06CD0FE510103F3CF76
:103810000BF3ADEC0FF026DF000E0201E41902E11C
:10382000000EE31901E161D0800EE419006E800EF4
:1038300003010219005C03E101510201E35D4FE263
:10384000140E046E000E056EE3C200F0E4C201F037
:10385000A6DE00500201E3250301016F01500201C1
:10386000E4210301026F0201FE510103F3CF05F2CF
:10387000FFC204F2800EE419006E800E005C02E1CB
:10388000780EE35D01E22DD0FF51FE25026E02C0ED
:10389000FEF20051000A010ED8A4000E016E025083
:1038A000090A010ED8A4000E006E0150001603E0B4
:1038B000080EFE6F13D00051000A010ED8A4000EAE
:1038C000016EFE51110A010ED8A4000E006E0150C7
:1038D000001604E0100EFE6F040EFF6F01D001D041
:1038E0008FD705C20BF3ADEC0FF01200030E0201EF
:1038F000FD6FF96BFDC24EF0030EFA6F140E046EED
:10390000000E056EE3C200F0E4C201F048DE005094
:103910000201E325FB6F0150E421FC6FF86BF851C5
:103920001F08D8A06BD0F8511F03F3CF0BF3D8ECCE
:103930000FF03EDF97DE000E0201E41902E1000EF7
:10394000E31901E171D0800EE419006E800EFC19BC
:10395000005C02E1FB51E35D4FE2140E046E000EC9
:10396000056EE3C200F0E4C201F019DE005002016E
:10397000E325FB6F0150E421FC6FF8511F03F3CFE7
:1039800003F205C2F9F2FDC24EF004C2FAF2800E53
:10399000E419006E800E005C02E1780EE35D01E246
:1039A0002DD0FD51F825026E02C0F8F22950000A10
:1039B000010ED8A4000E016E0250090A010ED8A40F
:1039C000000E006E0150001603E0080EF86F13D0D1
:1039D0002950000A010ED8A4000E016EF851110AF8
:1039E000010ED8A4000E006E0150001604E0100E67
:1039F000F86F040EFD6F01D001D091D7F9C205F226
:103A000003C20BF3D8EC0FF005C20BF3ADEC0FF0D3
:103A1000FAC204F2340E0C6EF10E0D6E0D2EFED7AE
:103A20000C2EFCD70000000012000201045101031B
:103A3000F3CF00F000C0F8F200500525046E04C07A
:103A4000FAF2050E026E01C200F0000E016E025085
:103A500005E0003600900136FF0FFAD7010E005C3A
:103A6000026E000E0158036E800E0318006E800E69
:103A7000005C02E10450025C0BE2050E006E01C224
:103A8000FAF2005004E0FA37FA91FF0FFBD7FA0779
:103A90000551F85D04E2F851055DFB6F01D0FB6B49
:103AA000FBC205F2FBC20BF3ADEC0FF0DBDD000E49
:103AB0000201E41902E1000EE31901E166D0E3C25C
:103AC000FCF2E4C2FDF20151FB25F96FF951FA5DF8
:103AD00058E3F9C20BF3ADEC0FF0C4DD000E0201A8
:103AE000E41902E1000EE31901E14FD0800EE41960
:103AF000006E800EFD19005C02E1FC51E35D0BE3FA
:103B0000340E0C6EF10E0D6E0D2EFED70C2EFCD762
:103B100000000000A7DD800E0201E419006E800E97
:103B2000FD19005C02E1FC51E35D0BE3340E0C6E09
:103B3000F10E0D6E0D2EFED70C2EFCD700000000EE
:103B400091DD800E0201E419006E800EFD19005C0B
:103B500002E1FC51E35D11E2E3C2FCF2E4C2FDF2DA
:103B6000F9C205F2800EE419006E800E005C02E1DD
:103B7000780EE35D01E205D001D003D00151F927B1
:103B8000A5D705C20BF3ADEC0FF012004E500201A9
:103B90001F03F3CF00F000C0F8F200500325046EBD
:103BA00004C0FAF2050E026E1FC200F0000E016E94
:103BB000025005E0003600900136FF0FFAD7010EE3
:103BC000005C026E000E0158036E800E0318006E3A
:103BD000800E005C02E10450025C0BE2050E006EF8
:103BE0001FC2FAF2005004E0FA37FA91FF0FFBD738
:103BF000FA070351F85D04E2F851035DFB6F01D051
:103C0000FB6BFBC203F2FBC20BF3D8EC0FF02ADD17
:103C1000000E0201E41902E1000EE31901E166D091
:103C2000E3C2FCF2E4C2FDF21F51FB25F96FF9512A
:103C3000FA5D58E3F9C20BF3D8EC0FF013DD000E78
:103C40000201E41902E1000EE31901E14FD0800EF8
:103C5000E419006E800EFD19005C02E1FC51E35D89
:103C60000BE3340E0C6EF10E0D6E0D2EFED70C2EE6
:103C7000FCD700000000F6DC800E0201E419006EA3
:103C8000800EFD19005C02E1FC51E35D0BE3340E94
:103C90000C6EF10E0D6E0D2EFED70C2EFCD7000013
:103CA0000000E0DC800E0201E419006E800EFD19B8
:103CB000005C02E1FC51E35D11E2E3C2FCF2E4C20C
:103CC000FDF2F9C203F2800EE419006E800E005C72
:103CD00002E1780EE35D01E205D001D003D01F516F
:103CE000F927A5D703C20BF3D8EC0FF01200E3C2FB
:103CF000F2F2E4C2F3F2FADD000E0201E41902E18D
:103D0000000EE31903E10FEC17F00BD1ABDC800ED2
:103D10000201E419006E800E005C02E1780EE35DA2
:103D200001E2FFD033DF000E0201E41902E1000ED0
:103D3000E31903E10FEC17F0F4D094DC800E0201DC
:103D4000E419006E800E005C02E1780EE35D01E292
:103D5000E8D06BDE000E0201E41902E1000EE31967
:103D600003E10FEC17F0DDD07DDC800E0201E419D9
:103D7000006E800E005C02E1780EE35D01E2D1D0BE
:103D8000800EE419016E800E015C02E1C80EE35D55
:103D9000010ED8B0000E016E800EE419006E800E88
:103DA000F319005C02E1F251E35D010ED8B0000EA0
:103DB000006E00500114036EE351F25D016EE45198
:103DC000F359026E800E006E800E0218005C02E154
:103DD00001506408010ED8B0000E006E03500016AA
:103DE00001E09FD0E3C2F2F2E4C2F3F203C2F4F2C4
:103DF000000EF56F05C2F6F2000EF76F0251010AD0
:103E000002E1026B02D0010E026F0FEC17F002C24A
:103E100003F302EC17F0020E0B6E040E0C6EBA0EDA
:103E20000D6E0D2EFED70C2EFCD70B2EFAD70000F0
:103E300019DC800E0201E419006E800E005C02E1C4
:103E4000780EE35D01E26DD051DD000E0201E41950
:103E500002E1000EE31903E10FEC17F062D002DC7F
:103E6000800E0201E419006E800E005C02E1780E03
:103E7000E35D01E256D08ADE000E0201E41902E1A0
:103E8000000EE31903E10FEC17F04BD032EC1BF0FE
:103E9000800E0201E419006E800E005C02E1780ED3
:103EA000E35D01E23ED0C1DD000E0201E41902E152
:103EB000000EE31903E10FEC17F033D032EC1BF0E6
:103EC000800E0201E419006E800E005C02E1780EA3
:103ED000E35D01E226D0800EF319006E800EE41936
:103EE000005C02E1E351F25D1BE20251010A02E1D2
:103EF000026B02D0010E026F02C203F302EC17F054
:103F0000F4C203F2F6C205F2F4C20BF3D8EC0FF0E0
:103F100005C20BF3ADEC0FF0F2C2E3F2F3C2E4F230
:103F20000400120004000101F86B0201D16BD26B96
:103F3000066B32EC1BF0E3C2A5F2E4C2A6F2800EDF
:103F40000201E419006E800E005C02E16E0EE35D7A
:103F500001E285D00FEC17F0A9EC0DF0020E0B6E0C
:103F6000040E0C6EBA0E0D6E0D2EFED70C2EFCD765
:103F70000B2EFAD7000032EC1BF0E3C2A5F2E4C22C
:103F8000A6F2800E0201E419006E800E005C02E1D0
:103F90006E0EE35D01E263D0800E016E800EA31908
:103FA000015C02E1A2516E08010ED8B0000E016E54
:103FB000800EA319006E800EE419005C02E1E3514B
:103FC000A25D010ED8B0000E006E0150001601E097
:103FD00046D08DDE000E0201E41902E1000EE31965
:103FE00003E10FEC17F03BD0800E0201E419006EE4
:103FF000800E005C02E1780EE35D01E230D0010149
:104000005051050A010ED8A4000E016E5151050A47
:10401000010ED8A4000E006E0150001601E01FD062
:104020005151050806E21FC24EF0010E02011F6F3A
:10403000ADDD800E0201E419006E800E005C02E12D
:10404000780EE35D01E20BD001015051050806E254
:1040500001C204F2010E0201016FE7DC040012004C
:104060000EEC00F0CCC241F32BEC00F00301416BED
:104070002BEC00F0AE0E0301416F2BEC00F00201BF
:10408000CB51020A010ED8A4000E016ECB51030AD7
:10409000010ED8A4000E006E01500012D8B497D0C3
:1040A000D50E0301416F2BEC00F0800E0301416F30
:1040B0002BEC00F0A80E0301416F2BEC00F03F0E3B
:1040C0000301416F2BEC00F0D30E0301416F2BEC89
:1040D00000F00201CB51020A05E1C5C241F32BEC0D
:1040E00000F007D00201C5511F0F0301416F2BECF7
:1040F00000F0400E0301416F2BEC00F08D0E030128
:10410000416F2BEC00F0140E0301416F2BEC00F01B
:10411000810E0301416F2BEC00F0B40E0301416FDF
:104120002BEC00F0D90E0301416F2BEC00F0220EB6
:104130000301416F2BEC00F0200E0301416F2BECCB
:1041400000F0020E0301416F2BEC00F0210E030181
:10415000416F2BEC00F00301416B2BEC00F07F0E64
:104160000301416F2BEC00F02E0E0301416F2BEC8D
:1041700000F00201CB51020A0BE1A00E0301416FD6
:104180002BEC00F0C00E0301416F2BEC00F00AD0C5
:10419000A10E0301416F2BEC00F0C80E0301416F2B
:1041A0002BEC00F0DA0E0301416F2BEC00F0020E55
:1041B0000301416F2BEC00F0DB0E0301416F2BEC90
:1041C00000F0400E0301416F2BEC00F08AD0D50EB9
:1041D0000301416F2BEC00F0800E0301416F2BECCB
:1041E00000F0A80E0301416F2BEC00F03F0E03011D
:1041F000416F2BEC00F0D30E0301416F2BEC00F06C
:10420000C5C241F32BEC00F0400E0301416F2BECD3
:1042100000F08D0E0301416F2BEC00F0140E030132
:10422000416F2BEC00F0810E0301416F2BEC00F08D
:10423000FF0E0301416F2BEC00F0D90E0301416F1B
:104240002BEC00F0F10E0301416F2BEC00F0200E7F
:104250000301416F2BEC00F0020E0301416F2BECC8
:1042600000F0210E0301416F2BEC00F00301416BC4
:104270002BEC00F07F0E0301416F2BEC00F02E0EB3
:104280000301416F2BEC00F00201CB51040A0BE15A
:10429000A00E0301416F2BEC00F0C00E0301416F33
:1042A0002BEC00F00AD0A10E0301416F2BEC00F0C3
:1042B000C80E0301416F2BEC00F0DA0E0301416FD1
:1042C0002BEC00F0120E0301416F2BEC00F0DB0E23
:1042D0000301416F2BEC00F0400E0301416F2BEC0A
:1042E00000F0A40E0301416F2BEC00F0A60E0301B9
:1042F000416F2BEC00F0D8EC00F0030E0B6E080EB3
:104300000C6E770E0D6E0D2EFED70C2EFCD70B2EDD
:10431000FAD70EEC00F0CCC241F32BEC00F0400ECB
:104320000301416F2BEC00F00201CB51020A010E98
:10433000D8A4000E016ECB51030A010ED8A4000EC2
:10434000006E015000121AE0F16BF151030815E301
:10435000F1C23CF303013D6B62EC00F00201F06B33
:104360000201800EF05D06E2F02B0301416B2BECA5
:1043700000F0F6D70201F12BE8D719D0F16BF1511B
:10438000070815E3F1C23CF303013D6B62EC00F05A
:104390000201F06B0201800EF05D06E2F02B0301DA
:1043A000416B2BEC00F0F6D70201F12BE8D7D8ECEB
:1043B00000F0AF0E0301286F6EEC07F0120004004E
:1043C0000201EB51040A010ED8A4000E016EEB515C
:1043D000050A010ED8A4000E006E01500012D8B4D8
:1043E000D1D05250000AD8A485D00301286B160EF4
:1043F000296F1F0E2A6F010E2B6F070E2C6FF3EC27
:1044000006F0020E0301286F060E296F150E2A6FA3
:10441000010E2B6F090E2C6FF3EC06F0040E030156
:10442000286F100E296F0C0E2A6F010E2B6F080ECD
:104430002C6FF3EC06F0060E0301286F040E296FB3
:10444000270E2A6F010E2B6F0A0E2C6FF3EC06F06D
:1044500004000D0E0B6E2D0E0C6ED70E0D6E0D2E74
:10446000FED70C2EFCD70B2EFAD70000000004005C
:104470000B0E0B6E260E0C6E5D0E0D6E0D2EFED706
:104480000C2EFCD70B2EFAD700000000040003010D
:10449000286B100E296F460E2A6F010E2B6F080E27
:1044A0002C6FF3EC06F0020E0301286F040E296F47
:1044B0003B0E2A6F010E2B6F0A0E2C6FF3EC06F0E9
:1044C000040E0301286F100E296F320E2A6F010EA1
:1044D0002B6F080E2C6FF3EC06F0060E0301286F0D
:1044E000040E296F700E2A6F010E2B6F0A0E2C6FAF
:1044F000F3EC06F0040E0B6E0C0E0C6E330E0D6E0C
:104500000D2EFED70C2EFCD70B2EFAD70000000084
:1045100002019F51010A0DE10301286B100E296F62
:10452000C90E2A6F010E2B6F080E2C6FF3EC06F0EC
:104530000CD00301286B100E296FC00E2A6F010EDC
:104540002B6F080E2C6FF3EC06F0020E0301286FA0
:10455000100E296FB70E2A6F010E2B6F080E2C6FED
:10456000F3EC06F0020116530CE00301286B700E09
:10457000296FD20E2A6F010E2B6F010E2C6FF3ECF8
:1045800006F0D4D00201EB51000AD8B4CFD052507B
:10459000000AD8A487D00301286B040E296FE70E08
:1045A0002A6F010E2B6F070E2C6FF3EC06F0010E35
:1045B0000301286F030E296FDD0E2A6F010E2B6F8A
:1045C000090E2C6FF3EC06F004000F0E0B6E350E87
:1045D0000C6E510E0D6E0D2EFED70C2EFCD70B2E31
:1045E000FAD704000B0E0B6E260E0C6E5D0E0D6ED0
:1045F0000D2EFED70C2EFCD70B2EFAD70000000094
:1046000004000301286B040E296FD40E2A6F010EDB
:104610002B6F080E2C6FF3EC06F0010E0301286FD0
:10462000030E296F8F0E2A6F010E2B6F0A0E2C6F4F
:10463000F3EC06F004000D0E0B6E2D0E0C6ED70E73
:104640000D6E0D2EFED70C2EFCD70B2EFAD70000C8
:10465000000004000B0E0B6E260E0C6E5D0E0D6E30
:104660000D2EFED70C2EFCD70B2EFAD70000000023
:1046700004000301286B040E296F860E2A6F010EB9
:104680002B6F080E2C6FF3EC06F0010E0301286F60
:10469000030E296F7B0E2A6F010E2B6F0A0E2C6FF3
:1046A000F3EC06F0040E0B6E0C0E0C6E330E0D6E5A
:1046B0000D2EFED70C2EFCD70B2EFAD700000000D3
:1046C00002019F51010A0CE10301286B296B9A0E2C
:1046D0002A6F010E2B6F080E2C6FF3EC06F00BD037
:1046E0000301286B296BAE0E2A6F010E2B6F080E8B
:1046F0002C6FF3EC06F0010E0301286F296BA50E59
:104700002A6F010E2B6F080E2C6FF3EC06F00201DE
:1047100016530CE00301286B080E296FA30E2A6FB5
:10472000010E2B6F010E2C6FF3EC06F00400FF0E50
:104730000001CA6FFF0EE96FA9EC0DF01200A69CF4
:10474000F0C2A9FFA69EA680A8CF00F01200F0C27A
:1047500000F00032009E0032009E0032009E0032C7
:10476000009E0A0E0002F3CF01F00F0E0201F015B9
:10477000006E01500026120004000201EB51040AF1
:10478000010ED8A4000E016EEB51050A010ED8A44B
:10479000000E006E015000120EE0020E0301286FA1
:1047A000400E296F610E2A6F010E2B6F040E2C6FC5
:1047B000F3EC06F014D00201EB51000A0EE0010EFA
:1047C0000301286F040E296F5C0E2A6F010E2B6FF8
:1047D000040E2C6FF3EC06F002D08A8C8A8E92ECD9
:1047E0001FF00201EB51000A1AE1800E006E800EEC
:1047F000E419005C02E1E351960803E38A9C8A8E87
:104800000ED0800E006E800EE419005C02E1E351D0
:10481000FA0803E3819C819E02D0818C819EFF0E69
:104820000301036F05C204F3E3EC16F0FE0E03016F
:10483000036F03C204F3E3EC16F0FD0E0301036FF4
:1048400002C204F3E3EC16F0100E02010D6F270E06
:104850000E6F100E776F270E786F21EC17F0E3C202
:1048600075F2E4C276F2899E898C04001200400E33
:104870000201C66F100EC76F280EC86F030EC96FF6
:10488000C26A01010A1D006E0050C116070EC01257
:10489000C08EC28012000900F5CFE6FF0006FBE1E2
:1048A0000106F9E11200070EB46E600ED36E9B8C08
:1048B000806A816A826A400E896E8A6A8B6A030EF8
:1048C000926E070E936E946AD2DF0D0EC16EF19E4A
:1048D000F29E12000400010E0201F06F30DF00C0F2
:1048E000EBF2020EF06F2BDF0050010A02E1010E25
:1048F000166F030EF06F23DF00C0F0F228DF00C058
:10490000E9F2000EEA6F040EF06F19DF00C0F0F25A
:104910001EDF0A0E0002F3CFECF2F4CFEDF2050E2B
:10492000F06F0DDF00C0F0F212DF0A0E0002F3CFCD
:10493000E7F2F4CFE8F2060EF06F01DF00C0F0F20C
:1049400006DF0A0E0002F3CFE5F2F4CFE6F2090E1D
:10495000F06FF5DE00C0F0F2FADE0A0E0002F3CFCF
:10496000A2F2F4CFA3F20A0EF06FE9DE00C051F11B
:104970000B0EF06FE4DE00C029F00C0EF06FDFDEEE
:1049800000C050F10D0EF06FDADE00C000F20E0E26
:10499000F06FD5DE00C09EF20F0EF06FD0DE00C0CB
:1049A0000CF20400100EF06FCADE00C0F0F2CFDE91
:1049B000640E0002F3CFEEF2F4CFEFF2110EF06FBF
:1049C000BEDE00C0F0F2C3DE0050EE25A96F000E7F
:1049D000EF21AA6F120EF06FB2DE00C0F0F2B7DE68
:1049E000640E0002F3CFEEF2F4CFEFF2130EF06F8D
:1049F000A6DE00C0F0F2ABDE0050EE25A76F000E81
:104A0000EF21A86F140EF06F9ADE00C0F0F29FDE67
:104A1000640E0002F3CFEEF2F4CFEFF2150EF06F5A
:104A20008EDE00C0F0F293DE0050EE25AD6F000E7A
:104A3000EF21AE6F160EF06F82DE00C0F0F287DE5F
:104A4000640E0002F3CFEEF2F4CFEFF2170EF06F28
:104A500076DE00C0F0F27BDE0050EE25B36F000E74
:104A6000EF21B46F180EF06F6ADE00C0F0F26FDE57
:104A7000640E0002F3CFEEF2F4CFEFF2190EF06FF6
:104A80005EDE00C0F0F263DE0050EE25B16F000E76
:104A9000EF21B26F1A0EF06F52DE00C0F0F257DE57
:104AA000640E0002F3CFEEF2F4CFEFF21B0EF06FC4
:104AB00046DE00C0F0F24BDE0050EE25AF6F000E78
:104AC000EF21B06F1C0EF06F3ADE00C0F0F23FDE57
:104AD000640E0002F3CFEEF2F4CFEFF21D0EF06F92
:104AE0002EDE00C0F0F233DE0050EE25B56F000E72
:104AF000EF21B66F200EF06F22DE00C0F0F227DE4D
:104B0000640E0002F3CFEEF2F4CFEFF2210EF06F5D
:104B100016DE00C0F0F21BDE0050EE25BB6F000E6B
:104B2000EF21BC6F220EF06F0ADE00C0F0F20FDE44
:104B3000640E0002F3CFEEF2F4CFEFF2230EF06F2B
:104B4000FEDD00C0F0F203DE0050EE25B96F000E6E
:104B5000EF21BA6F240EF06FF2DD00C0F0F2F7DD46
:104B6000640E0002F3CFEEF2F4CFEFF2250EF06FF9
:104B7000E6DD00C0F0F2EBDD0050EE25B76F000E71
:104B8000EF21B86F260EF06FDADD00C0F0F2DFDD46
:104B9000640E0002F3CFEEF2F4CFEFF2270EF06FC7
:104BA000CEDD00C0F0F2D3DD0050EE25BD6F000E6B
:104BB000EF21BE6F280EF06FC2DD00C0F0F2C7DD3E
:104BC000640E0002F3CFEEF2F4CFEFF2290EF06F95
:104BD000B6DD00C0F0F2BBDD0050EE25C36F000E65
:104BE000EF21C46F2A0EF06FAADD00C0F0F2AFDD36
:104BF000640E0002F3CFEEF2F4CFEFF22B0EF06F63
:104C00009EDD00C0F0F2A3DD0050EE25C16F000E66
:104C1000EF21C26F2C0EF06F92DD00C0F0F297DD35
:104C2000640E0002F3CFEEF2F4CFEFF22D0EF06F30
:104C300086DD00C0F0F28BDD0050EE25BF6F000E68
:104C4000EF21C06F300EF06F7ADD00C09FF2310EA1
:104C5000F06F75DD00C0F0F27ADD00C0A0F2320E18
:104C6000F06F6DDD00C0F0F272DD00C0F9F1330EBF
:104C7000F06F65DD00C07DF0340EF06F60DD00C0C8
:104C8000F0F265DD00C0A4F204001200810E030101
:104C9000216F0F0E226F236B320E246F256B3CECBD
:104CA00008F002015851001261E05CEC0BF0F9C110
:104CB00000F074EC0BF0FCC104F0FDC105F0FEC186
:104CC00006F0FFC107F099EC04F089EC06F000C093
:104CD000FAF101C0FBF1060E0B6E130E0C6EAD0E59
:104CE0000D6E0D2EFED70C2EFCD70B2EFAD7000022
:104CF000000004005851000A010ED8A4000E016EF5
:104D000081B002D0D89001D0D880006AD8B0002AF3
:104D10000150001605E00CEC1AF00201156B26D0CC
:104D2000898E899C060E0B6E130E0C6EAD0E0D6EE9
:104D30000D2EFED70C2EFCD70B2EFAD7000000004C
:104D40001BDD0201156B810E0301216F0F0E226F17
:104D5000236B320E246F256B3CEC08F0005204E00C
:104D600021EC17F00400EFD70201586B810E03010C
:104D7000216F0F0E226F020E236F320E246F256BF0
:104D80003CEC08F00052D8B4E2D05CEC0BF0F9C176
:104D900000F074EC0BF0FCC104F0FDC105F0FEC1A5
:104DA00006F0FFC107F099EC04F089EC06F000C0B2
:104DB000FAF101C0FBF104001551000A1DE1010EDA
:104DC000156F05C20BF103C2FFF002C2FEF0056BC6
:104DD000036B010E026F03010B6BD8EC0FF005C2E1
:104DE0000BF3ADEC0FF002C203F302EC17F016C2A6
:104DF000FDF00201166B15D0156B0BC105F2FFC05B
:104E000003F2FEC002F20BC10BF3ADEC0FF003C2D4
:104E10000BF3D8EC0FF002C203F302EC17F0FDC065
:104E200016F20201EB51040A010ED8A4000E016E25
:104E3000EB51050A010ED8A4000E006E01500012BD
:104E400038E01553010ED8A4000E006E165100165E
:104E50000DE00301286B700E296F000E2A6F010E02
:104E60002B6F010E2C6FF3EC06F022D002011653CB
:104E7000010ED8A4000E006E155100160DE00301BE
:104E8000286B700E296F060E2A6F010E2B6F010E14
:104E90002C6FF3EC06F00CD00301286B700E296F19
:104EA000040E2A6F010E2B6F010E2C6FF3EC06F02F
:104EB0003BD00201EB51000A37E01553010ED8A494
:104EC000000E006E165100160DE00301286B080E4F
:104ED000296F020E2A6F010E2B6F010E2C6FF3EC5F
:104EE00006F022D002011653010ED8A4000E006E67
:104EF000155100160DE00301286B080E296FF30E03
:104F00002A6F000E2B6F010E2C6FF3EC06F00CD005
:104F10000301286B080E296FF10E2A6F000E2B6F0C
:104F2000010E2C6FF3EC06F00400810E0301216FDB
:104F30000F0E226F020E236F320E246F256B3CEC96
:104F400008F0005204E021EC17F00400EED7810EC7
:104F50000301216F0F0E226F010E236F320E246F9B
:104F6000256B3CEC08F002011551000A010ED8A493
:104F7000000E016E01500016D8B4BBD05CEC0BF0F3
:104F8000F9C100F074EC0BF0FCC104F0FDC105F0B8
:104F9000FEC106F0FFC107F099EC04F089EC06F0C1
:104FA00000C0FAF101C0FBF104001651000A03E150
:104FB000010E166F01D0166B020E0301036F16C2AD
:104FC00004F3E3EC16F00201EB51040A010ED8A43D
:104FD000000E016EEB51050A010ED8A4000E006E02
:104FE0000150001238E01553010ED8A4000E006ED7
:104FF000165100160DE00301286B700E296FEF0E9D
:105000002A6F000E2B6F010E2C6FF3EC06F022D0EE
:1050100002011653010ED8A4000E006E15510016A1
:105020000DE00301286B700E296FF50E2A6F000E3C
:105030002B6F010E2C6FF3EC06F00CD00301286BE4
:10504000700E296FFB0E2A6F000E2B6F010E2C6F56
:10505000F3EC06F03BD00201EB51000A37E01553A8
:10506000010ED8A4000E006E165100160DE00301CB
:10507000286B080E296FF90E2A6F000E2B6F010E98
:105080002C6FF3EC06F022D002011653010ED8A4C7
:10509000000E006E155100160DE00301286B080E7E
:1050A000296FF70E2A6F000E2B6F010E2C6FF3EC99
:1050B00006F00CD00301286B080E296F080E2A6F2A
:1050C000010E2B6F010E2C6FF3EC06F00400810E25
:1050D0000301216F0F0E226F010E236F320E246F1A
:1050E000256B3CEC08F0005204E021EC17F00400C2
:1050F000EED712000201CB51010806E2AE0E030109
:10510000286F6EEC07F00DD0CB51010A0AE1CE6B8F
:10511000CD6B0301326B90EC01F00301326B90EC2C
:1051200001F01200810E0301216F0F0E226F236B1D
:10513000320E246F256B3CEC08F00052D8B496D0A8
:10514000060E0B6E130E0C6EAD0E0D6E0D2EFED7F1
:105150000C2EFCD70B2EFAD700000000040081A013
:105160000FD002010251000A03E1010E026F01D0CB
:10517000026B02C203F302EC17F0A9EC0DF065D04C
:1051800002017451010A02E1746B02D0010E746FC6
:105190007451010A2DE1EB51040A010ED8A4000E4E
:1051A000016EEB51050A010ED8A4000E006E0150ED
:1051B00000120DE00301286B700E296F1B0E2A6F81
:1051C000020E2B6F010E2C6FF3EC06F010D00201D3
:1051D000EB51000A0CE00301286B080E296F190E31
:1051E0002A6F020E2B6F010E2C6FF3EC06F02DD000
:1051F0000201EB51040A010ED8A4000E016EEB511E
:10520000050A010ED8A4000E006E015000120DE038
:105210000301286B700E296F1D0E2A6F020E2B6F73
:10522000010E2C6FF3EC06F010D00201EB51000AD6
:105230000CE00301286B080E296F200E2A6F020E66
:105240002B6F010E2C6FF3EC06F0810E0301216F22
:105250000F0E226F236B320E246F256B3CEC08F08F
:10526000005204E021EC17F00400EFD7810E030197
:10527000216F0F0E226F020E236F320E246F256BEB
:105280003CEC08F000526AE0040081B467D0050EDF
:10529000026E1FC200F0000E016E025005E00036E3
:1052A00000900136FF0FFAD7010E005C026E000E6F
:1052B0000158036E800E006E800E0318005C03E13F
:1052C00002500201035D0201010ED8B0000E006E13
:1052D0007451001606E0032B03C20BF3D8EC0FF059
:1052E0002FD002017453010ED8A4000E046E050ED7
:1052F000026E1FC200F0000E016E025005E0003683
:1053000000900136FF0FFAD7010E005C026E000E0E
:105310000158036E800E006E800E0318005C03E1DE
:1053200002010250055D010ED8B0000E006E04505F
:10533000001606E00201052B05C20BF3ADEC0FF0E1
:10534000A9EC0DF021EC17F09C0E0C6ED70E0D6E33
:105350000D2EFED70C2EFCD7040097D7810E03012B
:10536000216F0F0E226F010E236F320E246F256BFB
:105370003CEC08F002011551000A010ED8A4000E01
:10538000016E0150001635E0040081B232D00201F6
:1053900003510008010ED8B0000E006E74510016C3
:1053A00006E0030703C20BF3D8EC0FF014D00201A0
:1053B0007453010ED8A4000E016E05510008010EB1
:1053C000D8B0000E006E0150001605E0050705C2BA
:1053D0000BF3ADEC0FF0A9EC0DF021EC17F09C0EE7
:1053E0000C6ED70E0D6E0D2EFED70C2EFCD70400C2
:1053F000CCD712000201F06B9FEC23F000C0CCF27E
:10540000010EF06F9FEC23F000C0CBF20050000AB9
:1054100005E1939C939E8A8C8A8E04D0938C938E04
:105420008A9C8A9E1200070E0201F06F9FEC23F007
:1054300000C0C5F2080EF06F9FEC23F000C0CAF266
:10544000CB51010803E230EC20F063D0CB51010ACC
:1054500060E1010ECE6FCD6B030E0301326F90EC55
:1054600001F01A0E0C6EF80E0D6E0D2EFED70C2EDE
:10547000FCD70000030E0301326F90EC01F0060E22
:105480000C6E300E0D6E0D2EFED70C2EFCD70000CC
:10549000030E0301326F90EC01F0020E0301326F34
:1054A00090EC01F0020E0301326F90EC01F0080E57
:1054B0000301326F90EC01F00301326B90EC01F0CC
:1054C000080E0301326F90EC01F00301326B90EC97
:1054D00001F0010E0301326F90EC01F01A0E0C6E18
:1054E000F80E0D6E0D2EFED70C2EFCD7000003011A
:1054F000326B90EC01F0060E0301326F90EC01F07C
:105500000301326B90EC01F00C0E0301326F90EC52
:1055100001F012000201EB51040A010ED8A4000EA2
:10552000016EEB51050A010ED8A4000E006E015069
:1055300000120DE00301286B0A0E296F1F0E2A6F5F
:10554000000E2B6F090E2C6FF3EC06F010D0020149
:10555000EB51000A0CE00301286B030E296F150EB6
:105560002A6F000E2B6F090E2C6FF3EC06F004006F
:105570000B0E0B6E260E0C6E5D0E0D6E0D2EFED7F5
:105580000C2EFCD70B2EFAD70000000004000B0EE7
:105590000B6E260E0C6E5D0E0D6E0D2EFED70C2EB4
:1055A000FCD70B2EFAD70000000004000B0E0B6E88
:1055B000260E0C6E5D0E0D6E0D2EFED70C2EFCD73A
:1055C0000B2EFAD70000000004000B0E0B6E260E07
:1055D0000C6E5D0E0D6E0D2EFED70C2EFCD70B2E15
:1055E000FAD70000000004000201EB51040A010E8A
:1055F000D8A4000E016EEB51050A010ED8A4000ECE
:10560000006E015000120DE00301286B0A0E296F95
:105610002A0E2A6F000E2B6F090E2C6FF3EC06F08A
:1056200010D00201EB51000A0CE00301286B030EBD
:10563000296F380E2A6F000E2B6F090E2C6FF3ECBA
:1056400006F00FEC17F0010E0201026F010E0301CC
:10565000036F02EC17F0FF0E036F05C204F3E3ECD7
:1056600016F0FE0E0301036F03C204F3E3EC16F021
:10567000FD0E0301036F02C204F3E3EC16F0020116
:10568000EB51040A010ED8A4000E016EEB51050A7D
:10569000010ED8A4000E006E015000120DE00301AF
:1056A000286B700E296F360E2A6F000E2B6F010EBD
:1056B0002C6FF3EC06F010D00201EB51000A0CE065
:1056C0000301286B080E296F340E2A6F000E2B6F12
:1056D000010E2C6FF3EC06F0010E526EDFEC21F0A0
:1056E0001200E8EC2EF0D0B603D0010E01014F6F8E
:1056F00053EC24F0030E0B6E080E0C6E770E0D6E3D
:105700000D2EFED70C2EFCD70B2EFAD704006AEC18
:1057100024F070DEEB51000A02E18A8C8A8EF9C116
:1057200000F074EC0BF0FCC104F0FDC105F0FEC10B
:1057300006F0FFC107F099EC04F089EC06F000C018
:10574000FAF101C0FBF1050E0B6E0F0E0C6EF10E9F
:105750000D6E0D2EFED70C2EFCD70B2EFAD70400A3
:1057600081B202D0048001D0049081B402D0D880EC
:1057700001D0D89004A003D002E3048001D00490AB
:1057800004A002D0010E7E6E01015151050A04E110
:10579000010E02011F6F0FD001015151060A04E1F1
:1057A000020E02011F6F07D001015151070A03E1E8
:1057B000040E02011F6F01015051050A04E1010EA0
:1057C0000201016F0FD001015051060A04E1020EDF
:1057D0000201016F07D001015051070A03E1040ED5
:1057E0000201016F20DE81B202D0048001D004905A
:1057F00081B402D0D88001D0D89004A003D002E3B5
:10580000048001D0049081B002D0D88001D0D8901B
:1058100004A003D002E3048001D0049004A049D086
:105820000201EB51010A0DE10301286B030E296F00
:10583000520E2A6F010E2B6F090E2C6FF3EC06F03F
:1058400010D00201EB51000A0CE00301286B0C0E92
:10585000296F660E2A6F010E2B6F090E2C6FF3EC69
:1058600006F0FF0E03010B6FADEC0FF002010C51BF
:10587000000A06E1FF0E03010B6FD8EC0FF004D015
:1058800003010B6BD8EC0FF0010E036F02EC17F065
:1058900004000B0E0B6E260E0C6E5D0E0D6E0D2EA3
:1058A000FED70C2EFCD70B2EFAD700000000040008
:1058B000F0D704007E50000A28E1FF0E0201F06FCD
:1058C0009FEC23F000C005F2FE0EF06F9FEC23F07A
:1058D00000C003F2FD0EF06F9FEC23F000C002F257
:1058E00003C20BF3D8EC0FF005C20BF3ADEC0FF0D5
:1058F00002C203F302EC17F001014F51010A02E169
:10590000010E526EDFEC21F001D004DEA9EC0DF0A7
:10591000040021EC17F07E50000A03E146EC26F06B
:1059200001D000DC000E0101FB1902E1000EFA19A2
:1059300005E0010EFA5F000EFB5B11D07E50000AFD
:10594000010ED8A4000E016EF951000A000ED8A471
:10595000010E006E0150001602E07AEC28F0D8D754
:10596000FFD754455354204D4F444500544553549C
:10597000204D4F44450000202020202020202020C2
:10598000006C006C002020202020202020200070AF
:105990004600433D00704600433D0000007000009B
:1059A000414E3D302E305700414E3D2020305700B3
:1059B0004546463D20203025004546463D203025C1
:1059C00000414E543D20203057000000414E543DD0
:1059D000302E305700414E543D302E305700414E4E
:1059E000543D20203057004546463D2020302500BC
:1059F000433D002020202020202020004F564552EB
:105A00004C4F4144002020202020202020004F56D1
:105A100045524C4F414400FD5357523D2020202019
:105A2000002020202020202020004C3D0075480030
:105A30004C3D00754800FD75004C3D002E002000D7
:105A40005F005F005F002E0020000000002E002E8F
:105A50000020005F00200030006279204E3744446F
:105A6000430045585420626F617264004154552DC3
:105A70003130300046572076657220322E390020B2
:105A80002020202020202000202020202020202036
:105A90002020002020202020202020000007074672
:105AA00041535420544553540054554E45005455C9
:105AB0004E45004641535420544553540020202065
:105AC00020202020202020002020202020202020F6
:105AD0002020002020202020202020004657207653
