:10000000E1EF28F00000000000EF00F00000000029
:100010000000000000000000F3D7FFFF0B840BAED0
:1000200019EF00F0010E036E026A016A006A0A36D7
:100030000232FF0E12000AAE029E000E1200026A89
:10004000016A006A086A036A000E12000201FD518B
:10005000000A32E0016A015007081CE303017ABF7D
:1000600002D0939E01D0938E060E0D6E0D2EFED7FC
:100070000000938C060E0D6E0D2EFED70000939C93
:10008000060E0D6E03010D2EFDD700007A377A9112
:10009000012AE1D7938E060E0D6E0D2EFED70000BD
:1000A000938C060E0D6E0D2EFED70000939C060E4F
:1000B0000D6E0D2EFED7000012000201FD51000A48
:1000C00018E0938C060E0D6E0D2EFED70000938E59
:1000D000060E0D6E0D2EFED70000939E060E0D6EC1
:1000E0000D2EFED70000939C060E0D6E0D2EFED732
:1000F000000012000201F45103017625796FDDDF63
:10010000FDC27AF3A3DF03017A6BA0DF030175510F
:10011000B00F7A6F9BDF030179510F0804E379C3B5
:1001200077F3786B19D079C302F00232029E023263
:10013000029E0232029E0232029E02C078F302C088
:1001400000F0003600900036009000360090003637
:1001500000900050795D776F77C37AF377DF030102
:100160007851100F7A6F72DFA8DFFDC27AF36EDF6D
:10017000400E03017A6F6ADF12000B800BAEC9EFED
:1001800000F0026A0AAEFF0E026E016E006E0A36C1
:100190000232FF0E12001D0E0D6E0D2EFED7120044
:1001A0000C6A0E6A0250D8A4E9EF00F001C002F018
:1001B00000C001F0006A0E860250D8A4E9EF00F0FA
:1001C00001C002F0016A0E960E880250D8B4FBEF0F
:1001D00000F00E50035ED8A4D8A000EF01F0D89034
:1001E00002BE05EF01F0003601360236032EF0EFB5
:1001F00000F000EF01F0010E0C6E21DF08EF01F0BE
:10020000020E0C6E0BDF08EF01F0040E0C6E13DF14
:1002100012000B820BAE13EF01F003680268016855
:1002200000680A360232FF0E12000201FD51000A78
:1002300012E0939E060E0D6E0D2EFED70000938CDD
:10024000060E0D6E0D2EFED70000938E060E0D6E5F
:100250000D2EFED700001200086A096A100E0C6EFF
:100260000134083609360450085E0550D8A0053C14
:10027000095ED8B007D0045008260550D8B0053C18
:100280000926D890003601360C2EEAD71200830ECC
:10029000C2166BC300F0003600900036009000508C
:1002A000C21279DFC282C2A201D0FDD7C4CF01F051
:1002B000006AC3500012000E011212000CB0A0EF31
:1002C00001F00CA246EF02F00E6A000E0264B7EFD6
:1002D00001F0F00E0214D8A482EF01F0023A0138C6
:1002E0000F0B02260138F00B016E00380F0B0126B0
:1002F0000038F00B006E08380F0B00260838F00BA2
:10030000086E0E84D89002BE9BEF01F008360036CE
:10031000013602360E2A02BE9BEF01F00836003687
:10032000013602360E2A02BE9BEF01F00836003677
:10033000013602360E2A0E5003643CEF02F0035ED3
:100340000BBC08AE41EF02F0D880800E086400308C
:10035000000E002201220222D8A041EF02F0023258
:1003600001320032034A46EF02F041EF02F001C0D1
:1003700002F000C001F008C000F0086A000E0E860E
:100380000264EEEF01F0F00E0214D8A4D6EF01F0F3
:10039000023A01380F0B02260138F00B016E0038CB
:1003A0000F0B01260038F00B006E0E84D89002BEB1
:1003B0009BEF01F00036013602360E2A02BE9BEF9B
:1003C00001F00036013602360E2A02BE9BEF01F024
:1003D0000036013602360E2A9BEF01F001C002F012
:1003E00000C001F0006A000E0E960E8802641BEF3A
:1003F00002F0F00E0214D8A406EF02F0023A01381F
:100400000F0B02260138F00B016E0E84D89002BE4D
:100410009BEF01F0013602360E2A02BE9BEF01F07F
:10042000013602360E2A02BE9BEF01F0013602367B
:100430000E2A9BEF01F001C002F0016A000E0E8649
:1004400002644BEF02F0F00E0214D8A42AEF02F07F
:10045000023A0E84D89002BE9BEF01F002360E2ABB
:1004600002BE9BEF01F002360E2A02BE9BEF01F0A6
:1004700002360E2A9BEF01F0010E0C6ECFDD4EEF1F
:1004800002F0020E0C6ED7DD4EEF02F0040E0C6E81
:10049000C0DE4EEF02F0080E0C6ED1DD12000B1E16
:1004A0000A1E091E081E082AD8B4092AD8B40A2A26
:1004B000D8B40B2A12000450085E0550D8A0053CA1
:1004C000095E0650D8A0063C0A5E0750D8A0073C3B
:1004D0000B5E0336070E0C6E0334083609360A36F7
:1004E0000B36045003A00ED0085E0550D8A0053C82
:1004F000095E0650D8A0063C0A5E0750D8A0073C0B
:100500000B5E0DD008260550D8B0053C09260650D4
:10051000D8B0063C0A260750D8B0073C0B26033655
:100520000C2EDAD70234083609360A360B36045058
:1005300003A00ED0085E0550D8A0053C095E065009
:10054000D8A0063C0A5E0750D8A0073C0B5E0DD031
:1005500008260550D8B0053C09260650D8B0063C00
:100560000A260750D8B0073C0B260236070E0C6E41
:100570000234083609360A360B36045002A00ED073
:10058000085E0550D8A0053C095E0650D8A0063C80
:100590000A5E0750D8A0073C0B5E0DD00826055018
:1005A000D8B0053C09260650D8B0063C0A260750AC
:1005B000D8B0073C0B2602360C2EDAD701340836A9
:1005C00009360A360B36045002A00ED0085E0550DC
:1005D000D8A0053C095E0650D8A0063C0A5E07502C
:1005E000D8A0073C0B5E0DD008260550D8B0053CBE
:1005F00009260650D8B0063C0A260750D8B0073C5A
:100600000B260136070E0C6E0134083609360A3601
:100610000B36045001A00ED0085E0550D8A0053C52
:10062000095E0650D8A0063C0A5E0750D8A0073CD9
:100630000B5E0DD008260550D8B0053C09260650A3
:10064000D8B0063C0A260750D8B0073C0B26013626
:100650000C2EDAD70034083609360A360B36045029
:1006600001A00ED0085E0550D8A0053C095E0650DA
:10067000D8A0063C0A5E0750D8A0073C0B5E0DD000
:1006800008260550D8B0053C09260650D8B0063CCF
:100690000A260750D8B0073C0B260036070E0C6E12
:1006A0000034083609360A360B36045000A00ED046
:1006B000085E0550D8A0053C095E0650D8A0063C4F
:1006C0000A5E0750D8A0073C0B5E0DD008260550E7
:1006D000D8B0053C09260650D8B0063C0A2607507B
:1006E000D8B0073C0B2600360C2EDAD700B00ED05F
:1006F000045008260550D8B0053C09260650D8B04D
:10070000063C0A260750D8B0073C0B2612000B6A9D
:100710000A6A096A00500402F4CF09F0F3CF08F026
:1007200001500502F4CF0BF0F3CF0AF000500502A0
:10073000F3500926F4500A22E86A0B220150040201
:10074000F3500926F4500A22E86A0B2208C000F090
:1007500009C001F00AC002F00BC003F012000B6ADE
:100760000350D8B4F5EF03F002500A6E028E8E0EDD
:10077000035E03AEF9EF03F0036C080E035CD8A030
:10078000D4EF03F0036E013602C001F0026A080ED6
:10079000035CD8A0D4EF03F0036E0136016A035066
:1007A000D8A4D890DEEF03F00350D8B4DEEF03F006
:1007B000D89002320132032ED8EF03F00BBC01A017
:1007C000EBEF03F0D8A0EBEF03F0012AD8B4022A34
:1007D00002BE08EF04F00AAE0DEF04F0021E011E87
:1007E000012AD8B4022A0DEF04F0026A016A0DEF63
:1007F00004F00B800BAE11EF04F0026A0AAE11EFA9
:1008000004F0FF0E026E016E0A36023211EF04F0A0
:10081000010E0C6EB2DC13EF04F0000E0C6E13EF41
:1008200004F0FF0E0C6E0150006E0250016E1200BB
:100830000050086E0150006E016A026A036A0B6A7A
:100840000C6A960E036E0A6A00C001F008C000F040
:10085000086A026AA5DC1200086A096A000E0762CB
:100860000364B1EF04F0025006180A6E0750032625
:100870007E0ED8A042EF04F0035ED8B0B6EF04F0CD
:1008800046EF04F0035ED8A0BAEF04F0028E068EA5
:1008900002C00EF001C00BF000C00DF000500402C9
:1008A000F4CF0CF001500502F4CF00F0F3CF08F0C4
:1008B0000402F3500C26F4500822000E00220D50C2
:1008C0000502F3500C26F4500822000E00220250BC
:1008D0000402F3500826F450002202500502016A77
:1008E000000E0122F3500026F45001220D500602A2
:1008F000F3500826F4500022026A000E0122022260
:100900000B500602F3500026F4500122000E022282
:100910000E500602F3500126F450022202BE99EF57
:1009200004F008360036013602360306D8B4BAEFB2
:1009300004F0ACEF04F0D880800E08640030000EA4
:10094000002201220222D8A0ACEF04F002320132D0
:100950000032034AB6EF04F00AAE029E000EBDEF6D
:1009600004F0010E1FEC00F0BDEF04F0020E51DCAC
:10097000BDEF04F0040E0EEC00F012005DEC00F090
:10098000FDC27AF326EC00F0400E03017A6F26ECEC
:1009900000F06CC375F36BC376F37AEC00F00301DF
:1009A000706B6F51705DD8B0B7D070516D25E96E26
:1009B000000E6E21EA6EEE50000A02E1726B09D061
:1009C00070516D25E96E000E6E21EA6E200EEE5C10
:1009D000726F716B71510408D8A094D0050E720328
:1009E000F3CF00F0F4CF01F071510026000E012288
:1009F000110E0024F66E570E0120F76E000EF86EF1
:100A0000000E01BEFF0EF8220900F5CF73F36C5102
:100A1000020A000ED8A4010E016E6C51040A000EE9
:100A2000D8A4010E006E005001166C51060A000E8B
:100A3000D8A4010E006E0150001629E073B702D051
:100A4000749F01D0748F73B702D0749D01D0748DE0
:100A500073B502D0749B01D0748B73B502D07499B6
:100A600001D0748973B302D0749701D0748773B3C3
:100A700002D0749501D0748573B102D0749301D003
:100A8000748373B102D0749101D0748120D073B596
:100A900002D0749F01D0748F73B502D0749D01D0C1
:100AA000748D73B302D0749B01D0748B73B302D076
:100AB000749901D0748973B102D0749701D074878E
:100AC00073B102D0749501D074857493749174C31A
:100AD0007AF326EC00F00201F351040A010ED8A4C7
:100AE000000E016EF351050A010ED8A4000E006E2F
:100AF0000150001204E074C37AF326EC00F0030105
:100B0000712B68D77A6B26EC00F003017A6B26EC28
:100B100000F00301702B45D76C51010F756F6BC34B
:100B200076F37AEC00F00301706B6F51705DD8B012
:100B3000BFD070516D25E96E000E6E21EA6EEE5049
:100B4000000A02E1726B09D070516D25E96E000E4A
:100B50006E21EA6E200EEE5C726F716B71510408AB
:100B6000D8A09CD0050E7203F3CF00F0F4CF01F0B3
:100B700071510026000E0122110E0024F66E570E50
:100B80000120F76E000EF86E000E01BEFF0EF82277
:100B90000900F5CF73F36C51020A000ED8A4010EC0
:100BA000016E6C51040A000ED8A4010E006E0050B4
:100BB00001166C51060A000ED8A4010E006E0150F9
:100BC000001629E073BF02D0749F01D0748F73BFE9
:100BD00002D0749D01D0748D73BD02D0749B01D07E
:100BE000748B73BD02D0749901D0748973BB02D029
:100BF000749701D0748773BB02D0749501D074854B
:100C000073B902D0749301D0748373B902D0749114
:100C100001D0748128D073BD02D0749F01D0748F2D
:100C200073BD02D0749D01D0748D73BB02D0749BD0
:100C300001D0748B73BB02D0749901D0748973B9DD
:100C400002D0749701D0748773B902D0749501D023
:100C5000748573B702D0749301D0748373B702D0D4
:100C6000749101D0748174C37AF326EC00F0020110
:100C7000F351040A010ED8A4000E016EF351050AC7
:100C8000010ED8A4000E006E0150001204E074C3DF
:100C90007AF326EC00F00301712B60D77A6B26EC17
:100CA00000F003017A6B26EC00F00301702B3DD7B6
:100CB00015EC01F01200220E0C6E086A096A0A6A2D
:100CC0000B6A0C06D8B41FD0D8900B320A32093206
:100CD00008320332023201320032D8A0F2D70C06B9
:100CE000D8B409D0045008260550092206500A221B
:100CF00007500B22EAD70450082605500922065057
:100D00000A2207500B22120003016C6B0201FB6BDD
:100D1000010EFA6F6BC36CF303016C376C916C3787
:100D20006C916C376C916C376C910201F95303E054
:100D3000080E03016C270201FA5303E0040E0301BD
:100D40006C270201FB5303E0020E03016C27020132
:100D5000FC5302E003016C2B5DEC00F0FDC27AF362
:100D600026EC00F06CC37AF326EC00F015EC01F0F1
:100D7000060E0C6E300E0D6E0D2EFED70C2EFCD70F
:100D80000000040E03016C5F5DEC00F0FDC27AF31D
:100D900026EC00F06CC37AF326EC00F015EC01F0C1
:100DA000060E0C6E300E0D6E0D2EFED70C2EFCD7DF
:100DB0000000120003016F6B050E6F5D0AE26F51B8
:100DC0006D25E16E000E6E21E26E200EE66E6F2B39
:100DD000F3D76F516D25E16E000E6E21E26EE66A6B
:100DE0006F076F516D25706F000E6E21716F0A0EC7
:100DF000046E000E056E6BC300F06CC301F02CECAA
:100E000001F008C000F009C001F0300E002670C3E8
:100E1000E1FF71C3E2FF00C0E6FF0A0E046E000EA0
:100E2000056E6BC300F06CC301F02CEC01F000C048
:100E30006BF301C06CF3000E011802E1000E001804
:100E400001E102D06F07CDD712000B6A0B86FF0EAF
:100E50001200030E0C6E950E0D6E0D2EFED70C2E8D
:100E6000FCD7120003016B6B47EC01F0E1DC890E4B
:100E7000046E410E056E1C0E066E810E076EECDCD4
:100E80006EDC1200A00E0301636F0F0E646F000E84
:100E9000656F666FA00E006E0F0E016E000E026E83
:100EA000000E036E61C304F062C305F0000E066E0F
:100EB000076E01DF00C063F301C064F302C065F395
:100EC00003C066F3000E035C08E1000E025C05E15E
:100ED000020E015C02E1940E005C01E231D0940E3E
:100EE000635F020E645B000E655B665B050E006E61
:100EF000005007E06633653364336333669FFF0F4A
:100F0000F8D763C300F064C301F065C302F066C3A1
:100F100003F0010E635F000E645B655B665B00506F
:100F20000110021003100CE000000000000000009F
:100F30000000000000000000000000000000E1D7F9
:100F400012000301676B63C301F0010E006E0150D4
:100F500004E000360090FF0FFBD700C066F361C3CA
:100F6000E9FF62C3EAFF0050EE14016E0152010E68
:100F7000D8A4000E006E6551001A18E064510008F4
:100F800004E267DF66DF6407F9D761C3E9FF62C384
:100F9000EAFF6651EE14016E0152010ED8A4000E54
:100FA000006E6551001A02E0FF0E676F67C300F024
:100FB00012000450000A12E10550000A0FE1065029
:100FC000000A0CE10750000A09E1FF0E006EFF0E57
:100FD000016E7F0E026EFF0E036EA7D0086A096ACB
:100FE0000750D8B484EF08F00350D8B488EF08F065
:100FF000025006180A6E028E068E0E6A02C008F0B3
:1010000001C00CF000C00DF004500D5E0550D8A0DA
:10101000053C0C5E0650D8A0063C085E086A0C6AC7
:101020000D6AD8A01BEF08F0D890023201320032CE
:101030000832010E0E6E0750035ED8A028EF08F0AC
:101040007E0E0E240326D8B08DEF08F02EEF08F0A8
:101050007E0E0E240326D8A092EF08F0180E0B6E19
:101060000D360C3608360036013602360E36045080
:10107000005E0550D8A0053C015E0650D8A0063C95
:10108000025E06340E120EA049EF08F00D8054EFF8
:1010900008F0045000260550D8B0053C0126065043
:1010A000D8B0062802260D900B2E30EF08F07AEF0C
:1010B00008F0D8900036013602360E360450005E35
:1010C0000550D8A0053C015E0650D8A0063C025E43
:1010D00006340E10010B0D26D8B00C2AD8B4082AFD
:1010E000D8A47AEF08F008320C320D32032AD8B4B3
:1010F0008DEF08F00AAE089E0850026E0C50016E8B
:101100000D50006E95EF08F0010E9FDE95EF08F090
:10111000020E1FEC00F095EF08F0040E09EC01F050
:1011200095EF08F0080E0EEC00F012000201F351EA
:10113000040A010ED8A4000E016EF351050A010E37
:10114000D8A4000E006E015000120CE062C36BF3D5
:1011500061C36CF363C36DF364C36EF365C36FF374
:101160000DDC59D0F351020A010ED8A4000E016E15
:10117000F351030A010ED8A4000E006E01500012B4
:1011800014E0070E03016203F3CF6BF3040E6B2729
:1011900061C36CF36C376C9163C36DF364C36EF31E
:1011A00065C36FF3BEEC04F036D0FC6B61C300F096
:1011B00000360090003600900050080F03016B6F5E
:1011C000A3DD62C36BF3A0DD010EFC6F0301666B50
:1011D0006551665D20E266516325E96E000E64216B
:1011E000EA6EEECF01F001C06BF36B336B9F6B3394
:1011F0006B9F6B336B9F6B336B9F86DD0301665177
:101200006325E96E000E6421EA6EEECF6BF37CDDA0
:101210000301662BDDD712000050086E0150006EEE
:101220000250016E0350026E036A0B6A0C6A9E0E36
:10123000036E0A6A02AE29EF09F0081E001E011EA5
:10124000021E082AD8B4002AD8B4012AD8B4022A27
:101250000A8E020E0C6E5EEC01F012000450000AC1
:1012600012E10550000A0FE10650000A0CE1075098
:10127000000A09E1FF0E006EFF0E016EFF0E026E06
:101280007F0E036E99D00C6A07BE0C2A0D6A0B6A9A
:101290000A6A096A086A0350021001100010D8B4E3
:1012A00085D0035007180E6E0EBE0D1E07AE0BD074
:1012B000041E051E061E071E042AD8B4052AD8B42B
:1012C000062AD8B4072A03AE0BD0001E011E021E48
:1012D000031E002AD8B4012AD8B4022AD8B4032A9B
:1012E000035007100E6E0EBE1DD05BEC02F00CBE5C
:1012F00036D00DAE5BD0001E011E021E031E002A5A
:10130000D8B4012AD8B4022AD8B4032A081E091E68
:101310000A1E0B1E082AD8B4092AD8B40A2AD8B43F
:101320000B2A44D007AE15D003BE0DD003500B6E70
:1013300002500A6E0150096E0050086E036A026A7C
:10134000016A006AD6D7036A026A016A006A002A43
:10135000000C031E021E011E001E0C8EC6D7082A9A
:10136000D8B4092AD8B40A2AD8B40B2A0450085C85
:10137000D8A4BFD70550095CD8A4BBD706500A5CD7
:10138000D8A4B7D707500B5CD8A4B3D70B6A0A6AA6
:10139000096A086A002AD8B4012AD8B4022AD8B443
:1013A000032A03AEA6D70E6A0E88FF0C0E6A0CA0A5
:1013B00002D04FEC02F0000F12000301676B686B64
:1013C00061C369F362C36AF3800E6219006E800E16
:1013D000005C02E1000E615D0BE2010E676F000E22
:1013E000686F61510008696F62C36AF3000E6A5743
:1013F00069C36BF36AC36CF363C36DF364C36EF3C9
:10140000D9DC060E656F000E666F000E006E665129
:10141000005C02E16551000819E265516325E16E47
:1014200066516421E26E010E655D006E000E665924
:10143000016E00506325E96E01506421EA6EEECF23
:10144000E6FF010E655F000E665BDFD763C3E1FF59
:1014500064C3E2FF200EE66E675168111AE0656B07
:10146000666B65516325E96E66516421EA6EEE5044
:10147000200A03E1654B662BF4D7010E655F000E71
:10148000665B65516325E16E66516421E26E2D0E47
:10149000E66E120061C300F062C301F0030E046E39
:1014A000000E056E87EC03F000C061F301C062F32B
:1014B000800E026E800E0118025C02E1005050089E
:1014C00003E3006A016ABCD0800E006E800E030147
:1014D0006219005C02E16151AB0805E3F40E61277B
:1014E000000E6223A9D0800E010A006E800E6219E0
:1014F000005C02E16151480805E3FE0E6127000E21
:1015000062239AD0800E020A006E800E6219005C7F
:1015100002E16151460805E3180E6127010E6223BE
:101520008BD0800E030A006E800E6219005C02E10F
:101530006151340805E3290E6127010E62237CD036
:10154000800E040A006E800E6219005C02E1615197
:101550004C0805E3360E6127010E62236DD0800E24
:10156000080A006E800E6219005C02E16151850874
:1015700005E3AE0E6127010E62235ED0800E0C0AD9
:10158000006E800E6219005C02E16151FA0805E309
:10159000E40E6127010E62234FD0800E120A006E06
:1015A000800E6219005C02E161510F0805E3120E22
:1015B0006127020E622340D0800E160A006E800E54
:1015C0006219005C02E16151E60805E3880E6127BB
:1015D000020E622331D0800E1B0A006E800E62194B
:1015E000005C02E16151EA0805E3E70E6127020EA3
:1015F000622322D0800E210A006E800E6219005CE8
:1016000002E16151360805E3200E6127030E6223D3
:1016100013D0800E290A006E800E6219005C02E170
:101620006151040805E3480E6127030E622304D0CC
:101630005C0E6127030E622361C300F062C301F0F8
:101640001200010E03016B6F47EC01F018EC04F07F
:10165000890E046E410E056E1C0E066E810E076E1D
:101660002CEC04F0AFEC03F0120000C008F00150C5
:10167000006E016A026A036A0B6A0C6A016A026AF6
:10168000036A960E036E0A6A00AE4DEF0BF0081E59
:10169000001E082AD8B4002A0A8E00C001F008C033
:1016A00000F0086A026AD0EC00F01200025006183E
:1016B0000E6E086A096A0B6A0350076449EF0CF062
:1016C00006500A6E068E028E03500B6E0750036E94
:1016D000000E0B6499EF0BF00B50075ED8B43AEF95
:1016E0000CF0070E076408EF0CF0075E00C008F06E
:1016F00001C000F002C001F0026A074E3AEF0CF0A0
:101700000764DDEF0BF0075E00C008F001C000F0D9
:10171000016A074E3AEF0CF00764BBEF0BF0075E6F
:1017200000C008F0006A074E3AEF0CF00764A2EF21
:101730000BF00AC002F005C001F004C000F0086A16
:1017400066EF0DF0030E0764ADEF0BF0075E08388F
:101750000F0B086E074E3AEF0CF0D8900832074E88
:101760003AEF0CF0D8900832074E3AEF0CF0D890D0
:1017700008323AEF0CF0030E0764CCEF0BF0075E73
:1017800008380F0B086E0038F00B082600380F0BD6
:10179000006E074E3AEF0CF0D89000320832074E38
:1017A0003AEF0CF0D89000320832074E3AEF0CF0C6
:1017B000D890003208323AEF0CF0030E0764F4EFD1
:1017C0000BF0075E08380F0B086E0038F00B082688
:1017D00000380F0B006E0138F00B002601380F0B9C
:1017E000016E074E3AEF0CF0D89001320032083209
:1017F000074E3AEF0CF0D890013200320832074E13
:101800003AEF0CF0D8900132003208323AEF0CF087
:10181000030E076425EF0CF0075E08380F0B086E07
:101820000038F00B082600380F0B006E0138F00B63
:10183000002601380F0B016E0238F00B012602382A
:101840000F0B026E074E3AEF0CF0D89002320132C5
:1018500000320832074E3AEF0CF0D89002320132D3
:1018600000320832074E3AEF0CF0D89002320132C3
:1018700000320832096A000E0EAE2EEF0DF0081E7F
:10188000001E011E021E082A0022012202222EEF43
:101890000DF00750D8A44FEF0CF066EF0DF0096A79
:1018A00002C00AF0028E068E0750035C076ED8B4A1
:1018B00021EF0DF0070E0764EFEF0CF0075E045008
:1018C000096E0550046E0650056E066A074E21EF3C
:1018D0000DF0070E0764C4EF0CF0075E0450096EAC
:1018E0000550046E056A074E21EF0DF0070E0764E0
:1018F000A2EF0CF0075E0450096E046A074E21EF58
:101900000DF0070E076489EF0CF00AC002F066EFD5
:101910000DF0030E076494EF0CF0075E09380F0B0F
:10192000096E074E21EF0DF0D8900932074E21EFD6
:101930000DF0D8900932074E21EF0DF0D890093202
:1019400021EF0DF0030E0764B3EF0CF0075E0938CA
:101950000F0B096E0438F00B092604380F0B046EC8
:10196000074E21EF0DF0D89004320932074E21EFD7
:101970000DF0D89004320932074E21EF0DF0D890C7
:101980000432093221EF0DF0030E0764DBEF0CF097
:10199000075E09380F0B096E0438F00B092604386E
:1019A0000F0B046E0538F00B042605380F0B056E7F
:1019B000074E21EF0DF0D890053204320932074E60
:1019C00021EF0DF0D890053204320932074E21EF95
:1019D0000DF0D89005320432093221EF0DF0030EDC
:1019E00007640CEF0DF0075E09380F0B096E043821
:1019F000F00B092604380F0B046E0538F00B042693
:101A000005380F0B056E0638F00B052606380F0B50
:101A1000066E074E21EF0DF0D890063205320432E3
:101A20000932074E21EF0DF0D8900632053204320C
:101A30000932074E21EF0DF0D890063205320432FC
:101A40000932086A000E0EAE2EEF0DF0091E041EBC
:101A5000051E061E092A0422052206220950082610
:101A60000450002205500122065002220EBE45EF0E
:101A70000DF0D8A054EF0DF00232013200320832DE
:101A8000033E54EF0DF060EF0DF0D8B05AEF0DF0BB
:101A9000000E081E001E011E021E082A002201223E
:101AA00002220A7E5AEF0DF0010E0C6E5EEC01F080
:101AB00068EF0DF0020E0C6E5EEC01F068EF0DF0B9
:101AC000040E0C6E09EC01F068EF0DF0000E0C6EC8
:101AD00012000400030156510201DA1903E1D95141
:101AE00003015519D8B47DD0030155C3D9F256C3AB
:101AF000DAF2000E561902E1010E551930E10051DB
:101B0000040A010ED8A4000E016E0051050A010E50
:101B1000D8A4000E006E015000120DE0020E616F9D
:101B2000400E626FE50E636F020E646F040E656F08
:101B300096EC08F010D003010051000A0CE0010EF1
:101B4000616F040E626FEA0E636F020E646F040E23
:101B5000656F96EC08F00201D96BDA6B42D055C381
:101B6000D9F256C3DAF255C361F356C362F3080ED5
:101B70000301636F030E646F20DC0BC301F32E0EB1
:101B8000026F0CC303F30DC304F30051040A010EEA
:101B9000D8A4000E016E0051050A010ED8A4000E53
:101BA000006E015000120DE0020E616F400E626F78
:101BB000010E636F030E646F040E656F96EC08F000
:101BC00010D003010051000A0CE0010E616F040EF9
:101BD000626F010E636F030E646F040E656F96EC07
:101BE00008F0040012000201A551000A25E10301DA
:101BF00055B102D08A9601D08A8655B302D0899415
:101C000001D0898455B502D08A9801D08A8855B709
:101C100002D0899601D0898655B902D08A9A01D01E
:101C20008A8A55BB02D0899A01D0898A55BD02D0D3
:101C3000899801D0898824D0030155B102D08A86C1
:101C400001D08A9655B302D0898401D0899455B5C4
:101C500002D08A8801D08A9855B702D0898601D0EF
:101C6000899655B902D08A8A01D08A9A55BB02D08A
:101C7000898A01D0899A55BD02D0898801D0899876
:101C800013C361F314C362F342EC07F012000301C3
:101C900055B102D08B9E01D08B8E55B302D08B965E
:101CA00001D08B8655B502D08B9C01D08B8C55B75B
:101CB00002D08B9401D08B8455B902D08B9A01D07D
:101CC0008B8A55BB02D08B9201D08B8255BD02D03E
:101CD0008B9801D08B8813C361F314C362F342EC79
:101CE00007F01200810E0301616F0F0E626F636BCC
:101CF000320E646F656BA1EC07F000C055F3810EE6
:101D0000616F0F0E626F010E636F320E646F656B51
:101D1000A1EC07F000505513810E616F0F0E626F3A
:101D2000020E636F320E646F656BA1EC07F05551C4
:101D3000001203E0010E0101006F12000301565171
:101D40000201951903E1945103015519D8B4A8D0A3
:101D500055C394F256C395F202019351000A46E12D
:101D6000800E03015619006E800E005C02E1640EC5
:101D7000555D1DE3050E5525006E000E5621016EC2
:101D800000C055F301C056F300C061F301C062F317
:101D9000080E636F030E646FDDEC09F00AC301F3F4
:101DA0000BC302F30CC303F3570E046F1ED055C3CD
:101DB00061F356C362F3080E636F030E646FDDECCC
:101DC00009F00C51200A03E00CC301F302D0300EDD
:101DD000016F2E0E026F0D51200A03E00DC303F3B5
:101DE00002D0300E036F570E046F30D00301800E07
:101DF0005619006E800E030A005C02E1E70E555D85
:101E000013E255C361F356C362F3080E636F030E0A
:101E1000646FDDEC09F00BC301F30CC302F30DC3D7
:101E200003F3570E046F12D055C361F356C362F328
:101E3000080E636F030E646FDDEC09F00AC301F353
:101E40000BC302F30CC303F30DC303F30051040AE5
:101E5000010ED8A4000E016E0051050A010ED8A48F
:101E6000000E006E015000120CE0616B400E626FBC
:101E7000010E636F030E646F040E656F96EC08F03D
:101E80000FD003010051000A0BE0616B040E626F7A
:101E9000010E636F030E646F040E656F96EC08F01D
:101EA0001200040032EC07F000C055F301C056F3F5
:101EB000000E01BEFF0E0301576F586F21EC0BF0AF
:101EC00000C059F301C05AF3000E01BEFF0E03011A
:101ED0005B6F5C6F0201EF51010A11E155C361F3C1
:101EE00056C362F34AEC0AF035EC0BF000C05DF328
:101EF00001C05EF302C05FF303C060F312D055C3AC
:101F000000F056C301F057C302F058C303F00CECC5
:101F100009F000C05DF301C05EF302C05FF303C0CF
:101F200060F3800E03015C19006E800E5819005C8E
:101F300008E157515B5D05E156515A5D02E155518B
:101F4000595D08E3E70E556F030E566F000E576F8D
:101F5000586F45D059515525006E5A515621016E82
:101F60005B515721026E5C515821036E640E046E62
:101F7000000E056E066E076E5BEC06F055C304F0AE
:101F800056C305F057C306F058C307F05951045E15
:101F90005A51055A5B51065A5C51075A2EEC09F00A
:101FA00000C055F301C056F302C057F303C058F305
:101FB000800E046E800E0318045C08E102500008D5
:101FC00005E10150030802E10050E70808E2E70ECE
:101FD0000301556F030E566F000E576F586F0201C5
:101FE0009351010A65E15DC300F05EC301F05FC378
:101FF00002F060C303F0000E046E000E056E000ECA
:10200000066E840E076E2CEC04F0000E046E000EBB
:10201000056E7A0E066E880E076ED9EC07F000C0CA
:102020005DF301C05EF302C05FF303C060F3F40E22
:10203000046EFD0E056E340E066E7F0E076ED9EC33
:1020400007F000C05DF301C05EF302C05FF303C0A0
:1020500060F300C004F001C005F002C006F003C048
:1020600007F02CEC04F0000E046E000E056E480E16
:10207000066E840E076ED9EC07F000C05DF301C058
:102080005EF302C05FF303C060F3000E046E000E47
:10209000056E000E066E7E0E076E56EC0BF000C04D
:1020A0005DF301C05EF302C05FF303C060F364D070
:1020B0005DC300F05EC301F05FC302F060C303F0D4
:1020C000000E046E000E056E200E066E820E076E68
:1020D0002CEC04F0000E046E000E056E7A0E066EF7
:1020E000880E076ED9EC07F000C05DF301C05EF307
:1020F00002C05FF303C060F3F40E046EFD0E056EC4
:10210000340E066E7F0E076ED9EC07F000C05DF34B
:1021100001C05EF302C05FF303C060F300C004F0CF
:1021200001C005F002C006F003C007F02CEC04F07B
:10213000000E046E000E056E200E066E810E076EF8
:10214000D9EC07F000C05DF301C05EF302C05FF39D
:1021500003C060F3000E046E000E056E000E066EE6
:102160007E0E076E56EC0BF000C05DF301C05EF30F
:1021700002C05FF303C060F35DC300F05EC301F013
:102180005FC302F060C303F0AFEC03F000C00FF3D5
:1021900001C010F3800E0118026E800E025C02E195
:1021A0000A0E005C06E2010E0301116F000E126FB1
:1021B00019D00301800E5819006E800E005C08E1F2
:1021C000000E575D05E1000E565D02E1640E555D9F
:1021D00005E2E70E116F030E126F04D055C311F321
:1021E00056C312F31200A6A202D00000FCD7A69C90
:1021F0004FC3A9FF50C3A8FFA69EA684F2CF00F04C
:10220000F29E550EA76EAA0EA76EA68200BE02D041
:10221000F29E01D0F28EA694A1B802D00000FCD7A5
:10222000A198120003014FB102D08B9001D08B8096
:1022300013C361F314C362F342EC07F0120004000D
:102240000201A851E419000ED8A4010E016EA35199
:10225000C419000ED8A4010E006E01500012D8B4AB
:1022600000D1A8C2E4F203011F6B206B0201A8A1F8
:1022700005D003011D511F271E5120230201A8A3D1
:1022800005D0030123511F27245120230201A8A5B3
:1022900005D0030121511F27225120230201A8A7A5
:1022A00005D003011B511F271C5120230201A8A99F
:1022B00005D0030117511F27185120230201A8AB95
:1022C00005D0030115511F27165120230201A8AD87
:1022D00005D0030119511F271A51202303011FC3E1
:1022E00061F320C362F3080E636F030E646FDDECCD
:1022F00009F00A51200A03E00AC301F302D0300EAC
:10230000016F2E0E026F0B51200A03E00BC303F383
:1023100002D0300E036F0C51200A03E00CC304F30B
:1023200002D0300E046F0051040A010ED8A4000E32
:10233000016E0051050A010ED8A4000E006E015076
:1023400000122AE00201A351010A04E1040E030174
:102350004F6F03D00301060E4F6F0201A351C41942
:102360000DE04FC361F3100E0301626FA90E636F9E
:10237000020E646F080E656F96EC08F04FC361F3B0
:10238000280E0301626F010E636F030E646F040E6B
:10239000656F96EC08F065D003010051020A010E4A
:1023A000D8A4000E016E0051030A010ED8A4000E3D
:1023B000006E0150001229E00201A351010A03E15D
:1023C00003014F6B03D00301010E4F6F0201A351B4
:1023D000C4190DE04FC361F3090E0301626FB20E21
:1023E000636F020E646F080E656F96EC08F04FC3C2
:1023F00061F30B0E0301626F010E636F030E646FD6
:10240000040E656F96EC08F02CD003010051000A11
:1024100028E00201A351010A03E103014F6B03D03D
:102420000301010E4F6F0201A351C4190DE04FC308
:1024300061F3090E0301626FBC0E636F020E646FDD
:10244000070E656F96EC08F04FC361F30B0E0301A6
:10245000626F010E636F030E646F040E656F96EC7E
:1024600008F002019251BB19000ED8A4010E016EB2
:10247000A351C419000ED8A4010E006E0150001221
:10248000D8B4EED092C2BBF203011F6B206B0201E5
:1024900092A105D0030131511F273251202302019F
:1024A00092A305D003012F511F2730512023020191
:1024B00092A505D003012D511F272E512023020183
:1024C00092A705D0030127511F272851202302017D
:1024D00092A905D0030125511F272651202302016F
:1024E00092AB05D003012B511F272C512023020151
:1024F00092AD05D0030129511F272A512023030142
:102500001FC361F320C362F3080E636F030E646F91
:10251000DDEC09F00AC301F30BC302F30CC303F3B0
:102520000DC304F30051040A010ED8A4000E016E7D
:102530000051050A010ED8A4000E006E01500012D1
:102540002AE00201A351010A04E1060E03014F6FC4
:1025500003D00301040E4F6F0201A351C4190DE013
:102560004FC361F3100E0301626F140E636F010E0F
:10257000646F080E656F96EC08F04FC361F3280E88
:102580000301626F010E636F030E646F040E656FCB
:1025900096EC08F065D003010051020A010ED8A4A0
:1025A000000E016E0051030A010ED8A4000E006E49
:1025B0000150001229E00201A351010A04E1010EB9
:1025C00003014F6F02D003014F6B0201A351C419E5
:1025D0000DE04FC361F3090E0301626F0B0E636FD1
:1025E000010E646F080E656F96EC08F04FC361F33F
:1025F0000B0E0301626F010E636F030E646F040E16
:10260000656F96EC08F02CD003010051000A28E019
:102610000201A351010A04E1010E03014F6F02D030
:1026200003014F6B0201A351C4190DE04FC361F3C5
:10263000090E0301626F030E636F010E646F070ED4
:10264000656F96EC08F04FC361F30B0E0301626FE8
:10265000010E636F030E646F040E656F96EC08F055
:102660000400A3C2C4F201011D51000AD8A485D000
:1026700003010051040A010ED8A4000E016E00519E
:10268000050A010ED8A4000E006E0150001239E0B8
:1026900001012053010ED8A4000E006E2151001636
:1026A0000DE00301616B700E626F1E0E636F010E11
:1026B000646F010E656F96EC08F022D00101215382
:1026C000010ED8A4000E006E205100160DE003018B
:1026D000616B700E626FFC0E636F000E646F010E13
:1026E000656F96EC08F00CD00301616B700E626FA1
:1026F000FA0E636F000E646F010E656F96EC08F0C2
:102700003CD003010051000A38E001012053010EC2
:10271000D8A4000E006E215100160DE00301616B7C
:10272000080E626FF80E636F000E646F010E656F26
:1027300096EC08F022D001012153010ED8A4000E1E
:10274000006E205100160DE00301616B080E626FF0
:10275000FE0E636F000E646F010E656F96EC08F05D
:102760000CD00301616B080E626F010E636F010EE6
:10277000646F010E656F96EC08F004001200020110
:10278000A86B926B0301556BF3EC0DF092C255F3FD
:1027900047EC0EF013C361F314C362F342EC07F08D
:1027A00012000301536B546B640E0201F05D0301D0
:1027B000506F000E0201F1590301516F0F6B106B46
:1027C000010E0101636F000E646F04001D51010AC8
:1027D00004E1280E0301526F03D00301780E526FFB
:1027E0004F6B52514F5D4FE201011D51000A010E26
:1027F000D8A4000E016E81B002D0068001D00690F0
:1028000081B202D0D88001D0D89006B003D002E2C5
:10281000069001D0068081B402D0D88001D0D89033
:1028200006B003D002E2069001D00680006A06B02E
:10283000002A0150001608E072EC0EF00101005170
:10284000010A02E1006BD0D251EC0FF0800E541956
:10285000006E800E1019005C02E10F51535D08E21A
:102860000FC353F310C354F311C363F112C364F1E4
:10287000100E0C6E940E0D6E0D2EFED70C2EFCD786
:1028800000004F2BAED7040053C361F154C362F173
:1028900063C155F364C156F369EC0DF0800E01017C
:1028A0006419006E800E0201F119005C03E1F05121
:1028B0000101635D0101000ED8B0010E006E0050F1
:1028C0002115056E800E0201A019036E800E010114
:1028D0006419035C03E1635102019F5D0201010E73
:1028E000D8B0000E036E9F510101635D016E0201BD
:1028F000A05101016459026E800E03015119006E4E
:10290000800E0218005C02E10150505D010ED8B04B
:10291000000E006E00500314046E800E0101641955
:10292000036E800E0201A019035C03E19F510101B7
:10293000635D0101010ED8B0000E036E6351020108
:102940009F5D016E010164510201A059026E800E6B
:1029500003015119006E800E0218005C02E1015063
:10296000505D010ED8B0000E006E035000160050EE
:102970000410016E0201A051030A02E1E70E9F1943
:10298000010ED8A4000E006E015000120550001672
:1029900003E0010E0101656F01011D51000A010EE6
:1029A000D8A4000E016E81B002D0068001D006903E
:1029B00081B202D0D88001D0D89006B003D002E214
:1029C000069001D0068081B402D0D88001D0D89082
:1029D00006B003D002E2069001D00680006A06B07D
:1029E000002A0150001608E072EC0EF001010051BF
:1029F000010A02E1006BF8D161C155F362C156F3DF
:102A00009EEC0EF001011D51000A010ED8A4000E2B
:102A1000016E81B002D0068001D0069081B202D052
:102A2000D88001D0D89006B003D002E2069001D041
:102A3000068081B402D0D88001D0D89006B003D0EF
:102A400002E2069001D00680006A06B0002A01501A
:102A5000001608E072EC0EF001010051010A02E1DB
:102A6000006BC2D101010400800E050A006E800EC9
:102A70006219005C02E16151DC08D8B0B5D10301F4
:102A80000051040A010ED8A4000E016E0051050A7F
:102A9000010ED8A4000E006E01500012D8B4C7D0A9
:102AA000020E616F100E626F780E636F010E646F1D
:102AB000080E656F96EC08F0030E0B6E080E0C6E98
:102AC000770E0D6E0D2EFED70C2EFCD70B2EFAD7DF
:102AD000020E0301616F100E626F6F0E636F010EC5
:102AE000646F080E656F96EC08F00B0E0B6E260EE9
:102AF0000C6E5D0E0D6E0D2EFED70C2EFCD70B2E20
:102B0000FAD7000000000400020E0301616F100EEE
:102B1000626F660E636F010E646F080E656F96EC50
:102B200008F0070E0B6E170E0C6E6A0E0D6E0D2E52
:102B3000FED70C2EFCD70B2EFAD70000020E030195
:102B4000616F100E626F340E636F010E646F080EBA
:102B5000656F96EC08F00B0E0B6E260E0C6E5D0E7C
:102B60000D6E0D2EFED70C2EFCD70B2EFAD70000C3
:102B700000000400020E0301616F100E626F2B0E45
:102B8000636F010E646F080E656F96EC08F0070E18
:102B90000B6E170E0C6E6A0E0D6E0D2EFED70C2EE0
:102BA000FCD70B2EFAD70000020E0301616F100E46
:102BB000626F220E636F010E646F080E656F96ECF4
:102BC00008F00B0E0B6E260E0C6E5D0E0D6E0D2EAC
:102BD000FED70C2EFCD70B2EFAD700000000040005
:102BE000020E0301616F100E626F3D0E636F010EE6
:102BF000646F080E656F96EC08F0030E0B6E080EFE
:102C00000C6E770E0D6E0D2EFED70C2EFCD70B2EF4
:102C1000FAD7020E0301616F100E626F580E636FD8
:102C2000010E646F080E656F96EC08F0C3D00301C7
:102C30000051000AD8B4BED0010E616F626B4F0E16
:102C4000636F010E646F080E656F96EC08F0030E5B
:102C50000B6E080E0C6E770E0D6E0D2EFED70C2E21
:102C6000FCD70B2EFAD7010E0301616F626B460E83
:102C7000636F010E646F080E656F96EC08F00B0E23
:102C80000B6E260E0C6E5D0E0D6E0D2EFED70C2EED
:102C9000FCD70B2EFAD7000000000400010E030140
:102CA000616F626B550E636F000E646F080E656F87
:102CB00096EC08F0070E0B6E170E0C6E6A0E0D6E7A
:102CC0000D2EFED70C2EFCD70B2EFAD70000010ECE
:102CD0000301616F626B4C0E636F000E646F080E30
:102CE000656F96EC08F00B0E0B6E260E0C6E5D0EEB
:102CF0000D6E0D2EFED70C2EFCD70B2EFAD7000032
:102D000000000400010E0301616F626B430E636FEC
:102D1000000E646F080E656F96EC08F0070E0B6EE0
:102D2000170E0C6E6A0E0D6E0D2EFED70C2EFCD7F4
:102D30000B2EFAD70000010E0301616F626B5E0E6D
:102D4000636F000E646F080E656F96EC08F00B0E53
:102D50000B6E260E0C6E5D0E0D6E0D2EFED70C2E1C
:102D6000FCD70B2EFAD7000000000400010E03016F
:102D7000616F626B710E636F000E646F080E656F9A
:102D800096EC08F0030E0B6E080E0C6E770E0D6EAF
:102D90000D2EFED70C2EFCD70B2EFAD7010E0301F9
:102DA000616F626B680E636F000E646F080E656F73
:102DB00096EC08F00B0E0B6E260E0C6E5D0E0D6E73
:102DC0000D2EFED70C2EFCD70B2EFAD700000000DC
:102DD0000400100E0201D96F270EDA6F63C155F39C
:102DE00064C156F369EC0DF01200C9DC010E02015A
:102DF000A36F010E03014F6F12EC11F0FF0E4F6F26
:102E0000506BF3EC10F0FE0E03014F6F506BF3ECC0
:102E100010F0FD0E03014F6F010E506FF3EC10F038
:102E20001FEC11F003010051000A02E18A8C8A8E26
:102E3000899E898C116B126B0F6B106B02019F6B5B
:102E4000A06B03010051040A010ED8A4000E016E0C
:102E50000051050A010ED8A4000E006E01500012A8
:102E60002AE0020E616F100E626F960E636F020E03
:102E7000646F080E656F96EC08F004000D0E0B6E83
:102E80002D0E0C6ED70E0D6E0D2EFED70C2EFCD710
:102E90000B2EFAD700000000020E0301616F100E26
:102EA000626FDB0E636F020E646F080E656F96EC47
:102EB00008F004002BD003010051000A27E0010EA6
:102EC000616F626BC70E636F020E646F080E656FF1
:102ED00096EC08F004000D0E0B6E2D0E0C6ED70E46
:102EE0000D6E0D2EFED70C2EFCD70B2EFAD7000040
:102EF0000000010E0301616F626BD00E636F020E62
:102F0000646F080E656F96EC08F00400100E020165
:102F1000D96F270EDA6F100E946F270E956F41DC74
:102F200012000134083609360450085E0550D8A056
:102F3000053C095E003601360F0E0C6E0134083672
:102F40000936045000A006D0085E0550D8A0053C04
:102F5000095E05D008260550D8B0053C0926003684
:102F600001360C2EEBD700B006D0045008260550D1
:102F7000D8B0053C09260000120051EC0FF0020108
:102F8000C651640A11E0C62B800E03013619006E8B
:102F9000800E1019005C02E10F51355D04E20FC391
:102FA00035F310C336F30BD00201C66B35C355F3AE
:102FB00036C356F39EEC0EF00301356B366B800E74
:102FC0001019026E800E3419025C02E133510F5D5C
:102FD000010ED8B0000E026E800E3819016E800E00
:102FE0001019015C02E10F51375D010ED8B0000EDF
:102FF000016E800E006E800E3819005C02E13751C0
:103000000008010ED8B0000E006E015000160250EC
:1030100000124EE0040051EC0FF00201C651640AA8
:1030200011E0C62B800E03013619006E800E1019B8
:10303000005C02E10F51355D04E20FC335F310C3AC
:1030400036F30BD00201C66B35C355F336C356F3C6
:103050009EEC0EF00301356B366B810E616F0F0E27
:10306000626F636B050E646F010E656FA1EC07F074
:10307000005203E0010E0201C56F0201C551010AB1
:10308000010ED8A4000E03014E6F810E616F0F0E6A
:10309000626F636B050E646F656BA1EC07F04E51B8
:1030A000001605E0A2DE0301116B126B01D087D779
:1030B00012000450000A08E10550000A05E1FF0E65
:1030C000006E7F0E016E57D00D6A096A086A0150C2
:1030D0000010D8B4000C015005180A6E0ABE0D1E6F
:1030E0000B6A05AE05D0041E051E042AD8B4052AB5
:1030F00001AE05D0001E011E002AD8B4012A0150DD
:1031000005100A6E0ABE10D00CDF0BB020D00DAE39
:10311000000C001E011E002AD8B4012A081E091E38
:10312000082AD8B4092A000C05AE0DD001BE07D07C
:103130000150096E0050086E016A006AE8D7016A02
:10314000006A002A000C011E001E0B2ADDD7082A87
:10315000D8B4092A0450085CD8A4D9D70550095C12
:10316000D8A4D5D7096A086A002AD8B4012A01AEC2
:10317000CED70000FF0C120002019151010A04E1B8
:10318000010E03014A6F03D00301030E4A6F0201CF
:10319000926B0301556B47EC0EF04AC3A2F2EDDED1
:1031A000000E121902E1000E111901E1A4D0140E53
:1031B000046E000E056E11C300F012C301F079DF3A
:1031C0000050030111254C6F015012214D6F4AC36D
:1031D0004BF34B511F08D8A08AD04B510201A103D9
:1031E000F3CF55F347EC0EF0C8DE000E121902E1E2
:1031F000000E111901E17FD0800E1219006E800EB1
:103200004D19005C02E14C51115D6FE2140E046E29
:10321000000E056E11C300F012C301F04ADF00502A
:10322000030111254C6F015012214D6F4B510201CA
:10323000A103F3CF92F24AC3A2F2800E0301121946
:10324000006E800E005C02E1780E115D01E24FD04D
:1032500002019151010A010ED8A4000E026E4BC367
:1032600001F00132019E0132019E0150000A000E60
:10327000D8A4010E006E0250001607E04BC34AF3BB
:1032800003014A334A9F4A334A9F03014A514B255F
:10329000026E02C04BF302019151000A010ED8A444
:1032A000000E016E0250090A010ED8A4000E006E35
:1032B0000150001604E0080E03014B6F15D0020107
:1032C0009151000A010ED8A4000E016E03014B516A
:1032D000110A010ED8A4000E006E0150001604E081
:1032E000100E4B6F040E4A6F01D001D072D792C2FC
:1032F00055F347EC0EF012000201A251A103F3CFE7
:1033000000F000C044F300509225046E04C046F360
:10331000050E026EA1C200F0000E016E025005E023
:10332000003600900136FF0FFAD7010E005C026EE6
:10333000000E0158036E800E0318006E800E005CB4
:1033400002E10450025C0DE2050E006EA1C246F3DC
:10335000005005E0030146374691FF0FFAD70301FD
:103360004607020192510301445D06E24451020105
:10337000925D0301476F01D0476B47C392F247C389
:1033800055F347EC0EF0F9DD000E121902E1000EC4
:10339000111901E167D011C348F312C349F30201C7
:1033A000A15103014725456F4551465D57E345C38C
:1033B00055F347EC0EF0E1DD000E121902E1000EAC
:1033C000111901E14FD0800E1219006E800E4919BB
:1033D000005C02E14851115D0BE3340E0C6EF10EFE
:1033E0000D6E0D2EFED70C2EFCD700000000C5DDA3
:1033F000800E1219006E800E4919005C02E14851DE
:10340000115D0BE3340E0C6EF10E0D6E0D2EFED71A
:103410000C2EFCD700000000B0DD800E1219006EEB
:10342000800E4919005C02E14851115D11E211C39F
:1034300048F312C349F345C392F2800E1219006E8D
:10344000800E005C02E1780E115D01E207D001D030
:1034500005D00201A15103014527A6D792C255F319
:1034600047EC0EF012000201A451010A04E1010E22
:103470000301446F03D00301030E446F466B44C342
:10348000A7F2030E476F140E046E000E056E11C3F3
:1034900000F012C301F00DDE005003011125486F4A
:1034A00001501221496F456B45511F08D8A090D09B
:1034B00045510201A603F3CF55F3F3EC0DF05CDEAA
:1034C0005CDD000E121902E1000E111901E196D027
:1034D000800E1219006E800E4919005C02E14851FD
:1034E000115DD8B073D0140E046E000E056E11C3BA
:1034F00000F012C301F0DDDD005003011125486F1B
:1035000001501221496F45510201A603F3CFA8F2E1
:1035100092C246F344C3A7F2A2C247F3800E03014E
:103520001219006E800E005C02E1780E115D01E25E
:103530004FD00201A451010A010ED8A4000E026E60
:1035400045C301F00132019E0132019E0150000A83
:10355000000ED8A4010E006E0250001607E045C30D
:1035600044F303014433449F4433449F03014451D3
:103570004525026E02C045F30201A451000A010E66
:10358000D8A4000E016E0250090A010ED8A4000E44
:10359000006E0150001604E0080E0301456F15D0BF
:1035A0000201A451000A010ED8A4000E016E03010D
:1035B0004551110A010ED8A4000E006E01500016EC
:1035C00004E0100E456F040E446F01D001D06CD79B
:1035D00046C392F2A8C255F3F3EC0DF092C255F334
:1035E00047EC0EF047C3A2F2340E0C6EF10E0D6ED6
:1035F0000D2EFED70C2EFCD7000000001200020199
:10360000A751A603F3CF00F000C044F30050A82553
:10361000046E04C046F3050E026EA6C200F0000E52
:10362000016E025005E0003600900136FF0FFAD718
:10363000010E005C026E000E0158036E800E03182E
:10364000006E800E005C02E10450025C0DE2050E8B
:10365000006EA6C246F3005005E0030146374691CE
:10366000FF0FFAD7030146070201A8510301445D89
:1036700006E244510201A85D0301476F01D0476B88
:1036800047C3A8F247C355F3F3EC0DF076DC000E08
:10369000121902E1000E111901E167D011C348F3BC
:1036A00012C349F30201A65103014725456F455155
:1036B000465D57E345C355F3F3EC0DF05EDC000EB9
:1036C000121902E1000E111901E14FD0800E1219FA
:1036D000006E800E4919005C02E14851115D0BE358
:1036E000340E0C6EF10E0D6E0D2EFED70C2EFCD787
:1036F0000000000042DC800E1219006E800E491995
:10370000005C02E14851115D0BE3340E0C6EF10ECA
:103710000D6E0D2EFED70C2EFCD7000000002DDC08
:10372000800E1219006E800E4919005C02E14851AA
:10373000115D11E211C348F312C349F345C3A8F266
:10374000800E1219006E800E005C02E1780E115D91
:1037500001E207D001D005D00201A651030145279F
:10376000A6D7A8C255F3F3EC0DF0120011C33EF337
:1037700012C33FF378DE000E121902E1000E111998
:1037800003E1BFEC13F006D1BDEC17F0800E121967
:10379000006E800E005C02E1780E115D01E2FAD04D
:1037A0002EDF000E121902E1000E111903E1BFEC29
:1037B00013F0F0D0BDEC17F0800E1219006E800EE1
:1037C000005C02E1780E115D01E2E4D095DD000EAF
:1037D000121902E1000E111903E1BFEC13F0DAD067
:1037E000BDEC17F0800E1219006E800E005C02E135
:1037F000780E115D01E2CED0800E1219016E800E9E
:10380000015C02E1C80E115D010ED8B0000E016E20
:10381000800E1219006E800E3F19005C02E13E51CD
:10382000115D010ED8B0000E006E00500114036E41
:1038300011513E5D016E12513F59026E800E006EB5
:10384000800E0218005C02E101506408010ED8B03D
:10385000000E006E0350001601E09CD011C33EF331
:1038600012C33FF3A8C240F3000E416F92C242F36D
:10387000000E436F0201A351010A02E1A36B02D0C3
:10388000010EA36FBFEC13F0A3C24FF312EC11F0C3
:10389000020E0B6E040E0C6EBA0E0D6E0D2EFED7C0
:1038A0000C2EFCD70B2EFAD70000BDEC17F0800EC3
:1038B0001219006E800E005C02E1780E115D01E2CB
:1038C00069D0D1DD000E121902E1000E111903E1D9
:1038D000BFEC13F05FD0BDEC17F0800E1219006E34
:1038E000800E005C02E1780E115D01E253D087DEAC
:1038F000000E121902E1000E111903E1BFEC13F0E2
:1039000049D0BDEC17F0800E1219006E800E005CDD
:1039100002E1780E115D01E23DD0EEDC000E1219DD
:1039200002E1000E111903E1BFEC13F033D0BDEC3E
:1039300017F0800E1219006E800E005C02E1780E06
:10394000115D01E227D0800E3F19006E800E121922
:10395000005C02E111513E5D1CE20201A351010A2B
:1039600002E1A36B02D0010EA36FA3C24FF312ECCE
:1039700011F040C3A8F242C392F240C355F3F3ECF6
:103980000DF092C255F347EC0EF03EC311F33FC366
:1039900012F3040012005DEC00F0FDC27AF326EC95
:1039A00000F0800E03017A6F26EC00F03DC37AF33D
:1039B00026EC00F015EC01F0120004001550050A89
:1039C00004E1010E0201A66F0DD01550060A04E1B4
:1039D0000201020EA66F06D01550070A03E102018C
:1039E000040EA66F2650050A04E10201010EA16F24
:1039F0000DD02650060A04E10201020EA16F06D086
:103A00002650070A03E10201040EA16F0201C66BF2
:103A10000301356B366B0201C56BBDEC17F0800EF0
:103A20001219006E800E005C02E16E0E115D01E263
:103A30007FD0BFEC13F01FEC11F0020E0B6E040EE2
:103A40000C6EBA0E0D6E0D2EFED70C2EFCD70B2E63
:103A5000FAD70000BDEC17F0800E1219006E800E30
:103A6000005C02E16E0E115D01E262D0800E016E1B
:103A7000800E0201FF19015C02E1FE516E08010E89
:103A8000D8B0000E016E800EFF19006E800E03018B
:103A90001219005C03E111510201FE5D010ED8B064
:103AA000000E006E0150001601E042D05FDE000EF5
:103AB000121902E1000E111903E1BFEC13F038D026
:103AC000800E1219006E800E005C02E1780E115D0E
:103AD00001E22ED02650050A010ED8A4000E016E78
:103AE0001550050A010ED8A4000E006E01500016F4
:103AF00001E01ED01550050806E2A6C2A7F2010E8D
:103B00000201A66F7CDD800E1219006E800E005C33
:103B100002E1780E115D01E20BD02650050807E2A4
:103B2000A1C2A2F2010E0201A16F7CEC19F0040007
:103B300012005DEC00F0FDC27AF326EC00F0030108
:103B40007A6B26EC00F0AE0E03017A6F26EC00F0E3
:103B50000201F351020A010ED8A4000E016EF351C6
:103B6000030A010ED8A4000E006E01500012D8B452
:103B700097D0D50E03017A6F26EC00F0800E03017A
:103B80007A6F26EC00F0A80E03017A6F26EC00F0A5
:103B90003F0E03017A6F26EC00F0D30E03017A6F1B
:103BA00026EC00F00201F351020A05E1F2C27AF3B9
:103BB00026EC00F007D00201F2511F0F03017A6FCB
:103BC00026EC00F0400E03017A6F26EC00F08D0E1B
:103BD00003017A6F26EC00F0140E03017A6F26ECD5
:103BE00000F0810E03017A6F26EC00F0B40E0301A1
:103BF0007A6F26EC00F0D90E03017A6F26EC00F004
:103C0000220E03017A6F26EC00F0200E03017A6F7A
:103C100026EC00F0020E03017A6F26EC00F0210E74
:103C200003017A6F26EC00F003017A6B26EC00F0BA
:103C30007F0E03017A6F26EC00F02E0E03017A6FDF
:103C400026EC00F00201F351020A0BE1A00E030181
:103C50007A6F26EC00F0C00E03017A6F26EC00F0BC
:103C60000AD0A10E03017A6F26EC00F0C80E030102
:103C70007A6F26EC00F0DA0E03017A6F26EC00F082
:103C8000020E03017A6F26EC00F0DB0E03017A6F5F
:103C900026EC00F0400E03017A6F26EC00F08AD08B
:103CA000D50E03017A6F26EC00F0800E03017A6FC7
:103CB00026EC00F0A80E03017A6F26EC00F03F0E10
:103CC00003017A6F26EC00F0D30E03017A6F26EC25
:103CD00000F0F2C27AF326EC00F0400E03017A6F96
:103CE00026EC00F08D0E03017A6F26EC00F0140E26
:103CF00003017A6F26EC00F0810E03017A6F26EC47
:103D000000F0FF0E03017A6F26EC00F0D90E0301DC
:103D10007A6F26EC00F0F10E03017A6F26EC00F0CA
:103D2000200E03017A6F26EC00F0020E03017A6F79
:103D300026EC00F0210E03017A6F26EC00F003015F
:103D40007A6B26EC00F07F0E03017A6F26EC00F010
:103D50002E0E03017A6F26EC00F00201F351040AE3
:103D60000BE1A00E03017A6F26EC00F0C00E0301F8
:103D70007A6F26EC00F00AD0A10E03017A6F26ECD0
:103D800000F0C80E03017A6F26EC00F0DA0E030192
:103D90007A6F26EC00F0120E03017A6F26EC00F029
:103DA000DB0E03017A6F26EC00F0400E03017A6F00
:103DB00026EC00F0A40E03017A6F26EC00F0A60EAC
:103DC00003017A6F26EC00F015EC01F0030E0B6E88
:103DD000080E0C6E770E0D6E0D2EFED70C2EFCD736
:103DE0000B2EFAD75DEC00F0FDC27AF326EC00F062
:103DF000400E03017A6F26EC00F00201F351020A33
:103E0000010ED8A4000E016EF351030A010ED8A4CE
:103E1000000E006E0150001219E003013C6B3C5192
:103E2000030813E33CC375F3766B7AEC00F00301EF
:103E30003B6B0301800E3B5D05E23B2B7A6B26EC6E
:103E400000F0F7D703013C2BEAD718D003013C6BF5
:103E50003C51070813E33CC375F3766B7AEC00F032
:103E600003013B6B0301800E3B5D05E23B2B7A6B4C
:103E700026EC00F0F7D703013C2BEAD715EC01F054
:103E8000AF0E03013D6F87DD12008E0E0201F56F4C
:103E9000020EF66F6B0EF76F030EF86FC26A010128
:103EA000FA1D006E0050C116070EC012C08EC280EF
:103EB00012003BC300F00032009E0032009E003230
:103EC000009E0032009E0A0E0002F3CF01F00F0E9A
:103ED00003013B15006E015000261200A69C3BC357
:103EE000A9FFA69EA680A8CF00F01200040003013F
:103EF0000051040A010ED8A4000E016E0051050AFB
:103F0000010ED8A4000E006E015000125AE002010A
:103F10009351000A0DE10301616B100E626FD40E24
:103F2000636F010E646F080E656F96EC08F00CD09D
:103F30000301616B100E626FCB0E636F010E646F35
:103F4000080E656F96EC08F0020E0301616F100E0B
:103F5000626FC20E636F010E646F080E656F96ECA0
:103F600008F0040E0301616F100E626FDD0E636FC7
:103F7000010E646F080E656F96EC08F0060E0301E3
:103F8000616F100E626FF10E636F010E646F080EA9
:103F9000656F96EC08F001011D53010ED8A4000EC8
:103FA000006E215100160CE00301616B700E626F10
:103FB000EF0E636F010E646F010E656F96EC08F0F3
:103FC00076D003010051000A72E002019351000A09
:103FD0000CE10301616B626BE60E636F010E646FAF
:103FE000080E656F96EC08F00BD00301616B626BF5
:103FF0009D0E636F010E646F080E656F96EC08F0FE
:10400000010E0301616F626B940E636F010E646FAA
:10401000080E656F96EC08F003010051010A19E1E2
:10402000616B090E626F8C0E636F010E646F070E79
:10403000656F96EC08F0010E0301616F090E626F67
:10404000A60E636F010E646F070E656F96EC08F0A5
:1040500019D00301616B090E626FB90E636F010E17
:10406000646F080E656F96EC08F0010E0301616F36
:10407000090E626FB00E636F010E646F080E656FFC
:1040800096EC08F001011D53010ED8A4000E006E3D
:10409000215100160CE00301616B080E626FAE0E39
:1040A000636F010E646F010E656F96EC08F00400FB
:1040B0000201E46BBB6B1FEC11F012000400030162
:1040C0000051000A02E18A8C8A8E0051040A010E16
:1040D000D8A4000E016E0051050A010ED8A4000EEE
:1040E000006E015000120DE0020E616F400E626F13
:1040F0005F0E636F020E646F040E656F96EC08F03E
:1041000010D003010051000A0CE0010E616F040E93
:10411000626F5A0E636F020E646F040E656F96EC49
:1041200008F04BDCFF0E03014F6F92C250F3F3EC2B
:1041300010F0FE0E03014F6FA8C250F3F3EC10F025
:10414000FD0E03014F6FA3C250F3F3EC10F0030117
:104150000051000A18E1800E006E800E1219005CFA
:1041600002E11151960802E38A9C0DD0800E006E88
:10417000800E1219005C02E11151FA0803E3819CE0
:10418000819E01D0819E100E0201D96F270EDA6F39
:10419000100E946F270E956FD1EC13F011C39FF2A0
:1041A00012C3A0F21FEC11F0899E898C040012004A
:1041B000070EB46E600ED36E9B8C806A816A826A31
:1041C000896A8A6A8B6A030E926E070E936E946AEE
:1041D0005CDE0D0EC16EF19EF29E12000900F5CF5D
:1041E000E6FF0006FBE10106F9E112000400010E02
:1041F00003013B6F73DE00C000F3020E3B6F6EDE07
:104200000050010A03E1010E0101216F030E0301B9
:104210003B6F64DE00C03BF34CDE00C013F3000EC6
:10422000146F040E3B6F5ADE00C03BF342DE0A0EF1
:104230000002F3CFF0F2F4CFF1F2050E3B6F4EDE49
:1042400000C03BF336DE0A0E0002F3CF33F3F4CFA7
:1042500034F3060E3B6F42DE00C03BF32ADE0A0E4B
:104260000002F3CF37F3F4CF38F3090E3B6F36DE9D
:1042700000C03BF31EDE0A0E0002F3CFFEF2F4CFC5
:10428000FFF20A0E3B6F2ADE00C015F00B0E3B6FEB
:1042900025DE00C0A4F20C0E3B6F20DE00C026F02D
:1042A0000D0E3B6F1BDE00C091F20E0E3B6F16DE53
:1042B00000C0EFF20F0E3B6F11DE00C0A5F204004C
:1042C000100E3B6F0BDE00C03BF3F3DD640E00020B
:1042D000F3CF39F3F4CF3AF3110E3B6FFFDD00C09B
:1042E0003BF3E7DD005039251D6F000E3A211E6FAC
:1042F000120E3B6FF3DD00C03BF3DBDD640E00020A
:10430000F3CF39F3F4CF3AF3130E3B6FE7DD00C080
:104310003BF3CFDD00503925236F000E3A21246F87
:10432000140E3B6FDBDD00C03BF3C3DD640E000207
:10433000F3CF39F3F4CF3AF3150E3B6FCFDD00C066
:104340003BF3B7DD00503925216F000E3A21226F73
:10435000160E3B6FC3DD00C03BF3ABDD640E000205
:10436000F3CF39F3F4CF3AF3170E3B6FB7DD00C04C
:104370003BF39FDD005039251B6F000E3A211C6F67
:10438000180E3B6FABDD00C03BF393DD640E000203
:10439000F3CF39F3F4CF3AF3190E3B6F9FDD00C032
:1043A0003BF387DD00503925176F000E3A21186F57
:1043B0001A0E3B6F93DD00C03BF37BDD640E000201
:1043C000F3CF39F3F4CF3AF31B0E3B6F87DD00C018
:1043D0003BF36FDD00503925156F000E3A21166F43
:1043E0001C0E3B6F7BDD00C03BF363DD640E0002FF
:1043F000F3CF39F3F4CF3AF31D0E3B6F6FDD00C0FE
:104400003BF357DD00503925196F000E3A211A6F22
:10441000200E3B6F63DD00C03BF34BDD640E0002FA
:10442000F3CF39F3F4CF3AF3210E3B6F57DD00C0E1
:104430003BF33FDD00503925316F000E3A21326FDA
:10444000220E3B6F4BDD00C03BF333DD640E0002F8
:10445000F3CF39F3F4CF3AF3230E3B6F3FDD00C0C7
:104460003BF327DD005039252F6F000E3A21306FC6
:10447000240E3B6F33DD00C03BF31BDD640E0002F6
:10448000F3CF39F3F4CF3AF3250E3B6F27DD00C0AD
:104490003BF30FDD005039252D6F000E3A212E6FB2
:1044A000260E3B6F1BDD00C03BF303DD640E0002F4
:1044B000F3CF39F3F4CF3AF3270E3B6F0FDD00C093
:1044C0003BF3F7DC00503925276F000E3A21286FA7
:1044D000280E3B6F03DD00C03BF3EBDC640E0002F3
:1044E000F3CF39F3F4CF3AF3290E3B6FF7DC00C07A
:1044F0003BF3DFDC00503925256F000E3A21266F93
:104500002A0E3B6FEBDC00C03BF3D3DC640E0002F1
:10451000F3CF39F3F4CF3AF32B0E3B6FDFDC00C05F
:104520003BF3C7DC005039252B6F000E3A212C6F6E
:104530002C0E3B6FD3DC00C03BF3BBDC640E0002EF
:10454000F3CF39F3F4CF3AF32D0E3B6FC7DC00C045
:104550003BF3AFDC00503925296F000E3A212A6F5A
:10456000300E3B6FBBDC00C093F20400120004006D
:1045700003010051040A010ED8A4000E016E00517F
:10458000050A010ED8A4000E006E01500012D8B426
:104590001BD1616B160E626F270E636F000E646F86
:1045A000070E656F96EC08F0020E0301616F060EB0
:1045B000626FC60E636F000E646F090E656F96EC36
:1045C00008F0040E0301616F100E626F1E0E636F20
:1045D000000E646F080E656F96EC08F0060E0C6E08
:1045E000300E0D6E0D2EFED70C2EFCD70000040EE3
:1045F0000301616F100E626F1E0E636F000E646F19
:10460000080E656F96EC08F0060E0C6E300E0D6EFF
:104610000D2EFED70C2EFCD70000040E0301616F97
:10462000100E626F1E0E636F000E646F080E656FD2
:1046300096EC08F0060E0C6E300E0D6E0D2EFED7A9
:104640000C2EFCD70000060E0301616F040E626F92
:10465000BB0E636F000E646F0A0E656F96EC08F078
:1046600004000D0E0B6E2D0E0C6ED70E0D6E0D2E62
:10467000FED70C2EFCD70B2EFAD70000000004004A
:104680000B0E0B6E260E0C6E5D0E0D6E0D2EFED7F4
:104690000C2EFCD70B2EFAD70000000004000301FB
:1046A000616B100E626FB20E636F000E646F080EC6
:1046B000656F96EC08F0020E0301616F040E626FE5
:1046C000D00E636F000E646F0A0E656F96EC08F0F3
:1046D000040E0301616F100E626FEF0E636F000E28
:1046E000646F080E656F96EC08F0060E0301616FAB
:1046F000040E626FE40E636F000E646F0A0E656F46
:1047000096EC08F0040E0B6E0C0E0C6E330E0D6E54
:104710000D2EFED70C2EFCD70B2EFAD70000000072
:1047200002019351010A0DE10301616B100E626FEA
:10473000DB0E636F000E646F080E656F96EC08F079
:104740000CD00301616B100E626F8C0E636F000E54
:10475000646F080E656F96EC08F0020E0301616F3E
:10476000100E626F830E636F000E646F080E656F2C
:1047700096EC08F0040E0301616F100E626F7A0E62
:10478000636F000E646F080E656F96EC08F0060EFE
:104790000301616F100E626F950E636F000E646F00
:1047A000080E656F96EC08F0010121530CE003013F
:1047B000616B700E626FB00E636F000E646F010E5E
:1047C000656F96EC08F038D103010051000AD8B4A7
:1047D00033D1616B040E626FA80E636F000E646FBD
:1047E000070E656F96EC08F0010E0301616F030E72
:1047F000626F9E0E636F000E646F090E656F96EC1C
:1048000008F004000F0E0B6E350E0C6E510E0D6E7F
:104810000D2EFED70C2EFCD70B2EFAD704000B0E54
:104820000B6E260E0C6E5D0E0D6E0D2EFED70C2E31
:10483000FCD70B2EFAD70000000004000301616BC7
:10484000040E626F1E0E636F000E646F080E656FBC
:1048500096EC08F0060E0C6E300E0D6E0D2EFED787
:104860000C2EFCD700000301616B040E626F1E0E5C
:10487000636F000E646F080E656F96EC08F0060E0D
:104880000C6E300E0D6E0D2EFED70C2EFCD70000D8
:104890000301616B040E626F1E0E636F000E646F86
:1048A000080E656F96EC08F0060E0C6E300E0D6E5D
:1048B0000D2EFED70C2EFCD70000010E0301616FF8
:1048C000030E626F810E636F010E646F0A0E656FD7
:1048D00096EC08F004000D0E0B6E2D0E0C6ED70E2C
:1048E0000D6E0D2EFED70C2EFCD70B2EFAD7000026
:1048F000000004000B0E0B6E260E0C6E5D0E0D6E8E
:104900000D2EFED70C2EFCD70B2EFAD70000000080
:1049100004000301616B040E626F2A0E636F020EC6
:10492000646F080E656F96EC08F0010E0301616F6D
:10493000030E626F1F0E636F020E646F0A0E656FC7
:1049400096EC08F0040E0B6E0C0E0C6E330E0D6E12
:104950000D2EFED70C2EFCD70B2EFAD70000000030
:1049600002019351010A0CE10301616B626B160EA7
:10497000636F020E646F080E656F96EC08F00BD043
:104980000301616B626B330E636F020E646F080E7E
:10499000656F96EC08F0010E0301616F626B4C0EBF
:1049A000636F020E646F080E656F96EC08F00301EA
:1049B0000051010A19E1616B090E626F440E636FC9
:1049C000020E646F070E656F96EC08F0010E03018E
:1049D000616F090E626F3C0E636F020E646F070E0B
:1049E000656F96EC08F019D00301616B090E626FD8
:1049F000060E636F020E646F080E656F96EC08F08A
:104A0000010E0301616F090E626FFD0E636F010EEF
:104A1000646F080E656F96EC08F0010121530CE0FD
:104A20000301616B080E626FFB0E636F010E646F12
:104A3000010E656F96EC08F00400120003010051AE
:104A4000040A010ED8A4000E016E0051050A010EE1
:104A5000D8A4000E006E015000120CE0616B0A0E2B
:104A6000626F650E636F020E646F090E656F96ECE0
:104A700008F00FD003010051000A0BE0616B030E38
:104A8000626F710E636F020E646F090E656F96ECB4
:104A900008F004000B0E0B6E260E0C6E5D0E0D6EF4
:104AA0000D2EFED70C2EFCD70B2EFAD700000000DF
:104AB00004000B0E0B6E260E0C6E5D0E0D6E0D2E91
:104AC000FED70C2EFCD70B2EFAD7000000000400F6
:104AD0000B0E0B6E260E0C6E5D0E0D6E0D2EFED7A0
:104AE0000C2EFCD70B2EFAD70000000004000B0E92
:104AF0000B6E260E0C6E5D0E0D6E0D2EFED70C2E5F
:104B0000FCD70B2EFAD7000000000400030100516F
:104B1000040A010ED8A4000E016E0051050A010E10
:104B2000D8A4000E006E015000120CE0616B0A0E5A
:104B3000626F870E636F020E646F090E656F96ECED
:104B400008F00FD003010051000A0BE0616B030E67
:104B5000626F7D0E636F020E646F090E656F96ECD7
:104B600008F0BFEC13F0010E0201A36F010E030168
:104B70004F6F12EC11F0FF0E4F6F92C250F3F3EC37
:104B800010F0FE0E03014F6FA8C250F3F3EC10F0CB
:104B9000FD0E03014F6FA3C250F3F3EC10F0010EB2
:104BA0000201A36F03010051040A010ED8A4000EF4
:104BB000016E0051050A010ED8A4000E006E0150CE
:104BC00000120CE0616B700E626F7B0E636F020E61
:104BD000646F010E656F96EC08F00FD00301005171
:104BE000000A0BE0616B080E626F570E636F020ED6
:104BF000646F010E656F96EC08F076EC1FF0120002
:104C0000810E0301616F0F0E626F636B320E646F72
:104C1000656BA1EC07F001016551001240E0898E3F
:104C2000899C060E0B6E130E0C6EAD0E0D6E0D2EC6
:104C3000FED70C2EFCD70B2EFAD700000000040084
:104C40006551000A010ED8A4000E016E81B002D099
:104C5000D89001D0D880006AD8B0002A0150001640
:104C600005E0F5EC16F00101206B17D05EEC20F0AA
:104C70000101206B810E0301616F0F0E626F636B88
:104C8000320E646F656BA1EC07F0005204E0D1ECCA
:104C900013F00400EFD70101656B1FEC11F0810EDA
:104CA0000301616F0F0E626F020E636F320E646F4D
:104CB000656BA1EC07F000524FE0040001012051A8
:104CC000000A20E1010E206F92C256F2A8C255F2EE
:104CD000A3C259F20201926BA86B010EA36F0301EC
:104CE000556BF3EC0DF092C255F347EC0EF0A3C2F6
:104CF0004FF312EC11F021C164F20101216B1FECA2
:104D000011F018D00101206B56C292F255C2A8F2E0
:104D100059C2A3F256C255F347EC0EF0A8C255F3A0
:104D2000F3EC0DF0A3C24FF312EC11F064C221F1C9
:104D30001FEC11F0810E0301616F0F0E626F020E06
:104D4000636F320E646F656BA1EC07F0005204E0F4
:104D5000D1EC13F00400EED7810E0301616F0F0E4A
:104D6000626F010E636F320E646F656BA1EC07F02A
:104D700001012051000A010ED8A4000E016E01505D
:104D8000001623E004002151000A03E1010E216F07
:104D900001D0216B020E03014F6F21C150F3F3ECE0
:104DA00010F01FEC11F0810E0301616F0F0E626FA6
:104DB000010E636F320E646F656BA1EC07F0005259
:104DC00004E0D1EC13F00400EED7120003013B6BBA
:104DD0006EEC1FF000C0FDF20050000A05E1939C4C
:104DE000939E8A8C8A8E04D0938C938E8A9C8A9E02
:104DF0001200010E03013B6F6EEC1FF000C0F3F2D6
:104E0000070E3B6F6EEC1FF000C0F2F2080E3B6F16
:104E10006EEC1FF000C0F4F20201F351010A03E04E
:104E200099EC1DF060D0010EF96FFC6B030E0301CD
:104E30006B6F84EC06F01A0E0C6EF80E0D6E0D2ED4
:104E4000FED70C2EFCD70000030E03016B6F84EC21
:104E500006F0060E0C6E300E0D6E0D2EFED70C2ECB
:104E6000FCD70000030E03016B6F84EC06F0020E0A
:104E700003016B6F84EC06F0020E03016B6F84EC90
:104E800006F0080E03016B6F84EC06F003016B6BF8
:104E900084EC06F0080E03016B6F84EC06F003014E
:104EA0006B6B84EC06F0010E03016B6F84EC06F073
:104EB0001A0E0C6EF80E0D6E0D2EFED70C2EFCD7B2
:104EC000000003016B6B84EC06F0060E03016B6FB0
:104ED00084EC06F003016B6B84EC06F00C0E03010E
:104EE0006B6F84EC06F01200810E0301616F0F0EF0
:104EF000626F636B320E646F656BA1EC07F000525A
:104F0000D8B493D0060E0B6E130E0C6EAD0E0D6E54
:104F10000D2EFED70C2EFCD70B2EFAD7000000006A
:104F2000040081A00FD00201A351000A03E1010E89
:104F3000A36F01D0A36BA3C24FF312EC11F01FECCF
:104F400011F062D002010F51010A02E10F6B02D091
:104F5000010E0F6F0F51010A2CE103010051040AE9
:104F6000010ED8A4000E016E0051050A010ED8A44E
:104F7000000E006E015000120CE0616B700E626F4B
:104F8000140E636F020E646F010E656F96EC08F0ED
:104F90000FD003010051000A0BE0616B080E626F35
:104FA000120E636F020E646F010E656F96EC08F0CF
:104FB0002BD003010051040A010ED8A4000E016E8B
:104FC0000051050A010ED8A4000E006E0150001217
:104FD0000CE0616B700E626F100E636F020E646FF7
:104FE000010E656F96EC08F00FD003010051000A26
:104FF0000BE0616B080E626F6F0E636F020E646FE1
:10500000010E656F96EC08F0810E0301616F0F0EC3
:10501000626F636B320E646F656BA1EC07F0005238
:1050200004E0D1EC13F00400EFD7810E0301616FAF
:105030000F0E626F020E636F320E646F656BA1EC30
:1050400007F000526EE004000301810E616F0F0E45
:10505000626F020E636F320E646F656BA1EC07F036
:1050600000525FE0050E026EA6C200F0000E016E57
:10507000025005E0003600900136FF0FFAD7010E0E
:10508000005C026E000E0158036E800E006E800EF2
:105090000318005C03E102500201A85D0201010E49
:1050A000D8B0000E006E0F51001606E0A82BA8C263
:1050B00055F3F3EC0DF02FD002010F53010ED8A4DD
:1050C000000E046E050E026EA6C200F0000E016E08
:1050D000025005E0003600900136FF0FFAD7010EAE
:1050E000005C026E000E0158036E800E006E800E92
:1050F0000318005C03E102010250925D010ED8B07A
:10510000000E006E0450001606E00201922B92C2BF
:1051100055F347EC0EF01FEC11F0D1EC13F0040046
:1051200093D7810E0301616F0F0E626F010E636FE3
:10513000320E646F656BA1EC07F001012051000A8B
:10514000010ED8A4000E016E0150001639E00400D3
:10515000810E0301616F0F0E626F010E636F320EDD
:10516000646F656BA1EC07F000522AE00201A851C0
:105170000008010ED8B0000E006E0F51001606E0B8
:10518000A807A8C255F3F3EC0DF014D002010F5399
:10519000010ED8A4000E016E92510008010ED8B085
:1051A000000E006E0150001605E0920792C255F302
:1051B00047EC0EF01FEC11F0D1EC13F00400C8D74F
:1051C000120079EC2CF0D0B602D0010E676E898CFB
:1051D000550E16241E6E2D0E1D24256ED8EC20F0C3
:1051E000720E17241F6E320E1C24246E030E0B6EDB
:1051F000080E0C6E770E0D6E0D2EFED70C2EFCD702
:105200000B2EFAD704001E0E1824206E3B0E1B2412
:10521000236EF6EC20F0DADD420E1924216E050E25
:105220000B6E0F0E0C6EF10E0D6E0D2EFED70C2EAA
:10523000FCD70B2EFAD7040081B202D0028001D035
:10524000029081B402D0D88001D0D89002A003D0BF
:1052500002E3028001D0029002A02BD0010E0101D6
:105260001D6F1550050A04E1010E0201A66F0DD055
:105270001550060A04E10201020EA66F06D0155071
:10528000070A03E10201040EA66F2650050A04E195
:105290000201010EA16F0DD02650060A04E10201A1
:1052A000020EA16F06D02650070A03E10201040E88
:1052B000A16F9FDD81B202D0028001D0029081B443
:1052C00002D0D88001D0D89002A003D002E302809F
:1052D00001D0029081B002D0D88001D0D89002A035
:1052E00003D002E3028001D0029002A046D0030165
:1052F00000510A0A0CE1616B030E626F390E636F95
:10530000000E646F090E656F96EC08F00FD0030174
:105310000051000A0BE0616B0C0E626F2F0E636F81
:10532000000E646F090E656F96EC08F0FF0E030126
:10533000556F47EC0EF00201A551000A06E1FF0E81
:105340000301556FF3EC0DF004D00301556BF3EC42
:105350000DF0010E4F6F12EC11F00B0E0B6E260EBE
:105360000C6E5D0E0D6E0D2EFED70C2EFCD70B2E87
:10537000FAD7000000000400F0D71C0E1A24226E99
:1053800004006750000A010ED8A4000E016E01014E
:105390001D51000A010ED8A4000E006E0150001627
:1053A00003E0B7EC22F015D06750010A010ED8A433
:1053B000000E016E01011D51000A010ED8A4000E5D
:1053C000006E0150001603E076EC1FF002D01EECD8
:1053D00025F001011D51000A1FE1FF0E03013B6F83
:1053E0006EEC1FF000C092F2FE0E3B6F6EEC1FF0F1
:1053F00000C0A8F2FD0E3B6F6EEC1FF000C0A3F2E0
:10540000A8C255F3F3EC0DF092C255F347EC0EF041
:10541000A3C24FF312EC11F01FEC11F00400D1EC19
:1054200013F001011D51000A03E100EC26F001D048
:105430005BDDF4D7FFD7070D07020C1B0912160C12
:10544000100E0D120B1013074154552D3130300042
:10545000464153542054455354004641535420541C
:10546000455354002020202020202020004F564566
:10547000524C4F4144002020202020202020004F6B
:105480005645524C4F414400005357523D20202076
:1054900020002020202020202020004C3D302E30D5
:1054A000307548005357523D302E3030005057521F
:1054B0003D302E305700433D2020203070460045BF
:1054C000585420626F617264004154552D31303060
:1054D000002E00202020202020202000465720766B
:1054E000657220322E370045585420626F61726415
:1054F0000020202020202020202020005057523D36
:105500002020305700202020202020202020200094
:105510002020202020202020002E0020005F005F7F
:1055200000002000433D202020207000433D20202B
:105530002020704600433D20202020704600002E91
:105540000000004F5645524C4F414400202020207F
:1055500020202020004F5645524C4F41440020202F
:10556000202020202020004F5645524C4F4144001F
:105570002020202020202020005357523D20202092
:1055800020000000000000202020202020202000FB
:105590004F5645524C4F41440020202020202020CF
:1055A000200046572076657220322E37004C3D3061
:1055B0002E303075005357523D302E30300050574A
:1055C000523D2020305700433D2020203070002ED7
:1055D00000433D202020307046004C3D302E3031BD
:1055E0007548005357523D302E3030005057523DD1
:1055F00020203057005057523D302E3057004C3D40
:10560000302E30307548005057523D302E30570004
:105610002E00433D20202030704600302E00433DB8
:10562000202020307046004C3D302E303075480030
:105630000163006C006C005057523D202030570031
:10564000202020202020202020200020202020207A
:10565000202020005057523D302E305700433D202F
:1056600020203070004C3D302E30307500535752A2
:105670003D302E30300000006C000054554E450087
:1056800054554E45000054455354204D4F44450059
:10569000630054455354204D4F4445006C00202076
:1056A000202020202020200020202020202020201A
:1056B00020000000001027524553455420202000B0
:1056C000000001000000000100004C3D20202020CF
:1056D0007548004C3D20202020754800FD4C3D20A1
:1056E0002020207500010000524553455420202001
:1056F000005357523D302E30300010275357523D43
:10570000302E303000FD302E303000302E30300062
:1057100001000000000000005F000000070007001B
:10572000147F147F14242A7F2A12231308646236FC
:10573000495522500005030000001C224100004191
:10574000221C00082A1C2A0808083E0808005030BD
:105750000000080808080800303000002010080485
:10576000023E5149453E00427F4000426151494658
:105770002141454B311814127F1027454545393CCE
:105780004A494930017109050336494949360649F4
:1057900049291E0036360000005636000000081465
:1057A0002241141414141441221408000201510956
:1057B00006324979413E7E1111117E7F49494936B1
:1057C0003E414141227F4141221C7F494949417F5D
:1057D000090901013E414151327F0808087F00411B
:1057E0007F41002040413F017F081422417F40401B
:1057F00040407F0204027F7F0408107F3E41414108
:105800003E7F090909063E4151215E7F091929465B
:10581000464949493101017F01013F4040403F1F56
:105820002040201F7F2018207F6314081463030486
:10583000780403615149454300007F414102040857
:10584000102041417F00000402010204404040401A
:1058500040000102040020545454787F48444438E6
:105860003844444420384444487F38545454180839
:105870007E090102081454543C7F08040478004453
:105880007D40002040443D00007F10284400417FBF
:1058900040007C041804787C0804047838444444AC
:1058A000387C14141408081414187C7C08040408A8
:1058B0004854545420043F4440203C4040207C1C29
:1058C0002040201C3C4030403C44281028440C50D0
:1058D00050503C4464544C44000836410000007F62
:1058E0000000004136080008082A1C08081C2A0885
:1058F00008FF10EE15F0DB0E006E030E016E360E83
:10590000F66E540EF76E000EF86EEEEC20F01200FC
:020000040030CA
:0D000100081A11FF8181FF0FC00FE00F40B2
:0200000400F00A
:100000004E01001513050001020007000700010062
:100010000050011002200450100022004500FFFF94
:100020000010002200470100022004701000FFFFB2
:1000300000FFFFFFFFFFFFFFFFFFFFFFFFFFFFFFCF
:10004000FFFFFFFFFFFFFFFFFFFFFFFFFFFFFFFFC0
:10005000FFFFFFFFFFFFFFFFFFFFFFFFFFFFFFFFB0
:10006000FFFFFFFFFFFFFFFFFFFFFFFFFFFFFFFFA0
:10007000FFFFFFFFFFFFFFFFFFFFFFFFFFFFFFFF90
:10008000FFFFFFFFFFFFFFFFFFFFFFFFFFFFFFFF80
:10009000FFFFFFFFFFFFFFFFFFFFFFFFFFFFFFFF70
:1000A000FFFFFFFFFFFFFFFFFFFFFFFFFFFFFFFF60
:1000B000FFFFFFFFFFFFFFFFFFFFFFFFFFFFFFFF50
:1000C000FFFFFFFFFFFFFFFFFFFFFFFFFFFFFFFF40
:1000D000FFFFFFFFFFFFFFFFFFFFFFFFFFFFFFFF30
:1000E000FFFFFFFFFFFFFFFFFFFFFFFFFFFFFFFF20
:1000F000FFFFFFFFFFFFFFFFFFFFFFFFFF0100000C
:00000001FF

