:10000000B7EF2CF00000000000EF00F0000000004F
:0A0010000000000000000000F3D71C
:10001C000201C651000A18E0938C060E0D6E0D2ECF
:10002C00FED70000938E060E0D6E0D2EFED700002F
:10003C00939E060E0D6E0D2EFED70000939C060EA1
:0A004C000D6E0D2EFED7000012000D
:100056000201C651000A32E0016A015007081CE39A
:10006600030146BF02D0939E01D0938E060E0D6EFD
:100076000D2EFED70000938C060E0D6E0D2EFED7AC
:100086000000939C060E0D6E03010D2EFDD7000099
:1000960046374691012AE1D7938E060E0D6E0D2E38
:1000A600FED70000938C060E0D6E0D2EFED70000B7
:0E00B600939C060E0D6E0D2EFED7000012005C
:1000C4000201C85103014225456FA6DFC7C246F3AA
:1000D400C0DF0301466BBDDF03014151B00F466F22
:1000E400B8DF030145510F0804E345C343F3446BF0
:1000F40019D045C302F00232029E0232029E02323D
:10010400029E0232029E02C044F302C000F0003696
:1001140000900036009000360090003600900050A9
:10012400455D436F43C346F394DF03014451100F0D
:10013400466F8FDF71DFC7C246F38BDF400E0301CA
:06014400466F87DF120088
:10014A000201C651000A12E0939E060E0D6E0D2E94
:10015A00FED70000938C060E0D6E0D2EFED7000002
:0E016A00938E060E0D6E0D2EFED700001200B5
:100178000B840BAEC7EF00F0010E036E026A016A32
:0A018800006A0A360232FF0E120070
:0E019200026A016A006A086A036A000E12001F
:1001A000086A096A100E0C6E0134083609360450CC
:1001B000085E0550D8A0053C095ED8B007D00450B1
:1001C00008260550D8B0053C0926D89000360136DF
:0601D0000C2EEAD712001C
:0801D6000AAE029E000E1200A9
:1001DE0003013B6B050E3B5D0AE23B513925E16E97
:1001EE00000E3A21E26E200EE66E3B2BF3D73B510A
:1001FE003925E16E000E3A21E26EE66A3B073B516D
:10020E0039253C6F000E3A213D6F0A0E046E000E2A
:10021E00056E37C300F038C301F0BBDF08C000F035
:10022E0009C001F0300E00263CC3E1FF3DC3E2FFE2
:10023E0000C0E6FF0A0E046E000E056E37C300F016
:10024E0038C301F0A6DF00C037F301C038F3000E4B
:10025E00011802E1000E001801E102D03B07CFD7D2
:02026E0012007C
:0A0270001D0E0D6E0D2EFED71200BC
:10027A000C6A0E6A0250D8A456EF01F001C002F0CF
:10028A0000C001F0006A0E860250D8A456EF01F0B1
:10029A0001C002F0016A0E960E880250D8B468EFC7
:1002AA0001F00E50035ED8A4D8A06DEF01F0D890EB
:1002BA0002BE72EF01F0003601360236032E5DEF00
:1002CA0001F06DEF01F0010E0C6E5EDF75EF01F0CB
:1002DA00020E0C6E4CDF75EF01F0040E0C6E76DF29
:0202EA00120000
:1002EC000B800BAE82EF01F0026A0AAEFF0E026EBB
:0C02FC00016E006E0A360232FF0E120086
:100308000B820BAE8EEF01F003680268016800688B
:080318000A360232FF0E12004A
:100320000301386B0201CA6B010EC96F37C338F382
:1003300003013837389138373891383738913837A2
:1003400038910201C15303E0080E0301382702016E
:10035000C95303E0040E030138270201CA5303E026
:10036000020E030138270201C05302E00301382BBB
:1003700055DEC7C246F36FDE38C346F36CDEE5DEFA
:10038000060E0C6E300E0D6E0D2EFED70C2EFCD709
:100390000000040E0301385F41DEC7C246F35BDE96
:1003A00038C346F358DED1DE060E0C6E300E0D6EED
:0C03B0000D2EFED70C2EFCD70000120012
:1003BC002FDEC7C246F349DE400E0301466F45DE11
:1003CC0038C341F337C342F377DE03013C6B3B5137
:1003DC003C5DD8B0B3D03C513925E96E000E3A21C2
:1003EC00EA6EEE50000A02E13E6B09D03C51392511
:1003FC00E96E000E3A21EA6E200EEE5C3E6F3D6B0C
:10040C003D510408D8A092D0050E3E03F3CF00F066
:10041C00F4CF01F03D510026000E0122A40E002461
:10042C00F66E5E0E0120F76E000EF86E000E01BE29
:10043C00FF0EF8220900F5CF3FF33851020A000EE7
:10044C00D8A4010E016E3851040A000ED8A4010E76
:10045C00006E005001163851060A000ED8A4010E89
:10046C00006E0150001629E03FB702D0409F01D02A
:10047C00408F3FB702D0409D01D0408D3FB502D098
:10048C00409B01D0408B3FB502D0409901D04089B0
:10049C003FB302D0409701D040873FB302D0409584
:1004AC0001D040853FB102D0409301D040833FB191
:1004BC0002D0409101D0408120D03FB502D0409F66
:1004CC0001D0408F3FB502D0409D01D0408D3FB34D
:1004DC0002D0409B01D0408B3FB302D0409901D059
:1004EC0040893FB102D0409701D040873FB102D044
:1004FC00409501D040854093409140C346F3A5DD23
:10050C000201C651040A010ED8A4000E016EC65198
:10051C00050A010ED8A4000E006E0150001203E073
:10052C0040C346F392DD03013D2B6AD7466B8DDD4C
:10053C000301466B8ADD03013C2B49D73851010F6F
:10054C00416F37C342F3B8DD03013C6B3B513C5D5B
:10055C00D8B0BBD03C513925E96E000E3A21EA6E79
:10056C00EE50000A02E13E6B09D03C513925E96E90
:10057C00000E3A21EA6E200EEE5C3E6F3D6B3D5153
:10058C000408D8A09AD0050E3E03F3CF00F0F4CFA8
:10059C0001F03D510026000E0122A40E0024F66E3F
:1005AC005E0E0120F76E000EF86E000E01BEFF0EFF
:1005BC00F8220900F5CF3FF33851020A000ED8A4F7
:1005CC00010E016E3851040A000ED8A4010E006E03
:1005DC00005001163851060A000ED8A4010E006E08
:1005EC000150001629E03FBF02D0409F01D0408F40
:1005FC003FBF02D0409D01D0408D3FBD02D0409BFB
:10060C0001D0408B3FBD02D0409901D040893FBB07
:10061C0002D0409701D040873FBB02D0409501D01B
:10062C0040853FB902D0409301D040833FB902D0FE
:10063C00409101D0408128D03FBD02D0409F01D0D5
:10064C00408F3FBD02D0409D01D0408D3FBB02D0BA
:10065C00409B01D0408B3FBB02D0409901D04089D8
:10066C003FB902D0409701D040873FB902D04095A6
:10067C0001D040853FB702D0409301D040833FB7B3
:10068C0002D0409101D0408140C346F3DEDC020130
:10069C00C651040A010ED8A4000E016EC651050AFB
:1006AC00010ED8A4000E006E0150001203E040C3EE
:1006BC0046F3CBDC03013D2B62D7466BC6DC030152
:0E06CC00466BC3DC03013C2B41D739DD120025
:1006DA000050086E0150006E016A026A036A0B6AD2
:1006EA000C6A960E036E0A6A00C001F008C000F098
:0806FA00086A026ABDDD12006E
:100702000CB0C3EF03F00CA269EF04F00E6A000E06
:100712000264DAEF03F0F00E0214D8A4A5EF03F09E
:10072200023A01380F0B02260138F00B016E003835
:100732000F0B01260038F00B006E08380F0B002655
:100742000838F00B086E0E84D89002BEBEEF03F09C
:1007520008360036013602360E2A02BEBEEF03F01C
:1007620008360036013602360E2A02BEBEEF03F00C
:1007720008360036013602360E2A0E5003645FEF49
:1007820004F0035E0BBC08AE64EF04F0D880800E68
:1007920008640030000E002201220222D8A064EF79
:1007A20004F0023201320032034A69EF04F064EFCE
:1007B20004F001C002F000C001F008C000F0086AB5
:1007C200000E0E86026411EF04F0F00E0214D8A49B
:1007D200F9EF03F0023A01380F0B02260138F00B51
:1007E200016E00380F0B01260038F00B006E0E84EC
:1007F200D89002BEBEEF03F00036013602360E2A52
:1008020002BEBEEF03F00036013602360E2A02BEE9
:10081200BEEF03F00036013602360E2ABEEF03F0B9
:1008220001C002F000C001F0006A000E0E960E88B0
:1008320002643EEF04F0F00E0214D8A429EF04F093
:10084200023A01380F0B02260138F00B016E0E84BA
:10085200D89002BEBEEF03F0013602360E2A02BE67
:10086200BEEF03F0013602360E2A02BEBEEF03F0DF
:10087200013602360E2ABEEF03F001C002F0016A11
:10088200000E0E8602646EEF04F0F00E0214D8A47D
:100892004DEF04F0023A0E84D89002BEBEEF03F090
:1008A20002360E2A02BEBEEF03F002360E2A02BE46
:1008B200BEEF03F002360E2ABEEF03F0010E0C6EFD
:1008C2005ADC71EF04F0020E0C6E84DC71EF04F05E
:1008D200040E0C6E18DD71EF04F0080E0C6E58DC7D
:0208E200120002
:1008E4000B1E0A1E091E081E082AD8B4092AD8B4E9
:0808F4000A2AD8B40B2A1200F5
:1008FC000450085E0550D8A0053C095E0650D8A0EF
:10090C00063C0A5E0750D8A0073C0B5E0336070E68
:10091C000C6E0334083609360A360B36045003A025
:10092C000ED0085E0550D8A0053C095E0650D8A034
:10093C00063C0A5E0750D8A0073C0B5E0DD008267B
:10094C000550D8B0053C09260650D8B0063C0A26FE
:10095C000750D8B0073C0B2603360C2EDAD70234DE
:10096C00083609360A360B36045003A00ED0085E42
:10097C000550D8A0053C095E0650D8A0063C0A5E7E
:10098C000750D8A0073C0B5E0DD008260550D8B0F8
:10099C00053C09260650D8B0063C0A260750D8B0AC
:1009AC00073C0B260236070E0C6E0234083609364D
:1009BC000A360B36045002A00ED0085E0550D8A0A3
:1009CC00053C095E0650D8A0063C0A5E0750D8A02C
:1009DC00073C0B5E0DD008260550D8B0053C092607
:1009EC000650D8B0063C0A260750D8B0073C0B2658
:1009FC0002360C2EDAD70134083609360A360B3695
:100A0C00045002A00ED0085E0550D8A0053C095E2B
:100A1C000650D8A0063C0A5E0750D8A0073C0B5ED7
:100A2C000DD008260550D8B0053C09260650D8B084
:100A3C00063C0A260750D8B0073C0B260136070E99
:100A4C000C6E0134083609360A360B36045001A0F8
:100A5C000ED0085E0550D8A0053C095E0650D8A003
:100A6C00063C0A5E0750D8A0073C0B5E0DD008264A
:100A7C000550D8B0053C09260650D8B0063C0A26CD
:100A8C000750D8B0073C0B2601360C2EDAD70034B1
:100A9C00083609360A360B36045001A00ED0085E13
:100AAC000550D8A0053C095E0650D8A0063C0A5E4D
:100ABC000750D8A0073C0B5E0DD008260550D8B0C7
:100ACC00053C09260650D8B0063C0A260750D8B07B
:100ADC00073C0B260036070E0C6E00340836093620
:100AEC000A360B36045000A00ED0085E0550D8A074
:100AFC00053C095E0650D8A0063C0A5E0750D8A0FB
:100B0C00073C0B5E0DD008260550D8B0053C0926D5
:100B1C000650D8B0063C0A260750D8B0073C0B2626
:100B2C0000360C2EDAD700B00ED004500826055033
:100B3C00D8B0053C09260650D8B0063C0A2607500A
:080B4C00D8B0073C0B26120093
:100B54000B6A0350D8B4F0EF05F002500A6E028E0F
:100B64008E0E035E03AEF4EF05F0036C080E035C17
:100B7400D8A0CFEF05F0036E013602C001F0026A7F
:100B8400080E035CD8A0CFEF05F0036E0136016AAE
:100B94000350D8A4D890D9EF05F00350D8B4D9EFB6
:100BA40005F0D89002320132032ED3EF05F00BBCCE
:100BB40001A0E6EF05F0D8A0E6EF05F0012AD8B4CD
:100BC400022A02BE03EF06F00AAE09EF06F0021E87
:100BD400011E012AD8B4022A09EF06F0026A016A4A
:100BE40009EF06F00B800BAE0DEF06F0026A0AAEB9
:100BF4000DEF06F0FF0E026E016E0A3602320DEFA3
:100C040006F0010E0C6E76EC01F00FEF06F0000E0C
:100C14000C6E0FEF06F0FF0E0C6E0150006E0250CA
:040C2400016E12004B
:100C2800830EC2162DC300F00036009000360090E7
:100C38000050C21238EC01F0C282C2A201D0FDD726
:100C4800C4CF01F0006AC3500012000E0112120056
:100C580000C008F00150006E016A026A036A0B6A5C
:100C68000C6A016A026A036A960E036E0A6A00AE8B
:100C780044EF06F0081E001E082AD8B4002A0A8E7F
:100C880000C001F008C000F0086A026A3DEC01F0FB
:020C9800120048
:100C9A00030E0C6E950E0D6E0D2EFED70C2EFCD784
:020CAA00120036
:100CAC00220E0C6E086A096A0A6A0B6A0C06D8B422
:100CBC001FD0D8900B320A3209320832033202327A
:100CCC0001320032D8A0F2D70C06D8B409D00450A7
:100CDC0008260550092206500A2207500B22EAD793
:100CEC00045008260550092206500A2207500B22F0
:020CFC001200E4
:100CFE00086A096A000E0762036404EF07F00250E7
:100D0E0006180A6E075003267E0ED8A095EF06F041
:100D1E00035ED8B009EF07F099EF06F0035ED8A096
:100D2E000EEF07F0028E068E02C00EF001C00BF021
:100D3E0000C00DF000500402F4CF0CF0015005027B
:100D4E00F4CF00F0F3CF08F00402F3500C26F45069
:100D5E000822000E00220D500502F3500C26F4500E
:100D6E000822000E002202500402F3500826F4500E
:100D7E00002202500502016A000E0122F3500026E5
:100D8E00F45001220D500602F3500826F4500022B2
:100D9E00026A000E012202220B500602F3500026B8
:100DAE00F4500122000E02220E500602F3500126CC
:100DBE00F450022202BEECEF06F008360036013681
:100DCE0002360306D8B40EEF07F0FFEF06F0D88018
:100DDE00800E08640030000E002201220222D8A0EC
:100DEE00FFEF06F0023201320032034A09EF07F03C
:100DFE000AAE029E000E11EF07F0010EC9EC00F0D4
:100E0E0011EF07F0020E84EC01F011EF07F0040E63
:060E1E00BCEC00F0120024
:100E24000201C651040A010ED8A4000E016EC65177
:100E3400050A010ED8A4000E006E015000120DE048
:100E44002EC337F32DC338F32FC339F330C33AF32A
:100E540031C33BF3DEEC01F05DD0C651020A010E52
:100E6400D8A4000E016EC651030A010ED8A4000EC8
:100E7400006E0150001214E0070E03012E03F3CF9D
:100E840037F3040E37272DC338F3383738912FC37F
:100E940039F330C33AF331C33BF3DEEC01F03AD01B
:100EA400C06B2DC300F00036009000360090005057
:100EB400080F0301376F90EC01F02EC337F390EC69
:100EC40001F0010EC06F0301326B3151325D22E239
:100ED40032512F25E96E000E3021EA6EEECF01F07B
:100EE40001C037F33733379F3733379F3733379F53
:100EF4003733379F90EC01F0030132512F25E96E0F
:100F0400000E3021EA6EEECF37F390EC01F00301CE
:060F1400322BDBD71200B6
:100F1A000301336B346B2DC335F32EC336F3800EC6
:100F2A002E19006E800E005C02E1000E2D5D0BE2B0
:100F3A00010E336F000E346F2D510008356F2EC32A
:100F4A0036F3000E365735C337F336C338F32FC39B
:100F5A0039F330C33AF3EFEC00F0060E316F000EAE
:100F6A00326F000E006E3251005C02E1315100080E
:100F7A0019E231512F25E16E32513021E26E010E14
:100F8A00315D006E000E3259016E00502F25E96E58
:100F9A0001503021EA6EEECFE6FF010E315F000EFE
:100FAA00325BDFD72FC3E1FF30C3E2FF200EE66ECC
:100FBA00335134111AE0316B326B31512F25E96EFE
:100FCA0032513021EA6EEE50200A03E1314B322BC6
:100FDA00F4D7010E315F000E325B31512F25E16EDD
:0C0FEA0032513021E26E2D0EE66E120036
:080FF6000B6A0B86FF0E1200CE
:100FFE0004000201BD6BBE6B39A104D0AF51BD27F9
:10100E00B051BE2339A304D0AD51BD27AE51BE237E
:10101E0039A504D0B351BD27B451BE2339A704D08E
:10102E00B951BD27BA51BE2339A904D0B751BD2736
:10103E00B851BE2339AB04D0B551BD27B651BE232E
:10104E0039AD04D0A351BD27A451BE23800E270A6B
:10105E00006E800EBE19005C02E1BD510F081EE24B
:10106E00320EBD25006E000EBE21016E00C0BDF217
:10107E0001C0BEF200C02DF301C02EF3D80E030145
:10108E002F6F020E306F42DFD9C2D1F2DAC2D2F226
:10109E002E0E0201D36FDBC2D4F225D0BDC22DF3CA
:1010AE00BEC22EF3D80E03012F6F020E306F2EDF4D
:1010BE000201DA51200A03E0DAC2D1F202D0300E78
:1010CE00D16F2E0ED26FDB51200A03E0DBC2D3F2BA
:1010DE0002D0300ED36FDC51200A03E0DCC2D4F212
:1010EE0002D0300ED46FD051040A010ED8A4000ED7
:1010FE00016ED051050A010ED8A4000E006E0150EB
:10110E0000122EE09D51010A04E1040E0301266F28
:10111E0003D00301060E266F26C32DF3100E2E6F7D
:10112E00330E2F6F000E306F020E316F74DE26C33A
:10113E002DF3580E03012E6F300E2F6F000E306FF1
:10114E00020E316F68DE26C32DF3280E03012E6FBB
:10115E00D10E2F6F020E306F040E316F5CDE6DD02C
:10116E000201D051020A010ED8A4000E016ED05118
:10117E00030A010ED8A4000E006E015000122DE0DD
:10118E009D51010A03E10301266B03D00301010EF9
:10119E00266F26C32DF3090E2E6F360E2F6F000EFF
:1011AE00306F020E316F37DE26C32DF30F0E0301A3
:1011BE002E6F3E0E2F6F000E306F020E316F2BDE34
:1011CE0026C32DF30B0E03012E6FD10E2F6F020EC1
:1011DE00306F040E316F1FDE30D00201D051010A84
:1011EE002CE19D51010A03E10301266B03D003019B
:1011FE00010E266F26C32DF3090E2E6F3B0E2F6F99
:10120E00000E306F020E316F06DE26C32DF30F0E69
:10121E0003012E6F390E2F6F000E306F010E316FDE
:10122E00FADD26C32DF30B0E03012E6FD10E2F6F99
:10123E00020E306F040E316FEEDD04000201BD6B45
:10124E00BE6B3AA104D0A151BD27A251BE233AA331
:10125E0004D09F51BD27A051BE233AA504D0A5515D
:10126E00BD27A651BE233AA704D0AB51BD27AC5122
:10127E00BE233AA904D0A951BD27AA51BE233AAB29
:10128E0004D0A751BD27A851BE233AAD04D0BB51FF
:10129E00BD27BC51BE23BDC22DF3BEC22EF3D80E48
:1012AE0003012F6F020E306F31DEDAC2D1F2DBC2D4
:1012BE00D2F2DCC2D3F2DDC2D4F20201D051040A62
:1012CE00010ED8A4000E016ED051050A010ED8A44D
:1012DE00000E006E015000122EE09D51010A04E135
:1012EE00060E0301266F03D00301040E266F26C3DC
:1012FE002DF3100E2E6F1B0E2F6F000E306F020E81
:10130E00316F89DD26C32DF3580E03012E6F180E93
:10131E002F6F000E306F020E316F7DDD26C32DF361
:10132E00280E03012E6FD10E2F6F020E306F040E9A
:10133E00316F71DD6DD00201D051020A010ED8A4B9
:10134E00000E016ED051030A010ED8A4000E006EDD
:10135E00015000122DE09D51010A04E1010E03011E
:10136E00266F02D00301266B26C32DF3090E2E6FB6
:10137E00150E2F6F000E306F020E316F4CDD26C32F
:10138E002DF30F0E03012E6F1E0E2F6F000E306FFA
:10139E00020E316F40DD26C32DF30B0E03012E6FAF
:1013AE00D10E2F6F020E306F040E316F34DD30D040
:1013BE000201D051010A2CE19D51010A04E1010EF6
:1013CE000301266F02D00301266B26C32DF3090EEF
:1013DE002E6F2D0E2F6F000E306F020E316F1BDD34
:1013EE0026C32DF30F0E03012E6F2B0E2F6F000E43
:1013FE00306F010E316F0FDD26C32DF30B0E03017F
:10140E002E6FD10E2F6F020E306F040E316F03DD73
:04141E0004001200B4
:101422000450000A12E10550000A0FE10650000ABA
:101432000CE10750000A09E1FF0E006EFF0E016E7B
:101442007F0E026EFF0E036EA7D0086A096A07506C
:10145200D8B4BCEF0AF00350D8B4C0EF0AF002507F
:1014620006180A6E028E068E0E6A02C008F001C0CD
:101472000CF000C00DF004500D5E0550D8A0053CE4
:101482000C5E0650D8A0063C085E086A0C6A0D6A1B
:10149200D8A053EF0AF0D89002320132003208325B
:1014A200010E0E6E0750035ED8A060EF0AF07E0EAA
:1014B2000E240326D8B0C5EF0AF066EF0AF07E0EBE
:1014C2000E240326D8A0CAEF0AF0180E0B6E0D36B2
:1014D2000C3608360036013602360E360450005EEF
:1014E2000550D8A0053C015E0650D8A0063C025E1D
:1014F20006340E120EA081EF0AF00D808CEF0AF076
:10150200045000260550D8B0053C01260650D8B03C
:10151200062802260D900B2E68EF0AF0B2EF0AF0B1
:10152200D8900036013602360E360450005E055061
:10153200D8A0053C015E0650D8A0063C025E0634E7
:101542000E10010B0D26D8B00C2AD8B4082AD8A444
:10155200B2EF0AF008320C320D32032AD8B4C5EFCA
:101562000AF00AAE089E0850026E0C50016E0D5031
:10157200006ECDEF0AF0010E3DDDCDEF0AF0020E56
:10158200C9EC00F0CDEF0AF0040E84EC01F0CDEFCF
:0A1592000AF0080EBCEC00F0120095
:10159C00A00E0301286F0F0E296F000E2A6F2B6F00
:1015AC00A00E006E0F0E016E000E026E000E036E8A
:1015BC0026C304F027C305F0000E066E076E56EC2A
:1015CC0006F000C028F301C029F302C02AF303C0BF
:1015DC002BF3000E035C08E1000E025C05E1020E29
:1015EC00015C02E1940E005C01E231D0940E285FA4
:1015FC00020E295B000E2A5B2B5B050E006E005061
:10160C0007E02B332A33293328332B9FFF0FF8D7CE
:10161C0028C300F029C301F02AC302F02BC303F046
:10162C00010E285F000E295B2A5B2B5B005001101A
:10163C00021003100CE0000000000000000000008D
:10164C00000000000000000000000000E1D71200C4
:10165C0003012C6B28C301F0010E006E015004E055
:10166C0000360090FF0FFBD700C02BF326C3E9FF19
:10167C0027C3EAFF0050EE14016E0152010ED8A4EC
:10168C00000E006E2A51001A1AE02951000806E2D9
:10169C004DEC06F04DEC06F02907F7D726C3E9FF11
:1016AC0027C3EAFF2B51EE14016E0152010ED8A490
:1016BC00000E006E2A51001A02E0FF0E2C6F2CC394
:0416CC0000F0120018
:1016D0000EEC00F0C7C246F32BEC00F0800E0301C5
:1016E000466F2BEC00F026C346F32BEC00F0A5EC84
:0416F00000F01200F4
:1016F4000450000A12E10550000A0FE10650000AE6
:101704000CE10750000A09E1FF0E006EFF0E016EA6
:10171400FF0E026E7F0E036E99D00C6A07BE0C2A70
:101724000D6A0B6A0A6A096A086A035002100110FA
:101734000010D8B485D0035007180E6E0EBE0D1ECF
:1017440007AE0BD0041E051E061E071E042AD8B4BD
:10175400052AD8B4062AD8B4072A03AE0BD0001E33
:10176400011E021E031E002AD8B4012AD8B4022A7C
:10177400D8B4032A035007100E6E0EBE1DD07EECA3
:1017840004F00CBE36D00DAE5BD0001E011E021E4E
:10179400031E002AD8B4012AD8B4022AD8B4032AD2
:1017A400081E091E0A1E0B1E082AD8B4092AD8B41A
:1017B4000A2AD8B40B2A44D007AE15D003BE0DD0E4
:1017C40003500B6E02500A6E0150096E0050086EF1
:1017D400036A026A016A006AD6D7036A026A016A66
:1017E400006A002A000C031E021E011E001E0C8E3D
:1017F400C6D7082AD8B4092AD8B40A2AD8B40B2AD6
:101804000450085CD8A4BFD70550095CD8A4BBD742
:1018140006500A5CD8A4B7D707500B5CD8A4B3D73A
:101824000B6A0A6A096A086A002AD8B4012AD8B479
:10183400022AD8B4032A03AEA6D70E6A0E88FF0C78
:0E1844000E6A0CA002D072EC04F0000F12002D
:101852000050086E0150006E0250016E0350026E7D
:10186200036A0B6A0C6A9E0E036E0A6A02AE46EFA8
:101872000CF0081E001E011E021E082AD8B4002AFF
:10188200D8B4012AD8B4022A0A8E020E0C6E81EC58
:0418920003F012004D
:10189600800E006E800E03012719005C02E12651BE
:1018A600500803E3006A016ABBD0800E006E800E0A
:1018B6002719005C02E12651AB0805E3F40E262742
:1018C600000E2723A9D0800E010A006E800E27196C
:1018D600005C02E12651480805E3FE0E2627000EAD
:1018E60027239AD0800E020A006E800E2719005C0C
:1018F60002E12651460805E3180E2627010E272386
:101906008BD0800E030A006E800E2719005C02E160
:101916002651340805E3290E2627010E27237CD0FD
:10192600800E040A006E800E2719005C02E1265123
:101936004C0805E3360E2627010E27236DD0800EB0
:10194600080A006E800E2719005C02E12651850800
:1019560005E3AE0E2627010E27235ED0800E0C0A65
:10196600006E800E2719005C02E12651FA0805E395
:10197600E40E2627010E27234FD0800E120A006E92
:10198600800E2719005C02E126510F0805E3120EAE
:101996002627020E272340D0800E160A006E800EE0
:1019A6002719005C02E12651E60805E3880E262782
:1019B600020E272331D0800E1B0A006E800E2719D7
:1019C600005C02E12651EA0805E3E70E2627020E2F
:1019D600272322D0800E210A006E800E2719005C74
:1019E60002E12651360805E3200E2627030E27239B
:1019F60013D0800E290A006E800E2719005C02E1C2
:101A06002651040805E3480E2627030E272304D093
:101A16005C0E2627030E272326C300F027C301F0FA
:021A26001200AC
:101A2800025006180E6E086A096A0B6A03500764AA
:101A380007EF0EF006500A6E068E028E03500B6EEC
:101A48000750036E000E0B6457EF0DF00B50075E46
:101A5800D8B4F8EF0DF0070E0764C6EF0DF0075E77
:101A680000C008F001C000F002C001F0026A074E91
:101A7800F8EF0DF007649BEF0DF0075E00C008F06B
:101A880001C000F0016A074EF8EF0DF0076479EF26
:101A98000DF0075E00C008F0006A074EF8EF0DF081
:101AA800076460EF0DF00AC002F005C001F004C041
:101AB80000F0086A24EF0FF0030E07646BEF0DF0D7
:101AC800075E08380F0B086E074EF8EF0DF0D89038
:101AD8000832074EF8EF0DF0D8900832074EF8EFAD
:101AE8000DF0D8900832F8EF0DF0030E07648AEF76
:101AF8000DF0075E08380F0B086E0038F00B08264B
:101B080000380F0B006E074EF8EF0DF0D89000323A
:101B18000832074EF8EF0DF0D89000320832074E21
:101B2800F8EF0DF0D89000320832F8EF0DF0030E00
:101B38000764B2EF0DF0075E08380F0B086E003827
:101B4800F00B082600380F0B006E0138F00B00264A
:101B580001380F0B016E074EF8EF0DF0D8900132E7
:101B680000320832074EF8EF0DF0D89001320032FB
:101B78000832074EF8EF0DF0D890013200320832E3
:101B8800F8EF0DF0030E0764E3EF0DF0075E083879
:101B98000F0B086E0038F00B082600380F0B006E8C
:101BA8000138F00B002601380F0B016E0238F00BDC
:101BB800012602380F0B026E074EF8EF0DF0D89091
:101BC8000232013200320832074EF8EF0DF0D89099
:101BD8000232013200320832074EF8EF0DF0D89089
:101BE8000232013200320832096A000E0EAEECEF02
:101BF8000EF0081E001E011E021E082A00220122E5
:101C08000222ECEF0EF00750D8A40DEF0EF024EFEF
:101C18000FF0096A02C00AF0028E068E0750035CB4
:101C2800076ED8B4DFEF0EF0070E0764ADEF0EF0C5
:101C3800075E0450096E0550046E0650056E066A6C
:101C4800074EDFEF0EF0070E076482EF0EF0075E17
:101C58000450096E0550046E056A074EDFEF0EF05A
:101C6800070E076460EF0EF0075E0450096E046A01
:101C7800074EDFEF0EF0070E076447EF0EF00AC0BD
:101C880002F024EF0FF0030E076452EF0EF0075E28
:101C980009380F0B096E074EDFEF0EF0D8900932A6
:101CA800074EDFEF0EF0D8900932074EDFEF0EF047
:101CB800D8900932DFEF0EF0030E076471EF0EF0D3
:101CC800075E09380F0B096E0438F00B0926043833
:101CD8000F0B046E074EDFEF0EF0D8900432093276
:101CE800074EDFEF0EF0D89004320932074EDFEFCF
:101CF8000EF0D89004320932DFEF0EF0030E0764BD
:101D080099EF0EF0075E09380F0B096E0438F00BD7
:101D1800092604380F0B046E0538F00B0426053825
:101D28000F0B056E074EDFEF0EF0D8900532043228
:101D38000932074EDFEF0EF0D8900532043209322F
:101D4800074EDFEF0EF0D890053204320932DFEF8C
:101D58000EF0030E0764CAEF0EF0075E09380F0B8A
:101D6800096E0438F00B092604380F0B046E053889
:101D7800F00B042605380F0B056E0638F00B052608
:101D880006380F0B066E074EDFEF0EF0D8900632BE
:101D9800053204320932074EDFEF0EF0D8900632D2
:101DA800053204320932074EDFEF0EF0D8900632C2
:101DB800053204320932086A000E0EAEECEF0EF05E
:101DC800091E041E051E061E092A042205220622D3
:101DD800095008260450002205500122065002220C
:101DE8000EBE03EF0FF0D8A012EF0FF0023201324F
:101DF80000320832033E12EF0FF01EEF0FF0D8B09A
:101E080018EF0FF0000E081E001E011E021E082A01
:101E18000022012202220A7E18EF0FF0010E0C6E3A
:101E280081EC03F026EF0FF0020E0C6E81EC03F04C
:101E380026EF0FF0040E0C6E84EC01F026EF0FF085
:061E4800000E0C6E1200FA
:101E4E000B6A0A6A096A00500402F4CF09F0F3CF54
:101E5E0008F001500502F4CF0BF0F3CF0AF000505A
:101E6E000502F3500926F4500A22E86A0B220150AB
:101E7E000402F3500926F4500A22E86A0B2208C025
:101E8E0000F009C001F00AC002F00BC003F012000E
:101E9E0000C008F00B6A0C6A9E0E036E0A6A026A94
:0E1EAE00016A006A020E0C6E81EC03F0120055
:101EBC00010E03012D6F14EC06F06DEC03F0890E8E
:101ECC00046E410E056E1C0E066E810E076E7FECC5
:081EDC0006F0AAEC05F012006B
:101EE40003012D6B14EC06F000C026F301C027F3A8
:101EF4000150040A02E1000E001804E1010E02017F
:101F04005E6F02D002015E6B26C300F027C301F0AE
:101F14002CEC06F0890E046E410E056E1C0E066E46
:0E1F2400810E076E7FEC06F0AAEC05F01200AD
:101F32000A6A0350D8A40A800750D8A40A820A5019
:101F4200D8B4FCEF0FF0030AD8B4B5EF0FF00AB023
:101F5200B0EF0FF006AEFAEF0FF0F8EF0FF002AEAF
:101F6200F8EF0FF0FAEF0FF00250800B0A6E029EAC
:101F72000650800B069E0A18D8B4C6EF0FF00A501E
:101F8200D8B4F8EF0FF0FAEF0FF00750035CD8B4B3
:101F9200D0EF0FF0D8A0ECEF0FF0F2EF0FF00650F9
:101FA200025CD8B4DAEF0FF0D8A0ECEF0FF0F2EF4A
:101FB2000FF00550015CD8B4E4EF0FF0D8A0ECEFBD
:101FC2000FF0F2EF0FF00450005CD8B4FCEF0FF00A
:101FD200D8B0F2EF0FF00A52D8B4FAEF0FF0F8EFE0
:101FE2000FF00A52D8B4F8EF0FF0FAEF0FF0D880E2
:0E1FF2001200D8901200D880D884120012007D
:10200000040070DF00C008F301C009F3000E01BE38
:10201000FF0E03010A6F0B6F51DF00C00CF301C00C
:102020000DF3000E01BEFF0E03010E6F0F6F0201D4
:102030006151010A19E108C300F009C301F0030E60
:10204000046E000E056E03DF00C026F301C027F307
:1020500022DC2CEC06F000C010F301C011F302C02A
:1020600012F303C013F31AD008C300F009C301F040
:102070000AC302F00BC303F0030E046E000E056EDC
:10208000066E076E56EC06F029EC0CF000C010F35B
:1020900001C011F302C012F303C013F30301800E59
:1020A0000F19006E800E0B19005C08E10A510E5DDD
:1020B00005E109510D5D02E108510C5D08E3E70EF1
:1020C000086F030E096F000E0A6F0B6F45D00C519D
:1020D0000825006E0D510921016E0E510A21026E74
:1020E0000F510B21036E640E046E000E056E066E1A
:1020F000076E56EC06F008C304F009C305F00AC3E6
:1021000006F00BC307F00C51045E0D51055A0E5139
:10211000065A0F51075A7AEC0BF000C008F301C0C1
:1021200009F302C00AF303C00BF3800E046E800EA5
:102130000318045C08E10250000805E1015003089F
:1021400002E10050E70808E2E70E0301086F030E02
:10215000096F000E0A6F0B6F63C200F0A0DE10C3A0
:1021600004F011C305F012C306F013C307F07FECAF
:1021700006F0000E046E000E056E7A0E066E880ED6
:10218000076E11EC0AF000C010F301C011F302C099
:1021900012F303C013F3F40E046EFD0E056E340E3D
:1021A000066E7F0E076E11EC0AF000C010F301C03E
:1021B00011F302C012F303C013F302013851010AF4
:1021C00025E110C300F011C301F012C302F013C3E4
:1021D00003F010C304F011C305F012C306F013C3DB
:1021E00007F07FEC06F0000E046E000E056E480E40
:1021F000066E840E076E11EC0AF000C010F301C0E9
:1022000011F302C012F303C013F324D010C300F083
:1022100011C301F012C302F013C303F010C304F0A2
:1022200011C305F012C306F013C307F07FEC06F0EC
:10223000000E046E000E056E200E066E810E076EF7
:1022400011EC0AF000C010F301C011F302C012F348
:1022500003C013F310C300F011C301F012C302F066
:1022600013C303F0000E046E000E056E000E066E22
:102270007E0E076E14EC0DF000C010F301C011F3D8
:1022800002C012F303C013F3AAEC05F000C0CEF2B3
:1022900001C0CFF2800E0118026E800E025C02E1D6
:1022A0000A0E005C06E2010E0201E76F000EE86F05
:1022B0001AD0800E03010B19006E800E005C08E13D
:1022C000000E0A5D05E1000E095D02E1640E085D85
:1022D00006E2E70E0201E76F030EE86F04D008C3C1
:0822E000E7F209C3E8F2120065
:1022E8000400030109510201601903E15F51030170
:1022F8000819D8B4ABD0030108C35FF209C360F270
:10230800000E091902E1010E08193AE10201D05143
:10231800040A010ED8A4000E016ED051050A010E60
:10232800D8A4000E006E015000120EE0020E030148
:102338002D6F400E2E6FF60E2F6F000E306F040EAD
:10234800316F12EC07F018D00201D051000A0EE0EC
:10235800010E03012D6F040E2E6FF10E2F6F000E6C
:10236800306F040E316F12EC07F006D00201D05125
:10237800000A02E18A8C8A8E02015F6B606B66D06C
:1023880008C35FF209C360F208C32DF309C32EF333
:10239800D80E03012F6F020E306F8DEC07F0DBC2F1
:1023A800D1F22E0E0201D26FDCC2D3F2DDC2D4F21A
:1023B800D051040A010ED8A4000E016ED051050AAE
:1023C800010ED8A4000E006E015000120EE0020E9D
:1023D80003012D6F400E2E6FD10E2F6F020E306F3E
:1023E800040E316F12EC07F031D00201D051000A0F
:1023F8000EE0010E03012D6F040E2E6FD10E2F6F0C
:10240800020E306F040E316F12EC07F01FD002017C
:10241800D051000A1BE1800E006E800E03010919DD
:10242800005C02E10851960803E38A9C8A8E0ED06C
:10243800800E006E800E0919005C02E10851FA084E
:1024480003E3819C819E02D0818C819E040012004E
:102458000201C651010806E2AF0E0301266F68ECBF
:102468000BF00ED0C651010A0BE1010EC16FC06B13
:102478000301376B90EC01F00301376B90EC01F02E
:02248800120040
:10248A00810E0301266F0F0E276F286B190E296F15
:10249A002A6B2EEC0BF000C008F3810E266F0F0E8C
:1024AA00276F010E286F190E296F2A6B2EEC0BF07D
:1024BA0000500813810E266F0F0E276F020E286F29
:1024CA00190E296F2A6B2EEC0BF00851001203E04B
:0824DA00010E02018A6F1200DD
:1024E20002010651000A25E1030108B102D08A96D1
:1024F20001D08A8608B302D0899401D0898408B5B4
:1025020002D08A9801D08A8808B702D0899601D071
:10251200898608B902D08A9A01D08A8A08BB02D079
:10252200899A01D0898A08BD02D0899801D0898808
:1025320024D0030108B102D08A8601D08A9608B35A
:1025420002D0898401D0899408B502D08A8801D04A
:102552008A9808B702D0898601D0899608B902D034
:102562008A8A01D08A9A08BB02D0898A01D0899AC4
:1025720008BD02D0898801D08998CBC226F3CCC28B
:0825820027F3CEEC0AF0120071
:10258A00040002013651000A010ED8A4000E016EA1
:10259A003551010A010ED8A4000E006E0050011632
:1025AA00800E03010B19006E800E005C02E1640EBE
:1025BA000A5D000ED8B0010E006E01500016D8B4A4
:1025CA00ABD002013751000AD8A4A2D0D051040AD4
:1025DA00010ED8A4000E016ED051050A010ED8A42E
:1025EA00000E006E015000122CE03851010A0EE173
:1025FA00040E03012D6F100E2E6F110E2F6F020E97
:10260A00306F080E316F12EC07F00DD0040E030183
:10261A002D6F100E2E6F080E2F6F020E306F080EE0
:10262A00316F12EC07F0060E03012D6F100E2E6F9C
:10263A001A0E2F6F020E306F080E316F12EC07F070
:10264A0067D00201D051020A010ED8A4000E016E11
:10265A00D051030A010ED8A4000E006E01500012D8
:10266A002AE03851010A0DE103012D6B090E2E6F84
:10267A002C0E2F6F020E306F080E316F12EC07F01E
:10268A000CD003012D6B090E2E6F230E2F6F020E35
:10269A00306F080E316F12EC07F0010E03012D6F37
:1026AA00090E2E6F430E2F6F020E306F080E316F18
:1026BA0012EC07F02DD00201D051010A29E138515C
:1026CA00010A0DE103012D6B090E2E6F3B0E2F6FD0
:1026DA00020E306F070E316F12EC07F00CD00301B7
:1026EA002D6B090E2E6F4C0E2F6F020E306F070ED8
:1026FA00316F12EC07F0010E03012D6F090E2E6FD8
:10270A00560E2F6F020E306F070E316F12EC07F064
:10271A00010E0201376F08D002013751010A02E1A6
:10272A00FFEC07F00201376B0400030109510201B3
:10273A00551903E1545103010819D8B49AD308C3AF
:10274A0054F209C355F202013851000A49E1800ED8
:10275A0003010919006E800E005C02E1640E085D37
:10276A001EE3050E0825006E000E0921016E00C049
:10277A0008F301C009F300C02DF301C02EF3D80EEF
:10278A002F6F020E306F8DEC07F0DAC2D1F2DBC286
:10279A00D2F2DCC2D3F2570E0201D46F20D008C3A2
:1027AA002DF309C32EF3D80E03012F6F020E306FDB
:1027BA008DEC07F00201DC51200A03E0DCC2D1F201
:1027CA0002D0300ED16F2E0ED26FDD51200A03E0F7
:1027DA00DDC2D3F202D0300ED36F570ED46F32D08F
:1027EA00800E03010919006E800E030A005C02E1E3
:1027FA00E70E085D14E208C32DF309C32EF3D80EC1
:10280A002F6F020E306F8DEC07F0DBC2D1F2DCC203
:10281A00D2F2DDC2D3F2570E0201D46F13D008C32D
:10282A002DF309C32EF3D80E03012F6F020E306F5A
:10283A008DEC07F0DAC2D1F2DBC2D2F2DCC2D3F2FB
:10284A00DDC2D4F20201D051040A010ED8A4000E4E
:10285A00016ED051050A010ED8A4000E006E015077
:10286A0000120DE003012D6B400E2E6FD10E2F6F5B
:10287A00020E306F040E316F12EC07F010D0020115
:10288A00D051000A0CE003012D6B040E2E6FD10EFD
:10289A002F6F020E306F040E316F12EC07F0040036
:1028AA0002013751010AD8A4E4D23951000A010EB3
:1028BA00D8A4000E016E3A51000A010ED8A4000EE7
:1028CA00006E0150001604E00AC3DFF20BC3E0F207
:1028DA00DFC200F0E0C201F02CEC06F000C01EF3EB
:1028EA0001C01FF302C020F303C021F3000E046EDF
:1028FA00000E056E480E066E850E076E1EC300F0AA
:10290A001FC301F020C302F021C303F011EC0AF047
:10291A0000C01AF301C01BF302C01CF303C01DF36D
:10292A001EC304F01FC305F020C306F021C307F03D
:10293A00000E006E000E016E480E026E850E036ECA
:10294A0011EC0AF01AC304F01BC305F01CC306F00D
:10295A001DC307F014EC0DF000C01AF301C01BF3FD
:10296A0002C01CF303C01DF3CDC200F04FEC0FF000
:10297A001AC304F01BC305F01CC306F01DC307F0FD
:10298A007FEC06F0000E046E000E056E200E066E39
:10299A00820E076E11EC0AF01F0E046E850E056E8C
:1029AA006B0E066E7B0E076E7FEC06F0000E046E51
:1029BA00000E056E000E066E7F0E076E14EC0DF00B
:1029CA0000C004F001C005F002C006F003C007F021
:1029DA00000E006E000E016E000E026E7F0E036E78
:1029EA0011EC0AF000C022F301C023F302C024F361
:1029FA0003C025F322C30CF323C30DF324C30EF340
:102A0A0025C30FF30AC300F00BC301F02CEC06F048
:102A1A0000C01EF301C01FF302C020F303C021F35C
:102A2A00000E046E000E056E480E066E850E076EC9
:102A3A001EC300F01FC301F020C302F021C303F03C
:102A4A0011EC0AF0000E046E000E056E000E066E02
:102A5A00800E076E14EC0DF000C01AF301C01BF3D0
:102A6A0002C01CF303C01DF31EC304F01FC305F00C
:102A7A0020C306F021C307F0000E006E000E016E9F
:102A8A00480E026E850E036E11EC0AF01AC304F0AA
:102A9A001BC305F01CC306F01DC307F014EC0DF0B0
:102AAA0000C004F001C005F002C006F003C007F040
:102ABA00000E006E000E016E000E026E810E036E95
:102ACA0011EC0AF000C010F301C011F302C012F3B6
:102ADA0003C013F3000E046E000E056E000E066EA0
:102AEA007F0E076E22C300F023C301F024C302F055
:102AFA0025C303F099EC0FF0000ED8B0010E006E5A
:102B0A00005209E0000E03010C6F000E0D6F000E5B
:102B1A000E6F7F0E0F6F000E046E000E056E000E14
:102B2A00066E7F0E076E10C300F011C301F012C3C8
:102B3A0002F013C303F099EC0FF0000ED8B0010EA7
:102B4A00006E005209E00301000E106F000E116FB3
:102B5A00000E126F7F0E136F08C300F009C301F055
:102B6A002CEC06F00CC304F00DC305F00EC306F0FE
:102B7A000FC307F07FEC06F010C304F011C305F091
:102B8A0012C306F013C307F07FEC06F0AAEC05F0B7
:102B9A0000C014F301C015F30CC300F00DC301F01B
:102BAA000EC302F00FC303F010C304F011C305F003
:102BBA0012C306F013C307F07FEC06F0000E046E92
:102BCA00000E056E480E066E850E076E7FEC06F047
:102BDA0000C016F301C017F302C018F303C019F3BB
:102BEA00000E046E000E056E480E066E850E076E08
:102BFA0099EC0FF0000ED8B0010E006E005209E0F9
:102C0A000301000E166F000E176F460E186F850E21
:102C1A00196F02013851000A49E1800E03011519A2
:102C2A00006E800E005C02E1640E145D1EE3050E68
:102C3A001425006E000E1521016E00C014F301C0A8
:102C4A0015F300C02DF301C02EF3D80E2F6F020E1C
:102C5A00306F8DEC07F0DAC2D1F2DBC2D2F2DCC2FD
:102C6A00D3F2570E0201D46F20D014C32DF315C32B
:102C7A002EF3D80E03012F6F020E306F8DEC07F082
:102C8A000201DC51200A03E0DCC2D1F202D0300E8C
:102C9A00D16F2E0ED26FDD51200A03E0DDC2D3F2CE
:102CAA0002D0300ED36F570ED46F32D0800E03018C
:102CBA001519006E800E030A005C02E1E70E145D2E
:102CCA0014E214C32DF315C32EF3D80E2F6F020E80
:102CDA00306F8DEC07F0DBC2D1F2DCC2D2F2DDC27A
:102CEA00D3F2570E0201D46F13D014C32DF315C3B8
:102CFA002EF3D80E03012F6F020E306F8DEC07F002
:102D0A00DAC2D1F2DBC2D2F2DCC2D3F2DDC2D4F231
:102D1A000201D051040A010ED8A4000E016ED0514E
:102D2A00050A010ED8A4000E006E015000120EE032
:102D3A00040E03012D6F400E2E6FD10E2F6F020E5F
:102D4A00306F040E316F12EC07F02DD00201D05112
:102D5A00020A010ED8A4000E016ED051030A010E18
:102D6A00D8A4000E006E015000120DE003012D6B75
:102D7A000D0E2E6FD10E2F6F020E306F040E316FB3
:102D8A0012EC07F010D00201D051010A0CE1030144
:102D9A002D6B0C0E2E6FD10E2F6F020E306F040E9C
:102DAA00316F12EC07F016C300F017C301F018C315
:102DBA0002F019C303F0AAEC05F000C02DF301C01C
:102DCA002EF3D80E03012F6F020E306F8DEC07F031
:102DDA00DCC2D1F2DDC2D2F20201D051040A010EE4
:102DEA00D8A4000E016ED051050A010ED8A4000E17
:102DFA00006E015000120EE0060E03012D6F4C0EFC
:102E0A002E6FD10E2F6F020E306F020E316F12EC41
:102E1A0007F02FD00201D051020A010ED8A4000EE9
:102E2A00016ED051030A010ED8A4000E006E0150A3
:102E3A0000120EE0010E03012D6F0E0E2E6FD10E41
:102E4A002F6F020E306F020E316F12EC07F011D0A5
:102E5A000201D051010A0DE1010E03012D6F0D0E81
:102E6A002E6FD10E2F6F020E306F020E316F12ECE1
:062E7A0007F00400120045
:102E8000030108B102D08B9E01D08B8E08B302D013
:102E90008B9601D08B8608B502D08B9C01D08B8C91
:102EA00008B702D08B9401D08B8408B902D08B9ADA
:102EB00001D08B8A08BB02D08B9201D08B8208BDD7
:102EC00002D08B9801D08B88CBC226F3CCC227F3DB
:062ED000CEEC0AF0120036
:102ED600A6A202D00000FCD7A69C01C3A9FF02C38C
:102EE600A8FFA69EA684F2CF00F0F29E550EA76E0E
:102EF600AA0EA76EA68200BE02D0F29E01D0F28E66
:0E2F0600A694A1B802D00000FCD7A19812003A
:102F1400030100B102D08B9001D08B80CBC226F389
:0A2F2400CCC227F3CEEC0AF0120035
:102F2E000201396B3A6B0301086B71EC12F03AC275
:102F3E0008F39FDFCBC226F3CCC227F3CEEC0AF008
:022F4E0012006F
:102F50000301046B056B640E0201E15D0301016F67
:102F6000000E0201E2590301026F010E066F000E0E
:102F7000076F0201CE6BCF6B0400780E0301036F65
:102F8000006B0351005D48E281B202D0068001D09F
:102F9000069081B402D0D88001D0D89006B003D07A
:102FA00002E2069001D0068081B002D0D88001D024
:102FB000D89006B003D002E2069001D0068006A0A9
:102FC00008D045EC12F002018A51010A02E18A6B35
:102FD000D0D200EC10F0800E03010519006E800EB7
:102FE0000201CF19005C03E1CE510301045D08E248
:102FF000CEC204F3CFC205F3E7C206F3E8C207F37B
:10300000100E0C6E940E0D6E03010D2EFDD70C2EBE
:10301000FBD70000002BB5D7040004C38BF205C317
:103020008CF206C308F307C309F374EC11F0800EA9
:1030300003010719006E800E005C02E1640E065D5C
:1030400016E32CEC12F08DC200F04FEC0FF082C0B2
:1030500004F083C005F084C006F085C007F07FEC63
:1030600006F0AAEC05F000C08EF201C08FF2800ECF
:1030700003010719006E800E0201E219005C03E1F2
:10308000E1510301065D000ED8B0010E006E005044
:1030900000018115056E800E02016E19036E800E0F
:1030A00003010719035C03E1065102016D5D020192
:1030B000010ED8B0000E036E6D510301065D016E66
:1030C00002016E5103010759026E800E0219006E53
:1030D000800E0218005C02E10150015D010ED8B0C3
:1030E000000E006E00500314046E800E0719036E6C
:1030F000800E02016E19035C03E16D510301065D50
:103100000301010ED8B0000E036E065102016D5D81
:10311000016E0301075102016E59026E800E030118
:103120000219006E800E0218005C02E10150015D80
:10313000010ED8B0000E006E0350001600500410AF
:10314000016E02016E51030A02E1E70E6D19010ED4
:10315000D8A4000E006E015000120550001603E0C6
:10316000010E0001806F81B202D0068001D006906E
:1031700081B402D0D88001D0D89006B003D002E24A
:10318000069001D0068081B002D0D88001D0D890BE
:1031900006B003D002E2069001D0068006A008D057
:1031A00045EC12F002018A51010A02E18A6BE1D179
:1031B0008BC208F38CC209F306C30AF307C30BF3EF
:1031C000C5EC12F081B202D0068001D0069081B425
:1031D00002D0D88001D0D89006B003D002E2069089
:1031E00001D0068081B002D0D88001D0D89006B03E
:1031F00003D002E2069001D0068006A008D045EC7C
:1032000012F002018A51010A02E18A6BB2D1020175
:1032100004005E51010AD8A4ACD1D051040A010EB9
:10322000D8A4000E016ED051050A010ED8A4000EDC
:10323000006E01500012D8B4CAD0020E03012D6FE7
:10324000100E2E6F860E2F6F000E306F080E316F2E
:1032500012EC07F0030E0B6E080E0C6E770E0D6E5F
:103260000D2EFED70C2EFCD70B2EFAD7020E030123
:103270002D6F100E2E6FA10E2F6F000E306F080EE7
:10328000316F12EC07F00B0E0B6E260E0C6E5D0EFE
:103290000D6E0D2EFED70C2EFCD70B2EFAD700008C
:1032A00000000400020E03012D6F100E2E6F980E09
:1032B0002F6F000E306F080E316F12EC07F0070E03
:1032C0000B6E170E0C6E6A0E0D6E0D2EFED70C2EA9
:1032D000FCD70B2EFAD700000400020E03012D6F5D
:1032E000100E2E6F8F0E2F6F000E306F080E316F85
:1032F00012EC07F00B0E0B6E260E0C6E5D0E0D6EB3
:103300000D2EFED70C2EFCD70B2EFAD70000000096
:103310000400020E03012D6F100E2E6F530E2F6F3F
:10332000000E306F080E316F12EC07F0070E0B6EB7
:10333000170E0C6E6A0E0D6E0D2EFED70C2EFCD7DE
:103340000B2EFAD700000400020E03012D6F100EA1
:103350002E6F4A0E2F6F000E306F080E316F12EC79
:1033600007F00B0E0B6E260E0C6E5D0E0D6E0D2E05
:10337000FED70C2EFCD70B2EFAD70000000004005D
:10338000020E03012D6F100E2E6F410E2F6F000ED7
:10339000306F080E316F12EC07F0030E0B6E080E43
:1033A0000C6E770E0D6E0D2EFED70C2EFCD70B2E4D
:1033B000FAD7020E03012D6F100E2E6F5C0E2F6FC9
:1033C000000E306F080E316F12EC07F0C6D002010C
:1033D000D051000AD8B4C1D0010E03012D6F2E6B5D
:1033E000770E2F6F000E306F080E316F12EC07F062
:1033F000030E0B6E080E0C6E770E0D6E0D2EFED7A3
:103400000C2EFCD70B2EFAD7010E03012D6F2E6B5D
:103410006E0E2F6F000E306F080E316F12EC07F03A
:103420000B0E0B6E260E0C6E5D0E0D6E0D2EFED766
:103430000C2EFCD70B2EFAD7000000000400010E62
:1034400003012D6F2E6B650E2F6F000E306F080E6F
:10345000316F12EC07F0070E0B6E170E0C6E6A0E32
:103460000D6E0D2EFED70C2EFCD70B2EFAD70000BA
:103470000400010E03012D6F2E6BAA0E2F6F000E9C
:10348000306F080E316F12EC07F00B0E0B6E260E2C
:103490000C6E5D0E0D6E0D2EFED70C2EFCD70B2E76
:1034A000FAD7000000000400010E03012D6F2E6BFF
:1034B000DE0E2F6F000E306F080E316F12EC07F02A
:1034C000070E0B6E170E0C6E6A0E0D6E0D2EFED7CC
:1034D0000C2EFCD70B2EFAD700000400010E0301BE
:1034E0002D6F2E6BD50E2F6F000E306F080E316FC3
:1034F00012EC07F00B0E0B6E260E0C6E5D0E0D6EB1
:103500000D2EFED70C2EFCD70B2EFAD70000000094
:103510000400010E03012D6F2E6BCC0E2F6F000ED9
:10352000306F080E316F12EC07F0030E0B6E080EB1
:103530000C6E770E0D6E0D2EFED70C2EFCD70B2EBB
:10354000FAD7010E03012D6F2E6BE70E2F6F000EC1
:10355000306F080E316F12EC07F00400100E0201FC
:103560005F6F270E606F06C308F307C309F374EC9F
:0435700011F0120044
:10357400DCDC010E02019D6F010E0301006FC8DC4B
:10358400FF0E016F026BA5DCFE0E0301016F026BDF
:10359400A0DCFD0E0301016F010E026F9ADCFC0E2C
:1035A4000301016F026B95DCFB0E0301016F026BDB
:1035B40090DCFFEC07F00201376B899E898CE76B86
:1035C400E86BCE6BCF6B6D6B6E6BD051040A010E42
:1035D400D8A4000E016ED051050A010ED8A4000E25
:1035E400006E015000122BE0020E03012D6F100E2D
:1035F4002E6F6F0E2F6F020E306F080E316F12ECAC
:1036040007F004000D0E0B6E2D0E0C6ED70E0D6E12
:103614000D2EFED70C2EFCD70B2EFAD7000000007F
:10362400020E03012D6F100E2E6F810E2F6F020EEE
:10363400306F080E316F12EC07F004002FD0020136
:10364400D051000A29E0010E03012D6F2E6B780E74
:103654002F6F020E306F080E316F12EC07F004006A
:103664000D0E0B6E2D0E0C6ED70E0D6E0D2EFED79D
:103674000C2EFCD70B2EFAD700000000010E03011C
:103684002D6F2E6B640E2F6F020E306F080E316F8C
:1036940012EC07F0040002D08A8C8A8E100E02010C
:1036A4005F6F270E606F100E546F270E556F4EDC40
:0236B400120002
:1036B6000134083609360450085E0550D8A0053C8A
:1036C600095E003601360F0E0C6E013408360936D7
:1036D600045000A006D0085E0550D8A0053C095E3F
:1036E60005D008260550D8B0053C09260036013617
:1036F6000C2EEBD700B006D0045008260550D8B0E3
:08370600053C09260000120039
:10370E000450000A08E10550000A05E1FF0E006EA4
:10371E007F0E016E57D00D6A096A086A01500010BB
:10372E00D8B4000C015005180A6E0ABE0D1E0B6AA5
:10373E0005AE05D0041E051E042AD8B4052A01AE16
:10374E0005D0001E011E002AD8B4012A0150051012
:10375E000A6E0ABE10D0A8DF0BB020D00DAE000C42
:10376E00001E011E002AD8B4012A081E091E082AAE
:10377E00D8B4092A000C05AE0DD001BE07D00150F9
:10378E00096E0050086E016A006AE8D7016A006A85
:10379E00002A000C011E001E0B2ADDD7082AD8B401
:1037AE00092A0450085CD8A4D9D70550095CD8A4BE
:1037BE00D5D7096A086A002AD8B4012A01AECED735
:0637CE000000FF0C1200D8
:1037D40000EC10F002010751640A10E0072B800E80
:1037E400E619006E800ECF19005C02E1CE51E55D52
:1037F40004E2CEC2E5F2CFC2E6F20ED0076BE5C218
:1038040008F3E6C209F3E7C20AF3E8C20BF3C5EC16
:1038140012F00201E56BE66B800ECF19026E800E8A
:10382400EA19025C02E1E951CE5D010ED8B0000E46
:10383400026E800EE419016E800ECF19015C02E164
:10384400CE51E35D010ED8B0000E016E800E006E05
:10385400800EE419005C02E1E3510008010ED8B0C7
:10386400000E006E015000160250001252E00400D7
:1038740000EC10F002010751640A10E0072B800EDF
:10388400E619006E800ECF19005C02E1CE51E55DB1
:1038940004E2CEC2E5F2CFC2E6F20ED0076BE5C277
:1038A40008F3E6C209F3E7C20AF3E8C20BF3C5EC76
:1038B40012F00201E56BE66B810E0301266F0F0E19
:1038C400276F286B050E296F010E2A6F2EEC0BF063
:1038D400005203E0010E02019B6F02019B51010A99
:1038E400010ED8A4000EFF6F810E0301266F0F0E88
:1038F400276F286B050E296F2A6B2EEC0BF0020143
:10390400FF51001605E034DE0201E76BE86B01D0DD
:0439140083D7120043
:10391800030E0201FE6F3A6B0301086B40EC17F0CF
:10392800FEC29AF253DF000EE81902E1000EE71911
:1039380001E17ED0140E046E000E056EE7C200F0A1
:10394800E8C201F0E0DE00500201E725FC6F0150FB
:10395800E821FD6FFEC2FBF2FB511F0865E3FB5136
:103968009C03F3CF08F340EC17F030DF000EE819A2
:1039780002E1000EE71901E15BD0800EE819006E44
:10398800800EFD19005C02E1FC51E75D4BE2140E6C
:10399800046E000E056EE7C200F0E8C201F0B3DE67
:1039A80000500201E725FC6F0150E821FD6FFB5133
:1039B8009C03F3CF3AF2FEC29AF2800EE819006E29
:1039C800800E005C02E1780EE75D01E22DD0FE5129
:1039D800FB25026E02C0FBF29E51000A010ED8A41C
:1039E800000E016E0250090A010ED8A4000E006EE6
:1039F8000150001603E0080EFB6F13D09E51000A19
:103A0800010ED8A4000E016EFB51110A010ED8A4B4
:103A1800000E006E0150001604E0100EFB6F040E3D
:103A2800FE6F01D001D098D73AC208F340EC17F0E6
:023A380012007A
:103A3A000001F05102019703F3CF00F000C0F5F244
:103A4A0000503925046E04C0F7F2050E026E97C2C3
:103A5A0000F0000E016E025005E0003600900136BB
:103A6A00FF0FFAD7010E005C026E000E0158036EBA
:103A7A00800E0318006E800E005C02E10450025CA6
:103A8A000BE2050E006E97C2F7F2005004E0F7371A
:103A9A00F791FF0FFBD7F7073951F55D04E2F551AE
:103AAA00395DF86F01D0F86BF8C239F2F8C208F341
:103ABA0071EC12F08ADE000EE81902E1000EE71935
:103ACA0001E163D0E7C2F9F2E8C2FAF29751F825A8
:103ADA00F66FF651F75D55E3F6C208F371EC12F092
:103AEA0074DE000EE81902E1000EE71901E14DD07B
:103AFA00800EE819006E800EFA19005C02E1F95195
:103B0A00E75D0BE3340E0C6EF10E0D6E0D2EFED733
:103B1A000C2EFCD70000000058DE800EE819006E5B
:103B2A00800EFA19005C02E1F951E75D0BE3340EED
:103B3A000C6EF10E0D6E0D2EFED70C2EFCD700006A
:103B4A00000043DE800EE819006E800EFA19005C50
:103B5A0002E1F951E75D11E2E7C2F9F2E8C2FAF2CD
:103B6A00F6C239F2800EE819006E800E005C02E19E
:103B7A00780EE75D01E205D001D003D09751F62710
:0C3B8A00A8D739C208F371EC12F0120049
:103B9600030E0201FA6FF66BFAC2F0F0030EF76F2E
:103BA600140E046E000E056EE7C200F0E8C201F0C6
:103BB600ABDD00500201E725F86F0150E821F96FEF
:103BC600F56BF5511F08D8A06ED0F5519703F3CFCA
:103BD60008F371EC12F09DDEFADD000EE81902E141
:103BE600000EE71901E175D0800EE819006E800E0F
:103BF600F919005C02E1F851E75D53E2140E046E18
:103C0600000E056EE7C200F0E8C201F07DDD00504F
:103C16000201E725F86F0150E821F96FF551970386
:103C2600F3CF39F23AC2F6F2FAC2F0F09AC2F7F2DC
:103C3600800EE819006E800E005C02E1780EE75DEA
:103C460001E231D0FA51F525026E02C0F5F200010B
:103C5600B551000A010ED8A4000E016E0250090AE1
:103C6600010ED8A4000E006E0150001604E0080EE6
:103C76000201F56F15D00001B551000A010ED8A456
:103C8600000E016E0201F551110A010ED8A4000EB4
:103C9600006E0150001604E0100EF56F040EFA6F68
:103CA60001D001D08ED7F6C23AF239C208F371ECD0
:103CB60012F03AC208F340EC17F0F7C29AF2340E4B
:103CC6000C6EF10E0D6E0D2EFED70C2EFCD70000DD
:043CD60000001200D8
:103CDA0002019A519C03F3CF00F000C0F5F20050A4
:103CEA003A25046E04C0F7F2050E026E9CC200F07B
:103CFA00000E016E025005E0003600900136FF0FFB
:103D0A00FAD7010E005C026E000E0158036E800E97
:103D1A000318006E800E005C02E10450025C0BE2A4
:103D2A00050E006E9CC2F7F2005004E0F737F791D7
:103D3A00FF0FFBD7F7073A51F55D04E2F5513A5DFB
:103D4A00F86F01D0F86BF8C23AF2F8C208F340EC07
:103D5A0017F03BDD000EE81902E1000EE71901E158
:103D6A0063D0E7C2F9F2E8C2FAF29C51F825F66F7D
:103D7A00F651F75D55E3F6C208F340EC17F025DD7E
:103D8A00000EE81902E1000EE71901E14DD0800E9C
:103D9A00E819006E800EFA19005C02E1F951E75D3C
:103DAA000BE3340E0C6EF10E0D6E0D2EFED70C2E9B
:103DBA00FCD70000000009DD800EE819006E800EB5
:103DCA00FA19005C02E1F951E75D0BE3340E0C6E5F
:103DDA00F10E0D6E0D2EFED70C2EFCD70000000042
:103DEA00F4DC800EE819006E800EFA19005C02E11C
:103DFA00F951E75D11E2E7C2F9F2E8C2FAF2F6C256
:103E0A003AF2800EE819006E800E005C02E1780E2C
:103E1A00E75D01E205D001D003D09C51F627A8D76F
:0A3E2A003AC208F340EC17F0120052
:103E3400E7C2EFF2E8C2F0F2ACDE000E0201E819CC
:103E440002E1000EE71903E197EC17F003D1C0DC9F
:103E5400800EE819006E800E005C02E1780EE75DCA
:103E640001E2F8D0E8DD000E0201E81902E1000EDB
:103E7400E71903E197EC17F0EDD0AADC800EE819FE
:103E8400006E800E005C02E1780EE75D01E2E2D094
:103E940022DF000E0201E81902E1000EE71903E136
:103EA40097EC17F0D7D094DC800EE819006E800EE2
:103EB400005C02E1780EE75D01E2CCD0800EE819E7
:103EC400016E800E015C02E1C80EE75D010ED8B000
:103ED400000E016E800EE819006E800EF019005C71
:103EE40002E1EF51E75D010ED8B0000E006E005004
:103EF4000114036EE751EF5D016EE851F059026E53
:103F0400800E006E800E0218005C02E1015064080D
:103F1400010ED8B0000E006E0350001601E09AD0D6
:103F2400E7C2EFF2E8C2F0F239C2F1F2000EF26F2A
:103F34003AC2F3F2000EF46F9D51010A02E19D6B47
:103F440002D0010E9D6F97EC17F09DC200F38AEC2E
:103F540017F0020E0B6E040E0C6EBA0E0D6E0D2EC3
:103F6400FED70C2EFCD70B2EFAD7000031DC800EC6
:103F7400E819006E800E005C02E1780EE75D01E254
:103F840069D007DE000E0201E81902E1000EE7190C
:103F940003E197EC17F05ED01BDC800EE819006E8D
:103FA400800E005C02E1780EE75D01E253D043DD50
:103FB400000E0201E81902E1000EE71903E197EC93
:103FC40017F048D005DC800EE819006E800E005C06
:103FD40002E1780EE75D01E23DD07DDE000E0201D4
:103FE400E81902E1000EE71903E197EC17F032D06B
:103FF400EAEC1BF0800EE819006E800E005C02E112
:10400400780EE75D01E226D0800EF019006E800E76
:10401400E819005C02E1E751EF5D1BE29D51010AE2
:1040240002E19D6B02D0010E9D6F9DC200F38AECEC
:1040340017F0F1C239F2F3C23AF2F1C208F371ECAB
:1040440012F03AC208F340EC17F0EFC2E7F2F0C204
:06405400E8F20400120076
:10405A0004000201076BE56BE66B9B6BEAEC1BF055
:10406A00800EE819006E800E005C02E16E0EE75DBC
:10407A0001E2B6D097EC17F002013551000A02E1CD
:10408A00FFEC07F0020E0B6E040E0C6EBA0E0D6EEC
:10409A000D2EFED70C2EFCD70B2EFAD70000EAEC19
:1040AA001BF0E7C2DFF2E8C2E0F2800EE819006E08
:1040BA00800E005C02E16E0EE75D01E291D0800E97
:1040CA00016E800EB219015C02E1B1516E08010E57
:1040DA00D8B0000E016E800EB219006E800EE8197B
:1040EA00005C02E1E751B15D010ED8B0000E006E2E
:1040FA000150001601E074D098DE000E0201E819A2
:10410A0002E1000EE71903E197EC17F069D0800E7F
:10411A000201E819006E800E005C02E1780EE75D8C
:10412A0001E25ED00001B651050A010ED8A4000EC4
:10413A00016EB351050A010ED8A4000E006E01509B
:10414A00001601E04DD0B351050806E297C2F0F01F
:10415A00010E0201976F6CDC800E0201E819006EF5
:10416A00800E005C02E1780EE75D01E239D00001C1
:10417A00B651050806E29CC29AF2010E02019C6F32
:10418A00A7DD0001B351050A04E1010E0201976F90
:10419A000FD00001B351060A04E1020E0201976F23
:1041AA0007D00001B351070A03E1040E0201976F19
:1041BA000001B651050A04E1010E02019C6F0FD0FD
:1041CA000001B651060A04E1020E02019C6F07D0F3
:1041DA000001B651070A03E1040E02019C6F0400B4
:0241EA001200C1
:1041EC00EDC200F00032009E0032009E0032009EB4
:1041FC000032009E0A0E0002F3CF01F00F0E0201F6
:0A420C00ED15006E015000261200AF
:104216000EEC00F0C7C246F32BEC00F00301466B30
:104226002BEC00F0AE0E0301466F2BEC00F0020102
:10423600C651020A010ED8A4000E016EC651030A29
:10424600010ED8A4000E006E01500012D8B497D00B
:10425600D50E0301466F2BEC00F0800E0301466F6E
:104266002BEC00F0A80E0301466F2BEC00F03F0E7E
:104276000301466F2BEC00F0D30E0301466F2BECC7
:1042860000F00201C651020A05E1BFC246F32BEC5B
:1042960000F007D00201BF511F0F0301466F2BEC40
:1042A60000F0400E0301466F2BEC00F08D0E03016B
:1042B600466F2BEC00F0140E0301466F2BEC00F05A
:1042C600810E0301466F2BEC00F0B40E0301466F1E
:1042D6002BEC00F0D90E0301466F2BEC00F0220EFA
:1042E6000301466F2BEC00F0200E0301466F2BEC0A
:1042F60000F0020E0301466F2BEC00F0210E0301C5
:10430600466F2BEC00F00301466B2BEC00F07F0EA2
:104316000301466F2BEC00F02E0E0301466F2BECCB
:1043260000F00201C651020A0BE1A00E0301466F1E
:104336002BEC00F0C00E0301466F2BEC00F00AD008
:10434600A10E0301466F2BEC00F0C80E0301466F69
:104356002BEC00F0DA0E0301466F2BEC00F0020E98
:104366000301466F2BEC00F0DB0E0301466F2BECCE
:1043760000F0400E0301466F2BEC00F08AD0D50EFC
:104386000301466F2BEC00F0800E0301466F2BEC09
:1043960000F0A80E0301466F2BEC00F03F0E030160
:1043A600466F2BEC00F0D30E0301466F2BEC00F0AA
:1043B600BFC246F32BEC00F0400E0301466F2BEC18
:1043C60000F08D0E0301466F2BEC00F0140E030176
:1043D600466F2BEC00F0810E0301466F2BEC00F0CC
:1043E600FF0E0301466F2BEC00F0D90E0301466F5A
:1043F6002BEC00F0F10E0301466F2BEC00F0200EC3
:104406000301466F2BEC00F0020E0301466F2BEC06
:1044160000F0210E0301466F2BEC00F00301466B02
:104426002BEC00F07F0E0301466F2BEC00F02E0EF6
:104436000301466F2BEC00F00201C651040A0BE1A2
:10444600A00E0301466F2BEC00F0C00E0301466F71
:104456002BEC00F00AD0A10E0301466F2BEC00F006
:10446600C80E0301466F2BEC00F0DA0E0301466F0F
:104476002BEC00F0120E0301466F2BEC00F0DB0E66
:104486000301466F2BEC00F0400E0301466F2BEC48
:1044960000F0A40E0301466F2BEC00F0A60E0301FC
:1044A600466F2BEC00F0A5EC00F0030E0B6E080E29
:1044B6000C6E770E0D6E0D2EFED70C2EFCD70B2E26
:1044C600FAD70EEC00F0C7C246F32BEC00F0400E14
:1044D6000301466F2BEC00F00201C651020A010EE1
:1044E600D8A4000E016EC651030A010ED8A4000E10
:1044F600006E015000121AE0EE6BEE51030815E350
:10450600EEC241F30301426B62EC00F00201ED6B77
:104516000201800EED5D06E2ED2B0301466B2BECEE
:1045260000F0F6D70201EE2BE8D719D0EE6BEE516C
:10453600070815E3EEC241F30301426B62EC00F09B
:104546000201ED6B0201800EED5D06E2ED2B03012B
:10455600466B2BEC00F0F6D70201EE2BE8D7A5EC64
:0E45660000F0AF0E0301266F68EC0BF01200A0
:10457400280E0201C26F0C0EC36F2D0EC46F030E02
:10458400C56FC26A0101201D006E0050C116070EDE
:08459400C012C08EC2801200AB
:10459C00A69CEDC2A9FFA69EA680A8CF00F0120093
:1045AC0004000201D051040A010ED8A4000E016EC1
:1045BC00D051050A010ED8A4000E006E0150001255
:1045CC00D8B4D2D00001B751000AD8A485D00301C9
:1045DC002D6B160E2E6F7F0E2F6F010E306F070E88
:1045EC00316F12EC07F0020E03012D6F060E2E6FC9
:1045FC00350E2F6F010E306F090E316F12EC07F074
:10460C00040E03012D6F100E2E6F2C0E2F6F010E4A
:10461C00306F080E316F12EC07F0060E03012D6F90
:10462C00040E2E6F210E2F6F010E306F0A0E316F9C
:10463C0012EC07F004000D0E0B6E2D0E0C6ED70E47
:10464C000D6E0D2EFED70C2EFCD70B2EFAD70000BC
:10465C00000004000B0E0B6E260E0C6E5D0E0D6E24
:10466C000D2EFED70C2EFCD70B2EFAD70000000017
:10467C00040003012D6B100E2E6F3F0E2F6F010ED9
:10468C00306F080E316F12EC07F0020E03012D6F24
:10469C00040E2E6F5C0E2F6F010E306F0A0E316FF1
:1046AC0012EC07F0040E03012D6F100E2E6F530E3B
:1046BC002F6F010E306F080E316F12EC07F0060EE3
:1046CC0003012D6F040E2E6F480E2F6F010E306FED
:1046DC000A0E316F12EC07F0040E0B6E0C0E0C6E02
:1046EC00330E0D6E0D2EFED70C2EFCD70B2EFAD7DB
:1046FC000000000002013851010A0DE103012D6B8D
:10470C00100E2E6F910E2F6F010E306F080E316F41
:10471C0012EC07F00CD003012D6B100E2E6FD70E80
:10472C002F6F010E306F080E316F12EC07F0020E76
:10473C0003012D6F100E2E6FCE0E2F6F010E306FEA
:10474C00080E316F12EC07F0000181530CE00301ED
:10475C002D6B700E2E6FCC0E2F6F010E306F010E65
:10476C00316F12EC07F0D5D00201D051000AD8B449
:10477C00D0D00001B751000AD8A487D003012D6B0B
:10478C00040E2E6FE00E2F6F010E306F070E316F7F
:10479C0012EC07F0010E03012D6F030E2E6FFC0EB1
:1047AC002F6F010E306F090E316F12EC07F0040001
:1047BC000F0E0B6E350E0C6E510E0D6E0D2EFED7B0
:1047CC000C2EFCD70B2EFAD704000B0E0B6E260EFC
:1047DC000C6E5D0E0D6E0D2EFED70C2EFCD70B2E17
:1047EC00FAD700000000040003012D6B040E2E6F9D
:1047FC00F30E2F6F010E306F080E316F12EC07F0B5
:10480C00010E03012D6F030E2E6FE80E2F6F010E9C
:10481C00306F0A0E316F12EC07F004000D0E0B6EA8
:10482C002D0E0C6ED70E0D6E0D2EFED70C2EFCD74A
:10483C000B2EFAD70000000004000B0E0B6E260E98
:10484C000C6E5D0E0D6E0D2EFED70C2EFCD70B2EA6
:10485C00FAD700000000040003012D6B040E2E6F2C
:10486C00AE0E2F6F010E306F080E316F12EC07F089
:10487C00010E03012D6F030E2E6FA30E2F6F010E71
:10488C00306F0A0E316F12EC07F0040E0B6E0C0E2B
:10489C000C6E330E0D6E0D2EFED70C2EFCD70B2E80
:1048AC00FAD70000000002013851010A0CE10301A3
:1048BC002D6B2E6B9A0E2F6F010E306F080E316F11
:1048CC0012EC07F00BD003012D6B2E6BB70E2F6F74
:1048DC00010E306F080E316F12EC07F0010E030160
:1048EC002D6F2E6BC30E2F6F010E306F080E316FB4
:1048FC0012EC07F0000181530CE003012D6B080E44
:10490C002E6FC10E2F6F010E306F010E316F12EC36
:0A491C0007F00400FFEC07F01200A2
:1049260004000201D051040A010ED8A4000E016E43
:10493600D051050A010ED8A4000E006E01500012D7
:104946000EE0020E03012D6F400E2E6F8C0E2F6FA0
:10495600010E306F040E316F12EC07F014D0020115
:10496600D051000A0EE0010E03012D6F040E2E6FCA
:10497600870E2F6F010E306F040E316F12EC07F0A9
:1049860002D08A8C8A8E2DEC20F00201D051000ACA
:104996001BE1800E006E800EE819005C02E1E75113
:1049A600960803E38A9C8A8E0ED0800E006E800ED7
:1049B600E819005C02E1E751FA0803E3819C819E55
:1049C60002D0818C819E11D03751000A010ED8A4E5
:1049D600000E016E3551000A010ED8A4000E006EBD
:1049E6000150001202E0FFEC07F0FF0E0301016F19
:1049F6003AC202F36BEC17F0FE0E0301016F39C2E7
:104A060002F36BEC17F0FD0E0301016F9DC202F37A
:104A16006BEC17F0FC0E0301016F000E046E010E25
:104A2600056EDFC200F0E0C201F087EC1BF000C0AB
:104A360002F36BEC17F0FB0E0301016F000E046E20
:104A4600010E056EDFC200F0E0C201F087EC1BF03C
:104A560008C000F009C001F000C002F36BEC17F0CB
:104A6600100E02015F6F270E606F100E546F270E37
:104A7600556FA8EC17F0E7C26DF2E8C26EF2899E98
:064A8600898C04001200FF
:104A8C000400010E0201ED6F83DD00C0D0F2020EB6
:104A9C00ED6F7EDD0050010A03E1010E0001816F14
:104AAC00030E0201ED6F74DD00C0EDF2F6EC20F0A8
:104ABC0000C0CBF2000ECC6F040EED6F69DD00C0B0
:104ACC00EDF2F6EC20F00A0E0002F3CFE1F2F4CF97
:104ADC00E2F2050EED6F5CDD00C0EDF2F6EC20F0BD
:104AEC000A0E0002F3CFE9F2F4CFEAF2060EED6FF4
:104AFC004FDD00C0EDF2F6EC20F00A0E0002F3CF11
:104B0C00E3F2F4CFE4F2090EED6F42DD00C0EDF2FA
:104B1C00F6EC20F00A0E0002F3CFB1F2F4CFB2F2B1
:104B2C000A0EED6F35DD00C0B3F00B0EED6F30DD0E
:104B3C0000C0B5F00C0EED6F2BDD00C0B6F00D0E05
:104B4C00ED6F26DD00C09EF20E0EED6F21DD00C074
:104B5C0061F20F0EED6F1CDD00C006F20400100EAA
:104B6C00ED6F16DD00C0EDF2F6EC20F0640E0002E5
:104B7C00F3CFEBF2F4CFECF2110EED6F09DD00C0C8
:104B8C00EDF2F6EC20F00050EB25AF6F000EEC21AF
:104B9C00B06F120EED6FFCDC00C0EDF2F6EC20F005
:104BAC00640E0002F3CFEBF2F4CFECF2130EED6FC8
:104BBC00EFDC00C0EDF2F6EC20F00050EB25AD6F11
:104BCC00000EEC21AE6F140EED6FE2DC00C0EDF2C6
:104BDC00F6EC20F0640E0002F3CFEBF2F4CFECF223
:104BEC00150EED6FD5DC00C0EDF2F6EC20F00050A8
:104BFC00EB25B36F000EEC21B46F160EED6FC8DC15
:104C0C0000C0EDF2F6EC20F0640E0002F3CFEBF2F4
:104C1C00F4CFECF2170EED6FBBDC00C0EDF2F6EC4E
:104C2C0020F00050EB25B96F000EEC21BA6F180E76
:104C3C00ED6FAEDC00C0EDF2F6EC20F0640E00027D
:104C4C00F3CFEBF2F4CFECF2190EED6FA1DC00C058
:104C5C00EDF2F6EC20F00050EB25B76F000EEC21D6
:104C6C00B86F1A0EED6F94DC00C0EDF2F6EC20F08C
:104C7C00640E0002F3CFEBF2F4CFECF21B0EED6FEF
:104C8C0087DC00C0EDF2F6EC20F00050EB25B56FA0
:104C9C00000EEC21B66F1C0EED6F7ADC00C0EDF24D
:104CAC00F6EC20F0640E0002F3CFEBF2F4CFECF252
:104CBC001D0EED6F6DDC00C0EDF2F6EC20F0005037
:104CCC00EB25A36F000EEC21A46F200EED6F60DCC2
:104CDC0000C0EDF2F6EC20F0640E0002F3CFEBF224
:104CEC00F4CFECF2210EED6F53DC00C0EDF2F6ECDC
:104CFC0020F00050EB25A16F000EEC21A26F220ECC
:104D0C00ED6F46DC00C0EDF2F6EC20F0640E000214
:104D1C00F3CFEBF2F4CFECF2230EED6F39DC00C0E5
:104D2C00EDF2F6EC20F00050EB259F6F000EEC211D
:104D3C00A06F240EED6F2CDC00C0EDF2F6EC20F031
:104D4C00640E0002F3CFEBF2F4CFECF2250EED6F14
:104D5C001FDC00C0EDF2F6EC20F00050EB25A56F47
:104D6C00000EEC21A66F260EED6F12DC00C0EDF2EA
:104D7C00F6EC20F0640E0002F3CFEBF2F4CFECF281
:104D8C00270EED6F05DC00C0EDF2F6EC20F00050C4
:104D9C00EB25AB6F000EEC21AC6F280EED6FCEEC5B
:104DAC0022F000C0EDF2F6EC20F0640E0002F3CF1E
:104DBC00EBF2F4CFECF2290EED6FCEEC22F000C04A
:104DCC00EDF2F6EC20F00050EB25A96F000EEC2173
:104DDC00AA6F2A0EED6FCEEC22F000C0EDF2F6ECCD
:104DEC0020F0640E0002F3CFEBF2F4CFECF22B0EBA
:104DFC00ED6FCEEC22F000C0EDF2F6EC20F000509E
:104E0C00EB25A76F000EEC21A86F2C0EED6FCEECEE
:104E1C0022F000C0EDF2F6EC20F0640E0002F3CFAD
:104E2C00EBF2F4CFECF22D0EED6FCEEC22F000C0D5
:104E3C00EDF2F6EC20F00050EB25BB6F000EEC21F0
:104E4C00BC6F300EED6FCEEC22F000C038F2310E9C
:104E5C00ED6FCEEC22F000C0EDF2F6EC20F000C0CD
:104E6C0063F2320EED6FCEEC22F000C0EDF2F6ECF8
:104E7C0020F000C08DF2330EED6FCEEC22F000C0AE
:104E8C0035F2340EED6FCEEC22F000C0EDF2F6EC04
:0A4E9C0020F000C0CDF20400120067
:104EA6000201C651010806E2AE0E0301266F68EC48
:104EB6000BF00DD0C651010A0AE1C16BC06B0301AC
:104EC600376B90EC01F00301376B90EC01F01200A8
:104ED6000900F5CFE6FF0006FBE10106F9E1120045
:104EE600070EB46E600ED36E9B8C806A816A826AEE
:104EF600400E896E8A6A8B6A030E926E070E936E57
:104F0600946ABAEC22F00D0EC16EF19EF29E12006A
:104F1600810E0301266F0F0E276F286B320E296F45
:104F26002A6B2EEC0BF00052D8B496D0060E0B6E00
:104F3600130E0C6EAD0E0D6E0D2EFED70C2EFCD77D
:104F46000B2EFAD700000000040081A00FD002014A
:104F56009D51000A03E1010E9D6F01D09D6B9DC21C
:104F660000F38AEC17F0FFEC07F065D002016251FE
:104F7600010A02E1626B02D0010E626F6251010A00
:104F86002DE1D051040A010ED8A4000E016ED051B5
:104F9600050A010ED8A4000E006E015000120DE0A5
:104FA60003012D6B700E2E6F930E2F6F020E306F56
:104FB600010E316F12EC07F010D00201D051000A39
:104FC6000CE003012D6B080E2E6F910E2F6F020E53
:104FD600306F010E316F12EC07F02DD00201D05167
:104FE600040A010ED8A4000E016ED051050A010E66
:104FF600D8A4000E006E015000120DE003012D6BC7
:10500600700E2E6F950E2F6F020E306F010E316FE0
:1050160012EC07F010D00201D051000A0CE0030197
:105026002D6B080E2E6F980E2F6F020E306F010E2D
:10503600316F12EC07F0810E0301266F0F0E276FFA
:10504600286B320E296F2A6B2EEC0BF0005204E00F
:10505600A8EC17F00400EFD7810E0301266F0F0EA0
:10506600276F020E286F320E296F2A6B2EEC0BF07B
:1050760000526AE0040081B467D0050E026E97C242
:1050860000F0000E016E025005E000360090013679
:10509600FF0FFAD7010E005C026E000E0158036E78
:1050A600800E006E800E0318005C03E102500201C0
:1050B600395D0201010ED8B0000E006E6251001675
:1050C60006E0392B39C208F371EC12F02FD0020139
:1050D6006253010ED8A4000E046E050E026E97C22E
:1050E60000F0000E016E025005E000360090013619
:1050F600FF0FFAD7010E005C026E000E0158036E18
:10510600800E006E800E0318005C03E1020102505F
:105116003A5D010ED8B0000E006E0450001606E08F
:1051260002013A2B3AC208F340EC17F0FFEC07F005
:10513600A8EC17F09C0E0C6ED70E0D6E0D2EFED73A
:105146000C2EFCD7040097D7810E0301266F0F0E95
:10515600276F010E286F320E296F2A6B2EEC0BF08B
:1051660002019051000A010ED8A4000E016E0150F2
:10517600001635E0040081B232D002013951000830
:10518600010ED8B0000E006E6251001606E0390717
:1051960039C208F371EC12F014D002016253010E09
:1051A600D8A4000E016E3A510008010ED8B0000EC8
:1051B600006E0150001605E03A073AC208F340ECCB
:1051C60017F0FFEC07F0A8EC17F09C0E0C6ED70E4C
:1051D6000D6E0D2EFED70C2EFCD70400CCD7120078
:1051E600810E0301266F0F0E276F286B320E296F73
:1051F6002A6B2EEC0BF000018051001263E02CECC0
:1052060012F08DC200F04FEC0FF082C004F083C0A4
:1052160005F084C006F085C007F07FEC06F0AAEC26
:1052260005F000C08EF201C08FF2060E0B6E130E53
:105236000C6EAD0E0D6E0D2EFED70C2EFCD70B2E62
:10524600FAD700000000040000018051000A010E98
:10525600D8A4000E016E81B002D0D89001D0D880BB
:10526600006AD8B0002A0150001605E0BAEC1AF020
:105276000201906B27D0898E899C060E0B6E130E49
:105286000C6EAD0E0D6E0D2EFED70C2EFCD70B2E12
:10529600FAD70000000093EC24F00201906B810E17
:1052A6000301266F0F0E276F286B320E296F2A6BAC
:1052B6002EEC0BF0005204E0A8EC17F00400EFD738
:1052C6000001806B810E0301266F0F0E276F020E01
:1052D600286F320E296F2A6B2EEC0BF00052D8B4D1
:1052E600F3D02CEC12F08DC200F04FEC0FF082C020
:1052F60004F083C005F084C006F085C007F07FEC9B
:1053060006F0AAEC05F000C08EF201C08FF2040090
:105316009051000A23E1010E906F3AC2C0F139C2E2
:1053260015F19DC214F13A6B396B010E9D6F0301A5
:10533600086B71EC12F03AC208F340EC17F09DC20C
:1053460000F38AEC17F002013751000A02E1FFEC84
:1053560007F081C013F10001816B1CD00201906B34
:10536600C0C13AF215C139F214C19DF2C0C108F3A9
:1053760040EC17F039C208F371EC12F09DC200F34D
:105386008AEC17F002013751000A02E1FFEC07F040
:1053960013C181F00201D051040A010ED8A4000EF7
:1053A600016ED051050A010ED8A4000E006E015000
:1053B60000123AE09053010ED8A4000E006E0001D0
:1053C600815100160DE003012D6B700E2E6F160E27
:1053D6002F6F010E306F010E316F12EC07F023D0E4
:1053E60000018153010ED8A4000E006E02019051F7
:1053F60000160DE003012D6B700E2E6F1C0E2F6F25
:10540600010E306F010E316F12EC07F00CD0030164
:105416002D6B700E2E6F1A0E2F6F010E306F010E50
:10542600316F12EC07F03DD00201D051000A39E08D
:105436009053010ED8A4000E006E00018151001693
:105446000DE003012D6B080E2E6F180E2F6F010E47
:10545600306F010E316F12EC07F023D0000181533B
:10546600010ED8A4000E006E0201905100160DE048
:1054760003012D6B080E2E6F090E2F6F010E306F74
:10548600010E316F12EC07F00CD003012D6B080EE4
:105496002E6F070E2F6F010E306F010E316F12EC5B
:1054A60007F00400810E0301266F0F0E276F020E10
:1054B600286F320E296F2A6B2EEC0BF0005204E097
:1054C600A8EC17F00400EED7810E0301266F0F0E2D
:1054D600276F010E286F320E296F2A6B2EEC0BF008
:1054E60002019051000A010ED8A4000E016E01506F
:1054F6000016D8B4C0D02CEC12F08DC200F04FECE0
:105506000FF082C004F083C005F084C006F085C0A9
:1055160007F07FEC06F0AAEC05F000C08EF201C0A1
:105526008FF2040000018151000A03E1010E816F30
:1055360001D0816B020E0301016F81C002F36BEC97
:1055460017F00201D051040A010ED8A4000E016E14
:10555600D051050A010ED8A4000E006E01500012AB
:105566003AE09053010ED8A4000E006E000181515E
:1055760000160DE003012D6B700E2E6F050E2F6FBA
:10558600010E306F010E316F12EC07F023D00001CF
:105596008153010ED8A4000E006E02019051001630
:1055A6000DE003012D6B700E2E6F0B0E2F6F010E8B
:1055B600306F010E316F12EC07F00CD003012D6B2A
:1055C600700E2E6F110E2F6F010E306F010E316FA0
:1055D60012EC07F03DD00201D051000A39E0905399
:1055E600010ED8A4000E006E0001815100160DE0D8
:1055F60003012D6B080E2E6F0F0E2F6F010E306FED
:10560600010E316F12EC07F023D000018153010E19
:10561600D8A4000E006E0201905100160DE00301A1
:105626002D6B080E2E6F0D0E2F6F010E306F010EB3
:10563600316F12EC07F00CD003012D6B080E2E6FA4
:105646001E0E2F6F010E306F010E316F12EC07F038
:105656000400810E0301266F0F0E276F010E286FBF
:10566600320E296F2A6B2EEC0BF0005204E0A8ECE8
:0856760017F00400EED712004A
:10567E000201D051040A010ED8A4000E016ED051C1
:10568E00050A010ED8A4000E006E015000120DE0A6
:10569E0003012D6B0A0E2E6F210E2F6F000E306F31
:1056AE00090E316F12EC07F010D00201D051000A32
:1056BE000CE003012D6B030E2E6FFB0E2F6F000EF1
:1056CE00306F090E316F12EC07F004000B0E0B6EEB
:1056DE00260E0C6E5D0E0D6E0D2EFED70C2EFCD70B
:1056EE000B2EFAD70000000004000B0E0B6E260ED8
:1056FE000C6E5D0E0D6E0D2EFED70C2EFCD70B2EE6
:10570E00FAD70000000004000B0E0B6E260E0C6E76
:10571E005D0E0D6E0D2EFED70C2EFCD70B2EFAD76E
:10572E000000000004000B0E0B6E260E0C6E5D0EBC
:10573E000D6E0D2EFED70C2EFCD70B2EFAD70000B9
:10574E00000004000201D051040A010ED8A4000E7C
:10575E00016ED051050A010ED8A4000E006E015044
:10576E0000120DE003012D6B0A0E2E6F730E2F6FBC
:10577E00010E306F090E316F12EC07F010D00201DE
:10578E00D051000A0CE003012D6B030E2E6F690E33
:10579E002F6F010E306F090E316F12EC07F097EC80
:1057AE0017F0010E02019D6F010E0301006F8AECCE
:1057BE0017F0FF0E016F3AC202F36BEC17F0FE0EFC
:1057CE000301016F39C202F36BEC17F0FD0E0301FA
:1057DE00016F9DC202F36BEC17F00201D051040A67
:1057EE00010ED8A4000E016ED051050A010ED8A4E8
:1057FE00000E006E015000120DE003012D6B700EB5
:10580E002E6F670E2F6F010E306F010E316F12EC7F
:10581E0007F010D00201D051000A0CE003012D6BED
:10582E00080E2E6F7D0E2F6F010E306F010E316F31
:10583E0012EC07F0010E0001B76FD6EC22F0120049
:10584E000201ED6BCEEC22F000C0C7F2010EED6F3F
:10585E00CEEC22F000C0C6F20050000A05E1939C87
:10586E00939E8A8C8A8E04D0938C938E8A9C8A9E69
:02587E00120016
:10588000070E0201ED6FCEEC22F000C0BFF2080E51
:10589000ED6FCEEC22F000C0C8F2C651010803E261
:1058A0000BEC21F063D0C651010A60E1010EC16F1B
:1058B000C06B030E0301376F90EC01F01A0E0C6EF3
:1058C000F80E0D6E0D2EFED70C2EFCD70000030E29
:1058D0000301376F90EC01F0060E0C6E300E0D6E6A
:1058E0000D2EFED70C2EFCD70000030E0301376FE0
:1058F00090EC01F0020E0301376F90EC01F0020E04
:105900000301376F90EC01F0080E0301376F90EC44
:1059100001F00301376B90EC01F0080E0301376FC3
:1059200090EC01F00301376B90EC01F0010E0301E4
:10593000376F90EC01F01A0E0C6EF80E0D6E0D2EF6
:10594000FED70C2EFCD700000301376B90EC01F062
:10595000060E0301376F90EC01F00301376B90ECFA
:0E59600001F00C0E0301376F90EC01F0120005
:10596E0042EC30F0D0B603D0010E0001B46F73ECF0
:10597E0027F0070E0B6E170E0C6E6A0E0D6E0D2EA7
:10598E00FED70C2EFCD70B2EFAD70000040046ECE7
:10599E0025F056DFD051000A02E18A8C8A8E8DC224
:1059AE0000F04FEC0FF082C004F083C005F084C00D
:1059BE0006F085C007F07FEC06F0AAEC05F000C0FB
:1059CE008EF201C08FF2070E0B6E170E0C6E6A0E62
:1059DE000D6E0D2EFED70C2EFCD70B2EFAD7000017
:1059EE00040081B202D0048001D0049081B402D0B0
:1059FE00D88001D0D89004A003D002E3048001D057
:105A0E00049004A005D00201010E366F0001816BD7
:105A1E000001B351050A04E1010E0201976F0FD088
:105A2E000001B351060A04E1020E0201976F07D07E
