:10000000A831ED2CFF3F27006E08003A0319212884
:1000100021000D170630FD00FD0B0C2800008D1788
:100020000630FD00FD0B122800008D130630FD0088
:10003000FD0B182800000D130630FD00FD0B1E28D7
:100040000000080027006E08003A03195C28F1013F
:100050007108073C031C49282900C91B32282100CC
:100060008D13342821008D170630FD00FD0B362836
:1000700000000D170630FD00FD0B3C2800000D139D
:100080000630FD00FD0B422800002900C935F10AA9
:10009000282821008D170630FD00FD0B4D2800009B
:1000A0000D170630FD00FD0B532800000D13063020
:1000B000FD00FD0B5928000008002000F801F9019F
:1000C0001030FC00710DF80DF90D7408F802750878
:1000D000031C750FF902031874287408F8077508D3
:1000E0000318750FF9070310F00DF10DFC0B6228D2
:1000F00008002800200829004507C8000320270021
:100100006F082900C90022202900C90122202900E6
:100110004408B03EC9002220290048080F3C031CB7
:1001200095284808C600C701A6284808F200F236FC
:10013000F236F236F2367208C7007208F000F03577
:10014000F035F035F03570084802C6004608C900A1
:10015000222029004708103EC90022200320270042
:100160006F082900C900222040302900C900222040
:10017000080020007008F100F0010830FC00710850
:10018000F40C0318C728FC0BC028F101003403103D
:10019000CC28F40C0318F107F10CF00CFC0BC92867
:1001A000080027006E08003A0319E92821008D1382
:1001B0000630FD00FD0BDA2800000D170630FD00AB
:1001C000FD0BE02800008D170630FD00FD0BE62832
:1001D000000008007B15FB1FF4280130F300F2013A
:1001E000F101F001FA0DF20CFF3008002900BE0108
:1001F00005303E02031806293E083C078600003001
:100200003D3D870020308100BE0AF8283E083C07AB
:10021000860000303D3D87008101BE033E083C075B
:10022000BF0000303D3DC0000A30F400F5013A083F
:10023000F0003B08F1005D207808F0007908F1003B
:100240003030F00729003F0886004008870070081A
:1002500081000A30F400F5013A08F0003B08F10093
:100260005D2070082900BA007108BB0000307106DB
:10027000031D3C2900307006031D3F294129BE03A0
:100280000E2908002900BB012700E5010130ED001F
:1002900029003A08BB00BB35BB35BB35BB35270051
:1002A00067080319562908302900BB0727006D0885
:1002B00003195D2904302900BB07270065080319CD
:1002C000642902302900BB072700660803196A2940
:1002D0002900BB0A032027006F082900C90022203B
:1002E00029003B08C9002220D1200630FC00303014
:1002F000FD00FD0B7929FC0B792900000430290051
:10030000BB02032027006F082900C9002220290012
:100310003B08C9002220D1200630FC003030FD000F
:10032000FD0B9029FC0B902900000800F201F1015F
:10033000F001F801F30100300800032027006F08E6
:100340002900C900222040302900C90022202900AC
:100350003B08C4003A08C50079202900BF013E08C7
:100360003F020318632A3F083C07840000303D3DEC
:1003700085000008003A031DBF29C101C8293F08B4
:100380003C07840000303D3D850020300002C10064
:10039000C0014008043C031C5B2A4108F000053002
:1003A000F400B92029004008F0070030F13D00308A
:1003B00070078400B030713D85000008C2003B0822
:1003C000023A013003190030F1003B08043A0130D1
:1003D00003190030F0007008F1053B08063A0130BF
:1003E00003190030F0007108F0050319202AC21922
:1003F000FB29C313FC29C317C219002A4313012A7E
:1004000043174219052AC312062AC31642190A2A9B
:1004100043120B2A4316C2180F2AC311102AC31500
:10042000C218142A4311152A43154218192AC31059
:100430001A2AC31442181E2A43101F2A4314402AA2
:100440004219242AC313252AC3174219292A431300
:100450002A2A4317C2182E2AC3122F2AC316C218DB
:10046000332A4312342A43164218382AC311392A30
:10047000C31542183D2A43113E2A4315C3104310A9
:100480004308C900222027006E08043A0130031DEA
:100490000030F1006E08053A0130031D0030F00015
:1004A0007108F0040319582A29004308C9002220C2
:1004B0002900C00AC929C90122202900C901222016
:1004C0002900BF0AAF293B0AC4003A08C5007920B9
:1004D0002900BF013E083F020318262B3F083C07B6
:1004E000840000303D3D85000008003A031D7A2A53
:1004F000C101832A3F083C07840000303D3D850050
:1005000020300002C100C0014008043C031C1E2B27
:100510004108F0000530F400B92029004008F00738
:100520000030F13D003070078400B030713D85002F
:100530000008C2003B08023A013003190030F10004
:100540003B08043A013003190030F0007008F1054F
:100550003B08063A013003190030F0007108F0053D
:100560000319DB2AC21BB62AC313B72AC317C21B3F
:10057000BB2A4313BC2A4317421BC02AC312C12AF9
:10058000C316421BC52A4312C62A4316C21ACA2AD8
:10059000C311CB2AC315C21ACF2A4311D02A43153F
:1005A000421AD42AC310D52AC314421AD92A431096
:1005B000DA2A4314032B421BDF2AC313E02AC31792
:1005C000421BE42A4313E52A4317C21AE92AC3123D
:1005D000EA2AC316C21AEE2A4312EF2A4316421A17
:1005E000F32AC311F42AC315421AF82A4311F92A2F
:1005F0004315C219FD2AC310FE2AC314C219022BC7
:100600004310032B43144308C900222027006E081F
:10061000043A0130031D0030F1006E08053A013044
:10062000031D0030F0007108F00403191B2B290092
:100630004308C90022202900C00A842AC9012220B7
:100640002900C90122202900BF0A6A2AD1200800F6
:100650001D30FD00FD0B2A2B0800FB14FB1F372B60
:10066000FF30F300F200F100F000FA0DF20CFF3061
:100670000800FA1FF2130030080020002230FC00AE
:10068000F801F901FA01FB01FC030319722B0310B5
:10069000FB0CFA0CF90CF80CF30CF20CF10CF00C4E
:1006A000031C442BFC030319642B7408F80775081A
:1006B0000318750FF90776080318760FFA077708FD
:1006C0000318770FFB07482B7408F8077508031801
:1006D000750FF90776080318760FFA0777080318DD
:1006E000770FFB07080027006E08043A0130031D4E
:1006F0000030F1006E08053A0130031D0030F000B3
:100700007108F0040319912B29003108BA00300850
:10071000BB003208BC003308BD003408BE009D2178
:10072000EB2B27006E08023A0130031D0030F10068
:100730006E08033A0130031D0030F0007108F00428
:100740000319B72B0730F00029003108F400B92055
:10075000043070072900BA003008BB00BB353208EE
:10076000BC003308BD003408BE009D21EB2B2700E0
:10077000E60129003008F000F035F0357008083E39
:10078000BA00422129003108BA0042210130270075
:10079000E6002900B501340835020318EB2B3508B3
:1007A000320784000030333D85000008F1007108F5
:1007B000BA00BA36BA36BA36BA36422129003508F6
:1007C000320784000030333D85000008BA00422122
:1007D0002900B50ACB2B0800833021009D05290094
:1007E0003008F000F035F035700821009D04282312
:1007F0009D149D1CFC2BF92B1C08F100F0011B081B
:10080000F0040030F1040800032027006F082900DD
:10081000C900222080302900C90022202900300888
:10082000C9002220D12008002900B601B7013008F4
:10083000B8003108B90080303106F0008030700215
:10084000031D242C003030020318322C0130B60076
:100850000030B7003008003CB8003108031C013EEE
:10086000B901B9023808BA003908BB003208BC0027
:100870003308BD00F6200630B4000030B50035085E
:10088000003C031D452C3408003C0318602C340840
:10089000320786003508333D870001303402F0000E
:1008A0000030353BF1007008320784007108333D99
:1008B0008500000881000130B4020030B53B3F2CB8
:1008C000320886003308870020308100360837045C
:1008D0000319862CB401B5013408320784003508A9
:1008E000333D85000008203A031D7A2CB40A031911
:1008F000B50A6C2C0130B4020030B53B3408320725
:1009000086003508333D87002D3081000800033014
:10091000FC009530FD00FD0B8B2CFC0B8B2C080094
:100920007408F8027508031C750FF9027608031C99
:10093000760FFA027708031C770FFB02F30D0730DE
:10094000FC00730DF80DF90DFA0DFB0D7408731C06
:10095000B72CF8027508031C750FF9027608031C02
:10096000760FFA027708031C770FFB02C42CF807F6
:1009700075080318750FF90776080318760FFA073C
:1009800077080318770FFB07F30DFC0BA12C720DF2
:10099000F80DF90DFA0DFB0D7408731CDD2CF8022F
:1009A0007508031C750FF9027608031C760FFA020E
:1009B0007708031C770FFB02EA2CF8077508031869
:1009C000750FF90776080318760FFA0777080318EA
:1009D000770FFB07F20D0730FC00720DF80DF90DD3
:1009E000FA0DFB0D7408721C032DF8027508031C28
:1009F000750FF9027608031C760FFA027708031CBC
:100A0000770FFB02102DF80775080318750FF9070B
:100A100076080318760FFA0777080318770FFB0795
:100A2000F20DFC0BED2C710DF80DF90DFA0DFB0D0F
:100A30007408721C292DF8027508031C750FF90241
:100A40007608031C760FFA027708031C770FFB0267
:100A5000362DF80775080318750FF907760803187F
:100A6000760FFA0777080318770FFB07F10D0730A9
:100A7000FC00710DF80DF90DFA0DFB0D7408711CD9
:100A80004F2DF8027508031C750FF9027608031C38
:100A9000760FFA027708031C770FFB025C2DF8072C
:100AA00075080318750FF90776080318760FFA070B
:100AB00077080318770FFB07F10DFC0B392D700D2C
:100AC000F80DF90DFA0DFB0D7408711C752DF80267
:100AD0007508031C750FF9027608031C760FFA02DD
:100AE0007708031C770FFB02822DF807750803189F
:100AF000750FF90776080318760FFA0777080318B9
:100B0000770FFB07F00D0730FC00700DF80DF90DA5
:100B1000FA0DFB0D7408701C9B2DF8027508031C60
:100B2000750FF9027608031C760FFA027708031C8A
:100B3000770FFB02A82DF80775080318750FF90742
:100B400076080318760FFA0777080318770FFB0764
:100B5000F00DFC0B852D7018BB2D7408F807750877
:100B60000318750FF90776080318760FFA07770848
:100B70000318770FFB0708007B14FB1FC72DF2013A
:100B8000FA1FFF30F200F100F000FA0DF20CFF3016
:100B90000800A1017208031DDE2D7108F200700823
:100BA000F100F001A1157208031DDE2D7108F2009D
:100BB000F101A111211672080319EC2D2108F3028D
:100BC000031D031CF02D0310F21BF42DF00DF10D8D
:100BD000F20DF30BE42DF02D0130FC009621F72DE2
:100BE0000230FC00EA20F72D0430FC003923080015
:100BF0002000FB01FA01F9018030F800F10CF00C43
:100C0000031C0B2E7408F90775080318750FFA07F3
:100C10000318FB0A0310F01F132E7408FA07750857
:100C20000318750FFB07FB0CFA0CF90CF80C031CEE
:100C3000FE2D7B08F3007A08F2007908F1007808AD
:100C4000F00008007C18582EFC18292E7C19772EED
:100C5000222EA1017208031D492E7108F2007008AE
:100C6000F1007808F000F801A1157208031D492E63
:100C70007108F2007008F100F001A111211672084C
:100C8000031D492E7108F200F101A1157208031924
:100C90006B2E2108F302031D031C6F2E0310F21BA1
:100CA000582EF80DF00DF10DF20DF30B4F2E6F2EA7
:100CB0007B1B701C732EF81F732EF00A0319F10AA8
:100CC0000319F20A031D732EF20CF10CF00CF30A57
:100CD0000319772E732E0130FC0096217A2E0230F4
:100CE000FC00EA207A2E0430FC0039237A2E0830EA
:100CF000FC002D2300000800FB15FF300800FB0955
:100D0000FA09F909F809F80A0319F90A0319FA0A9C
:100D10000319FB0A0800200072087606A100F801FA
:100D2000F90173087702031CAD2E7708FD007308E4
:100D3000F7007D08F3007608FD007208F6007D08D4
:100D4000F2007508FD007108F5007D08F1007408D7
:100D5000FD007008F4007D08F00077080319262FC5
:100D60007208FA00F217F61777087302F7000319F2
:100D7000E02E08307702031CD62EF7007408F90025
:100D80007508F4007608F500F60108307702031CB8
:100D9000D62EF7007408F9007508F400F501083044
:100DA0007702031CD62E7A08F200262F7708031943
:100DB000E02E0310F60CF50CF40CF90CF70BD92E01
:100DC000A11FED2EF909F409F509F609F90A03192D
:100DD000F40A0319F50A0319F60A7908F8077408E2
:100DE0000318740FF00775080318750FF1077608DC
:100DF0000318760FF207A11B062F031C162FF20C07
:100E0000F10CF00CF80CF30F162F222F03181A2FE9
:100E1000F809F009F109F209F80A0319F00A0319AF
:100E2000F10A0319F20A8030FA061E2F0130FC0085
:100E30002226282F0230FC002226282F0430FC0016
:100E4000C925282F0830FC002D23282F0030FC0056
:100E50000000080027006E08013C0318342FAF3053
:100E60002900B0000424422F27006E08013A031D18
:100E7000422F0130E700E6012900BA014221290092
:100E8000BA01422108002000FB01730803197F2FDB
:100E90007208FA00F2178E30F302F31F822FF30963
:100EA000F30A08307302031C652FF300F10D72087A
:100EB000F100F20108307302031C652FF300F10DFD
:100EC000F1017308031D03106D2F730803196D2FB3
:100ED0000310F20CF10CF30B682F7B1B711C772FA6
:100EE000031C772FF10A0319F20AF21B8E2FFA1F47
:100EF000912FF209F109F10A0319F20A912FF20177
:100F0000F101912F7B14FB1F942FF201FA1F942FF4
:100F1000FF30F200F100FA0DF20C942F0130FC00CA
:100F2000962F0030FC00962FFF30FC00FC080319C0
:100F30009A2FBC257108F0007208F100080020000B
:100F40007008F8007108F000F101F201F301FB01F3
:100F5000FC019630F300FA01F01FB42FF809F009F4
:100F6000F80A0319F00AFA177008F1007808F0007F
:100F7000F801F201C925080020007008F800FB0103
:100F8000FC019E30F300FA01F201F101F0010230A0
:100F9000FC002226080028005F18D12F22008E10A6
:100FA000D32F22008E142800DF18D92F22000E1113
:100FB000DB2F22000E1528005F19E12F22008E1171
:100FC000E32F22008E152800DF19E92F22000E12D0
:100FD000EB2F22000E1628005F1AF12F22008E122E
:100FE000F32F22008E1628002308EB002408EC00C3
:100FF0008831FA2480310800203400345F34003412
:101000006400240069082600EF002800B001B10147
:101010002400691C102828002E08B0072F08B13DB5
:101020002400E91C1B2827005B082800B0072700C4
:101030005C082800B13D2400691D262827005908B6
:101040002800B00727005A082800B13D2400E91DF8
:101050003128270057082800B00727005808280023
:10106000B13D2400691E3C2827005D082800B00718
:1010700027005E082800B13D28002D08043A013001
:10108000031D0030F1002D08053A0130031D00302A
:10109000F0007108F0040319B22830082900B000EC
:1010A000280031082900B1003930B2000430B30003
:1010B00080311424883128003B08203A0319632822
:1010C0003B08B20065283030B2002E30B3003C0837
:1010D000203A03196E283C08B40070283030B40060
:1010E0003D08203A031977283D08B50079283030AB
:1010F000B50024006A08013A031D82280430280044
:10110000EB00852828000630EB006B082900B000B2
:101110001030B100A930B2000030B3000230B4008A
:1011200080317323883128006B082900B0005830C3
:10113000B100A630B2000030B3000230B4008031FC
:101140007323883128006B082900B0002830B100D3
:101150003230B2000430B3000430B4008031732365
:1011600088318E2928002D08023A0130031D0030F5
:10117000F1002D08033A0130031D0030F000710822
:10118000F0040319272930082900B000280031088D
:101190002900B1003930B2000430B300803114248A
:1011A000883128003B08203A0319D9283B08B200AF
:1011B000DB283030B2002E30B3003C08203A03194F
:1011C000E4283C08B400E6283030B4003D08203A5A
:1011D0000319ED283D08B500EF283030B500240094
:1011E0006A08013A031DF7282800EB01FA282800B5
:1011F0000130EB006B082900B0000930B100A330CA
:10120000B2000030B3000230B40080317323883163
:1012100028006B082900B0000F30B100A030B200E8
:101220000030B3000230B4008031732388312800CD
:101230006B082900B0000B30B1003230B20004302E
:10124000B3000430B4008031732388318E29280024
:101250002D08013A031D8E2932303007F00000308E
:10126000313DF1007008B0007108B100700829002C
:10127000B0007108B1003930B2000430B3008031E1
:101280001424883128003B08203A03194A293B08D6
:10129000B2004C293030B2002E30B3003C08203A66
:1012A000031955293C08B40057293030B4002400F4
:1012B0006A08013A031D5F292800EB016229280012
:1012C0000130EB006B082900B0000930B1006B3031
:1012D000B2000030B3000230B40080317323883193
:1012E00028006B082900B0000E30B1006830B20051
:1012F0000030B3000230B4008031732388312800FD
:101300006B082900B0000B30B1003230B20004305D
:10131000B3000330B40080317323883164002400AB
:101320006B082000EE002800B001B10124006B1C06
:10133000A129270055082800B007270056082800D3
:10134000B13D2400EB1CAC29270053082800B0074E
:10135000270054082800B13D24006B1DB729270041
:1013600063082800B007270064082800B13D240066
:10137000EB1DC229270061082800B007270062087A
:101380002800B13D24006B1ECD2927005F082800EE
:10139000B007270060082800B13D28002D08043A56
:1013A0000130031D0030F1002D08053A0130031D06
:1013B0000030F0007108F00403192E2A30082900CB
:1013C000B000280031082900B1003930B2000430E3
:1013D000B30080311424883128003B08B2003C0857
:1013E000B3003D08B4003E08B50024006A08013A85
:1013F000031DFE2906302800EB00012A28000430D6
:10140000EB006B082900B0001030B100C630B2000C
:101410000030B3000230B4008031732388312800DB
:101420006B082900B0005830B100C330B200003062
:10143000B3000230B40080317323883128006B0878
:101440002900B0002830B1003230B2000430B300BF
:101450000430B400803173238831DF2A28002D083E
:10146000023A0130031D0030F1002D08033A01302B
:10147000031D0030F0007108F00403198E2A3008B3
:101480002900B000280031082900B1003930B2002D
:101490000430B30080311424883128003B08B200A6
:1014A0003C08B3003D08B4003E08B50024006A08BB
:1014B000013A031D5F2A01302800EB00612A280051
:1014C000EB016B082900B0000930B100C030B20058
:1014D0000030B3000230B40080317323883128001B
:1014E0006B082900B0000F30B100BD30B2000030F1
:1014F000B3000230B40080317323883128006B08B8
:101500002900B0000B30B1003230B2000430B3001B
:101510000430B400803173238831DF2A28002D087D
:10152000013A031DDF2A30082900B00028003108E5
:101530002900B1003930B2000430B30080311424E6
:10154000883128003C08B2003D08B3003E08B400D2
:1015500024006A08013A031DB12A01302800EB007B
:10156000B32A2800EB016B082900B0000930B10054
:10157000AF30B2000030B3000230B40080317323CA
:10158000883128006B082900B0000E30B100AC3063
:10159000B2000030B3000230B400803173238831D0
:1015A00028006B082900B0000B30B1003230B200C7
:1015B0000430B3000330B4008031732388316400F9
:1015C00024006A082000EF0008007408003A031D98
:1015D000FE2A7508003A031DFE2A7608003A031D0C
:1015E000FE2A7708003A031DFE2AFF30F000FF3084
:1015F000F100FF30F2007F30F3009A2B2000FC0155
:10160000F71BFC0AFD01FB01FA01F901F80173085F
:101610007204710470040319932B73087706A000F9
:10162000A01BFD09F71F1F2BF409F509F609F7099F
:10163000F40A0319F50A0319F60A0319F70AF31F46
:101640002C2BF009F109F209F309F00A0319F10A48
:101650000319F20A0319F30A73087704A000A01B08
:101660004F2B803190248831FC1B6C2BFD1F932B5A
:10167000F009F109F209F309F00A0319F10A031953
:10168000F20A0319F30AF809F909FA09FB09F80A39
:101690000319F90A0319FA0A0319FB0A932BF71F16
:1016A000662BF31B602B7308FB007208FA007108AD
:1016B000F9007008F800F301F201F101F001362B96
:1016C000F301F201F101F001F00A0034F309F2092B
:1016D000F109F009FC17312BF80A0319F90A03196B
:1016E000FA0A0319FB0A74087802031D362B7508E1
:1016F0007902031D362B76087A02031D362B7708F4
:101700007B02031D362BFB01FA01F901F801F00AF7
:101710000319F10A0319F20A0319F30AF31F362B0E
:10172000A0012016FF34A0017C1C992B80317F265C
:101730008831003E0800813022009700171BA12B42
:101740009E2B2900B0018031EC23883170082800DD
:10175000EB007108EC008030033AF2008030710633
:101760007202031DB52B7008E83C031CBC2B6B08F0
:10177000F0006C08F100062C823022009700171B45
:10178000C22BBF2B2900B0018031EC2388317008B7
:101790002800EB007108EC008030033AF200803042
:1017A00071067202031DD62B7008E83C031CDF2B68
:1017B0006B08F0006C08F100F035F10D062C833059
:1017C00022009700171BE52BE22B2900B001803186
:1017D000EC23883170082800EB007108EC007108D8
:1017E000043A031DF52B00307006031DFB2B01305E
:1017F0002500E800FD2B2500E80128006B08F0001B
:101800006C08F100F035F10DF035F10D08002800FD
:101810006B08F0006C08F1000330F4000030F500B4
:101820008031F825883170082800EB007108EC0041
:101830008030F200803071067202031D212C700886
:10184000503C031C262CF001F101F92C8030F000F3
:1018500080306C067002031D2F2C6B08AB3C031C00
:10186000362CF430EB070030EC3DF52C8030013A9B
:10187000F00080306C067002031D402C6B08483C61
:10188000031C472CFE30EB070030EC3DF52C80307C
:10189000023AF00080306C067002031D512C6B0878
:1018A000463C031C582C1830EB070130EC3DF52C5E
:1018B0008030033AF00080306C067002031D622C09
:1018C0006B08343C031C692C2930EB070130EC3DDC
:1018D000F52C8030043AF00080306C067002031D55
:1018E000732C6B084C3C031C7A2C3630EB07013010
:1018F000EC3DF52C8030083AF00080306C06700228
:10190000031D842C6B08853C031C8B2CAE30EB072D
:101910000130EC3DF52C80300C3AF00080306C0644
:101920007002031D952C6B08FA3C031C9C2CE430C0
:10193000EB070130EC3DF52C8030123AF00080309E
:101940006C067002031DA62C6B080F3C031CAD2C0B
:101950001230EB070230EC3DF52C8030163AF000E7
:1019600080306C067002031DB72C6B08E63C031C2C
:10197000BE2C8830EB070230EC3DF52C80301B3A52
:10198000F00080306C067002031DC82C6B08EA3C26
:10199000031CCF2CE730EB070230EC3DF52C8030F8
:1019A000213AF00080306C067002031DD92C6B08C0
:1019B000363C031CE02C3430EB070330EC3DF52CB7
:1019C0008030293AF00080306C067002031DEA2C4A
:1019D0006B08043C031CF12C8430EB070330EC3D16
:1019E000F52C5230EB070330EC3D6B08F0006C082F
:1019F000F1000800A0302900AC000F30AD00AE01AE
:101A0000AF01A030F0000F30F1000030F2000030E4
:101A1000F30028006B08F4006C08F500F601F701EC
:101A200080313D23883170082900AC007108AD0079
:101A30007208AE007308AF0000307302031D2A2D38
:101A400000307202031D2A2D02307102031D2A2D5F
:101A5000B230700203182D2D5C2DB230AC02023072
:101A6000AD3B0030AE3BAF3B0530F00070080319D2
:101A70003F2DAF36AE0CAD0CAC0CFF3E372D2C0815
:101A8000F0002D08F1002E08F2002F08F3000130BD
:101A9000AC020030AD3BAE3BAF3B7008710472044A
:101AA000730403195C2D000000000000000000001A
:101AB0000000000000003F2D08007408003A031DDC
:101AC000762D7508003A031D762D7608003A031D21
:101AD000762D7708003A031D762DFF30F000FF3099
:101AE000F1007F30F200FF30F300182E200077085D
:101AF0000319042E73080319092E7208760680391B
:101B0000FA00F217F617A1017208F8007108FC003C
:101B10007008FD007408FD027508031C750FFC02B7
:101B20007608031C760FF802F801FC01FD01031C86
:101B3000A02D0310F20CF10CF00CF80C0130A100F8
:101B40007708F302031CAA2D7E302107F307031840
:101B50000E2EAF2D7E302107F307031C132E1830F5
:101B6000FA07FD0DFC0DF80DF00DF10DF20DA10DB4
:101B70007408F0027508031C750FF1027608031C47
:101B8000760FF202760DA104211CC82D7D14D32DF1
:101B90007408F00775080318750FF1077608031825
:101BA000760AF2077D10FA031F307A05031DB12D66
:101BB0007B1B7D1CFA2D0310F00DF10DF20DA10D14
:101BC0007408F0027508031C750FF1027608031CF7
:101BD000760FF202760D21040139FD070318FC0A85
:101BE0000319F80A031DFA2DF80CFC0CFD0CF30A7E
:101BF00003190E2EFA1FF8137808F2007C08F10082
:101C00007D08F0000030172E013080317C268831AD
:101C1000172E0230803196218831172E0430803102
:101C20002D238831172E08308031EA2088310000BA
:101C30000800813022009700171B1F2E1C2E013038
:101C40002900B0008031EC23883170082800EB00B7
:101C50007108EC008030033AF200803071067202A5
:101C6000031D342E7008E83C031C3B2E6B08F0006B
:101C70006C08F1007C2E823022009700171B412E49
:101C80003E2E01302900B0008031EC2388317008ED
:101C90002800EB007108EC008030033AF20080303D
:101CA00071067202031D562E7008E83C031C5F2E5D
:101CB0006B08F0006C08F100F035F10D7C2E8330DC
:101CC00022009700171B652E622E01302900B000FC
:101CD0008031EC23883170082800EB007108EC009B
:101CE0007008F2007108F300F235F30DF235F30DD0
:101CF0007208F0007308F10008002000FB0173086F
:101D0000031D77080319D32E72087606FA007708A8
:101D1000F3077E30031C902EF3020318D82E932E67
:101D2000F302031CDD2E7208F8007108FC00700835
:101D3000FD00F817F6170310F201F101F001183059
:101D4000A1007D1CAD2E7408F00775080318750FEF
:101D5000F10776080318760FF207F20CF10CF00C7D
:101D6000F80CFC0CFD0C0310A10BA12EF21BBD2ED8
:101D7000F80DF00DF10DF20DF3037B1B701CCF2E4F
:101D8000F81FCF2EF00A0319F10A0319F20A031DF6
:101D9000CF2EF20CF10CF00CF30A0319D82EFA1F17
:101DA000F2130030E12E0130803196218831E12E8E
:101DB000023080312D238831E12E04308031EA2039
:101DC0008831000008002900AD0128006D08F100ED
:101DD0000130F00071080319F02EF035FF3EEB2EB4
:101DE00070082900AC0028006B0884006C0885008E
:101DF00070080005F10071080130031D0030F0008B
:101E00006F08F0060319252F6E08003C0318102FE9
:101E1000803187248831803187248831EE03042F74
:101E20006B0884006C08850029002C080005F1006F
:101E300071080130031D0030F00028006F08F00623
:101E40000319252FFF302900AD0029002D08F000CF
:101E500008000D302800EB000030EC00ED011930D7
:101E6000EE00EF01E32670082800DF000D30EB00E4
:101E70000030EC000130ED001930EE00EF01E326F8
:101E800070082800DF040D30EB000030EC00023059
:101E9000ED001930EE00EF01E32628005F08F004A2
:101EA0000319552F01302500EA00080028005F18AB
:101EB0005C2F22008D105E2F22008D142800DF1869
:101EC000642F22000D11662F22000D1528005F19C6
:101ED0006C2F22000C116E2F22000C152800DF1928
:101EE000742F22000C12762F22000C1628005F1A85
:101EF0007C2F22008C127E2F22008C1628002308B3
:101F0000EB002408EC00FA2408002400E901EB01AE
:101F10002800DF01562724006B082800DF008031ED
:101F2000CB27883128002308EB002408EC00FA2492
:101F30000800280057082300910092012800580843
:101F4000230093001513951315150B08F0008B1340
:101F500055309600AA3096009514F01BB12F8B13C4
:101F6000B22F8B171511951CB62FB32F0800280020
:101F70005718BD2F22000C13BF2F22000C1728006A
:101F80002308EB002408EC00FA240800710DF80D7A
:101F9000F90D7408F8027508031C750FF902F00DAD
:101FA000F10D0F30FC00710DF80DF90D7408701C67
:101FB000DF2FF8027508031C750FF902E42FF807EC
:101FC00075080318750FF907F00DF10DFC0BD32FF1
:101FD0007018F02F7408F80775080318750FF907C3
:101FE0000000080028004208230091009201951388
:101FF000151315141308F0000800003400340034E1
:10200000640021003C08003A0130031D0030F1005B
:102010003B08013A0130031D0030F0007008F10563
:10202000803028006206F00080307002031D1A28FC
:10203000643061020130031C0030F0007108F005CB
:102040000319A62824006C08003A031DA2282800C2
:102050002D08043A0130031D0030F1002D08053A27
:102060000130031D0030F0007108F00403195528F9
:1020700004302900B0001030B100B230B20000309E
:10208000B3000830B400803173239031063029004A
:10209000B0001030B1005F30B2000030B300083043
:1020A000B400803173239031A22828002D08023A11
:1020B0000130031D0030F1002D08033A0130031DEB
:1020C0000030F0007108F004031982282900B001E3
:1020D0000930B1003E30B2000030B3000830B40027
:1020E00080317323903101302900B0000930B100F4
:1020F0003530B2000030B3000830B40080317323B3
:102100009031A22828002D08013A031DA228290099
:10211000B0010930B1002D30B2000030B3000730FB
:10212000B40080317323903101302900B0000930B0
:10213000B1004730B2000030B3000730B400803146
:102140007323903101302400EC00B02824006C0887
:10215000013A031DAE288831002090312400EC01A3
:1021600064002800600827004B06031DBA284A08AF
:1021700028005F060319F02B28005F082700CA001B
:10218000280060082700CB00803028006006F0009F
:1021900080307002031DCE2864305F02031CF028DB
:1021A00005305F07F0000030603DF1007008DF008F
:1021B0007108E00070082900B0007108B1003930E2
:1021C000B2000430B30080311424903128003B0861
:1021D000B2003C08B3003D08B4005730B5001529E3
:1021E0005F082900B000280060082900B1003930DC
:1021F000B2000430B30080311424903128003D082F
:10220000203A031906293D08B20008293030B200EF
:102210002E30B3003E08203A031911293E08B400BD
:1022200013293030B4005730B5002D08043A01307E
:10223000031D0030F1002D08053A0130031D003068
:10224000F0007108F004031933292900B00140306F
:10225000B1003230B2000430B3000430B400803139
:1022600073239031452928002D08003A0319452988
:102270002900B0010430B1003230B2000430B300A4
:102280000430B40080317323903124006C08013A8B
:10229000031DF02B6908003A0130031D0030F100E6
:1022A0006B08003A0130031D0030F0007108F005A2
:1022B00003196229280061082700CD002800620860
:1022C0002700CE0027004D08F0004E08F1008031B5
:1022D0009F27903170082900A4007108A50072089A
:1022E000A6007308A7000030F4000030F500483065
:1022F000F6008530F7002408F0002508F1002608D4
:10230000F2002708F30088315D259031700829001C
:10231000A0007108A1007208A2007308A30024089D
:10232000F4002508F5002608F6002708F70000301D
:10233000F0000030F1004830F2008530F3008831C1
:102340005D25903129002008F4002108F5002208BD
:10235000F6002308F70080318B26903170082900A1
:10236000A0007108A1007208A2007308A300270052
:102370004C08F0008031BC27903129002008F4007F
:102380002108F5002208F6002308F70088317D2691
:1023900090310030F4000030F5002030F60082303B
:1023A000F70088315D2590311F30F4008530F5004D
:1023B0006B30F6007B30F70088317D26903100309D
:1023C000F4000030F5000030F6007F30F700803177
:1023D0008B2690317008F4007108F5007208F60041
:1023E0007308F7000030F0000030F1000030F20018
:1023F0007F30F30088315D25903170082900A800F6
:102400007108A9007208AA007308AB0028006108CF
:10241000F0006208F10080319F2790317008290098
:10242000A4007108A5007208A6007308A700003078
:10243000F4000030F5004830F6008530F70024083D
:10244000F0002508F1002608F2002708F300883183
:102450005D2590310030F4000030F5000030F600CA
:102460008030F70080318B26903170082900A00061
:102470007108A1007208A2007308A3002408F400E8
:102480002508F5002608F6002708F7000030F000C0
:102490000030F1004830F2008530F30088315D25CE
:1024A000903129002008F4002108F5002208F600E8
:1024B0002308F70080318B2690317008F4007108F2
:1024C000F5007208F6007308F7000030F0000030E5
:1024D000F1000030F2008130F30088315D25903149
:1024E00029002808F4002908F5002A08F6002B081E
:1024F000F70088317D2690310A30F400D730F5009E
:102500002330F6007730F70080318B269031700849
:102510002900A4007108A5007208A6007308A7008E
:1025200024082800E500290025082800E6002900E5
:1025300026082800E700290027082800E8005F088F
:10254000F0006008F10080319F27903129002408B5
:10255000F4002508F5002608F6002708F700883162
:102560007D26903180314327903170082900A000EA
:102570007108A10020082800E30029002108280094
:10258000E40029002408F0002508F1002608F200E4
:102590002708F3000030F4000030F5004830F60062
:1025A0008530F70088317D26903170082800E500DD
:1025B0007108E6007208E7007308E800803029001F
:1025C0002106F00080307002031DE82A64302002EA
:1025D000031C0B2B053028006307F0000030643D1E
:1025E000F1007008E3007108E40070082900B000F1
:1025F0007108B1003930B2000430B30080311424C6
:10260000903128003B08B2003C08B3003D08B400FC
:102610005730B500312B280063082900B00028008E
:1026200064082900B1003930B2000430B3008031B1
:102630001424903128003D08203A0319222B3D082C
:10264000B200242B3030B2002E30B3003E08203AC6
:1026500003192D2B3E08B4002F2B3030B400573017
:10266000B5002D08043A0130031D0030F1002D089B
:10267000053A0130031D0030F0007108F004031921
:10268000502B04302900B0004030B1003230B2008D
:102690000430B3000430B400803173239031812BB7
:1026A00028002D08023A0130031D0030F1002D08EA
:1026B000033A0130031D0030F0007108F0040319E3
:1026C0006F2B2900B0010D30B1003230B200043060
:1026D000B3000430B400803173239031812B280083
:1026E0002D08013A031D812B2900B0010C30B100E7
:1026F0003230B2000430B3000430B40080317323B0
:10270000903128006508F0006608F1006708F200C3
:102710006808F30080314327903170082900B00029
:102720007108B1003930B2000430B3008031142494
:10273000903128003D08B2003E08B3002D08043A4D
:102740000130031D0030F1002D08053A0130031D52
:102750000030F0007108F0040319BD2B0630290089
:10276000B0004C30B1003230B2000430B30002305F
:10277000B400803173239031F02B28002D08033AE8
:102780000130031D0030F1002D08043A0130031D13
:102790000030F0007108F0040319DD2B013029002E
:1027A000B0000E30B1003230B2000430B30002305D
:1027B000B400803173239031F02B28002D08013AAA
:1027C000031DF02B01302900B0000D30B100323074
:1027D000B2000430B3000230B40080317323903172
:1027E0006400080064002800600824006806031DD7
:1027F000FC2B670828005F0603190F2D28005F08CF
:102800002400E700280060082400E80000302800C9
:102810006006031D0D2C01305F06031D522C2D0890
:10282000043A0130031D0030F1002D08053A013053
:10283000031D0030F0007108F00403192E2C023043
:102840002900B0004030B1006830B2000330B3005E
:102850000430B4008031732390314A2C28002D08B5
:10286000003A0319422C01302900B0000430B100B5
:10287000EB30B2000230B3000430B4008031732377
:1028800090314A2C28002D08003A031D4A2C2200C2
:102890000D178D1722000E100E138E132400E70162
:1028A000E8010F2D80312A27903127004908F000D8
:1028B0008031BC27903127004508F4004608F50018
:1028C0004708F6004808F70088317D2690318031AE
:1028D0004327903170082600ED007108EE002800B3
:1028E0005F082400E700280060082400E8002800B2
:1028F0005F082900B000280060082900B1003930C5
:10290000B2000430B30080311424903128003C0818
:10291000B2002E30B3003D08B4003E08B5002D08CB
:10292000043A0130031D0030F1002D08053A013052
:10293000031D0030F0007108F0040319AE2C0230C2
:102940002900B0004030B1003230B2000430B30092
:102950000430B400803173239031E92C28002D0815
:10296000003A0319C22C01302900B0000430B10034
:102970003230B2000430B3000430B400803173232D
:102980009031E92C28002D08003A031DE92C8030F5
:10299000F000803060067002031DD02C5F08963C6A
:1029A000031CD62C22000D138D17E92C8030F0006B
:1029B0008030280060067002031DE02C5F08FA3C9E
:1029C000031CE62C20000D138D13E92C20000D179D
:1029D0008D138030F0008030280060067002031DE7
:1029E000F32C5F08963C031CFA2C22000E140E13E5
:1029F0008E130F2D8030F0008030280060067002AA
:102A0000031D042D5F08FA3C031C0B2D22000E1041
:102A10000E178E130F2D22000E100E138E1764004A
:102A20000800640088319B2390317008DF00710832
:102A3000E0000030E01BFF30E100E20088311926A1
:102A400090317008E3007108E4000030E41BFF30AF
:102A5000E500E6005F08EB006008EC008831072421
:102A6000903180319F27903170082800E70071086D
:102A7000E8007208E9007308EA0080306606F0009A
:102A8000803062067002031D4F2D61086502031D30
:102A90004F2D60086402031D4F2D5F086302031C65
:102AA000582DE730DF000330E000E101E201A22D04
:102AB00063085F07F0006408603DF1006508613D50
:102AC000F2006608623DF3006430F400F501F6019F
:102AD000F70180313D23903128005F08F400600841
:102AE000F5006108F6006208F7006308F402640864
:102AF000F53B6508F63B6608F73B8831E5229031E7
:102B000070082800DF007108E0007208E100730817
:102B1000E2008030F400803073067402031D9A2DA9
:102B20007208003C031D9A2D7108033C031D9A2D69
:102B30007008E73C0318A22DE730DF000330E00007
:102B4000E101E2016708F0006808F1006908F2009D
:102B50006A08F3000030F4000030F5002030F60081
:102B60008230F70088317D2690310030F40000304B
:102B7000F5007A30F6008830F70088315D25903115
:102B800070082800E7007108E8007208E90073087F
:102B9000EA00F430F400FD30F5003430F6007F3008
:102BA000F70088315D25903170082800E700710832
:102BB000E8007208E9007308EA007008F400710880
:102BC000F5007208F6007308F70088317D26903111
:102BD0000030F4000030F5002030F6008130F700BE
:102BE00088315D25903170082800E7007108E80001
:102BF0007208E9007308EA000030F4000030F500C4
:102C00000030F6007E30F70080318B26903170085E
:102C10002800E7007108E8007208E9007308EA007C
:102C200080314327903170082800A7007108A80060
:102C300080307106F20080307202031D212E0A30AE
:102C400070020318282E0130AB000030AC00442E77
:102C500080306206F00080307002031D392E003093
:102C60006102031D392E00306002031D392E6430CD
:102C70005F020318402EE730AB000330AC00442E57
:102C80005F08AB006008AC0008006400883185274D
:102C9000903101302400EA0001302800D70088314B
:102CA000B7279031FF302800D700D8018831992705
:102CB0009031FE302800D700D80188319927903113
:102CC000FD302800D7000130D80088319927903195
:102CD0008831002090312400EC0122008C138C15E7
:102CE0002800AB01AC01A701A8012400ED01EE0111
:102CF00028002D08043A0130031D0030F1002D0892
:102D0000053A0130031D0030F0007108F00403198A
:102D1000B62E02302900B0001030B100DF30B20012
:102D20000230B3000830B400803173239031640066
:102D30000D30FB002D30FC00D730FD00FD0B9E2E2A
:102D4000FC0B9E2EFB0B9E2E000000000230290083
:102D5000B0001030B100D630B2000230B3000830FD
:102D6000B4008031732390316400E92E28002D08CF
:102D7000003A0319E62E01302900B000B1012930D4
:102D8000B2000330B3000830B400803173239031B7
:102D900064000D30FB002D30FC00D730FD00FD0B32
:102DA000CF2EFC0BCF2EFB0BCF2E000000000130EE
:102DB0002900B000B1012030B2000330B300083068
:102DC000B4008031732390316400E92E22000D1786
:102DD0008D1722000E100E138E1310302400E70002
:102DE0002730E80010302700CA002730CB00983188
:102DF0000020903108007408003A031D082F750860
:102E0000003A031D082FFF30F0007F30F100622FE1
:102E10002000FD01F901F801710870040319003464
:102E200071087506FA00FA1BFD09FB01F51F1D2F3D
:102E3000F409F509F40A0319F50AF11F242FF00922
:102E4000F109F00A0319F10A71087504FA00FA1B76
:102E5000392F8831C62790317B184E2FFD1F003443
:102E6000F009F109F00A0319F10AF809F909F80A59
:102E70000319F90A0034F51F4A2FF11B462F710878
:102E8000F9007008F800F101F0012E2FF101F001B6
:102E9000F00A0034F109F009FB0A2B2FF80A031994
:102EA000F90A74087802031D2E2F75087902031D94
:102EB0002E2FF901F801F00A0319F10AF11F2E2F44
:102EC0000000FF34080003302800D3002400EB0189
:102ED0002800DF018031CB27903198311A239031BF
:102EE0007008D4007108D5005408AB005508AC0038
:102EF0001430F4000030F5005408F0005508F100DB
:102F0000FB26700828005407D1007108553DD200F7
:102F10005308D00050081F3C031CE12F5008DF006D
:102F20008031CB27903198311A2390317008AB0053
:102F30007108AC0080307106F200803052067202D7
:102F4000031DA42F510870020318DF2F1430F40062
:102F50000030F5002B08F0002C08F100FB2670086B
:102F600028002B07D10071082C3DD2005008240006
:102F7000EB00280053082000AC00803028002C060D
:102F8000F00080307002031DC72F78302B02031829
:102F9000CA2FE12F53085007F1007108D0007108C3
:102FA000093A031DD62F0830D000DE2F5008113A01
:102FB000031DDE2F1030D0000430D300E02FE12FAE
:102FC0008A2F24006B082800DF008031CB27903146
:102FD000080028004208F000F036F036F036F036EF
:102FE0000A30F4008031B92090310F3028004205BA
:102FF000F1007108F0070800003400340034FD349B
:103000002800DB01DC0164302902D80000302A3BB3
:10301000D9000130DD000030DE00A701A801640006
:103020007830DA00D7015A085702031864282000C4
:103030000D1A1C2876141D2876108D1A21280314C9
:103040002228031076182828031828287610292803
:10305000761420000D182E2803142F28031076183C
:10306000352803183528761036287614761C422821
:1030700088312927983125006A08013A031D422822
:10308000EA01192B90311125983180305C06F0004F
:10309000803028067002031D4F2827085B020318A2
:1030A00059282708DB002808DC002B08DD002C0845
:1030B000DE001030FC009430FD00FD0B5D28FC0BA1
:1030C0005D280000D70A132864005B08A5005C088F
:1030D000A6005D08DF005E08E0009031F223983121
:1030E000803028005E06F00080302A067002031D42
:1030F0007B2829085D020130031C0030F0007008B5
:1031000024006F05F50080306E06F3008030280043
:103110005E067302031D8F285D0824006D022400E3
:10312000013003180030F3006D0828005D02F10043
:1031300024006E0828005E3BF20080305906F00043
:10314000803072067002031DA728710858020130F2
:1031500003180030F00070087305F40080305E063C
:10316000F300803024006E067302031DBA286D0838
:1031700028005D022800013003180030F3005D08CC
:1031800024006D02F10028005E0824006E3BF2006E
:10319000803028005906F000803072067002031D4E
:1031A000D32871085802013003180030F00073086A
:1031B000F00570087404F10024006E08033A031D42
:1031C000E328E7306D060130031D0030F000710880
:1031D000F0047508F0050319F02801302500E90016
:1031E00020000D1AF5287614F62876108D1AFA2884
:1031F0000314FB28031076180129031801297610FF
:103200000229761420000D18072903140829031039
:1032100076180E2903180E2976100F297614761CBD
:103220001B2988312927983125006A08013A031D96
:103230001B29EA01192B28002508DF002608E000D9
:103240005D08E1005E08E200903100209831200026
:103250000D1A2C2976142D2976108D1A3129031474
:10326000322903107618382903183829761039299D
:10327000761420000D183E2903143F2903107618F8
:10328000452903184529761046297614761C5229BB
:1032900088312927983125006A08013A031D5229EF
:1032A000EA01192B250064006808013A031D192B57
:1032B00028002D08043A0130031D0030F1002D08CC
:1032C000053A0130031D0030F0007108F0040319C5
:1032D0003C2A02302900B0001030B100A930B20001
:1032E0000330B3000830B4008031732398310330C9
:1032F000FB000830FC007730FD00FD0B7D29FC0B46
:103300007D29FB0B7D29640002302900B0001030BC
:10331000B100A030B2000330B3000830B4008031F7
:10332000732398310B30FB002630FC005D30FD002C
:10333000FD0B9829FC0B9829FB0B98290000000035
:10334000640002302900B0001030B100BB30B20080
:103350000330B3000830B400803173239831073054
:10336000FB001730FC006A30FD00FD0BB529FC0B9B
:10337000B529FB0BB5290000640002302900B0001C
:103380001030B100B230B2000330B3000830B400E6
:103390008031732398310B30FB002630FC005D3008
:1033A000FD00FD0BD129FC0BD129FB0BD12900001D
:1033B0000000640002302900B0001030B1005F301E
:1033C000B2000330B3000830B40080317323983169
:1033D0000730FB001730FC006A30FD00FD0BEE29C2
:1033E000FC0BEE29FB0BEE290000640002302900E3
:1033F000B0001030B1004430B2000330B3000830E8
:10340000B4008031732398310B30FB002630FC0070
:103410005D30FD00FD0B0A2AFC0B0A2AFB0B0A2A71
:1034200000000000640002302900B0001030B1003C
:103430003B30B2000330B3000830B4008031732356
:1034400098310330FB000830FC007730FD00FD0BA5
:10345000272AFC0B272AFB0B272A02302900B00061
:103460001030B1005630B2000330B3000830B40061
:103470008031732398310B2B28002D08003A031953
:103480000B2B01302900B000B1014D30B2000330E8
:10349000B3000830B4008031732398310330FB004F
:1034A0000830FC007730FD00FD0B542AFC0B542A39
:1034B000FB0B542A640001302900B000B101323006
:1034C000B2000330B3000830B40080317323983168
:1034D0000B30FB002630FC005D30FD00FD0B6E2A3A
:1034E000FC0B6E2AFB0B6E2A00000000640001300A
:1034F0002900B000B101BB30B2000230B300083087
:10350000B4008031732398310730FB001730FC0082
:103510006A30FD00FD0B8A2AFC0B8A2AFB0B8A2AE3
:103520000000640001302900B000B101B230B200E7
:103530000230B3000830B4008031732398310B306F
:10354000FB002630FC005D30FD00FD0BA52AFC0BC6
:10355000A52AFB0BA52A0000000064000130290009
:10356000B000B101CD30B2000230B3000830B40079
:103570008031732398310730FB001730FC006A302C
:10358000FD00FD0BC12AFC0BC12AFB0BC12A000068
:10359000640001302900B000B101C430B200023033
:1035A000B3000830B4008031732398310B30FB0036
:1035B0002630FC005D30FD00FD0BDC2AFC0BDC2A14
:1035C000FB0BDC2A00000000640001302900B00081
:1035D000B101A930B2000230B3000830B40080312C
:1035E000732398310330FB000830FC007730FD0076
:1035F000FD0BF82AFC0BF82AFB0BF82A01302900F6
:10360000B000B101A030B2000230B3000830B40005
:10361000803173239831640010302400E700273094
:10362000E80028005D08DF005E08E0009031F2232A
:103630009831080090311125983120005C08643AD7
:1036400003193A2BDC0A80305B06F000803028003A
:1036500028067002031D2F2B270820005A0203188A
:10366000392B280027082000DA002800280820002D
:10367000DB004D2B2000DC015A082800DF00200071
:103680005B082800E0002B08E1002C08E2009031E4
:10369000002098312000DA01DB0180302800280664
:1036A000F2008030270050067202031D5A2B4F088B
:1036B00028002702013003180030F2008030270074
:1036C0005206F1008030280028067102031D6B2B82
:1036D0002708270051022700013003180030F100AD
:1036E0008030F000803052067002031D792B5108A3
:1036F000003C013003180030F0007108F00572083A
:10370000F0040319EC2B640090311125983120004E
:103710005C08643A0319A42BDC0A80305B06F000D5
:103720008030280028067002031D992B27082000EE
:103730005A020318A32B280027082000DA002800CB
:1037400028082000DB00B72B2000DC015A082800E5
:10375000DF0020005B082800E0002B08E1002C08B7
:10376000E2009031002098312000DA01DB010D30B9
:103770002800EB000030EC00ED010530EE000130D8
:10378000EF008831E326983170080319CA2B013005
:103790002000DE0020005E08013A0130031D0030E9
:1037A0002800D6000D30EB000030EC00ED010530B4
:1037B000EE00EF018831E326983128005608F00525
:1037C0000319EB2B9031452698312800AB01AC0151
:1037D000F001F101F12B4D2B28002B08F0002C08F3
:1037E000F1000800270044082800CA002700440808
:1037F00024006907F10071082800CC0071081F3C03
:103800000318042C1F30CC002400690828004A0249
:103810000318102C4A08240069022800CD00112C3E
:10382000CD014D082400E90028004D08DF00883153
:10383000562798311A237008AB007108AC0000308D
:103840007106031D252C00307006031D282CA62CA4
:103850002B08CE002C08CF004D0ACB004B084C02A1
:10386000031C9F2C4B08DF008831562798311A2300
:103870007008AB007108AC0000307106031D422CCB
:1038800000307006031D452CA62C80302C06F0005D
:1038900080304F067002031D4F2C4E082B02031C74
:1038A000602C3430FC00F130FD00FD0B552CFC0B7E
:1038B000552C000000001A237008AB007108AC0002
:1038C00080302C06F00080304F067002031D6A2CF9
:1038D0004E082B02031C7B2C3430FC00F130FD0021
:1038E000FD0B702CFC0B702C000000001A237008DC
:1038F000AB007108AC0080302C06F00080304F0621
:103900007002031D852C4E082B0203189C2C2B08DB
:10391000CE002C08CF004B082400E900803028009E
:103920002C06F00080307002031D982C78302B029A
:1039300003189B2C9F2C9D2C9F2CCB0A2E2C2400F3
:1039400069082800DF0088315627983108002000D8
:103950002C082800CA0020002C0824006B07F10066
:1039600071082800CC0071081F3C0318B92C1F30C7
:10397000CC0024006B0828004A020318C52C4A0812
:1039800024006B022800CD00C62CCD014D08240078
:10399000EB0028004D08DF008031CB2798311A2337
:1039A0007008AB007108AC0000307106031DDA2C02
:1039B00000307006031DDD2C5B2D2B08CE002C087B
:1039C000CF004D0ACB004B084C02031C542D4B0872
:1039D000DF008031CB2798311A237008AB007108C3
:1039E000AC0000307106031DF72C00307006031D7B
:1039F000FA2C5B2D80302C06F00080304F067002D0
:103A0000031D042D4E082B02031C152D3430FC0021
:103A1000F130FD00FD0B0A2DFC0B0A2D000000000B
:103A20001A237008AB007108AC0080302C06F0003F
:103A300080304F067002031D1F2D4E082B02031C01
:103A4000302D3430FC00F130FD00FD0B252DFC0B3A
:103A5000252D000000001A237008AB007108AC008F
:103A600080302C06F00080304F067002031D3A2D86
:103A70004E082B020318512D2B08CE002C08CF0026
:103A80004B082400EB00803028002C06F00080302A
:103A90007002031D4D2D78302B020318502D542D2C
:103AA000522D542DCB0AE32C24006B082800DF0094
:103AB0008031CB279831080003302800CF00CB019C
:103AC0004F082700C40003302800CC001430F40055
:103AD0000030F5002B08F0002C08F1009031FB2697
:103AE0009831700828002B07CD0071082C3DCE00BE
:103AF000CA014A081F3C031CD82D4A08DF00883140
:103B0000562798319031632798311A237008AB00FB
:103B10007108AC0080307106F20080304E067202EF
:103B2000031D942D4D0870020318D62D1430F40097
:103B30000030F5002B08F0002C08F1009031FB2636
:103B40009831700828002B07CD0071082C3DCE005D
:103B50004A082400E9006B082800CB004F08270022
:103B6000C40020002C082800CC0080302C06F00077
:103B700080307002031DBE2D78302B020318C12D3A
:103B8000D82D4F084A07F1007108CA007108093A98
:103B9000031DCD2D0830CA00D52D4A08113A031D4A
:103BA000D52D1030CA000430CF00D72DD82D792D57
:103BB0004B082400EB0069082800DF0088315627F5
:103BC000983124006B082800DF008031CB27983122
:103BD00028004C082000AC003430FC00F130FD001F
:103BE000FD0BF02DFC0BF02D000000000800640020
:103BF0002000DE01DA01DB01DC011A232B0827009B
:103C0000CD0028002C082700CE00803028002C068C
:103C1000F00080307002031D0F2E6E302B0203184F
:103C2000122EA72F883185279831883100209831AE
:103C30000230FB000430FC00BA30FD00FD0B1E2EEC
:103C4000FC0B1E2EFB0B1E2E00001A232B08270038
:103C5000CD0028002C082700CE00803028002C063C
:103C6000F00080307002031D372E6E302B020318D7
:103C70003A2EA72F8030F100803022067102031DFA
:103C8000432E21086E3C013003180030F1008030D3
:103C90002206F00080302C067002031D512E2B08E6
:103CA0002102013003180030F0007108F0050319FB
:103CB0005A2EA72F2B08C4002C08C5005C25003005
:103CC00028002C06031D662E00302B06031D6C2ECB
:103CD000883185279831A72F1A2380302C06F000D1
:103CE00080307002031D762E78302B020318792E57
:103CF000A72FF223003028002C06031D812E003050
:103D00002B06031D872E883185279831A72F1A236C
:103D100080302C06F00080307002031D912E783028
:103D20002B020318942EA72FA724003028002C065E
:103D3000031D9C2E00302B06031DA22E88318527E3
:103D40009831A72F1A2380302C06F00080307002A3
:103D5000031DAC2E78302B020318AF2EA72F803016
:103D60002C06F10080307102031DB82EC8302B02E2
:103D7000013003180030F10080302C06F000803054
:103D800045067002031DC62E44082B02013003189D
:103D90000030F00070087105F3002B084402F100B8
:103DA0002C08453BF2008030F00080307206700233
:103DB000031DDC2E7108643C013003180030F00054
:103DC0007308F0050319E52EA72F2B08C4002C0853
:103DD000C500240069082800C600C70124006B083C
:103DE0002800C800C90124006A08013A031DFA2E00
:103DF000EA01FC2E0130EA00883185279831240041
:103E00006A082800D7008831B72798310230FB00B4
:103E10000430FC00BA30FD00FD0B0C2FFC0B0C2F06
:103E2000FB0B0C2F00001A2380302C06F000803092
:103E30007002031D1D2F78302B020318202FA72F8F
:103E40005C25003028002C06031D282F00302B068F
:103E5000031D2E2F883185279831A72F1A238030F4
:103E60002C06F00080307002031D382F78302B02B2
:103E700003183B2FA72FF223003028002C06031D28
:103E8000432F00302B06031D492F88318527983199
:103E9000A72F1A2380302C06F00080307002031DFB
:103EA000532F78302B020318562FA72FA72400304A
:103EB00028002C06031D5E2F00302B06031D642FE7
:103EC000883185279831A72F1A2380302C06F000DF
:103ED00080307002031D6E2F78302B020318712F73
:103EE000A72F80304506F00080302C067002031D9D
:103EF0007B2F2B0844020318A62F24006A08013ADE
:103F0000031D842FEA01862F0130EA006A08280089
:103F1000D7008831B7279831280046082400E900E7
:103F2000280048082400EB0028004608DF008831FC
:103F30005627983124006B082800DF008031CB27FA
:103F4000983128004408AB004508AC006400080024
:103F5000EC302700E8000330E900B030EA0004301C
:103F6000EB00F03021009E009D011D140800280088
:103F7000C2018831F227983170082700EF00013024
:103F80002800C2008831F227983170082700EE001F
:103F90007008003A031DD32F21000D138D1322004A
:103FA0000D178D17D92F21000D178D1722000D1316
:103FB0008D13080027006E08013C0318E62FAE3071
:103FC0002900B000803104249831F72F27006E08B3
:103FD000013A031DF72FE701E6012900BA018031FC
:103FE000422198312900BA018031422198310800DC
:103FF00000343334333413348034003410342734F1
:10400000640028002D08043A0130031D0030F1003F
:104010002D08053A0130031D0030F0007108F0044E
:104020000319DF2823006F08003A031DA428290084
:10403000B0011630B1005F30B2000230B30007307B
:10404000B40080317323A03102302900B000043065
:10405000B1005430B2000230B3000A30B4008031F5
:104060007323A03104302900B0001030B1003D307E
:10407000B2000230B3000830B40080317323A031A5
:1040800006302900B0000430B100E430B200013045
:10409000B3000A30B40080317323A03164000D30C6
:1040A000FB002D30FC00D730FD00FD0B5528FC0B2C
:1040B0005528FB0B55280000000064000B30FB0066
:1040C0002630FC005D30FD00FD0B6428FC0B6428ED
:1040D000FB0B64280000000064002900B0011030D0
:1040E000B100DB30B2000130B3000830B4008031E1
:1040F0007323A03102302900B0000430B100D03069
:10410000B2000130B3000A30B40080317323A03113
:1041100004302900B0001030B1003430B200023059
:10412000B3000830B40080317323A0310630290079
:10413000B0000430B1002930B2000230B3000A30C0
:10414000B40080317323A0310430FB000C30FC003C
:104150003330FD00FD0BAA28FC0BAA28FB0BAA2874
:10416000000000002900B0011030B1002030B20082
:104170000230B3000830B40080317323A031023024
:104180002900B0001030B1006530B2000130B3003A
:104190000830B40080317323A03124006F08031964
:1041A000DE282900B0017030B100EA30B2000030E2
:1041B000B3000130B40080317323A031AE29280050
:1041C0002D08003A0319AE2923006F08003A031D99
:1041D00076292900B0010430B1004030B20001302E
:1041E000B3000730B40080317323A03101302900BF
:1041F000B0000330B1003530B2000130B3000A30F6
:10420000B40080317323A03164000F30FB003530DF
:10421000FC005130FD00FD0B0B29FC0B0B29FB0BA7
:104220000B2964000B30FB002630FC005D30FD00E4
:10423000FD0B1829FC0B1829FB0B182900000000A6
:1042400064002900B0010430B1005C30B2000130DC
:10425000B3000830B40080317323A031013029004D
:10426000B0000330B1005130B2000130B3000A3069
:10427000B40080317323A03164000D30FB002D3079
:10428000FC00D730FD00FD0B4329FC0B4329FB0B41
:1042900043290000000064000B30FB002630FC00C6
:1042A0005D30FD00FD0B5229FC0B5229FB0B5229FE
:1042B0000000000064002900B0010430B100483063
:1042C000B2000130B3000830B40080317323A03154
:1042D00001302900B0000330B1002A30B2000130B3
:1042E000B3000A30B40080317323A0310430FB00E6
:1042F0000C30FC003330FD00FD0B7C29FC0B7C29CD
:10430000FB0B7C29000000002900B001B101D63070
:10431000B2000030B3000830B40080317323A03104
:1043200001302900B000B101CD30B2000030B3003F
:104330000830B40080317323A03124006F080319C2
:10434000AE292900B0010830B100CB30B2000030F6
:10435000B3000130B40080317323A0316400FF301A
:104360002600EF00FF302000EE0088310020A03151
:104370000800640028002D08043A0130031D0030B5
:10438000F1002D08053A0130031D0030F0007108DE
:10439000F0040319DA2902302900B0004030B100DE
:1043A000A530B2000130B3000430B4008031732373
:1043B000A031F12928002D08003A0319EE29013017
:1043C0002900B0000430B100A030B2000130B300C9
:1043D0000430B40080317323A031F12922000D177D
:1043E0008D1722000E100E138E139831F725A03171
:1043F00028002D08003A031D1F2A8030F00080306D
:104400002C067002031D062A2B08963C031C0C2A5E
:1044100022000D138D171F2A8030F00080302800F5
:104420002C067002031D162A2B08FA3C031C1C2ABA
:1044300020000D138D131F2A20000D178D138030BF
:10444000F000803028002C067002031D292A2B085A
:10445000963C031C2E2A22000E143F2A8030F000C6
:10446000803028002C067002031D382A2B08FA3CE5
:10447000031C3D2A22000E173F2A22008E17FF3010
:104480002800D70024006B082800D800883199271D
:10449000A031FE302800D700240069082800D80089
:1044A00088319927A031FD302800D70024006A0800
:1044B0002800D80088319927A03110302400E70067
:1044C0002730E80010302700CA002730CB00983191
:1044D0000020A03128002B082400ED0028002C0823
:1044E0002400EE0022008C138C156400080080313B
:1044F0000320A03127006F082900C9008031222045
:10450000A0312900C90180312220A031AE3029001C
:10451000C90080312220A03127006E08023A013004
:10452000031D0030F1006E08033A0130031D003016
:10453000F0007108F0040319532BD5302900C9008D
:1045400080312220A03180302900C9008031222012
:10455000A031A8302900C90080312220A0313F308D
:104560002900C90080312220A031D3302900C900A0
:1045700080312220A03127006E08023A031DC72A8D
:104580006C082900C90080312220A031CF2A2700E1
:104590006C081F3E2900C90080312220A031403024
:1045A0002900C90080312220A0318D302900C900A6
:1045B00080312220A03114302900C900803122200E
:1045C000A03181302900C90080312220A031B430CF
:1045D0002900C90080312220A031D9302900C9002A
:1045E00080312220A03122302900C90080312220D0
:1045F000A03120302900C90080312220A0310230B2
:104600002900C90080312220A03121302900C900B1
:1046100080312220A0312900C90180312220A0311F
:104620007F302900C90080312220A0312E3029009E
:10463000C90080312220A03127006E08023A031DF4
:104640002E2BA0302900C90080312220A031C0309B
:104650002900C90080312220A0313A2BA130290045
:10466000C90080312220A031C8302900C900803122
:104670002220A031DA302900C90080312220A03167
:1046800002302900C90080312220A031DB3029000E
:10469000C90080312220A03140302900C90080317A
:1046A0002220A031FB2BD5302900C90080312220E7
:1046B000A03180302900C90080312220A031A830EB
:1046C0002900C90080312220A0313F302900C900D3
:1046D00080312220A031D3302900C900803122202E
:1046E000A03127006C082900C90080312220A031A8
:1046F00040302900C90080312220A0318D302900AE
:10470000C90080312220A03114302900C900803135
:104710002220A03181302900C90080312220A0311F
:10472000FF302900C90080312220A031D930290072
:10473000C90080312220A031F1302900C900803128
:104740002220A03120302900C90080312220A03150
:1047500002302900C90080312220A03121302900F7
:10476000C90080312220A0312900C90180312220D6
:10477000A0317F302900C90080312220A0312E30A5
:104780002900C90080312220A03127006E08043A98
:10479000031DD72BA0302900C90080312220A03171
:1047A000C0302900C90080312220A031E32BA13084
:1047B0002900C90080312220A031C8302900C90059
:1047C00080312220A031DA302900C9008031222036
:1047D000A03112302900C90080312220A031DB3005
:1047E0002900C90080312220A03140302900C900B1
:1047F00080312220A031A4302900C900803122203C
:10480000A031A6302900C90080312220A03180319A
:10481000D120A0310330FB000830FC007730FD00D0
:10482000FD0B102CFC0B102CFB0B102C80310320EB
:10483000A03127006F082900C90080312220A03153
:1048400040302900C90080312220A03127006E08A5
:10485000023A0130031D0030F1006E08033A0130C6
:10486000031D0030F0007108F0040319562C2800D5
:10487000C3014308033C031C552C43082900C40012
:10488000C50180317920A0312800C2012800803084
:1048900042020318522CC20A2900C9018031222089
:1048A000A031462C2800C30A392C742C2800C301DF
:1048B0004308073C031C742C43082900C400C501AD
:1048C00080317920A0312800C201280080304202C6
:1048D0000318712CC20A2900C90180312220A0319D
:1048E000652C2800C30A582C8031D120A031AF306C
:1048F0002900B00080310424A031080028002D08D0
:10490000043A0130031D0030F1002D08053A013052
:10491000031D0030F0007108F00403199D2C2900DC
:10492000B0010A30B100BE30B2000130B30009302E
:10493000B40080317323A031AF2C28002D08003A39
:104940000319AF2C2900B0010330B100B430B2001C
:104950000130B3000930B40080317323A03164000A
:104960000B30FB002630FC005D30FD00FD0BB62C4B
:10497000FC0BB62CFB0BB62C0000000064000B30C7
:10498000FB002630FC005D30FD00FD0BC52CFC0B50
:10499000C52CFB0BC52C0000000064000B30FB0095
:1049A0002630FC005D30FD00FD0BD42CFC0BD42C1C
:1049B000FB0BD42C0000000064000B30FB00263001
:1049C000FC005D30FD00FD0BE32CFC0BE32CFB0B2E
:1049D000E32C00000000640028002D08043A013098
:1049E000031D0030F1002D08053A0130031D003091
:1049F000F0007108F00403190B2D2900B0010A30F2
:104A0000B100AA30B2000130B3000930B4008031E7
:104A10007323A0311D2D28002D08003A03191D2DE8
:104A20002900B0010330B1004A30B2000230B300B7
:104A30000930B40080317323A03188318527A0313B
:104A400001302400EA0001302800D7008831B72760
:104A5000A031FF302800D70024006B082800D800C0
:104A600088319927A031FE302800D700240069083A
:104A70002800D80088319927A031FD302800D700C0
:104A800024006A082800D80088319927A03128001E
:104A90002D08043A0130031D0030F1002D08053ABD
:104AA0000130031D0030F0007108F0040319662D79
:104AB0002900B0017030B1004830B2000230B300BC
:104AC0000130B40080317323A031782D28002D08E7
:104AD000003A0319782D2900B0010830B1004630A2
:104AE000B2000230B3000130B40080317323A03132
:104AF00001302300EF000020080001302800C20030
:104B00008831F227A03170082700EE000730280016
:104B1000C2008831F227A03170082700EC0008306D
:104B20002800C2008831F227A03170082800A000B8
:104B300027006E08013A03199F2D77220E2E0130AF
:104B40002700E700E60103302900BA008031422146
:104B5000A0311A30FC00F830FD00FD0BAD2DFC0B30
:104B6000AD2D000003302900BA0080314221A03170
:104B70000630FC003030FD00FD0BBC2DFC0BBC2DC5
:104B8000000003302900BA0080314221A0310230F8
:104B90002900BA0080314221A03102302900BA0038
:104BA00080314221A03108302900BA0080314221F1
:104BB000A0312900BA0180314221A03108302900FA
:104BC000BA0080314221A0312900BA01803142214E
:104BD000A03101302900BA0080314221A0311A30C1
:104BE000FC00F830FD00FD0BF32DFC0BF32D000055
:104BF0002900BA0180314221A03106302900BA00D3
:104C000080314221A0312900BA0180314221A031F6
:104C10000C302900BA0080314221A03108000D304B
:104C20002800EB000030EC00ED013230EE00EF0127
:104C30008831E326A03170080319C62E0630FB0028
:104C40001330FC00AD30FD00FD0B242EFC0B242E98
:104C5000FB0B242E00000000640020000D1C432EDE
:104C600024006A08003A031D382E0130EA00392E6C
:104C7000EA016A082800D7008831B727A0318831B7
:104C80000020A031B22E2608013A031D492EA601AC
:104C90004B2E0130A6002608013A031D812E280064
:104CA0002D08043A0130031D0030F1002D08053AAB
:104CB0000130031D0030F0007108F00403196E2E5E
:104CC0002900B0017030B1002430B2000030B300D0
:104CD0000130B40080317323A031802E28002D08CC
:104CE000003A0319802E2900B0010830B1002230AB
:104CF000B2000030B3000130B40080317323A03122
:104D0000B22E28002D08043A0130031D0030F100B6
:104D10002D08053A0130031D0030F0007108F00441
:104D20000319A02E2900B0017030B1002A30B20062
:104D30000030B3000130B40080317323A031B22EB3
:104D400028002D08003A0319B22E2900B0010830BE
:104D5000B1002830B2000030B3000130B40080311F
:104D60007323A0310D302800EB000030EC00ED0182
:104D70003230EE00EF018831E326A03170080319CC
:104D8000C62E98310020A0316400B22E0D302800CC
:104D9000EB000030EC000530ED003230EE00EF01AA
:104DA0008831E326A03170080319172F6400200012
:104DB0008D1A172F1F3024006902013003180030AC
:104DC000F00020002608F0050319EF2E2400E90A60
:104DD00069082800DF0088315627A031072F2000FE
:104DE00026080130031D0030F1001F3024006B0243
:104DF000013003180030F0007108F0050319072F87
:104E0000EB0A6B082800DF008031CB27A031883106
:104E10000020A03198310020A0319C30FC00D73018
:104E2000FD00FD0B112FFC0B112F6400D72E0D3050
:104E30002800EB000030EC000430ED003230EE00D2
:104E4000EF018831E326A03120002708003A013025
:104E5000031D0030F1007108F0050319702F640084
:104E600020000D1A702F24006908003C013003183F
:104E70000030F00020002608F0050319482F240018
:104E8000E90369082800DF0088315627A031602F28
:104E9000200026080130031D0030F10024006B08BB
:104EA000003C013003180030F0007108F0050319D0
:104EB000602FEB036B082800DF008031CB27A03187
:104EC00088310020A03198310020A0319C30FC00B6
:104ED000D730FD00FD0B6A2FFC0B6A2F6400302FCA
:104EE00008002100971217169711171597106400E4
:104EF00023008C010C148C148D0122009113931348
:104F000078302100990020008C018D018E0108303D
:104F100022008C008D018E01033021008C00F930BD
:104F20008D008E019831A827A0311E149E14951370
:104F300024000D148D150D168D168B13080012000C
:104F40001E00F003031D9F2FF103031D9F2F080078
:104F50006C3400346C340034013400346334003475
:104F600063340034003441344E343D3430342E3414
:104F70003034573400344534463446343D342034DC
:104F8000203430342534003441344E3454343D34EC
:104F900030342E34303457340034453446344634BB
:104FA0003D3420343034253400342E340034003481
:104FB00000342E340034203400345F3400340034A4
:104FC0000034003400340034003445344634463470
:104FD0003D342034203430342534003475344834A2
:104FE00000344C343D34003446344134533454346A
:104FF000203454344534533454340034103427347A
:105000000D302800EB000030EC00ED013230EE00F6
:10501000EF018831E326A83125006908F00403195F
:10502000852880312A27A83127004908F0008031DF
:10503000BC27A83127004508F4004608F5004708BA
:10504000F6004808F70088317D26A83180314327D3
:10505000A83170082600ED007108EE000630FB0054
:105060001330FC00AD30FD00FD0B3428FC0B342860
:10507000FB0B342800000000640025006908003A9A
:105080000130031D0030F10020000D1849280310E5
:105090004A280314F0010318F00A7108F0050319F7
:1050A000572890314526A8312000A70185282200E5
:1050B0008C178C1164000630FB001330FC00AD30FF
:1050C000FD00FD0B6128FC0B6128FB0B6128000033
:1050D00000006400A031B921A8312000A7010D30E3
:1050E0002800EB000030EC00ED013230EE00EF0163
:1050F0008831E326A83170080319832898310020ED
:10510000A83164006F282500E9010D302800EB006C
:105110000030EC000530ED003230EE00EF01883158
:10512000E326A83170080319B52980312A27A83150
:1051300027004908F0008031BC27A8312700450826
:10514000F4004608F5004708F6004808F7008831E3
:105150007D26A83180314327A83170082600ED0054
:105160007108EE00640020002708003A031DE528BE
:105170000130A70024006B082000DD00240069082E
:105180002000D90024006A082000D2002400EB018E
:10519000E9010130EA002800DF0188315627A831F3
:1051A00024006B082800DF008031CB27A8312400C1
:1051B0006A082800D7008831B727A83124006F0873
:1051C0002000D1002400EF010B292000A7015D0879
:1051D0002400EB00200059082400E90020005208B8
:1051E0002400EA0020005D082800DF008031CB2782
:1051F000A831240069082800DF0088315627A8312B
:1052000024006A082800D7008831B727A831200079
:1052100051082400EF0028002D08043A0130031D36
:105220000030F1002D08053A0130031D0030F00078
:105230007108F00403195C29200027080130031DC0
:105240000030F00024006F08F0050319352929000B
:10525000B0017030B1004F30B2000030B300013007
:10526000B40080317323A8315B2924006F0801301A
:10527000031D0030F00020002708F00503194E2917
:105280002900B0017030B1005730B2000030B300D7
:105290000130B40080317323A8315B292900B001AB
:1052A0007030B1005530B2000030B3000130B400AE
:1052B00080317323A831A02928002D08003A031952
:1052C000A029200027080130031D0030F000240031
:1052D0006F08F00503197A292900B0010830B100E0
:1052E0005330B2000030B3000130B400803173237A
:1052F000A831A02924006F080130031D0030F00000
:1053000020002708F005031993292900B00108306F
:10531000B100C930B2000030B3000130B4008031B8
:105320007323A831A0292900B0010830B100C8308A
:10533000B2000130B3000130B40080317323A831D2
:105340000D302800EB000030EC000530ED0032306D
:10535000EE00EF018831E326A83170080319B52962
:1053600098310020A8316400A0290D302800EB00FE
:105370000030EC000430ED003230EE00EF018831F7
:10538000E326A83120002708003A0130031D003031
:10539000F1007108F0050319A82A80312A27A831E5
:1053A00027004908F0008031BC27A83127004508B4
:1053B000F4004608F5004708F6004808F700883171
:1053C0007D26A83180314327A83170082600ED00E2
:1053D0007108EE00640024006F08003A031DF329F1
:1053E0000130EF00F429EF0102302800D70024003B
:1053F0006F082800D80088319927A83128002D0887
:10540000043A0130031D0030F1002D08053A013047
:10541000031D0030F0007108F00403194F2A20002A
:1054200027080130031D0030F00024006F08F0054C
:105430000319282A2900B0017030B1006E30B20083
:105440000130B3000130B40080317323A8314E2AFB
:1054500024006F080130031D0030F00020002708F1
:10546000F0050319412A2900B0017030B100EE3077
:10547000B2000030B3000130B40080317323A83192
:105480004E2A2900B0017030B100CE30B200013098
:10549000B3000130B40080317323A831932A28006F
:1054A0002D08003A0319932A200027080130031D14
:1054B0000030F00024006F08F00503196D2A290060
:1054C000B0010830B100CC30B2000130B30001307F
:1054D000B40080317323A831932A24006F0801306F
:1054E000031D0030F00020002708F0050319862A6C
:1054F0002900B0010830B100CA30B2000130B30059
:105500000130B40080317323A831932A2900B001FF
:105510000830B100EC30B2000030B3000130B4000C
:1055200080317323A8310D302800EB000030EC00EF
:105530000430ED003230EE00EF018831E326A8316F
:1055400070080319A82A98310020A8316400932A12
:105550000800640001302800C2008831F227A83119
:1055600070082800AD000230C2008831F227A8314F
:105570007008013A031DBF2A01302400EF000330F8
:105580002800C2008831F227A83170082800C20024
:105590009031E927A8317008A300A4010430C200AB
:1055A0008831F227A83170082800C2009031E9271D
:1055B000A8310A30F4008031B920A83170082800E1
:1055C000A9007108AA000530C2008831F227A8316D
:1055D00070082800C2009031E927A8310A30F40091
:1055E0008031B920A83170082700CF007108D000A1
:1055F00006302800C2008831F227A8317008280040
:10560000C2009031E927A8310A30F4008031B92076
:10561000A83170082700D1007108D2000930280095
:10562000C2008831F227A83170082800C2009031EA
:10563000E927A8310A30F4008031B920A831700878
:105640002800A1007108A20064001030C200883157
:10565000F227A83170082800C2009031E927A8314C
:105660006430F4008031B920A83170082800C000EF
:105670007108C1001130C2008831F227A8317008CA
:105680002800C2009031E927A83170084007AE0019
:105690000030413DAF001230C2008831F227A831FE
:1056A00070082800C2009031E927A8316430F40066
:1056B0008031B920A83170082800C0007108C100ED
:1056C0001330C2008831F227A83170082800C200C8
:1056D0009031E927A831700840072700DB0000302F
:1056E0002800413D2700DC0014302800C20088312A
:1056F000F227A83170082800C2009031E927A831AC
:105700006430F4008031B920A83170082800C0004E
:105710007108C1001530C2008831F227A831700825
:105720002800C2009031E927A831700840072700FF
:10573000D90000302800413D2700DA00163028004B
:10574000C2008831F227A83170082800C2009031C9
:10575000E927A8316430F4008031B920A8317008FD
:105760002800C0007108C1001730C2008831F2273C
:10577000A83170082800C2009031E927A8317008CC
:1057800040072700D70000302800413D2700D800FF
:1057900018302800C2008831F227A831700828008C
:1057A000C2009031E927A8316430F4008031B9207B
:1057B000A83170082800C0007108C1001930C2006B
:1057C0008831F227A83170082800C2009031E927FB
:1057D000A831700840072700DD0000302800413D57
:1057E0002700DE0020302800C2008831F227A831CF
:1057F00070082800C2009031E927A8316430F40015
:105800008031B920A83170082800C0007108C1009B
:105810002130C2008831F227A83170082800C20068
:105820009031E927A831700840072700D5000030E3
:105830002800413D2700D60022302800C2008831D0
:10584000F227A83170082800C2009031E927A8315A
:105850006430F4008031B920A83170082800C000FD
:105860007108C1002330C2008831F227A8317008C6
:105870002800C2009031E927A831700840072700AE
:10588000D30000302800413D2700D40024302800F8
:10589000C2008831F227A83170082800C200903178
:1058A000E927A8316430F4008031B920A8317008AC
:1058B0002800C0007108C1002530C2008831F227DD
:1058C000A83170082800C2009031E927A83170087B
:1058D00040072700E30000302800413D2700E40096
:1058E00026302800C2008831F227A831700828002D
:1058F000C2009031E927A8316430F4008031B9202A
:10590000A83170082800C0007108C1002730C2000B
:105910008831F227A83170082800C2009031E927A9
:10592000A831700840072700E10000302800413D01
:105930002700E20028302800C2008831F227A83171
:1059400070082800C2009031E927A8316430F400C3
:105950008031B920A83170082800C0007108C1004A
:105960002930C2008831F227A83170082800C2000F
:105970009031E927A831700840072700DF00003088
:105980002800413D2700E00030302800C200883167
:10599000F227A83170082800C2009031E927A83109
:1059A00070082700C90031302800C2008831F22772
:1059B000A83170082100BB0032302800C2008831B5
:1059C000F227A83170082800C2009031E927A831D9
:1059D00070082700CC0064000800B0310A22A8310A
:1059E000031AF52C01302100E900A0317127A831FC
:1059F0000330FB000830FC007730FD00FD0BFE2C6F
:105A0000FC0BFE2CFB0BFE2C6400A9229831B7275F
:105A1000A83128002D08003A031D112D22000D1772
:105A20008D1722000E100E138E1327004908F00068
:105A30008031BC27A83127004508F4004608F5004E
:105A40004708F6004808F70088317D26A8318031E4
:105A50004327A83170082600ED007108EE000530DC
:105A6000FB000F30FC00F130FD00FD0B352DFC0B71
:105A7000352DFB0B352D640020000D1A412D7414BB
:105A8000422D74108D1A462D0314472D0310741CDB
:105A90004D2D031C4D2D74144E2D7410741C532D5C
:105AA00001302100BC00A0317D25A83120000D1A55
:105AB0005B2D74145C2D74108D1A602D0314612DF0
:105AC0000310741C672D031C672D7414682D74104B
:105AD00020000D186D2D03146E2D0310741C742DF1
