:10000000A8316929FF3F29002408003A0319212853
:1000100021000D170630FD00FD0B0C2800008D1788
:100020000630FD00FD0B122800008D130630FD0088
:10003000FD0B182800000D130630FD00FD0B1E28D7
:100040000000080029002408003A03195C28F10187
:100050007108073C031C49282A00B51B32282100DF
:100060008D13342821008D170630FD00FD0B362836
:1000700000000D170630FD00FD0B3C2800000D139D
:100080000630FD00FD0B422800002A00B535F10ABC
:10009000282821008D170630FD00FD0B4D2800009B
:1000A0000D170630FD00FD0B532800000D13063020
:1000B000FD00FD0B592800000800FB14FB1F6728FA
:1000C000FF30F300F200F100F000FA0DF20CFF3007
:1000D00008007B15FB1F73280130F300F201F101CA
:1000E000F001FA0DF20CFF3008002000F801F901D0
:1000F0001030FC00710DF80DF90D7408F802750848
:10010000031C750FF90203188C287408F80775088A
:100110000318750FF9070310F00DF10DFC0B7A2889
:100120000800FA1FF213003008001D30FD00FD0B1F
:100130009728080029002408003A0319B228210052
:100140008D130630FD00FD0BA32800000D170630AF
:10015000FD00FD0BA92800008D170630FD00FD0BEA
:10016000AF280000080028006C082A003107B400FE
:100170000320290024082A00B50022202A00B50106
:1001800022202A003008B03EB50022202A00340880
:100190000F3C031CCF283408B200B301E028340818
:1001A000F200F236F236F236F2367208B300720816
:1001B000F000F035F035F035F03570083402B2005B
:1001C0003208B50022202A003308103EB500222054
:1001D0000320290024082A00B500222040302A00EC
:1001E000B50022200800F201F101F001F801F3014D
:1001F0000030080020007008F100F0010830FC0019
:100200007108F40C03180829FC0B0129F1010034D2
:1002100003100D29F40C0318F107F10CF00CFC0B82
:100220000A2908000320290024082A00B5002220FA
:1002300040302A00B50022202A002708B0002608F6
:10024000B100B3202A00AB012A082B020318D829D9
:100250002B08280784000030293D85000008003A5B
:10026000031D3429AD013D292B08280784000030E7
:10027000293D850020300002AD00AC012C08043C73
:10028000031CD0292D08F0000530F400FA202A00C4
:100290002C08F0070030F13DB43070078400AA301C
:1002A000713D85000008AE002708023A01300319AD
:1002B0000030F1002708043A013003190030F00043
:1002C0007008F1052708063A013003190030F000E4
:1002D0007108F00503199529AE197029AF1371291A
:1002E000AF17AE1975292F1376292F172E197A29D2
:1002F000AF127B29AF162E197F292F1280292F16B6
:10030000AE188429AF118529AF15AE1889292F1190
:100310008A292F152E188E29AF108F29AF142E1869
:1003200093292F1094292F14B5292E199929AF1329
:100330009A29AF172E199E292F139F292F17AE1810
:10034000A329AF12A429AF16AE18A8292F12A929E4
:100350002F162E18AD29AF11AE29AF152E18B229C0
:100360002F11B3292F15AF102F102F08B500222001
:1003700028006B08043A0130031D0030F1006B08BF
:10038000053A0130031D0030F0007108F004031934
:10039000CD292A002F08B50022202A00AC0A3E29C8
:1003A000B50122202A00B50122202A00AB0A242907
:1003B000270AB0002608B100B3202A00AB012A08A2
:1003C0002B0203189B2A2B08280784000030293DA4
:1003D00085000008003A031DEF29AD01F8292B081C
:1003E000280784000030293D850020300002AD0040
:1003F000AC012C08043C031C932A2D08F0000530A6
:10040000F400FA202A002C08F0070030F13DB43047
:1004100070078400AA30713D85000008AE002708EF
:10042000023A013003190030F1002708043A013084
:1004300003190030F0007008F1052708063A013072
:1004400003190030F0007108F0050319502AAE1BA3
:100450002B2AAF132C2AAF17AE1B302A2F13312AA9
:100460002F172E1B352AAF12362AAF162E1B3A2A0B
:100470002F123B2A2F16AE1A3F2AAF11402AAF1572
:10048000AE1A442A2F11452A2F152E1A492AAF10C9
:100490004A2AAF142E1A4E2A2F104F2A2F14782AC8
:1004A0002E1B542AAF13552AAF172E1B592A2F1370
:1004B0005A2A2F17AE1A5E2AAF125F2AAF16AE1A4B
:1004C000632A2F12642A2F162E1A682AAF11692A5E
:1004D000AF152E1A6D2A2F116E2A2F15AE19722AFA
:1004E000AF10732AAF14AE19772A2F10782A2F1461
:1004F0002F08B500222028006B08043A0130031DA4
:100500000030F1006B08053A0130031D0030F000A7
:100510007108F0040319902A2A002F08B500222040
:100520002A00AC0AF929B50122202A00B5012220AF
:100530002A00AB0ADF299A2008002A00AA01053008
:100540002A020318AD2A2A08280786000030293D10
:10055000870020308100AA0A9F2A2A0828078600DF
:100560000030293D87008101AA032A082807AB0033
:100570000030293DAC000A30F400F5012608F000F7
:100580002708F10075207808F0007908F100303074
:10059000F0072A002B0886002C08870070088100CD
:1005A0000A30F400F5012608F0002708F100752054
:1005B00070082A00A6007108A70000307106031D0C
:1005C000E32A00307006031DE62AE82AAA03B52AAA
:1005D00008007B14FB1FF42AF201FA1FFF30F2001F
:1005E000F100F000FA0DF20CFF3008000330FC00BF
:1005F0009530FD00FD0BFA2AFC0BFA2A08002A00B0
:10060000A7012600EF0101302800EF002A0026088C
:10061000A700A735A735A735A73528006E08031909
:10062000142B08302A00A70728006F0803191B2B7A
:1006300004302A00A70726006F080319222B023076
:100640002A00A70728006D080319282B2A00A70AEB
:100650000320290024082A00B50022202A002708A8
:10066000B50022209A200630FC003030FD00FD0B42
:10067000372BFC0B372B000004302A00A702032085
:10068000290024082A00B50022202A002708B500E6
:1006900022209A200630FC003030FD00FD0B4E2B4E
:1006A000FC0B4E2B0000080020002230FC00F8015B
:1006B000F901FA01FB01FC030319892B0310FB0C60
:1006C000FA0CF90CF80CF30CF20CF10CF00C031C06
:1006D0005B2BFC0303197B2B7408F80775080318C0
:1006E000750FF90776080318760FFA0777080318CD
:1006F000770FFB075F2B7408F80775080318750F51
:10070000F90776080318760FFA0777080318770FAA
:10071000FB070800FB09FA09F909F809F80A0319A7
:10072000F90A0319FA0A0319FB0A08007C18CC2BF2
:10073000FC189D2B7C19EB2B962BA1017208031D35
:10074000BD2B7108F2007008F1007808F000F80184
:10075000A1157208031DBD2B7108F2007008F1008D
:10076000F001A11121167208031DBD2B7108F200C2
:10077000F101A11572080319DF2B2108F302031DF3
:10078000031CE32B0310F21BCC2BF80DF00DF10D25
:10079000F20DF30BC32BE32B7B1B701CE72BF81F15
:1007A000E72BF00A0319F10A0319F20A031DE72BDC
:1007B000F20CF10CF00CF30A0319EB2BE72B0130D0
:1007C000FC00F320EE2B0230FC006920EE2B0430FD
:1007D000FC009120EE2B0830FC005D20000008009A
:1007E000833021009D052A002608F000F035F03501
:1007F000700821009D0495209D149D1C002CFD2B4C
:100800001C08F100F0011B08F0040030F10408009E
:10081000FB15FF3008007408F8027508031C750FFB
:10082000F9027608031C760FFA027708031C770F8B
:10083000FB02F30D0730FC00730DF80DF90DFA0DF6
:10084000FB0D7408731C322CF8027508031C750F1D
:10085000F9027608031C760FFA027708031C770F5B
:10086000FB023F2CF80775080318750FF907760887
:100870000318760FFA0777080318770FFB07F30DB5
:10088000FC0B1C2C720DF80DF90DFA0DFB0D740804
:10089000731C582CF8027508031C750FF9027608B2
:1008A000031C760FFA027708031C770FFB02652CF6
:1008B000F80775080318750FF90776080318760FFF
:1008C000FA0777080318770FFB07F20D0730FC00D3
:1008D000720DF80DF90DFA0DFB0D7408721C7E2CCB
:1008E000F8027508031C750FF9027608031C760FD1
:1008F000FA027708031C770FFB028B2CF8077508A8
:100900000318750FF90776080318760FFA077708AA
:100910000318770FFB07F20DFC0B682C710DF80D17
:10092000F90DFA0DFB0D7408721CA42CF802750861
:10093000031C750FF9027608031C760FFA0277087C
:10094000031C770FFB02B12CF80775080318750F0D
:10095000F90776080318760FFA0777080318770F58
:10096000FB07F10D0730FC00710DF80DF90DFA0DC4
:10097000FB0D7408711CCA2CF8027508031C750F56
:10098000F9027608031C760FFA027708031C770F2A
:10099000FB02D72CF80775080318750FF9077608BE
:1009A0000318760FFA0777080318770FFB07F10D86
:1009B000FC0BB42C700DF80DF90DFA0DFB0D74083D
:1009C000711CF02CF8027508031C750FF9027608EB
:1009D000031C760FFA027708031C770FFB02FD2C2D
:1009E000F80775080318750FF90776080318760FCE
:1009F000FA0777080318770FFB07F00D0730FC00A4
:100A0000700DF80DF90DFA0DFB0D7408701C162D04
:100A1000F8027508031C750FF9027608031C760F9F
:100A2000FA027708031C770FFB02232DF8077508DD
:100A30000318750FF90776080318760FFA07770879
:100A40000318770FFB07F00DFC0B002D7018362DE7
:100A50007408F80775080318750FF9077608031866
:100A6000760FFA0777080318770FFB070800A10134
:100A70007208031D4C2D7108F2007008F100F0019E
:100A8000A1157208031D4C2D7108F200F101A1118E
:100A90002116720803195A2D2108F302031D031CA5
:100AA0005E2D0310F21B622DF00DF10DF20DF30B14
:100AB000522D5E2D0130FC00F320652D0230FC002C
:100AC0006920652D0430FC00912008002000FB0106
:100AD000FA01F9018030F800F10CF00C031C792DBB
:100AE0007408F90775080318750FFA070318FB0A4D
:100AF0000310F01F812D7408FA0775080318750F8D
:100B0000FB07FB0CFA0CF90CF80C031C6C2D7B0892
:100B1000F3007A08F2007908F1007808F000080084
:100B2000200072087606A100F801F9017308770227
:100B3000031CB22D7708FD007308F7007D08F30051
:100B40007608FD007208F6007D08F2007508FD00C9
:100B50007108F5007D08F1007408FD007008F400CC
:100B60007D08F000770803192B2E7208FA00F2179F
:100B7000F61777087302F7000319E52D083077029E
:100B8000031CDB2DF7007408F9007508F4007608E3
:100B9000F500F60108307702031CDB2DF70074081E
:100BA000F9007508F400F50108307702031CDB2D0D
:100BB0007A08F2002B2E77080319E52D0310F60CA6
:100BC000F50CF40CF90CF70BDE2DA11FF22DF90931
:100BD000F409F509F609F90A0319F40A0319F50AE3
:100BE0000319F60A7908F80774080318740FF00758
:100BF00075080318750FF10776080318760FF207CA
:100C0000A11B0B2E031C1B2EF20CF10CF00CF80C8C
:100C1000F30F1B2E272E03181F2EF809F009F109D8
:100C2000F209F80A0319F00A0319F10A0319F20A82
:100C30008030FA06232E0130FC0096232D2E023040
:100C4000FC0096232D2E0430FC0037252D2E083075
:100C5000FC005D202D2E0030FC000000080020006C
:100C6000FB01730803196B2E7208FA00F2178E301D
:100C7000F302F31F6E2EF309F30A08307302031C0C
:100C8000512EF300F10D7208F100F20108307302E9
:100C9000031C512EF300F10DF1017308031D031025
:100CA000592E73080319592E0310F20CF10CF30B93
:100CB000542E7B1B711C632E031C632EF10A031937
:100CC000F20AF21B7A2EFA1F7D2EF209F109F10ABF
:100CD0000319F20A7D2EF201F1017D2E7B14FB1F18
:100CE000802EF201FA1F802EFF30F200F100FA0D83
:100CF000F20C802E0130FC00822E0030FC00822E8F
:100D0000FF30FC00FC080319862EE9227108F00070
:100D10007208F10008002000FB017308031D77082A
:100D20000319E12E72087606FA007708F3077E3081
:100D3000031C9E2EF3020318E42EA12EF302031CC3
:100D4000E72E7208F8007108FC007008FD00F81723
:100D5000F6170310F201F101F0011830A1007D1C1B
:100D6000BB2E7408F00775080318750FF107760895
:100D70000318760FF207F20CF10CF00CF80CFC0CD7
:100D8000FD0C0310A10BAF2EF21BCB2EF80DF00DB6
:100D9000F10DF20DF3037B1B701CDD2EF81FDD2E11
:100DA000F00A0319F10A0319F20A031DDD2EF20CF1
:100DB000F10CF00CF30A0319E42EFA1FF2130030C1
:100DC000E92E0130F320E92E02305D20E92E0430B7
:100DD0006920000008007408003A031D042F7508FC
:100DE000003A031D042F7608003A031D042F7708EC
:100DF000003A031D042FFF30F000FF30F100FF30F8
:100E0000F2007F30F3009C2F2000FC01F71BFC0A4E
:100E1000FD01FB01FA01F901F80173087204710484
:100E200070040319972F73087706A000A01BFD0913
:100E3000F71F252FF409F509F609F709F40A031934
:100E4000F50A0319F60A0319F70AF31F322FF009FE
:100E5000F109F209F309F00A0319F10A0319F20A78
:100E60000319F30A73087704A000A01B532F0B2467
:100E7000FC1B702FFD1F972FF009F109F209F309F0
:100E8000F00A0319F10A0319F20A0319F30AF8091F
:100E9000F909FA09FB09F80A0319F90A0319FA0A08
:100EA0000319FB0A972FF71F6A2FF31B642F730890
:100EB000FB007208FA007108F9007008F800F301ED
:100EC000F201F101F0013A2FF301F201F101F00119
:100ED000F00A0034F309F209F109F009FC17372F81
:100EE000F80A0319F90A0319FA0A0319FB0A740824
:100EF0007802031D3A2F75087902031D3A2F7608F0
:100F00007A02031D3A2F77087B02031D3A2FFB015B
:100F1000FA01F901F801F00A0319F10A0319F20ABA
:100F20000319F30AF31F3A2FA0012016FF34A00182
:100F30007C1C9B2F8A23003E08002A00A101290067
:100F40006D08F1000130F00071080319AA2FF03587
:100F5000FF3EA52F70082A00A00029006B0884001E
:100F60006C08850070080005F10071080130031D50
:100F70000030F0006F08F0060319DB2F6E08003C0C
:100F80000318C62FF622F622EE03BE2F6B0884004C
:100F90006C0885002A0020080005F1007108013066
:100FA000031D0030F00029006F08F0060319DB2F45
:100FB000FF302A00A1002A002108F00008002000CC
:100FC0007008F8007108F000F101F201F301FB0173
:100FD000FC019630F300FA01F01FF42FF809F00934
:100FE000F80A0319F00AFA177008F1007808F000FF
:100FF000F801F2013725080000340034103427349A
:101000002A00A201A30129006B082A00A4002900DC
:101010006C082A00A500803029006C06F0008030A2
:101020007002031D152800306B02031828280130B8
:101030002A00A2000030A30029006B08003C2A000F
:10104000A40029006C08031C013E2A00A501A5028A
:101050002A002408A6002508A70029006D082A00F8
:10106000A80029006E082A00A90080319D2288313D
:101070000630A0000030A1002108003C031D4228DA
:101080002008003C03186328200829006D0786000B
:101090002A00210829006E3D870001302A00200225
:1010A000F0000030213BF100700829006D0784003A
:1010B00071086E3D85000008810001302A00A00201
:1010C0000030A13B3C2829006D0886006E0887008F
:1010D000203081002A002208230403199328A0014C
:1010E000A101200829006D0784002A002108290099
:1010F0006E3D85000008203A031D83282A00A00ABF
:101100000319A10A71282A000130A0020030A13B76
:10111000200829006D0786002A00210829006E3D5D
:1011200087002D308100080028006B08043A013048
:10113000031D0030F1006B08053A0130031D00303B
:10114000F0007108F0040319BD2829006C082A007A
:10115000A60029006B082A00A70029006D082A00B4
:10116000A80029006E082A00A90029006F082A009B
:10117000AA00803112218831332928006B08023AF5
:101180000130031D0030F1006B08033A0130031DEC
:101190000030F0007108F0040319EF280730F00068
:1011A00029006C08F4008031FA208831043070077F
:1011B0002A00A60029006B082A00A700A7352900ED
:1011C0006D082A00A80029006E082A00A90029003D
:1011D0006F082A00AA0080311221883133292800A3
:1011E000ED0129006B08F000F035F0357008083E7D
:1011F0002A00A6008031FF22883129006C082A00CD
:10120000A6008031FF22883101302800ED002A003D
:10121000A00129006F082A002002031833292008A2
:1012200029006D07840000306E3D85000008F10044
:1012300071082A00A600A636A636A636A636803144
:10124000FF2288312A00200829006D078400003021
:101250006E3D850000082A00A6008031FF228831FB
:101260002A00A00A092908007408003A031D4D2924
:101270007508003A031D4D297608003A031D4D29D3
:101280007708003A031D4D29FF30F000FF30F100D0
:101290007F30F200FF30F300EF29200077080319B8
:1012A000DB2973080319E029720876068039FA00F1
:1012B000F217F617A1017208F8007108FC00700817
:1012C000FD007408FD027508031C750FFC0276080A
:1012D000031C760FF802F801FC01FD01031C7729BD
:1012E0000310F20CF10CF00CF80C0130A10077089F
:1012F000F302031C81297E302107F3070318E52937
:1013000086297E302107F307031CEA291830FA07E3
:10131000FD0DFC0DF80DF00DF10DF20DA10D740891
:10132000F0027508031C750FF1027608031C760F96
:10133000F202760DA104211C9F297D14AA297408AC
:10134000F00775080318750FF10776080318760A79
:10135000F2077D10FA031F307A05031D88297B1BD5
:101360007D1CD1290310F00DF10DF20DA10D7408B3
:10137000F0027508031C750FF1027608031C760F46
:10138000F202760D21040139FD070318FC0A031946
:10139000F80A031DD129F80CFC0CFD0CF30A031903
:1013A000E529FA1FF8137808F2007C08F1007D089F
:1013B000F0000030EE290130803108248831EE2918
:1013C00002308031F3208831EE29043080315D20F5
:1013D0008831EE290830803169208831000008000A
:1013E000A0302A00A0000F30A100A201A301A0306C
:1013F000F0000F30F1000030F2000030F30029005F
:101400006B08F4006C08F500F601F70180315423F5
:10141000883170082A00A0007108A1007208A2009B
:101420007308A30000307302031D202A00307202EB
:10143000031D202A02307102031D202AB2307002DF
:101440000318232A522AB230A0020230A13B0030F6
:10145000A23BA33B0530F00070080319352AA336E0
:10146000A20CA10CA00CFF3E2D2A2008F0002108A0
:10147000F1002208F2002308F3000130A00200303E
:10148000A13BA23BA33B70087104720473040319CF
:10149000522A0000000000000000000000000000D0
:1014A0000000352A0800813022009700171B592AB6
:1014B000562A01302A00A6008031F02388317008B6
:1014C0002900EB007108EC008030033AF200803014
:1014D00071067202031D6E2A7008E83C031C752A0F
:1014E0006B08F0006C08F100B62A823022009700E9
:1014F000171B7B2A782A01302A00A6008031F023AE
:10150000883170082900EB007108EC008030033A44
:10151000F200803071067202031D902A7008E83CC8
:10152000031C992A6B08F0006C08F100F035F10DEE
:10153000B62A833022009700171B9F2A9C2A01306D
:101540002A00A6008031F023883170082900EB00C2
:101550007108EC007008F2007108F300F235F30D29
:10156000F235F30D7208F0007308F100080029004D
:101570006B08F0006C08F1000330F4000030F50057
:1015800080316625883170082900EB007108EC0075
:101590008030F200803071067202031DD12A70087B
:1015A000503C031CD62AF001F101A92B8030F00039
:1015B00080306C067002031DDF2A6B08AB3C031CF5
:1015C000E62AF430EB070030EC3DA52B8030013AE1
:1015D000F00080306C067002031DF02A6B08483C56
:1015E000031CF72AFE30EB070030EC3DA52B8030C2
:1015F000023AF00080306C067002031D012B6B086C
:10160000463C031C082B1830EB070130EC3DA52BA2
:101610008030033AF00080306C067002031D122BFC
:101620006B08343C031C192B2930EB070130EC3DCF
:10163000A52B8030043AF00080306C067002031D48
:10164000232B6B084C3C031C2A2B3630EB07013054
:10165000EC3DA52B8030083AF00080306C0670021B
:10166000031D342B6B08853C031C3B2BAE30EB0772
:101670000130EC3DA52B80300C3AF00080306C0638
:101680007002031D452B6B08FA3C031C4C2BE43005
:10169000EB070130EC3DA52B8030123AF000803092
:1016A0006C067002031D562B6B080F3C031C5D2B50
:1016B0001230EB070230EC3DA52B8030163AF000DB
:1016C00080306C067002031D672B6B08E63C031C20
:1016D0006E2B8830EB070230EC3DA52B80301B3A97
:1016E000F00080306C067002031D782B6B08EA3C1A
:1016F000031C7F2BE730EB070230EC3DA52B80303D
:10170000213AF00080306C067002031D892B6B08B3
:10171000363C031C902B3430EB070330EC3DA52BFB
:101720008030293AF00080306C067002031D9A2B3D
:101730006B08043C031CA12B8430EB070330EC3D09
:10174000A52B5230EB070330EC3D6B08F0006C0822
:10175000F1000800813022009700171BB02BAD2B41
:101760002A00A6018031F023883170082900EB009F
:101770007108EC008030033AF2008030710672028A
:10178000031DC42B7008E83C031CCB2B6B08F00036
:101790006C08F1000A2C823022009700171BD12B15
:1017A000CE2B2A00A6018031F02388317008290051
:1017B000EB007108EC008030033AF20080307106D3
:1017C0007202031DE52B7008E83C031CEE2B6B082E
:1017D000F0006C08F100F035F10D0A2C8330220086
:1017E0009700171BF42BF12B2A00A6018031F02360
:1017F000883170082900EB007108EC007008F200D5
:101800007108F300F235F30DF235F30D7208F000B4
:101810007308F100080029005F18112C22008D10B8
:10182000132C22008D142900DF18192C22000D1111
:101830001B2C22000D1529005F19212C22000C11F0
:10184000232C22000C152900DF19292C22000C1250
:101850002B2C22000C1629005F1A312C22008C122E
:10186000332C22008C1629003C08EB003D08EC00CC
:10187000F02108002900600826004C06031D432CB7
:101880004B0829005F060319BC2C29005F082600BD
:10189000CB00290060082600CC00803029006006BB
:1018A000F00080307002031D572C64305F02031C6F
:1018B000742C05305F07F0000030603DF1007008C7
:1018C000DF007108E0007008EB007108EC00B33035
:1018D000ED000430EE00002029003508AB0036088A
:1018E000AC003708AD00922C5F08EB006008EC00FC
:1018F000B330ED000430EE00002029003708203A14
:101900000319852C3708AB00872C3030AB002E3004
:10191000AC003808203A0319902C3808AD00922CFE
:101920003030AD003208043A0130031D0030F100C0
:101930003208053A0130031D0030F0007108F00450
:101940000319AD2CEB014030EC00AB30ED0004305E
:10195000EE000330EF009420BC2C29003208003A3E
:101960000319BC2CEB010430EC00AB30ED0004306B
:10197000EE000330EF009420080029005F18C32C0C
:1019800022008E10C52C22008E142900DF18CB2CCB
:1019900022000E11CD2C22000E1529005F19D32C28
:1019A00022008E11D52C22008E152900DF19DB2C88
:1019B00022000E12DD2C22000E1629005F1AE32CE5
:1019C00022008E12E52C22008E1629003C08EB0026
:1019D0003D08EC00F02108000D302900EB0000303C
:1019E000EC00ED013230EE00EF0180319D278831AF
:1019F00070082900DF000D30EB000030EC000430EF
:101A0000ED003230EE00EF0180319D278831700803
:101A10002900DF040D30EB000030EC000530ED0054
:101A20003230EE00EF0180319D27883129005F08B8
:101A3000F00403191E2D01302600CE0008006400BA
:101A4000AA237008DF007108E0000030E01BFF30BF
:101A5000E100E20053227008E3007108E400003066
:101A6000E41BFF30E500E6005F08EB006008EC00D7
:101A7000B7228031DF27883170082900E70071081C
:101A8000E8007208E9007308EA0080306606F0009A
:101A9000803062067002031D572D61086502031D28
:101AA000572D60086402031D572D5F086302031C55
:101AB000602DE730DF000330E000E101E201AA2DF4
:101AC00063085F07F0006408603DF1006508613D50
:101AD000F2006608623DF3006430F400F501F6019F
:101AE000F70180315423883129005F08F400600831
:101AF000F5006108F6006208F7006308F402640864
:101B0000F53B6508F63B6608F73B8031EB268831EC
:101B100070082900DF007108E0007208E100730816
:101B2000E2008030F400803073067402031DA22DA1
:101B30007208003C031DA22D7108033C031DA22D59
:101B40007008E73C0318AA2DE730DF000330E000FF
:101B5000E101E2016708F0006808F1006908F2009D
:101B60006A08F3000030F4000030F5002030F60081
:101B70008230F70080318B2688310030F40000304D
:101B8000F5007A30F6008830F7003421700829001B
:101B9000E7007108E8007208E9007308EA00F43011
:101BA000F400FD30F5003430F6007F30F7003421CA
:101BB00070082900E7007108E8007208E90073085E
:101BC000EA007008F4007108F5007208F600730866
:101BD000F70080318B2688310030F4000030F500AA
:101BE0002030F6008130F700342170082900E7002A
:101BF0007108E8007208E9007308EA000030F40098
:101C00000030F5000030F6007E30F700803190257E
:101C1000883170082900E7007108E8007208E900BF
:101C20007308EA0080312F26883170082900A90046
:101C30007108AA0080307106F20080307202031D24
:101C4000232E0A30700203182A2E0130BA00003009
:101C5000BB00462E80306206F00080307002031D0B
:101C60003B2E00306102031D3B2E00306002031D3D
:101C70003B2E64305F020318422EE730BA00033077
:101C8000BB00462E5F08BA006008BB000800640075
:101C90002900600827006B06031D512E6A082900E1
:101CA0005F060319DB2E29005F082700EA002900E0
:101CB00060082700EB00003029006006031D622E3B
:101CC00001305F06031D942E3208043A0130031DD3
:101CD0000030F1003208053A0130031D0030F000F9
:101CE0007108F0040319802E0230EB004030EC0044
:101CF0005130ED000330EE000430EF009420902EC0
:101D000029003208003A0319902E0130EB0004300C
:101D1000EC005630ED000330EE000430EF0094206C
:101D20002700EA01EB01DB2E29005F082700EA000B
:101D3000290060082700EB0029005F08EB0060081D
:101D4000EC00B330ED000430EE000020290036082E
:101D5000AB002E30AC003708AD003808AE003208BA
:101D6000043A0130031D0030F1003208053A013019
:101D7000031D0030F0007108F0040319CB2E02306F
:101D8000EB004030EC00AB30ED000430EE000430EE
:101D9000EF009420DB2E29003208003A0319DB2ED5
:101DA0000130EB000430EC00AB30ED000430EE000D
:101DB0000430EF009420640008002600CA01C60128
:101DC0002900DF010B24260046082900DF00BD247E
:101DD00029003C08EB003D08EC00F0210800290038
:101DE000590823009100920129005A08230093000A
:101DF0001513951315150B08F0008B13553096002D
:101E0000AA3096009514F01B072F8B13082F8B1701
:101E10001511951C0C2F092F080029005918132F94
:101E200022000C13152F22000C1729003C08EB0090
:101E30003D08EC00F0210800710DF80DF90D740853
:101E4000F8027508031C750FF902F00DF10D0F3043
:101E5000FC00710DF80DF90D7408701C352FF80297
:101E60007508031C750FF9023A2FF8077508031857
:101E7000750FF907F00DF10DFC0B292F7018462F87
:101E80007408F80775080318750FF90700000800B3
:101E9000DD2601302600C80001302900D9000D27B9
:101EA000FF302900D900DA01EF26FE302900D900E1
:101EB000DA01EF26FD302900D9000130DA00EF26E3
:101EC00090316023883129003208003A031D6B2FBE
:101ED00022000D178D1722008C138C150E100E1377
:101EE0008E132900BA01BB01A901AA012700E8014C
:101EF000E90129003208043A0130031D0030F100E5
:101F00003208053A0130031D0030F0007108F0047A
:101F10000319B22F0230EB001030EC00DF30ED007F
:101F20000330EE000830EF00942064000D30FB0019
:101F30002D30FC00D730FD00FD0B9C2FFC0B9C2F9F
:101F4000FB0B9C2F0000000002302900EB0010303A
:101F5000EC00D630ED000330EE000830EF009420A6
:101F60006400DC2F29003208003A0319DC2F01300D
:101F7000EB00EC013B30ED000430EE000830EF00E8
:101F8000942064000D30FB002D30FC00D730FD00A4
:101F9000FD0BC82FFC0BC82FFB0BC82F0000000047
:101FA00001302900EB00EC014D30ED000430EE0073
:101FB0000830EF009420640010302700EA0027303A
:101FC000EB0010302600CB002730CC0090310020F1
:101FD00088310800290044082300910092019513DC
:101FE000151315141308F000080012001E00F0036A
:101FF000031DF52FF103031DF52F08002E340034C7
:102000002900DD01DE0164304002DA000030413B8E
:10201000DB00A901AA0101302600CF000030D0006A
:1020200064004D080319182828302900DC001B28FB
:1020300029007830DC00D9015C08590203187D289A
:1020400026004D08003A0130031D0030F100200049
:102050000D182C2876142D2876100D1A312803140B
:1020600032280310761838280318382876103928B3
:10207000761420008D1A3E2803143F28031076188A
:10208000452803184528761046287614F00176185E
:10209000F00A7108F005031957288831EC249031B3
:1020A00026004E08013A031D5728CE015F2B8831C8
:1020B0001F25903180305E06F00080302A067002C5
:1020C000031D642829085D02031871282908DD0012
:1020D0002A08DE003A082600CF0029003B08260027
:1020E000D0001030FC009430FD00FD0B7528FC0B77
:1020F000752800002900D90A1C2864005D08BE006C
:102100005E08BF0026004F082900DF0026005008A7
:102110002900E000883147269031803026005006A3
:10212000F0008030290041067002031D9A28400803
:1021300026004F0226000130031C0030F00070081A
:102140006D05F500803027006906F3008030260019
:1021500050067302031DAF284F08270068022700AE
:10216000013003180030F300680826004F02F10028
:10217000270069082600503BF200803029005B06EA
:10218000F000803072067002031DC82871085A02E0
:10219000013003180030F00070087305F40080303F
:1021A00026005006F3008030270069067302031DE5
:1021B000DC28680826004F02260001300318003092
:1021C000F3004F0827006802F1002600500827009E
:1021D000693BF200803029005B06F0008030720617
:1021E0007002031DF52871085A02013003180030EF
:1021F000F0007308F00570087404F1002700690806
:10220000033A031D0529E73068060130031D00303D
:10221000F0007108F0047508F00503191229013067
:102220002600EE0026004D08003A0130031D003064
:10223000F10020000D181E2976141F2976108D1824
:10224000232903142429031076182A2903182A297C
:1022500076102B29761420000D193029031431290A
:102260000310761837290318372976103829761481
:10227000F0017618F00A7108F00503194929883130
:10228000EC24903126004E08013A031D4929CE0165
:102290005F2B29003E08DF003F08E00088313A2428
:1022A000903126004D08003A0130031D0030F10046
:1022B00020000D185D2976145E2976108D1862298C
:1022C0000314632903107618692903186929761005
:1022D0006A29761420000D196F2903147029031040
:1022E0007618762903187629761077297614F00166
:1022F0007618F00A7108F005031988298831EC2452
:10230000903126004E08013A031D8829CE015F2B2B
:1023100064008030053AF000803029003F067002EA
:10232000031D94293E08DC3C03185F2B3208043A55
:102330000130031D0030F1003208053A0130031D61
:102340000030F0007108F0040319752A0230EB0028
:102350001030EC005B30ED000330EE000830EF0091
:102360008831942090310330FB000830FC00773036
:10237000FD00FD0BB929FC0BB929FB0BB929023073
:102380002900EB001030EC006430ED000330EE006B
:102390000830EF008831942090310B30FB0026305C
:1023A000FC005D30FD00FD0BD329FC0BD329FB0B9A
:1023B000D32900000000640002302900EB00103037
:1023C000EC00A030ED000330EE000830EF00883163
:1023D000942090310730FB001730FC006A30FD007C
:1023E000FD0BF029FC0BF029FB0BF029000002305B
:1023F0002900EB001030EC00A930ED000330EE00B6
:102400000830EF008831942090310B30FB002630EB
:10241000FC005D30FD00FD0B0B2AFC0B0B2AFB0BB7
:102420000B2A00000000640002302900EB0010308D
:10243000EC00B230ED000330EE000830EF008831E0
:10244000942090310730FB001730FC006A30FD000B
:10245000FD0B282AFC0B282AFB0B282A000002303F
:102460002900EB001030EC00BB30ED000330EE0033
:102470000830EF008831942090310B30FB0026307B
:10248000FC005D30FD00FD0B432AFC0B432AFB0BD7
:10249000432A00000000640002302900EB001030E5
:1024A000EC003230ED000430EE000830EF008831EF
:1024B000942090310330FB000830FC007730FD00A1
:1024C000FD0B602AFC0B602AFB0B602A02302900FE
:1024D000EB001030EC004430ED000430EE0008302A
:1024E000EF00883194209031402B29003208003AC7
:1024F0000319402B0130EB00EC01C430ED00033038
:10250000EE000830EF008831942090310330FB005A
:102510000830FC007730FD00FD0B8C2AFC0B8C2A68
:10252000FB0B8C2A01302900EB00EC012930ED0077
:102530000430EE000830EF008831942090310B30E9
:10254000FB002630FC005D30FD00FD0BA52AFC0BD6
:10255000A52AFB0BA52A0000000064000130290019
:10256000EB00EC012030ED000430EE000830EF000D
:102570008831942090310730FB001730FC006A301E
:10258000FD00FD0BC12AFC0BC12AFB0BC12A000078
:1025900001302900EB00EC01CD30ED000330EE00FE
:1025A0000830EF008831942090310B30FB0026304A
:1025B000FC005D30FD00FD0BDB2AFC0BDB2AFB0B76
:1025C000DB2A00000000640001302900EB00EC0170
:1025D0005130ED000130EE000830EF0088319420DA
:1025E00090310730FB001730FC006A30FD00FD0B16
:1025F000F72AFC0BF72AFB0BF72A00000130290011
:10260000EB00EC014830ED000130EE000830EF0047
:102610008831942090310B30FB002630FC005D3077
:10262000FD00FD0B112BFC0B112BFB0B112B0000E4
:102630000000640001302900EB00EC013F30ED00A8
:102640000130EE000830EF008831942090310330E3
:10265000FB000830FC007730FD00FD0B2D2BFC0B40
:102660002D2BFB0B2D2B01302900EB00EC015A30F8
:10267000ED000130EE000830EF00883194209031F9
:102680000B30FB002630FC005D30FD00FD0B462BBF
:10269000FC0B462BFB0B462B0000000064001030A7
:1026A0002700EA002730EB0026004F082900DF0052
:1026B000260050082900E0008831472690310800A4
:1026C000640026004A0821006F060130031900301B
:1026D000F1002600480820006F0601300319003081
:1026E000F0007108F0040319B02C26004A082100FC
:1026F000EF002800D801D90126004A1C842B2800AD
:102700005608D8075708D93D2600CA1C8F2B27002A
:102710006E082800D80727006F082800D93D26003A
:102720004A1D972B28005E08D8075F08D93D260070
:10273000CA1D9F2B28005C08D8075D08D93D2600DC
:102740004A1EA72B28005A08D8075B08D93D290044
:102750003208003A013003190030F1003208013A22
:10276000013003190030F0007108F0050319522CF4
:10277000280058082900EB00280059082900EC001F
:10278000B330ED000430EE00883100209031290094
:102790003508203A0319CF2B3508AB00D12B303048
:1027A000AB002E30AC003608203A0319DA2B36087D
:1027B000AD00DC2B3030AD003708203A0319E32B95
:1027C0003708AE00E52B3030AE003208043A013055
:1027D000031D0030F1003208053A0130031D0030BE
:1027E000F0007108F0040319242C26004808013A6F
:1027F000031DFE2B04302900D900012C29000630CE
:10280000D9002600480820006F060319152C29005E
:102810005908EB001030EC006330ED000130EE00A1
:102820000830EF0088319420903129005908EB00DE
:102830002830EC00AB30ED000430EE000430EF0047
:10284000883194209031512C26004808013A031D0C
:102850002C2C2900D9012F2C29000130D900260069
:10286000480820006F060319432C29005908EB0083
:102870000930EC00C230ED000130EE000830EF000E
:1028800088319420903129005908EB000B30EC007E
:10289000AB30ED000430EE000430EF0088319420BE
:1028A0009031B02C29003208003A0319B02C323094
:1028B00028005807F0000030593DF1007008D8009A
:1028C0007108D90070082900EB007108EC00B330E2
:1028D000ED000430EE0088310020903129003508E9
:1028E000203A0319762C3508AB00782C3030AB0039
:1028F0002E30AC003608203A0319812C3608AD0082
:10290000832C3030AD0026004808013A031D8B2C83
:102910002900D9018E2C29000130D9002600480851
:1029200020006F060319A22C29005908EB0009307A
:10293000EC00BA30ED000130EE000730EF008831D6
:102940009420903129005908EB000B30EC00AB309B
:10295000ED000430EE000330EF0088319420903118
:102960002600460822006D06013003190030F100F0
:102970002600480820006F06013003190030F000DF
:102980007108F0040319CC2D260046082200ED0042
:102990002800D801D9012600461CD32C280068083D
:1029A000D8076908D93D2600C61CDB2C280066081C
:1029B000D8076708D93D2600461DE32C2800640887
:1029C000D8076508D93D2600C61DEB2C28006208F3
:1029D000D8076308D93D2600461EF32C280060085E
:1029E000D8076108D93D29003208003A013003199F
:1029F0000030F1003208013A013003190030F000D4
:102A00007108F0050319892D280058082900EB00EA
:102A1000280059082900EC00B330ED000430EE0026
:102A200088310020903129003508AB003608AC0011
:102A30003708AD003808AE003208043A0130031DF3
:102A40000030F1003208053A0130031D0030F0007B
:102A50007108F00403195B2D26004808013A031D94
:102A6000352D06302900D900382D29000430D90031
:102A70002600480820006F0603194C2D290059082C
:102A8000EB001030EC00A030ED000130EE0008301B
:102A9000EF0088319420903129005908EB0028304C
:102AA000EC00AB30ED000430EE000430EF00883174
:102AB00094209031882D26004808013A031D642D8A
:102AC00001302900D900662D2900D90126004808C7
:102AD00020006F0603197A2D29005908EB000930F0
:102AE000EC00B130ED000130EE000830EF0088312D
:102AF0009420903129005908EB000B30EC00AB30EA
:102B0000ED000430EE000430EF0088319420903165
:102B1000CC2D280058082900EB002800590829006E
:102B2000EC00B330ED000430EE008831002090312D
:102B300029003608AB003708AC003808AD00260085
:102B40004808013A031DA82D01302900D900AA2DFB
:102B50002900D9012600480820006F060319BE2D60
:102B600029005908EB000930EC00A930ED000130D4
:102B7000EE000730EF008831942090312900590889
:102B8000EB000B30EC00AB30ED000430EE00033016
:102B9000EF0088319420903164002600480820001E
:102BA000EF0026004D08003A031D6B2E2900320865
:102BB000043A0130031D0030F1003208053A0130BB
:102BC000031D0030F0007108F0040319272E2200C5
:102BD0006C080130031D0030F00026006D08F00580
:102BE0000319002E2900EB017030EC003D30ED00A0
:102BF0000130EE000130EF00883194209031262E14
:102C000026006D080130031D0030F00022006C0822
:102C1000F0050319192E2900EB017030EC0060302B
:102C2000ED000030EE000130EF008831942090314B
:102C3000262E2900EB017030EC005E30ED000030F4
:102C4000EE000130EF008831942090316B2E290086
:102C50003208003A03196B2E22006C080130031D64
:102C60000030F00026006D08F0050319452E2900FC
:102C7000EB010830EC005C30ED000030EE0001307C
:102C8000EF008831942090316B2E26006D080130C2
:102C9000031D0030F00022006C08F00503195E2EC1
:102CA0002900EB010830EC006430ED000030EE004C
:102CB0000130EF008831942090316B2E2900EB0118
:102CC0000830EC006230ED000030EE000130EF0023
:102CD000883194209031640008007408003A031D84
:102CE0007A2E7508003A031D7A2EFF30F0007F30EF
:102CF000F100D42E2000FD01F901F80171087004E3
:102D00000319003471087506FA00FA1BFD09FB016E
:102D1000F51F8F2EF409F509F40A0319F50AF11FBE
:102D2000962EF009F109F00A0319F10A71087504E9
:102D3000FA00FA1BAB2E88311C2790317B18C02E6D
:102D4000FD1F0034F009F109F00A0319F10AF8092E
:102D5000F909F80A0319F90A0034F51FBC2EF11B12
:102D6000B82E7108F9007008F800F101F001A02EEA
:102D7000F101F001F00A0034F109F009FB0A9D2E7F
:102D8000F80A0319F90A74087802031DA02E7508C1
:102D90007902031DA02EF901F801F00A0319F10AC6
:102DA000F11FA02E0000FF34080088311F2590314C
:102DB00025006F08643A0319F62EEF0A80302600CA
:102DC0004406F000803029002A067002031DEB2E15
:102DD0002908260043020318F52E29002908260099
:102DE000C30029002A082600C400062F2500EF0191
:102DF000260043082900DF00260044082900E000DF
:102E000088313A2490312600C301C4018030290062
:102E10002A06F200803026067202031D112F2508B3
:102E20002902013003180030F20080302806F1003A
:102E300080302A067102031D1F2F29082702013046
:102E400003180030F1008030F00080302806700256
:102E5000031D2C2F2708003C013003180030F00020
:102E60007108F0057208F00403199D2F6400883181
:102E70001F25903125006F08643A0319582FEF0A77
:102E8000803026004406F000803029002A067002B7
:102E9000031D4D2F2908260043020318572F290030
:102EA00029082600C30029002A082600C400682F2C
:102EB0002500EF01260043082900DF002600440812
:102EC0002900E00088313A2490312600C301C40172
:102ED0000D302900EB000030EC00ED010530EE0074
:102EE0000130EF0080319D279031700803197B2F4E
:102EF00001302600C50026004508013A0130031DB7
:102F000000302900D8000D30EB000030EC00ED015E
:102F10000530EE00EF0180319D27903129005808DF
:102F2000F00503199C2F8831482790312900BA01F8
:102F3000BB01F001F101A12F062F3A08F0003B0878
:102F4000F1000800803103209031290024082A0074
:102F5000B50080312220903180302A00B5008031C8
:102F600022209031290046082A00B5008031222015
:102F7000903180319A209031080029004408F000F7
:102F8000F036F036F036F0360A30F4008031FA20B0
:102F900090310F3029004405F1007108F007080056
:102FA000F0302900A0000330A1002630A200053037
:102FB000A300F03021009E009D011D14080029008F
:102FC000C4018831EA27903170082900A4007008F4
:102FD000003A031DF22F21000D138D1322000D174F
:102FE0008D17F82F21000D178D1722000D138D134B
:102FF0000800543455344E34453400342E340034F3
:1030000003302900D5002600C6012900DF018831E0
:10301000BD2498319031D52698317008D6007108BA
:10302000D7005608BA005708BB001430F40000302F
:10303000F5005608F0005708F10090316D269831E0
:10304000700829005607D3007108573DD400550871
:10305000D20052081F3C031C82285208DF0088312E
:10306000BD2498319031D52698317008BA00710886
:10307000BB0080307106F200803054067202031DDE
:10308000432853087002031880281430F4000030DD
:10309000F5003A08F0003B08F10090316D269831B8
:1030A000700829003A07D30071083B3DD40052084C
:1030B0002600C600290055082600C70080302900D8
:1030C0003B06F00080307002031D682878303A0219
:1030D00003186B28822855085207F1007108D200A6
:1030E0007108093A031D77280830D2007F2852085A
:1030F000113A031D7F281030D2000430D5008128FA
:1031000082282928260046082900DF008831BD24AE
:1031100098310800260049082900CC0026004908FB
:103120004A07F10071082900CE0071081F3C0318FE
:103130009B281F30CE0026004A0829004C020318A5
:10314000A7284C0826004A022900CF00A828CF0152
:103150004F082600CA0029004F08DF0088310B24E1
:1031600098319031D52698317008BA007108BB00AB
:1031700000307106031DBE2800307006031DC128F3
:1031800045293A08D0003B08D1004F0ACD004D0830
:103190004E02031C3E294D08DF0088310B24983174
:1031A0009031D52698317008BA007108BB00003004
:1031B0007106031DDD2800307006031DE028452937
:1031C00080303B06F000803051067002031DEA2873
:1031D00050083A02031CFD283430FC00F130FD0099
:1031E000FD0BF028FC0BF028000000009031D526E4
:1031F00098317008BA007108BB0080303B06F000BF
:10320000803051067002031D072950083A02031C42
:103210001A293430FC00F130FD00FD0B0D29FC0BA8
:103220000D29000000009031D52698317008BA00B1
:103230007108BB0080303B06F00080305106700200
:10324000031D242950083A0203183B293A08D000EC
:103250003B08D1004D082600CA00803029003B06FB
:10326000F00080307002031D372978303A020318CD
:103270003A293E293C293E29CD0AC72826004A087A
:103280002900DF0088310B24983108002600470808
:103290002900CC00260047084607F10071082900E4
:1032A000CE0071081F3C031857291F30CE0026009E
:1032B000460829004C02031863294C0826004602E0
:1032C0002900CF006429CF014F082600C60029003D
:1032D0004F08DF008831BD2498319031D5269831D0
:1032E0007008BA007108BB0000307106031D7A290E
:1032F00000307006031D7D29012A3A08D0003B08E2
:10330000D1004F0ACD004D084E02031CFA294D088A
:10331000DF008831BD2498319031D526983170086E
:10332000BA007108BB0000307106031D99290030F6
:103330007006031D9C29012A80303B06F000803076
:1033400051067002031DA62950083A02031CB92930
:103350003430FC00F130FD00FD0BAC29FC0BAC2936
:10336000000000009031D52698317008BA0071082D
:10337000BB0080303B06F000803051067002031D18
:10338000C32950083A02031CD6293430FC00F1301E
:10339000FD00FD0BC929FC0BC9290000000090317C
:1033A000D52698317008BA007108BB0080303B0602
:1033B000F000803051067002031DE02950083A02E7
:1033C0000318F7293A08D0003B08D1004D08260021
:1033D000C600803029003B06F00080307002031DDB
:1033E000F32978303A020318F629FA29F829FA293C
:1033F000CD0A8329260046082900DF008831BD2434
:103400009831080003302900D100CD015108260071
:10341000C90003302900CE001430F4000030F5005C
:103420003A08F0003B08F10090316D2698317008A1
:1034300029003A07CF0071083B3DD000CC014C0871
:103440001F3C031C7D2A4C08DF0088310B24983177
:1034500000209031D52698317008BA007108BB0061
:1034600080307106F200803050067202031D3A2A45
:103470004F08700203187B2A1430F4000030F50066
:103480003A08F0003B08F10090316D269831700841
:1034900029003A07CF0071083B3DD0004C082600B8
:1034A000CA0046082900CD0051082600C900470877
:1034B0002900CE0080303B06F00080307002031DF2
:1034C000632A78303A020318662A7D2A51084C078D
:1034D000F1007108CC007108093A031D722A083006
:1034E000CC007A2A4C08113A031D7A2A1030CC00FD
:1034F0000430D1007C2A7D2A1F2A4D082600C600F0
:103500004A082900DF0088310B249831260046083C
:103510002900DF008831BD24983129004E0826009B
:10352000C7003430FC00F130FD00FD0B952AFC0B88
:10353000952A00000000080064002600C501C301B0
:10354000C4012500EF019031D526983180303B062B
:10355000F00080307002031DAF2A6E303A0203186B
:10356000B22A532C8831DD2698319031602398316E
:103570000230FB000430FC00BA30FD00FD0BBE2A17
:10358000FC0BBE2AFB0BBE2A00009031D5269831D9
:1035900080303B06F00080307002031DD12A6E306F
:1035A0003A020318D42A532C8030F10080302700CF
:1035B0006D067102031DDE2A6C086E3C0130031893
:1035C0000030F10080306D06F000803029003B06AD
:1035D0007002031DEE2A3A0827006C02013003181E
:1035E0000030F0007108F0050319F72A532C290068
:1035F0003A08C6003B08C7000222003029003B06FB
:10360000031D042B00303A06031D0A2B8831DD26EA
:103610009831532C9031D526983180303B06F000FC
:1036200080307002031D162B78303A020318192BD4
:10363000532C8A20003029003B06031D212B00302B
:103640003A06031D272B8831DD269831532C903103
:10365000D526983180303B06F00080307002031D83
:10366000332B78303A020318362B532C4621003086
:1036700029003B06031D3E2B00303A06031D442B58
:103680008831DD269831532C9031D5269831803001
:103690003B06F00080307002031D502B78303A0258
:1036A0000318532B532C80303B06F10080307102FD
:1036B000031D5C2BC8303A02013003180030F100C2
:1036C00080303B06F000803047067002031D6A2BF5
:1036D00046083A02013003180030F0007008710506
:1036E000F3003A084602F1003B08473BF200803005
:1036F000F000803072067002031D802B7108643C5C
:10370000013003180030F0007308F0050319892B0D
:10371000532C3A08C6003B08C70026004A08290077
:10372000C800C901260046082900CA00CB012600AE
:103730004808013A031D9E2BC801A02B0130C80088
:103740008831DD269831260048082900D9008831C3
:103750000D2798310230FB000430FC00BA30FD0028
:10376000FD0BB02BFC0BB02BFB0BB02B00009031F2
:10377000D526983180303B06F00080307002031D62
:10378000C32B78303A020318C62B532C0222003088
:1037900029003B06031DCE2B00303A06031DD42B17
:1037A0008831DD269831532C9031D52698318030E0
:1037B0003B06F00080307002031DE02B78303A02A7
:1037C0000318E32B532C8A20003029003B06031DED
:1037D000EB2B00303A06031DF12B8831DD269831A2
:1037E000532C9031D526983180303B06F000803044
:1037F0007002031DFD2B78303A020318002C532C65
:103800004621003029003B06031D082C00303A06F3
:10381000031D0E2C8831DD269831532C9031D5268E
:10382000983180303B06F00080307002031D1A2C66
:1038300078303A0203181D2C532C80304706F000D4
:1038400080303B067002031D272C3A0846020318FD
:10385000522C26004808013A031D302CC801322C96
:103860000130C80048082900D90088310D27983157
:10387000290048082600CA0029004A082600C60078
:1038800029004808DF0088310B24983126004608BB
:103890002900DF008831BD24983129004608BA008C
:1038A0004708BB0064000800640029003208043A9D
:1038B0000130031D0030F1003208053A0130031DCC
:1038C0000030F0007108F0040319B42CEB01103043
:1038D000EC004430ED000230EE000830EF0088319B
:1038E0009420983102302900EB001030EC003B307E
:1038F000ED000230EE000830EF008831942098315E
:1039000004302900EB001030EC003230ED000230C2
:10391000EE000830EF0088319420983106302900FD
:10392000EB001030EC005630ED000230EE000830B5
:10393000EF0088319420983126004D080130031D96
:103940000030F0006D08F0050319B32C2900EB01DD
:103950007030EC00ED30ED000130EE000130EF0092
:10396000883194209831232D29003208003A031918
:10397000232DEB01EC014D30ED000230EE0008305C
:10398000EF0088319420983101302900EB00EC01E0
:10399000E430ED000130EE000830EF008831942073
:1039A000983129003208013A031DF12CEB0109304E
:1039B000EC00DC30ED000130EE000730EF00883124
:1039C0009420983101302900EB000930EC00D4300C
:1039D000ED000130EE000730EF008831942098317F
:1039E0000C2D2900EB010930EC002930ED000230EC
:1039F000EE000830EF008831942098310130290022
:103A0000EB000930EC002030ED000230EE00083011
:103A1000EF0088319420983126004D080130031DB5
:103A20000030F0006D08F0050319232D2900EB018B
:103A30000830EC006E30ED000130EE000130EF0098
:103A400088319420983164002100EF012200ED01BB
:103A50009031602398310800640022000E100E138C
:103A60008E1329003208003A031D392D22000D174C
:103A70008D1729003208043A0130031D0030F1008F
:103A80003208053A0130031D0030F0007108F004DF
:103A90000319582D0230EB004030EC003430ED00BB
:103AA0000330EE000430EF008831942098316A2D05
:103AB00029003208003A03196A2D0130EB00043066
:103AC000EC00E730ED000230EE000430EF0088310A
:103AD000942098319C22FF302900D9002600460806
:103AE0002900DA008831EF269831FE302900D9000C
:103AF00026004A082900DA008831EF269831FD3087
:103B00002900D900260048082900DA008831EF266C
:103B1000983129003208003A031DAE2D8030F000A4
:103B200080303B067002031D972D3A08963C031C1B
:103B30009C2D22000D13AE2D8030F0008030290026
:103B40003B067002031DA62D3A08FA3C031CAC2D5F
:103B500020000D138D13AE2D20008D138030F0004A
:103B6000803029003B067002031DB82D3A08963CB0
:103B7000031CBD2D22000E14CE2D8030F0008030AD
:103B800029003B067002031DC72D3A08FA3C031CAE
:103B9000CC2D22000E17CE2D22008E172700EA0111
:103BA000EB0110302600CB002730CC0090310020F4
:103BB000983129003A082700E80029003B0827002F
:103BC000E90090316023983122008C138C15640039
:103BD0000800803103209831290024082A00B5000C
:103BE0008031222098312A00B5018031222098317D
:103BF000AE302A00B50080312220983128006B08B1
:103C0000023A0130031D0030F1006B08033A013025
:103C1000031D0030F0007108F0040319C52ED530E3
:103C20002A00B50080312220983180302A00B5006A
:103C3000803122209831A8302A00B500803122201E
:103C400098313F302A00B500803122209831D3309E
:103C50002A00B50080312220983128006B08023AF2
:103C6000031D392E6A082A00B500803122209831C0
:103C7000412E28006A081F3E2A00B500803122200C
:103C8000983140302A00B5008031222098318D30A3
:103C90002A00B50080312220983114302A00B50066
:103CA00080312220983181302A00B50080312220D5
:103CB0009831B4302A00B500803122209831D930B3
:103CC0002A00B50080312220983122302A00B50028
:103CD00080312220983120302A00B5008031222006
:103CE000983102302A00B5008031222098312130ED
:103CF0002A00B5008031222098312A00B501803198
:103D0000222098317F302A00B5008031222098315E
:103D10002E302A00B50080312220983128006B080F
:103D2000023A031DA02EA0302A00B50080312220C7
:103D30009831C0302A00B500803122209831AC2E55
:103D4000A1302A00B500803122209831C8302A00E5
:103D5000B500803122209831DA302A00B500803158
:103D60002220983102302A00B5008031222098317B
:103D7000DB302A00B50080312220983140302A0003
:103D8000B5008031222098316D2FD5302A00B50042
:103D900080312220983180302A00B50080312220E5
:103DA0009831A8302A00B5008031222098313F3068
:103DB0002A00B500803122209831D3302A00B50086
:103DC00080312220983128006A082A00B50080310D
:103DD0002220983140302A00B500803122209831CD
:103DE0008D302A00B50080312220983114302A000D
:103DF000B50080312220983181302A00B500803111
:103E000022209831FF302A00B500803122209831DD
:103E1000D9302A00B500803122209831F1302A00B3
:103E2000B50080312220983120302A00B500803141
:103E30002220983102302A00B500803122209831AA
:103E400021302A00B5008031222098312A00B501A6
:103E50008031222098317F302A00B5008031222025
:103E600098312E302A00B500803122209831280068
:103E70006B08043A031D492FA0302A00B500803199
:103E800022209831C0302A00B5008031222098319C
:103E9000552FA1302A00B500803122209831C8303A
:103EA0002A00B500803122209831DA302A00B5008E
:103EB00080312220983112302A00B5008031222032
:103EC0009831DB302A00B500803122209831403013
:103ED0002A00B500803122209831A4302A00B50094
:103EE000803122209831A6302A00B500803122206E
:103EF000983180319A2098310330FB000830FC0063
:103F00007730FD00FD0B822FFC0B822FFB0B822FE5
:103F1000803103209831290024082A00B50080311F
:103F20002220983140302A00B5008031222098317B
:103F300028006B08023A0130031D0030F1006B08C5
:103F4000033A0130031D0030F0007108F00403193A
:103F5000C82F2900C5014508033C031CC72F45088D
:103F60002A00B000B1018031B32098312900C4018A
:103F70002900803044020318C42FC40A2A00B50166
:103F8000803122209831B82F2900C50AAB2FE62FA7
:103F90002900C5014508073C031CE62F45082A00F7
:103FA000B000B1018031B32098312900C40129004B
:103FB000803044020318E32FC40A2A00B50180317F
:103FC00022209831D72F2900C50ACA2F80319A2084
:103FD0009831AF302900C6009031A22798310800EF
:103FE000543455344E34453400344634413453341B
:103FF000543420345434453453345434003400346D
:1040000029003208043A0130031D0030F100320863
:10401000053A0130031D0030F0007108F004031967
:104020001E28EB010A30EC00DA30ED000230EE0021
:104030000930EF0088319420A0312F282900320860
:10404000003A03192F28EB010330EC00D030ED00CB
:104050000230EE000930EF0088319420A031640076
:104060000B30FB002630FC005D30FD00FD0B3628D8
:10407000FC0B3628FB0B36280000000064000B30D8
:10408000FB002630FC005D30FD00FD0B4528FC0BDD
:104090004528FB0B45280000000064000B30FB00A6
:1040A0002630FC005D30FD00FD0B5428FC0B54282D
:1040B000FB0B54280000000064000B30FB0026308E
:1040C000FC005D30FD00FD0B6328FC0B6328FB0B3F
:1040D000632800000000640029003208043A01301F
:1040E000031D0030F1003208053A0130031D003095
:1040F000F0007108F00403198A28EB010A30EC0083
:104100002A30ED000330EE000930EF0088319420B2
:10411000A0319B2829003208003A03199B28EB01A3
:104120000330EC002030ED000330EE000930EF00EA
:1041300088319420A0318831DD26A031013026005D
:10414000C80001302900D90088310D27A031FF3087
:104150002900D900260046082900DA008831EF2618
:10416000A031FE302900D90026004A082900DA00D3
:104170008831EF26A031FD302900D90026004808FB
:104180002900DA008831EF26A03129003208043AEC
:104190000130031D0030F1003208053A0130031DE3
:1041A0000030F0007108F0040319E328EB017030CF
:1041B000EC00E530ED000230EE000130EF00883118
:1041C0009420A031F42829003208003A0319F42879
:1041D000EB010830EC005F30ED000230EE00013002
:1041E000EF0088319420A03198315424A031080088
:1041F00001302900C4008831EA27A0317008280066
:10420000EB0007302900C4008831EA27A03170088C
:104210002800EA0008302900C4008831EA27A031CC
:1042200070082800EC006B08013A03191B2998312B
:10423000E925A0318A2901302800EE00ED01033084
:104240002A00A6008031FF22A0311A30FC00F8308D
:10425000FD00FD0B2929FC0B2929000003302A0051
:10426000A6008031FF22A0310630FC003030FD0076
:10427000FD0B3829FC0B3829000003302A00A6006A
:104280008031FF22A03102302A00A6008031FF22B7
:10429000A03102302A00A6008031FF22A031083070
:1042A0002A00A6008031FF22A0312A00A601803119
:1042B000FF22A03108302A00A6008031FF22A03161
:1042C0002A00A6018031FF22A03101302A00A60079
:1042D0008031FF22A0311A30FC00F830FD00FD0BC8
:1042E0006F29FC0B6F2900002A00A6018031FF22F4
:1042F000A03106302A00A6008031FF22A0312A001A
:10430000A6018031FF22A0310C302A00A6008031A6
:10431000FF22A03108000D302900EB000030EC0036
:10432000ED013230EE00EF0180319D27A0312600F3
:104330006E08F0040319E52922008C178C11063051
:10434000FB001330FC00AD30FD00FD0BA529FC0B7C
:10435000A529FB0BA52900000000640026006E08BB
:10436000003A0130031D0030F10020000D18BA2979
:104370000310BB290314F0010318F00A7108F005BB
:104380000319C82988314827A0312200EC01E2290D
:1043900098312C25A031EC010D302900EB000030C4
:1043A000EC00ED013230EE00EF0180319D27A031AD
:1043B00070080319E02990310020A0316400CC2955
:1043C0002600EE0190316023A0310D302900EB0072
:1043D0000030EC000530ED003230EE00EF018031AE
:1043E0009D27A031700803196A2A640022006C0816
:1043F000003A031D2B2A0130EC0026004608250058
:10440000EE0026004A082500ED0026004808250099
:10441000EC002600C601CA010130C8002900DF01F6
:1044200088310B24A031260046082900DF0088319E
:10443000BD24A031260048082900D90088310D2765
:10444000A03126006D082500E4002600ED01903122
:104450006023A031552A2200EC0125006E082600B9
:10446000C60025006D082600CA0025006C0826003D
:10447000C80025006E082900DF008831BD24A03166
:1044800026004A082900DF0088310B24A0312600CD
:1044900048082900D90088310D27A031250064087B
:1044A0002600ED0090316023A0310D302900EB0093
:1044B0000030EC000530ED003230EE00EF018031CD
:1044C0009D27A031700803196A2A90310020A0317D
:1044D0006400552A0D302900EB000030EC00043058
:1044E000ED003230EE00EF0180319D27A031220037
:1044F0006C08003A0130031D0030F1007108F0052E
:104500000319AE2A640026006D08003A031D8B2AA9
:104510000130ED008C2AED0102302900D90026007F
:104520006D082900DA008831EF26A0319031602330
:10453000A0310D302900EB000030EC000430ED001C
:104540003230EE00EF0180319D27A0317008031951
:10455000AE2A90310020A0316400992A080064003E
:1045600029003208043A0130031D0030F1003208FE
:10457000053A0130031D0030F0007108F004031902
:10458000DB2BEB011630EC003530ED000030EE0097
:104590000730EF0088319420A03102302900EB0071
:1045A0000430EC002A30ED000030EE000A30EF005D
:1045B00088319420A03104302900EB001030EC0049
:1045C0002230ED000030EE000830EF0088319420FA
:1045D000A0310630FC003030FD00FD0BED2AFC0B55
:1045E000ED2A000004302900EB001030EC002230EE
:1045F000ED000030EE000830EF0088319420A0314B
:104600000630FC003030FD00FD0B042BFC0B042BAE
:10461000000004302900EB001030EC002230ED00E7
:104620000030EE000830EF0088319420A0310630D1
:10463000FC003030FD00FD0B1B2BFC0B1B2B000086
:1046400006302900EB000430EC005130ED00003062
:10465000EE000A30EF0088319420A03164000D3064
:10466000FB002D30FC00D730FD00FD0B352BFC0B83
:10467000352BFB0B352B0000000064000B30FB00DA
:104680002630FC005D30FD00FD0B442BFC0B442B61
:10469000FB0B442B0000000064002900EB011030EC
:1046A000EC004830ED000030EE000830EF008831BB
:1046B0009420A03102302900EB000430EC003D30A2
:1046C000ED000030EE000A30EF0088319420A03178
:1046D00004302900EB001030EC006630ED000030B3
:1046E000EE000830EF0088319420A0310630290018
:1046F000EB000430EC002030ED000130EE000A3019
:10470000EF0088319420A0310430FB000C30FC0015
:104710003330FD00FD0B8A2BFC0B8A2BFB0B8A2B05
:10472000000000002900EB011030EC00E430ED0047
:104730000030EE000830EF0088319420A0310230C4
:104740002900EB001030EC00DB30ED000030EE0013
:104750000830EF0088319420A03104302900EB00AC
:104760001030EC003430ED000130EE000830EF0086
:1047700088319420A03106302900EB001030EC0085
:104780002B30ED000130EE000830EF00883194202E
:10479000A03126006D080319DA2B2900EB017030D7
:1047A000EC00ED30ED000030EE000130EF0088311C
:1047B0009420A031142D29003208003A0319142D39
:1047C000EB010430EC00B630ED000030EE000730B5
:1047D000EF0088319420A03101302900EB00033034
:1047E000EC00AB30ED000030EE000A30EF00883115
:1047F0009420A03164000F30FB003530FC005130B4
:10480000FD00FD0B012CFC0B012CFB0B012C6400AB
:104810000B30FB002630FC005D30FD00FD0B0E2C44
:10482000FC0B0E2CFB0B0E2C00000000640029007A
:10483000EB010430EC002230ED000030EE000830D7
:10484000EF0088319420A0310630FC003030FD00AC
:10485000FD0B282CFC0B282C00002900EB01043058
:10486000EC002230ED000030EE000830EF0088311F
:104870009420A0310630FC003030FD00FD0B3E2CB2
:10488000FC0B3E2C00002900EB010430EC00223030
:10489000ED000030EE000830EF0088319420A031A8
:1048A0000630FC003030FD00FD0B542CFC0B542C6A
:1048B000000001302900EB000330EC00A030ED00D7
:1048C0000030EE000A30EF0088319420A0316400FF
:1048D0000D30FB002D30FC00D730FD00FD0B6E2CA1
:1048E000FC0B6E2CFB0B6E2C0000000064000B30E8
:1048F000FB002630FC005D30FD00FD0B7D2CFC0B29
:104900007D2CFB0B7D2C0000000064002900EB01D6
:104910000430EC00D230ED000030EE000830EF0043
:1049200088319420A03101302900EB000330EC00E5
:10493000C730ED000030EE000A30EF0088319420DF
:10494000A0310430FB000C30FC003330FD00FD0BC7
:10495000A72CFC0BA72CFB0BA72C000000002900A8
:10496000EB01EC01BE30ED000030EE000830EF004E
:1049700088319420A03101302900EB00EC01CB30CC
:10498000ED000130EE000830EF0088319420A031B6
:1049900029003208013A031DE82CEB010930EC0034
:1049A000B330ED000230EE000730EF008831942084
:1049B000A03101302900EB000930EC00AB30ED00F4
:1049C0000230EE000730EF0088319420A031032D33
:1049D0002900EB010930EC00A230ED000230EE00BE
:1049E0000830EF0088319420A03101302900EB001D
:1049F0000930EC00BD30ED000230EE000830EF0071
:104A000088319420A03126006D080319142D290047
:104A1000EB010830EC00BB30ED000230EE0001305D
:104A2000EF0088319420A031640008006400013058
:104A30002900C4008831EA27A03170082900B2009B
:104A40000230C4008831EA27A0317008013A031D02
:104A50002C2D01302600ED0003302900C4008831E0
:104A6000EA27A03170082900C4009031BD27A03189
:104A70007008BC00BD010430C4008831EA27A031B1
:104A800070082900C4009031BD27A0310A30F4001D
:104A90008031FA20A03170082900C0007108C100DF
:104AA0000530C4008831EA27A03170082900C4000D
:104AB0009031BD27A0310A30F4008031FA20A031B6
:104AC00070082900A5007108A6000630C4008831CE
:104AD000EA27A03170082900C4009031BD27A03119
:104AE0000A30F4008031FA20A03170082900A700B4
:104AF0007108A8000930C4008831EA27A031700885
:104B00002900C4009031BD27A0310A30F400803163
:104B1000FA20A03170082700EC007108ED00640055
:104B200010302900C4008831EA27A031700829001C
:104B3000C4009031BD27A0316430F4008031FA20E8
:104B4000A03170082900C2007108C3001130C400F0
:104B50008831EA27A03170082900C4009031BD27B0
:104B6000A031700842072800D60000302900433DDC
:104B70002800D70012302900C4008831EA27A0316C
:104B800070082900C4009031BD27A0316430F400C2
:104B90008031FA20A03170082900C2007108C300DA
:104BA0001330C4008831EA27A03170082900C400FE
:104BB0009031BD27A031700842072700EE00003079
:104BC0002900433D2700EF0014302900C40088313C
:104BD000EA27A03170082900C4009031BD27A03118
:104BE0006430F4008031FA20A03170082900C2003E
:104BF0007108C3001530C4008831EA27A03170085D
:104C00002900C4009031BD27A03170084207280058
:104C1000DE0000302900433D2800DF001630290067
:104C2000C4008831EA27A03170082900C4009031FF
:104C3000BD27A0316430F4008031FA20A031700823
:104C40002900C2007108C3001730C4008831EA2768
:104C5000A03170082900C4009031BD27A031700830
:104C600042072800DC0000302900433D2800DD0019
:104C700018302900C4008831EA27A03170082900C3
:104C8000C4009031BD27A0316430F4008031FA2097
:104C9000A03170082900C2007108C3001930C40097
:104CA0008831EA27A03170082900C4009031BD275F
:104CB000A031700842072800DA0000302900433D87
:104CC0002800DB0020302900C4008831EA27A03109
:104CD00070082900C4009031BD27A0316430F40071
:104CE0008031FA20A03170082900C2007108C30089
:104CF0002130C4008831EA27A03170082900C4009F
:104D00009031BD27A031700842072800E80000302C
:104D10002900433D2800E90022302900C4008831E1
:104D2000EA27A03170082900C4009031BD27A031C6
:104D30006430F4008031FA20A03170082900C200EC
:104D40007108C3002330C4008831EA27A0317008FD
:104D50002900C4009031BD27A03170084207280007
:104D6000E60000302900433D2800E70024302900F8
:104D7000C4008831EA27A03170082900C4009031AE
:104D8000BD27A0316430F4008031FA20A0317008D2
:104D90002900C2007108C3002530C4008831EA2709
:104DA000A03170082900C4009031BD27A0317008DF
:104DB00042072800E40000302900433D2800E500B8
:104DC00026302900C4008831EA27A0317008290064
:104DD000C4009031BD27A0316430F4008031FA2046
:104DE000A03170082900C2007108C3002730C40038
:104DF0008831EA27A03170082900C4009031BD270E
:104E0000A031700842072800E20000302900433D2D
:104E10002800E30028302900C4008831EA27A031A7
:104E200070082900C4009031BD27A0316430F4001F
:104E30008031FA20A03170082900C2007108C30037
:104E40002930C4008831EA27A03170082900C40045
:104E50009031BD27A031700842072800E0000030E3
:104E60002900433D2800E10064000800210097125A
:104E70001716971117159710640023008C010C1456
:104E80008C148D0122009113931378302100990026
:104E900020008C018D018E0122008C018D018E017C
:104EA000033021008C00F9308D008E019031D02725
:104EB000A0311E149E14951324000D148D150D168B
:104EC0008D168B13080046345734203476346534FD
:104ED0007234203432342E34373400346D34693433
:104EE0006E346934203462346F3461347234643423
:104EF00000344134543455342D343134303430346A
:104F000000345034573452343D3430342E3430343D
:104F100057340034203420342034203420342034DA
:104F20002034203420342034003420342034203401
:104F30002034203420342034203400345334573487
:104F400052343D3430342E34303430340034503424
:104F5000573452343D3430342E34303457340034E6
:104F60000C3410340E340D3412340B34103413342A
:104F70006D3469346E346934203462346F34613492
:104F80007234643400344134543455342D34313463
:104F90003034303400342034203420342034203471
:104FA0002034203420342034203400342034203481
:104FB000203420342034203420342034003446344B
:104FC00057342034763465347234203432342E34FD
:104FD000373400342E340034203400345F3400344D
:104FE000203400345F340034203420342034203422
:104FF0002034203420342034003400340034003491
:105000000D302900EB000030EC00ED013230EE00F5
:10501000EF0180319D27A83170080319B4280630AC
:10502000FB001330FC00AD30FD00FD0B1528FC0B20
:105030001528FB0B152800000000640020000D1C43
:10504000342826004808003A031D29280130C800EA
:105050002A28C80148082900D90088310D27A8311D
:1050600090316023A831A02824006F08013A031D65
:105070003B28EF013D280130EF006F08013A031D86
:10508000712829003208043A0130031D0030F10074
:105090003208053A0130031D0030F0007108F004B9
:1050A00003195F28EB017030EC006530ED00023031
:1050B000EE000130EF0088319420A83170282900DB
:1050C0003208003A03197028EB010830EC00633015
:1050D000ED000230EE000130EF0088319420A8315D
:1050E000A02829003208043A0130031D0030F100E5
:1050F0003208053A0130031D0030F0007108F00459
:1051000003198F28EB017030EC006130ED000230A4
:10511000EE000130EF0088319420A831A02829004A
:105120003208003A0319A028EB010830EC00A03047
:10513000ED000230EE000130EF0088319420A831FC
:105140000D302900EB000030EC00ED013230EE00B4
:10515000EF0180319D27A83170080319B4289031E0
:105160000020A8316400A0280D302900EB00003099
:10517000EC000530ED003230EE00EF0180319D276C
:10518000A831700803190A2964000D302900EB00CA
:105190000030EC000530ED003230EE00EF018031E0
:1051A0009D27A831700803190A291F3026004A02DA
:1051B000013003180030F00024006F08F0050319D7
:1051C000EA282600CA0A4A082900DF0088310B2491
:1051D000A831022924006F080130031D0030F100BE
:1051E0001F3026004602013003180030F00071081D
:1051F000F00503190229C60A46082900DF00883194
:10520000BD24A83190316023A83190310020A8310D
:105210006400C5280D302900EB000030EC0004309C
:10522000ED003230EE00EF0180319D27A8312200E1
:105230006C08003A0130031D0030F1007108F005E0
:105240000319682964000D302900EB000030EC00E0
:105250000430ED003230EE00EF0180319D27A8319F
:1052600070080319682926004A08003C0130031819
:105270000030F00024006F08F005031948292600CB
:10528000CA034A082900DF0088310B24A8316029AD
:1052900024006F080130031D0030F100260046088D
:1052A000003C013003180030F0007108F0050319CC
:1052B0006029C60346082900DF008831BD24A831D3
:1052C00090316023A83190310020A8316400232957
:1052D0000800B0310020A831031A712901302300E1
:1052E000EF0022008C155530240067072000A20033
:1052F0002D3024006E072000A900A0313627A831E8
:10530000723068072000A300323024006D072000AF
:10531000A8000330FB000830FC007730FD00FD0BD7
:105320008F29FC0B8F29FB0B8F2964001E30240072
:1053300069072000A4003B3024006C072000A70070
:10534000A0311625A8319031DF27A8314230240042
:105350006A072000A5000530FB000F30FC00F1308B
:10536000FD00FD0BB129FC0BB129FB0BB129640039
:105370000D1ABC297214BD2972108D1AC12903148B
:10538000C2290310721CC829031CC8297214C92918
:105390007210721CCE2901302600CD00A031F820F9
:1053A000A83120000D1AD6297214D72972108D1A2F
:1053B000DB290314DC290310721CE229031CE229F7
:1053C0007214E329721020000D18E8290314E9294A
:1053D0000310721CEF29031CEF297214F0297210BC
:1053E000721C372A290032080A3A031D042AEB01ED
:1053F0000330EC00C630ED000230EE000930EF0063
:1054000088319420A831152A29003208003A03195E
:10541000152AEB010C30EC003930ED000330EE00C2
:105420000930EF0088319420A831FF302900DF00D7
:105430008831BD24A831FF302900DF0088310B24DA
:10544000A83101302900D90088310D27A8310B304F
:10545000FB002630FC005D30FD00FD0B2D2AFC0B0F
:105460002D2AFB0B2D2A000000006400272A1C3087
:1054700024006B072000A600640023006F08003A98
:105480000130031D0030F10026004D08003A0130C4
:10549000031D0030F0007108F0050319532AA031F4
:1054A000AF22A8316C2A23006F08013A0130031D96
:1054B0000030F10026004D08003A0130031D003095
:1054C000F0007108F0050319692A98315424A831B5
:1054D0006C2AA0310020A83126004D08003A031D97
:1054E000A02AFF302900C4008831EA27A8317008BB
:1054F0002600C600FE302900C4008831EA27A83102
:1055000070082600CA00FD302900C4008831EA274F
:10551000A83170082600C8004A082900DF00883139
:105520000B24A831260046082900DF008831BD245D
:10553000A831260048082900D90088310D27A83154
:1055400090316023A831640090310020A8312600FA
:105550004D08003A031DB02AA0318B21A831B12A91
:105560000020A32AB22AFF3F003400340034003464
:105570000034003400345F34003400340034073425
:1055800000340734003414347F3414347F3414343A
:1055900024342A347F342A34123423341334083424
:1055A000643462343634493455342234503400344F
:1055B000053403340034003400341C3422344134C4
:1055C00000340034413422341C34003408342A348A
:1055D0001C342A340834083408343E34083408347F
:1055E0000034503430340034003408340834083483
:1055F000083408340034303430340034003420347B
:1056000010340834043402343E34513449344534BF
:105610003E34003442347F34403400344234613408
:105620005134493446342134413445344B343134D7
:105630001834143412347F3410342734453445344C
:10564000453439343C344A344934493430340134F3
:105650007134093405340334363449344934493417
:10566000363406344934493429341E34003436344F
:1056700036340034003400345634363400340034C8
:1056800000340834143422344134143414341434BF
:1056900014341434413422341434083400340234C1
:1056A00001345134093406343234493479344134C4
:1056B0003E347E341134113411347E347F34493415
:1056C0004934493436343E3441344134413422344F
:1056D0007F344134413422341C347F3449344934DA
:1056E000493441347F3409340934013401343E34BF
:1056F00041344134513432347F340834083408346E
:105700007F34003441347F34413400342034403419
:1057100041343F3401347F3408341434223441346A
:105720007F3440344034403440347F3402340434D5
:1057300002347F347F340434083410347F343E34F0
:105740004134413441343E347F340934093409341E
:1057500006343E344134513421345E347F340934CC
:1057600019342934463446344934493449343134BF
:10577000013401347F34013401343F344034403447
:1057800040343F341F342034403420341F347F34BD
:105790002034183420347F346334143408341434FF
:1057A00063340334043478340434033461345134BE
:1057B000493445344334003400347F344134413477
:1057C00002340434083410342034413441347F34FA
:1057D00000340034043402340134023404344034DC
:1057E0004034403440344034003401340234043412
:1057F0000034203454345434543478347F344834AE
:105800004434443438343834443444344434203414
:1058100038344434443448347F3438345434543481
:105820005434183408347E340934013402340834D2
:105830001434543454343C347F3408340434043441
:105840007834003444347D344034003420344034DF
:1058500044343D34003400347F341034283444342C
:10586000003441347F34403400347C340434183400
:10587000043478347C3408340434043478343834D0
:1058800044344434443438347C34143414341434BC
:10589000083408341434143418347C347C34083418
:1058A00004340434083448345434543454342034E4
:1058B00004343F344434403420343C3440344034A5
:1058C00020347C341C342034403420341C343C34A8
:1058D0004034303440343C34443428341034283498
:1058E00044340C345034503450343C3444346434F4
:1058F00054344C34443400340834363441340034A5
:10590000003400347F340034003400344134363401
:1059100008340034083408342A341C340834083479
:105920001C342A340834083443343D3420342034C1
:10593000203430347034463400344C343D34303408
:105940002E34303431347534483400344C343D34E2
:1059500030342E34303430347534483400345334D9
:10596000573452343D3430342E34303430340034F3
:105970005034573452343D3430342E34303457346C
:1059800000345034573452343D3430342E343034B3
:10599000573400344C343D342034203420347534B2
:1059A000483400344C343D34203420342034203406
:1059B0007534483400345334573452343D34303421
:1059C0002E3430343034003443343D3420342034E9
:1059D00030347034463400344C343D3430342E345A
:1059E00030347534483400345334573452343D34F1
:1059F00030342E3430343034003443343D342034A9
:105A00002034203430347034463400344C343D3447
:105A100030342E34303430347534483400342E343D
:105A200000342034203420342034203420342034F6
:105A3000203400344F345634453452344C344F34CF
:105A40004134443400342034203420342034203491
:105A500020342034203400344F345634453452340A
:105A60004C344F3441344434003420342034203416
:105A70002034203420342034203400344F34563441
:105A8000453452344C344F3441344434003453346C
:105A9000573452343D3430342E34303430340034C2
:105AA0005234453453344534543420342034203473
:105AB00000342E34003443343D3420342034203438
:105AC0003034703446340034463441345334543422
:105AD000203454344534533454340034543445342D
