:10000000A831F22CFF3F28002008003A03192128CC
:1000100021000D170630FD00FD0B0C2800008D1788
:100020000630FD00FD0B122800008D130630FD0088
:10003000FD0B182800000D130630FD00FD0B1E28D7
:100040000000080028002008003A03195C28F1018C
:100050007108073C031C49282900C91B32282100CC
:100060008D13342821008D170630FD00FD0B362836
:1000700000000D170630FD00FD0B3C2800000D139D
:100080000630FD00FD0B422800002900C935F10AA9
:10009000282821008D170630FD00FD0B4D2800009B
:1000A0000D170630FD00FD0B532800000D13063020
:1000B000FD00FD0B5928000008002000F801F9019F
:1000C0001030FC00710DF80DF90D7408F802750878
:1000D000031C750FF902031874287408F8077508D3
:1000E0000318750FF9070310F00DF10DFC0B6228D2
:1000F00008002800220829004507C800032028001E
:1001000021082900C90022202900C9012220290034
:100110004408B03EC9002220290048080F3C031CB7
:1001200095284808C600C701A6284808F200F236FC
:10013000F236F236F2367208C7007208F000F03577
:10014000F035F035F03570084802C6004608C900A1
:10015000222029004708103EC90022200320280041
:1001600021082900C900222040302900C90022208E
:10017000080020007008F100F0010830FC00710850
:10018000F40C0318C728FC0BC028F101003403103D
:10019000CC28F40C0318F107F10CF00CFC0BC92867
:1001A000080028002008003A0319E92821008D13CF
:1001B0000630FD00FD0BDA2800000D170630FD00AB
:1001C000FD0BE02800008D170630FD00FD0BE62832
:1001D000000008007B15FB1FF4280130F300F2013A
:1001E000F101F001FA0DF20CFF3008002900BE0108
:1001F00005303E02031806293E083C078600003001
:100200003D3D870020308100BE0AF8283E083C07AB
:10021000860000303D3D87008101BE033E083C075B
:10022000BF0000303D3DC0000A30F400F5013A083F
:10023000F0003B08F1005D207808F0007908F1003B
:100240003030F00729003F0886004008870070081A
:1002500081000A30F400F5013A08F0003B08F10093
:100260005D2070082900BA007108BB0000307106DB
:10027000031D3C2900307006031D3F294129BE03A0
:100280000E2908002900BB012700E7010130EF001B
:1002900029003A08BB00BB35BB35BB35BB35270051
:1002A00069080319562908302900BB0727006F0881
:1002B00003195D2904302900BB07270067080319CB
:1002C000642902302900BB072700680803196A293E
:1002D0002900BB0A0320280021082900C900222088
:1002E00029003B08C9002220D1200630FC00303014
:1002F000FD00FD0B7929FC0B792900000430290051
:10030000BB020320280021082900C900222029005F
:100310003B08C9002220D1200630FC003030FD000F
:10032000FD0B9029FC0B902900000800F201F1015F
:10033000F001F801F3010030080003202800210833
:100340002900C900222040302900C90022202900AC
:100350003B08C4003A08C50079202900BF013E08C7
:100360003F020318632A3F083C07840000303D3DEC
:1003700085000008003A031DBF29C101C8293F08B4
:100380003C07840000303D3D850020300002C10064
:10039000C0014008043C031C5B2A4108F000053002
:1003A000F400B92029004008F0070030F13D00308A
:1003B00070078400B030713D85000008C2003B0822
:1003C000023A013003190030F1003B08043A0130D1
:1003D00003190030F0007008F1053B08063A0130BF
:1003E00003190030F0007108F0050319202AC21922
:1003F000FB29C313FC29C317C219002A4313012A7E
:1004000043174219052AC312062AC31642190A2A9B
:1004100043120B2A4316C2180F2AC311102AC31500
:10042000C218142A4311152A43154218192AC31059
:100430001A2AC31442181E2A43101F2A4314402AA2
:100440004219242AC313252AC3174219292A431300
:100450002A2A4317C2182E2AC3122F2AC316C218DB
:10046000332A4312342A43164218382AC311392A30
:10047000C31542183D2A43113E2A4315C3104310A9
:100480004308C900222028002008043A0130031D37
:100490000030F1002008053A0130031D0030F00063
:1004A0007108F0040319582A29004308C9002220C2
:1004B0002900C00AC929C90122202900C901222016
:1004C0002900BF0AAF293B0AC4003A08C5007920B9
:1004D0002900BF013E083F020318262B3F083C07B6
:1004E000840000303D3D85000008003A031D7A2A53
:1004F000C101832A3F083C07840000303D3D850050
:1005000020300002C100C0014008043C031C1E2B27
:100510004108F0000530F400B92029004008F00738
:100520000030F13D003070078400B030713D85002F
:100530000008C2003B08023A013003190030F10004
:100540003B08043A013003190030F0007008F1054F
:100550003B08063A013003190030F0007108F0053D
:100560000319DB2AC21BB62AC313B72AC317C21B3F
:10057000BB2A4313BC2A4317421BC02AC312C12AF9
:10058000C316421BC52A4312C62A4316C21ACA2AD8
:10059000C311CB2AC315C21ACF2A4311D02A43153F
:1005A000421AD42AC310D52AC314421AD92A431096
:1005B000DA2A4314032B421BDF2AC313E02AC31792
:1005C000421BE42A4313E52A4317C21AE92AC3123D
:1005D000EA2AC316C21AEE2A4312EF2A4316421A17
:1005E000F32AC311F42AC315421AF82A4311F92A2F
:1005F0004315C219FD2AC310FE2AC314C219022BC7
:100600004310032B43144308C9002220280020086C
:10061000043A0130031D0030F1002008053A013092
:10062000031D0030F0007108F00403191B2B290092
:100630004308C90022202900C00A842AC9012220B7
:100640002900C90122202900BF0A6A2AD1200800F6
:100650001D30FD00FD0B2A2B0800FB14FB1F372B60
:10066000FF30F300F200F100F000FA0DF20CFF3061
:100670000800FA1FF2130030080020002230FC00AE
:10068000F801F901FA01FB01FC030319722B0310B5
:10069000FB0CFA0CF90CF80CF30CF20CF10CF00C4E
:1006A000031C442BFC030319642B7408F80775081A
:1006B0000318750FF90776080318760FFA077708FD
:1006C0000318770FFB07482B7408F8077508031801
:1006D000750FF90776080318760FFA0777080318DD
:1006E000770FFB07080028002008043A0130031D9B
:1006F0000030F1002008053A0130031D0030F00001
:100700007108F0040319912B29003108BA00300850
:10071000BB003208BC003308BD003408BE009D2178
:10072000EB2B28002008023A0130031D0030F100B5
:100730002008033A0130031D0030F0007108F00476
:100740000319B72B0730F00029003108F400B92055
:10075000043070072900BA003008BB00BB353208EE
:10076000BC003308BD003408BE009D21EB2B2700E0
:10077000E80129003008F000F035F0357008083E37
:10078000BA00422129003108BA0042210130270075
:10079000E8002900B501340835020318EB2B3508B1
:1007A000320784000030333D85000008F1007108F5
:1007B000BA00BA36BA36BA36BA36422129003508F6
:1007C000320784000030333D85000008BA00422122
:1007D0002900B50ACB2B0800833021009D05290094
:1007E0003008F000F035F035700821009D04282312
:1007F0009D149D1CFC2BF92B1C08F100F0011B081B
:10080000F0040030F104080003202800210829002A
:10081000C900222080302900C90022202900300888
:10082000C9002220D12008002900B601B7013008F4
:10083000B8003108B90080303106F0008030700215
:10084000031D242C003030020318322C0130B60076
:100850000030B7003008003CB8003108031C013EEE
:10086000B901B9023808BA003908BB003208BC0027
:100870003308BD00F6200630B4000030B50035085E
:10088000003C031D452C3408003C0318602C340840
:10089000320786003508333D870001303402F0000E
:1008A0000030353BF1007008320784007108333D99
:1008B0008500000881000130B4020030B53B3F2CB8
:1008C000320886003308870020308100360837045C
:1008D0000319862CB401B5013408320784003508A9
:1008E000333D85000008203A031D7A2CB40A031911
:1008F000B50A6C2C0130B4020030B53B3408320725
:1009000086003508333D87002D3081000800033014
:10091000FC009530FD00FD0B8B2CFC0B8B2C080094
:100920007408F8027508031C750FF9027608031C99
:10093000760FFA027708031C770FFB02F30D0730DE
:10094000FC00730DF80DF90DFA0DFB0D7408731C06
:10095000B72CF8027508031C750FF9027608031C02
:10096000760FFA027708031C770FFB02C42CF807F6
:1009700075080318750FF90776080318760FFA073C
:1009800077080318770FFB07F30DFC0BA12C720DF2
:10099000F80DF90DFA0DFB0D7408731CDD2CF8022F
:1009A0007508031C750FF9027608031C760FFA020E
:1009B0007708031C770FFB02EA2CF8077508031869
:1009C000750FF90776080318760FFA0777080318EA
:1009D000770FFB07F20D0730FC00720DF80DF90DD3
:1009E000FA0DFB0D7408721C032DF8027508031C28
:1009F000750FF9027608031C760FFA027708031CBC
:100A0000770FFB02102DF80775080318750FF9070B
:100A100076080318760FFA0777080318770FFB0795
:100A2000F20DFC0BED2C710DF80DF90DFA0DFB0D0F
:100A30007408721C292DF8027508031C750FF90241
:100A40007608031C760FFA027708031C770FFB0267
:100A5000362DF80775080318750FF907760803187F
:100A6000760FFA0777080318770FFB07F10D0730A9
:100A7000FC00710DF80DF90DFA0DFB0D7408711CD9
:100A80004F2DF8027508031C750FF9027608031C38
:100A9000760FFA027708031C770FFB025C2DF8072C
:100AA00075080318750FF90776080318760FFA070B
:100AB00077080318770FFB07F10DFC0B392D700D2C
:100AC000F80DF90DFA0DFB0D7408711C752DF80267
:100AD0007508031C750FF9027608031C760FFA02DD
:100AE0007708031C770FFB02822DF807750803189F
:100AF000750FF90776080318760FFA0777080318B9
:100B0000770FFB07F00D0730FC00700DF80DF90DA5
:100B1000FA0DFB0D7408701C9B2DF8027508031C60
:100B2000750FF9027608031C760FFA027708031C8A
:100B3000770FFB02A82DF80775080318750FF90742
:100B400076080318760FFA0777080318770FFB0764
:100B5000F00DFC0B852D7018BB2D7408F807750877
:100B60000318750FF90776080318760FFA07770848
:100B70000318770FFB0708007B14FB1FC72DF2013A
:100B8000FA1FFF30F200F100F000FA0DF20CFF3016
:100B90000800A1017208031DDE2D7108F200700823
:100BA000F100F001A1157208031DDE2D7108F2009D
:100BB000F101A111211672080319EC2D2108F3028D
:100BC000031D031CF02D0310F21BF42DF00DF10D8D
:100BD000F20DF30BE42DF02D0130FC009621F72DE2
:100BE0000230FC00EA20F72D0430FC003923080015
:100BF0002000FB01FA01F9018030F800F10CF00C43
:100C0000031C0B2E7408F90775080318750FFA07F3
:100C10000318FB0A0310F01F132E7408FA07750857
:100C20000318750FFB07FB0CFA0CF90CF80C031CEE
:100C3000FE2D7B08F3007A08F2007908F1007808AD
:100C4000F00008007C18582EFC18292E7C19772EED
:100C5000222EA1017208031D492E7108F2007008AE
:100C6000F1007808F000F801A1157208031D492E63
:100C70007108F2007008F100F001A111211672084C
:100C8000031D492E7108F200F101A1157208031924
:100C90006B2E2108F302031D031C6F2E0310F21BA1
:100CA000582EF80DF00DF10DF20DF30B4F2E6F2EA7
:100CB0007B1B701C732EF81F732EF00A0319F10AA8
:100CC0000319F20A031D732EF20CF10CF00CF30A57
:100CD0000319772E732E0130FC0096217A2E0230F4
:100CE000FC00EA207A2E0430FC0039237A2E0830EA
:100CF000FC002D2300000800FB15FF300800FB0955
:100D0000FA09F909F809F80A0319F90A0319FA0A9C
:100D10000319FB0A0800200072087606A100F801FA
:100D2000F90173087702031CAD2E7708FD007308E4
:100D3000F7007D08F3007608FD007208F6007D08D4
:100D4000F2007508FD007108F5007D08F1007408D7
:100D5000FD007008F4007D08F00077080319262FC5
:100D60007208FA00F217F61777087302F7000319F2
:100D7000E02E08307702031CD62EF7007408F90025
:100D80007508F4007608F500F60108307702031CB8
:100D9000D62EF7007408F9007508F400F501083044
:100DA0007702031CD62E7A08F200262F7708031943
:100DB000E02E0310F60CF50CF40CF90CF70BD92E01
:100DC000A11FED2EF909F409F509F609F90A03192D
:100DD000F40A0319F50A0319F60A7908F8077408E2
:100DE0000318740FF00775080318750FF1077608DC
:100DF0000318760FF207A11B062F031C162FF20C07
:100E0000F10CF00CF80CF30F162F222F03181A2FE9
:100E1000F809F009F109F209F80A0319F00A0319AF
:100E2000F10A0319F20A8030FA061E2F0130FC0085
:100E30002226282F0230FC002226282F0430FC0016
:100E4000C925282F0830FC002D23282F0030FC0056
:100E50000000080028002008013C0318342FAF30A0
:100E60002900B0000424432F28002008013A031D64
:100E7000432F01302700E900E8012900BA0142218F
:100E80002900BA01422108002000FB017308031960
:100E9000802F7208FA00F2178E30F302F31F832FAF
:100EA000F309F30A08307302031C662FF300F10DF7
:100EB0007208F100F20108307302031C662FF30080
:100EC000F10DF1017308031D03106E2F7308031950
:100ED0006E2F0310F20CF10CF30B692F7B1B711CAE
:100EE000782F031C782FF10A0319F20AF21B8F2FB7
:100EF000FA1F922FF209F109F10A0319F20A922F4F
:100F0000F201F101922F7B14FB1F952FF201FA1FC2
:100F1000952FFF30F200F100FA0DF20C952F013001
:100F2000FC00972F0030FC00972FFF30FC00FC08DE
:100F300003199B2FBC257108F0007208F10008000E
:100F400020007008F8007108F000F101F201F301CF
:100F5000FB01FC019630F300FA01F01FB52FF809F0
:100F6000F009F80A0319F00AFA177008F100780876
:100F7000F000F801F201C925080020007008F8000F
:100F8000FB01FC019E30F300FA01F201F101F001D6
:100F90000230FC002226080028005F18D22F220011
:100FA0008E10D42F22008E142800DF18DA2F220092
:100FB0000E11DC2F22000E1528005F19E22F2200EF
:100FC0008E11E42F22008E152800DF19EA2F22004F
:100FD0000E12EC2F22000E1628005F1AF22F2200AC
:100FE0008E12F42F22008E1628002508EB0026080A
:100FF000EC008831FD2480310800003400340034D6
:10100000640025006A082600EF002800B701B80137
:1010100025006A1C1328270059082800B707270055
:101020005A082800B83D2500EA1C1E28270057084A
:101030002800B707270058082800B83D25006A1D7A
:101040002928270055082800B70727005608280038
:10105000B83D2500EA1D342827005D082800B707A1
:1010600027005E082800B83D25006A1E3F2827009B
:101070005B082800B70727005C082800B83D280057
:101080002F08043A0130031D0030F1002F08053A03
:101090000130031D0030F0007108F0040319B52879
:1010A00037082900B000280038082900B10039307D
:1010B000B2000430B30080311424883128003B088A
:1010C000203A031966283B08B00068283030B00089
:1010D0002E30B1003C08203A031971283C08B200B8
:1010E00073283030B2003D08203A03197A283D08B1
:1010F000B3007C283030B30025006C08013A031D92
:10110000852804302800EB00882828000630EB00F2
:101110006B082900B0001030B100A930B2000030D7
:10112000B3000230B40080317323883128006B088B
:101130002900B0005830B100A630B2000030B30032
:101140000230B40080317323883128006B082900F5
:10115000B0002830B1003030B2000430B3000430A9
:10116000B400803173238831912928002F08023A76
:101170000130031D0030F1002F08033A0130031D38
:101180000030F0007108F00403192A2937082900FB
:10119000B000280038082900B1003930B20004300E
:1011A000B30080311424883128003B08203A031909
:1011B000DC283B08B000DE283030B0002E30B10013
:1011C0003C08203A0319E7283C08B200E9283030EF
:1011D000B2003D08203A0319F0283D08B300F22878
:1011E0003030B30025006C08013A031DFA282800AE
:1011F000EB01FD2828000130EB006B082900B0004E
:101200000930B100A030B2000030B3000230B400A9
:1012100080317323883128006B082900B0000F301B
:10122000B1006B30B2000030B3000230B400803146
:101230007323883128006B082900B0000B30B100FF
:101240003030B2000430B3000430B4008031732376
:101250008831912928002F08013A031D9129323045
:101260003707F0000030383DF1007008B700710812
:10127000B80070082900B0007108B1003930B20020
:101280000430B30080311424883128003B08203A10
:1012900003194D293B08B0004F293030B0002E30E3
:1012A000B1003C08203A031958293C08B2005A29D9
:1012B0003030B20025006C08013A031D6229280075
:1012C000EB01652928000130EB006B082900B00014
:1012D0000930B1006830B2000030B3000230B40011
:1012E00080317323883128006B082900B0000E304C
:1012F000B100A330B2000030B3000230B40080313E
:101300007323883128006B082900B0000B30B1002E
:101310003030B2000430B3000330B40080317323A6
:101320008831640024006F082000EE002800B70117
:10133000B80124006F1CA429270053082800B70710
:10134000270054082800B83D2400EF1CAF292700CF
:1013500063082800B707270064082800B83D240068
:101360006F1DBA29270061082800B7072700620807
:101370002800B83D2400EF1DC52927005F0828007C
:10138000B707270060082800B83D24006F1ED02949
:10139000270065082800B707270066082800B83D21
:1013A00028002F08043A0130031D0030F1002F08F7
:1013B000053A0130031D0030F0007108F0040319F4
:1013C000312A37082900B000280038082900B10068
:1013D0003930B2000430B300803114248831280041
:1013E0003B08B0003C08B1003D08B2003E08B30025
:1013F00025006C08013A031D012A06302800EB0085
:10140000042A28000430EB006B082900B0001030DB
:10141000B100C530B2000030B3000230B4008031FA
:101420007323883128006B082900B0005830B100C0
:10143000C230B2000030B3000230B40080317323F8
:10144000883128006B082900B0002830B100303006
:10145000B2000430B3000430B4008031732388310B
:10146000E22A28002F08023A0130031D0030F10063
:101470002F08033A0130031D0030F0007108F0041A
:101480000319912A37082900B000280038082900DC
:10149000B1003930B2000430B300803114248831F7
:1014A00028003B08B0003C08B1003D08B2003E08EF
:1014B000B30025006C08013A031D622A01302800A0
:1014C000EB00642A2800EB016B082900B00009300A
:1014D000B100BF30B2000030B3000230B400803140
:1014E0007323883128006B082900B0000F30B10049
:1014F000B230B2000030B3000230B4008031732348
:10150000883128006B082900B0000B30B100303062
:10151000B2000430B3000430B4008031732388314A
:10152000E22A28002F08013A031DE22A3708290081
:10153000B000280038082900B1003930B20004306A
:10154000B30080311424883128003C08B0003D08E5
:10155000B1003E08B20025006C08013A031DB42A10
:1015600001302800EB00B62A2800EB016B082900A7
:10157000B0000930B100AF30B2000030B30002302B
:10158000B40080317323883128006B082900B00033
:101590000E30B100AC30B2000030B3000230B40005
:1015A00080317323883128006B082900B0000B308C
:1015B000B1003030B2000430B3000330B4008031E9
:1015C00073238831640025006C082100BE000800E8
:1015D0007408003A031D012B7508003A031D012B06
:1015E0007608003A031D012B7708003A031D012BF2
:1015F000FF30F000FF30F100FF30F2007F30F300E9
:101600009D2B2000FC01F71BFC0AFD01FB01FA01E8
:10161000F901F80173087204710470040319962B20
:1016200073087706A000A01BFD09F71F222BF40901
:10163000F509F609F709F40A0319F50A0319F60A78
:101640000319F70AF31F2F2BF009F109F209F30927
:10165000F00A0319F10A0319F20A0319F30A7308CD
:101660007704A000A01B522B803190248831FC1BF2
:101670006F2BFD1F962BF009F109F209F309F00A0F
:101680000319F10A0319F20A0319F30AF809F9090F
:10169000FA09FB09F80A0319F90A0319FA0A0319E6
:1016A000FB0A962BF71F692BF31B632B7308FB00B8
:1016B0007208FA007108F9007008F800F301F201ED
:1016C000F101F001392BF301F201F101F001F00A0F
:1016D0000034F309F209F109F009FC17342BF80A78
:1016E0000319F90A0319FA0A0319FB0A74087802A4
:1016F000031D392B75087902031D392B76087A02F0
:10170000031D392B77087B02031D392BFB01FA01DE
:10171000F901F801F00A0319F10A0319F20A031991
:10172000F30AF31F392BA0012016FF34A0017C1C03
:101730009C2B80317F268831003E080081302200BA
:101740009700171BA42BA12B2900B0018031EC239B
:10175000883170082800EB007108EC008030033AF3
:10176000F200803071067202031DB82B7008E83C4D
:10177000031CBF2B6B08F0006C08F100092C8230B1
:1017800022009700171BC52BC22B2900B001803106
:10179000EC23883170082800EB007108EC008030E1
:1017A000033AF200803071067202031DD92B7008D3
:1017B000E83C031CE22B6B08F0006C08F100F035EC
:1017C000F10D092C833022009700171BE82BE52B25
:1017D0002900B0018031EC23883170082800EB002B
:1017E0007108EC007108043A031DF82B00307006F4
:1017F000031DFE2B01302600B500002C2600B5018C
:1018000028006B08F0006C08F100F035F10DF035A0
:10181000F10D080028006B08F0006C08F10003309F
:10182000F4000030F5008031F82588317008280078
:10183000EB007108EC008030F2008030710672021B
:10184000031D242C7008503C031C292CF001F101CD
:10185000FC2C8030F00080306C067002031D322CAE
:101860006B08AB3C031C392CF430EB070030EC3D2B
:10187000F82C8030013AF00080306C067002031DB5
:10188000432C6B08483C031C4A2CFE30EB0700300D
:10189000EC3DF82C8030023AF00080306C0670028B
:1018A000031D542C6B08463C031C5B2C1830EB07C3
:1018B0000130EC3DF82C8030033AF00080306C06AB
:1018C0007002031D652C6B08343C031C6C2C293002
:1018D000EB070130EC3DF82C8030043AF00080300A
:1018E0006C067002031D762C6B084C3C031C7D2C8F
:1018F0003630EB070130EC3DF82C8030083AF00030
:1019000080306C067002031D872C6B08853C031C1D
:101910008E2CAE30EB070130EC3DF82C80300C3AC9
:10192000F00080306C067002031D982C6B08FA3CA6
:10193000031C9F2CE430EB070130EC3DF82C803089
:10194000123AF00080306C067002031DA92C6B085F
:101950000F3C031CB02C1230EB070230EC3DF82C8E
:101960008030163AF00080306C067002031DBA2CED
:101970006B08E63C031CC12C8830EB070230EC3DC1
:10198000F82C80301B3AF00080306C067002031D8A
:10199000CB2C6B08EA3C031CD22CE730EB0702305F
:1019A000EC3DF82C8030213AF00080306C0670025B
:1019B000031DDC2C6B08363C031CE32C3430EB0796
:1019C0000330EC3DF82C8030293AF00080306C0672
:1019D0007002031DED2C6B08043C031CF42C8430B6
:1019E000EB070330EC3DF82C5230EB070330EC3DB5
:1019F0006B08F0006C08F1000800A0302900AC0072
:101A00000F30AD00AE01AF01A030F0000F30F1009B
:101A10000030F2000030F30028006B08F4006C087E
:101A2000F500F601F70180313D2388317008290067
:101A3000AC007108AD007208AE007308AF00003052
:101A40007302031D2D2D00307202031D2D2D023057
:101A50007102031D2D2DB23070020318302D5F2D41
:101A6000B230AC020230AD3B0030AE3BAF3B053094
:101A7000F00070080319422DAF36AE0CAD0CAC0C63
:101A8000FF3E3A2D2C08F0002D08F1002E08F20040
:101A90002F08F3000130AC020030AD3BAE3BAF3B52
:101AA000700871047204730403195F2D00000000B4
:101AB000000000000000000000000000422D0800AF
:101AC0007408003A031D792D7508003A031D792D1D
:101AD0007608003A031D792D7708003A031D792D09
:101AE000FF30F000FF30F1007F30F200FF30F300F4
:101AF0001B2E200077080319072E730803190C2EDC
:101B0000720876068039FA00F217F617A1017208FA
:101B1000F8007108FC007008FD007408FD027508EB
:101B2000031C750FFC027608031C760FF802F801FF
:101B3000FC01FD01031CA32D0310F20CF10CF00CB1
:101B4000F80C0130A1007708F302031CAD2D7E30A4
:101B50002107F3070318112EB22D7E302107F3075A
:101B6000031C162E1830FA07FD0DFC0DF80DF00DB4
:101B7000F10DF20DA10D7408F0027508031C750F2C
:101B8000F1027608031C760FF202760DA104211CE7
:101B9000CB2D7D14D62D7408F00775080318750F2A
:101BA000F10776080318760AF2077D10FA031F3052
:101BB0007A05031DB42D7B1B7D1CFD2D0310F00D3C
:101BC000F10DF20DA10D7408F0027508031C750FDC
:101BD000F1027608031C760FF202760D210401391A
:101BE000FD070318FC0A0319F80A031DFD2DF80C64
:101BF000FC0CFD0CF30A0319112EFA1FF8137808D8
:101C0000F2007C08F1007D08F00000301A2E01304F
:101C100080317C2688311A2E02308031962188311D
:101C20001A2E043080312D2388311A2E083080314D
:101C3000EA20883100000800813022009700171B3D
:101C4000222E1F2E01302900B0008031EC23883174
:101C500070082800EB007108EC008030033AF200B5
:101C6000803071067202031D372E7008E83C031C99
:101C70003E2E6B08F0006C08F1007F2E82302200AF
:101C80009700171B442E412E01302900B0008031EF
:101C9000EC23883170082800EB007108EC008030DC
:101CA000033AF200803071067202031D592E70084B
:101CB000E83C031C622E6B08F0006C08F100F03564
:101CC000F10D7F2E833022009700171B682E652EA2
:101CD00001302900B0008031EC23883170082800E1
:101CE000EB007108EC007008F2007108F300F235A7
:101CF000F30DF235F30D7208F0007308F1000800DF
:101D00002000FB017308031D77080319D62E720803
:101D10007606FA007708F3077E30031C932EF30251
:101D20000318DB2E962EF302031CE02E7208F80037
:101D30007108FC007008FD00F817F6170310F20197
:101D4000F101F0011830A1007D1CB02E7408F007DD
:101D500075080318750FF10776080318760FF20758
:101D6000F20CF10CF00CF80CFC0CFD0C0310A10BA8
:101D7000A42EF21BC02EF80DF00DF10DF20DF303A1
:101D80007B1B701CD22EF81FD22EF00A0319F10A09
:101D90000319F20A031DD22EF20CF10CF00CF30A17
:101DA0000319DB2EFA1FF2130030E42E01308031CC
:101DB00096218831E42E023080312D238831E42EA3
:101DC00004308031EA208831000008002900AD018C
:101DD00028006D08F1000130F00071080319F32E9E
:101DE000F035FF3EEE2E70082900AC0028006B088D
:101DF00084006C08850070080005F100710801304E
:101E0000031D0030F0006F08F0060319282F6E083C
:101E1000003C0318132F80318724883180318724B8
:101E20008831EE03072F6B0884006C0885002900B9
:101E30002C080005F10071080130031D0030F0008E
:101E400028006F08F0060319282FFF302900AD0085
:101E500029002D08F00008000D302800EB000030AC
:101E6000EC00ED011930EE00EF01E62670082800C5
:101E7000DF000D30EB000030EC000130ED001930D8
:101E8000EE00EF01E62670082800DF040D30EB00BD
:101E90000030EC000230ED001930EE00EF01E626D4
:101EA00028005F08F0040319582F01302500EF00C7
:101EB000080028005F185F2F22008D10612F22007C
:101EC0008D142800DF18672F22000D11692F2200C2
:101ED0000D1528005F196F2F22000C11712F2200A1
:101EE0000C152800DF19772F22000C12792F220001
:101EF0000C1628005F1A7F2F22008C12812F2200DF
:101F00008C1628002508EB002608EC00FD240800AC
:101F10002500EA012400EF012800DF0159272400F1
:101F20006F082800DF008031CC2788312800250881
:101F3000EB002608EC00FD240800280057082300C9
:101F4000910092012800580823009300151395135F
:101F500015150B08F0008B1355309600AA3096002B
:101F60009514F01BB52F8B13B62F8B171511951CDD
:101F7000BA2FB72F080028005718C12F22000C13C2
:101F8000C32F22000C1728002508EB002608EC00C0
:101F9000FD240800710DF80DF90D7408F80275089C
:101FA000031C750FF902F00DF10D0F30FC00710DDF
:101FB000F80DF90D7408701CE32FF8027508031C66
:101FC000750FF902E82FF80775080318750FF90760
:101FD000F00DF10DFC0BD72F7018F42F7408F807D3
:101FE00075080318750FF9070000080012001E009D
:101FF000F003031DF62FF103031DF62F0800FD3437
:10200000640026003408003A0130031D0030F1005E
:1020100020006F08013A0130031D0030F000700805
:10202000F105803028006206F00080307002031D48
:102030001B28643061020130031C0030F00071087D
:10204000F0050319A72825006B08003A031DA328F3
:1020500028002F08043A0130031D0030F1002F083A
:10206000053A0130031D0030F0007108F004031937
:10207000562804302900B0001030B100B530B2004D
:102080000030B3000830B400803173239031063043
:102090002900B0001030B1005F30B2000030B30052
:1020A0000830B400803173239031A32828002F0812
:1020B000023A0130031D0030F1002F08033A0130CD
:1020C000031D0030F0007108F00403198328290073
:1020D000B0010930B1003E30B2000030B30008302A
:1020E000B40080317323903101302900B0000930F1
:1020F000B1003530B2000030B3000830B400803198
:1021000073239031A32828002F08013A031DA32828
:102110002900B0010930B1002D30B2000030B30009
:102120000730B40080317323903101302900B000B2
:102130000930B1004730B2000030B3000730B400BE
:1021400080317323903101302500EB00B128250048
:102150006B08013A031DAF2888310020903125001B
:10216000EB0164002800600827004606031DBB2819
:10217000450828005F060319F22B28005F08270096
:10218000C500280060082700C600803028006006CF
:10219000F00080307002031DCF2864305F02031C02
:1021A000F12805305F07F0000030603DF100700855
:1021B000DF007108E00070082900B0007108B1006C
:1021C0003930B2000430B30080311424903128003B
:1021D0003B08B0003C08B1003D08B2005730B300E6
:1021E00016295F082900B000280060082900B10006
:1021F0003930B2000430B30080311424903128000B
:102200003D08203A031907293D08B000092930305C
:10221000B0002E30B1003E08203A031912293E08C2
:10222000B20014293030B2005730B3002F08043AFE
:102230000130031D0030F1002F08053A0130031D65
:102240000030F0007108F004031934292900B001AE
:102250004030B1003030B2000430B3000430B4007C
:10226000803173239031462928002F08003A031942
:1022700046292900B0010430B1003030B2000430EA
:10228000B3000430B40080317323903125006B0813
:10229000013A031DF22B6A08003A0130031D003099
:1022A000F10024006F08003A0130031D0030F000F7
:1022B0007108F00503196429280061082700CD0082
:1022C000280062082700CE0027004D08F0004E08C5
:1022D000F1008031A027903170082900A400710816
:1022E000A5007208A6007308A7000030F4000030B3
:1022F000F5004830F6008530F7002408F000250886
:10230000F1002608F2002708F3008831602590319B
:1023100070082900A0007108A1007208A2007308CB
:10232000A3002408F4002508F5002608F600270875
:10233000F7000030F0000030F1004830F200853046
:10234000F30088316025903129002008F40021082D
:10235000F5002208F6002308F70080318B26903123
:1023600070082900A0007108A1007208A20073087B
:10237000A30027004C08F0008031BD2790312900D0
:102380002008F4002108F5002208F6002308F700D1
:102390008831802690310030F4000030F500203084
:1023A000F6008230F7008831602590311F30F4004C
:1023B0008530F5006B30F6007B30F70088318026E1
:1023C00090310030F4000030F5000030F6007F302E
:1023D000F70080318B2690317008F4007108F50009
:1023E0007208F6007308F7000030F0000030F100CA
:1023F0000030F2007F30F3008831602590317008A2
:102400002900A8007108A9007208AA007308AB008F
:1024100028006108F0006208F1008031A0279031A7
:1024200070082900A4007108A5007208A6007308AE
:10243000A7000030F4000030F5004830F600853089
:10244000F7002408F0002508F1002608F20027080C
:10245000F3008831602590310030F4000030F50041
:102460000030F6008030F70080318B269031700804
:102470002900A0007108A1007208A2007308A3003F
:102480002408F4002508F5002608F6002708F700C0
:102490000030F0000030F1004830F2008530F300E9
:1024A00088316025903129002008F4002108F500CA
:1024B0002208F6002308F70080318B26903170083F
:1024C000F4007108F5007208F6007308F700003098
:1024D000F0000030F1000030F2008130F30088316C
:1024E0006025903129002808F4002908F5002A0801
:1024F000F6002B08F7008831802690310A30F4006E
:10250000D730F5002330F6007730F70080318B2686
:10251000903170082900A4007108A5007208A60077
:102520007308A70024082800E500290025082800D2
:10253000E600290026082800E700290027082800CF
:10254000E8005F08F0006008F1008031A0279031BA
:1025500029002408F4002508F5002608F6002708BD
:10256000F7008831802690318031442790317008FF
:102570002900A0007108A10020082800E30029001C
:1025800021082800E40029002408F0002508F100B3
:102590002608F2002708F3000030F4000030F500B0
:1025A0004830F6008530F700883180269031700879
:1025B0002800E5007108E6007208E7007308E800EB
:1025C000803029002106F00080307002031DEA2AC5
:1025D00064302002031C0D2B053028006307F00037
:1025E0000030643DF1007008E3007108E4007008F9
:1025F0002900B0007108B1003930B2000430B300D6
:1026000080311424903128003B08B0003C08B10010
:102610003D08B2005730B300332B2800630829006F
:10262000B000280064082900B1003930B20004303D
:10263000B30080311424903128003D08203A03195A
:10264000242B3D08B000262B3030B0002E30B100D6
:102650003E08203A03192F2B3E08B200312B3030B0
:10266000B2005730B3002F08043A0130031D003088
:10267000F1002F08053A0130031D0030F000710809
:10268000F0040319522B04302900B0004030B1008F
:102690003030B2000430B3000430B4008031732312
:1026A0009031832B28002F08023A0130031D00309F
:1026B000F1002F08033A0130031D0030F0007108CB
:1026C000F0040319712B2900B0010D30B100303036
:1026D000B2000430B3000430B40080317323903171
:1026E000832B28002F08013A031D832B2900B001FA
:1026F0000C30B1003030B2000430B3000430B4000C
:1027000080317323903128006508F0006608F100DD
:102710006708F2006808F3008031442790317008A0
:102720002900B0007108B1003930B2000430B300A4
:1027300080311424903128003D08B0003E08B100DB
:102740002F08043A0130031D0030F1002F08053A2C
:102750000130031D0030F0007108F0040319BF2B95
:1027600006302900B0004C30B1003030B2000430E7
:10277000B3000230B400803173239031F22B280073
:102780002F08033A0130031D0030F1002F08043AEE
:102790000130031D0030F0007108F0040319DF2B35
:1027A00001302900B0000E30B1003030B2000430EA
:1027B000B3000230B400803173239031F22B280033
:1027C0002F08013A031DF22B01302900B0000D3013
:1027D000B1003030B2000430B3000230B4008031B8
:1027E000732390316400080064002800600825000D
:1027F0002A06031DFE2B290828005F060319112D48
:1028000028005F082500A900280060082500AA000C
:10281000003028006006031D0F2C01305F06031DE9
:10282000542C2F08043A0130031D0030F1002F080A
:10283000053A0130031D0030F0007108F00403195F
:10284000302C02302900B0004030B100BB30B20063
:102850000330B3000430B4008031732390314C2C2A
:1028600028002F08003A0319442C01302900B00039
:102870000430B100C030B2000330B3000430B40003
:102880008031732390314C2C28002F08003A031D0F
:102890004C2C22000D178D1722000E100E138E13D4
:1028A0002500A901AA01112D80312A279031270086
:1028B0004708F0008031BD27903127004808F40018
:1028C0004908F5004A08F6004B08F70088318026D1
:1028D000903180314427903170082600EC00710857
:1028E000ED0028005F082500A900280060082500E9
:1028F000AA0028005F082900B0002800600829000D
:10290000B1003930B2000430B3008031142490316A
:1029100028003C08B0002E30B1003D08B2003E084F
:10292000B3002F08043A0130031D0030F1002F08D6
:10293000053A0130031D0030F0007108F00403195E
:10294000B02C02302900B0004030B1003030B2006D
:102950000430B3000430B400803173239031EB2C89
:1029600028002F08003A0319C42C01302900B000B8
:102970000430B1003030B2000430B3000430B40091
:10298000803173239031EB2C28002F08003A031D6F
:10299000EB2C8030F000803060067002031DD22CDA
:1029A0005F08963C031CD82C22000D138D17EB2CCE
:1029B0008030F0008030280060067002031DE22C99
:1029C0005F08FA3C031CE82C20000D138D13EB2C40
:1029D00020000D178D138030F00080302800600635
:1029E0007002031DF52C5F08963C031CFC2C220092
:1029F0000E140E138E13112D8030F000803028003D
:102A000060067002031D062D5F08FA3C031C0D2DA5
:102A100022000E100E178E13112D22000E100E1311
:102A20008E1764000800640088319E23903170087E
:102A3000DF007108E0000030E01BFF30E100E20041
:102A400088311C2690317008E3007108E4000030E2
:102A5000E41BFF30E500E6005F08EB006008EC00D7
:102A600088310A2490318031A027903170082800E5
:102A7000E7007108E8007208E9007308EA00803096
:102A80006606F000803062067002031D512D610859
:102A90006502031D512D60086402031D512D5F085E
:102AA0006302031C5A2DE730DF000330E000E10130
:102AB000E201A42D63085F07F0006408603DF100A7
:102AC0006508613DF2006608623DF3006430F40081
:102AD000F501F601F70180313D23903128005F08B0
:102AE000F4006008F5006108F6006208F70063086A
:102AF000F4026408F53B6508F63B6608F73B88314D
:102B0000E822903170082800DF007108E0007208A8
:102B1000E1007308E2008030F40080307306740234
:102B2000031D9C2D7208003C031D9C2D7108033C65
:102B3000031D9C2D7008E73C0318A42DE730DF002F
:102B40000330E000E101E2016708F0006808F100ED
:102B50006908F2006A08F3000030F4000030F50064
:102B60002030F6008230F700883180269031003026
:102B7000F4000030F5007A30F6008830F700883134
:102B80006025903170082800E7007108E80072089D
:102B9000E9007308EA00F430F400FD30F500343049
:102BA000F6007F30F70088316025903170082800EA
:102BB000E7007108E8007208E9007308EA0070088D
:102BC000F4007108F5007208F6007308F700883108
:102BD000802690310030F4000030F5002030F600FF
:102BE0008130F70088316025903170082800E700B7
:102BF0007108E8007208E9007308EA000030F40088
:102C00000030F5000030F6007E30F70080318B2672
:102C1000903170082800E7007108E8007208E900A8
:102C20007308EA0080314427903170082800AB0017
:102C30007108AC0080307106F20080307202031D12
:102C4000232E0A30700203182A2E0130A90000300A
:102C5000AA00462E80306206F00080307002031D0C
:102C60003B2E00306102031D3B2E00306002031D2D
:102C70003B2E64305F020318422EE730A900033078
:102C8000AA00462E5F08A9006008AA000800640098
:102C900088318827903101302500EC000130280070
:102CA000D7008831BB279031FF302800D700D801EA
:102CB00088319D279031FE302800D700D801883117
:102CC0009D279031FD302800D7000130D800883191
:102CD0009D2790318831002090312500EB012200A2
:102CE0008C138C152800A901AA01AB01AC012600A8
:102CF000B201B30128002F08043A0130031D00304F
:102D0000F1002F08053A0130031D0030F000710872
:102D1000F0040319B82E02302900B0001030B100C1
:102D2000D830B2000230B3000830B40080317323D1
:102D3000903164000D30FB002D30FC00D730FD00D9
:102D4000FD0BA02EFC0BA02EFB0BA02E0000000004
:102D500002302900B0001030B1002030B200033042
:102D6000B3000830B4008031732390316400EB2E3F
:102D700028002F08003A0319E82E01302900B0007E
:102D8000B101E130B2000230B3000830B40080314C
:102D90007323903164000D30FB002D30FC00D730E0
:102DA000FD00FD0BD12EFC0BD12EFB0BD12E000014
:102DB000000001302900B000B101B230B200033090
:102DC000B3000830B4008031732390316400EB2EDF
:102DD00022000D178D1722000E100E138E131030C7
:102DE0002500A9002730AA0010302700C500273091
:102DF000C60098310020903108007408003A031D85
:102E00000A2F7508003A031D0A2FFF30F0007F30AB
:102E1000F100642F2000FD01F901F8017108700430
:102E20000319003471087506FA00FA1BFD09FB014D
:102E3000F51F1F2FF409F509F40A0319F50AF11F0C
:102E4000262FF009F109F00A0319F10A7108750437
:102E5000FA00FA1B3B2F8831CA2790317B18502F7C
:102E6000FD1F0034F009F109F00A0319F10AF8090D
:102E7000F909F80A0319F90A0034F51F4C2FF11B60
:102E8000482F7108F9007008F800F101F001302FA7
:102E9000F101F001F00A0034F109F009FB0A2D2FCD
:102EA000F80A0319F90A74087802031D302F75080F
:102EB0007902031D302FF901F801F00A0319F10A14
:102EC000F11F302F0000FF34080003302800D3002A
:102ED0002400EF012800DF018031CC2790319831A8
:102EE000252390317008D4007108D5005408A9003A
:102EF0005508AA001430F4000030F5005408F00022
:102F00005508F100FD26700828005407D10071080B
:102F1000553DD2005308D00050081F3C031CE32F3E
:102F20005008DF008031CC27903198312523903133
:102F30007008A9007108AA0080307106F200803084
:102F400052067202031DA62F510870020318E12FCA
:102F50001430F4000030F5002908F0002A08F100D0
:102F6000FD26700828002907D10071082A3DD200EB
:102F700050082400EF00280053082000AC008030E7
:102F800028002A06F00080307002031DC92F783017
:102F900029020318CC2FE32F53085007F1007108C2
:102FA000D0007108093A031DD82F0830D000E02F57
:102FB0005008113A031DE02F1030D0000430D30028
:102FC000E22FE32F8C2F24006F082800DF008031D0
:102FD000CC2790310800280042082300910092017C
:102FE0009513151315141308F000080046344134E6
:102FF000533454342034543445345334543400342A
:103000002800DB01DC0164302D02D80000302E3BAB
:10301000D9000130DD000030DE00AB01AC016400FE
:1030200026003408013A031D19281E302800DA0052
:103030001C2828007830DA00D7015A0857020318F4
:103040006E2820000D1A26287614272876108D1A4F
:103050002B2803142C280310761832280318322842
:1030600076103328761420000D18382803143928D8
:10307000031076183F2803183F287610402876144E
:10308000761C4C2888312C27983125006F08013A8E
:10309000031D4C28EF01242B9031132598318030EB
:1030A0005C06F00080302C067002031D59282B08A6
:1030B0005B02031863282B08DB002C08DC002908BE
:1030C000DD002A08DE001030FC009430FD00FD0B0E
:1030D0006728FC0B67280000D70A1D2864005B08DE
:1030E000A7005C08A8005D08DF005E08E0009031E2
:1030F000F4239831803028005E06F00080302E06E0
:103100007002031D85282D085D020130031C00306C
:10311000F000700825006D05F500803026003306AC
:10312000F300803028005E067302031D9A285D08B4
:10313000260032022600013003180030F300320866
:1031400028005D02F1002600330828005E3BF200F3
:1031500080305906F000803072067002031DB228DC
:1031600071085802013003180030F0007008730530
:10317000F40080305E06F3008030260033067302D0
:10318000031DC528320828005D02280001300318FD
:103190000030F3005D0826003202F10028005E08CE
:1031A0002600333BF200803028005906F0008030C2
:1031B00072067002031DDE287108580201300318E0
:1031C0000030F0007308F00570087404F100260068
:1031D0003308033A031DEE28E73032060130031DA1
:1031E0000030F0007108F0047508F0050319FB28A1
:1031F00001302500EE0020000D1A00297614012967
:1032000076108D1A052903140629031076180C2947
:1032100003180C2976100D29761420000D18122998
:103220000314132903107618192903181929761085
:103230001A297614761C262988312C2798312500E6
:103240006F08013A031D2629EF01242B28002708C7
:10325000DF002808E0005D08E1005E08E200903130
:103260000020983120000D1A37297614382976105D
:103270008D1A3C2903143D2903107618432903189D
:10328000432976104429761420000D184929031487
:103290004A2903107618502903185029761051290D
:1032A0007614761C5D2988312C27983125006F080B
:1032B000013A031D5D29EF01242B64002600350827
:1032C000013A031D242B28002F08043A0130031D66
:1032D0000030F1002F08053A0130031D0030F000E6
:1032E0007108F0040319472A02302900B000103099
:1032F000B1006330B2000330B3000830B400803155
:10330000732398310330FB000830FC007730FD0058
:10331000FD0B8829FC0B8829FB0B882964000230EF
:103320002900B0001030B100A930B2000330B30062
:103330000830B4008031732398310B30FB00263005
:10334000FC005D30FD00FD0BA329FC0BA329FB0B4A
:10335000A32900000000640002302900B0001030F2
:10336000B100A030B2000330B3000830B4008031A7
:10337000732398310730FB001730FC006A30FD00E2
:10338000FD0BC029FC0BC029FB0BC0290000640009
:1033900002302900B0001030B1005A30B2000330C2
:1033A000B3000830B4008031732398310B30FB0038
:1033B0002630FC005D30FD00FD0BDC29FC0BDC2918
:1033C000FB0BDC2900000000640002302900B00083
:1033D0001030B1003F30B2000330B3000830B40009
:1033E0008031732398310730FB001730FC006A30BE
:1033F000FD00FD0BF929FC0BF929FB0BF929000055
:10340000640002302900B0001030B1003630B20044
:103410000330B3000830B4008031732398310B308F
:10342000FB002630FC005D30FD00FD0B152AFC0B77
:10343000152AFB0B152A0000000064000230290049
:10344000B0001030B1005130B2000330B30008308A
:10345000B4008031732398310330FB000830FC0046
:103460007730FD00FD0B322AFC0B322AFB0B322A8F
:1034700002302900B0001030B1004830B2000330F3
:10348000B3000830B400803173239831162B280024
:103490002F08003A0319162B01302900B000B101A2
:1034A0002930B2000330B3000830B40080317323F8
:1034B00098310330FB000830FC007730FD00FD0B35
:1034C0005F2AFC0B5F2AFB0B5F2A64000130290096
:1034D000B000B101BD30B2000230B3000830B4001A
:1034E0008031732398310B30FB002630FC005D30B7
:1034F000FD00FD0B792AFC0B792AFB0B792A0000D1
:103500000000640001302900B000B101B430B20005
:103510000230B3000830B400803173239831073093
:10352000FB001730FC006A30FD00FD0B952AFC0BF8
:10353000952AFB0B952A0000640001302900B00099
:10354000B101CF30B2000230B3000830B400803196
:10355000732398310B30FB002630FC005D30FD00FA
:10356000FD0BB02AFC0BB02AFB0BB02A00000000B8
:10357000640001302900B000B101C630B200023051
:10358000B3000830B4008031732398310730FB005A
:103590001730FC006A30FD00FD0BCC2AFC0BCC2A56
:1035A000FB0BCC2A0000640001302900B000B101FF
:1035B000AB30B2000230B3000830B4008031732366
:1035C00098310B30FB002630FC005D30FD00FD0B18
:1035D000E72AFC0BE72AFB0BE72A00000000640047
:1035E00001302900B000B101A030B2000230B300B8
:1035F0000830B4008031732398310330FB00083069
:10360000FC007730FD00FD0B032BFC0B032BFB0BA9
:10361000032B01302900B000B1016630B200023046
:10362000B3000830B4008031732398316400103047
:103630002500A9002730AA0028005D08DF005E08E9
:10364000E0009031F423983108009031132598312F
:1036500020005C08643A0319452BDC0A80305B06C5
:10366000F000803028002C067002031D3A2B2B0836
:1036700020005A020318442B28002B082000DA00EF
:1036800028002C082000DB00582B2000DC015A0801
:103690002800DF0020005B082800E0002908E10086
:1036A0002A08E2009031002098312000DA01DB0185
:1036B000803028002C06F20080302700500672026D
:1036C000031D652B4F0828002B0201300318003022
:1036D000F200803027005206F100803028002C06CE
:1036E0007102031D762B2B082700510227000130A1
:1036F00003180030F1008030F00080305206700274
:10370000031D842B5108003C013003180030F000E9
:103710007108F0057208F0040319F72B640090316A
:103720001325983120005C08643A0319AF2BDC0A9A
:1037300080305B06F000803028002C067002031DEC
:10374000A42B2B0820005A020318AE2B28002B08AC
:103750002000DA0028002C082000DB00C22B20000B
:10376000DC015A082800DF0020005B082800E00088
:103770002908E1002A08E200903100209831200059
:10378000DA01DB010D302800EB000030EC00ED0128
:103790000530EE000130EF008831E62698317008E0
:1037A0000319D52B01302000DE0020005E08013A0D
:1037B0000130031D00302800D6000D30EB00003032
:1037C000EC00ED010530EE00EF018831E62698317E
:1037D00028005608F0050319F62B9031472698313A
:1037E0002800A901AA01F001F101FC2B582B2800A7
:1037F0002908F0002A08F100080026006E082800B9
:10380000CA0026006E0825006A07F100710828002A
:10381000CC0071081F3C03180F2C1F30CC00250072
:103820006A0828004A0203181B2C4A0825006A026D
:103830002800CD001C2CCD014D082500EA002800F1
:103840004D08DF0088315927983125237008A900D9
:103850007108AA0000307106031D302C003070067C
:10386000031D332CB12C2908CE002A08CF004D0AA5
:10387000CB004B084C02031CAA2C4B08DF008831FC
:103880005927983125237008A9007108AA00003033
:103890007106031D4D2C00307006031D502CB12CF9
:1038A00080302A06F00080304F067002031D5A2C2B
:1038B0004E082902031C6B2C3430FC00F130FD0053
:1038C000FD0B602CFC0B602C000000002523700811
:1038D000A9007108AA0080302A06F00080304F0647
:1038E0007002031D752C4E082902031C862C3430EF
:1038F000FC00F130FD00FD0B7B2CFC0B7B2C000051
:10390000000025237008A9007108AA0080302A064B
:10391000F00080304F067002031D902C4E082902E3
:103920000318A72C2908CE002A08CF004B08250031
:10393000EA00803028002A06F00080307002031D63
:10394000A32C783029020318A62CAA2CA82CAA2C68
:10395000CB0A392C25006A082800DF008831592756
:103960009831080020002C082800CA0020002C08EC
:1039700024006F07F10071082800CC0071081F3C7B
:103980000318C42C1F30CC0024006F0828004A0202
:103990000318D02C4A0824006F022800CD00D12C37
:1039A000CD014D082400EF0028004D08DF008031D4
:1039B000CC27983125237008A9007108AA0000308F
:1039C0007106031DE52C00307006031DE82C662DE2
:1039D0002908CE002A08CF004D0ACB004B084C0224
:1039E000031C5F2D4B08DF008031CC279831252345
:1039F0007008A9007108AA0000307106031D022D8D
:103A000000307006031D052D662D80302A06F0005B
:103A100080304F067002031D0F2D4E082902031C33
:103A2000202D3430FC00F130FD00FD0B152DFC0B7A
:103A3000152D0000000025237008A9007108AA00B8
:103A400080302A06F00080304F067002031D2A2DB8
:103A50004E082902031C3B2D3430FC00F130FD00E0
:103A6000FD0B302DFC0B302D0000000025237008CD
:103A7000A9007108AA0080302A06F00080304F06A5
:103A80007002031D452D4E08290203185C2D2908DC
:103A9000CE002A08CF004B082400EF008030280019
:103AA0002A06F00080307002031D582D783029025C
:103AB00003185B2D5F2D5D2D5F2DCB0AEE2C2400AE
:103AC0006F082800DF008031CC27983108000330D0
:103AD0002800CF00CB014F082600EE00033028005D
:103AE000CC001430F4000030F5002908F0002A085A
:103AF000F1009031FD269831700828002907CD008B
:103B000071082A3DCE00CA014A081F3C031CE42D5F
:103B10004A08DF008831592798319031652798315C
:103B200025237008A9007108AA0080307106F200F0
:103B300080304E067202031D9F2D4D08700203183F
:103B4000E22D1430F4000030F5002908F0002A08B6
:103B5000F1009031FD269831700828002907CD002A
:103B600071082A3DCE004A082500EA0024006F08AB
:103B70002800CB004F082600EE0020002C0828006B
:103B8000CC0080302A06F00080307002031DCA2D60
:103B9000783029020318CD2DE42D4F084A07F10093
:103BA0007108CA007108093A031DD92D0830CA00EE
:103BB000E12D4A08113A031DE12D1030CA000430EE
:103BC000CF00E32DE42D842D4B082400EF002500C9
:103BD0006A082800DF0088315927983124006F08CF
:103BE0002800DF008031CC27983128004C082000C5
:103BF000AC003430FC00F130FD00FD0BFD2DFC0B62
:103C0000FD2D00000000080064002000DE01DA0144
:103C1000DB01DC01252329082700CD0028002A0824
:103C20002700CE00803028002A06F0008030700285
:103C3000031D1C2E6E30290203181F2EB42F88314D
:103C4000882798318831002098310230FB000430F9
:103C5000FC00BA30FD00FD0B2B2EFC0B2B2EFB0BBA
:103C60002B2E0000252329082700CD0028002A0834
:103C70002700CE00803028002A06F0008030700235
:103C8000031D442E6E3029020318472EB42F8030B6
:103C9000F100803024067102031D502E23086E3C73
:103CA000013003180030F10080302406F00080302D
:103CB0002A067002031D5E2E290823020130031814
:103CC0000030F0007108F0050319672EB42F2908A1
:103CD000C4002A08C5006725003028002A06031DF5
:103CE000732E00302906031D792E883188279831DC
:103CF000B42F252380302A06F00080307002031D87
:103D0000832E783029020318862EB42FFD2300302D
:103D100028002A06031D8E2E00302906031D942E2E
:103D2000883188279831B42F252380302A06F00067
:103D300080307002031D9E2E783029020318A12EB8
:103D4000B42FB224003028002A06031DA92E00300B
:103D50002906031DAF2E883188279831B42F2523DB
:103D600080302A06F00080307002031DB92E7830B2
:103D700029020318BC2EB42F80302A06F1008030AF
:103D80007102031DC52EC83029020130031800300E
:103D9000F10080302A06F000803045067002031DD5
:103DA000D32E44082902013003180030F0007008B7
:103DB0007105F30029084402F1002A08453BF2008E
:103DC0008030F000803072067002031DE92E710809
:103DD000643C013003180030F0007308F00503194B
:103DE000F22EB42F2908C4002A08C50025006A084D
:103DF0002800C600C70124006F082800C800C901B8
:103E000025006C08013A031D072FEC01092F013032
:103E1000EC0088318827983125006C082800D700ED
:103E20008831BB2798310230FB000430FC00BA30E7
:103E3000FD00FD0B192FFC0B192FFB0B192F000098
:103E4000252380302A06F00080307002031D2A2FBF
:103E50007830290203182D2FB42F67250030280051
:103E60002A06031D352F00302906031D3B2F8831FC
:103E700088279831B42F252380302A06F00080301F
:103E80007002031D452F783029020318482FB42FE4
:103E9000FD23003028002A06031D502F003029067C
:103EA000031D562F883188279831B42F2523803061
:103EB0002A06F00080307002031D602F783029023E
:103EC0000318632FB42FB224003028002A06031DE4
:103ED0006B2F00302906031D712F883188279831F8
:103EE000B42F252380302A06F00080307002031D95
:103EF0007B2F7830290203187E2FB42F803045069F
:103F0000F00080302A067002031D882F2908440221
:103F10000318B32F25006C08013A031D912FEC0103
:103F2000932F0130EC006C082800D7008831BB27A4
:103F30009831280046082500EA0028004808240097
:103F4000EF0028004608DF00883159279831240007
:103F50006F082800DF008031CC2798312800440802
:103F6000A9004508AA006400080028004208F000E3
:103F7000F036F036F036F0360A30F4008031B920F1
:103F800098310F3028004205F1007108F007080051
:103F9000EC302700EA000330EB00B030EC000430D6
:103FA000ED00F03021009E009D011D140800280046
:103FB000C2019031EB27983170082800A100013030
:103FC000C2009031EB27983170082800A0007008DB
:103FD000003A031DF22F21000D138D1322000D173F
:103FE0008D17F82F21000D178D1722000D138D133B
:103FF000080010342734003433343334133480341D
:10400000640028002F08043A0130031D0030F1003D
:104010002F08053A0130031D0030F0007108F0044C
:104020000319DF2824006508003A031DA42829008D
:10403000B0011630B1005D30B2000230B30007307D
:10404000B40080317323A03102302900B000043065
:10405000B1005230B2000230B3000A30B4008031F7
:104060007323A03104302900B0001030B1003D307E
:10407000B2000230B3000830B40080317323A031A5
:1040800006302900B0000430B100E330B200013046
:10409000B3000A30B40080317323A03164000D30C6
:1040A000FB002D30FC00D730FD00FD0B5528FC0B2C
:1040B0005528FB0B55280000000064000B30FB0066
:1040C0002630FC005D30FD00FD0B6428FC0B6428ED
:1040D000FB0B64280000000064002900B0011030D0
:1040E000B100DA30B2000130B3000830B4008031E2
:1040F0007323A03102302900B0000430B100CF306A
:10410000B2000130B3000A30B40080317323A03113
:1041100004302900B0001030B1003430B200023059
:10412000B3000830B40080317323A0310630290079
:10413000B0000430B1002930B2000230B3000A30C0
:10414000B40080317323A0310430FB000C30FC003C
:104150003330FD00FD0BAA28FC0BAA28FB0BAA2874
:10416000000000002900B0011030B1002030B20082
:104170000230B3000830B40080317323A031023024
:104180002900B0001030B1006530B2000130B3003A
:104190000830B40080317323A03125006D08031965
:1041A000DE282900B0017030B100E930B2000030E3
:1041B000B3000130B40080317323A031AE29280050
:1041C0002F08003A0319AE2924006508003A031DA0
:1041D00076292900B0010430B1004030B20001302E
:1041E000B3000730B40080317323A03101302900BF
:1041F000B0000330B1003530B2000130B3000A30F6
:10420000B40080317323A03164000F30FB003530DF
:10421000FC005130FD00FD0B0B29FC0B0B29FB0BA7
:104220000B2964000B30FB002630FC005D30FD00E4
:10423000FD0B1829FC0B1829FB0B182900000000A6
:1042400064002900B0010430B1005C30B2000130DC
:10425000B3000830B40080317323A031013029004D
:10426000B0000330B1005130B2000130B3000A3069
:10427000B40080317323A03164000D30FB002D3079
:10428000FC00D730FD00FD0B4329FC0B4329FB0B41
:1042900043290000000064000B30FB002630FC00C6
:1042A0005D30FD00FD0B5229FC0B5229FB0B5229FE
:1042B0000000000064002900B0010430B100483063
:1042C000B2000130B3000830B40080317323A03154
:1042D00001302900B0000330B1002A30B2000130B3
:1042E000B3000A30B40080317323A0310430FB00E6
:1042F0000C30FC003330FD00FD0B7C29FC0B7C29CD
:10430000FB0B7C29000000002900B001B101D53071
:10431000B2000030B3000830B40080317323A03104
:1043200001302900B000B101CC30B2000030B30040
:104330000830B40080317323A03125006D080319C3
:10434000AE292900B0010830B100CA30B2000030F7
:10435000B3000130B40080317323A0316400FF301A
:104360002600EF00FF302000EE0088310020A03151
:104370000800640028002F08043A0130031D0030B3
:10438000F1002F08053A0130031D0030F0007108DC
:10439000F0040319DA2902302900B0004030B100DE
:1043A000A030B2000130B3000430B4008031732378
:1043B000A031F12928002F08003A0319EE29013015
:1043C0002900B0000430B100EB30B2000030B3007F
:1043D0000430B40080317323A031F12922000D177D
:1043E0008D1722000E100E138E1398310426A03163
:1043F00028002F08003A031D1F2A8030F00080306B
:104400002A067002031D062A2908963C031C0C2A62
:1044100022000D138D171F2A8030F00080302800F5
:104420002A067002031D162A2908FA3C031C1C2ABE
:1044300020000D138D131F2A20000D178D138030BF
:10444000F000803028002A067002031D292A29085E
:10445000963C031C2E2A22000E143F2A8030F000C6
:10446000803028002A067002031D382A2908FA3CE9
:10447000031C3D2A22000E173F2A22008E17FF3010
:104480002800D70024006F082800D80088319D2715
:10449000A031FE302800D70025006A082800D80087
:1044A00088319D27A031FD302800D70025006C08F9
:1044B0002800D80088319D27A03110302500A900A0
:1044C0002730AA0010302700C5002730C6009831D9
:1044D0000020A031280029082600B20028002A0860
:1044E0002600B30022008C138C1564000800803174
:1044F0000320A031280021082900C9008031222092
:10450000A0312900C90180312220A031AE3029001C
:10451000C90080312220A03128002008023A013051
:10452000031D0030F1002008033A0130031D003064
:10453000F0007108F0040319542BD5302900C9008C
:1045400080312220A03180302900C9008031222012
:10455000A031A8302900C90080312220A0313F308D
:104560002900C90080312220A031D3302900C900A0
:1045700080312220A03128002008023A031DC82AD9
:1045800027006E082900C90080312220A031D02ADE
:1045900027006E081F3E2900C90080312220A0316B
:1045A00040302900C90080312220A0318D302900FF
:1045B000C90080312220A03114302900C900803187
:1045C0002220A03181302900C90080312220A03171
:1045D000B4302900C90080312220A031D93029000F
:1045E000C90080312220A03122302900C900803149
:1045F0002220A03120302900C90080312220A031A2
:1046000002302900C90080312220A0312130290048
:10461000C90080312220A0312900C9018031222027
:10462000A0317F302900C90080312220A0312E30F6
:104630002900C90080312220A03128002008023A38
:10464000031D2F2BA0302900C90080312220A0316A
:10465000C0302900C90080312220A0313B2BA1307D
:104660002900C90080312220A031C8302900C900AA
:1046700080312220A031DA302900C9008031222087
:10468000A03102302900C90080312220A031DB3066
:104690002900C90080312220A03140302900C90002
:1046A00080312220A031FC2BD5302900C900803177
:1046B0002220A03180302900C90080312220A03181
:1046C000A8302900C90080312220A0313F302900C4
:1046D000C90080312220A031D3302900C9008031A7
:1046E0002220A03127006E082900C9008031222035
:1046F000A03140302900C90080312220A0318D3006
:104700002900C90080312220A03114302900C900BD
:1047100080312220A03181302900C900803122203F
:10472000A031FF302900C90080312220A031D930CA
:104730002900C90080312220A031F1302900C900B0
:1047400080312220A03120302900C9008031222070
:10475000A03102302900C90080312220A03121304F
:104760002900C90080312220A0312900C9018031EF
:104770002220A0317F302900C90080312220A031C1
:104780002E302900C90080312220A03128002008C5
:10479000043A031DD82BA0302900C9008031222003
:1047A000A031C0302900C90080312220A031E42B83
:1047B000A1302900C90080312220A031C830290051
:1047C000C90080312220A031DA302900C9008031AF
:1047D0002220A03112302900C90080312220A031CE
:1047E000DB302900C90080312220A031403029006F
:1047F000C90080312220A031A4302900C9008031B5
:104800002220A031A6302900C90080312220A03109
:104810008031D120A0310330FB000830FC0077301C
:10482000FD00FD0B112CFC0B112CFB0B112C80310E
:104830000320A031280021082900C900803122204E
:10484000A03140302900C90080312220A031280049
:104850002008023A0130031D0030F1002008033A1D
:104860000130031D0030F0007108F0040319562CCC
:10487000C3014308033C031C552C43082900C40012
:10488000C50180317920A0312800C2012800803084
:1048900042020318522CC20A2900C9018031222089
:1048A000A031462C2800C30A392C732CC3014308BD
:1048B000073C031C732C43082900C400C501803148
:1048C0007920A0312800C20128008030420203185C
:1048D000702CC20A2900C90180312220A031642C29
:1048E0002800C30A572C8031D120A031AF302900D5
:1048F000B00080310424A031080028002F08043AB9
:104900000130031D0030F1002F08053A0130031D6E
:104910000030F0007108F00403199C2C2900B0014C
:104920000A30B100B930B2000130B3000930B40030
:1049300080317323A031AE2C28002F08003A0319D0
:10494000AE2C2900B0010330B100AF30B20001300D
:10495000B3000930B40080317323A03164000B3000
:10496000FB002630FC005D30FD00FD0BB52CFC0B80
:10497000B52CFB0BB52C0000000064000B30FB00D5
:104980002630FC005D30FD00FD0BC42CFC0BC42C5C
:10499000FB0BC42C0000000064000B30FB00263031
:1049A000FC005D30FD00FD0BD32CFC0BD32CFB0B6E
:1049B000D32C0000000064000B30FB002630FC000C
:1049C0005D30FD00FD0BE22CFC0BE22CFB0BE22C1E
:1049D00000000000640028002F08043A0130031D85
:1049E0000030F1002F08053A0130031D0030F000BF
:1049F0007108F00403190A2D2900B0010A30B10032
:104A0000A530B2000130B3000930B4008031732307
:104A1000A0311C2D28002F08003A03191C2D290055
:104A2000B0010330B1004830B2000230B3000930A9
:104A3000B40080317323A03188318827A031013040
:104A40002500EC0001302800D7008831BB27A031B9
:104A5000FF302800D70024006F082800D8008831D4
:104A60009D27A031FE302800D70025006A082800C5
:104A7000D80088319D27A031FD302800D7002500BF
:104A80006C082800D80088319D27A03128002F0805
:104A9000043A0130031D0030F1002F08053A0130BF
:104AA000031D0030F0007108F0040319652D290082
:104AB000B0017030B1004630B2000230B3000130B6
:104AC000B40080317323A031772D28002F08003ADD
:104AD0000319772D2900B0010830B100EE30B20083
:104AE0000130B3000130B40080317323A0310130B4
:104AF0002400E5000020080001302800C2009031A9
:104B0000EB27A03170082800A0000730C2009031C8
:104B1000EB27A03170082700EE0008302800C20003
:104B20009031EB27A03170082800A2002008013A3C
:104B300003199C2D77220B2E01302700E900E80194
:104B400003302900BA0080314221A0311A30FC0024
:104B5000F830FD00FD0BAA2DFC0BAA2D0000033040
:104B60002900BA0080314221A0310630FC003030EB
:104B7000FD00FD0BB92DFC0BB92D00000330290001
:104B8000BA0080314221A03102302900BA008031C0
:104B90004221A03102302900BA0080314221A031E7
:104BA00008302900BA0080314221A0312900BA0121
:104BB00080314221A03108302900BA0080314221E1
:104BC000A0312900BA0180314221A03101302900F1
:104BD000BA0080314221A0311A30FC00F830FD00CB
:104BE000FD0BF02DFC0BF02D00002900BA018031E7
:104BF0004221A03106302900BA0080314221A03183
:104C00002900BA0180314221A0310C302900BA00BC
:104C100080314221A03108000D302800EB00003027
:104C2000EC00ED013230EE00EF018831E626A031D4
:104C300070080319C42E0630FB001330FC00AD30A1
:104C4000FD00FD0B212EFC0B212EFB0B212E000065
:104C50000000640020000D1C402E25006C08003A66
:104C6000031D352E0130EC00362EEC016C082800B7
:104C7000D7008831BB27A03188310020A031B02E69
:104C800020002608013A031D472EA601492E0130B7
:104C9000A6002608013A031D7F2E28002F08043A9B
:104CA0000130031D0030F1002F08053A0130031DCB
:104CB0000030F0007108F00403196C2E2900B001D7
:104CC0007030B1002430B2000030B3000130B400C5
:104CD00080317323A0317E2E28002F08003A03195B
:104CE0007E2E2900B0010830B1002230B200003021
:104CF000B3000130B40080317323A031B02E2800FE
:104D00002F08043A0130031D0030F1002F08053A46
:104D10000130031D0030F0007108F00403199E2ECD
:104D20002900B0017030B1002A30B2000030B30069
:104D30000130B40080317323A031B02E28002F0839
:104D4000003A0319B02E2900B0010830B100283014
:104D5000B2000030B3000130B40080317323A031C1
:104D60000D302800EB000030EC00ED013230EE0099
:104D7000EF018831E626A03170080319C42E98315E
:104D80000020A0316400B02E0D302800EB00003070
:104D9000EC000530ED003230EE00EF018831E62600
:104DA000A031700803191A2F64000D302800EB00A1
:104DB0000030EC000530ED003230EE00EF018831BC
:104DC000E626A031700803191A2F1F3025006A0249
:104DD000013003180030F00020002608F005031908
:104DE000FA2E2500EA0A6A082800DF0088315927D0
:104DF000A031122F200026080130031D0030F100E1
:104E00001F3024006F02013003180030F0007108D9
:104E1000F0050319122FEF0A6F082800DF00803118
:104E2000CC27A03188310020A03198310020A0315A
:104E30006400D52E0D302800EB000030EC0004306B
:104E4000ED003230EE00EF018831E626A03120007F
:104E50002708003A0130031D0030F1007108F00509
:104E60000319782F64000D302800EB000030EC00AF
:104E70000430ED003230EE00EF018831E626A0313B
:104E800070080319782F25006A08003C01300318C8
:104E90000030F00020002608F0050319582F2500E7
:104EA000EA036A082800DF0088315927A031702FF3
:104EB000200026080130031D0030F10024006F0897
:104EC000003C013003180030F0007108F0050319B0
:104ED000702FEF036F082800DF008031CC27A0314E
:104EE00088310020A03198310020A0316400332F98
:104EF000080028002008013C0318852FAE30290047
:104F0000B00080310424A031972F28002008013AF6
:104F1000031D972F2700E901E8012900BA0180311C
:104F20004221A0312900BA0180314221A03108007C
:104F30002100971217169711171597106400230078
:104F40008C010C148C148D01220091139313783072
:104F50002100990020008C018D018E010830220073
:104F60008C008D018E01033021008C00F9308D0002
:104F70008E019831C827A0311E149E149513240069
:104F80000D148D150D168D168B130800003400348A
:104F90004F345634453452344C344F344134443415
:104FA0000034203420342034203420342034203481
:104FB000203400345334573452343D3420342034B8
:104FC0002034203400342034203420342034203461
:104FD00020342034203400344F3456344534523495
:104FE0004C344F34413444340034203420342034A1
:104FF0002034203420342034203400342E34003443
:105000000D302800EB000030EC00ED013230EE00F6
:10501000EF018831E626A83125006E08F004031957
:10502000852880312A27A83127004708F0008031E1
:10503000BD27A83127004808F4004908F5004A08B0
:10504000F6004B08F70088318026A83180314427CC
:10505000A83170082600EC007108ED000630FB0056
:105060001330FC00AD30FD00FD0B3428FC0B342860
:10507000FB0B342800000000640025006E08003A95
:105080000130031D0030F10020000D1849280310E5
:105090004A280314F0010318F00A7108F0050319F7
:1050A000572890314726A8312000A70185282200E3
:1050B0008C178C1164000630FB001330FC00AD30FF
:1050C000FD00FD0B6128FC0B6128FB0B6128000033
:1050D00000006400A031B921A8312000A7010D30E3
:1050E0002800EB000030EC00ED013230EE00EF0163
:1050F0008831E626A83170080319832898310020EA
:10510000A83164006F282500EE010D302800EB0067
:105110000030EC000530ED003230EE00EF01883158
:10512000E626A83170080319B62980312A27A8314C
:1051300027004708F0008031BD27A8312700480824
:10514000F4004908F5004A08F6004B08F7008831DA
:105150008026A83180314427A83170082600EC0051
:105160007108ED00640020002708003A031DE628BE
:105170000130A70024006F082000DD0025006A0828
:105180002000D90025006C082000D2002400EF0187
:105190002500EA010130EC002800DF0188315927A1
:1051A000A83124006F082800DF008031CC27A83107
:1051B00025006C082800D7008831BB27A8312500BE
:1051C0006D082000D1002500ED010C292000A70169
:1051D0005D082400EF00200059082500EA002000A7
:1051E00052082500EC0020005D082800DF00803117
:1051F000CC27A83125006A082800DF00883159270C
:10520000A83125006C082800D7008831BB27A831B9
:10521000200051082500ED0028002F08043A013035
:10522000031D0030F1002F08053A0130031D003046
:10523000F0007108F00403195D29200027080130EF
:10524000031D0030F00025006D08F0050319362914
:105250002900B0017030B1004F30B2000030B3000F
:105260000130B40080317323A8315C2925006D081A
:105270000130031D0030F00020002708F00503195D
:105280004F292900B0017030B1005730B200003012
:10529000B3000130B40080317323A8315C292900A8
:1052A000B0017030B1005530B2000030B3000130B1
:1052B000B40080317323A831A12928002F08003AB7
:1052C0000319A129200027080130031D0030F00038
:1052D00025006D08F00503197B292900B00108306D
:1052E000B1005330B2000030B3000130B40080315F
:1052F0007323A831A12925006D080130031D00305A
:10530000F00020002708F005031994292900B001B6
:105310000830B100C830B2000030B3000130B40032
:1053200080317323A831A1292900B0010830B100D0
:10533000C730B2000130B3000130B40080317323B4
:10534000A8310D302800EB000030EC000530ED00F6
:105350003230EE00EF018831E626A83170080319DB
:10536000B62998310020A8316400A1290D30280009
:10537000EB000030EC000430ED003230EE00EF01C5
:105380008831E626A83120002708003A0130031DA5
:105390000030F1007108F0050319A92A80312A278D
:1053A000A83127004708F0008031BD27A831270029
:1053B0004808F4004908F5004A08F6004B08F700D1
:1053C00088318026A83180314427A8317008260012
:1053D000EC007108ED00640025006D08003A031D23
:1053E000F4290130ED00F529ED0102302800D70045
:1053F00025006D082800D80088319D27A831280095
:105400002F08043A0130031D0030F1002F08053A3F
:105410000130031D0030F0007108F0040319502A18
:10542000200027080130031D0030F00025006D0822
:10543000F0050319292A2900B0017030B100C530E8
:10544000B2000130B3000130B40080317323A831C1
:105450004F2A25006D080130031D0030F0002000A8
:105460002708F0050319422A2900B0017030B10065
:10547000C330B2000130B3000130B4008031732377
:10548000A8314F2A2900B0017030B100CD30B200F0
:105490000130B3000130B40080317323A831942A65
:1054A00028002F08003A0319942A20002708013009
:1054B000031D0030F00025006D08F00503196E2A69
:1054C0002900B0010830B100CB30B2000130B30088
:1054D0000130B40080317323A831942A25006D086F
:1054E0000130031D0030F00020002708F0050319EB
:1054F000872A2900B0010830B100C930B20001305C
:10550000B3000130B40080317323A831942A2900FC
:10551000B0010830B1006E30B2000130B30001308C
:10552000B40080317323A8310D302800EB00003027
:10553000EC000430ED003230EE00EF018831E62659
:10554000A83170080319A92A98310020A8316400F5
:10555000942A0800640001302800C2009031EB2733
:10556000A83170082800AF000230C2009031EB274C
:10557000A8317008013A031DC02A01302500ED0052
:1055800003302800C2009031EB27A83170082800B2
:10559000C2009831B527A8317008A500A6010430D3
:1055A000C2009031EB27A83170082800C200983162
:1055B000B527A8310A30F4008031B920A83170082D
:1055C0002800AD007108AE000530C2009031EB2715
:1055D000A83170082800C2009831B527A8310A30D8
:1055E000F4008031B920A83170082700CF0071087D
:1055F000D00006302800C2009031EB27A831700897
:105600002800C2009831B527A8310A30F400803153
:10561000B920A83170082700D1007108D2000930E4
:105620002800C2009031EB27A83170082800C20082
:105630009831B527A8310A30F4008031B920A8315B
:1056400070082800A3007108A40064001030C20094
:105650009031EB27A83170082800C2009831B52797
:10566000A8316430F4008031B920A83170082800D6
:10567000C0007108C1001130C2009031EB27A83181
:1056800070082800C2009831B527A831700840077B
:105690002700D90000302800413D2700DA001230F1
:1056A0002800C2009031EB27A83170082800C20002
:1056B0009831B527A8316430F4008031B920A83181
:1056C00070082800C0007108C1001330C20090317A
:1056D000EB27A83170082800C2009831B527A831FF
:1056E000700840072700D70000302800413D270000
:1056F000D80014302800C2009031EB27A831700880
:105700002800C2009831B527A8316430F4008031F8
:10571000B920A83170082800C0007108C1001530F8
:10572000C2009031EB27A83170082800C2009831E0
:10573000B527A831700840072700D50000302800A1
:10574000413D2700D60016302800C2009031EB27DB
:10575000A83170082800C2009831B527A8316430FC
:10576000F4008031B920A83170082800C000710809
:10577000C1001730C2009031EB27A8317008280013
:10578000C2009831B527A831700840072700DD0016
:1057900000302800413D2700DE0018302800C200FC
:1057A0009031EB27A83170082800C2009831B52746
:1057B000A8316430F4008031B920A8317008280085
:1057C000C0007108C1001930C2009031EB27A83128
:1057D00070082800C2009831B527A831700840072A
:1057E0002700DB0000302800413D2700DC0020308E
:1057F0002800C2009031EB27A83170082800C200B1
:105800009831B527A8316430F4008031B920A8312F
:1058100070082800C0007108C1002130C20090311A
:10582000EB27A83170082800C2009831B527A831AD
:10583000700840072700D30000302800413D2700B2
:10584000D40022302800C2009031EB27A831700824
:105850002800C2009831B527A8316430F4008031A7
:10586000B920A83170082800C0007108C100233099
:10587000C2009031EB27A83170082800C20098318F
:10588000B527A831700840072700E3000030280042
:10589000413D2700E40024302800C2009031EB276E
:1058A000A83170082800C2009831B527A8316430AB
:1058B000F4008031B920A83170082800C0007108B8
:1058C000C1002530C2009031EB27A83170082800B4
:1058D000C2009831B527A831700840072700E100C1
:1058E00000302800413D2700E20026302800C20099
:1058F0009031EB27A83170082800C2009831B527F5
:10590000A8316430F4008031B920A8317008280033
:10591000C0007108C1002730C2009031EB27A831C8
:1059200070082800C2009831B527A83170084007D8
:105930002700DF0000302800413D2700E00028302C
:105940002800C2009031EB27A83170082800C2005F
:105950009831B527A8316430F4008031B920A831DE
:1059600070082800C0007108C1002930C2009031C1
:10597000EB27A83170082800C2009831B527A8315C
:10598000700840072700E50000302800413D27004F
:10599000E60030302800C2009031EB27A8317008B3
:1059A0002800C2009831B527A83170082700C70029
:1059B00031302800C2009031EB27A8317008200058
:1059C000EF0032302800C2009031EB27A831700878
:1059D0002800C2009831B527A83170082700CC00F4
:1059E00064000800B0312A22A831031AFA2C0130D1
:1059F0002100E800A0319827A8310330FB000830CF
:105A0000FC007730FD00FD0B032DFC0B032DFB0B81
:105A1000032D6400AA229831D727A83128002F0827
:105A2000003A031D162D22000D178D1722000E10AF
:105A30000E138E1327004708F0008031BD27A831D0
:105A400027004808F4004908F5004A08F6004B080A
:105A5000F70088318026A83180314427A8317008AA
:105A60002600EC007108ED000530FB000F30FC0053
:105A7000F130FD00FD0B3A2DFC0B3A2DFB0B3A2DBE
:105A8000640020000D1A462D7414472D74108D1AD1
:105A90004B2D03144C2D0310741C522D031C522D3E
:105AA0007414532D7410741C582D01302600B4004A
:105AB000A0317C25A83120000D1A602D7414612DB1
:105AC00074108D1A652D0314662D0310741C6C2D33
:105AD000031C6C2D74146D2D741020000D18722D84
