:04000000B031432BAD
:1000060029003E08003A03193D28F1017108073C12
:10001600031C2A282A00DC1B132821008D1315280F
:1000260021008D170630FD00FD0B172800000D1767
:100036000630FD00FD0B1D2800000D130630FD00E7
:10004600FD0B232800002A00DC35F10A09282100CF
:100056008D170630FD00FD0B2E2800000D1706300B
:10006600FD00FD0B342800000D130630FD00FD0BCE
:060076003A28000008001A
:10007C0029003E08003A03195C2821000D170630B0
:10008C00FD00FD0B472800008D170630FD00FD0B11
:10009C004D2800008D130630FD00FD0B5328000089
:0E00AC000D130630FD00FD0B59280000080062
:1000BA00290039082A005807DB003E2029003708A2
:1000CA002A00DC0003202A00DC0103202A0057084A
:1000DA00B03EDC0003202A005B080F3C031C792891
:1000EA005B08D900DA018A285B08F200F236F23698
:1000FA00F236F2367208DA007208F000F035F0359E
:10010A00F035F03570085B02D9005908DC0003208D
:10011A002A005A08103EDC0003203E202900370836
:10012A002A00DC00032040302A00DC0003200800FB
:10013A002000F801F9011030FC00710DF80DF90DDD
:10014A007408F8027508031C750FF9020318B4281D
:10015A007408F80775080318750FF9070310F00DEE
:08016A00F10DFC0BA2280800B6
:1001720020007008F100F0010830FC007108F40C56
:100182000318C728FC0BC028F10100340310CC2847
:10019200F40C0318F107F10CF00CFC0BC928080051
:1001A20029003E08003A0319E92821008D13063080
:1001B200FD00FD0BDA2800000D170630FD00FD0BD7
:1001C200E02800008D170630FD00FD0BE628000038
:0201D200080023
:0801D400FA1FF21300300800CD
:1001DC00FB14FB1FF828FF30F300F200F100F000D5
:0801EC00FA0DF20CFF300800CF
:1001F4003E20290037082A00DC00032040302A0072
:10020400DC0003202A004E08D7004D08D8005D20EA
:100214002A00D201510852020318C02952084F077C
:1002240084000030503D85000008003A031D1C295D
:10023400D401252952084F0784000030503D850021
:1002440020300002D400D3015308043C031CB82915
:100254005408F0000530F400B9202A005308F007D0
:100264000030F13D003070078400B830713D8500E6
:100274000008D5004E08023A013003190030F1009D
:100284004E08043A013003190030F0007008F105FB
:100294004E08063A013003190030F0007108F005E9
:1002A40003197D29D5195829D6135929D617D519D3
:1002B4005D2956135E29561755196229D6126329EA
:1002C400D61655196729561268295616D5186C2959
:1002D400D6116D29D615D5187129561172295615BE
:1002E40055187629D6107729D61455187B29561017
:1002F4007C2956149D2955198129D6138229D6178C
:1003040055198629561387295617D5188B29D612BD
:100314008C29D616D5189029561291295616551897
:100324009529D6119629D61555189A2956119B291F
:100334005615D61056105608DC00032029003E0836
:10034400043A0130031D0030F1003E08053A013043
:10035400031D0030F0007108F0040319B5292A00C8
:100364005608DC0003202A00D30A2629DC010320D6
:100374002A00DC0103202A00D20A0C294E0AD700E5
:100384004D08D8005D202A00D201510852020318FA
:10039400832A52084F0784000030503D850000082E
:1003A400003A031DD729D401E02952084F078400DD
:1003B4000030503D850020300002D400D3015308A2
:1003C400043C031C7B2A5408F0000530F400B920D7
:1003D4002A005308F0070030F13D00307007840014
:1003E400B830713D85000008D5004E08023A01304E
:1003F40003190030F1004E08043A013003190030AB
:10040400F0007008F1054E08063A01300319003077
:10041400F0007108F0050319382AD51B132AD613E6
:10042400142AD617D51B182A5613192A5617551BE2
:100434001D2AD6121E2AD616551B222A5612232AE4
:100444005616D51A272AD611282AD615D51A2C2A93
:1004540056112D2A5615551A312AD610322AD61479
:10046400551A362A5610372A5614602A551B3C2A28
:10047400D6133D2AD617551B412A5613422A56171E
:10048400D51A462AD612472AD616D51A4B2A5612F8
:100494004C2A5616551A502AD611512AD615551AD1
:1004A400552A5611562A5615D5195A2AD6105B2A9A
:1004B400D614D5195F2A5610602A56145608DC0043
:1004C400032029003E08043A0130031D0030F100E6
:1004D4003E08053A0130031D0030F0007108F004B5
:1004E4000319782A2A005608DC0003202A00D30ABC
:1004F400E129DC0103202A00DC0103202A00D20ABE
:06050400C729D120080008
:10050A002A00CE012900BF010130B8002A004D0897
:10051A00CE00CE35CE35CE35CE3529004108031969
:10052A00992A08302A00CE07290038080319A02A78
:10053A0004302A00CE0729003F080319A72A0230EF
:10054A002A00CE07290040080319AD2A2A00CE0A3C
:10055A003E20290037082A00DC0003202A004E0822
:10056A00DC000320D1200630FC003030FD00FD0BFA
:10057A00BC2AFC0BBC2A000004302A00CE023E2012
:10058A00290037082A00DC0003202A004E08DC0074
:10059A000320D1200630FC003030FD00FD0BD32AA9
:0805AA00FC0BD32A000008003D
:0E05B200F201F101F001F801F3010030080040
:1005C0007B15FB1FEA2A0130F300F201F101F00173
:0805D000FA0DF20CFF300800E7
:1005D8002A00D101053051020318FC2A51084F079F
:1005E80086000030503D870020308100D10AEE2A75
:1005F80051084F0786000030503D87008101D10324
:1006080051084F07D2000030503DD3000A30F400A3
:10061800F5014D08F0004E08F1009D207808F00023
:100628007908F1003030F0072A0052088600530894
:100638008700700881000A30F400F5014D08F000C9
:100648004E08F1009D2070082A00CD007108CE00E8
:1006580000307106031D322B00307006031D352B48
:08066800372BD103042B08001D
:0A0670001D30FD00FD0B3A2B0800C1
:10067A00FB09FA09F909F809F80A0319F90A031929
:08068A00FA0A0319FB0A08003B
:100692002A00C901CA014308CB004408CC008030BB
:1006A2004406F00080307002031D592B00304302D3
:1006B2000318672B0130C9000030CA004308003C10
:1006C200CB004408031C013ECC01CC024B08CD00F8
:1006D2004C08CE004508CF004608D000EC22063078
:1006E200C7000030C8004808003C031D7A2B4708A9
:1006F200003C0318952B4708450786004808463DED
:10070200870001304702F0000030483BF1007008DA
:10071200450784007108463D8500000881000130CC
:10072200C7020030C83B742B450886004608870084
:100732002030810049084A040319BB2BC701C801B4
:100742004708450784004808463D85000008203ACE
:10075200031DAF2BC70A0319C80AA12B0130C70218
:100762000030C83B4708450786004808463D8700D9
:060772002D30810008009B
:1007780020002230FC00F801F901FA01FB01FC031A
:100788000319F12B0310FB0CFA0CF90CF80CF30C01
:10079800F20CF10CF00C031CC32BFC030319E32B24
:1007A8007408F80775080318750FF9077608031811
:1007B800760FFA0777080318770FFB07C72B74081B
:1007C800F80775080318750FF90776080318760FE8
:0C07D800FA0777080318770FFB070800EA
:1007E4007408F8027508031C750FF9027608031CD7
:1007F400760FFA027708031C770FFB02F30D07301C
:10080400FC00730DF80DF90DFA0DFB0D7408731C43
:10081400192CF8027508031C750FF9027608031CDD
:10082400760FFA027708031C770FFB02262CF807D1
:1008340075080318750FF90776080318760FFA0779
:1008440077080318770FFB07F30DFC0B032C720DCD
:10085400F80DF90DFA0DFB0D7408731C3F2CF8020A
:100864007508031C750FF9027608031C760FFA024B
:100874007708031C770FFB024C2CF8077508031844
:10088400750FF90776080318760FFA077708031827
:10089400770FFB07F20D0730FC00720DF80DF90D10
:1008A400FA0DFB0D7408721C652CF8027508031C04
:1008B400750FF9027608031C760FFA027708031CF9
:1008C400770FFB02722CF80775080318750FF907E8
:1008D40076080318760FFA0777080318770FFB07D3
:1008E400F20DFC0B4F2C710DF80DF90DFA0DFB0DEB
:1008F4007408721C8B2CF8027508031C750FF9021E
:100904007608031C760FFA027708031C770FFB02A4
:10091400982CF80775080318750FF907760803185B
:10092400760FFA0777080318770FFB07F10D0730E6
:10093400FC00710DF80DF90DFA0DFB0D7408711C16
:10094400B12CF8027508031C750FF9027608031C14
:10095400760FFA027708031C770FFB02BE2CF80708
:1009640075080318750FF90776080318760FFA0748
:1009740077080318770FFB07F10DFC0B9B2C700D08
:10098400F80DF90DFA0DFB0D7408711CD72CF80243
:100994007508031C750FF9027608031C760FFA021A
:1009A4007708031C770FFB02E42CF807750803187B
:1009B400750FF90776080318760FFA0777080318F6
:1009C400770FFB07F00D0730FC00700DF80DF90DE3
:1009D400FA0DFB0D7408701CFD2CF8027508031C3D
:1009E400750FF9027608031C760FFA027708031CC8
:1009F400770FFB020A2DF80775080318750FF9071E
:100A040076080318760FFA0777080318770FFB07A1
:100A1400F00DFC0BE72C70181D2D7408F8077508F1
:100A24000318750FF90776080318760FFA07770885
:080A34000318770FFB0708000F
:100A3C0029003E08043A0130031D0030F1003E0845
:100A4C00053A0130031D0030F0007108F004031961
:100A5C003C2D2A004408CD004308CE004508CF00A9
:100A6C004608D0004708D100FA20962D29003E08F0
:100A7C00023A0130031D0030F1003E08033A013008
:100A8C00031D0030F0007108F0040319622D0730CB
:100A9C00F0002A004408F400B920043070072A0042
:100AAC00CD004308CE00CE354508CF004608D00017
:100ABC004708D100FA20962D2900C0012A004308CE
:100ACC00F000F035F0357008083ECD0085222A0084
:100ADC004408CD00852201302900C0002A00C8013D
:100AEC00470848020318962D480845078400003033
:100AFC00463D85000008F1007108CD00CD36CD369D
:100B0C00CD36CD3685222A004808450784000030B2
:100B1C00463D85000008CD0085222A00C80A762DA6
:020B2C000800BF
:100B2E00833021009D052A004308F000F035F03592
:100B3E00700821009D0438239D149D1CA72DA42D03
:100B4E001C08F100F0011B08F0040030F10408004D
:100B5E000330FC009530FD00FD0BB32DFC0BB32DC7
:020B6E0008007D
:060B7000FB15FF30080038
:100B76007C18F12DFC18C22D7C19102EBB2DA1015D
:100B86007208031DE22D7108F2007008F100780862
:100B9600F000F801A1157208031DE22D7108F2009C
:100BA6007008F100F001A11121167208031DE22D53
:100BB6007108F200F101A11572080319042E21082B
:100BC600F302031D031C082E0310F21BF12DF80D72
:100BD600F00DF10DF20DF30BE82D082E7B1B701CAA
:100BE6000C2EF81F0C2EF00A0319F10A0319F20A4B
:100BF600031D0C2EF20CF10CF00CF30A0319102E47
:100C06000C2E0130FC00D922132E0230FC00E0220B
:100C1600132E0430FC00EA20132E0830FC00EE20D0
:040C260000000800C2
:100C2A00A1017208031D2A2E7108F2007008F10052
:100C3A00F001A1157208031D2A2E7108F200F101B4
:100C4A00A111211672080319382E2108F302031D77
:100C5A00031C3C2E0310F21B402EF00DF10DF20D79
:100C6A00F30B302E3C2E0130FC00D922432E0230E9
:0E0C7A00FC00E022432E0430FC00EA200800BB
:100C88007B14FB1F4F2EF201FA1FFF30F200F10018
:0A0C9800F000FA0DF20CFF30080026
:100CA200200072087606A100F801F90173087702A4
:100CB200031C732E7708FD007308F7007D08F3000C
:100CC2007608FD007208F6007D08F2007508FD0046
:100CD2007108F5007D08F1007408FD007008F40049
:100CE2007D08F00077080319EC2E7208FA00F2175B
:100CF200F61777087302F7000319A62E0830770259
:100D0200031C9C2EF7007408F9007508F40076089D
:100D1200F500F60108307702031C9C2EF7007408D8
:100D2200F9007508F400F50108307702031C9C2EC7
:100D32007A08F200EC2E77080319A62E0310F60C9F
:100D4200F50CF40CF90CF70B9F2EA11FB32EF90929
:100D5200F409F509F609F90A0319F40A0319F50A5F
:100D62000319F60A7908F80774080318740FF007D4
:100D720075080318750FF10776080318760FF20746
:100D8200A11BCC2E031CDC2EF20CF10CF00CF80C87
:100D9200F30FDC2EE82E0318E02EF809F009F10912
:100DA200F209F80A0319F00A0319F10A0319F20AFF
:100DB2008030FA06E42E0130FC00BB25EE2E023014
:100DC200FC00BB25EE2E0430FC001526EE2E08306A
:0E0DD200FC00EE20EE2E0030FC0000000800B9
:100DE0002A00C2013E08F1000130F0007108031929
:100DF000FC2EF035FF3EF72E7008C1003C08840041
:100E00003D08850070080005F10071080130031DE0
:100E10000030F0004008F0060319282F3F08003C7E
:100E20000318162FAF25AF25BF030E2F3C088400F3
:100E30003D08850041080005F10071080130031DDF
:100E40000030F0004008F0060319282FFF30C200E0
:060E50004208F00008005A
:100E5600710DF80DF90D7408F8027508031C750F6D
:100E6600F902F00DF10D0F30FC00710DF80DF90DC2
:100E76007408701C442FF8027508031C750FF902DC
:100E8600492FF80775080318750FF907F00DF10DCE
:100E9600FC0B382F7018552F7408F80775080318BF
:080EA600750FF90700000800B8
:100EAE002000FB017308031D77080319AD2F72088C
:100EBE007606FA007708F3077E30031C6A2FF302DA
:100ECE000318B02F6D2FF302031CB32F7208F80016
:100EDE007108FC007008FD00F817F6170310F201F8
:100EEE00F101F0011830A1007D1C872F7408F00766
:100EFE0075080318750FF10776080318760FF207B9
:100F0E00F20CF10CF00CF80CFC0CFD0C0310A10B08
:100F1E007B2FF21B972FF80DF00DF10DF20DF30351
:100F2E007B1B701CA92FF81FA92FF00A0319F10AB9
:100F3E000319F20A031DA92FF20CF10CF00CF30A9F
:100F4E000319B02FFA1FF2130030B52F0130D9223A
:100F5E00B52F0230EE20B52F0430E022000008003D
:100F6E0020007008F8007108F0007208F100730894
:100F7E00F200F301FB01FC019E30F300FA01F21FB7
:100F8E00D42FF809F009F109F209F80A0319F00A49
:100F9E000319F10A0319F20AFA170230FC00BB25F5
:020FAE00080039
:100FB00020007008F800FB01FC019E30F300FA01EC
:0E0FC000F201F101F0010230FC00BB25080037
:100FCE0029006F18ED2F22000E10EF2F22000E14A5
:100FDE0029004C082A00BC0029004D082A00BD003B
:080FEE0088316F2580310800F5
:1010000064002800DD01DE0126004A1C0C282800AF
:101010006308DD076408DE3D2600CA1C142828008A
:101020006108DD076208DE3D26004A1D1C282800F5
:101030005F08DD076008DE3D2600CA1D2428280061
:101040005908DD075A08DE3D26004A1E2C282800D4
:101050005708DD075808DE3D2600CA1E3428280040
:101060005508DD075608DE3D26004A1F3C282800AB
:101070005B08DD075C08DE3D28008030273AF00081
:1010800080305E067002031D47285D080F3C031880
:10109000692832305D07F00000305E3DF1007008D5
:1010A000DD007108DE0070082A00C3007108C4006A
:1010B000AF30C5000430C600803149238831290093
:1010C0003008A8003108A9002E30AA003208AB0071
:1010D000962828005D082A00C30028005E082A0020
:1010E000C400AF30C5000430C600803149238831C8
:1010F00029003108203A031980283108A8008228E5
:101100003030A8002E30A9003208203A03198B286D
:101110003208AA008D283030AA003308203A03197B
:1011200094283308AB0096283030AB004E08043AC0
:101130000130031D0030F1004E08053A0130031D57
:101140000030F0007108F0040319DC2826004C0878
:10115000013A031DAF2804302A00BC00B2282A003F
:101160000630BC003C08C3001030C4002830C50065
:101170000030C6000230C70080311E2588312A00A9
:101180003C08C3005830C4002530C5000030C600FC
:101190000230C70080311E2588312A003C08C30078
:1011A0002830C400A830C5000430C6000430C70091
:1011B00080311E2588315B2929004E08023A013012
:1011C000031D0030F1004E08033A0130031D0030CA
:1011D000F0007108F0040319222926004C08013A96
:1011E000031DF5282A00BC01F8282A000130BC00A4
:1011F0003C08C3000930C4002230C5000030C600DE
:101200000230C70080311E2588312A003C08C30007
:101210000F30C4004030C5000030C6000230C700A7
:1012200080311E2588312A003C08C3000B30C400E1
:10123000A830C5000430C6000430C70080311E2528
:1012400088315B2929004E08013A031D5B292600DD
:101250004C08013A031D2F292A00BC0132292A001B
:101260000130BC003C08C3000930C4005430C50044
:101270000030C6000230C70080311E2588312A00A8
:101280003C08C3000F30C4005230C5000030C60017
:101290000130C70080311E2588312A003C08C30078
:1012A0000B30C400A830C5000430C6000430C700AD
:1012B00080311E25883164002800DD01DE01260012
:1012C000491C672928006908DD076A08DE3D2600F9
:1012D000C91C6F2928006B08DD076C08DE3D26005D
:1012E000491D7A29290022082800DD072900230842
:1012F0002800DE3D2600C91D852929002008280078
:10130000DD07290021082800DE3D2600491E8D2921
:1013100028006D08DD076E08DE3D2600C91E9529F0
:1013200028006708DD076808DE3D2600491F9D2963
:1013300028006508DD076608DE3D28005D082A00F4
:10134000C30028005E082A00C400AF30C500043086
:10135000C60080314923883129003108A8003208AD
:10136000A9003308AA003408AB004E08043A013043
:10137000031D0030F1004E08053A0130031D003016
:10138000F0007108F0040319FB2926004C08013A0B
:10139000031DCE2906302A00BC00D1292A000430C2
:1013A000BC003C08C3001030C4004330C50000300E
:1013B000C6000230C70080311E2588312A003C0853
:1013C000C3005830C4004630C5000030C6000230AB
:1013D000C70080311E2588312A003C08C300283010
:1013E000C400A830C5000430C6000430C7008031F6
:1013F0001E2588317A2A29004E08023A0130031D41
:101400000030F1004E08033A0130031D0030F000B7
:101410007108F0040319412A26004C08013A031D03
:10142000152A01302A00BC00172A2A00BC013C08FA
:10143000C3000930C4004F30C5000030C600023080
:10144000C70080311E2588312A003C08C3000F30B8
:10145000C4004C30C5000030C6000230C7008031E7
:101460001E2588312A003C08C3000B30C400A83078
:10147000C5000430C6000430C70080311E25883105
:101480007A2A29004E08013A031D7A2A26004C08C0
:10149000013A031D4F2A01302A00BC00512A2A00BC
:1014A000BC013C08C3000930C4004930C50000300D
:1014B000C6000230C70080311E2588312A003C0852
:1014C000C3000F30C4006030C5000130C6000130D9
:1014D000C70080311E2588312A003C08C3000B302C
:1014E000C400A830C5000430C6000430C7008031F5
:0814F0001E258831640008008C
:1014F8002000FB01FA01F9018030F800F10CF00C32
:10150800031C8F2A7408F90775080318750FFA0762
:101518000318FB0A0310F01F972A7408FA077508C6
:101528000318750FFB07FB0CFA0CF90CF80C031CDD
:10153800822A7B08F3007A08F2007908F10078081B
:04154800F0000800A7
:10154C002000FB0173080319E22A7208FA00F21753
:10155C008E30F302F31FE52AF309F30A0830730205
:10156C00031CC82AF300F10D7208F100F2010830D7
:10157C007302031CC82AF300F10DF1017308031D5B
:10158C000310D02A73080319D02A0310F20CF10CA3
:10159C00F30BCB2A7B1B711CDA2A031CDA2AF10A07
:1015AC000319F20AF21BF12AFA1FF42AF209F109C3
:1015BC00F10A0319F20AF42AF201F101F42A7B145C
:1015CC00FB1FF72AF201FA1FF72AFF30F200F10095
:1015DC00FA0DF20CF72A0130FC00F92A0030FC005D
:1015EC00F92AFF30FC00FC080319FF2A803144263D
:0C15FC0088317108F0007208F10008004E
:101608007408003A031D1D2B7508003A031D1D2B95
:101618007608003A031D1D2B7708003A031D1D2B81
:10162800FF30F000FF30F1007F30F200FF30F300B0
:10163800BF2B200077080319AB2B73080319B02BB5
:10164800720876068039FA00F217F617A1017208B7
:10165800F8007108FC007008FD007408FD027508A8
:10166800031C750FFC027608031C760FF802F801BC
:10167800FC01FD01031C472B0310F20CF10CF00CCC
:10168800F80C0130A1007708F302031C512B7E30BF
:101698002107F3070318B52B562B7E302107F307D4
:1016A800031CBA2B1830FA07FD0DFC0DF80DF00DD0
:1016B800F10DF20DA10D7408F0027508031C750FE9
:1016C800F1027608031C760FF202760DA104211CA4
:1016D8006F2B7D147A2B7408F00775080318750FA3
:1016E800F10776080318760AF2077D10FA031F300F
:1016F8007A05031D582B7B1B7D1CA12B0310F00DB5
:10170800F10DF20DA10D7408F0027508031C750F98
:10171800F1027608031C760FF202760D21040139D6
:10172800FD070318FC0A0319F80A031DA12BF80C7E
:10173800FC0CFD0CF30A0319B52BFA1FF8137808F3
:10174800F2007C08F1007D08F0000030BE2B01306B
:101758008031B8258831BE2B02308031D9228831BA
:10176800BE2B04308031EE208831BE2B083080310A
:08177800E022883100000800A6
:10178000813022009700171BC62BC32B2A00C301F0
:1017900080319725883170082A00BC007108BD008F
:1017A0008030033AF200803071067202031DDA2B9A
:1017B0007008E83C031CE12B3C08F0003D08F100F8
:1017C000202C823022009700171BE72BE42B2A00E5
:1017D000C30180319725883170082A00BC00710848
:1017E000BD008030033AF200803071067202031DA2
:1017F000FB2B7008E83C031C042C3C08F0003D085F
:10180000F100F035F10D202C833022009700171BDA
:101810000A2C072C2A00C3018031972588317008D3
:101820002A00BC007108BD007008F2007108F300C6
:10183000F235F30DF235F30D7208F0007308F10084
:0218400008009E
:10184200813022009700171B272C242C01302A00FC
:10185200C30080319725883170082A00BC007108C6
:10186200BD008030033AF200803071067202031D1F
:101872003C2C7008E83C031C462C2700B3012A00CC
:101882003C08F0003D08F100992C823022009700BC
:10189200171B4C2C492C01302A00C300803197259C
:1018A200883170082A00BC007108BD008030033AFC
:1018B200F200803071067202031D612C7008E83C50
:1018C200031C6D2C2700B3012A003C08F0003D08E0
:1018D200F100F035F10D992C833022009700171B8F
:1018E200732C702C01302A00C30080319725883177
:1018F20070082A00BC007108BD008030033AF20073
:10190200803071067202031D882C7008E83C0318AF
:101912008E2C01302700B300902C2700B3012A003F
:101922003C08F0003D08F100F035F10DF035F10D05
:021932000800AB
:101934007408003A031DB32C7508003A031DB32C38
:101944007608003A031DB32C7708003A031DB32C24
:10195400FF30F000FF30F100FF30F2007F30F30081
:101964004F2D2000FC01F71BFC0AFD01FB01FA01CD
:10197400F901F80173087204710470040319482D05
:1019840073087706A000A01BFD09F71FD42CF409E7
:10199400F509F609F709F40A0319F50A0319F60A11
:1019A4000319F70AF31FE12CF009F109F209F3090D
:1019B400F00A0319F10A0319F20A0319F30A730866
:1019C4007704A000A01B042D8031F2238831FC1B76
:1019D400212DFD1F482DF009F109F209F309F00A40
:1019E4000319F10A0319F20A0319F30AF809F909A8
:1019F400FA09FB09F80A0319F90A0319FA0A03197F
:101A0400FB0A482DF71F1B2DF31B152D7308FB0034
:101A14007208FA007108F9007008F800F301F20185
:101A2400F101F001EB2CF301F201F101F001F00AF4
:101A34000034F309F209F109F009FC17E62CF80A5D
:101A44000319F90A0319FA0A0319FB0A740878023C
:101A5400031DEB2C75087902031DEB2C76087A0222
:101A6400031DEB2C77087B02031DEB2CFB01FA0111
:101A7400F901F801F00A0319F10A0319F20A03192A
:101A8400F30AF31FEB2CA0012016FF34A0017C1CE9
:0C1A94004E2D80313D238831003E0800BB
:101AA00020007008F8007108F000F101F201F30164
:101AB000FB01FC019630F300FA01F01F652DF809D7
:101AC000F009F80A0319F00AFA177008F10078080B
:0E1AD000F000F801F20180311526883108007F
:101ADE00A0302A00BE000F30BF00C001C101A030EF
:101AEE00F0000F30F1000030F2000030F3003C083F
:101AFE00F4003D08F500F601F7018031BC23883172
:101B0E0070082A00BE007108BF007208C00073087A
:101B1E00C10000307302031D9E2D00307202031DA2
:101B2E009E2D02307102031D9E2DB23070020318DD
:101B3E00A12DD02DB230BE020230BF3B0030C03BD3
:101B4E00C13B0530F00070080319B32DC136C00C2F
:101B5E00BF0CBE0CFF3EAB2D3E08F0003F08F1005F
:101B6E004008F2004108F3000130BE020030BF3BD6
:101B7E00C03BC13B70087104720473040319D02D6D
:101B8E000000000000000000000000000000000047
:041B9E00B32D08005B
:101BA20080313E208831290037082A00DC0080314C
:101BB2000320883180302A00DC0080310320883104
:101BC2002A003C08DC008031032088318031D1209A
:041BD200883108004E
:101BD6008030F00080302A003D067002031DF52D8E
:101BE6003C08503C031CFA2DF001F101CD2E80304B
:101BF600F00080303D067002031D032E3C08AB3C0E
:101C0600031C0A2EF430BC070030BD3DC92E8030BF
:101C1600013AF00080303D067002031D142E3C0888
:101C2600483C031C1B2EFE30BC070030BD3DC92EB0
:101C36008030023AF00080303D067002031D252EEA
:101C46003C08463C031C2C2E1830BC070130BD3D19
:101C5600C92E8030033AF00080303D067002031D25
:101C6600362E3C08343C031C3D2E2930BC0701307F
:101C7600BD3DC92E8030043AF00080303D0670022A
:101C8600031D472E3C084C3C031C4E2E3630BC0729
:101C96000130BD3DC92E8030083AF00080303D0647
:101CA6007002031D582E3C08853C031C5F2EAE3087
:101CB600BC070130BD3DC92E80300C3AF0008030A3
:101CC6003D067002031D692E3C08FA3C031C702E6B
:101CD600E430BC070130BD3DC92E8030123AF00019
:101CE60080303D067002031D7A2E3C080F3C031C13
:101CF600812E1230BC070230BD3DC92E8030163A07
:101D0600F00080303D067002031D8B2E3C08E63C39
:101D1600031C922E8830BC070230BD3DC92E803090
:101D26001B3AF00080303D067002031D9C2E3C08D5
:101D3600EA3C031CA32EE730BC070230BD3DC92E8A
:101D46008030213AF00080303D067002031DAD2E32
:101D56003C08363C031CB42E2030BC070330BD3D86
:101D6600C92E8030293AF00080303D067002031DEE
:101D7600BE2E3C08043C031CC52E4830BC0703306D
:101D8600BD3DC92E5C30BC070330BD3D3C08F000AC
:061D96003D08F100080009
:101D9C002000FA017308031D7A147708031DFA1446
:101DAC007A080319192F033A0319E42E7A18E12E35
:101DBC00F61F172F152FF21F152F172F72088039AA
:101DCC00FA00F21376088039F6137A060319F22E0C
:101DDC007A080319152F172F770873020319F92E98
:101DEC00031C0D2F112F760872020319002F031CF0
:101DFC000D2F112F750871020319072F031C0D2FBE
:101E0C00112F740870020319192F0318112FFA08D7
:101E1C000319172F152FFA080319152F172F031451
:0E1E2C00080003100800031403150800080046
:101E3A0026005108003A031D5B2F29006F18282F2E
:101E4A0022008D112A2F22008D152900EF18302F1C
:101E5A0022000C11322F22000C1529006F19382F7D
:101E6A0022000D123A2F22000D162900EF19402FD9
:101E7A0022008C11422F22008C1529006F1A482F3C
:101E8A0022008D124A2F22008D162900EF1A502F98
:101E9A0022008C12522F22008C1629006F1B582FF9
:101EAA0022000C125A2F22000C16932F29006F18A9
:101EBA00612F22008D15632F22008D112900EF1842
:101ECA00692F22000C156B2F22000C1129006F19A3
:101EDA00712F22000D16732F22000D122900EF19FF
:101EEA00792F22008C157B2F22008C1129006F1A62
:101EFA00812F22008D16832F22008D122900EF1ABE
:101F0A00892F22008C168B2F22008C1229006F1B1E
:101F1A00912F22000C16932F22000C1229004C0834
:101F2A002A00BC0029004D082A00BD006F250800C0
:101F3A0029003E08013C0318A72FAF302A00BC0035
:101F4A00D125B92F29003E08013A031DB92F0130C6
:101F5A00C100C0012A00CD018031852288312A00C2
:0A1F6A00CD01803185228831080086
:101F74000D302A00BC000030BD00BE011930BF0086
:101F8400C0018031F026883170082900EF000D303F
:101F94002A00BC000030BD000130BE001930BF0073
:101FA400C0018031F026883170082900EF040D301B
:101FB4002A00BC000030BD000230BE001930BF0052
:101FC400C0018031F026883129006F08F00403191C
:0A1FD400EE2F01302700B9000800CD
:101FDE0097302900BA000530BB004330BC000530F5
:0E1FEE00BD00F03021009E009D011D14080072
:102000007408003A031D0D287508003A031D0D28B9
:10201000FF30F0007F30F10067282000FD01F9015A
:10202000F801710870040319003471087506FA008C
:10203000FA1BFD09FB01F51F2228F409F509F40A32
:102040000319F50AF11F2928F009F109F00A03190B
:10205000F10A71087504FA00FA1B3E2880312B271B
:1020600090317B185328FD1F0034F009F109F00A64
:102070000319F10AF809F909F80A0319F90A0034F1
:10208000F51F4F28F11B4B287108F9007008F80064
:10209000F101F0013328F101F001F00A0034F109F7
:1020A000F009FB0A3028F80A0319F90A74087802C3
:1020B000031D332875087902031D3328F901F8013F
:1020C000F00A0319F10AF11F33280000FF34080059
:1020D00029006F186E2822008E13702822008E1798
:1020E0002900EF18762822008E11782822008E15FC
:1020F00029006F197E2822000E13802822000E1757
:102100002900EF19862822000E11882822000E15BA
:1021100029006F1A8E2822008E12902822008E1617
:102120002900EF1A962822008E10982822008E147B
:1021300029006F1B9E2822000E12A02822000E16D6
:1021400029004C082A00BC0029004D082A00BD00C7
:0821500088316F259031080071
:1021580000302A00A8000030A9004830AA008530C5
:10216800AB00640020005A08003A0130031D00301B
:10217800F1006F08013A0130031D0030F0007008CB
:10218800F10580302A002106F00080307002031D1E
:10219800CF280A3020020130031C0030F0007108FB
:1021A800F0050319952926004B08003A031D9129CB
:1021B80029004E08043A0130031D0030F1004E0892
:1021C800053A0130031D0030F0007108F0040319CE
:1021D8001E2927003608013A031D012904302A0068
:1021E800C3001030C4005D30C5000030C6000830A0
:1021F800C70080311E2590310F2904302A00C30002
:102208001030C400A930C5000030C6000830C7002F
:1022180080311E25903106302A00C3001030C400DA
:10222800A030C5000030C6000830C70080311E2528
:102238009031912929004E08023A0130031D0030DF
:10224800F1004E08033A0130031D0030F000710818
:10225800F00403195E2927003608013A031D4229B4
:102268002A00C3010930C4006630C5000030C6002A
:102278000830C70080311E2590314F292A00C3013C
:102288000930C400D630C5000030C6000830C70089
:1022980080311E25903101302A00C3000930C40066
:1022A8004F30C5000130C6000830C70080311E25F8
:1022B8009031912929004E08013A031D91292700E0
:1022C8003608013A031D76292A00C3010930C400E3
:1022D8004730C5000130C6000730C70080311E25D1
:1022E800903183292A00C3010930C4003F30C5005A
:1022F8000130C6000730C70080311E2590310130FB
:102308002A00C3000930C4005830C5000130C60097
:102318000730C70080311E25903101302600CB00E0
:102328009F2926004B08013A031D9D29883100206A
:1023380090312600CB0164002A00210826004E06B1
:10234800031DA9294D082A00200603198C2D2A00EF
:1023580020082600CD002A0021082600CE002700EC
:102368003608003A031D072A80302A002106F000AB
:1023780080307002031DC22964302002031CE32947
:1023880005302007F0000030213DF1007008A00062
:102398007108A1007008C3007108C400AF30C500FF
:1023A8000430C60080314923903129003108A80043
:1023B8003208A9003308AA005730AB00062A2A00C1
:1023C8002008C3002108C400AF30C5000430C6008F
:1023D80080314923903129003308203A0319F7291D
:1023E8003308A800F9293030A8002E30A900340895
:1023F800203A0319022A3408AA00042A3030AA0015
:102408005730AB003E2A80302A002106F000803089
:10241800033A7002031D122AE73020020318292A02
:102428002008C3002108C400AF30C5000430C6002E
:1024380080314923903129003208A8003308A900C7
:102448003408AA005730AB003E2A2A002008C300EF
:102458002108C400AF30C5000430C60080314923CC
:10246800903129003108A8003208A9003308AA00D1
:102478003408AB004E08043A0130031D0030F10067
:102488004E08053A0130031D0030F0007108F004D1
:1024980003195C2A2A00C3014030C400A830C500D3
:1024A8000430C6000430C70080311E2590316E2AE2
:1024B80029004E08003A03196E2A2A00C301043085
:1024C800C400A830C5000430C6000430C7008031FD
:1024D8001E259031640026004B08013A031D8C2DFF
:1024E8004A08003A0130031D0030F1004908003A5B
:1024F8000130031D0030F0007108F00503198C2A23
:102508002A0022082900A6002A0023082900A7007B
:1025180029002608F0002708F1008831502590315D
:1025280070082A00B4007108B5007208B600730874
:10253800B7000030F4000030F5004830F600853070
:10254800F7003408F0003508F1003608F2003708C3
:10255800F30088310423903170082A00B000710814
:10256800B1007208B2007308B3003408F4003508EB
:10257800F5003608F6003708F7000030F0000030A4
:10258800F1004830F2008530F3008831042390319F
:102598002A003008F4003108F5003208F600330844
:1025A800F70080315126903170082A00B000710878
:1025B800B1007208B2007308B30028006F08F00079
:1025C8008031D82790312A003008F4003108F5000E
:1025D8003208F6003308F700803157279031003071
:1025E800F4000030F5002030F6008230F700883122
:1025F800042390311F30F4008530F5006B30F6006D
:102608007B30F7008031572790310030F4000030DC
:10261800F5000030F6007F30F70080315126903108
:102628007008F4007108F5007208F6007308F700E6
:102638000030F0000030F1000030F2007F30F3008D
:1026480088310423903170082A00B8007108B90055
:102658007208BA007308BB003808A8003908A90036
:102668003A08AA003B08AB002208F0002308F10052
:1026780088315025903170082A00B4007108B500DF
:102688007208B6007308B7000030F4000030F50097
:102698004830F6008530F7003408F0003508F100BE
:1026A8003608F2003708F3008831042390310030EF
:1026B800F4000030F5000030F6008030F70080317B
:1026C8005126903170082A00B0007108B1007208D4
:1026D800B2007308B3003408F4003508F500360872
:1026E800F6003708F7000030F0000030F1004830FD
:1026F800F2008530F3008831042390312A00300835
:10270800F4003108F5003208F6003308F70080318C
:10271800512690317008F4007108F5007208F6002F
:102728007308F7000030F0000030F1000030F200CC
:102738008130F30088310423903170082A00AC00FE
:102748007108AD007208AE007308AF000030F400E5
:102758000030F5000030F6007F30F7003808F00050
:102768003908F1003A08F2003B08F3008831CE2618
:1027780090310130031C0030F00070080319CD2B94
:1027880000302A00A8000030A9000030AA007F30DD
:10279800AB002A000030F4000030F5000030F600ED
:1027A8007F30F7002C08F0002D08F1002E08F20009
:1027B8002F08F3008831CE2690310130031C0030F9
:1027C800F00070080319F12B00302A00AC0000302B
:1027D800AD000030AE007F30AF002A002008F000C6
:1027E8002108F1008831502590312A002808F4008A
:1027F8002908F5002A08F6002B08F700803157272A
:1028080090312A002C08F4002D08F5002E08F60057
:102818002F08F7008031572790318831A622903150
:1028280070082A00A4007108A5002808F0002908EB
:10283800F1002A08F2002B08F3002C08F4002D08F8
:10284800F5002E08F6002F08F70080315727903141
:102858000030F4000030F5004830F6008530F7000D
:102868008031572790318831A622903170082A008C
:10287800A6007108A70080307106F200803072024D
:10288800031D482C64307002031C4E2C6330A600D4
:102898000030A70027003608003A031DA22C80301C
:1028A8002A002506F00080307002031D5D2C64307C
:1028B8002402031C7E2C05302407F0000030253D3F
:1028C800F1007008A4007108A5007008C300710821
:1028D800C400AF30C5000430C600803149239031B0
:1028E80029003108A8003208A9003308AA00573087
:1028F800AB00A12C2A002408C3002508C400AF306F
:10290800C5000430C60080314923903129003308BE
:10291800203A0319922C3308A800942C3030A800D0
:102928002E30A9003408203A03199D2C3408AA0037
:102938009F2C3030AA005730AB00D92C80302A00A9
:102948002506F0008030033A7002031DAD2CE730F5
:1029580024020318C42C2408C3002508C400AF307F
:10296800C5000430C600803149239031290032085F
:10297800A8003308A9003408AA005730AB00D92CA6
:102988002A002408C3002508C400AF30C50004305D
:10299800C60080314923903129003108A800320847
:1029A800A9003308AA003408AB004E08043A0130E5
:1029B800031D0030F1004E08053A0130031D0030B8
:1029C800F0007108F0040319F82C04302A00C30041
:1029D8004030C400A830C5000430C6000430C70029
:1029E80080311E259031292D29004E08023A0130E8
:1029F800031D0030F1004E08033A0130031D00307A
:102A0800F0007108F0040319172D2A00C3010D30D6
:102A1800C400A830C5000430C6000430C7008031A7
:102A28001E259031292D29004E08003A0319292D19
:102A38002A00C3010C30C400A830C5000430C60009
:102A48000430C70080311E2590312A002608C300B3
:102A58002708C400AF30C5000430C60080314923C0
:102A6800903129003308A8003408A9004E08043A18
:102A78000130031D0030F1004E08053A0130031DF6
:102A88000030F0007108F0040319592D06302A00AF
:102A9800C3004C30C400A830C5000430C600023062
:102AA800C70080311E2590318C2D29004E08023A2E
:102AB8000130031D0030F1004E08033A0130031DB8
:102AC8000030F0007108F0040319792D01302A0054
:102AD800C3000E30C400A830C5000430C600023060
:102AE800C70080311E2590318C2D29004E08013AEF
:102AF800031D8C2D01302A00C3000D30C400A830FE
:102B0800C5000430C6000230C70080311E25903150
:042B1800640008004D
:102B1C0064002A00210826005006031D982D4F083A
:102B2C002A00200603195B2E2A0020082600CF005D
:102B3C002A0021082600D00000302A002106031D9F
:102B4C00A92D00302006031DEB2D29004E08043A58
:102B5C000130031D0030F1004E08053A0130031D11
:102B6C000030F0007108F0040319CB2D02302A005C
:102B7C00C3004030C400E530C5000030C60004304E
:102B8C00C70080311E259031E72D29004E08003AF0
:102B9C000319DF2D01302A00C3000430C400E030DB
:102BAC00C5000030C6000430C70080311E259031AE
:102BBC00E72D29004E08003A031DE72D22000D17C2
:102BCC008D172600CF01D0015B2E2A002008C300F0
:102BDC002108C400AF30C5000430C6008031492341
:102BEC00903129003208A8002E30A9003308AA0021
:102BFC003408AB004E08043A0130031D0030F100DC
:102C0C004E08053A0130031D0030F0007108F00445
:102C1C0003191F2E02302A00C3004030C400A83014
:102C2C00C5000430C6000430C70080311E25903129
:102C3C005B2E29004E08003A0319332E01302A006E
:102C4C00C3000430C400A830C5000430C6000430F2
:102C5C00C70080311E2590315B2E29004E08003AAA
:102C6C00031D5B2E8030F00080302A00210670029C
:102C7C00031D422E2008963C031C482E22000D13E7
:102C8C008D175B2E8030F00080302A0021067002F8
:102C9C00031D522E2008FA3C031C582E20000D1345
:0E2CAC008D135B2E20000D178D1364000800A1
:102CBA0064008831212490317008A0007108A100B5
:102CCA000030A11BFF30A200A3008831C02390313D
:102CDA007008A4007108A5000030A51BFF30A600EB
:102CEA00A70028004D08013A031D9C2E2A0020083F
:102CFA00F0002108F1000330F4000030F5008831BB
:102D0A007C22903170082A00BC007108BD0088310D
:102D1A00EB25903188315025903170082A00A8009F
:102D2A007108A9007208AA007308AB00B92E2A001C
:102D3A002008F0002108F1002208F2002308F3001D
:102D4A000330F400F501F601F7018031BC2390311C
:102D5A008031B727903170082A00A8007108A900AD
:102D6A007208AA007308AB0080302706F000803092
:102D7A0023067002031DCB2E22082602031DCB2E2A
:102D8A0021082502031DCB2E20082402031CD42E61
:102D9A00E730A0000330A100A201A3011E2F2408DE
:102DAA002007F0002508213DF1002608223DF20007
:102DBA002708233DF3006430F400F501F601F7011A
:102DCA008031BC2390312A002008F4002108F50044
:102DDA002208F6002308F7002408F4022508F53B28
:102DEA002608F63B2708F73B88319A249031700869
:102DFA002A00A0007108A1007208A2007308A300AB
:102E0A008030F400803073067402031D162F720896
:102E1A00003C031D162F7108033C031D162F700872
:102E2A00E73C03181E2FE730A0000330A100A201DF
:102E3A00A30127003408F0008031D82790312A00F6
:102E4A002808F4002908F5002A08F6002B08F700DC
:102E5A008031572790310030F4000030F5007A3085
:102E6A00F6008830F70088310423903170082A0070
:102E7A00A8007108A9007208AA007308AB00F43010
:102E8A00F400FD30F5003430F6007F30F700883169
:102E9A000423903170082A00A8007108A90072085A
:102EAA00AA007308AB0027003608013A031D862FD3
:102EBA002A002808F0002908F1002A08F2002B0845
:102ECA00F3002808F4002908F5002A08F6002B0860
:102EDA00F7008031572790310030F4000030F500B8
:102EEA004830F6008430F7008831042390317008A6
:102EFA002A00A8007108A9007208AA007308AB008A
:102F0A00AE2F2A002808F0002908F1002A08F2004A
:102F1A002B08F3002808F4002908F5002A08F6000F
:102F2A002B08F7008031572790310030F400003029
:102F3A00F5002030F6008130F70088310423903103
:102F4A0070082A00A8007108A9007208AA0073086C
:102F5A00AB002808F0002908F1002A08F2002B0823
:102F6A00F3000030F4000030F5000030F6007E3047
:102F7A00F70080315126903170082A00A8007108A4
:102F8A00A9007208AA007308AB008831A622903102
:102F9A0070082900CA007108CB0080302A00230675
:102FAA00F00080307002031DE42F00302202031D5E
:102FBA00E42F00302102031DE42F6430200203189D
:102FCA00EC2FE7302900C8000330C900F42F2A008B
:102FDA0020082900C8002A0021082900C900080081
:102FEA002900540823009100920195131513151412
:062FFA001308F0000800BE
:103000002900ED01EE0164304F02E8000030503B32
:10301000E900CA01CB01640026006D08003A0130C6
:10302000031D0030F10027003208013A0130031D72
:103030000030F0007108F0050319622890315D2618
:10304000983180304B06F00080307002031D2A2832
:103050000A304A02031C612826004A082900EF00B2
:1030600088311D279831260049082900EF0090314A
:103070006820983126004C082900EF008031E727AE
:10308000983101302600ED0088319D2798312700C6
:103090004408F0008031D827983127005708F40001
:1030A0005808F5005908F6005A08F70080315727EC
:1030B00098318831A622983170082600EE007108F8
:1030C000EF00062C78302900EA00E7016A08670261
:1030D0000318BF2820008D186F28761470287610EA
:1030E0000D19742803147528031076187B2803180B
:1030F0007B28F6107C28F61420000D188128031474
:1031000082280310031C89282900511C8928761461
:103110008A287610F618902876189028031091289F
:103120000314031C9D288831BA27983127003908D9
:10313000013A031D9D28B901062C90315D26983176
:1031400080306E06F00080304B067002031DAA2806
:103150004A086D020318B4284A08ED004B08EE0037
:103160004808EB004908EC001030FC009430FD00EA
:10317000FD0BB828FC0BB8280000E70A662864009D
:1031800080306E06F00080307002031DC928643064
:103190006D02031CE92805306D07F00000306E3D1C
:1031A000F1000A30F4000030F50090310020983131
:1031B00070082900ED007108EE000A30F4000030BC
:1031C000F50088317C22983170082900ED007108E3
:1031D000EE006D082700B70029006E082700B80030
:1031E000803029006E06F00080307002031DFA283E
:1031F0000A306D020318FE28EB01EC016B082A006F
:10320000A00029006C082A00A10090318E25983179
:10321000803027003806F10080307102031D12292A
:103220000A3037020130031C0030F1004408003C32
:10323000013003180030F0007108F005031944292B
:1032400026006D08003A031D2A290130ED0088315F
:103250009D27983127004408F0008031D827983105
:1032600027005708F4005808F5005908F6005A08D6
:10327000F7008031572798318831A622983170089D
:103280002600EE007108EF00803029006C06F00087
:10329000803050067002031D4F294F086B02013029
:1032A000031C0030F000700827003A05F50080305C
:1032B00026004806F300803029006C067302031DC7
:1032C00064296B08260047022600013003180030ED
:1032D000F300470829006B02F10026004808290086
:1032E0006C3BF20080306906F0008030720670029C
:1032F000031D7C2971086802013003180030F000BA
:1033000070087305F40080306C06F30080302600EE
:1033100048067302031D8F29470829006B02290004
:10332000013003180030F3006B0826004702F1005B
:1033300029006C082600483BF2008030290069060D
:10334000F000803072067002031DA829710868021F
:10335000013003180030F0007308F00570087404A1
:10336000F10026004808033A031DB829E730470654
:103370000130031D0030F0007108F0047508F005FD
:103380000319C52901302700B50020008D18CA296E
:103390007614CB2976100D19CF290314D0290310E8
:1033A0007618D6290318D629F610D729F614200046
:1033B0000D18DC290314DD290310031CE42929005E
:1033C000511CE4297614E5297610F618EB297618B5
:1033D000EB290310EC290314031CF8298831BA27C0
:1033E000983127003908013A031DF829B901062C44
:1033F000270037082A00A000270038082A00A1006B
:1034000029006B082A00A20029006C082A00A300EA
:103410009031AC20983120008D18102A7614112A92
:1034200076100D19152A0314162A031076181C2A73
:1034300003181C2AF6101D2AF61420000D18222A43
:103440000314232A0310031C2A2A2900511C2A2AA8
:1034500076142B2A7610F618312A7618312A0310A2
:10346000322A0314031C3E2A8831BA2798312700D8
:103470003908013A031D3E2AB901062C27006400D1
:103480003308013A031D062C29004E08043A013086
:10349000031D0030F1004E08053A0130031D0030D5
:1034A000F0007108F0040319272B02302A00C30032
:1034B0001030C400C530C5000330C6000830C70056
:1034C00080311E2598310330FB000830FC00773036
:1034D000FD00FD0B692AFC0B692AFB0B692A0230EF
:1034E0002A00C3001030C400A930C5000330C60054
:1034F0000830C70080311E2598310B30FB00263084
:10350000FC005D30FD00FD0B832AFC0B832AFB0BC6
:10351000832A00000000640002302A00C30010303B
:10352000C400E430C5000330C6000830C700803155
:103530001E2598310730FB001730FC006A30FD0073
:10354000FD0BA02AFC0BA02AFB0BA02A00006400A4
:1035500002302A00C3001030C400DB30C500033045
:10356000C6000830C70080311E2598310B30FB00A3
:103570002630FC005D30FD00FD0BBC2AFC0BBC2A94
:10358000FB0BBC2A00000000640002302A00C300CC
:103590001030C4003B30C5000430C6000830C700FE
:1035A00080311E2598310730FB001730FC006A304F
:1035B000FD00FD0BD92AFC0BD92AFB0BD92A0000F0
:1035C000640002302A00C3001030C4003230C5004D
:1035D0000430C6000830C70080311E2598310B30FA
:1035E000FB002630FC005D30FD00FD0BF52AFC0BD6
:1035F000F52AFB0BF52A00000000640002302A00C7
:10360000C3001030C4004430C5000430C600083088
:10361000C70080311E2598310330FB000830FC00C4
:103620007730FD00FD0B122BFC0B122BFB0B122B2A
:1036300002302A00C3001030C4002030C50004301E
:10364000C6000830C70080311E259831F52B2900AF
:103650004E08003A0319F52B01302A00C300C401BB
:103660002930C5000430C6000830C70080311E254F
:1036700098310330FB000830FC007730FD00FD0B73
:103680003F2BFC0B3F2BFB0B3F2B01302A00C300D1
:10369000C401BB30C5000330C6000830C70080310C
:1036A0001E2598310B30FB002630FC005D30FD00FC
:1036B000FD0B582BFC0B582BFB0B582B000000006C
:1036C000640001302A00C300C401CE30C5000330BD
:1036D000C6000830C70080311E2598310730FB0036
:1036E0001730FC006A30FD00FD0B742BFC0B742BB3
:1036F000FB0B742B0000640001302A00C300C401DE
:103700003E30C5000330C6000830C70080311E259A
:1037100098310B30FB002630FC005D30FD00FD0BC6
:103720008F2BFC0B8F2BFB0B8F2B000000006400FA
:1037300001302A00C300C401C430C5000030C600F7
:103740000830C70080311E2598310730FB00173044
:10375000FC006A30FD00FD0BAB2BFC0BAB2BFB0B15
:10376000AB2B0000640001302A00C300C401BB3051
:10377000C5000030C6000830C70080311E259831D2
:103780000B30FB002630FC005D30FD00FD0BC62B2E
:10379000FC0BC62BFB0BC62B0000000064000130A5
:1037A0002A00C300C401B230C5000030C600083092
:1037B000C70080311E2598310330FB000830FC0023
:1037C0007730FD00FD0BE22BFC0BE22BFB0BE22B19
:1037D00001302A00C300C401CD30C5000030C6004E
:1037E0000830C70080311E25983164001030260053
:1037F000CF002730D00029006B082A00A000290044
:0E3800006C082A00A10090318E259831080036
:10380E00290067082300910092012900680823000F
:10381E0093001513951315150B08F0008B135530E7
:10382E009600AA3096009514F01B1F2C8B13202C9B
:0C383E008B171511951C242C212C080060
:10384A002600CA01C9012900EF0188311D279831D4
:10385A00260049082900EF00903168209831290094
:10386A004C082A00BC0029004D082A00BD008831F6
:06387A006F2598310800E3
:10388000252401302600CC0001302900EF008031D2
:10389000E7279831FF302900E700E8010724FE30D0
:1038A0002900E700E8010724FD302900E700013086
:1038B000E8000724FC302900E700E8010724FB307A
:1038C0002900E700E801072488310020983126000C
:1038D000CB0122008C130C172900C801C901CA01B1
:1038E000CB012600C701C80129004E08043A013067
:1038F000031D0030F1004E08053A0130031D003071
:10390000F0007108F0040319B22C02302A00C30041
:103910001030C4005230C5000330C6000830C70064
:1039200080311E25983164000D30FB002D30FC00E5
:10393000D730FD00FD0B9A2CFC0B9A2CFB0B9A2C1C
:103940000000000002302A00C3001030C4005B30C9
:10395000C5000330C6000830C70080311E259831ED
:103960006400E52C29004E08003A0319E22C0130CE
:103970002A00C300C401A030C5000330C6000830CF
:10398000C70080311E25983164000D30FB002D30BA
:10399000FC00D730FD00FD0BCB2CFC0BCB2CFB0B24
:1039A000CB2C0000000001302A00C300C4016430A9
:1039B000C5000330C6000830C70080311E2598318D
:1039C0006400E52C22000D178D1710302600CF0063
:1039D0002730D0001030CD002730CE000020080066
:1039E00090315D26983125006E08643A03190B2D3D
:1039F000EE0A803029004306F00080304B0670024A
:103A0000031D042D4A08420203180A2D4A08C20069
:103A10004B08C300232D2500EE01290042082A008F
:103A2000A000290043082A00A100290048082A0014
:103A3000A200290049082A00A3009031AC20983147
:103A40002900C201C30180304B06F20080304506D8
:103A50007202031D2D2D44084A0201300318003064
:103A6000F20080304706F10080304B067102031DE2
:103A70003B2D4A084602013003180030F100803027
:103A8000F000803047067002031D482D4608003CB8
:103A9000013003180030F0007108F0057208F004DE
:103AA0000319B82D640090315D26983125006E0809
:103AB000643A03196E2DEE0A803029004306F000A7
:103AC00080304B067002031D672D4A08420203181E
:103AD0006D2D4A08C2004B08C300862D2500EE015B
:103AE000290042082A00A000290043082A00A1005A
:103AF000290048082A00A200290049082A00A3003A
:103B00009031AC2098312900C201C3010D302A0048
:103B1000BC000030BD00BE010530BF000130C00058
:103B20008031F026983170080319992D0130250055
:103B3000EF0025006F08013A0130031D0030290015
:103B4000E6000D302A00BC000030BD00BE0105308B
:103B5000BF00C0018031F026983129006608F005C9
:103B60000319B72D40242900C801C901B82D232D00
:023B700008004B
:103B720003302900E5002600C9012900EF01903138
:103B820068209831290065082500EB00F0240030F8
:103B92004906031DCE2D00304806031DD12D752E7A
:103BA2001430F4000030F5004808F0004908F10034
:103BB200903100209831700829004807E30071080D
:103BC200493DE4006508E20062081F3C031C6E2EBA
:103BD2006208F00025006D08F4008031B9209831A8
:103BE20070082900EF00903168209831F0240030ED
:103BF2004906031DFE2D00304806031D012E752EB9
:103C020080304906F000803064067002031D0B2EDE
:103C12006308480203186C2E1430F4000030F500DB
:103C22004808F0004908F1009031002098317008EE
:103C320029004807E3007108493DE4006208F000EA
:103C420025006D08F4008031B920983170082600F3
:103C5200C900290065082500EB00803029004906CB
:103C6200F00080307002031D382E783048020318AD
:103C72003B2E6E2E65086207F2007208E2002500F4
:103C82006C08003A0130031D0030F1007208093A55
:103C92000130031D0030F0007108F0050319552EA4
:103CA20008302900E2006B2E25006C08003A013032
:103CB200031D0030F10029006208113A0130031D92
:103CC2000030F0007108F00503196B2E1030E2008D
:103CD2000430E5006D2E6E2EE52D260049082900E0
:0A3CE200EF009031682098310800CF
:103CEC0024006F08F00025006908F4008031B92029
:103CFC00983170082900DC00700826004A07F4008F
:103D0C0074082900DE000530F20025006908F00077
:103D1C00F10172080319962EF035F10DFF3E902E2D
:103D2C0001307002F2000030713BF30080307306FA
:103D3C00F00080307002031DA52E74087202031867
:103D4C00B32E0530F00069082900DE007008031955
:103D5C00B22EDE35FF3EAD2EDE0326004A082900CA
:103D6C005C020318BF2E5C0826004A022900DF0003
:103D7C00C02EDF015F082600CA0029005F08EF0093
:103D8C0088311D279831F02400304906031DD02EB0
:103D9C0000304806031DD32E4B2F4808E00049087D
:103DAC00E1002500690829005F07DD005D085E025F
:103DBC00031C442F5D08EF0088311D279831F02437
:103DCC0000304906031DEC2E00304806031DEF2E73
:103DDC004B2F80304906F000803061067002031DC5
:103DEC00F92E60084802031C062F3430FC00F13019
:103DFC00FD00FD0BFF2EFC0BFF2E00000000F0243D
:103E0C0080304906F000803061067002031D102FCF
:103E1C0060084802031C1D2F3430FC00F130FD00FB
:103E2C00FD0B162FFC0B162F00000000F024803029
:103E3C004906F000803061067002031D272F6008D0
:103E4C00480203183E2F4808E0004908E1005D08CD
:103E5C002600CA00803029004906F000803070022C
:103E6C00031D3A2F7830480203183D2F442F3F2F63
:103E7C00442F250069082900DD07DC2E26004A089E
:0C3E8C002900EF0088311D279831080044
:103E98002000F8010830FC00700DF80D7408F802D5
:103EA8000318582FF8070310F00DFC0B502F0800CB
:103EB80029005408F000F036F036F036F0360A30B3
:103EC800F4008031B92098310F3029005405F100F1
:063ED8007108F00708006C
:103EDE0029003E08013C03187B2FAE302A00BC009F
:103EEE008831D12598318C2F29003E08013A031DC7
:103EFE008C2FC101C0012A00CD018031852298315D
:0C3F0E002A00CD01803185229831080086
:103F1A002900D3015208093C0318AC2F0A30F400D7
:103F2A005208F0004C2770082900D3007008D3000B
:103F3A00D335D335D335D3350A30F4005208F000DF
:103F4A004C277808F00070082900D304AE2F5208D5
:083F5A00D3005308F000080039
:103F620028006F082A00C300C401AF30C500043026
:103F7200C6008031492398310A3028006F02031CA1
:103F8200C62F29003308A800C92F29003030A80005
:103F92002E30A9003408AA004E08043A0130031D4D
:103FA2000030F1004E08053A0130031D0030F000E8
:103FB2007108F0040319EC2F04302A00C300063004
:103FC200C400A830C5000430C6000330C7008031E9
:103FD2001E259831FE2F29004E08003A0319FE2FA4
:103FE20001302A00C300C401A830C5000430C60055
:0C3FF2000330C70080311E259831080004
:1040000025006B08F0006D08F4008031B920A03164
:1040100070082900DC00700826004907F4007408C5
:104020002900DE000530F20025006D08F000F101E6
:10403000720803191F28F035F10DFF3E19280130D1
:104040007002F2000030713BF30080307306F00024
:1040500080307002031D2E287408720203183C2859
:104060000530F0006D082900DE00700803193B28B8
:10407000DE35FF3E3628DE032600490829005C02B3
:10408000031848285C08260049022900DF00492857
:10409000DF015F082600C90029005F08EF009031AA
:1040A0006820A0319831F024A03100304906031D6A
:1040B0005B2800304806031D5E28DC284808E00025
:1040C0004908E10025006D0829005F07DD005D0853
:1040D0005E02031CD5285D08EF0090316820A031F6
:1040E0009831F024A03100304906031D79280030B2
:1040F0004806031D7C28DC2880304906F00080300B
:1041000061067002031D862860084802031C95287A
:104110003430FC00F130FD00FD0B8C28FC0B8C28AA
:10412000000000009831F024A03180304906F000F2
:10413000803061067002031D9F2860084802031C3E
:10414000AE283430FC00F130FD00FD0BA528FC0B3F
:10415000A528000000009831F024A03180304906E5
:10416000F000803061067002031DB8286008480224
:104170000318CF284808E0004908E1005D08260040
:10418000C900803029004906F00080307002031D0C
:10419000CB28783048020318CE28D528D028D52837
:1041A00025006D082900DD07672826004908290039
:0A41B000EF0090316820A0310800F4
:1041BA0003302900E100DD0161082400EF0003302B
:1041CA002900DE001430F4000030F5004808F00041
:1041DA004908F10090310020A031700829004807F1
:1041EA00DF007108493DE000DC015C081F3C031C4C
:1041FA008D295C08F00025006908F4008031B92097
:10420A00A03170082900EF0088311D27A0319831AC
:10421A00B925A0319831F024A03100304906031D98
:10422A00182900304806031D1B29AB29803049068E
:10423A00F000803060067002031D25295F084802DD
:10424A0003188B291430F4000030F5004808F000F8
:10425A004908F10090310020A03170082900480770
:10426A00DF007108493DE0005C08F000250069089C
:10427A00F4008031B920A03170082600CA0049082C
:10428A002900DD0061082400EF0025006B082900E1
:10429A00DE0080304906F00080307002031D572985
:1042AA007830480203185A298D2961085C07F20000
:1042BA007208DC0025006A08003A0130031D00304C
:1042CA00F1007208093A0130031D0030F00071084C
:1042DA00F0050319742908302900DC008A29250011
:1042EA006A08003A0130031D0030F10029005C0819
:1042FA00113A0130031D0030F0007108F00503196E
:10430A008A291030DC000430E1008C298D29FA2832
:10431A005D082600C9004A082900EF0088311D27D8
:10432A00A031260049082900EF0090316820A03109
:10433A0029005E082500EB003430FC00F130FD0056
:0E434A00FD0BA529FC0BA529000000000800B2
:1043580029004808D6004908D700DD200030290088
:104368004906031DB92900304806031DBF299831A5
:104378002524A0310C2B9831F024A0318030490637
:10438800F00080307002031DCB29783048020318F2
:10439800CE290C2B98317626A03100302900490609
:1043A800031DD82900304806031DDE29983125242D
:1043B800A0310C2B9831F024A03180304906F00050
:1043C80080307002031DEA29783048020318ED296D
:1043D8000C2B0020003029004906031DF529003068
:1043E8004806031DFB2998312524A0310C2B983150
:1043F800F024A03180304906F00080307002031D9F
:10440800072A7830480203180A2A0C2B80304906FC
:10441800F10080307102031D132AC83048020130B0
:1044280003180030F10080304906F000803057064C
:104438007002031D212A5608480201300318003073
:10444800F00070087105F30048085602F1004908A9
:10445800573BF2008030F000803072067002031D76
:10446800372A7108643C013003180030F0007308E3
:10447800F0050319402A0C2B4808D6004908D70034
:1044880026004A082900D800D90126004908290031
:10449800DA00DB0126004C08013A031D552ACC013D
:1044A800572A0130CC0098312524A03126004C0829
:1044B8002900EF008031E727A0310230FB000430EB
:1044C800FC00BA30FD00FD0B672AFC0B672AFB0BCA
:1044D800672A00009831F024A03180304906F000A6
:1044E80080307002031D7A2A7830480203187D2A2A
:1044F8000C2BDD20003029004906031D852A0030D9
:104508004806031D8B2A98312524A0310C2B98319D
:10451800F024A03180304906F00080307002031D7D
:10452800972A7830480203189A2A0C2B9831762655
:10453800A031003029004906031DA42A003048068E
:10454800031DAA2A98312524A0310C2B9831F02478
:10455800A03180304906F00080307002031DB62A71
:10456800783048020318B92A0C2B002000302900A3
:104578004906031DC12A00304806031DC72A983181
:104588002524A0310C2B9831F024A0318030490625
:10459800F00080307002031DD32A783048020318D7
:1045A800D62A0C2B80305706F0008030490670025E
:1045B800031DE02A4808560203180B2B26004C0856
:1045C800013A031DE92ACC01EB2A0130CC004C0842
:1045D8002900EF008031E727A0312900580826007C
:1045E800CA0029005A082600C90029005808EF0007
:1045F80088311D27A031260049082900EF00903195
:104608006820A03129005608C8005708C90064006E
:02461800080098
:10461A0064002500EE012900C201C3012500EF0153
:10462A009831F024A03180304906F00080307002C1
:10463A00031D212B6E3048020318242BF72B9831C7
:10464A002524A03120006F08003A031D2F2B883142
:10465A000020A0310230FB000430FC00BA30FD001B
:10466A00FD0B352BFC0B352BFB0B352B0000983142
:10467A00F024A0314808A6004908A700803049065E
:10468A00F00080307002031D4C2B6E304802031874
:10469A004F2BF72B8030F100803025067102031D65
:1046AA00582B24086E3C013003180030F10080308A
:1046BA002506F000803049067002031D662B480863
:1046CA002402013003180030F0007108F0050319C4
:1046DA006F2BF72BAC21003029004906031D772BDD
:1046EA0000304806031D7D2B98312524A031F72B75
:1046FA00803029004906F00080307002031D872BA4
:10470A007830480203188A2BF72B20005C08053AF8
:10471A000130031D0030F1005B08053A0130031D2A
:10472A000030F0007108F00503199C2BF72B5B0889
:10473A00053C0318AA2B250069082400EF00013064
:10474A002500E90098317626A031803029004906F3
:10475A00F00080307002031DB42B78304802031831
:10476A00B72BF72B20005C08053C0318C22B250049
:10477A006D08EB000130ED00002020005B08053ACF
:10478A00031DCB2B01302500E900DC2B20005B0840
:10479A00063A031DD42B02302500E900DC2B200049
:1047AA005B08073A031DDC2B04302500E9002000D2
:1047BA005C08053A031DE52B01302500ED00F62BB8
:1047CA0020005C08063A031DEE2B02302500ED009E
:1047DA00F62B20005C08073A031DF62B043025004F
:0647EA00ED006400080070
:1047F00080313E20A031290037082A00DC008031BA
:104800000320A0312A00DC0180310320A031AE302A
:104810002A00DC0080310320A03129003E08023A42
:104820000130031D0030F1003E08033A0130031D42
:104830000030F0007108F0040319D42CD5302A00A0
:10484000DC0080310320A03180302A00DC00803180
:104850000320A031A8302A00DC0080310320A031E1
:104860003F302A00DC0080310320A031D3302A0001
:10487000DC0080310320A03129003E08023A031DEC
:10488000482C36082A00DC0080310320A031502C4F
:10489000290036081F3E2A00DC0080310320A031A9
:1048A00040302A00DC0080310320A0318D302A0006
:1048B000DC0080310320A03114302A00DC0080317C
:1048C0000320A03181302A00DC0080310320A03198
:1048D000B4302A00DC0080310320A031D9302A0016
:1048E000DC0080310320A03122302A00DC0080313E
:1048F0000320A03120302A00DC0080310320A031C9
:1049000002302A00DC0080310320A03121302A004F
:10491000DC0080310320A0312A00DC01803103203B
:10492000A0317F302A00DC0080310320A0312E30FE
:104930002A00DC0080310320A03129003E08023A21
:10494000031DAF2CA0302A00DC0080310320A031F1
:10495000C0302A00DC0080310320A031BB2CA13004
:104960002A00DC0080310320A031C8302A00DC009E
:1049700080310320A031DA302A00DC0080310320AE
:10498000A03102302A00DC0080310320A031DB306E
:104990002A00DC0080310320A03140302A00DC00F6
:1049A00080310320A0317C2DD5302A00DC008031FD
:1049B0000320A03180302A00DC0080310320A031A8
:1049C000A8302A00DC0080310320A0313F302A00CB
:1049D000DC0080310320A031D3302A00DC0080319C
:1049E0000320A031290036082A00DC008031032092
:1049F000A03140302A00DC0080310320A0318D300E
:104A00002A00DC0080310320A03114302A00DC00B1
:104A100080310320A03181302A00DC008031032066
:104A2000A031FF302A00DC0080310320A031D930D2
:104A30002A00DC0080310320A031F1302A00DC00A4
:104A400080310320A03120302A00DC008031032097
:104A5000A03102302A00DC0080310320A031213057
:104A60002A00DC0080310320A0312A00DC018031E3
:104A70000320A0317F302A00DC0080310320A031E8
:104A80002E302A00DC0080310320A03129003E08AE
:104A9000043A031D582DA0302A00DC008031032089
:104AA000A031C0302A00DC0080310320A031642D09
:104AB000A1302A00DC0080310320A031C8302A0058
:104AC000DC0080310320A031DA302A00DC008031A4
:104AD0000320A03112302A00DC0080310320A031F5
:104AE000DB302A00DC0080310320A03140302A0076
:104AF000DC0080310320A031A4302A00DC008031AA
:104B00000320A031A6302A00DC0080310320A03130
:104B10008031D120A0310330FB000830FC00773019
:104B2000FD00FD0B912DFC0B912DFB0B912D803188
:104B30003E20A031290037082A00DC008031032004
:104B4000A03140302A00DC0080310320A031290050
:104B50003E08023A0130031D0030F1003E08033ADE
:104B60000130031D0030F0007108F0040319D62D48
:104B7000D5015508033C031CD52D55082A00D70044
:104B8000D80180315D20A0312900D4012900803076
:104B900054020318D22DD40A2A00DC0180310320EC
:104BA000A031C62D2900D50AB92DF32DD501550800
:104BB000073C031CF32D55082A00D700D80180318B
:104BC0005D20A0312900D40129008030540203184F
:104BD000F02DD40A2A00DC0180310320A031E42D1D
:104BE0002900D50AD72D8031D120A031AF302A003D
:0A4BF000BC008831D125A031080077
:104BFA00640029004E08043A0130031D0030F10018
:104C0A004E08053A0130031D0030F0007108F00427
:104C1A0003191E2E02302A00C3004030C400DA30C5
:104C2A00C5000230C6000430C70080311E25A031FD
:104C3A00352E29004E08003A0319322E01302A0077
:104C4A00C3000430C4006A30C5000230C600043014
:104C5A00C70080311E25A031352E22000D178D1771
:104C6A000D2329004E08003A031D5E2E8030F00005
:104C7A00803049067002031D442E4808963C031CE6
:104C8A004A2E22000D138D175D2E8030F0008030E1
:104C9A00290049067002031D542E4808FA3C031CD9
:104CAA005A2E20000D138D135D2E20000D178D1323
:104CBA00732E26004B08003A0130031D0030F10024
:104CCA0020006F08003A0130031D0030F00071081F
:104CDA00F0040319732E88310020A031FF30290017
:104CEA00E700260049082900E80098310724A03186
:104CFA00FE302900E70026004A082900E80098311A
:104D0A000724A031FD302900E70026004C082900BD
:104D1A00E80098310724A031FC302900E700003070
:104D2A00F4000130F5002608F0002708F100903160
:104D3A000020A03170082900E80098310724A0312A
:104D4A00FB302900E7000030F4000130F5002608A6
:104D5A00F0002708F10090310020A0317808F00017
:104D6A007908F10070082900E80098310724A03179
:104D7A0010302600CF002730D0001030CD00273069
:104D8A00CE0098310020A031290048082600C7002B
:104D9A00290049082600C80022008C130C17640059
:024DAA000800FF
:104DAC0029004E08043A0130031D0030F1004E0872
:104DBC00053A0130031D0030F0007108F0040319AE
:104DCC00F52E2A00C3010A30C400A930C5000130F9
:104DDC00C6000930C70080311E25A031072F2900DD
:104DEC004E08003A0319072F2A00C3010330C400F0
:104DFC00C730C5000130C6000930C70080311E2500
:104E0C00A03164000B30FB002630FC005D30FD004F
:104E1C00FD0B0E2FFC0B0E2FFB0B0E2F00000000BA
:104E2C0064000B30FB002630FC005D30FD00FD0BF8
:104E3C001D2FFC0B1D2FFB0B1D2F00000000640011
:104E4C000B30FB002630FC005D30FD00FD0B2C2FE1
:104E5C00FC0B2C2FFB0B2C2F0000000064000B30E4
:104E6C00FB002630FC005D30FD00FD0B3B2FFC0BE6
:104E7C003B2FFB0B3B2F00000000640029004E0869
:104E8C00043A0130031D0030F1004E08053A0130A0
:104E9C00031D0030F0007108F0040319632F2A0081
:104EAC00C3010A30C400BD30C5000130C600093052
:104EBC00C70080311E25A031752F29004E08003AFD
:104ECC000319752F2A00C3010330C400B330C50089
:104EDC000130C6000930C70080311E25A031983141
:104EEC002524A03101302600CC0001302900EF0030
:104EFC008031E727A031FF302900E7002600490860
:104F0C002900E80098310724A031FE302900E70081
:104F1C0026004A082900E80098310724A031FD300A
:104F2C002900E70026004C082900E80098310724E6
:104F3C00A03129004E08043A0130031D0030F10065
:104F4C004E08053A0130031D0030F0007108F004E2
:104F5C000319BE2F2A00C3017030C4006D30C50088
:104F6C000130C6000130C70080311E25A031D02F82
:104F7C0029004E08003A0319D02F2A00C30108302B
:104F8C00C400EC30C5000130C6000130C7008031D0
:104F9C001E25A03101302000AB00A8310020A0312B
:024FAC000800FB
:104FAE002900D4019031F527A03170082900B700EF
:104FBE000130D4009031F527A03170082900BE00D1
:104FCE007008003A031DF22F21000D138D132200DD
:104FDE000D178D17F82F21000D178D1722000D13A9
:044FEE008D13080017
:10500000640029004E08043A0130031D0030F1000D
:105010004E08053A0130031D0030F0007108F0041D
:105020000319F22820002B08003A031DA4282A00A7
:10503000C3011630C400E130C5000230C60007309D
:10504000C70080311E25A83102302A00C300063077
:10505000C4003430C5000330C6000930C7008031B9
:105060001E25A83104302A00C3001030C4002B30A4
:10507000C5000330C6000830C70080311E25A831A6
:1050800006302A00C3000430C4002030C5000330BD
:10509000C6000A30C70080311E25A83164000D30DB
:1050A000FB002D30FC00D730FD00FD0B5528FC0B1C
:1050B0005528FB0B55280000000064000B30FB0056
:1050C0002630FC005D30FD00FD0B6428FC0B6428DD
:1050D000FB0B64280000000064002A00C3011030AC
:1050E000C400AB30C5000230C6000830C7008031B4
:1050F0001E25A83102302A00C3000430C400A030AD
:10510000C5000230C6000A30C70080311E25A83114
:1051100004302A00C3001030C4006130C5000230E2
:10512000C6000830C70080311E25A83106302A008D
:10513000C3000430C400B430C5000230C6000A30D9
:10514000C70080311E25A8310430FB000C30FC0064
:105150003330FD00FD0BAA28FC0BAA28FB0BAA2864
:105160000000000027003608013A031DC5282A0068
:10517000C3011030C400D130C5000230C600083071
:10518000C70080311E25A831D2282A00C301103063
:10519000C400C830C5000230C6000830C7008031E6
:1051A0001E25A83102302A00C3001030C400BF30D1
:1051B000C5000230C6000830C70080311E25A83166
:1051C00027003A080319F1282A00C3017030C400EF
:1051D000EE30C5000130C6000130C70080311E2509
:1051E000A831D32929004E08003A0319D3292000F9
:1051F0002B08003A031D89292A00C3010430C4008A
:10520000E430C5000130C6000730C70080311E25DC
:10521000A83101302A00C3000330C400DA30C500D1
:105220000130C6000930C70080311E25A831640056
:105230000F30FB003530FC005130FD00FD0B1E2906
:10524000FC0B1E29FB0B1E2964000B30FB002630D3
:10525000FC005D30FD00FD0B2B29FC0B2B29FB0B0B
:105260002B290000000064002A00C3010430C400A0
:10527000D130C5000130C6000830C70080311E257E
:10528000A83101302A00C3000330C4002030C5001B
:105290000230C6000A30C70080311E25A8316400E4
:1052A0000D30FB002D30FC00D730FD00FD0B5629E2
:1052B000FC0B5629FB0B56290000000064000B3044
:1052C000FB002630FC005D30FD00FD0B6529FC0B6A
:1052D0006529FB0B65290000000064002A00C3015A
:1052E0000430C4003F30C5000230C6000830C7009B
:1052F00080311E25A83101302A00C3000330C400CC
:105300003430C5000230C6000A30C70080311E2587
:10531000A8310430FB000C30FC003330FD00FD0BE5
:105320008F29FC0B8F29FB0B8F2900000000270021
:105330003608013A031DA9292A00C301C4012B30F4
:10534000C5000230C6000830C70080311E25A831D4
:10535000B5292A00C301C401A030C5000130C60030
:105360000830C70080311E25A83101302A00C30053
:10537000C4016430C5000130C6000830C700803168
:105380001E25A83127003A080319D3292A00C30192
:105390000830C4006230C5000130C6000130C700CB
:1053A00080311E25A831640088310020A831080012
:1053B00007302900D4009031F527A8317008290062
:1053C000B6000830D4009031F527A83170082900C4
:1053D000B9003E08013C0318F129A031F823A83197
:1053E000642A29003E08013A031D642A0130C100E5
:1053F000C00103302A00CD0080318522A8311A3047
:10540000FC00F830FD00FD0B032AFC0B032A000012
:1054100003302A00CD0080318522A8310630FC00FF
:105420003030FD00FD0B122AFC0B122A0000033065
:105430002A00CD0080318522A83102302A00CD001B
:1054400080318522A83102302A00CD0080318522AA
:10545000A83108302A00CD0080318522A8312A00E9
:10546000CD0180318522A83108302A00CD0080315D
:105470008522A8312A00CD0180318522A831013052
:105480002A00CD0080318522A8311A30FC00F83086
:10549000FD00FD0B492AFC0B492A00002A00CD0122
:1054A00080318522A83106302A00CD008031852246
:1054B000A8312A00CD0180318522A8310C302A0084
:0A54C000CD0080318522A8310800DC
:1054CA000D302A00BC000030BD00BE013230BF00E2
:1054DA00C0018031F026A831700803191D2B06304F
:1054EA00FB001330FC00AD30FD00FD0B7A2AFC0BEB
:1054FA007A2AFB0B7A2A00000000640020000D1CA7
:10550A00992A26004C08003A031D8E2A0130CC0045
:10551A008F2ACC014C082900EF008031E727A831F7
:10552A0088310020A831092B28005008013A031DB0
:10553A00A02AD001A22A0130D0005008013A031D46
:10554A00D82A29004E08043A0130031D0030F10020
:10555A004E08053A0130031D0030F0007108F004CE
:10556A000319C52A2A00C3017030C4004E30C50091
:10557A000430C6000130C70080311E25A831D72A61
:10558A0029004E08003A0319D72A2A00C301083015
:10559A00C4005330C5000430C6000130C700803152
:1055AA001E25A831092B29004E08043A0130031D93
:1055BA000030F1004E08053A0130031D0030F000BA
:1055CA007108F0040319F72A2A00C3017030C400D5
:1055DA005130C5000430C6000130C70080311E2595
:1055EA00A831092B29004E08003A0319092B2A0071
:1055FA00C3010830C400EE30C5000330C6000130D4
:10560A00C70080311E25A8310D302A00BC000030A9
:10561A00BD00BE013230BF00C0018031F026A83182
:10562A00700803191D2B98310020A8316400092B3A
:10563A000D302A00BC000030BD000230BE003230FE
:10564A00BF00C0018031F026A83170080319A32BCE
:10565A00640020000D19A32B0530F200250069080B
:10566A00F000F101720803193E2BF035F10DFF3EEF
:10567A00382B01307002F2000030713BF3008030A9
:10568A00F000803073067002031D4E2B720826004C
:10569A004A02013003180030F00028005008F005D3
:1056AA000319602B2600CA0A4A082900EF0088312C
:1056BA001D27A831932B280050080130031D003004
:1056CA00F4000530F20025006908F000F1017208C3
:1056DA000319732BF035F10DFF3E6D2B013070026B
:1056EA00F2000030713BF3008030F0008030730626
:1056FA007002031D832B7208260049020130031829
:10570A000030F0007408F0050319932B2600C90A2B
:10571A0049082900EF0090316820A831883100201B
:10572A00A83198310020A8319C30FC00D730FD0008
:10573A00FD0B9D2BFC0B9D2B64002E2B0D302A009C
:10574A00BC000030BD000130BE003230BF00C001D5
:10575A008031F026A83127006D08003A0130031D78
:10576A000030F1007108F0050319FC2B64002000D9
:10577A008D18FC2B26004A08003C01300318003023
:10578A00F00028005008F0050319D42B2600CA039C
:10579A004A082900EF0088311D27A831EC2B280080
:1057AA0050080130031D0030F10026004908003C72
:1057BA00013003180030F0007108F0050319EC2BD2
:1057CA00C90349082900EF0090316820A8318831BF
:1057DA000020A83198310020A8319C30FC00D73035
:1057EA00FD00FD0BF62BFC0BF62B6400BC2B08000E
:1057FA006400210097121716971117159710640065
:10580A0023008C010C148C148D0122009113931324
:10581A0078302100990020008C018D018E014030E2
:10582A0022008C008D018E01033021008C0007308C
:10583A008D008E018831EF27A8311E149E1495130E
:0C584A0024000D148D140D158B130800A4
:1058560012001E00F003031D2B2CF103031D2B2C3D
:02586600080038
:1058680029005118392C74143A2C74100D302A0060
:10587800BC000030BD00BE013230BF000130C000A6
:105888008031F026A831F1017418F10A7108F00589
:105898000319502C2900511429005118552C74143F
:1058A800562C74100D302A00BC000030BD00BE011B
:1058B8003230BF00C0018031F026A831F1017418E0
:1058C800F10A7108F0050319832C27004408F00039
:1058D8008031D827A83127005708F4005808F50068
:1058E8005908F6005A08F70080315727A83188313F
:1058F800A622A83170082600EE007108EF000D30CE
:105908002A00BC000030BD00BE013230BF00C0011B
:105918008031F026A831F10129005118F10A7108E7
:10592800F00527003508F0040319F92C88319D2764
:10593800A83127004408F0008031D827A831270073
:105948005708F4005808F5005908F6005A08F700F7
:1059580080315727A8318831A622A831700826003F
:10596800EE007108EF000630FB001330FC00AD308C
:10597800FD00FD0BBD2CFC0BBD2CFB0BBD2C000052
:105988000000640027003508003A0130031D00308C
:10599800F10020000D18D22C0310D32C0314F001B1
:1059A8000318F00A7108F0050319E02C9831402417
:1059B800A8312700ED01F92C22008C170C130630B2
:1059C800FB001330FC00AD30FD00FD0BE92CFC0B97
:1059D800E92CFB0BE92C00000000A031FD25A831C3
:1059E8002700ED01B501290051100D302A00BC0037
:1059F8000030BD000230BE003230BF00C00180312F
:105A0800F026A831700803193D2E88319D27A8314A
:105A180027004408F0008031D827A831270057080C
:105A2800F4005808F5005908F6005A08F7008031C4
:105A38005727A8318831A622A83170082600EE0021
:105A48007108EF00640027006D08003A031D682DF7
:105A58000130ED00260049082400D70026004A0836
