:1000000020EF26F00000000000EF00F000000000EC
:100010000000000000000000F3D7FFFF0B840BAED0
:1000200019EF00F0010E036E026A016A006A0A36D7
:100030000232FF0E12000AAE029E000E1200026A89
:10004000016A006A086A036A000E12000201E651A2
:10005000000A32E0016A015007081CE3030148BFAF
:1000600002D0939E01D0938E060E0D6E0D2EFED7FC
:100070000000938C060E0D6E0D2EFED70000939C93
:10008000060E0D6E03010D2EFDD700004837489176
:10009000012AE1D7938E060E0D6E0D2EFED70000BD
:1000A000938C060E0D6E0D2EFED70000939C060E4F
:1000B0000D6E0D2EFED7000012000201E651000A5F
:1000C00018E0938C060E0D6E0D2EFED70000938E59
:1000D000060E0D6E0D2EFED70000939E060E0D6EC1
:1000E0000D2EFED70000939C060E0D6E0D2EFED732
:1000F000000012000201E25103014425476FDDDFD9
:10010000E6C248F3A3DF0301486BA0DF03014351BC
:10011000B00F486F9BDF030147510F0804E347C34B
:1001200045F3466B19D047C302F00232029E0232F9
:10013000029E0232029E0232029E02C046F302C0BA
:1001400000F0003600900036009000360090003637
:1001500000900050475D456F45C348F377DF0301CA
:100160004651100F486F72DFA8DFE6C248F36EDF1A
:10017000400E0301486F6ADF12000B800BAEC9EF1F
:1001800000F0026A0AAEFF0E026E016E006E0A36C1
:100190000232FF0E12001D0E0D6E0D2EFED7120044
:1001A0000C6A0E6A0250D8A4E9EF00F001C002F018
:1001B00000C001F0006A0E860250D8A4E9EF00F0FA
:1001C00001C002F0016A0E960E880250D8B4FBEF0F
:1001D00000F00E50035ED8A4D8A000EF01F0D89034
:1001E00002BE05EF01F0003601360236032EF0EFB5
:1001F00000F000EF01F0010E0C6E21DF08EF01F0BE
:10020000020E0C6E0BDF08EF01F0040E0C6E13DF14
:1002100012000B820BAE13EF01F003680268016855
:1002200000680A360232FF0E12000201E651000A8F
:1002300012E0939E060E0D6E0D2EFED70000938CDD
:10024000060E0D6E0D2EFED70000938E060E0D6E5F
:100250000D2EFED700001200086A096A100E0C6EFF
:100260000134083609360450085E0550D8A0053C14
:10027000095ED8B007D0045008260550D8B0053C18
:100280000926D890003601360C2EEAD712000B1E34
:100290000A1E091E081E082AD8B4092AD8B40A2A38
:1002A000D8B40B2A1200086A096A000E07620364B8
:1002B000D8EF01F0025006180A6E075003267E0E92
:1002C000D8A069EF01F0035ED8B0DCEF01F06DEF6C
:1002D00001F0035ED8A0E0EF01F0028E068E02C0AE
:1002E0000EF001C00BF000C00DF000500402F4CF7E
:1002F0000CF001500502F4CF00F0F3CF08F0040237
:10030000F3500C26F4500822000E00220D50050276
:10031000F3500C26F4500822000E00220250040272
:10032000F3500826F450002202500502016A000E24
:100330000122F3500026F45001220D500602F35022
:100340000826F4500022026A000E012202220B50FD
:100350000602F3500026F4500122000E02220E5035
:100360000602F3500126F450022202BEC0EF01F053
:1003700008360036013602360306D8B4E0EF01F045
:10038000D3EF01F0D880800E08640030000E002208
:1003900001220222D8A0D3EF01F002320132003252
:1003A000034ADCEF01F00AAE029E000EE2EF01F01C
:1003B000010E45DEE2EF01F0020E2BDFE2EF01F06D
:1003C000040E2CDE12000B6A0B86FF0E1200045086
:1003D000085E0550D8A0053C095E0650D8A0063C32
:1003E0000A5E0750D8A0073C0B5E0336070E0C6E62
:1003F0000334083609360A360B36045003A00ED0F3
:10040000085E0550D8A0053C095E0650D8A0063C01
:100410000A5E0750D8A0073C0B5E0DD00826055099
:10042000D8B0053C09260650D8B0063C0A2607502D
:10043000D8B0073C0B2603360C2EDAD70234083628
:1004400009360A360B36045003A00ED0085E05505C
:10045000D8A0053C095E0650D8A0063C0A5E0750AD
:10046000D8A0073C0B5E0DD008260550D8B0053C3F
:1004700009260650D8B0063C0A260750D8B0073CDB
:100480000B260236070E0C6E0234083609360A3681
:100490000B36045002A00ED0085E0550D8A0053CD3
:1004A000095E0650D8A0063C0A5E0750D8A0073C5B
:1004B0000B5E0DD008260550D8B0053C0926065025
:1004C000D8B0063C0A260750D8B0073C0B260236A7
:1004D0000C2EDAD70134083609360A360B360450AA
:1004E00002A00ED0085E0550D8A0053C095E06505B
:1004F000D8A0063C0A5E0750D8A0073C0B5E0DD082
:1005000008260550D8B0053C09260650D8B0063C50
:100510000A260750D8B0073C0B260136070E0C6E92
:100520000134083609360A360B36045001A00ED0C5
:10053000085E0550D8A0053C095E0650D8A0063CD0
:100540000A5E0750D8A0073C0B5E0DD00826055068
:10055000D8B0053C09260650D8B0063C0A260750FC
:10056000D8B0073C0B2601360C2EDAD700340836FB
:1005700009360A360B36045001A00ED0085E05502D
:10058000D8A0053C095E0650D8A0063C0A5E07507C
:10059000D8A0073C0B5E0DD008260550D8B0053C0E
:1005A00009260650D8B0063C0A260750D8B0073CAA
:1005B0000B260036070E0C6E0034083609360A3654
:1005C0000B36045000A00ED0085E0550D8A0053CA4
:1005D000095E0650D8A0063C0A5E0750D8A0073C2A
:1005E0000B5E0DD008260550D8B0053C09260650F4
:1005F000D8B0063C0A260750D8B0073C0B26003678
:100600000C2EDAD700B00ED0045008260550D8B012
:10061000053C09260650D8B0063C0A260750D8B03B
:10062000073C0B2612000B6A0A6A096A0050040292
:10063000F4CF09F0F3CF08F001500502F4CF0BF02E
:10064000F3CF0AF000500502F3500926F4500A22B5
:10065000E86A0B2201500402F3500926F4500A22E2
:10066000E86A0B2208C000F009C001F00AC002F0DD
:100670000BC003F012000050086E0150006E016ABA
:10068000026A036A0B6A0C6A960E036E0A6A00C05D
:1006900001F008C000F0086A026A82DD1200830ED1
:1006A000C21639C300F000360090003600900050AA
:1006B000C21271DDC282C2A201D0FDD7C4CF01F047
:1006C000006AC3500012000E01121200F6DCE6C2EE
:1006D00048F3BCDC400E0301486FB8DC3AC343F377
:1006E00039C344F307DD03013E6B3D513E5DD8B095
:1006F000B4D03E513B25E96E000E3C21EA6EEE502F
:10070000000A02E1406B09D03E513B25E96E000E24
:100710003C21EA6E200EEE5C406F3F6B3F510408B7
:10072000D8A092D0050E4003F3CF00F0F4CF01F033
:100730003F510026000E0122020E0024F66E510EDB
:100740000120F76E000EF86E000E01BEFF0EF822BB
:100750000900F5CF41F33A51020A000ED8A4010E68
:10076000016E3A51040A000ED8A4010E006E00502A
:1007700001163A51060A000ED8A4010E006E01506F
:10078000001629E041B702D0429F01D0428F41B705
:1007900002D0429D01D0428D41B502D0429B01D092
:1007A000428B41B502D0429901D0428941B302D077
:1007B000429701D0428741B302D0429501D0428591
:1007C00041B102D0429301D0428341B102D0429163
:1007D00001D0428120D041B502D0429F01D0428F4A
:1007E00041B502D0429D01D0428D41B302D0429B1F
:1007F00001D0428B41B302D0429901D0428941B12C
:1008000002D0429701D0428741B102D0429501D037
:1008100042854293429142C348F318DC0201DD5104
:10082000040A010ED8A4000E016EDD51050A010E66
:10083000D8A4000E006E0150001203E042C348F33A
:1008400005DC03013F2B6AD7486B00DC0301486BD2
:1008500026EC00F003013E2B48D73A51010F436FBD
:1008600039C344F347DC03013E6B3D513E5DD8B0D4
:10087000BFD03E513B25E96E000E3C21EA6EEE50A2
:10088000000A02E1406B09D03E513B25E96E000EA3
:100890003C21EA6E200EEE5C406F3F6B3F51040836
:1008A000D8A09CD0050E4003F3CF00F0F4CF01F0A8
:1008B0003F510026000E0122020E0024F66E510E5A
:1008C0000120F76E000EF86E000E01BEFF0EF8223A
:1008D0000900F5CF41F33A51020A000ED8A4010EE7
:1008E000016E3A51040A000ED8A4010E006E0050A9
:1008F00001163A51060A000ED8A4010E006E0150EE
:10090000001629E041BF02D0429F01D0428F41BF73
:1009100002D0429D01D0428D41BD02D0429B01D008
:10092000428B41BD02D0429901D0428941BB02D0E5
:10093000429701D0428741BB02D0429501D0428507
:1009400041B902D0429301D0428341B902D04291D1
:1009500001D0428128D041BD02D0429F01D0428FB8
:1009600041BD02D0429D01D0428D41BB02D0429B8D
:1009700001D0428B41BB02D0429901D0428941B99A
:1009800002D0429701D0428741B902D0429501D0AE
:10099000428541B702D0429301D0428341B702D091
:1009A000429101D0428142C348F326EC00F002019B
:1009B000DD51040A010ED8A4000E016EDD51050AB6
:1009C000010ED8A4000E006E0150001204E042C3D4
:1009D00048F326EC00F003013F2B60D7486B26EC70
:1009E00000F00301486B26EC00F003013E2B3DD7DD
:1009F0001CDC120003013D6B050E3D5D0AE23D511A
:100A00003B25E16E000E3C21E26E200EE66E3D2B92
:100A1000F3D73D513B25E16E000E3C21E26EE66AC4
:100A20003D073D513B253E6F000E3C213F6F0A0EB6
:100A3000046E000E056E39C300F03AC301F00CDC01
:100A400008C000F009C001F0300E00263EC3E1FFEF
:100A50003FC3E2FF00C0E6FF0A0E046E000E056E03
:100A600039C300F03AC301F02CEC01F000C039F3B7
:100A700001C03AF3000E011802E1000E001801E176
:100A800002D03D07CED7120003013A6B0201DB6BA7
:100A9000010EE56F39C33AF303013A373A913A3719
:100AA0003A913A373A913A373A910201E45303E0E6
:100AB000080E03013A270201E55303E0040E030187
:100AC0003A270201DB5303E0020E03013A27020139
:100AD000E35302E003013A2B5DEC00F0E6C248F379
:100AE00026EC00F03AC348F326EC00F015EC01F0D8
:100AF000060E0C6E300E0D6E0D2EFED70C2EFCD792
:100B00000000040E03013A5F5DEC00F0E6C248F31A
:100B100026EC00F03AC348F326EC00F015EC01F0A7
:100B2000060E0C6E300E0D6E0D2EFED70C2EFCD761
:100B300000001200220E0C6E086A096A0A6A0B6A2B
:100B40000C06D8B41FD0D8900B320A3209320832C2
:100B50000332023201320032D8A0F2D70C06D8B4E8
:100B600009D0045008260550092206500A220750D1
:100B70000B22EAD7045008260550092206500A2203
:100B800007500B221200030E0C6E950E0D6E0D2EEB
:100B9000FED70C2EFCD712000CB00EEF06F00CA204
:100BA000B6EF06F00E6A000E026425EF06F0F00EB6
:100BB0000214D8A4F0EF05F0023A01380F0B022618
:100BC0000138F00B016E00380F0B01260038F00BD6
:100BD000006E08380F0B00260838F00B086E0E84E4
:100BE000D89002BE09EF06F008360036013602360C
:100BF0000E2A02BE09EF06F008360036013602362C
:100C00000E2A02BE09EF06F008360036013602361B
:100C10000E2A0E500364AAEF06F0035E0BBC08AE6A
:100C2000B0EF06F0D880800E08640030000E00227D
:100C300001220222D8A0B0EF06F0023201320032C7
:100C4000034AB6EF06F0B0EF06F001C002F000C0B4
:100C500001F008C000F0086A000E0E8602645CEF26
:100C600006F0F00E0214D8A444EF06F0023A013860
:100C70000F0B02260138F00B016E00380F0B012616
:100C80000038F00B006E0E84D89002BE09EF06F01B
:100C90000036013602360E2A02BE09EF06F0003693
:100CA000013602360E2A02BE09EF06F00036013682
:100CB00002360E2A09EF06F001C002F000C001F072
:100CC000006A000E0E960E88026489EF06F0F00EA0
:100CD0000214D8A474EF06F0023A01380F0B022672
:100CE0000138F00B016E0E84D89002BE09EF06F0B9
:100CF000013602360E2A02BE09EF06F00136023630
:100D00000E2A02BE09EF06F0013602360E2A09EF5E
:100D100006F001C002F0016A000E0E860264BCEF0C
:100D200006F0F00E0214D8A498EF06F0023A0E84F2
:100D3000D89002BE09EF06F002360E2A02BE09EF75
:100D400006F002360E2A02BE09EF06F002360E2A1F
:100D500009EF06F0010E0C6E0EEC00F0C0EF06F08D
:100D6000020E0C6E1BEC00F0C0EF06F0040E0C6ED1
:100D700009EC01F0C0EF06F0080E0C6E1FEC00F05D
:100D800012000B6A0350D8B407EF07F002500A6E46
:100D9000028E8E0E035E03AE0BEF07F0036C080E9F
:100DA000035CD8A0E6EF06F0036E013602C001F046
:100DB000026A080E035CD8A0E6EF06F0036E013667
:100DC000016A0350D8A4D890F0EF06F00350D8B4CD
:100DD000F0EF06F0D89002320132032EEAEF06F06F
:100DE0000BBC01A0FDEF06F0D8A0FDEF06F0012A34
:100DF000D8B4022A02BE1AEF07F00AAE20EF07F0BD
:100E0000021E011E012AD8B4022A20EF07F0026A4E
:100E1000016A20EF07F00B800BAE24EF07F0026AA7
:100E20000AAE24EF07F0FF0E026E016E0A360232A0
:100E300024EF07F0010E0C6EBDEC00F026EF07F07A
:100E4000000E0C6E26EF07F0FF0E0C6E0150006EC8
:100E50000250016E1200A00E0301316F0F0E326FAF
:100E6000000E336F346FA00E006E0F0E016E000E79
:100E7000026E000E036E2FC304F030C305F0000EA7
:100E8000066E076E57DE00C031F301C032F302C0B8
:100E900033F303C034F3000E035C08E1000E025C80
:100EA00005E1020E015C02E1940E005C01E231D02A
:100EB000940E315F020E325B000E335B345B050E25
:100EC000006E005007E03433333332333133349F14
:100ED000FF0FF8D731C300F032C301F033C302F083
:100EE00034C303F0010E315F000E325B335B345BC1
:100EF00000500110021003100CE000000000000080
:100F000000000000000000000000000000000000E1
:100F1000E1D712000301356B31C301F0010E006E01
:100F2000015004E000360090FF0FFBD700C034F3FF
:100F30002FC3E9FF30C3EAFF0050EE14016E0152E7
:100F4000010ED8A4000E006E3351001A18E0325181
:100F5000000804E218DE17DE3207F9D72FC3E9FFD5
:100F600030C3EAFF3451EE14016E0152010ED8A4D1
:100F7000000E006E3351001A02E0FF0E356F35C3CC
:100F800000F012000301396B4FEC03F03BEC03F06F
:100F9000890E046E410E056E1C0E066E810E076EE4
:100FA00053EC01F0EEDE12000450000A12E105508D
:100FB000000A0FE10650000A0CE10750000A09E19F
:100FC000FF0E006EFF0E016E7F0E026EFF0E036EAF
:100FD000A8D0086A096A0750D8B47FEF08F0035018
:100FE000D8B484EF08F0025006180A6E028E068EFE
:100FF0000E6A02C008F001C00CF000C00DF00450F1
:101000000D5E0550D8A0053C0C5E0650D8A0063CED
:10101000085E086A0C6A0D6AD8A016EF08F0D8902E
:101020000232013200320832010E0E6E0750035EAA
:10103000D8A023EF08F07E0E0E240326D8B089EF47
:1010400008F029EF08F07E0E0E240326D8A08EEFBC
:1010500008F0180E0B6E0D360C36083600360136C9
:1010600002360E360450005E0550D8A0053C015EE5
:101070000650D8A0063C025E06340E120EA044EFC5
:1010800008F00D804FEF08F0045000260550D8B04E
:10109000053C01260650D8B0062802260D900B2EDE
:1010A0002BEF08F075EF08F0D890003601360236C5
:1010B0000E360450005E0550D8A0053C015E065077
:1010C000D8A0063C025E06340E10010B0D26D8B0E7
:1010D0000C2AD8B4082AD8A475EF08F008320C32CC
:1010E0000D32032AD8B489EF08F00AAE089E0850E2
:1010F000026E0C50016E0D50006E91EF08F0010E63
:10110000E3EC01F091EF08F0020E1FEC00F091EF1C
:1011100008F0040E09EC01F091EF08F0080E0EEC57
:1011200000F012000201DD51040A010ED8A4000EE5
:10113000016EDD51050A010ED8A4000E006E0150AB
:1011400000120DE030C339F32FC33AF331C33BF340
:1011500032C33CF333C33DF366EC03F059D0DD51A9
:10116000020A010ED8A4000E016EDD51030A010E21
:10117000D8A4000E006E0150001214E0070E030107
:101180003003F3CF39F3040E39272FC33AF33A373C
:101190003A9131C33BF332C33CF333C33DF366ECC6
:1011A00003F036D0E36B2FC300F00036009000361A
:1011B00000900050080F0301396F66DC30C339F32B
:1011C00063DC010EE36F0301346B3351345D20E2C5
:1011D00034513125E96E000E3221EA6EEECF01F076
:1011E00001C039F33933399F3933399F3933399F46
:1011F0003933399F49DC030134513125E96E000E42
:101200003221EA6EEECF39F33FDC0301342BDDD718
:10121000120000C008F00150006E016A026A036A01
:101220000B6A0C6A016A026A036A960E036E0A6A06
:1012300000AE21EF09F0081E001E082AD8B4002ACB
:101240000A8E00C001F008C000F0086A026AD0EC03
:1012500000F012000450000A12E10550000A0FE1EC
:101260000650000A0CE10750000A09E1FF0E006E6B
:10127000FF0E016EFF0E026E7F0E036E99D00C6A98
:1012800007BE0C2A0D6A0B6A0A6A096A086A0350CB
:10129000021001100010D8B485D0035007180E6E4C
:1012A0000EBE0D1E07AE0BD0041E051E061E071E29
:1012B000042AD8B4052AD8B4062AD8B4072A03AE1B
:1012C0000BD0001E011E021E031E002AD8B4012AE4
:1012D000D8B4022AD8B4032A035007100E6E0EBEEB
:1012E0001DD0E7EC01F00CBE36D00DAE5BD0001E79
:1012F000011E021E031E002AD8B4012AD8B4022AF5
:10130000D8B4032A081E091E0A1E0B1E082AD8B4C8
:10131000092AD8B40A2AD8B40B2A44D007AE15D06B
:1013200003BE0DD003500B6E02500A6E0150096EC1
:101330000050086E036A026A016A006AD6D7036A1F
:10134000026A016A006A002A000C031E021E011EC6
:10135000001E0C8EC6D7082AD8B4092AD8B40A2A87
:10136000D8B40B2A0450085CD8A4BFD70550095C38
:10137000D8A4BBD706500A5CD8A4B7D707500B5CDB
:10138000D8A4B3D70B6A0A6A096A086A002AD8B4D3
:10139000012AD8B4022AD8B4032A03AEA6D70E6A0B
:1013A0000E88FF0C0E6A0CA002D047EC01F0000F73
:1013B0001200025006180E6E086A096A0B6A035082
:1013C0000764CCEF0AF006500A6E068E028E0350B8
:1013D0000B6E0750036E000E0B641CEF0AF00B50EF
:1013E000075ED8B4BDEF0AF0070E07648BEF0AF072
:1013F000075E00C008F001C000F002C001F0026A00
:10140000074EBDEF0AF0076460EF0AF0075E00C008
:1014100008F001C000F0016A074EBDEF0AF0076452
:101420003EEF0AF0075E00C008F0006A074EBDEF0D
:101430000AF0076425EF0AF00AC002F005C001F0C7
:1014400004C000F0086AE9EF0BF0030E076430EF08
:101450000AF0075E08380F0B086E074EBDEF0AF062
:10146000D8900832074EBDEF0AF0D8900832074EE8
:10147000BDEF0AF0D8900832BDEF0AF0030E076402
:101480004FEF0AF0075E08380F0B086E0038F00BBC
:10149000082600380F0B006E074EBDEF0AF0D890FB
:1014A00000320832074EBDEF0AF0D8900032083201
:1014B000074EBDEF0AF0D89000320832BDEF0AF0B7
:1014C000030E076477EF0AF0075E08380F0B086E0B
:1014D0000038F00B082600380F0B006E0138F00BB7
:1014E000002601380F0B016E074EBDEF0AF0D890B1
:1014F000013200320832074EBDEF0AF0D8900132B7
:1015000000320832074EBDEF0AF0D89001320032A7
:101510000832BDEF0AF0030E0764A8EF0AF0075E79
:1015200008380F0B086E0038F00B082600380F0B38
:10153000006E0138F00B002601380F0B016E0238E7
:10154000F00B012602380F0B026E074EBDEF0AF0BA
:10155000D8900232013200320832074EBDEF0AF055
:10156000D8900232013200320832074EBDEF0AF045
:10157000D8900232013200320832096A000E0EAEF3
:10158000B1EF0BF0081E001E011E021E082A0022E9
:1015900001220222B1EF0BF00750D8A4D2EF0AF0DB
:1015A000E9EF0BF0096A02C00AF0028E068E0750BE
:1015B000035C076ED8B4A4EF0BF0070E076472EF5C
:1015C0000BF0075E0450096E0550046E0650056E60
:1015D000066A074EA4EF0BF0070E076447EF0BF007
:1015E000075E0450096E0550046E056A074EA4EFAD
:1015F0000BF0070E076425EF0BF0075E0450096E31
:10160000046A074EA4EF0BF0070E07640CEF0BF013
:101610000AC002F0E9EF0BF0030E076417EF0BF0BE
:10162000075E09380F0B096E074EA4EF0BF0D89038
:101630000932074EA4EF0BF0D8900932074EA4EF01
:101640000BF0D8900932A4EF0BF0030E076436EFCD
:101650000BF0075E09380F0B096E0438F00B0926F2
:1016600004380F0B046E074EA4EF0BF0D890043231
:101670000932074EA4EF0BF0D89004320932074E1E
:10168000A4EF0BF0D89004320932A4EF0BF0030E54
:1016900007645EEF0BF0075E09380F0B096E043824
:1016A000F00B092604380F0B046E0538F00B0426E6
:1016B00005380F0B056E074EA4EF0BF0D8900532DE
:1016C00004320932074EA4EF0BF0D89005320432F1
:1016D0000932074EA4EF0BF0D890053204320932DC
:1016E000A4EF0BF0030E07648FEF0BF0075E0938D1
:1016F0000F0B096E0438F00B092604380F0B046E2B
:101700000538F00B042605380F0B056E0638F00B74
:10171000052606380F0B066E074EA4EF0BF0D89087
:101720000632053204320932074EA4EF0BF0D8908E
:101730000632053204320932074EA4EF0BF0D8907E
:101740000632053204320932086A000E0EAEB1EFDD
:101750000BF0091E041E051E061E092A042205227E
:101760000622095008260450002205500122065086
:1017700002220EBEC8EF0BF0D8A0D7EF0BF002325A
:10178000013200320832033ED7EF0BF0E3EF0BF0EB
:10179000D8B0DDEF0BF0000E081E001E011E021E69
:1017A000082A0022012202220A7EDDEF0BF0010E40
:1017B0000C6ECCEC05F0EBEF0BF0020E0C6ECCECEB
:1017C00005F0EBEF0BF0040E0C6E09EC01F0EBEF03
:1017D0000BF0000E0C6E1200010E0301396F4FEC7E
:1017E00003F03BEC03F0890E046E410E056E1C0EF7
:1017F000066E810E076E53EC01F0C1EC06F012008C
:101800000301356B366B2FC337F330C338F3800ECB
:101810003019006E800E005C02E1000E2F5D0BE2BD
:10182000010E356F000E366F2F510008376F30C331
:1018300038F3000E385737C339F338C33AF331C39E
:101840003BF332C33CF3FAEC04F0060E336F000EA8
:10185000346F000E006E3451005C02E13351000819
:1018600019E233513125E16E34513221E26E010E1D
:10187000335D006E000E3459016E00503125E96E63
:1018800001503221EA6EEECFE6FF010E335F000E0B
:10189000345BDFD731C3E1FF32C3E2FF200EE66ED7
:1018A000355136111AE0336B346B33513125E96E03
:1018B00034513221EA6EEE50200A03E1334B342BCF
:1018C000F4D7010E335F000E345B33513125E16EE6
:1018D00034513221E26E2D0EE66E12002FC300F05D
:1018E00030C301F0030E046E000E056E13EC03F01E
:1018F00000C02FF301C030F3800E026E800E01187D
:10190000025C02E10050500803E3006A016ABCD0A7
:10191000800E006E800E03013019005C02E12F5131
:10192000AB0805E3F40E2F27000E3023A9D0800E5C
:10193000010A006E800E3019005C02E12F51480848
:1019400005E3FE0E2F27000E30239AD0800E020AE8
:10195000006E800E3019005C02E12F51460805E34D
:10196000180E2F27010E30238BD0800E030A006E35
:10197000800E3019005C02E12F51340805E3290E76
:101980002F27010E30237CD0800E040A006E800EBB
:101990003019005C02E12F514C0805E3360E2F2769
:1019A000010E30236DD0800E080A006E800E3019B3
:1019B000005C02E12F51850805E3AE0E2F27010ED2
:1019C00030235ED0800E0C0A006E800E3019005C51
:1019D00002E12F51FA0805E3E40E2F27010E302310
:1019E0004FD0800E120A006E800E3019005C02E1AA
:1019F0002F510F0805E3120E2F27020E302340D07F
:101A0000800E160A006E800E3019005C02E12F5124
:101A1000E60805E3880E2F27020E302331D0800E12
:101A20001B0A006E800E3019005C02E12F51EA089B
:101A300005E3E70E2F27020E302322D0800E210A65
:101A4000006E800E3019005C02E12F51360805E36C
:101A5000340E2F27030E302313D0800E290A006E78
:101A6000800E3019005C02E12F51040805E3840E5A
:101A70002F27030E302304D0520E2F27030E3023BE
:101A80002FC300F030C301F0120004000301245101
:101A90000201A61903E1A55103012319D8B483D08B
:101AA000030123C3A5F224C3A6F2000E241902E108
:101AB000010E231933E10201ED51040A010ED8A4ED
:101AC000000E016EED51050A010ED8A4000E006E45
:101AD000015000120EE0020E03012F6F400E306F16
:101AE000C00E316F020E326F040E336F92EC08F0AD
:101AF00011D00201ED51000A0DE0010E03012F6F1C
:101B0000040E306FBB0E316F020E326F040E336F56
:101B100092EC08F00201A56BA66B45D023C3A5F299
:101B200024C3A6F223C32FF324C330F3F90E030119
:101B3000316F020E326F64DEFCC2EEF22E0E020135
:101B4000EF6FFDC2F0F2FEC2F1F2ED51040A010E98
:101B5000D8A4000E016EED51050A010ED8A4000EA6
:101B6000006E015000120EE0020E03012F6F400EB6
:101B7000306FEE0E316F020E326F040E336F92EC47
:101B800008F011D00201ED51000A0DE0010E030131
:101B90002F6F040E306FEE0E316F020E326F040E97
:101BA000336F92EC08F004001200030123B102D05D
:101BB0008A9201D08A8223B302D08A9401D08A8487
:101BC00023B502D0899401D0898423B702D08998A3
:101BD00001D0898823B902D0899A01D0898A01C3AA
:101BE0002FF302C330F32BEC07F01200030123B1F3
:101BF00002D08B9201D08B8223B302D08B9401D080
:101C00008B8423B502D08B9601D08B8623B702D06C
:101C10008B9801D08B8823B902D08B9A01D08B8A04
:101C200001C32FF302C330F32BEC07F01200810E37
:101C300003012F6F0F0E306F316B320E326F336B2B
:101C40008AEC07F000C023F3810E2F6F0F0E306F68
:101C5000040E316F320E326F336B8AEC07F0005096
:101C60002313810E2F6F0F0E306F050E316F320E62
:101C7000326F336B8AEC07F02351001203E0010E40
:101C80000201376F1200030124510201201903E100
:101C90001F5103012319D8B471D0030123C31FF2CC
:101CA00024C320F2800E2419006E800E005C02E135
:101CB000640E235D1AE3050E2325006E000E242119
:101CC000016E00C023F301C024F300C02FF301C054
:101CD00030F3F90E316F020E326F92DDFBC2EEF27D
:101CE000FCC2EFF2FDC2F0F21CD023C32FF324C3D9
:101CF00030F3F90E316F020E326F82DD0201FD51B9
:101D0000200A03E0FDC2EEF202D0300EEE6F2E0E7E
:101D1000EF6FFE51200A03E0FEC2F0F202D0300E57
:101D2000F06F0201ED51040A010ED8A4000E016EFD
:101D3000ED51050A010ED8A4000E006E01500012EC
:101D40000DE003012F6B400E306FEE0E316F020E6F
:101D5000326F030E336F92EC08F010D00201ED5198
:101D6000000A0CE003012F6B040E306FEE0E316F92
:101D7000020E326F030E336F92EC08F01200040073
:101D8000C2EC07F000C023F301C024F3000E01BE33
:101D9000FF0E0301256F266F1FDD00C027F301C072
:101DA00028F3000E01BEFF0E0301296F2A6F23C323
:101DB0002FF324C330F392DD09EC09F000C02BF3BC
:101DC00001C02CF302C02DF303C02EF3800E0301DB
:101DD0002A19006E800E2619005C08E12551295D44
:101DE00005E12451285D02E12351275D08E3E70E58
:101DF000236F030E246F000E256F266F45D02751E9
:101E00002325006E28512421016E29512521026EBF
:101E10002A512621036E640E046E000E056E066EB6
:101E2000076E9AEC05F023C304F024C305F025C324
:101E300006F026C307F02751045E2851055A2951A0
:101E4000065A2A51075A2AEC09F000C023F301C0B0
:101E500024F302C025F303C026F3800E046E800E27
:101E60000318045C08E10250000805E10150030872
:101E700002E10050E70808E2E70E0301236F030EBA
:101E8000246F000E256F266F2BC300F02CC301F0CA
:101E90002DC302F02EC303F0000E046E000E056E7B
:101EA000200E066E820E076E53EC01F0000E046EDB
:101EB000000E056E7A0E066E880E076ED4EC07F0E3
:101EC00000C02BF301C02CF302C02DF303C02EF38E
:101ED000F40E046EFD0E056E340E066E7F0E076E58
:101EE000D4EC07F000C02BF301C02CF302C02DF39B
:101EF00003C02EF300C004F001C005F002C006F0DC
:101F000003C007F053EC01F0000E046E000E056EE6
:101F1000200E066E810E076ED4EC07F000C02BF386
:101F200001C02CF302C02DF303C02EF3000E046E8B
:101F3000000E056E000E066E7E0E076ED9EC09F0DF
:101F400000C02BF301C02CF302C02DF303C02EF30D
:101F5000C1EC06F000C0F5F201C0F6F2800E0118E7
:101F6000026E800E025C02E10A0E005C06E2010EC7
:101F70000201F76F000EF86F1AD0800E03012619C8
:101F8000006E800E005C08E1000E255D05E1000E8C
:101F9000245D02E1640E235D06E2E70E0201F76FA5
:101FA000030EF86F04D023C3F7F224C3F8F2120033
:101FB000A6A202D00000FCD7A69C1DC3A9FF1EC389
:101FC000A8FFA69EA684F2CF00F0F29E550EA76E43
:101FD000AA0EA76EA68200BE02D0F29E01D0F28E9B
:101FE000A694A1B802D00000FCD7A198120003016A
:101FF0001DB102D0899C01D0898C01C32FF302C38B
:1020000030F32BEC07F01200040002011D51000117
:10201000FC19000ED8A4010E016E02011C51000132
:10202000FB19000ED8A4010E006E01500012D8B4A6
:1020300010D11DC2FCF00201CF6BD06B1DA104D0EA
:10204000C951CF27CA51D0231DA304D0C751CF27D0
:10205000C851D0231DA504D0C551CF27C651D023C8
:102060001DA704D0CD51CF27CE51D0231DA904D018
:10207000CB51CF27CC51D023ED51000A000ED8A46C
:10208000010E016EED51010A000ED8A4010E006E82
:1020900001500016D8B489D0CFC22FF3D0C230F38C
:1020A000F90E0301316F020E326F00EC0CF00201E9
:1020B000FB51200A03E0FBC2EEF202D0300EEE6FBD
:1020C0002E0EEF6FFC51200A03E0FCC2F0F202D0AA
:1020D000300EF06FFD51200A03E0FDC2F1F202D094
:1020E000300EF16FED51040A010ED8A4000E016EFE
:1020F000ED51050A010ED8A4000E006E0150001229
:102100002AE01C51010A04E1040E03011D6F03D0F3
:102110000301060E1D6F02011C510001FB190DE0A9
:102120001DC32FF3100E0301306FD70E316F000E59
:10213000326F080E336F92EC08F01DC32FF3280E98
:102140000301306FEE0E316F020E326F040E336FEB
:1021500092EC08F029D002011C51010A03E10301AD
:102160001D6B03D00301010E1D6F02011C51000104
:10217000FB190DE01DC32FF3090E0301306F2C0E68
:10218000316F010E326F080E336F92EC08F01DC3F1
:102190002FF30B0E0301306FEE0E316F020E326F14
:1021A000040E336F92EC08F054D00201ED51000A96
:1021B00050E0320ECF25006E000ED021016E00C01F
:1021C000CFF201C0D0F200C02FF301C030F3F90EFE
:1021D0000301316F020E326F00EC0CF00201FB5173
:1021E000200A03E0FBC2EEF202D0300EEE6F2E0E9C
:1021F000EF6FFC51200A03E0FCC2F0F202D0300E77
:10220000F06F1C51010A03E103011D6B03D00301B0
:10221000010E1D6F02011C510001FB190DE01DC3D1
:102220002FF3090E0301306F240E316F010E326F50
:10223000070E336F92EC08F01DC32FF30B0E030152
:10224000306FEE0E316F020E326F030E336F92EC71
:1022500008F002011B5101012319000ED8A4010E40
:10226000016E02011C510001FB19000ED8A4010EE1
:10227000006E01500012D8B4E4D01BC223F1020159
:10228000CF6BD06B1BA104D0D951CF27DA51D0230B
:102290001BA304D0D751CF27D851D0231BA504D0DE
:1022A000D551CF27D651D0231BA704D0D351CF2748
:1022B000D451D0231BA904D0D151CF27D251D02340
:1022C000ED51000A000ED8A4010E016EED51010A75
:1022D000000ED8A4010E006E01500016D8B477D0BD
:1022E000CFC22FF3D0C230F3F90E0301316F020ECB
:1022F000326F00EC0CF0FBC2EEF2FCC2EFF2FDC25A
:10230000F0F2FEC2F1F20201ED51040A010ED8A46E
:10231000000E016EED51050A010ED8A4000E006EEC
:10232000015000122AE01C51010A04E1060E0301CB
:102330001D6F03D00301040E1D6F02011C5100012B
:10234000FB190DE01DC32FF3100E0301306F0F0EAC
:10235000316F010E326F080E336F92EC08F01DC31F
:102360002FF3280E0301306FEE0E316F020E326F25
:10237000040E336F92EC08F029D002011C51010ABF
:1023800004E1010E03011D6F02D003011D6B020168
:102390001C510001FB190DE01DC32FF3090E0301B1
:1023A000306F060E316F010E326F080E336F92ECF4
:1023B00008F01DC32FF30B0E0301306FEE0E316FCB
:1023C000020E326F040E336F92EC08F03AD0CFC297
:1023D0002FF3D0C230F3F90E0301316F020E326FCA
:1023E00000EC0CF0FCC2EEF2FDC2EFF2FEC2F0F225
:1023F00002011C51010A04E1010E03011D6F02D00C
:1024000003011D6B02011C510001FB190DE01DC3EE
:102410002FF3090E0301306F1B0E316F010E326F67
:10242000070E336F92EC08F01DC32FF30B0E030160
:10243000306FEE0E316F020E326F030E336F92EC7F
:1024400008F004001CC2FBF002013851000AD8A4B5
:1024500088D0ED51040A010ED8A4000E016EED5192
:10246000050A010ED8A4000E006E015000123BE0D8
:1024700001011A53010ED8A4000E006E0201225170
:1024800000160DE003012F6B700E306F180E316FC8
:10249000010E326F010E336F92EC08F023D002016F
:1024A0002253010ED8A4000E006E01011A5100162D
:1024B0000DE003012F6B700E306F5B0E316F000E5D
:1024C000326F010E336F92EC08F00CD003012F6BCA
:1024D000700E306F590E316F000E326F010E336F78
:1024E00092EC08F03ED00201ED51000A3AE0010101
:1024F0001A53010ED8A4000E006E020122510016DC
:102500000DE003012F6B080E306F570E316F000E78
:10251000326F010E336F92EC08F023D00201225388
:10252000010ED8A4000E006E01011A5100160DE034
:1025300003012F6B080E306F600E316F000E326F8B
:10254000010E336F92EC08F00CD003012F6B080ED4
:10255000306F5E0E316F000E326F010E336F92ECF2
:1025600008F00400120002011D6B1B6B0301236BBA
:10257000D5EC0DF01BC223F3F6EC0DF001C32FF3E5
:1025800002C330F32BEC07F012000301216B226B26
:10259000640E055D1E6F000E06591F6F0201F56B7C
:1025A000F66B010E356F000E366F0400385304E0F1
:1025B000280E0301206F03D00301780E206F1D6BDE
:1025C00020511D5D53E202013851000A010ED8A4CA
:1025D000000E016E81B002D0068001D0069081B855
:1025E00002D0D88001D0D89006B003D002E2069085
:1025F00001D0068081BA02D0D88001D0D89006B030
:1026000003D002E2069001D00680006A06B0002ADC
:102610000150001608E017EC0EF002013751010AD4
:1026200002E1376BC7D2BFEC0EF0800E0301221916
:10263000006E800E0201F619005C03E1F551030102
:10264000215D08E2F5C221F3F6C222F3F7C235F2AA
:10265000F8C236F2100E0C6E940E0D6E03010D2EA4
:10266000FDD70C2EFBD700001D2BAAD7040021C3D9
:1026700003F322C304F335C223F336C224F345EC3B
:102680000DF0800E02013619006E800E030106194E
:10269000005C03E105510201355D0201000ED8B076
:1026A000010E006E00502215056E800EB119036EEA
:1026B000800E3619035C02E13551B05D010ED8B0D1
:1026C000000E036EB051355D016EB1513659026E88
:1026D000800E03011F19006E800E0218005C02E1DB
:1026E00001501E5D010ED8B0000E006E00500314A4
:1026F000046E800E02013619036E800EB119035C60
:1027000002E1B051355D010ED8B0000E036E3551B7
:10271000B05D016E3651B159026E800E03011F1972
:10272000006E800E0218005C02E101501E5D010E79
:10273000D8B0000E006E0350001600500410016E59
:102740000201B151030A02E1E70EB019010ED8A44B
:10275000000E006E015000120550001602E0010E3E
:10276000216F3851000A010ED8A4000E016E81B00D
:1027700002D0068001D0069081B202D0D88001D06C
:10278000D89006B003D002E2069001D0068081B452
:1027900002D0D88001D0D89006B003D002E20690D3
:1027A00001D00680006A06B0002A0150001608E039
:1027B00017EC0EF002013751010A02E1376BFAD132
:1027C00003C323F304C324F343EC0EF00201385196
:1027D000000A010ED8A4000E016E81B002D006805E
:1027E00001D0069081B202D0D88001D0D89006B036
:1027F00003D002E2069001D0068081B402D0D880D6
:1028000001D0D89006B003D002E2069001D0068035
:10281000006A06B0002A0150001608E017EC0EF01E
:1028200002013751010A02E1376BC4D10400800E66
:10283000050A006E800E03010419005C02E10351D9
:10284000DC08D8B0B7D10201ED51040A010ED8A4BA
:10285000000E016EED51050A010ED8A4000E006EA7
:1028600001500012D8B4C8D0020E03012F6F100E11
:10287000306F2C0E316F020E326F080E336F92ECF8
:1028800008F0030E0B6E080E0C6E770E0D6E0D2EFB
:10289000FED70C2EFCD70B2EFAD7020E03012F6F9A
:1028A000100E306F230E316F020E326F080E336F31
:1028B00092EC08F00B0E0B6E260E0C6E5D0E0D6E7C
:1028C0000D2EFED70C2EFCD70B2EFAD700000000E1
:1028D0000400020E03012F6F100E306F390E316F9E
:1028E000020E326F080E336F92EC08F0070E0B6E7B
:1028F000170E0C6E6A0E0D6E0D2EFED70C2EFCD729
:102900000B2EFAD70000020E03012F6F100E306F4E
:10291000780E316F020E326F080E336F92EC08F0B2
:102920000B0E0B6E260E0C6E5D0E0D6E0D2EFED771
:102930000C2EFCD70B2EFAD7000000000400020E6C
:1029400003012F6F100E306F6F0E316F020E326F5A
:10295000080E336F92EC08F0070E0B6E170E0C6E1C
:102960006A0E0D6E0D2EFED70C2EFCD70B2EFAD74D
:102970000000020E03012F6F100E306F8A0E316FB0
:10298000020E326F080E336F92EC08F00B0E0B6ED6
:10299000260E0C6E5D0E0D6E0D2EFED70C2EFCD786
:1029A0000B2EFAD7000000000400020E03012F6F67
:1029B000100E306F810E316F020E326F080E336FC2
:1029C00092EC08F0030E0B6E080E0C6E770E0D6E77
:1029D0000D2EFED70C2EFCD70B2EFAD7020E0301BC
:1029E0002F6F100E306F660E316F020E326F080EB1
:1029F000336F92EC08F0C4D00201ED51000AD8B454
:102A0000BFD0010E03012F6F306B4B0E316F020EE2
:102A1000326F080E336F92EC08F0030E0B6E080E47
:102A20000C6E770E0D6E0D2EFED70C2EFCD70B2ED6
:102A3000FAD7010E03012F6F306B420E316F020E79
:102A4000326F080E336F92EC08F00B0E0B6E260EF1
:102A50000C6E5D0E0D6E0D2EFED70C2EFCD70B2EC0
:102A6000FAD7000000000400010E03012F6F306B45
:102A70005D0E316F020E326F080E336F92EC08F06C
:102A8000070E0B6E170E0C6E6A0E0D6E0D2EFED716
:102A90000C2EFCD70B2EFAD70000010E03012F6F6E
:102AA000306B540E316F020E326F080E336F92ECA2
:102AB00008F00B0E0B6E260E0C6E5D0E0D6E0D2EBD
:102AC000FED70C2EFCD70B2EFAD700000000040016
:102AD000010E03012F6F306BF20E316F000E326F5B
:102AE000080E336F92EC08F0070E0B6E170E0C6E8B
:102AF0006A0E0D6E0D2EFED70C2EFCD70B2EFAD7BC
:102B00000000010E03012F6F306BE90E316F000ED4
:102B1000326F080E336F92EC08F00B0E0B6E260E20
:102B20000C6E5D0E0D6E0D2EFED70C2EFCD70B2EEF
:102B3000FAD7000000000400010E03012F6F306B74
:102B4000E00E316F000E326F080E336F92EC08F01A
:102B5000030E0B6E080E0C6E770E0D6E0D2EFED74B
:102B60000C2EFCD70B2EFAD7010E03012F6F306B02
:102B7000FD0E316F000E326F080E336F92EC08F0CD
:102B80000B0E0B6E260E0C6E5D0E0D6E0D2EFED70F
:102B90000C2EFCD70B2EFAD7000000000400100EFC
:102BA0000201A56F270EA66F35C223F336C224F3A8
:102BB00045EC0DF01200D7DC010E02011C6F010E76
:102BC00003011D6FF7EC0FF0FF0E1D6F1E6BD8ECAD
:102BD0000FF0FE0E03011D6F1E6BD8EC0FF0FD0E03
:102BE00003011D6F010E1E6FD8EC0FF004EC10F006
:102BF0000201ED51000A02E18A8C8A8E899E898643
:102C00008B908B9C8B9EF76BF86BF56BF66BB06BB8
:102C1000B16BED51040A010ED8A4000E016EED5106
:102C2000050A010ED8A4000E006E015000122BE020
:102C3000020E03012F6F100E306FA70E316F020EC0
:102C4000326F080E336F92EC08F004000D0E0B6E1D
:102C50002D0E0C6ED70E0D6E0D2EFED70C2EFCD742
:102C60000B2EFAD700000000020E03012F6F100E8A
:102C7000306FB20E316F020E326F080E336F92EC6E
:102C800008F004002CD00201ED51000A28E0010EEA
:102C900003012F6F306B930E316F020E326F080EEF
:102CA000336F92EC08F004000D0E0B6E2D0E0C6EBF
:102CB000D70E0D6E0D2EFED70C2EFCD70B2EFAD78D
:102CC00000000000010E03012F6F306B9C0E316F6E
:102CD000020E326F080E336F92EC08F00400100EF3
:102CE0000201A56F270EA66F100E1F6F270E206F13
:102CF0004CDC12000134083609360450085E0550D9
:102D0000D8A0053C095E003601360F0E0C6E01346A
:102D100008360936045000A006D0085E0550D8A039
:102D2000053C095E05D008260550D8B0053C0926AB
:102D3000003601360C2EEBD700B006D00450082622
:102D40000550D8B0053C092600001200BFEC0EF07B
:102D500002011951640A10E0192B800E1719006E38
:102D6000800EF619005C02E1F551165D04E2F5C231
:102D700016F2F6C217F20AD0196B16C223F317C265
:102D800024F343EC0EF00201166B176B0201800E68
:102D9000F619026E800EEA19025C02E1E951F55D56
:102DA000010ED8B0000E026E800EEC19016E800E7E
:102DB000F619015C02E1F551EB5D010ED8B0000E91
:102DC000016E800E006E800EEC19005C02E1EB518A
:102DD0000008010ED8B0000E006E0150001602501F
:102DE00000124FE00400BFEC0EF002011951640A1A
:102DF00010E0192B800E1719006E800EF619005C7A
:102E000002E1F551165D04E2F5C216F2F6C217F2C0
:102E10000AD0196B16C223F317C224F343EC0EF049
:102E20000201166B176B810E03012F6F0F0E306FAF
:102E3000316B050E326F010E336F8AEC07F00052D2
:102E400003E0010E0201186F02011851010A010E80
:102E5000D8A4000E03011C6F810E2F6F0F0E306F70
:102E6000316B050E326F336B8AEC07F01C51001684
:102E700007E0A1DE0201F76BF86B006A016A05D07A
:102E800085D7F7C200F0F8C201F012000450000A22
:102E900008E10550000A05E1FF0E006E7F0E016E8D
:102EA00057D00D6A096A086A01500010D8B4000CA6
:102EB000015005180A6E0ABE0D1E0B6A05AE05D03C
:102EC000041E051E042AD8B4052A01AE05D0001E32
:102ED000011E002AD8B4012A015005100A6E0ABE4C
:102EE00010D008DF0BB020D00DAE000C001E011E6C
:102EF000002AD8B4012A081E091E082AD8B4092AB3
:102F0000000C05AE0DD001BE07D00150096E005077
:102F1000086E016A006AE8D7016A006A002A000C9C
:102F2000011E001E0B2ADDD7082AD8B4092A045036
:102F3000085CD8A4D9D70550095CD8A4D5D7096AAC
:102F4000086A002AD8B4012A01AECED70000FF0CCF
:102F50001200030E0301196F02011B6B0301236BA7
:102F6000F6EC0DF0F3DE00C01AF301C01BF31AC338
:102F7000F7F21BC3F8F2140E046E000E056E1AC3AE
:102F800000F01BC301F082DF005003011A25176F08
:102F900001501B21186F19C316F316511F084CE37B
:102FA00016C323F3F6EC0DF0D1DE00C0F7F201C03A
:102FB000F8F2800E0118026E800E03011819025CEF
:102FC00002E11751005C36E2140E046E000E056E2D
:102FD000F7C200F0F8C201F059DF00500201F725F6
:102FE0000301176F01500201F8210301186F16C386
:102FF0001BF219C31AF2800E0201F819006E800E3E
:10300000005C02E1780EF75D01E216D00301195170
:103010001625016E01C016F30150090A03E1080EDE
:10302000166F07D01651110A04E1100E166F040E28
:10303000196F01D001D0B1D71BC223F3F6EC0DF00C
:103040001200030E0301156F116B15C31EF2030E60
:10305000126F140E046E000E056EF7C200F0F8C277
:1030600001F014DF00500201F7250301136F015036
:103070000201F8210301146F106B10511F0851E376
:1030800010C323F3D5EC0DF064DF60DE00C0F7F26F
:1030900001C0F8F2800E0118026E800E03011419AF
:1030A000025C02E11351005C3AE2140E046E000E61
:1030B000056EF7C200F0F8C201F0E8DE0050020130
:1030C000F7250301136F01500201F8210301146F6A
:1030D00010C31DF21BC211F315C31EF21AC212F364
:1030E000800E0201F819006E800E005C02E1780E7D
:1030F000F75D01E216D0030115511025016E01C0E4
:1031000010F30150090A03E1080E106F07D01051A7
:10311000110A04E1100E106F040E156F01D001D0DA
:10312000ACD711C31BF21DC223F3D5EC0DF01BC2AB
:1031300023F3F6EC0DF012C31AF2340E0C6EF10EFE
:103140000D6E0D2EFED70C2EFCD7000000001200D5
:103150001EC210F302011E511D25016E01C012F3A3
:1031600001501F0803E21F0E0301126F02011D51DF
:103170000301105D06E2105102011D5D0301136F92
:1031800001D0136B13C31DF213C323F3D5EC0DF061
:10319000DDDD00C0F7F201C0F8F2000E011802E117
:1031A000000E001801E17BD0F7C214F3F8C215F34A
:1031B00003011351010F116F1151125DD8A06BD093
:1031C00011C323F3D5EC0DF0C1DD00C0F7F201C04F
:1031D000F8F2000E011802E1000E001801E15FD0C4
:1031E000800E0201F819006E800E03011519005CB3
:1031F00003E114510201F75D0FE3340E0C6EF10E82
:103200000D6E0D2EFED70C2EFCD7000000009EDDAB
:1032100000C0F7F201C0F8F2800E0201F819006E4A
:10322000800E03011519005C03E114510201F75DE2
:103230000FE3340E0C6EF10E0D6E0D2EFED70C2E1C
:10324000FCD70000000082DD00C0F7F201C0F8F2F8
:10325000800E0201F819006E800E03011519005C42
:1032600003E114510201F75D12E20201F7C214F307
:10327000F8C215F311C31DF2800EF819006E800E0E
:10328000005C02E1780EF75D01E205D001D003D0C9
:103290000301112B91D71DC223F3D5EC0DF01200C1
:1032A0001AC210F302011A511B25016E01C012F35C
:1032B00001501F0803E21F0E0301126F02011B5190
:1032C0000301105D06E2105102011B5D0301136F43
:1032D00001D0136B13C31BF213C323F3F6EC0DF0F1
:1032E00035DD00C0F7F201C0F8F2000E011802E16E
:1032F000000E001801E17BD0F7C214F3F8C215F3F9
:1033000003011351010F116F1151125DD8A06BD041
:1033100011C323F3F6EC0DF019DD00C0F7F201C084
:10332000F8F2000E011802E1000E001801E15FD072
:10333000800E0201F819006E800E03011519005C61
:1033400003E114510201F75D0FE3340E0C6EF10E30
:103350000D6E0D2EFED70C2EFCD700000000F6DC03
:1033600000C0F7F201C0F8F2800E0201F819006EF9
:10337000800E03011519005C03E114510201F75D91
:103380000FE3340E0C6EF10E0D6E0D2EFED70C2ECB
:10339000FCD700000000DADC00C0F7F201C0F8F250
:1033A000800E0201F819006E800E03011519005CF1
:1033B00003E114510201F75D12E20201F7C214F3B6
:1033C000F8C215F311C31BF2800EF819006E800EBF
:1033D000005C02E1780EF75D01E205D001D003D078
:1033E0000301112B91D71BC223F3F6EC0DF0120051
:1033F0005DEC00F0E6C248F326EC00F0800E03011D
:10340000486F26EC00F00AC348F326EC00F015ECF8
:1034100001F0120004000201186B166B176B196B98
:1034200095DC800E0201F819006E800E005C02E14E
:103430006E0EF75D01E261D1B3EC12F004EC10F016
:10344000020E0B6E040E0C6EBA0E0D6E0D2EFED714
:103450000C2EFCD70B2EFAD7000078DC800E020170
:10346000F819006E800E005C02E16E0EF75D01E25D
:1034700044D1800E016E800EE819015C02E1E75133
:103480006E08010ED8B0000E016E800EE819006EB5
:10349000800EF819005C02E1F751E75D010ED8B02B
:1034A000000E006E0150001601E027D1F7C20AF3AA
:1034B000F8C20BF3C6DD000E0201F81902E1000E9E
:1034C000F71903E1B3EC12F018D140DC800E0201D1
:1034D000F819006E800E005C02E1780EF75D01E2E3
:1034E0000CD136DE000E0201F81902E1000EF719C8
:1034F00003E1B3EC12F001D129DC800E0201F819CE
:10350000006E800E005C02E1780EF75D01E2F5D0FE
:10351000C7DE000E0201F81902E1000EF71903E1FF
:10352000B3EC12F0EAD012DC800E0201F819006E42
:10353000800E005C02E1780EF75D01E2DED0800EC5
:10354000F819016E800E015C02E1C80EF75D010EF4
:10355000D8B0000E016E800EF819006E800E0301C7
:103560000B19005C03E10A510201F75D0201010E33
:10357000D8B0000E006E00500114036EF751030125
:103580000A5D016E0201F85103010B59026E800EB3
:10359000006E800E0218005C02E101506408010E0A
:1035A000D8B0000E006E0350001601E0A6D0F7C29E
:1035B0000AF3F8C20BF31DC20CF3000E0D6F1BC211
:1035C0000EF3000E0F6F02011C51010A02E11C6B89
:1035D00002D0010E1C6FB3EC12F01CC21DF3F7EC0D
:1035E0000FF0020E0B6E040E0C6EBA0E0D6E0D2E49
:1035F000FED70C2EFCD70B2EFAD70000A6EC16F047
:10360000800E0201F819006E800E005C02E1780E57
:10361000F75D01E272D015DD000E0201F81902E13A
:10362000000EF71903E1B3EC12F067D0A6EC16F028
:10363000800E0201F819006E800E005C02E1780E27
:10364000F75D01E25AD084DD000E0201F81902E1B3
:10365000000EF71903E1B3EC12F04FD0A6EC16F010
:10366000800E0201F819006E800E005C02E1780EF7
:10367000F75D01E242D014DE000E0201F81902E10A
:10368000000EF71903E1B3EC12F037D0A6EC16F0F8
:10369000800E0201F819006E800E005C02E1780EC7
:1036A000F75D01E22AD0800E03010B19006E800E37
:1036B0000201F819005C03E1F75103010A5D1CE205
:1036C00002011C51010A02E11C6B02D0010E1C6FA9
:1036D0001CC21DF3F7EC0FF00CC31DF20EC31BF25E
:1036E0000CC323F3D5EC0DF01BC223F3F6EC0DF065
:1036F0000AC3F7F20BC3F8F2040012005DEC00F00D
:10370000E6C248F326EC00F00301486B26EC00F01B
:10371000AE0E0301486F26EC00F00201DD51020AF3
:10372000010ED8A4000E016EDD51030A010ED8A4CB
:10373000000E006E01500012D8B497D0D50E0301D0
:10374000486F26EC00F0800E0301486F26EC00F075
:10375000A80E0301486F26EC00F03F0E0301486FEE
:1037600026EC00F0D30E0301486F26EC00F00201B6
:10377000DD51020A05E1DCC248F326EC00F007D077
:103780000201DC511F0F0301486F26EC00F0400ED0
:103790000301486F26EC00F08D0E0301486F26EC04
:1037A00000F0140E0301486F26EC00F0810E0301B7
:1037B000486F26EC00F0B40E0301486F26EC00F0D1
:1037C000D90E0301486F26EC00F0220E0301486F6A
:1037D00026EC00F0200E0301486F26EC00F0020EEC
:1037E0000301486F26EC00F0210E0301486F26EC20
:1037F00000F00301486B26EC00F07F0E0301486FD8
:1038000026EC00F02E0E0301486F26EC00F00201BA
:10381000DD51020A0BE1A00E0301486F26EC00F017
:10382000C00E0301486F26EC00F00AD0A10E030180
:10383000486F26EC00F0C80E0301486F26EC00F03C
:10384000DA0E0301486F26EC00F0020E0301486F08
:1038500026EC00F0DB0E0301486F26EC00F0400E72
:103860000301486F26EC00F08AD0D50E0301486FA3
:1038700026EC00F0800E0301486F26EC00F0A80E45
:103880000301486F26EC00F03F0E0301486F26EC61
:1038900000F0D30E0301486F26EC00F0DCC248F3C1
:1038A00026EC00F0400E0301486F26EC00F08D0E70
:1038B0000301486F26EC00F0140E0301486F26EC5C
:1038C00000F0810E0301486F26EC00F0FF0E0301AB
:1038D000486F26EC00F0D90E0301486F26EC00F08B
:1038E000F10E0301486F26EC00F0200E0301486F33
:1038F00026EC00F0020E0301486F26EC00F0210ECA
:103900000301486F26EC00F00301486B26EC00F041
:103910007F0E0301486F26EC00F02E0E0301486F66
:1039200026EC00F00201DD51040A0BE1A00E0301B8
:10393000486F26EC00F0C00E0301486F26EC00F043
:103940000AD0A10E0301486F26EC00F0C80E030157
:10395000486F26EC00F0DA0E0301486F26EC00F009
:10396000120E0301486F26EC00F0DB0E0301486FD6
:1039700026EC00F0400E0301486F26EC00F0A40E88
:103980000301486F26EC00F0A60E0301486F26ECF9
:1039900000F015EC01F0030E0B6E080E0C6E770EA6
:1039A0000D6E0D2EFED70C2EFCD70B2EFAD75DEC2C
:1039B00000F0E6C248F326EC00F0400E0301486F29
:1039C00026EC00F00201DD51020A010ED8A4000E1F
:1039D000016EDD51030A010ED8A4000E006E0150E5
:1039E000001219E00301096B0951030813E309C32D
:1039F00043F3446B7AEC00F00301006B0301800E8B
:103A0000005D05E2002B486B26EC00F0F7D70301C0
:103A1000092BEAD718D00301096B0951070813E3F2
:103A200009C343F3446B7AEC00F00301006B03011C
:103A3000800E005D05E2002B486B26EC00F0F7D706
:103A40000301092BEAD715EC01F0AF0E03010A6F51
:103A5000CFDC12009E0E0201DE6F060EDF6F390E04
:103A6000E06F030EE16FC26A0101701D006E00502D
:103A7000C116070EC012C08EC280120000C300F033
:103A80000032009E0032009E0032009E0032009EF6
:103A90000A0E0002F3CF01F00F0E03010015006EB5
:103AA000015000261200A69C00C3A9FFA69EA68076
:103AB000A8CF00F0120004000201ED51040A010E2B
:103AC000D8A4000E016EED51050A010ED8A4000E17
:103AD000006E0150001249E003012F6B100E306F91
:103AE0000D0E316F020E326F080E336F92EC08F03C
:103AF000020E03012F6F100E306F040E316F020E95
:103B0000326F080E336F92EC08F0040E03012F6F32
:103B1000100E306FFB0E316F010E326F080E336FD7
:103B200092EC08F0060E03012F6F100E306FE80EB6
:103B3000316F010E326F080E336F92EC08F0020104
:103B40003853010ED8A4000E006E225100160CE06E
:103B500003012F6B700E306FCD0E316F010E326F7F
:103B6000010E336F92EC08F067D00201ED51000AAC
:103B700063E003012F6B306BC40E316F010E326FA7
:103B8000080E336F92EC08F0010E03012F6F306BBB
:103B9000BB0E316F010E326F080E336F92EC08F0DE
:103BA0000201ED51010A1AE103012F6B090E306F7A
:103BB000E00E316F010E326F070E336F92EC08F09A
:103BC000010E03012F6F090E306FD80E316F010EF9
:103BD000326F070E336F92EC08F019D003012F6B90
:103BE000090E306FCF0E316F010E326F080E336F3A
:103BF00092EC08F0010E03012F6F090E306F640E76
:103C0000316F010E326F080E336F92EC08F0020133
:103C10003853010ED8A4000E006E225100160CE09D
:103C200003012F6B080E306F620E316F010E326F81
:103C3000010E336F92EC08F004000001FC6B0101EF
:103C4000236B04EC10F0120004008B908B9C8B9E75
:103C50000201ED51000A02E18A8C8A8EED51040ABC
:103C6000010ED8A4000E016EED51050A010ED8A474
:103C7000000E006E015000120EE0020E03012F6FC5
:103C8000400E306FF60E316F010E326F040E336F3F
:103C900092EC08F011D00201ED51000A0DE0010E86
:103CA00003012F6F040E306FF10E316F010E326F72
:103CB000040E336F92EC08F00AEC1AF0FF0E0301C9
:103CC0001D6F1BC21EF3D8EC0FF0FE0E03011D6F1B
:103CD0001DC21EF3D8EC0FF0FD0E03011D6F1CC2B8
:103CE0001EF3D8EC0FF00201ED51000A18E1800E2E
:103CF000006E800EF819005C02E1F751960802E3AD
:103D00008A9C0DD0800E006E800EF819005C02E1D6
:103D1000F751FA0803E3819C819E01D0819E800EB9
:103D2000006E800EF819005C02E1F751960802E37C
:103D30008B800CD0800E006E800EF819005C02E1C2
:103D4000F751FA0802E38B8C01D08B8EA56BA66B22
:103D5000100E1F6F270E206FC5EC12F0F7C2B0F2E5
:103D6000F8C2B1F204EC10F0899E898604001200BA
:103D7000070EB46E600ED36E9B8C806A816A826A75
:103D8000896A8A6A8B6A030E926EF90E936E946A40
:103D900061DE0D0EC16EF19EF29E12000900F5CF9C
:103DA000E6FF0006FBE10106F9E112000400010E46
:103DB0000301006F78DE00C0EDF2020E006F73DECB
:103DC0000050010A03E1010E0201226F030E0301FC
:103DD000006F69DE00C000F351DE00C001F3000E89
:103DE000026F040E006F5FDE00C000F347DE0A0EB4
:103DF0000002F3CF05F3F4CF06F3050E006F53DE98
:103E000000C000F33BDE0A0E0002F3CFE9F2F4CF6C
:103E1000EAF2060E006F47DE00C000F32FDE0A0E46
:103E20000002F3CFEBF2F4CFECF2090E006F3BDEB1
:103E300000C000F323DE0A0E0002F3CFE7F2F4CF56
:103E4000E8F20400100E006F2EDE00C000F316DE54
:103E5000640E0002F3CF07F3F4CF08F3110E006FE6
:103E600022DE00C000F30ADE005007250201C96F00
:103E7000000E030108210201CA6F120E0301006F38
:103E800012DE00C000F3FADD640E0002F3CF07F388
:103E9000F4CF08F3130E006F06DE00C000F3EEDD72
:103EA000005007250201C76F000E0301082102011F
:103EB000C86F140E0301006FF6DD00C000F3DEDDF5
:103EC000640E0002F3CF07F3F4CF08F3150E006F72
:103ED000EADD00C000F3D2DD005007250201C56F06
:103EE000000E030108210201C66F160E0301006FC8
:103EF000DADD00C000F3C2DD640E0002F3CF07F389
:103F0000F4CF08F3170E006FCEDD00C000F3B6DD6E
:103F1000005007250201CD6F000E030108210201A8
:103F2000CE6F180E0301006FBEDD00C000F3A6DDEA
:103F3000640E0002F3CF07F3F4CF08F3190E006FFD
:103F4000B2DD00C000F39ADD005007250201CB6FFF
:103F5000000E030108210201CC6F200E0301006F47
:103F6000A2DD00C000F38ADD640E0002F3CF07F388
:103F7000F4CF08F3210E006F96DD00C000F37EDD64
:103F8000005007250201D96F000E0301082102012C
:103F9000DA6F220E0301006F86DD00C000F36EDDD4
:103FA000640E0002F3CF07F3F4CF08F3230E006F83
:103FB0007ADD00C000F362DD005007250201D76FF3
:103FC000000E030108210201D86F240E0301006FC7
:103FD0006ADD00C000F352DD640E0002F3CF07F388
:103FE000F4CF08F3250E006F5EDD00C000F346DD60
:103FF000005007250201D56F000E030108210201C0
:10400000D66F260E0301006F4EDD00C000F336DDD3
:10401000640E0002F3CF07F3F4CF08F3270E006F0E
:1040200042DD00C000F32ADD005007250201D36FF6
:10403000000E030108210201D46F280E0301006F56
:1040400032DD00C000F31ADD640E0002F3CF07F387
:10405000F4CF08F3290E006F26DD00C000F30EDD5B
:10406000005007250201D16F000E03010821020153
:10407000D26F0400120004000201ED51040A010E87
:10408000D8A4000E016EED51050A010ED8A4000E51
:10409000006E01500012D8B40BD103012F6B160E25
:1040A000306F470E316F000E326F070E336F92EC98
:1040B00008F0020E03012F6F040E306F3C0E316FBB
:1040C000000E326F0A0E336F92EC08F0040E0301FB
:1040D0002F6F100E306F4F0E316F000E326F080EC3
:1040E000336F92EC08F0060E0C6E300E0D6E0D2E36
:1040F000FED70C2EFCD70000040E03012F6F100E0C
:10410000306F4F0E316F000E326F080E336F92EC2E
:1041100008F0060E0C6E300E0D6E0D2EFED70C2E16
:10412000FCD70000040E03012F6F100E306F4F0EEE
:10413000316F000E326F080E336F92EC08F0060EEE
:104140000C6E300E0D6E0D2EFED70C2EFCD700001F
:10415000060E03012F6F040E306F310E316F000E0B
:10416000326F0A0E336F92EC08F004000D0E0B6EE6
:104170002D0E0C6ED70E0D6E0D2EFED70C2EFCD70D
:104180000B2EFAD70000000004000B0E0B6E260E5B
:104190000C6E5D0E0D6E0D2EFED70C2EFCD70B2E69
:1041A000FAD700000000040003012F6B100E306FDF
:1041B000B10E316F000E326F080E336F92EC08F0C3
:1041C000020E03012F6F040E306FA60E316F000E2A
:1041D000326F0A0E336F92EC08F0040E03012F6F5A
:1041E000100E306F9D0E316F000E326F080E336F60
:1041F00092EC08F0060E03012F6F040E306FCC0E08
:10420000316F000E326F0A0E336F92EC08F0040E1D
:104210000B6E0C0E0C6E330E0D6E0D2EFED70C2E8B
:10422000FCD70B2EFAD70000000003012F6B100EF5
:10423000306FC30E316F000E326F080E336F92EC89
:1042400008F0020E03012F6F100E306FBA0E316F9F
:10425000000E326F080E336F92EC08F0040E03016B
:104260002F6F100E306F940E316F000E326F080EEC
:10427000336F92EC08F0060E03012F6F100E306FB3
:104280006C0E316F000E326F080E336F92EC08F037
:10429000020122530CE003012F6B700E306F6A0E87
:1042A000316F000E326F010E336F92EC08F02AD19D
:1042B0000201ED51000AD8B425D103012F6B040E81
:1042C000306F620E316F000E326F070E336F92EC5B
:1042D00008F0010E03012F6F030E306F890E316F4E
:1042E000000E326F0A0E336F92EC08F004000F0ECE
:1042F0000B6E350E0C6E510E0D6E0D2EFED70C2E64
:10430000FCD70B2EFAD704000B0E0B6E260E0C6E8C
:104310005D0E0D6E0D2EFED70C2EFCD70B2EFAD790
:1043200000000000040003012F6B040E306F4F0EDD
:10433000316F000E326F080E336F92EC08F0060EEC
:104340000C6E300E0D6E0D2EFED70C2EFCD700001D
:1043500003012F6B040E306F4F0E316F000E326F62
:10436000080E336F92EC08F0060E0C6E300E0D6ED8
:104370000D2EFED70C2EFCD7000003012F6B040E70
:10438000306F4F0E316F000E326F080E336F92ECAC
:1043900008F0060E0C6E300E0D6E0D2EFED70C2E94
:1043A000FCD70000010E03012F6F030E306F7E0E4D
:1043B000316F000E326F0A0E336F92EC08F004007A
:1043C0000D0E0B6E2D0E0C6ED70E0D6E0D2EFED734
:1043D0000C2EFCD70B2EFAD70000000004000B0EA9
:1043E0000B6E260E0C6E5D0E0D6E0D2EFED70C2E76
:1043F000FCD70B2EFAD700000000040003012F6B3E
:10440000040E306F750E316F000E326F080E336F71
:1044100092EC08F0010E03012F6F030E306F970E20
:10442000316F010E326F0A0E336F92EC08F0040EFA
:104430000B6E0C0E0C6E330E0D6E0D2EFED70C2E69
:10444000FCD70B2EFAD70000000003012F6B306B56
:104450008E0E316F010E326F080E336F92EC08F042
:10446000010E03012F6F306B850E316F010E326F1D
:10447000080E336F92EC08F00201ED51010A1AE1C7
:1044800003012F6B090E306FB30E316F010E326FC7
:10449000070E336F92EC08F0010E03012F6F090E27
:1044A000306FAB0E316F010E326F070E336F92EC2F
:1044B00008F019D003012F6B090E306FA20E316F77
:1044C000010E326F080E336F92EC08F0010E0301FB
:1044D0002F6F090E306F7C0E316F010E326F080E98
:1044E000336F92EC08F0020122530CE003012F6BB2
:1044F000080E306F740E316F010E326F010E336F84
:1045000092EC08F0040012000201ED51040A010EC1
:10451000D8A4000E016EED51050A010ED8A4000EBC
:10452000006E015000120DE003012F6B0A0E306F78
:10453000570E316F010E326F090E336F92EC08F097
:1045400010D00201ED51000A0CE003012F6B030EA5
:10455000306F490E316F010E326F090E336F92ECDE
:1045600008F004000B0E0B6E260E0C6E5D0E0D6E29
:104570000D2EFED70C2EFCD70B2EFAD70000000014
:1045800004000B0E0B6E260E0C6E5D0E0D6E0D2EC6
:10459000FED70C2EFCD70B2EFAD70000000004002B
:1045A0000B0E0B6E260E0C6E5D0E0D6E0D2EFED7D5
:1045B0000C2EFCD70B2EFAD70000000004000B0EC7
:1045C0000B6E260E0C6E5D0E0D6E0D2EFED70C2E94
:1045D000FCD70B2EFAD70000000004000201ED51B9
:1045E000040A010ED8A4000E016EED51050A010E59
:1045F000D8A4000E006E015000120DE003012F6BD5
:104600000A0E306F3F0E316F010E326F090E336F9D
:1046100092EC08F010D00201ED51000A0CE0030109
:104620002F6B030E306F350E316F010E326F090E96
:10463000336F92EC08F0B3EC12F0010E02011C6F24
:10464000010E03011D6FF7EC0FF0FF0E1D6F1BC273
:104650001EF3D8EC0FF0FE0E03011D6F1DC21EF3FA
:10466000D8EC0FF0FD0E03011D6F1CC21EF3D8EC39
:104670000FF00201ED51040A010ED8A4000E016EE4
:10468000ED51050A010ED8A4000E006E0150001273
:104690000DE003012F6B700E306F550E316F010E60
:1046A000326F010E336F92EC08F010D00201ED5121
:1046B000000A0CE003012F6B080E306F530E316FB0
:1046C000010E326F010E336F92EC08F05BEC1DF0BF
:1046D0001200810E03012F6F0F0E306F316B320EFF
:1046E000326F336B8AEC07F002012151001240E077
:1046F000898E8996060E0B6E130E0C6EAD0E0D6E26
:104700000D2EFED70C2EFCD70B2EFAD70000000082
:1047100004002151000A010ED8A4000E016E81B0E0
:1047200002D0D89001D0D880006AD8B0002A0150B9
:10473000001605E0DBEC15F001011A6B17D024EC34
:104740001EF001011A6B810E03012F6F0F0E306FE7
:10475000316B320E326F336B8AEC07F0005204E09B
:10476000C5EC12F00400EFD70201216B04EC10F04D
:10477000810E03012F6F0F0E306F050E316F320E59
:10478000326F336B8AEC07F000524FE004000101F6
:104790001A51000A20E1010E1A6F1BC261F11DC2FD
:1047A0006FF11CC26EF102011B6B1D6B010E1C6FC1
:1047B0000301236BD5EC0DF01BC223F3F6EC0DF0D7
:1047C0001CC21DF3F7EC0FF022C26DF10201226B47
:1047D00004EC10F018D001011A6B61C11BF26FC11B
:1047E0001DF26EC11CF261C123F3F6EC0DF01DC287
:1047F00023F3D5EC0DF01CC21DF3F7EC0FF06DC1E7
:1048000022F204EC10F0810E03012F6F0F0E306FB7
:10481000050E316F320E326F336B8AEC07F00052A7
:1048200004E0C5EC12F00400EED7810E03012F6FF7
:104830000F0E306F040E316F320E326F336B8AEC15
:1048400007F001011A51000A010ED8A4000E016EF2
:104850000150001624E0040002012251000A03E185
:10486000010E226F01D0226B020E03011D6F22C2C6
:104870001EF3D8EC0FF004EC10F0810E03012F6F43
:104880000F0E306F040E316F320E326F336B8AECC5
:1048900007F0005204E0C5EC12F00400EED712005D
:1048A0000301006B53EC1DF000C0E6F20050000A5B
:1048B00005E1939C939E8A8C8A8E04D0938C938E70
:1048C0008A9C8A9E1200010E0301006F53EC1DF0BA
:1048D00000C0DDF2070E006F53EC1DF000C0DCF2EB
:1048E000080E006F53EC1DF000C0E2F20201DD5132
:1048F000010A03E07EEC1BF060D0010EE46FE36B75
:10490000030E0301396F44EC05F01A0E0C6EF80E1D
:104910000D6E0D2EFED70C2EFCD70000030E0301EA
:10492000396F44EC05F0060E0C6E300E0D6E0D2E38
:10493000FED70C2EFCD70000030E0301396F44ECA8
:1049400005F0020E0301396F44EC05F0020E03017D
:10495000396F44EC05F0080E0301396F44EC05F0A3
:104960000301396B44EC05F0080E0301396F44EC88
:1049700005F00301396B44EC05F0010E0301396FBA
:1049800044EC05F01A0E0C6EF80E0D6E0D2EFED7CF
:104990000C2EFCD700000301396B44EC05F0060E29
:1049A0000301396F44EC05F00301396B44EC05F069
:1049B0000C0E0301396F44EC05F01200810E030167
:1049C0002F6F0F0E306F316B320E326F336B8AECFC
:1049D00007F00052D8B497D0060E0B6E130E0C6E73
:1049E000AD0E0D6E0D2EFED70C2EFCD70B2EFAD76A
:1049F00000000000040081A00FD002011C51000A39
:104A000003E1010E1C6F01D01C6B1CC21DF3F7ECFF
:104A10000FF004EC10F066D001017351010A02E1BD
:104A2000736B02D0010E736F7351010A2EE1020104
:104A3000ED51040A010ED8A4000E016EED51050AD5
:104A4000010ED8A4000E006E015000120DE003010B
:104A50002F6B700E306F710E316F010E326F010EC1
:104A6000336F92EC08F010D00201ED51000A0CE017
:104A700003012F6B080E306F7A0E316F010E326F0B
:104A8000010E336F92EC08F02DD00201ED51040AB3
:104A9000010ED8A4000E016EED51050A010ED8A436
:104AA000000E006E015000120DE003012F6B700E1E
:104AB000306F780E316F010E326F010E336F92EC52
:104AC00008F010D00201ED51000A0CE003012F6B39
:104AD000080E306F760E316F010E326F010E336F9C
:104AE00092EC08F0810E03012F6F0F0E306F316BC7
:104AF000320E326F336B8AEC07F0005204E0C5ECE3
:104B000012F00400EFD7810E03012F6F0F0E306FEC
:104B1000050E316F320E326F336B8AEC07F00052A4
:104B20003CE004000301810E2F6F0F0E306F050E65
:104B3000316F320E326F336B8AEC07F000522DE08A
:104B40001F0E02011D5D010ED8B0000E006E0101A6
:104B50007351001607E002011D2B1DC223F3D5EC93
:104B60000DF015D001017353010ED8A4000E016E93
:104B70001F0E02011B5D010ED8B0000E006E015029
:104B8000001605E01B2B1BC223F3F6EC0DF004EC22
:104B900010F0C5EC12F00400C5D7810E03012F6F91
:104BA0000F0E306F040E316F320E326F336B8AECA2
:104BB00007F001011A51000A010ED8A4000E016E7F
:104BC000015000163CE00400810E03012F6F0F0E10
:104BD000306F040E316F320E326F336B8AEC07F098
:104BE00000522DE002011D510008010ED8B0000E48
:104BF000006E01017351001607E002011D071DC27E
:104C000023F3D5EC0DF015D001017353010ED8A498
:104C1000000E016E02011B510008010ED8B0000EFB
:104C2000006E0150001605E01B071BC223F3F6ECD3
:104C30000DF004EC10F0C5EC12F00400C5D7120022
:104C400071EC29F0D0B602D0010E5D6E8986550E4A
:104C500029244F6E2D0E3024566EB8EC1EF0720EC5
:104C60002A24506E320E2F24556E030E0B6E080E42
:104C70000C6E770E0D6E0D2EFED70C2EFCD70B2E64
:104C8000FAD704001E0E2B24516E3B0E2E24546EB8
:104C9000D6EC1EF005DE420E2C24526E050E0B6E75
:104CA0000F0E0C6EF10E0D6E0D2EFED70C2EFCD7D6
:104CB0000B2EFAD7040081B802D0028001D00290F6
:104CC00081BA02D0D88001D0D89002A003D002E3EC
:104CD000028001D0029002A003D0010E0201386FC1
:104CE000F2DD81B802D0028001D0029081BA02D0F8
:104CF000D88001D0D89002A003D002E3028001D076
:104D0000029081B002D0D88001D0D89002A003D008
:104D100002E3028001D0029002A03ED00201ED51D8
:104D20000A0A0DE103012F6B030E306F1F0E316F66
:104D3000000E326F090E336F92EC08F010D00201B2
:104D4000ED51000A0CE003012F6B0C0E306F150EB5
:104D5000316F000E326F090E336F92EC08F0FF0EC8
:104D60000301236FF6EC0DF0FF0E236FD5EC0DF071
:104D7000010E1D6FF7EC0FF00B0E0B6E260E0C6E76
:104D80005D0E0D6E0D2EFED70C2EFCD70B2EFAD716
:104D9000000000000400F0D71C0E2D24536E040008
:104DA0005D50000A010ED8A4000E016E02013851B8
:104DB000000A010ED8A4000E006E0150001603E098
:104DC0003BEC20F015D05D50010A010ED8A4000E76
:104DD000016E02013851000A010ED8A4000E006EC7
:104DE0000150001603E05BEC1DF002D084EC22F0D1
:104DF00002013851000A1FE1FF0E0301006F53EC5E
:104E00001DF000C01BF2FE0E006F53EC1DF000C041
:104E10001DF2FD0E006F53EC1DF000C01CF21DC210
:104E200023F3D5EC0DF01BC223F3F6EC0DF01CC2FE
:104E30001DF3F7EC0FF004EC10F00400C5EC12F0D9
:104E400002013851000A02E144DC01D0B7DDF5D798
:104E5000FFD74641535420544553540046415354C0
:104E60002054455354000D07020C1B0912164657D7
:104E70002076657220322E37006D696E6920626F70
:104E8000617264004154552D313030000C100E0D0C
:104E9000120B10132E0020005F000020005F004165
:104EA00054552D313030002E00433D2020203070ED
:104EB0004600202020202020202000465720766514
:104EC0007220322E37006D696E6920626F617264E4
:104ED000004C3D302E30307548002020202020200E
:104EE0002020002020202020202020202000202002
:104EF000202020202020005357523D302E303000FB
:104F00005057523D302E30570020202020202020A6
:104F1000202020004C3D202020207548002020200B
:104F20002020202020004F5645524C4F4144002065
:104F3000202020202020200001FD5357523D20201A
:104F4000202000433D20202020704600433D2020AB
:104F500020207046002E0000433D20202070460097
:104F6000FD4C3D2020207548004C3D202020207520
:104F70004800202020202020202020002020202049
:104F800020202020200054455354204D4F444500FC
:104F90006C006C0054455354204D4F444500002E86
:104FA00000433D20202030704600000000306C009F
:104FB000012E00630063006C00433D202020307010
:104FC00046005357523D302E3030005057523D303E
:104FD0002E30570020202020202020202020004C90
:104FE0003D302E3030754800433D20203070460063
:104FF0004C3D302E307548005357523D302E3030E6
:10500000005057523D302E3057002E004C3D302E70
:105010003031754800433D2020307046004C3D3013
:105020002E30754800433D202020307046005455F6
:105030004E450054554E45004C3D302E303075489D
:10504000005357523D302E3030005057523D302ED5
:105050003057000000000000000000001027000092
:105060004F5645524C4F4144002020202020202004
:105070002000000000002020202020202020004FC1
:105080005645524C4F414400202020202020202013
:10509000004F5645524C4F414400202020202020F4
:1050A0002020005357523D20202020002020202087
:1050B00020202020004F5645524C4F4144002020D4
:1050C000202020202020004F5645524C4F414400C4
:1050D0005245534554202020005357523D302E3026
:1050E0003000102752455345542020200000005323
:1050F00057523D302E303000302E303000302E30C0
:105100003000000000000000005F00000007000702
:1051100000147F147F14242A7F2A12231308646248
:1051200036495522500005030000001C22410000B2
:1051300041221C00082A1C2A0808083E08080050C2
:10514000300000080808080800303000002010086F
:1051500004023E5149453E00427F400042615149B0
:10516000462141454B311814127F102745454539DA
:105170003C4A494930017109050336494949360617
:105180004949291E00363600000056360000000846
:105190001422411414141414412214080002015161
:1051A0000906324979413E7E1111117E7F494949F4
:1051B000363E414141227F4141221C7F49494941BC
:1051C0007F090901013E414151327F0808087F00F3
:1051D000417F41002040413F017F081422417F4030
:1051E0004040407F0204027F7F0408107F3E41411F
:1051F000413E7F090909063E4151215E7F09192977
:1052000046464949493101017F01013F4040403F45
:105210001F2040201F7F2018207F63140814630381
:1052200004780403615149454300007F4141020471
:1052300008102041417F0000040201020440404068
:105240004040000102040020545454787F484444F4
:10525000383844444420384444487F38545454181F
:10526000087E090102081454543C7F0804047800A5
:10527000447D40002040443D00007F102844004110
:105280007F40007C041804787C0804047838444487
:1052900044387C14141408081414187C7C08040482
:1052A000084854545420043F4440203C4040207C53
:1052B0001C2040201C3C4030403C44281028440C1A
:1052C0005050503C4464544C4400083641000000A7
:1052D0007F0000004136080008082A1C08081C2A24
:1052E000080810EE15F0B00E006E030E016E520E9F
:1052F000F66E4E0EF76E000EF86ECEEC1EF012003B
:020000040030CA
:0D000100081A11FF8181FF0FC00FE00F40B2
:0200000400F00A
:100000004E010015130500010200FFFFFFFFFFFF77
:1000100001100220045010002200FFFFFFFFFFFF2D
:1000200000100022004701000220FFFFFFFFFFFF3A
:10003000FFFFFFFFFFFFFFFFFFFFFFFFFFFFFFFFD0
:10004000FFFFFFFFFFFFFFFFFFFFFFFFFFFFFFFFC0
:10005000FFFFFFFFFFFFFFFFFFFFFFFFFFFFFFFFB0
:10006000FFFFFFFFFFFFFFFFFFFFFFFFFFFFFFFFA0
:10007000FFFFFFFFFFFFFFFFFFFFFFFFFFFFFFFF90
:10008000FFFFFFFFFFFFFFFFFFFFFFFFFFFFFFFF80
:10009000FFFFFFFFFFFFFFFFFFFFFFFFFFFFFFFF70
:1000A000FFFFFFFFFFFFFFFFFFFFFFFFFFFFFFFF60
:1000B000FFFFFFFFFFFFFFFFFFFFFFFFFFFFFFFF50
:1000C000FFFFFFFFFFFFFFFFFFFFFFFFFFFFFFFF40
:1000D000FFFFFFFFFFFFFFFFFFFFFFFFFFFFFFFF30
:1000E000FFFFFFFFFFFFFFFFFFFFFFFFFFFFFFFF20
:1000F000FFFFFFFFFFFFFFFFFFFFFFFFFF0100000C
:00000001FF

