:10000000FEEF25F00000000000EF00F0000000000F
:100010000000000000000000F3D7FFFF0201D751ED
:10002000000A32E0016A015007081CE3030156BFD1
:1000300002D0939E01D0938E060E0D6E0D2EFED72C
:100040000000938C060E0D6E0D2EFED70000939CC3
:10005000060E0D6E03010D2EFDD70000563756918A
:10006000012AE1D7938E060E0D6E0D2EFED70000ED
:10007000938C060E0D6E0D2EFED70000939C060E7F
:100080000D6E0D2EFED7000012000201D751000A9E
:1000900018E0938C060E0D6E0D2EFED70000938E89
:1000A000060E0D6E0D2EFED70000939E060E0D6EF1
:1000B0000D2EFED70000939C060E0D6E0D2EFED762
:1000C00000001200086A096A100E0C6E013408362E
:1000D00009360450085E0550D8A0053C095ED8B02A
:1000E00007D0045008260550D8B0053C0926D89002
:1000F000003601360C2EEAD712000AAE029E000E20
:1001000012000201E05103015225556FBEDFD7C234
:1001100056F384DF0301566B81DF03015151B00FA9
:10012000566F7CDF030155510F0804E355C353F3A9
:10013000546B19D055C302F00232029E0232029E65
:100140000232029E0232029E02C054F302C000F04C
:100150000036009000360090003600900036009087
:100160000050555D536F53C356F358DF030154518C
:10017000100F566F53DF89DFD7C256F34FDF400EA3
:100180000301566F4BDF12000201D751000A12E043
:10019000939E060E0D6E0D2EFED70000938C060E5C
:1001A0000D6E0D2EFED70000938E060E0D6E0D2ED9
:1001B000FED7000012000B840BAEE6EF00F0010E3C
:1001C000036E026A016A006A0A360232FF0E1200EA
:1001D000220E0C6E086A096A0A6A0B6A0C06D8B409
:1001E0001FD0D8900B320A32093208320332023261
:1001F00001320032D8A0F2D70C06D8B409D004508E
:1002000008260550092206500A2207500B22EAD779
:10021000045008260550092206500A2207500B22D6
:100220001200026A016A006A086A036A000E12007C
:10023000A00E0301496F0F0E4A6F000E4B6F4C6FFB
:10024000A00E006E0F0E016E000E026E000E036E09
:1002500047C304F048C305F0000E066E076EB8DF12
:1002600000C049F301C04AF302C04BF303C04CF392
:10027000000E035C08E1000E025C05E1020E015C69
:1002800002E1940E005C01E231D0940E495F020E4F
:100290004A5B000E4B5B4C5B050E006E005007E0A6
:1002A0004C334B334A3349334C9FFF0FF8D749C384
:1002B00000F04AC301F04BC302F04CC303F0010E3F
:1002C000495F000E4A5B4B5B4C5B00500110021013
:1002D00003100CE00000000000000000000000001F
:1002E00000000000000000000000E1D712000B80B9
:1002F0000BAE83EF01F0026A0AAEFF0E026E016ED2
:10030000006E0A360232FF0E120003014B6B050E1F
:100310004B5D0AE24B514925E16E000E4A21E26E27
:10032000200EE66E4B2BF3D74B514925E16E000EA4
:100330004A21E26EE66A4B074B5149254C6F000E8D
:100340004A214D6F0A0E046E000E056E47C300F081
:1003500048C301F0B7DE08C000F009C001F0300E5C
:1003600000264CC3E1FF4DC3E2FF00C0E6FF0A0ECA
:10037000046E000E056E47C300F048C301F0A2DE14
:1003800000C047F301C048F3000E011802E1000E5F
:10039000001801E102D04B07CFD7120076DED7C29A
:1003A00056F33CDE400E0301566F38DE48C351F36E
:1003B00047C352F3A6DE03014C6B4B514C5DD8B0E2
:1003C000B3D04C514925E96E000E4A21EA6EEE5039
:1003D000000A02E14E6B09D04C514925E96E000E2E
:1003E0004A21EA6E200EEE5C4E6F4D6B4D510408B3
:1003F000D8A092D0050E4E03F3CF00F0F4CF01F059
:100400004D510026000E0122220E0024F66E510EE0
:100410000120F76E000EF86E000E01BEFF0EF822EE
:100420000900F5CF4FF34851020A000ED8A4010E7F
:10043000016E4851040A000ED8A4010E006E00504F
:1004400001164851060A000ED8A4010E006E015094
:10045000001629E04FB702D0509F01D0508F4FB700
:1004600002D0509D01D0508D4FB502D0509B01D08D
:10047000508B4FB502D0509901D050894FB302D064
:10048000509701D050874FB302D0509501D050857E
:100490004FB102D0509301D050834FB102D0509150
:1004A00001D0508120D04FB502D0509F01D0508F45
:1004B0004FB502D0509D01D0508D4FB302D0509B0C
:1004C00001D0508B4FB302D0509901D050894FB119
:1004D00002D0509701D050874FB102D0509501D033
:1004E00050855093509150C356F398DD0201E1516D
:1004F000040A010ED8A4000E016EE151050A010E96
:10050000D8A4000E006E0150001203E050C356F351
:1005100085DD03014D2B6AD7566B80DD0301566BD9
:100520007DDD03014C2B49D74851010F516F47C363
:1005300052F3E7DD03014C6B4B514C5DD8B0BBD09F
:100540004C514925E96E000E4A21EA6EEE50000A30
:1005500002E14E6B09D04C514925E96E000E4A214B
:10056000EA6E200EEE5C4E6F4D6B4D510408D8A024
:100570009AD0050E4E03F3CF00F0F4CF01F04D51A9
:100580000026000E0122220E0024F66E510E0120DC
:10059000F76E000EF86E000E01BEFF0EF822090085
:1005A000F5CF4FF34851020A000ED8A4010E016E98
:1005B0004851040A000ED8A4010E006E0050011626
:1005C0004851060A000ED8A4010E006E0150001614
:1005D00029E04FBF02D0509F01D0508F4FBF02D0B3
:1005E000509D01D0508D4FBD02D0509B01D0508BFB
:1005F0004FBD02D0509901D050894FBB02D05097C7
:1006000001D050874FBB02D0509501D050854FB9D3
:1006100002D0509301D050834FB902D0509101D0F5
:10062000508128D04FBD02D0509F01D0508F4FBD78
:1006300002D0509D01D0508D4FBB02D0509B01D0B5
:10064000508B4FBB02D0509901D050894FB902D086
:10065000509701D050874FB902D0509501D05085A6
:100660004FB702D0509301D050834FB702D0509172
:1006700001D0508150C356F3D1DC0201E151040A8C
:10068000010ED8A4000E016EE151050A010ED8A496
:10069000000E006E0150001203E050C356F3BEDCA2
:1006A00003014D2B62D7566BB9DC0301566BB6DCE8
:1006B00003014C2B41D768DD12000B820BAE67EFB4
:1006C00003F003680268016800680A360232FF0E10
:1006D00012000C6A0E6A0250D8A482EF03F001C027
:1006E00002F000C001F0006A0E860250D8A482EF2A
:1006F00003F001C002F0016A0E960E880250D8B4D1
:1007000094EF03F00E50035ED8A4D8A099EF03F045
:10071000D89002BE9EEF03F0003601360236032E5B
:1007200089EF03F099EF03F0010E0C6E7ADDA1EF73
:1007300003F0020E0C6E3FDDA1EF03F0040E0C6E11
:10074000DCDC12001D0E0D6E0D2EFED71200030113
:10075000486B0201D86B010EDF6F47C348F30301FA
:100760004837489148374891483748914837489129
:100770000201DA5303E0080E030148270201DF53A8
:1007800003E0040E030148270201D85303E0020EE0
:10079000030148270201D95302E00301482B75DC0D
:1007A000D7C256F33BDC48C356F338DCEDDC060E0B
:1007B0000C6E300E0D6E0D2EFED70C2EFCD70000E9
:1007C000040E0301485F61DCD7C256F327DC48C33F
:1007D00056F324DCD9DC060E0C6E300E0D6E0D2E99
:1007E000FED70C2EFCD7000012000B6A0A6A096AB9
:1007F00000500402F4CF09F0F3CF08F001500502D5
:10080000F4CF0BF0F3CF0AF000500502F3500926A5
:10081000F4500A22E86A0B2201500402F350092620
:10082000F4500A22E86A0B2208C000F009C001F067
:100830000AC002F00BC003F0120003013DB102D068
:100840008A9201D08A823DB302D08A9401D08A84F0
:100850003DB502D0899401D089843DB702D08998F2
:1008600001D089883DB902D0899A01D0898AE9C22C
:1008700047F3EAC248F3DCDC12000CB07FEF04F06F
:100880000CA227EF05F00E6A000E026496EF04F04A
:10089000F00E0214D8A461EF04F0023A01380F0BF5
:1008A00002260138F00B016E00380F0B01260038CC
:1008B000F00B006E08380F0B00260838F00B086E9E
:1008C0000E84D89002BE7AEF04F008360036013666
:1008D00002360E2A02BE7AEF04F0083600360136E0
:1008E00002360E2A02BE7AEF04F0083600360136D0
:1008F00002360E2A0E5003641BEF05F0035E0BBC9C
:1009000008AE21EF05F0D880800E08640030000E9C
:10091000002201220222D8A021EF05F0023201328A
:100920000032034A27EF05F021EF05F001C002F085
:1009300000C001F008C000F0086A000E0E860264D4
:10094000CDEF04F0F00E0214D8A4B5EF04F0023A93
:1009500001380F0B02260138F00B016E00380F0B27
:1009600001260038F00B006E0E84D89002BE7AEF9C
:1009700004F00036013602360E2A02BE7AEF04F089
:100980000036013602360E2A02BE7AEF04F0003637
:10099000013602360E2A7AEF04F001C002F000C0E0
:1009A00001F0006A000E0E960E880264FAEF04F061
:1009B000F00E0214D8A4E5EF04F0023A01380F0B50
:1009C00002260138F00B016E0E84D89002BE7AEF39
:1009D00004F0013602360E2A02BE7AEF04F0013628
:1009E00002360E2A02BE7AEF04F0013602360E2AD3
:1009F0007AEF04F001C002F0016A000E0E86026474
:100A00002CEF05F0F00E0214D8A409EF05F0023A1D
:100A10000E84D89002BE7AEF04F002360E2A02BE8F
:100A20007AEF04F002360E2A02BE7AEF04F00236A4
:100A30000E2A7AEF04F0010E0C6EDBEC00F030EFC2
:100A400005F0020E0C6E7DEC00F030EF05F0040EA8
:100A50000C6E33DE30EF05F0080E0C6E11EC01F079
:100A600012000B1E0A1E091E081E082AD8B4092AE5
:100A7000D8B40A2AD8B40B2A12000450085E0550D4
:100A8000D8A0053C095E0650D8A0063C0A5E075077
:100A9000D8A0073C0B5E0336070E0C6E03340836F5
:100AA00009360A360B36045003A00ED0085E0550F6
:100AB000D8A0053C095E0650D8A0063C0A5E075047
:100AC000D8A0073C0B5E0DD008260550D8B0053CD9
:100AD00009260650D8B0063C0A260750D8B0073C75
:100AE0000B2603360C2EDAD70234083609360A36BE
:100AF0000B36045003A00ED0085E0550D8A0053C6C
:100B0000095E0650D8A0063C0A5E0750D8A0073CF4
:100B10000B5E0DD008260550D8B0053C09260650BE
:100B2000D8B0063C0A260750D8B0073C0B26023640
:100B3000070E0C6E0234083609360A360B3604509E
:100B400002A00ED0085E0550D8A0053C095E0650F4
:100B5000D8A0063C0A5E0750D8A0073C0B5E0DD01B
:100B600008260550D8B0053C09260650D8B0063CEA
:100B70000A260750D8B0073C0B2602360C2EDAD7CF
:100B80000134083609360A360B36045002A00ED05E
:100B9000085E0550D8A0053C095E0650D8A0063C6A
:100BA0000A5E0750D8A0073C0B5E0DD00826055002
:100BB000D8B0053C09260650D8B0063C0A26075096
:100BC000D8B0073C0B260136070E0C6E01340836F0
:100BD00009360A360B36045001A00ED0085E0550C7
:100BE000D8A0053C095E0650D8A0063C0A5E075016
:100BF000D8A0073C0B5E0DD008260550D8B0053CA8
:100C000009260650D8B0063C0A260750D8B0073C43
:100C10000B2601360C2EDAD70034083609360A3690
:100C20000B36045001A00ED0085E0550D8A0053C3C
:100C3000095E0650D8A0063C0A5E0750D8A0073CC3
:100C40000B5E0DD008260550D8B0053C092606508D
:100C5000D8B0063C0A260750D8B0073C0B26003611
:100C6000070E0C6E0034083609360A360B3604506F
:100C700000A00ED0085E0550D8A0053C095E0650C5
:100C8000D8A0063C0A5E0750D8A0073C0B5E0DD0EA
:100C900008260550D8B0053C09260650D8B0063CB9
:100CA0000A260750D8B0073C0B2600360C2EDAD7A0
:100CB00000B00ED0045008260550D8B0053C0926D7
:100CC0000650D8B0063C0A260750D8B0073C0B2681
:100CD00012000B6A0B86FF0E1200830EC2163DC374
:100CE00000F000360090003600900050C2122ADD5D
:100CF000C282C2A201D0FDD7C4CF01F0006AC350A6
:100D00000012000E011212000301436B446B3DC33D
:100D100045F33EC346F3800E3E19006E800E005C24
:100D200002E1000E3D5D0BE2010E436F000E446FC9
:100D30003D510008456F3EC346F3000E465745C37C
:100D400047F346C348F33FC349F340C34AF385EC36
:100D500001F0060E416F000E426F000E006E425110
:100D6000005C02E14151000819E241513F25E16E6A
:100D700042514021E26E010E415D006E000E42596B
:100D8000016E00503F25E96E01504021EA6EEECF22
:100D9000E6FF010E415F000E425BDFD73FC3E1FF7C
:100DA00040C3E2FF200EE66E435144111AE0416B4E
:100DB000426B41513F25E96E42514021EA6EEE50AF
:100DC000200A03E1414B422BF4D7010E415F000E94
:100DD000425B41513F25E16E42514021E26E2D0EB2
:100DE000E66E12000B6A0350D8B438EF07F00250D9
:100DF0000A6E028E8E0E035E03AE3CEF07F0036CAC
:100E0000080E035CD8A017EF07F0036E013602C08E
:100E100001F0026A080E035CD8A017EF07F0036E1A
:100E20000136016A0350D8A4D89021EF07F003508F
:100E3000D8B421EF07F0D89002320132032E1BEF15
:100E400007F00BBC01A02EEF07F0D8A02EEF07F0A3
:100E5000012AD8B4022A02BE4BEF07F00AAE51EFC6
:100E600007F0021E011E012AD8B4022A51EF07F032
:100E7000026A016A51EF07F00B800BAE55EF07F0E5
:100E8000026A0AAE55EF07F0FF0E026E016E0A36D7
:100E9000023255EF07F0010E0C6E77EC01F057EFC0
:100EA00007F0000E0C6E57EF07F0FF0E0C6E0150AE
:100EB000006E0250016E12000050086E0150006E6C
:100EC000016A026A036A0B6A0C6A960E036E0A6A6A
:100ED00000C001F008C000F0086A026A69EC03F083
:100EE000120003013DB102D08B9201D08B823DB341
:100EF00002D08B9401D08B843DB502D08B9601D06B
:100F00008B863DB702D08B9801D08B883DB902D03B
:100F10008B9A01D08B8AE9C247F3EAC248F318ECF6
:100F200001F012000201E151040A010ED8A4000EE2
:100F3000016EE151050A010ED8A4000E006E0150A9
:100F400000120DE03EC347F33DC348F33FC349F3EE
:100F500040C34AF341C34BF3CEEC01F05DD0E15105
:100F6000020A010ED8A4000E016EE151030A010E1F
:100F7000D8A4000E006E0150001214E0070E030109
:100F80003E03F3CF47F3040E47273DC348F34837EA
:100F900048913FC349F340C34AF341C34BF3CEECFE
:100FA00001F03AD0D96B3DC300F000360090003616
:100FB00000900050080F0301476FA7EC03F03EC3F9
:100FC00047F3A7EC03F0010ED96F0301426B4151C7
:100FD000425D22E242513F25E96E000E4021EA6E59
:100FE000EECF01F001C047F34733479F4733479F98
:100FF0004733479F4733479FA7EC03F00301425114
:101000003F25E96E000E4021EA6EEECF47F3A7ECD4
:1010100003F00301422BDBD71200086A096A000EB5
:101020000762036492EF08F0025006180A6E075038
:1010300003267E0ED8A023EF08F0035ED8B097EF0A
:1010400008F027EF08F0035ED8A09CEF08F0028EAE
:10105000068E02C00EF001C00BF000C00DF0005073
:101060000402F4CF0CF001500502F4CF00F0F3CFEE
:1010700008F00402F3500C26F4500822000E00225F
:101080000D500502F3500C26F4500822000E0022E9
:1010900002500402F3500826F450002202500502C8
:1010A000016A000E0122F3500026F45001220D5077
:1010B0000602F3500826F4500022026A000E0122B4
:1010C00002220B500602F3500026F4500122000EBB
:1010D00002220E500602F3500126F450022202BEF4
:1010E0007AEF08F008360036013602360306D8B427
:1010F0009CEF08F08DEF08F0D880800E0864003077
:10110000000E002201220222D8A08DEF08F0023248
:1011100001320032034A97EF08F00AAE029E000E39
:101120009FEF08F0010E11EC01F09FEF08F0020EA6
:101130005DEC03F09FEF08F0040EDBEC00F0120012
:10114000025006180E6E086A096A0B6A035007649B
:1011500093EF09F006500A6E068E028E03500B6E56
:101160000750036E000E0B64E3EF08F00B50075EB0
:10117000D8B484EF09F0070E076452EF09F0075E58
:1011800000C008F001C000F002C001F0026A074E82
:1011900084EF09F0076427EF09F0075E00C008F04C
:1011A00001C000F0016A074E84EF09F0076405EF03
:1011B00009F0075E00C008F0006A074E84EF09F0EE
:1011C0000764ECEF08F00AC002F005C001F004C0AB
:1011D00000F0086AB0EF0AF0030E0764F7EF08F0BA
:1011E000075E08380F0B086E074E84EF09F0D890A1
:1011F0000832074E84EF09F0D8900832074E84EF8A
:1012000009F0D890083284EF09F0030E076416EF56
:1012100009F0075E08380F0B086E0038F00B08263F
:1012200000380F0B006E074E84EF09F0D8900032A3
:101230000832074E84EF09F0D89000320832074E8A
:1012400084EF09F0D8900032083284EF09F0030EE1
:1012500007643EEF09F0075E08380F0B086E003890
:10126000F00B082600380F0B006E0138F00B00263B
:1012700001380F0B016E074E84EF09F0D890013250
:1012800000320832074E84EF09F0D8900132003264
:101290000832074E84EF09F0D8900132003208324C
:1012A00084EF09F0030E07646FEF09F0075E08385A
:1012B0000F0B086E0038F00B082600380F0B006E7D
:1012C0000138F00B002601380F0B016E0238F00BCD
:1012D000012602380F0B026E074E84EF09F0D890FA
:1012E0000232013200320832074E84EF09F0D89002
:1012F0000232013200320832074E84EF09F0D890F2
:101300000232013200320832096A000E0EAE78EF66
:101310000AF0081E001E011E021E082A00220122D9
:10132000022278EF0AF00750D8A499EF09F0B0EF45
:101330000AF0096A02C00AF0028E068E0750035CAA
:10134000076ED8B46BEF0AF0070E076439EF0AF0A6
:10135000075E0450096E0550046E0650056E066A5D
:10136000074E6BEF0AF0070E07640EEF0AF0075EF8
:101370000450096E0550046E056A074E6BEF0AF0C3
:10138000070E0764ECEF09F0075E0450096E046A6B
:10139000074E6BEF0AF0070E0764D3EF09F00AC09F
:1013A00002F0B0EF0AF0030E0764DEEF09F0075E0B
:1013B00009380F0B096E074E6BEF0AF0D89009320F
:1013C000074E6BEF0AF0D8900932074E6BEF0AF028
:1013D000D89009326BEF0AF0030E0764FDEF09F0B5
:1013E000075E09380F0B096E0438F00B0926043824
:1013F0000F0B046E074E6BEF0AF0D89004320932DF
:10140000074E6BEF0AF0D89004320932074E6BEFAB
:101410000AF0D890043209326BEF0AF0030E076429
:1014200025EF0AF0075E09380F0B096E0438F00B40
:10143000092604380F0B046E0538F00B0426053816
:101440000F0B056E074E6BEF0AF0D8900532043291
:101450000932074E6BEF0AF0D89005320432093298
:10146000074E6BEF0AF0D8900532043209326BEF69
:101470000AF0030E076456EF0AF0075E09380F0BF7
:10148000096E0438F00B092604380F0B046E05387A
:10149000F00B042605380F0B056E0638F00B0526F9
:1014A00006380F0B066E074E6BEF0AF0D890063227
:1014B000053204320932074E6BEF0AF0D89006323B
:1014C000053204320932074E6BEF0AF0D89006322B
:1014D000053204320932086A000E0EAE78EF0AF0C7
:1014E000091E041E051E061E092A042205220622C4
:1014F00009500826045000220550012206500222FD
:101500000EBE8FEF0AF0D8A09EEF0AF00232013231
:1015100000320832033E9EEF0AF0AAEF0AF0D8B07C
:10152000A4EF0AF0000E081E001E011E021E082A6B
:101530000022012202220A7EA4EF0AF0010E0C6EA4
:101540003DEC04F0B2EF0AF0020E0C6E3DEC04F03C
:10155000B2EF0AF0040E0C6E5DEC03F0B2EF0AF08D
:10156000000E0C6E12000201D56B116B03013D6B76
:101570001DEC04F011C23DF3B4DCE9C247F3EAC24A
:1015800048F318EC01F01200010E03013D6F6DEC01
:1015900006F092DC890E046E410E056E1C0E066E7E
:1015A000810E076E3ADD1EDC12000450000A12E1C3
:1015B0000550000A0FE10650000A0CE10750000A2E
:1015C00009E1FF0E006EFF0E016E7F0E026EFF0E30
:1015D000036EA8D0086A096A0750D8B480EF0BF0F0
:1015E0000350D8B485EF0BF0025006180A6E028E35
:1015F000068E0E6A02C008F001C00CF000C00DF0AB
:1016000004500D5E0550D8A0053C0C5E0650D8A0D5
:10161000063C085E086A0C6A0D6AD8A017EF0BF04A
:10162000D8900232013200320832010E0E6E07509D
:10163000035ED8A024EF0BF07E0E0E240326D8B054
:101640008AEF0BF02AEF0BF07E0E0E240326D8A0B3
:101650008FEF0BF0180E0B6E0D360C360836003679
:10166000013602360E360450005E0550D8A0053C07
:10167000015E0650D8A0063C025E06340E120EA093
:1016800045EF0BF00D8050EF0BF004500026055095
:10169000D8B0053C01260650D8B0062802260D9089
:1016A0000B2E2CEF0BF076EF0BF0D89000360136B6
:1016B00002360E360450005E0550D8A0053C015E8F
:1016C0000650D8A0063C025E06340E10010B0D2613
:1016D000D8B00C2AD8B4082AD8A476EF0BF0083278
:1016E0000C320D32032AD8B48AEF0BF00AAE089EF2
:1016F0000850026E0C50016E0D50006E92EF0BF010
:10170000010E69EC06F092EF0BF0020E11EC01F005
:1017100092EF0BF0040E5DEC03F092EF0BF0080E6D
:10172000DBEC00F0120004000201D551D419000EC8
:10173000D8A4010E016ED651D319000ED8A4010E03
:10174000006E01500012D8B424D1D5C2D4F20301E6
:10175000096B0A6B0201D5A105D0030107510927C6
:1017600008510A230201D5A305D003010D51092711
:101770000E510A230201D5A505D003010B510927FB
:101780000C510A230201D5A705D0030105510927F1
:1017900006510A230201D5A905D0030103510927E7
:1017A00004510A230201FF51000A000ED8A4010EC1
:1017B000016EFF51010A000ED8A4010E006E015007
:1017C0000016D8B487D009C33DF30AC33EF3F20E26
:1017D00003013F6F020E406F84EC06F00201F451EA
:1017E000200A03E0F4C2EBF202D0300EEB6F2E0EB3
:1017F000EC6FF551200A03E0F5C2EDF202D0300E95
:10180000ED6FF651200A03E0F6C2EEF202D0300E80
:10181000EE6FFF51040A010ED8A4000E016EFF51B5
:10182000050A010ED8A4000E006E0150001229E036
:10183000D651010A04E1040E03013B6F03D00301FA
:10184000060E3B6F0201D651D3190DE03BC33DF3A9
:10185000100E03013E6FB80E3F6F020E406F080E70
:10186000416F92EC07F03BC33DF3280E03013E6F3E
:10187000EB0E3F6F020E406F040E416F92EC07F0CB
:1018800028D00201D651010A03E103013B6B03D0CA
:101890000301010E3B6F0201D651D3190DE03BC38A
:1018A0003DF3090E03013E6FAF0E3F6F020E406F16
:1018B000080E416F92EC07F03BC33DF30B0E0301A2
:1018C0003E6FEB0E3F6F020E406F040E416F92ECC5
:1018D00007F05FD00201FF51000A5BE007C300F090
:1018E00008C301F001320032019E01BC018E01AE3D
:1018F00003D002E3004A012A0301095100260A51DC
:10190000012200C009F301C00AF300C03DF301C089
:101910003EF3F20E3F6F020E406F84EC06F00201C0
:10192000F451200A03E0F4C2EBF202D0300EEB6F68
:101930002E0EEC6FF551200A03E0F5C2EDF202D055
:10194000300EED6FD651010A03E103013B6B03D06A
:101950000301010E3B6F0201D651D3190DE03BC3C9
:101960003DF3090E03013E6FCB0E3F6F020E406F39
:10197000070E416F92EC07F03BC33DF30B0E0301E2
:101980003E6FEB0E3F6F020E406F030E416F92EC05
:1019900007F002011151CA19000ED8A4010E016E00
:1019A000D651D319000ED8A4010E006E01500012BA
:1019B000D8B4ECD011C2CAF20301096B0A6B020160
:1019C00011A105D003011751092718510A2302015B
:1019D00011A305D003011551092716510A2302014D
:1019E00011A505D003011151092712510A23020143
:1019F00011A705D003010F51092710510A23020135
:101A000011A905D003011351092714510A2302011A
:101A1000FF51000A000ED8A4010E016EFF51010A09
:101A2000000ED8A4010E006E01500016D8B475D077
:101A300009C33DF30AC33EF3F20E03013F6F020EEA
:101A4000406F84EC06F0F4C2EBF2F5C2ECF2F6C2A1
:101A5000EDF2F7C2EEF20201FF51040A010ED8A422
:101A6000000E016EFF51050A010ED8A4000E006E93
:101A70000150001229E0D651010A04E1060E0301CB
:101A80003B6F03D00301040E3B6F0201D651D31903
:101A90000DE03BC33DF3100E03013E6FC10E3F6FDF
:101AA000020E406F080E416F92EC07F03BC33DF30E
:101AB000280E03013E6FEB0E3F6F020E406F040EC7
:101AC000416F92EC07F028D00201D651010A04E1DF
:101AD000010E03013B6F02D003013B6B0201D651A3
:101AE000D3190DE03BC33DF3090E03013E6FFC0E1D
:101AF0003F6F010E406F080E416F92EC07F03BC341
:101B00003DF30B0E03013E6FEB0E3F6F020E406F75
:101B1000040E416F92EC07F039D009C33DF30AC3BC
:101B20003EF3F20E03013F6F020E406F84EC06F0AD
:101B3000F5C2EBF2F6C2ECF2F7C2EDF20201D651B9
:101B4000010A04E1010E03013B6F02D003013B6B6C
:101B50000201D651D3190DE03BC33DF3090E030139
:101B60003E6FD60E3F6F000E406F070E416F92EC36
:101B700007F03BC33DF30B0E03013E6FEB0E3F6FCF
:101B8000020E406F030E416F92EC07F00400D6C2C4
:101B9000D3F202015D51000AD8A488D0FF51040A93
:101BA000010ED8A4000E016EFF51050A010ED8A443
:101BB000000E006E015000123BE00001D553010EF3
:101BC000D8A4000E006E0201565100160DE003016C
:101BD0003D6B700E3E6FD30E3F6F000E406F010ED7
:101BE000416F92EC07F023D002015653010ED8A4A6
:101BF000000E006E0001D55100160DE003013D6B93
:101C0000700E3E6FE20E3F6F000E406F010E416F8F
:101C100092EC07F00CD003013D6B700E3E6FE00EAE
:101C20003F6F000E406F010E416F92EC07F03ED007
:101C30000201FF51000A3AE00001D553010ED8A479
:101C4000000E006E0201565100160DE003013D6BBF
:101C5000080E3E6FDE0E3F6F000E406F010E416FAB
:101C600092EC07F023D002015653010ED8A4000EC7
:101C7000006E0001D55100160DE003013D6B080E0A
:101C80003E6FD10E3F6F000E406F010E416F92EC20
:101C900007F00CD003013D6B080E3E6FCF0E3F6F77
:101CA000000E406F010E416F92EC07F0040012002D
:101CB000030E0C6E950E0D6E0D2EFED70C2EFCD75E
:101CC0001200A6A202D00000FCD7A69C3BC3A9FF2D
:101CD0003CC3A8FFA69EA684F2CF00F0F29E550E4C
:101CE000A76EAA0EA76EA68200BE02D0F29E01D0F9
:101CF000F28EA694A1B802D00000FCD7A1981200E1
:101D00003BC300F03CC301F0030E046E000E056EF1
:101D1000F5EC03F000C03BF301C03CF3800E026E13
:101D2000800E0118025C02E10050500803E3006AD3
:101D3000016ABCD0800E006E800E03013C19005C6D
:101D400002E13B51AB0805E3F40E3B27000E3C23B8
:101D5000A9D0800E010A006E800E3C19005C02E1E1
:101D60003B51480805E3FE0E3B27000E3C239AD06A
:101D7000800E020A006E800E3C19005C02E13B51AD
:101D8000460805E3180E3B27010E3C238BD0800E3E
:101D9000030A006E800E3C19005C02E13B513408DE
:101DA00005E3290E3B27010E3C237CD0800E040A5C
:101DB000006E800E3C19005C02E13B514C0805E3CB
:101DC000360E3B27010E3C236DD0800E080A006EB4
:101DD000800E3C19005C02E13B51850805E3AE0E24
:101DE0003B27010E3C235ED0800E0C0A006E800E55
:101DF0003C19005C02E13B51FA0805E3E40E3B2785
:101E0000010E3C234FD0800E120A006E800E3C194A
:101E1000005C02E13B510F0805E3120E3B27020E66
:101E20003C2340D0800E160A006E800E3C19005CE8
:101E300002E13B51E60805E3880E3B27020E3C23F6
:101E400031D0800E1B0A006E800E3C19005C02E14E
:101E50003B51EA0805E3E70E3B27020E3C2322D064
:101E6000800E210A006E800E3C19005C02E13B519D
:101E7000360805E3340E3B27030E3C2313D0800EB7
:101E8000290A006E800E3C19005C02E13B510408F7
:101E900005E3840E3B27030E3C2304D0520E3B2760
:101EA000030E3C233BC300F03CC301F0120000C012
:101EB00008F00150006E016A026A036A0B6A0C6A3C
:101EC000016A026A036A960E036E0A6A00AE6FEF39
:101ED0000FF0081E001E082AD8B4002A0A8E00C07F
:101EE00001F008C000F0086A026A69EC03F0120011
:101EF0000450000A12E10550000A0FE10650000AE2
:101F00000CE10750000A09E1FF0E006EFF0E016EA2
:101F1000FF0E026E7F0E036E99D00C6A07BE0C2A6C
:101F20000D6A0B6A0A6A096A086A035002100110F6
:101F30000010D8B485D0035007180E6E0EBE0D1ECB
:101F400007AE0BD0041E051E061E071E042AD8B4B9
:101F5000052AD8B4062AD8B4072A03AE0BD0001E2F
:101F6000011E021E031E002AD8B4012AD8B4022A78
:101F7000D8B4032A035007100E6E0EBE1DD03DECE0
:101F800005F00CBE36D00DAE5BD0001E011E021E49
:101F9000031E002AD8B4012AD8B4022AD8B4032ACE
:101FA000081E091E0A1E0B1E082AD8B4092AD8B416
:101FB0000A2AD8B40B2A44D007AE15D003BE0DD0E0
:101FC00003500B6E02500A6E0150096E0050086EED
:101FD000036A026A016A006AD6D7036A026A016A62
:101FE000006A002A000C031E021E011E001E0C8E39
:101FF000C6D7082AD8B4092AD8B40A2AD8B40B2AD2
:102000000450085CD8A4BFD70550095CD8A4BBD73E
:1020100006500A5CD8A4B7D707500B5CD8A4B3D736
:102020000B6A0A6A096A086A002AD8B4012AD8B475
:10203000022AD8B4032A03AEA6D70E6A0E88FF0C74
:102040000E6A0CA002D031EC05F0000F1200030163
:102050003D6B6DEC06F05CEC07F0890E046E410EF2
:10206000056E1C0E066E810E076E0DEC08F0F2EC8C
:1020700006F012000400EBDF00C02FF301C030F3C4
:10208000000E01BEFF0E0301316F326FC4EC0AF087
:1020900000C033F301C034F3000E01BEFF0E030194
:1020A000356F366F2FC33BF330C33CF329DEFFDEC1
:1020B00000C037F301C038F302C039F303C03AF36C
:1020C000800E03013619006E800E3219005C08E1A3
:1020D0003151355D05E13051345D02E12F51335D01
:1020E00008E3E70E2F6F030E306F000E316F326F73
:1020F00044D033512F25006E34513021016E3551BB
:102100003121026E36513221036E640E046E000ED0
:10211000056E066E076EE8EC00F02FC304F030C3C6
:1021200005F031C306F032C307F03351045E345179
:10213000055A3551065A3651075ADADE00C02FF3D8
:1021400001C030F302C031F303C032F3800E046EDD
:10215000800E0318045C08E10250000805E10150FC
:10216000030802E10050E70808E2E70E03012F6FC1
:10217000030E306F000E316F326F37C300F038C37B
:1021800001F039C302F03AC303F0000E046E000EF2
:10219000056E200E066E820E076E0DEC08F0000E26
:1021A000046E000E056E7A0E066E880E076ED5EC74
:1021B0000AF000C037F301C038F302C039F303C09E
:1021C0003AF3F40E046EFD0E056E340E066E7F0EAD
:1021D000076ED5EC0AF000C037F301C038F302C037
:1021E00039F303C03AF300C004F001C005F002C0A7
:1021F00006F003C007F00DEC08F0000E046E000EB0
:10220000056E200E066E810E076ED5EC0AF000C03A
:1022100037F301C038F302C039F303C03AF3000EBC
:10222000046E000E056E000E066E7E0E076EA0ECAC
:1022300008F000C037F301C038F302C039F303C01F
:102240003AF3F2EC06F000C0FDF201C0FEF2800E9F
:102250000118026E800E025C02E10A0E005C06E2CA
:10226000010E0201FB6F000EFC6F1AD0800E0301FD
:102270003219006E800E005C08E1000E315D05E150
:10228000000E305D02E1640E2F5D06E2E70E0201F2
:10229000FB6F030EFC6F04D02FC3FBF230C3FCF2C4
:1022A00012000134083609360450085E0550D8A0E3
:1022B000053C095E003601360F0E0C6E01340836FF
:1022C0000936045000A006D0085E0550D8A0053C91
:1022D000095E05D008260550D8B0053C0926003611
:1022E00001360C2EEBD700B006D00450082605505E
:1022F000D8B0053C0926000012000301356B31C33C
:1023000001F0010E006E015004E000360090FF0F56
:10231000FBD700C034F32FC3E9FF30C3EAFF0050FE
:10232000EE14016E0152010ED8A4000E006E33515E
:10233000001A18E03251000804E2BADCB9DC3207B6
:10234000F9D72FC3E9FF30C3EAFF3451EE14016E11
:102350000152010ED8A4000E006E3351001A02E0A3
:10236000FF0E356F35C300F01200030130515218D3
:1023700002E151502F19D8B472D02FC351F030C39D
:1023800052F0800E3019006E800E005C02E1640E87
:102390002F5D1BE3050E2F25006E000E3021016E10
:1023A00000C02FF301C030F300C03DF301C03EF385
:1023B000F20E3F6F020E406F84EC06F0F4C2EBF2B7
:1023C000F5C2ECF2F6C2EDF21DD02FC33DF330C3DF
:1023D0003EF3F20E3F6F020E406F84EC06F00201F6
:1023E000F651200A03E0F6C2EBF202D0300EEB6F9A
:1023F0002E0EEC6FF751200A03E0F7C2EDF202D087
:10240000300EED6F0201FF51040A010ED8A4000E38
:10241000016EFF51050A010ED8A4000E006E015096
:1024200000120DE003013D6B400E3E6FEB0E3F6F5F
:10243000020E406F030E416F92EC07F010D00201C4
:10244000FF51000A0CE003013D6B040E3E6FEB0EE2
:102450003F6F020E406F030E416F92EC07F01200C7
:10246000B3EC0AF0FF0E3B6F3C6B2BDCFE0E03015E
:102470003B6F3C6B26DCFD0E03013B6F3C6B21DCAC
:1024800093EC0BF00201FF51000A02E18A8C8A8E64
:10249000899E89868B908B9C8B9EFB6BFC6BFD6B66
:1024A000FE6B586B596BFF51040A010ED8A4000E45
:1024B000016EFF51050A010ED8A4000E006E0150F6
:1024C000001237E0020E03013D6F100E3E6FF60E54
:1024D0003F6F000E406F080E416F92EC07F0040052
:1024E0000D0E0B6E2D0E0C6ED70E0D6E0D2EFED733
:1024F0000C2EFCD70B2EFAD700000000020E0301B1
:102500003D6F100E3E6FED0E3F6F000E406F080ED8
:10251000416F92EC07F003013D6B100E3E6FE40E2D
:102520003F6F000E406F080E416F92EC07F0040001
:1025300037D00201FF51000A33E0010E03013D6F65
:102540003E6B110E3F6F010E406F080E416F92EC13
:1025500007F004000D0E0B6E2D0E0C6ED70E0D6ED7
:102560000D2EFED70C2EFCD70B2EFAD70000000044
:10257000010E03013D6F3E6B080E3F6F010E406F71
:10258000080E416F92EC07F003013D6B3E6BFF0EAE
:102590003F6F000E406F080E416F92EC07F0040091
:1025A000120068DD02014151640A10E0412B800EE7
:1025B0004019006E800EFE19005C02E1FD513F5D86
:1025C00004E2FDC23FF2FEC240F209D0416B3FC2BD
:1025D0002FF340C230F3C9DE02013F6B406B0201B2
:1025E000800EFE19026E800EE619025C02E1E551D2
:1025F000FD5D010ED8B0000E026E800EE819016E6E
:10260000800EFE19015C02E1FD51E75D010ED8B0BC
:10261000000E016E800E006E800EE819005C02E173
:10262000E7510008010ED8B0000E006E01500016F0
:10263000025000124BE004001DDD02014151640A0A
:1026400010E0412B800E4019006E800EFE19005CD8
:1026500002E1FD513F5D04E2FDC23FF2FEC240F2E5
:1026600009D0416B3FC22FF340C230F37EDE02013E
:102670003F6B406B810E03012F6F0F0E306F316B7C
:10268000050E326F010E336F38DE005203E0010E8B
:102690000201426F02014251010A010ED8A4000E4C
:1026A00003012E6F810E2F6F0F0E306F316B050EF1
:1026B000326F336B22DE2E51001607E0D1DE0201AD
:1026C000FB6BFC6B006A016A05D089D7FBC200F086
:1026D000FCC201F012000450000A08E10550000A93
:1026E00005E1FF0E006E7F0E016E57D00D6A096A7C
:1026F000086A01500010D8B4000C015005180A6E89
:102700000ABE0D1E0B6A05AE05D0041E051E042A66
:10271000D8B4052A01AE05D0001E011E002AD8B487
:10272000012A015005100A6E0ABE10D0BADD0BB0A6
:1027300020D00DAE000C001E011E002AD8B4012AC4
:10274000081E091E082AD8B4092A000C05AE0DD0AF
:1027500001BE07D00150096E0050086E016A006A80
:10276000E8D7016A006A002A000C011E001E0B2A2D
:10277000DDD7082AD8B4092A0450085CD8A4D9D7D0
:102780000550095CD8A4D5D7096A086A002AD8B4CC
:10279000012A01AECED70000FF0C1200030E030188
:1027A0002B6F0201116B03013D6B71EC07F0F9DE39
:1027B00000C02CF301C02DF32CC3FBF22DC3FCF29F
:1027C000140E046E000E056E2CC300F02DC301F034
:1027D00082DF005003012C25296F01502D212A6F23
:1027E0002BC328F328511F084CE328C33DF371EC99
:1027F00007F0D7DE00C0FBF201C0FCF2800E01182A
:10280000026E800E03012A19025C02E12951005C6C
:1028100036E2140E046E000E056EFBC200F0FCC220
:1028200001F059DF00500201FB250301296F01501F
:102830000201FC2103012A6F28C311F22BC310F2FD
:10284000800E0201FC19006E800E005C02E1780E21
:10285000FB5D01E216D003012B512825016E01C05A
:1028600028F30150090A03E1080E286F07D0285108
:10287000110A04E1100E286F040E2B6F01D001D055
:10288000B1D711C23DF371EC07F0120010C222F370
:10289000020110511125016E01C024F301501F08DF
:1028A00003E21F0E0301246F020111510301225D97
:1028B00006E222510201115D0301256F01D0256B53
:1028C00025C311F225C33DF371EC07F06ADE00C0A9
:1028D000FBF201C0FCF2000E011802E1000E00182C
:1028E00001E17BD0FBC226F3FCC227F30301255193
:1028F000010F236F2351245DD8A06BD023C33DF378
:1029000071EC07F04EDE00C0FBF201C0FCF2000EDD
:10291000011802E1000E001801E15FD0800E0201F3
:10292000FC19006E800E03012719005C03E126519B
:102930000201FB5D0FE3340E0C6EF10E0D6E0D2ED9
:10294000FED70C2EFCD7000000002BDE00C0FBF2EF
:1029500001C0FCF2800E0201FC19006E800E030122
:102960002719005C03E126510201FB5D0FE3340EE1
:102970000C6EF10E0D6E0D2EFED70C2EFCD7000046
:1029800000000FDE00C0FBF201C0FCF2800E02016D
:10299000FC19006E800E03012719005C03E126512B
:1029A0000201FB5D12E20201FBC226F3FCC227F327
:1029B00023C311F2800EFC19006E800E005C02E150
:1029C000780EFB5D01E205D001D003D00301232B7B
:1029D00091D711C23DF371EC07F01200CEC022F383
:1029E0000001CE510201D525016E01C024F3015032
:1029F0001F0803E21F0E0301246F0201D5510301DA
:102A0000225D06E222510201D55D0301256F01D04E
:102A1000256B25C3D5F225C33DF31DEC04F0C1DDC4
:102A200000C0FBF201C0FCF2000E011802E1000E32
:102A3000001801E17BD0FBC226F3FCC227F303019F
:102A40002551010F236F2351245DD8A06BD023C3E0
:102A50003DF31DEC04F0A5DD00C0FBF201C0FCF26B
:102A6000000E011802E1000E001801E15FD0800E97
:102A70000201FC19006E800E03012719005C03E1BE
:102A800026510201FB5D0FE3340E0C6EF10E0D6E4C
:102A90000D2EFED70C2EFCD70000000082DD00C0FA
:102AA000FBF201C0FCF2800E0201FC19006E800EE8
:102AB00003012719005C03E126510201FB5D0FE3CE
:102AC000340E0C6EF10E0D6E0D2EFED70C2EFCD7B3
:102AD0000000000066DD00C0FBF201C0FCF2800EC9
:102AE0000201FC19006E800E03012719005C03E14E
:102AF00026510201FB5D12E20201FBC226F3FCC279
:102B000027F323C3D5F2800EFC19006E800E005C03
:102B100002E1780EFB5D01E205D001D003D0030194
:102B2000232B91D7D5C23DF31DEC04F01200030E08
:102B30000301276F236B27C3CEF0030E246F140EFF
:102B4000046E000E056EFBC200F0FCC201F0C3DD96
:102B500000500201FB250301256F01500201FC21F9
:102B60000301266F27C322F322511F0851E322C31A
:102B70003DF31DEC04F012DE14DD00C0FBF201C0D9
:102B8000FCF2800E0118026E800E03012619025C11
:102B900002E12551005C3AE2140E046E000E056E4F
:102BA000FBC200F0FCC201F096DD00500201FB25E3
:102BB0000301256F01500201FC210301266F22C38E
:102BC000D5F211C223F327C3CEF010C224F3800E36
:102BD0000201FC19006E800E005C02E1780EFB5DC4
:102BE00001E216D0030127512225016E01C022F314
:102BF0000150090A03E1080E226F07D02251110A81
:102C000004E1100E226F040E276F01D001D0ACD763
:102C100023C311F2D5C23DF31DEC04F011C23DF304
:102C200071EC07F024C310F2340E0C6EF10E0D6E31
:102C30000D2EFED70C2EFCD7000000001200030161
:102C400022B102D0899C01D0898CE9C247F3EAC243
:102C500048F318EC01F01200810E03012F6F0F0EE4
:102C6000306F316B320E326F336B7DEC11F000C080
:102C700022F3810E2F6F0F0E306F040E316F320E64
:102C8000326F336B7DEC11F000502213810E2F6FE9
:102C90000F0E306F050E316F320E326F336B7DECDD
:102CA00011F02251001203E0010E02015C6F1200CC
:102CB0000400030123510201061903E10551030138
:102CC0002219D8B484D0030122C305F223C306F22B
:102CD000000E231902E1010E221933E10201FF5116
:102CE000040A010ED8A4000E016EFF51050A010E60
:102CF000D8A4000E006E015000120EE0020E030177
:102D00003D6F400E3E6F430E3F6F020E406F040E4C
:102D1000416F92EC07F011D00201FF51000A0DE063
:102D2000010E03013D6F040E3E6F480E3F6F020E11
:102D3000406F040E416F92EC07F00201056B066BC9
:102D400046D022C305F223C306F222C33DF323C3B8
:102D50003EF3F20E03013F6F020E406F84EC06F06B
:102D6000F5C2EBF22E0E0201EC6FF6C2EDF2F7C2E5
:102D7000EEF2FF51040A010ED8A4000E016EFF51BD
:102D8000050A010ED8A4000E006E015000120EE0DC
:102D9000020E03013D6F400E3E6FEB0E3F6F020EC1
:102DA000406F040E416F92EC07F011D00201FF5109
:102DB000000A0DE0010E03013D6F040E3E6FEB0EA5
:102DC0003F6F020E406F040E416F92EC07F004005B
:102DD000120004000201426B3F6B406B416BD1EC6F
:102DE00012F0800E0201FC19006E800E005C02E100
:102DF0006E0EFB5D01E263D1B3EC0AF093EC0BF0D5
:102E0000020E0B6E040E0C6EBA0E0D6E0D2EFED75A
:102E10000C2EFCD70B2EFAD70000D1EC12F0800E4E
:102E20000201FC19006E800E005C02E16E0EFB5D7B
:102E300001E245D1800E016E800EE419015C02E1D1
:102E4000E3516E08010ED8B0000E016E800EE41939
:102E5000006E800EFC19005C02E1FB51E35D010E87
:102E6000D8B0000E006E0150001601E028D1FBC260
:102E70001CF3FCC21DF35BDE000E0201FC1902E133
:102E8000000EFB1903E1B3EC0AF019D1D1EC12F0FA
:102E9000800E0201FC19006E800E005C02E1780ECB
:102EA000FB5D01E20CD19ADD000E0201FC1902E18A
:102EB000000EFB1903E1B3EC0AF001D1D1EC12F0E2
:102EC000800E0201FC19006E800E005C02E1780E9B
:102ED000FB5D01E2F4D0DADC000E0201FC1902E134
:102EE000000EFB1903E1B3EC0AF0E9D0D1EC12F0CB
:102EF000800E0201FC19006E800E005C02E1780E6B
:102F0000FB5D01E2DCD0800EFC19016E800E015CDD
:102F100002E1C80EFB5D010ED8B0000E016E800EFE
:102F2000FC19006E800E03011D19005C03E11C51A9
:102F30000201FB5D0201010ED8B0000E006E0050D0
:102F40000114036EFB5103011C5D016E0201FC5173
:102F500003011D59026E800E006E800E0218005C87
:102F600002E101506408010ED8B0000E006E03505B
:102F7000001601E0A4D0FBC21CF3FCC21DF3D5C2B5
:102F80001EF3000E1F6F11C220F3000E216F02010D
:102F9000D651010A02E1D66B02D0010ED66FB3EC16
:102FA0000AF0D6C222F34BDE020E0B6E040E0C6E3C
:102FB000BA0E0D6E0D2EFED70C2EFCD70B2EFAD7A7
:102FC0000000D1EC12F0800E0201FC19006E800EA0
:102FD000005C02E1780EFB5D01E271D0A8DD000E1D
:102FE0000201FC1902E1000EFB1903E1B3EC0AF047
:102FF00066D0D1EC12F0800E0201FC19006E800E3A
:10300000005C02E1780EFB5D01E259D0E7DC000EC6
:103010000201FC1902E1000EFB1903E1B3EC0AF016
:103020004ED0D1EC12F0800E0201FC19006E800E21
:10303000005C02E1780EFB5D01E241D027DC000E6E
:103040000201FC1902E1000EFB1903E1B3EC0AF0E6
:1030500036D0D1EC12F0800E0201FC19006E800E09
:10306000005C02E1780EFB5D01E229D0800E0301D5
:103070001D19006E800E0201FC19005C03E1FB517A
:1030800003011C5D1BE20201D651010A02E1D66B6D
:1030900002D0010ED66FD6C222F3D1DD1EC3D5F207
:1030A00020C311F21EC33DF31DEC04F011C23DF329
:1030B00071EC07F01CC3FBF21DC3FCF2040012000C
:1030C00045EC00F0D7C256F30EEC00F0800E030181
:1030D000566F0EEC00F01CC356F30EEC00F0C4EC7F
:1030E00000F012000301206B216B640E015D1D6F67
:1030F000000E02591E6F0201FD6BFE6B010E5A6F2E
:10310000000E5B6F04005D5304E0280E03011F6F87
:1031100003D00301780E1F6F1C6B1F511C5D52E220
:1031200002015D51000A010ED8A4000E016E81B0AB
:1031300002D0068001D0069081B802D0D88001D09C
:10314000D89006B003D002E2069001D0068081BA82
:1031500002D0D88001D0D89006B003D002E2069009
:1031600001D00680006A06B0002A0150001607E070
:1031700073DD02015C51010A02E15C6BC3D23AECDF
:1031800010F0800E03012119006E800E0201FE195D
:10319000005C03E1FD510301205D08E2FDC220F364
:1031A000FEC221F3FBC25AF2FCC25BF2100E0C6E9F
:1031B000940E0D6E03010D2EFDD70C2EFBD70000D3
:1031C0001C2BABD7040020C3F9F221C3FAF25AC278
:1031D00022F35BC223F36CDD800E02015B19006EEB
:1031E000800E03010219005C03E1015102015A5DE6
:1031F0000201000ED8B0010E006E00505615056E8B
:10320000800E5919036E800E5B19035C02E15A515E
:10321000585D010ED8B0000E036E58515A5D016E14
:1032200059515B59026E800E03011E19006E800E0B
:103230000218005C02E101501D5D010ED8B0000EC5
:10324000006E00500314046E800E02015B19036EC1
:10325000800E5919035C02E158515A5D010ED8B035
:10326000000E036E5A51585D016E5B515959026E42
:10327000800E03011E19006E800E0218005C02E130
:1032800001501D5D010ED8B0000E006E03500016F7
:1032900000500410016E02015951030A02E1E70EC9
:1032A0005819010ED8A4000E006E015000120550EE
:1032B000001602E0010E576F5D51000A010ED8A4FE
:1032C000000E016E81B002D0068001D0069081B25E
:1032D00002D0D88001D0D89006B003D002E2069088
:1032E00001D0068081B402D0D88001D0D89006B039
:1032F00003D002E2069001D00680006A06B0002AE0
:103300000150001607E0A8DC02015C51010A02E14D
:103310005C6BF8D1F9C22FF3FAC230F3B5EC11F0BF
:1033200002015D51000A010ED8A4000E016E81B0A9
:1033300002D0068001D0069081B202D0D88001D0A0
:10334000D89006B003D002E2069001D0068081B486
:1033500002D0D88001D0D89006B003D002E2069007
:1033600001D00680006A06B0002A0150001607E06E
:1033700073DC02015C51010A02E15C6BC3D1020102
:103380000400800E050A006E800EFA19005C02E14E
:10339000F951DC08D8B0B6D1FF51040A010ED8A407
:1033A000000E016EFF51050A010ED8A4000E006E3A
:1033B00001500012D8B4C8D0020E03013D6F100EA8
:1033C0003E6F8B0E3F6F020E406F080E416F92EC06
:1033D00007F0030E0B6E080E0C6E770E0D6E0D2EA1
:1033E000FED70C2EFCD70B2EFAD7020E03013D6F31
:1033F000100E3E6F940E3F6F020E406F080E416F2D
:1034000092EC07F00B0E0B6E260E0C6E5D0E0D6E21
:103410000D2EFED70C2EFCD70B2EFAD70000000085
:103420000400020E03013D6F100E3E6FA60E3F6FAB
:10343000020E406F080E416F92EC07F0070E0B6E04
:10344000170E0C6E6A0E0D6E0D2EFED70C2EFCD7CD
:103450000B2EFAD70000020E03013D6F100E3E6FD7
:103460009D0E3F6F020E406F080E416F92EC07F009
:103470000B0E0B6E260E0C6E5D0E0D6E0D2EFED716
:103480000C2EFCD70B2EFAD7000000000400020E11
:1034900003013D6F100E3E6F670E3F6F020E406FCF
:1034A000080E416F92EC07F0070E0B6E170E0C6EB4
:1034B0006A0E0D6E0D2EFED70C2EFCD70B2EFAD7F2
:1034C0000000020E03013D6F100E3E6F5E0E3F6F57
:1034D000020E406F080E416F92EC07F00B0E0B6E60
:1034E000260E0C6E5D0E0D6E0D2EFED70C2EFCD72B
:1034F0000B2EFAD7000000000400020E03013D6FFE
:10350000100E3E6F700E3F6F020E406F080E416F3F
:1035100092EC07F0030E0B6E080E0C6E770E0D6E1C
:103520000D2EFED70C2EFCD70B2EFAD7020E030160
:103530003D6F100E3E6F820E3F6F020E406F080E01
:10354000416F92EC07F0C4D00201FF51000AD8B4D9
:10355000BFD0010E03013D6F3E6B790E3F6F020E2F
:10356000406F080E416F92EC07F0030E0B6E080ED1
:103570000C6E770E0D6E0D2EFED70C2EFCD70B2E7B
:10358000FAD7010E03013D6F3E6B4D0E3F6F020EE9
:10359000406F080E416F92EC07F00B0E0B6E260E7B
:1035A0000C6E5D0E0D6E0D2EFED70C2EFCD70B2E65
:1035B000FAD7000000000400010E03013D6F3E6BCE
:1035C0001B0E3F6F020E406F080E416F92EC07F02A
:1035D000070E0B6E170E0C6E6A0E0D6E0D2EFED7BB
:1035E0000C2EFCD70B2EFAD70000010E03013D6F05
:1035F0003E6B120E3F6F020E406F080E416F92EC51
:1036000007F00B0E0B6E260E0C6E5D0E0D6E0D2E62
:10361000FED70C2EFCD70B2EFAD7000000000400BA
:10362000010E03013D6F3E6B240E3F6F020E406F93
:10363000080E416F92EC07F0070E0B6E170E0C6E22
:103640006A0E0D6E0D2EFED70C2EFCD70B2EFAD760
:103650000000010E03013D6F3E6B360E3F6F020E00
:10366000406F080E416F92EC07F00B0E0B6E260EAA
:103670000C6E5D0E0D6E0D2EFED70C2EFCD70B2E94
:10368000FAD7000000000400010E03013D6F3E6BFD
:103690002D0E3F6F020E406F080E416F92EC07F047
:1036A000030E0B6E080E0C6E770E0D6E0D2EFED7F0
:1036B0000C2EFCD70B2EFAD7010E03013D6F3E6B8B
:1036C000070E3F6F020E406F080E416F92EC07F03D
:1036D0000B0E0B6E260E0C6E5D0E0D6E0D2EFED7B4
:1036E0000C2EFCD70B2EFAD7000000000400100EA1
:1036F0000201056F270E066F5AC222F35BC223F345
:1037000058EC16F0120045EC00F0D7C256F30EEC60
:1037100000F00301566B0EEC00F0AE0E0301566F85
:103720000EEC00F00201E151020A010ED8A4000ED5
:10373000016EE151030A010ED8A4000E006E015083
:103740000012D8B497D0D50E0301566F0EEC00F0DE
:10375000800E0301566F0EEC00F0A80E0301566FA9
:103760000EEC00F03F0E0301566F0EEC00F0D30E8E
:103770000301566F0EEC00F00201E151020A05E16F
:10378000E2C256F30EEC00F007D00201E2511F0F27
:103790000301566F0EEC00F0400E0301566F0EEC65
:1037A00000F08D0E0301566F0EEC00F0140E0301B5
:1037B000566F0EEC00F0810E0301566F0EEC00F018
:1037C000B40E0301566F0EEC00F0D90E0301566FD4
:1037D0000EEC00F0220E0301566F0EEC00F0200EEE
:1037E0000301566F0EEC00F0020E0301566F0EEC53
:1037F00000F0210E0301566F0EEC00F00301566B32
:103800000EEC00F07F0E0301566F0EEC00F02E0E52
:103810000301566F0EEC00F00201E151020A0BE1C8
:10382000A00E0301566F0EEC00F0C00E0301566FA0
:103830000EEC00F00AD0A10E0301566F0EEC00F062
:10384000C80E0301566F0EEC00F0DA0E0301566F3E
:103850000EEC00F0020E0301566F0EEC00F0DB0ED2
:103860000301566F0EEC00F0400E0301566F0EEC94
:1038700000F08AD0D50E0301566F0EEC00F0800EDA
:103880000301566F0EEC00F0A80E0301566F0EEC0C
:1038900000F03F0E0301566F0EEC00F0D30E030153
:1038A000566F0EEC00F0E2C256F30EEC00F0400E44
:1038B0000301566F0EEC00F08D0E0301566F0EECF7
:1038C00000F0140E0301566F0EEC00F0810E0301A0
:1038D000566F0EEC00F0FF0E0301566F0EEC00F079
:1038E000D90E0301566F0EEC00F0F10E0301566F76
:1038F0000EEC00F0200E0301566F0EEC00F0020EED
:103900000301566F0EEC00F0210E0301566F0EEC12
:1039100000F00301566B0EEC00F07F0E0301566FB2
:103920000EEC00F02E0E0301566F0EEC00F00201BB
:10393000E151040A0BE1A00E0301566F0EEC00F0FA
:10394000C00E0301566F0EEC00F00AD0A10E030169
:10395000566F0EEC00F0C80E0301566F0EEC00F02F
:10396000DA0E0301566F0EEC00F0120E0301566FD3
:103970000EEC00F0DB0E0301566F0EEC00F0400E73
:103980000301566F0EEC00F0A40E0301566F0EEC0F
:1039900000F0A60E0301566F0EEC00F0C4EC00F030
:1039A000030E0B6E080E0C6E770E0D6E0D2EFED7ED
:1039B0000C2EFCD70B2EFAD745EC00F0D7C256F3ED
:1039C0000EEC00F0400E0301566F0EEC00F0020109
:1039D000E151020A010ED8A4000E016EE151030A62
:1039E000010ED8A4000E006E0150001219E0030170
:1039F0001B6B1B51030813E31BC351F3526B81EC88
:103A000000F00301006B0301800E005D05E2002B56
:103A1000566B0EEC00F0F7D703011B2BEAD718D03A
:103A200003011B6B1B51070813E31BC351F3526BBC
:103A300081EC00F00301006B0301800E005D05E2E4
:103A4000002B566B0EEC00F0F7D703011B2BEAD7C7
:103A5000C4EC00F0AF0E03011C6F60EC18F0120014
:103A6000DA0E0201DB6F0C0EDC6F3D0EDD6F030E14
:103A7000DE6FC26A01013B1D006E0050C116070EC9
:103A8000C012C08EC2801200A69C00C3A9FFA69ED1
:103A9000A680A8CF00F0120000C300F00032009E04
:103AA0000032009E0032009E0032009E0A0E00028C
:103AB000F3CF01F00F0E03010015006E0150002638
:103AC000120004000201FF51040A010ED8A4000EE6
:103AD000016EFF51050A010ED8A4000E006E0150C0
:103AE000001249E003013D6B100E3E6F1E0E3F6F4A
:103AF000000E406F080E416F92EC07F0020E0301BA
:103B00003D6F100E3E6F150E3F6F000E406F080E9A
:103B1000416F92EC07F0040E03013D6F100E3E6FF3
:103B2000340E3F6F000E406F080E416F92EC07F0AD
:103B3000060E03013D6F100E3E6F2B0E3F6F000E01
:103B4000406F080E416F92EC07F002015D53010EC9
:103B5000D8A4000E006E565100160CE003013D6B18
:103B6000700E3E6F290E3F6F000E406F010E416FC9
:103B700092EC07F067D00201FF51000A63E00301F5
:103B80003D6B3E6BAB0E3F6F000E406F080E416FFA
:103B900092EC07F0010E03013D6F3E6BA20E3F6FEA
:103BA000000E406F080E416F92EC07F00201FF51CA
:103BB000010A1AE103013D6B090E3E6F9A0E3F6F39
:103BC000000E406F070E416F92EC07F0010E0301EB
:103BD0003D6F090E3E6FC60E3F6F000E406F070E21
:103BE000416F92EC07F019D003013D6B090E3E6F57
:103BF000BD0E3F6F000E406F080E416F92EC07F054
:103C0000010E03013D6F090E3E6FB40E3F6F000EB3
:103C1000406F080E416F92EC07F002015D53010EF8
:103C2000D8A4000E006E565100160CE003013D6B47
:103C3000080E3E6F7C0E3F6F000E406F010E416F0D
:103C400092EC07F004000201D46BCA6B93EC0BF00A
:103C5000120004008B908B9C8B9E0201FF51000A86
:103C600002E18A8C8A8EFF51040A010ED8A4000E4C
:103C7000016EFF51050A010ED8A4000E006E01501E
:103C800000120EE0020E03013D6F400E3E6F340E37
:103C90003F6F010E406F040E416F92EC07F011D0A0
:103CA0000201FF51000A0DE0010E03013D6F040EF9
:103CB0003E6F2F0E3F6F010E406F040E416F92EC6E
:103CC00007F0E9EC16F0FF0E03013B6F11C23CF365
:103CD00061EC0EF0FE0E03013B6FD5C23CF361ECCC
:103CE0000EF0FD0E03013B6FD6C23CF361EC0EF00B
:103CF0000201FF51000A18E1800E006E800EFC19CF
:103D0000005C02E1FB51960802E38A9C0DD0800E14
:103D1000006E800EFC19005C02E1FB51FA0803E31F
:103D2000819C819E01D0819E800E006E800EFC19C8
:103D3000005C02E1FB51960802E38B800CD0800E00
:103D4000006E800EFC19005C02E1FB51FA0802E3F0
:103D50008B8C01D08B8E056B066B100E516E270E6F
:103D6000526E72EC18F0FBC258F2FCC259F293EC9E
:103D70000BF0899E898604001200810E03012F6FCB
:103D80000F0E306F316B320E326F336B7DEC11F0F2
:103D90000052D8B497D0060E0B6E130E0C6EAD0EFB
:103DA0000D6E0D2EFED70C2EFCD70B2EFAD7000071
:103DB0000000040081A00FD00201D651000A03E1E7
:103DC000010ED66F01D0D66BD6C222F31FEC16F0CF
:103DD00093EC0BF066D001013C51010A02E13C6B0F
:103DE00002D0010E3C6F3C51010A2EE10201FF514D
:103DF000040A010ED8A4000E016EFF51050A010E3F
:103E0000D8A4000E006E015000120DE003013D6BBE
:103E1000700E3E6F2D0E3F6F010E406F010E416F11
:103E200092EC07F010D00201FF51000A0CE00301F0
:103E30003D6B080E3E6F2B0E3F6F010E406F010E63
:103E4000416F92EC07F02DD00201FF51040A010EE0
:103E5000D8A4000E016EFF51050A010ED8A4000E71
:103E6000006E015000120DE003013D6B700E3E6FBD
:103E7000290E3F6F010E406F010E416F92EC07F06B
:103E800010D00201FF51000A0CE003013D6B080E47
:103E90003E6F390E3F6F010E406F010E416F92EC85
:103EA00007F0810E03012F6F0F0E306F316B320E52
:103EB000326F336B7DEC11F0005204E072EC18F0BD
:103EC0000400EFD7810E03012F6F0F0E306F050E28
:103ED000316F320E326F336B7DEC11F000523CE0EB
:103EE00004000301810E2F6F0F0E306F050E316F2E
:103EF000320E326F336B7DEC11F000522DE01F0E4D
:103F00000201D55D010ED8B0000E006E01013C51DA
:103F1000001607E00201D52BD5C23DF31DEC04F0DD
:103F200015D001013C53010ED8A4000E016E1F0EE6
:103F30000201115D010ED8B0000E006E0150001696
:103F400005E0112B11C23DF371EC07F093EC0BF07F
:103F500072EC18F00400C5D7810E03012F6F0F0E0D
:103F6000306F040E316F320E326F336B7DEC11F017
:103F70000001D551000A010ED8A4000E016E0150B7
:103F800000163CE00400810E03012F6F0F0E306F0E
:103F9000040E316F320E326F336B7DEC11F0005234
:103FA0002DE00201D5510008010ED8B0000E006EC0
:103FB00001013C51001607E00201D507D5C23DF3CF
:103FC0001DEC04F015D001013C53010ED8A4000EE5
:103FD000016E020111510008010ED8B0000E006EF2
:103FE0000150001605E0110711C23DF371EC07F016
:103FF00093EC0BF072EC18F00400C5D7120004002B
:10400000010E0301006F40DD00C0FFF2020E006FE1
:104010003BDD0050010A03E1010E0201566F030E61
:104020000301006F31DD00C000F336DD00C0E9F2AE
:10403000000E0201EA6F040E0301006F25DD00C0CF
:1040400000F32ADD0A0E0002F3CF01F3F4CF02F3EE
:10405000050E006F19DD00C000F31EDD0A0E000220
:10406000F3CFE5F2F4CFE6F2060E006F0DDD00C0EF
:1040700000F312DD0A0E0002F3CFE7F2F4CFE8F20C
:10408000090E006F01DD00C000F306DD0A0E00021C
:10409000F3CFE3F2F4CFE4F20400100E006FF4DC8F
:1040A00000C000F3F9DC640E0002F3CF19F3F4CF83
:1040B0001AF3110E006FE8DC00C000F3EDDC0050D5
:1040C0001925076F000E1A21086F120E006FDCDC35
:1040D00000C000F3E1DC640E0002F3CF19F3F4CF6B
:1040E0001AF3130E006FD0DC00C000F3D5DC0050D3
:1040F00019250D6F000E1A210E6F140E006FC4DC0F
:1041000000C000F3C9DC640E0002F3CF19F3F4CF52
:104110001AF3150E006FB8DC00C000F3BDDC0050D0
:1041200019250B6F000E1A210C6F160E006FACDCF8
:1041300000C000F3B1DC640E0002F3CF19F3F4CF3A
:104140001AF3170E006FA0DC00C000F3A5DC0050CE
:104150001925056F000E1A21066F180E006F94DCEA
:1041600000C000F399DC640E0002F3CF19F3F4CF22
:104170001AF3190E006F88DC00C000F38DDC0050CC
:104180001925036F000E1A21046F200E006F7CDCCE
:1041900000C000F381DC640E0002F3CF19F3F4CF0A
:1041A0001AF3210E006F70DC00C000F375DC0050C4
:1041B0001925176F000E1A21186F220E006F64DC8C
:1041C00000C000F369DC640E0002F3CF19F3F4CFF2
:1041D0001AF3230E006F58DC00C000F35DDC0050C2
:1041E0001925156F000E1A21166F240E006F4CDC76
:1041F00000C000F351DC640E0002F3CF19F3F4CFDA
:104200001AF3250E006F40DC00C000F345DC0050BF
:104210001925116F000E1A21126F260E006F34DC63
:1042200000C000F339DC640E0002F3CF19F3F4CFC1
:104230001AF3270E006F28DC00C000F32DDC0050BD
:1042400019250F6F000E1A21106F280E006F1CDC4D
:1042500000C000F321DC640E0002F3CF19F3F4CFA9
:104260001AF3290E006F10DC00C000F315DC0050BB
:104270001925136F000E1A21146F04001200090093
:10428000F5CFE6FF0006FBE10106F9E11200070E9B
:10429000B46E600ED36E9B8C806A816A826A896A72
:1042A0008A6A8B6A030E926EF90E936E946A30ECF2
:1042B0001DF00D0EC16EF19EF29E1200040002016F
:1042C000FF51040A010ED8A4000E016EFF51050A29
:1042D000010ED8A4000E006E01500012D8B40BD10C
:1042E00003013D6B160E3E6F740E3F6F000E406F64
:1042F000070E416F92EC07F0020E03013D6F040EB2
:104300003E6F690E3F6F000E406F0A0E416F92ECD8
:1043100007F0040E03013D6F100E3E6F920E3F6FCB
:10432000000E406F080E416F92EC07F0060E0C6E07
:10433000300E0D6E0D2EFED70C2EFCD70000040E95
:1043400003013D6F100E3E6F920E3F6F000E406FE7
:10435000080E416F92EC07F0060E0C6E300E0D6EDB
:104360000D2EFED70C2EFCD70000040E03013D6F6E
:10437000100E3E6F920E3F6F000E406F080E416FA1
:1043800092EC07F0060E0C6E300E0D6E0D2EFED761
:104390000C2EFCD70000060E03013D6F040E3E6F8D
:1043A000870E3F6F000E406F0A0E416F92EC07F0D0
:1043B00004000D0E0B6E2D0E0C6ED70E0D6E0D2E15
:1043C000FED70C2EFCD70B2EFAD7000000000400FD
:1043D0000B0E0B6E260E0C6E5D0E0D6E0D2EFED7A7
:1043E0000C2EFCD70B2EFAD70000000004000301AE
:1043F0003D6B100E3E6F7E0E3F6F000E406F080E3D
:10440000416F92EC07F0020E03013D6F040E3E6F08
:104410001A0E3F6F010E406F0A0E416F92EC07F0CB
:10442000040E03013D6F100E3E6F850E3F6F010EAF
:10443000406F080E416F92EC07F0060E03013D6FCE
:10444000040E3E6F7A0E3F6F010E406F0A0E416FF1
:1044500092EC07F0040E0B6E0C0E0C6E330E0D6E0C
:104460000D2EFED70C2EFCD70B2EFAD70000000025
:1044700003013D6B100E3E6F710E3F6F010E406FDA
:10448000080E416F92EC07F0020E03013D6F100E13
:104490003E6FA00E3F6F010E406F080E416F92EC11
:1044A00007F0040E03013D6F100E3E6F970E3F6F35
:1044B000010E406F080E416F92EC07F0060E0301EB
:1044C0003D6F100E3E6F8E0E3F6F010E406F080E57
:1044D000416F92EC07F0020156530CE003013D6B73
:1044E000700E3E6F500E3F6F010E406F010E416F18
:1044F00092EC07F02AD10201FF51000AD8B425D16D
:1045000003013D6B040E3E6F480E3F6F010E406F7E
:10451000070E416F92EC07F0010E03013D6F030E91
:104520003E6F3D0E3F6F010E406F0A0E416F92ECE1
:1045300007F004000F0E0B6E350E0C6E510E0D6E53
:104540000D2EFED70C2EFCD70B2EFAD704000B0E27
:104550000B6E260E0C6E5D0E0D6E0D2EFED70C2E04
:10456000FCD70B2EFAD700000000040003013D6BBE
:10457000040E3E6F920E3F6F000E406F080E416FAB
:1045800092EC07F0060E0C6E300E0D6E0D2EFED75F
:104590000C2EFCD7000003013D6B040E3E6F920E03
:1045A0003F6F000E406F080E416F92EC07F0060E51
:1045B0000C6E300E0D6E0D2EFED70C2EFCD70000AB
:1045C00003013D6B040E3E6F920E3F6F000E406F75
:1045D000080E416F92EC07F0060E0C6E300E0D6E59
:1045E0000D2EFED70C2EFCD70000010E03013D6FEF
:1045F000030E3E6F660E3F6F010E406F0A0E416F55
:1046000092EC07F004000D0E0B6E2D0E0C6ED70E03
:104610000D6E0D2EFED70C2EFCD70B2EFAD70000F8
:10462000000004000B0E0B6E260E0C6E5D0E0D6E60
:104630000D2EFED70C2EFCD70B2EFAD70000000053
:10464000040003013D6B040E3E6F5D0E3F6F010ED3
:10465000406F080E416F92EC07F0010E03013D6FB1
:10466000030E3E6F520E3F6F010E406F0A0E416FF8
:1046700092EC07F0040E0B6E0C0E0C6E330E0D6EEA
:104680000D2EFED70C2EFCD70B2EFAD70000000003
:1046900003013D6B3E6BD90E3F6F010E406F080E5C
:1046A000416F92EC07F0010E03013D6F3E6BD00E9F
:1046B0003F6F010E406F080E416F92EC07F0020150
:1046C000FF51010A1AE103013D6B090E3E6FC80E4E
:1046D0003F6F010E406F070E416F92EC07F0010E25
:1046E00003013D6F090E3E6FF40E3F6F010E406FE8
:1046F000070E416F92EC07F019D003013D6B090ED4
:104700003E6FEB0E3F6F010E406F080E416F92EC53
:1047100007F0010E03013D6F090E3E6FE20E3F6F81
:10472000010E406F080E416F92EC07F002015653E4
:104730000CE003013D6B080E3E6FAA0E3F6F010EA9
:10474000406F010E416F92EC07F004001200010E61
:104750000301006F44EC1DF000C0E1F2070E006F92
:1047600044EC1DF000C0E2F2080E006F44EC1DF0B6
:1047700000C0E0F20201E151010A03E083EC1BF00A
:1047800060D0010EDA6FD96B030E0301476FA7ECFF
:1047900003F01A0E0C6EF80E0D6E0D2EFED70C2EB9
:1047A000FCD70000030E0301476FA7EC03F0060ED1
:1047B0000C6E300E0D6E0D2EFED70C2EFCD70000A9
:1047C000030E0301476FA7EC03F0020E0301476FCE
:1047D000A7EC03F0020E0301476FA7EC03F0080EED
:1047E0000301476FA7EC03F00301476BA7EC03F04D
:1047F000080E0301476FA7EC03F00301476BA7EC1A
:1048000003F0010E0301476FA7EC03F01A0E0C6EC4
:10481000F80E0D6E0D2EFED70C2EFCD700000301F6
:10482000476BA7EC03F0060E0301476FA7EC03F0FC
:104830000301476BA7EC03F00C0E0301476FA7ECD5
:1048400003F012000201FF51040A010ED8A4000E69
:10485000016EFF51050A010ED8A4000E006E015032
:1048600000120DE003013D6B0A0E3E6F470E3F6FD5
:10487000000E406F090E416F92EC07F010D002015C
:10488000FF51000A0CE003013D6B030E3E6F3D0E2D
:104890003F6F000E406F090E416F92EC07F004006D
:1048A0000B0E0B6E260E0C6E5D0E0D6E0D2EFED7D2
:1048B0000C2EFCD70B2EFAD70000000004000B0EC4
:1048C0000B6E260E0C6E5D0E0D6E0D2EFED70C2E91
:1048D000FCD70B2EFAD70000000004000B0E0B6E65
:1048E000260E0C6E5D0E0D6E0D2EFED70C2EFCD717
:1048F0000B2EFAD70000000004000B0E0B6E260EE4
:104900000C6E5D0E0D6E0D2EFED70C2EFCD70B2EF1
:10491000FAD70000000004000201FF51040A010E52
:10492000D8A4000E016EFF51050A010ED8A4000E96
:10493000006E015000120DE003013D6B0A0E3E6F48
:104940005F0E3F6F000E406F090E416F92EC07F053
:1049500010D00201FF51000A0CE003013D6B030E71
:104960003E6F550E3F6F000E406F090E416F92EC87
:1049700007F0B3EC0AF0FF0E3B6F3C6B61EC0EF0FE
:10498000FE0E03013B6F3C6B61EC0EF0FD0E03016C
:104990003B6F3C6B61EC0EF0010E0201D66F010E15
:1049A0000301226F1FEC16F00201FF51040A010EF1
:1049B000D8A4000E016EFF51050A010ED8A4000E06
:1049C000006E015000120DE003013D6B700E3E6F52
:1049D000530E3F6F000E406F010E416F92EC07F0D7
:1049E00010D00201FF51000A0CE003013D6B080EDC
:1049F0003E6F270E3F6F000E406F010E416F92EC2D
:104A000007F061EC1DF01200810E03012F6F0F0EF5
:104A1000306F316B320E326F336B7DEC11F002016F
:104A20005751001240E0898E8996060E0B6E130EC8
:104A30000C6EAD0E0D6E0D2EFED70C2EFCD70B2E70
:104A4000FAD70000000004005751000A010ED8A454
:104A5000000E016E81B002D0D89001D0D880006ADB
:104A6000D8B0002A0150001605E030EC12F0000129
:104A7000D56B17D029EC1EF00001D56B810E030118
:104A80002F6F0F0E306F316B320E326F336B7DEC48
:104A900011F0005204E072EC18F00400EFD70201AC
:104AA000576B93EC0BF0810E03012F6F0F0E306FDD
:104AB000050E316F320E326F336B7DEC11F0005208
:104AC0004FE004000001D551000A20E1010ED56F2E
:104AD00011C227F1D5C226F1D6C225F10201116B10
:104AE000D56B010ED66F03013D6B1DEC04F011C2B6
:104AF0003DF371EC07F0D6C222F31FEC16F056C25C
:104B000028F10201566B93EC0BF018D00001D56B25
:104B100027C111F226C1D5F225C1D6F227C13DF336
:104B200071EC07F0D5C23DF31DEC04F0D6C222F3C0
:104B30001FEC16F028C156F293EC0BF0810E030126
:104B40002F6F0F0E306F050E316F320E326F336BD9
:104B50007DEC11F0005204E072EC18F00400EED786
:104B6000810E03012F6F0F0E306F040E316F320E66
:104B7000326F336B7DEC11F00001D551000A010E4C
:104B8000D8A4000E016E0150001624E004000201BA
:104B90005651000A03E1010E566F01D0566B020E0A
:104BA00003013B6F56C23CF361EC0EF093EC0BF04B
:104BB000810E03012F6F0F0E306F040E316F320E16
:104BC000326F336B7DEC11F0005204E072EC18F0A0
:104BD0000400EED712000301006B44EC1DF000C08E
:104BE000D7F20050000A05E1939C939E8A8C8A8E2E
:104BF00004D0938C938E8A9C8A9E120081EC29F0BB
:104C0000D0B603D0010E0101A96F01018986550EAE
:104C1000C0250001926F2D0E0101C7250001996F7B
:104C200047EC21F0720EC1250001936F320E010195
:104C3000C6250001986F030E0B6E080E0C6E770EE2
:104C40000D6E0D2EFED70C2EFCD70B2EFAD70400BE
:104C50001E0E0101C2250001946F3B0E0101C52506
:104C60000001976FFFEC1FF0B6DF420E0101C32574
:104C70000001956F050E0B6E0F0E0C6EF10E0D6E92
:104C80000D2EFED70C2EFCD70B2EFAD7040081B8C0
:104C900002D0028001D0029081BA02D0D88001D027
:104CA000D89002A003D002E3028001D0029002A0BB
:104CB00003D0010E02015D6F4ADD81B802D002808F
:104CC00001D0029081BA02D0D88001D0D89002A041
:104CD00003D002E3028001D0029081B002D0D880DC
:104CE00001D0D89002A003D002E3028001D002904C
:104CF00002A03ED00201FF510A0A0DE103013D6B03
:104D0000030E3E6FB60E3F6F010E406F090E416FEE
:104D100092EC07F010D00201FF51000A0CE00301F1
:104D20003D6B0C0E3E6FAC0E3F6F010E406F090ED7
:104D3000416F92EC07F0FF0E03013D6F71EC07F03D
:104D4000FF0E3D6F1DEC04F0010E226F1FEC16F0FC
:104D50000B0E0B6E260E0C6E5D0E0D6E0D2EFED71D
:104D60000C2EFCD70B2EFAD7000000000400F0D761
:104D70001C0E0101C4250001966F04000101A95118
:104D8000000A010ED8A4000E016E02015D51000A56
:104D9000010ED8A4000E006E015000161EE0B3EC08
:104DA0000AF0FF0E3B6F3C6B61EC0EF0FE0E030150
:104DB0003B6F3C6B61EC0EF0FD0E03013B6F3C6BF7
:104DC00061EC0EF0010E0201D66F010E0301226F9D
:104DD0001FEC16F05EEC21F034D00101A951010A5C
:104DE000010ED8A4000E016E02015D51000A010EF1
:104DF000D8A4000E006E0150001622E0FF0E030141
:104E0000006F44EC1DF000C011F2FE0E006F44EC88
:104E10001DF000C0D5F2FD0E006F44EC1DF000C087
:104E2000D6F2D5C23DF31DEC04F011C23DF371EC96
:104E300007F0D6C222F31FEC16F061EC1DF001D092
:104E400001DD93EC0BF0040072EC18F002015D51EF
:104E5000000A02E1D9DD02D0BDEC1EF0F4D7FFD785
:104E60005357523D302E3030005057523D302E3087
:104E700057006C002E00433D202020307046004C2F
:104E80003D302E303075480054455354204D4F442A
:104E9000450054455354204D4F44450010276C00A5
:104EA0002020202020202020200020202020202022
:104EB000202020006D696E6920626F61726400417C
:104EC00054552D313030002E00202020202020206D
:104ED000200046572076657220322E36000C100EC8
:104EE0000D120B10134C3D302E30754800535752A5
:104EF0003D302E3030005057523D302E3057004359
:104F00003D202020307046004C3D302E3031754819
:104F100000433D2020307046000020005F002E003E
:104F200000433D2020207046002E0020005F0050EE
:104F300057523D302E3057005357523D302E3030AF
:104F4000005245534554202020005057523D302EEA
:104F50003057005357523D302E30300052455345A4
:104F6000542020200020202020202020202020004D
:104F70000000000063006C006C0054554E45005466
:104F8000554E4500630030016D696E6920626F61A6
:104F90007264004154552D313030002E0020202005
:104FA0002020202020202000202020202020202021
:104FB0000046572076657220322E36005057523DFB
:104FC000302E3057002020202020202020202000BC
:104FD000202020202020202000433D202020307051
:104FE00046004C3D302E30307548005357523D300E
:104FF0002E303000002E0046415354205445535467
:1050000000464153542054455354000D07020C1BD5
:105010000912164C3D302E307548005357523D3022
:105020002E3030005057523D302E305700433D2037
:105030002020307046004C3D302E30307548004303
:105040003D202030704600433D2020202070460047
:1050500010275357523D202020200000004F564576
:10506000524C4F41440020202020202020200020AE
:105070002020202020202000202020202020202050
:10508000004F5645524C4F41440000000000302E66
:10509000303000302E3030004F5645524C4F414496
:1050A0000000000000000000004F5645524C4F41E8
:1050B000440020202020202020200020202020200C
:1050C0002020200020202020202020200053575284
:1050D0003D20202020002020202020202020004FC4
:1050E0005645524C4F4144004F5645524C4F414457
:1050F000002020202020202020004C3D20202020A7
:105100007548004C3D20202020754800433D20205C
:105110002020704600FD4C3D20202075480001FDF8
:105120000000000000000000005F00000007000712
:1051300000147F147F14242A7F2A12231308646228
:1051400036495522500005030000001C2241000092
:1051500041221C00082A1C2A0808083E08080050A2
:10516000300000080808080800303000002010084F
:1051700004023E5149453E00427F40004261514990
:10518000462141454B311814127F102745454539BA
:105190003C4A4949300171090503364949493606F7
:1051A0004949291E00363600000056360000000826
:1051B0001422411414141414412214080002015141
:1051C0000906324979413E7E1111117E7F494949D4
:1051D000363E414141227F4141221C7F494949419C
:1051E0007F090901013E414151327F0808087F00D3
:1051F000417F41002040413F017F081422417F4010
:105200004040407F0204027F7F0408107F3E4141FE
:10521000413E7F090909063E4151215E7F09192956
:1052200046464949493101017F01013F4040403F25
:105230001F2040201F7F2018207F63140814630361
:1052400004780403615149454300007F4141020451
:1052500008102041417F0000040201020440404048
:105260004040000102040020545454787F484444D4
:10527000383844444420384444487F3854545418FF
:10528000087E090102081454543C7F080404780085
:10529000447D40002040443D00007F1028440041F0
:1052A0007F40007C041804787C0804047838444467
:1052B00044387C14141408081414187C7C08040462
:1052C000084854545420043F4440203C4040207C33
:1052D0001C2040201C3C4030403C44281028440CFA
:1052E0005050503C4464544C440008364100000087
:1052F0007F0000004136080008082A1C08081C2A04
:10530000080810EE15F0C20E006E030E016E600E5E
:10531000F66E4E0EF76E000EF86E3FEC21F01200A6
:020000040030CA
:0D000100081A11FF8181FF0FC00FE00F40B2
:0200000400F00A
:100000004E010015130500010200FFFFFFFFFFFF77
:1000100001100220045010002200FFFFFFFFFFFF2D
:1000200000100022004701000220FFFFFFFFFFFF3A
:10003000FFFFFFFFFFFFFFFFFFFFFFFFFFFFFFFFD0
:10004000FFFFFFFFFFFFFFFFFFFFFFFFFFFFFFFFC0
:10005000FFFFFFFFFFFFFFFFFFFFFFFFFFFFFFFFB0
:10006000FFFFFFFFFFFFFFFFFFFFFFFFFFFFFFFFA0
:10007000FFFFFFFFFFFFFFFFFFFFFFFFFFFFFFFF90
:10008000FFFFFFFFFFFFFFFFFFFFFFFFFFFFFFFF80
:10009000FFFFFFFFFFFFFFFFFFFFFFFFFFFFFFFF70
:1000A000FFFFFFFFFFFFFFFFFFFFFFFFFFFFFFFF60
:1000B000FFFFFFFFFFFFFFFFFFFFFFFFFFFFFFFF50
:1000C000FFFFFFFFFFFFFFFFFFFFFFFFFFFFFFFF40
:1000D000FFFFFFFFFFFFFFFFFFFFFFFFFFFFFFFF30
:1000E000FFFFFFFFFFFFFFFFFFFFFFFFFFFFFFFF20
:1000F000FFFFFFFFFFFFFFFFFFFFFFFFFFFFFFFF10
:00000001FF

