:1000000072EF28F00000000000EF00F00000000098
:100010000000000000000000F3D7FFFF02017E5146
:10002000000A18E0938C060E0D6E0D2EFED7000010
:10003000938E060E0D6E0D2EFED70000939E060EBB
:100040000D6E0D2EFED70000939C060E0D6E0D2E2C
:10005000FED70000120002017E51000A32E0016A60
:10006000015007081CE3030109BF02D0939E01D091
:10007000938E060E0D6E0D2EFED70000938C060E8D
:100080000D6E0D2EFED70000939C060E0D6E030123
:100090000D2EFDD7000009370991012AE1D7938E73
:1000A000060E0D6E0D2EFED70000938C060E0D6E03
:1000B0000D2EFED70000939C060E0D6E0D2EFED762
:1000C000000012000201875103010525086FA6DF19
:1000D00086C209F3C0DF0301096BBDDF03010451D0
:1000E000B00F096FB8DF030108510F0804E308C31C
:1000F00006F3076B19D008C302F00232029E0232E7
:10010000029E0232029E0232029E02C007F302C029
:1001100000F0003600900036009000360090003667
:1001200000900050085D066F06C309F394DF0301D9
:100130000751100F096F8FDF71DF86C209F38BDF64
:10014000400E0301096F87DF1200086A096A100E6A
:100150000C6E0134083609360450085E0550D8A0EC
:10016000053C095ED8B007D0045008260550D8B029
:10017000053C0926D890003601360C2EEAD712002D
:10018000026A016A006A086A036A000E12000B84A0
:100190000BAED2EF00F0010E036E026A016A006A34
:1001A0000A360232FF0E12000AAE029E000E120044
:1001B00002017E51000A12E0939E060E0D6E0D2E76
:1001C000FED70000938C060E0D6E0D2EFED700009C
:1001D000938E060E0D6E0D2EFED7000012000B80C2
:1001E0000BAEFBEF00F0026A0AAEFF0E026E016E6C
:1001F000006E0A360232FF0E12000201FE6B050E7F
:10020000FE5D0AE2FE51FC25E16E000EFD21E26E6C
:10021000200EE66EFE2BF3D7FE51FC25E16E000E9C
:10022000FD21E26EE66AFE07FE51FC25FF6F000E1F
:10023000FD210301006F0A0E046E000E056EFAC266
:1002400000F0FBC201F081DF08C000F009C001F03E
:10025000300E0026FFC2E1FF00C3E2FF00C0E6FF50
:100260000A0E046E000E056EFAC200F0FBC201F029
:100270006CDF00C0FAF201C0FBF2000E011802E1CF
:10028000000E001801E103D00201FE07CDD71200D5
:100290000B820BAE52EF01F0036802680168006840
:1002A0000A360232FF0E12001D0E0D6E0D2EFED705
:1002B00012000C6A0E6A0250D8A472EF01F001C05D
:1002C00002F000C001F0006A0E860250D8A472EF5E
:1002D00001F001C002F0016A0E960E880250D8B4F7
:1002E00084EF01F00E50035ED8A4D8A089EF01F08E
:1002F000D89002BE8EEF01F0003601360236032E92
:1003000079EF01F089EF01F0010E0C6E39DF91EF0A
:1003100001F0020E0C6E3BDF91EF01F0040E0C6E4B
:1003200043DF12000201FB6B856B010E806FFAC286
:10033000FBF2FB37FB91FB37FB91FB37FB91FB3764
:10034000FB91895302E0080EFB27805302E0040E64
:10035000FB27855302E0020EFB278853D8A4FB2B12
:100360005DDE86C209F377DEFBC209F374DE20DFAF
:10037000060E0C6E300E0D6E0D2EFED70C2EFCD719
:100380000000040EFB5F4ADE86C209F364DEFBC296
:1003900009F361DE0DDF060E0C6E300E0D6E0D2EB4
:1003A000FED70C2EFCD70000120038DE86C209F3FF
:1003B00052DE400E0301096F4EDEFBC204F3FAC2A7
:1003C00005F380DE0201FF6BFE51FF5DD8B0B9D0AE
:1003D000FF51FC25E96E000EFD21EA6EEE50000A89
:1003E00003E10301016B0BD00201FF51FC25E96E13
:1003F000000EFD21EA6E200EEE5C0301016F006B22
:1004000000510408D8A095D0050E0103F3CF00F0E9
:10041000F4CF01F000510026000E01225B0E0024F3
:10042000F66E550E0120F76E000EF86E000E01BE3E
:10043000FF0EF8220900F5CF02F30201FB51020A78
:10044000000ED8A4010E016EFB51040A000ED8A4C0
:10045000010E006E00500116FB51060A000ED8A4D2
:10046000010E006E015000162AE0030102B702D00F
:10047000039F01D0038F02B702D0039D01D0038DEB
:1004800002B502D0039B01D0038B02B502D00399C1
:1004900001D0038902B302D0039701D0038702B3CE
:1004A00002D0039501D0038502B102D0039301D09D
:1004B000038302B102D0039101D0038121D0030153
:1004C00002B502D0039F01D0038F02B502D0039D75
:1004D00001D0038D02B302D0039B01D0038B02B382
:1004E00002D0039901D0038902B102D0039701D051
:1004F000038702B102D0039501D0038503930391D2
:1005000003C309F3A8DD02017E51040A010ED8A439
:10051000000E016E7E51050A010ED8A4000E006E79
:100520000150001203E003C309F395DD0301002B22
:1005300067D7096B90DD0301096B8DDD0201FF2B8D
:1005400043D7FB51010F0301046FFAC205F3BADD73
:100550000201FF6BFE51FF5DD8B0C1D0FF51FC25F9
:10056000E96E000EFD21EA6EEE50000A03E1030180
:10057000016B0BD00201FF51FC25E96E000EFD213D
:10058000EA6E200EEE5C0301016F006B005104085F
:10059000D8A09DD0050E0103F3CF00F0F4CF01F0F9
:1005A00000510026000E01225B0E0024F66E550E4F
:1005B0000120F76E000EF86E000E01BEFF0EF8224D
:1005C0000900F5CF02F30201FB51020A000ED8A484
:1005D000010E016EFB51040A000ED8A4010E006E3C
:1005E00000500116FB51060A000ED8A4010E006E41
:1005F000015000162AE0030102BF02D0039F01D080
:10060000038F02BF02D0039D01D0038D02BD02D033
:10061000039B01D0038B02BD02D0039901D0038953
:1006200002BB02D0039701D0038702BB02D003951F
:1006300001D0038502B902D0039301D0038302B92C
:1006400002D0039101D0038129D0030102BD02D061
:10065000039F01D0038F02BD02D0039D01D0038D03
:1006600002BB02D0039B01D0038B02BB02D00399D3
:1006700001D0038902B902D0039701D0038702B9E0
:1006800002D0039501D0038502B702D0039301D0B5
:10069000038302B702D0039101D0038103C309F39E
:1006A000DADC02017E51040A010ED8A4000E016EAC
:1006B0007E51050A010ED8A4000E006E01500012F2
:1006C00003E003C309F3C7DC0301002B5FD7096B09
:1006D000C2DC0301096BBFDC0201FF2B3BD768DDE5
:1006E00012000B1E0A1E091E081E082AD8B4092A69
:1006F000D8B40A2AD8B40B2A12000450085E055058
:10070000D8A0053C095E0650D8A0063C0A5E0750FA
:10071000D8A0073C0B5E0336070E0C6E0334083678
:1007200009360A360B36045003A00ED0085E055079
:10073000D8A0053C095E0650D8A0063C0A5E0750CA
:10074000D8A0073C0B5E0DD008260550D8B0053C5C
:1007500009260650D8B0063C0A260750D8B0073CF8
:100760000B2603360C2EDAD70234083609360A3641
:100770000B36045003A00ED0085E0550D8A0053CEF
:10078000095E0650D8A0063C0A5E0750D8A0073C78
:100790000B5E0DD008260550D8B0053C0926065042
:1007A000D8B0063C0A260750D8B0073C0B260236C4
:1007B000070E0C6E0234083609360A360B36045022
:1007C00002A00ED0085E0550D8A0053C095E065078
:1007D000D8A0063C0A5E0750D8A0073C0B5E0DD09F
:1007E00008260550D8B0053C09260650D8B0063C6E
:1007F0000A260750D8B0073C0B2602360C2EDAD753
:100800000134083609360A360B36045002A00ED0E1
:10081000085E0550D8A0053C095E0650D8A0063CED
:100820000A5E0750D8A0073C0B5E0DD00826055085
:10083000D8B0053C09260650D8B0063C0A26075019
:10084000D8B0073C0B260136070E0C6E0134083673
:1008500009360A360B36045001A00ED0085E05504A
:10086000D8A0053C095E0650D8A0063C0A5E075099
:10087000D8A0073C0B5E0DD008260550D8B0053C2B
:1008800009260650D8B0063C0A260750D8B0073CC7
:100890000B2601360C2EDAD70034083609360A3614
:1008A0000B36045001A00ED0085E0550D8A0053CC0
:1008B000095E0650D8A0063C0A5E0750D8A0073C47
:1008C0000B5E0DD008260550D8B0053C0926065011
:1008D000D8B0063C0A260750D8B0073C0B26003695
:1008E000070E0C6E0034083609360A360B360450F3
:1008F00000A00ED0085E0550D8A0053C095E065049
:10090000D8A0063C0A5E0750D8A0073C0B5E0DD06D
:1009100008260550D8B0053C09260650D8B0063C3C
:100920000A260750D8B0073C0B2600360C2EDAD723
:1009300000B00ED0045008260550D8B0053C09265A
:100940000650D8B0063C0A260750D8B0073C0B2604
:1009500012000B6A0B86FF0E120000C008F0015057
:10096000006E016A026A036A0B6A0C6A016A026A13
:10097000036A960E036E0A6A00AEC5EF04F0081E05
:10098000001E082AD8B4002A0A8E00C001F008C050
:1009900000F0086A026A8DDC12000B6A0350D8B4BA
:1009A00013EF05F002500A6E028E8E0E035E03AE48
:1009B00017EF05F0036C080E035CD8A0F2EF04F00B
:1009C000036E013602C001F0026A080E035CD8A073
:1009D000F2EF04F0036E0136016A0350D8A4D890F8
:1009E000FCEF04F00350D8B4FCEF04F0D8900232CE
:1009F0000132032EF6EF04F00BBC01A009EF05F065
:100A0000D8A009EF05F0012AD8B4022A02BE26EFC9
:100A100005F00AAE2CEF05F0021E011E012AD8B423
:100A2000022A2CEF05F0026A016A2CEF05F00B8018
:100A30000BAE30EF05F0026A0AAE30EF05F0FF0EA4
:100A4000026E016E0A36023230EF05F0010E0C6EB6
:100A5000EFEC00F032EF05F0000E0C6E32EF05F017
:100A6000FF0E0C6E0150006E0250016E120000501D
:100A7000086E0150006E016A026A036A0B6A0C6A12
:100A8000960E036E0A6A00C001F008C000F0086A02
:100A9000026A0FDC1200086A096A000E076203642A
:100AA000D0EF05F0025006180A6E075003267E0E9E
:100AB000D8A061EF05F0035ED8B0D5EF05F065EF83
:100AC00005F0035ED8A0DAEF05F0028E068E02C0B4
:100AD0000EF001C00BF000C00DF000500402F4CF86
:100AE0000CF001500502F4CF00F0F3CF08F004023F
:100AF000F3500C26F4500822000E00220D5005027F
:100B0000F3500C26F4500822000E0022025004027A
:100B1000F3500826F450002202500502016A000E2C
:100B20000122F3500026F45001220D500602F3502A
:100B30000826F4500022026A000E012202220B5005
:100B40000602F3500026F4500122000E02220E503D
:100B50000602F3500126F450022202BEB8EF05F05F
:100B600008360036013602360306D8B4DAEF05F04F
:100B7000CBEF05F0D880800E08640030000E002214
:100B800001220222D8A0CBEF05F00232013200325E
:100B9000034AD5EF05F00AAE029E000EDDEF05F028
:100BA000010EC0EC00F0DDEF05F0020E48EC01F0A4
:100BB000DDEF05F0040EC7EC00F012000B6A0A6AC4
:100BC000096A00500402F4CF09F0F3CF08F0015095
:100BD0000502F4CF0BF0F3CF0AF000500502F350FA
:100BE0000926F4500A22E86A0B2201500402F3504D
:100BF0000926F4500A22E86A0B2208C000F009C056
:100C000001F00AC002F00BC003F0120002017E5195
:100C1000040A010ED8A4000E016E7E51050A010ED1
:100C2000D8A4000E006E015000120DE0F1C2FAF2DD
:100C3000F0C2FBF2F2C2FCF2F3C2FDF2F4C2FEF229
:100C4000D5EC01F058D07E51020A010ED8A4000E56
:100C5000016E7E51030A010ED8A4000E006E0150F1
:100C6000001213E0070EF103F3CFFAF2040EFA2795
:100C7000F0C2FBF2FB37FB91F2C2FCF2F3C2FDF2D1
:100C8000F4C2FEF2D5EC01F036D0886BF0C200F071
:100C900000360090003600900050080FFA6F92EC7A
:100CA00001F0F1C2FAF292EC01F0010E886FF56BDF
:100CB000F451F55D20E2F551F225E96E000EF321C5
:100CC000EA6EEECF01F001C0FAF2FA33FA9FFA337E
:100CD000FA9FFA33FA9FFA33FA9F92EC01F0F5513A
:100CE000F225E96E000EF321EA6EEECFFAF292ECF5
:100CF00001F0F52BDDD71200030E0C6E950E0D6E74
:100D00000D2EFED70C2EFCD71200220E0C6E086A98
:100D1000096A0A6A0B6A0C06D8B41FD0D8900B3245
:100D20000A32093208320332023201320032D8A0CC
:100D3000F2D70C06D8B409D0045008260550092271
:100D400006500A2207500B22EAD704500826055005
:100D5000092206500A2207500B2212000201F66BEC
:100D6000F76BF0C2F8F2F1C2F9F2800EF119006EE1
:100D7000800E005C02E1000EF05D0BE2010EF66FEA
:100D8000000EF76FF0510008F86FF1C2F9F2000E93
:100D9000F957F8C2FAF2F9C2FBF2F2C2FCF2F3C25E
:100DA000FDF2FDEC00F0060E0201F46F000EF56F8F
:100DB000000E006EF551005C02E1F451000819E2EA
:100DC000F451F225E16EF551F321E26E010EF45D6E
:100DD000006E000EF559016E0050F225E96E0150CB
:100DE000F321EA6EEECFE6FF010EF45F000EF55B35
:100DF000DFD7F2C2E1FFF3C2E2FF200EE66EF6514A
:100E0000F7111AE0F46BF56BF451F225E96EF55128
:100E1000F321EA6EEE50200A03E1F44BF52BF4D7F0
:100E2000010EF45F000EF55BF451F225E16EF55111
:100E3000F321E26E2D0EE66E12000EEC00F086C27B
:100E400009F32BEC00F0800E0301096F2BEC00F08E
:100E5000F0C209F32BEC00F0D8EC00F01200830E86
:100E6000C216F0C200F0003600900036009000502C
:100E7000C21254EC01F0C282C2A201D0FDD7C4CF8D
:100E800001F0006AC3500012000E011212000CB0F3
:100E900089EF07F00CA231EF08F00E6A000E026431
:100EA000A0EF07F0F00E0214D8A46BEF07F0023A9F
:100EB00001380F0B02260138F00B016E00380F0BC2
:100EC00001260038F00B006E08380F0B002608389A
:100ED000F00B086E0E84D89002BE84EF07F008363F
:100EE0000036013602360E2A02BE84EF07F00836BD
:100EF0000036013602360E2A02BE84EF07F00836AD
:100F00000036013602360E2A0E50036425EF08F033
:100F1000035E0BBC08AE2BEF08F0D880800E08648F
:100F20000030000E002201220222D8A02BEF08F090
:100F3000023201320032034A31EF08F02BEF08F0A1
:100F400001C002F000C001F008C000F0086A000E05
:100F50000E860264D7EF07F0F00E0214D8A4BFEF9C
:100F600007F0023A01380F0B02260138F00B016E30
:100F700000380F0B01260038F00B006E0E84D8905D
:100F800002BE84EF07F00036013602360E2A02BE9A
:100F900084EF07F00036013602360E2A02BE84EFD7
:100FA00007F00036013602360E2A84EF07F001C042
:100FB00002F000C001F0006A000E0E960E88026476
:100FC00004EF08F0F00E0214D8A4EFEF07F0023A95
:100FD00001380F0B02260138F00B016E0E84D890F9
:100FE00002BE84EF07F0013602360E2A02BE84EFFD
:100FF00007F0013602360E2A02BE84EF07F00136F2
:1010000002360E2A84EF07F001C002F0016A000EDA
:101010000E86026437EF08F0F00E0214D8A413EF26
:1010200008F0023A0E84D89002BE84EF07F0023630
:101030000E2A02BE84EF07F002360E2A02BE84EFAB
:1010400007F002360E2A84EF07F0010E0C6EC7EC93
:1010500000F03BEF08F0020E0C6ED4EC00F03BEF1A
:1010600008F0040E0C6E48EC01F03BEF08F0080E9F
:101070000C6EC0EC00F012000450000A12E10550A2
:10108000000A0FE10650000A0CE10750000A09E1CE
:10109000FF0E006EFF0E016E7F0E026EFF0E036EDE
:1010A000A8D0086A096A0750D8B4E7EF08F00350DF
:1010B000D8B4ECEF08F0025006180A6E028E068EC5
:1010C0000E6A02C008F001C00CF000C00DF0045020
:1010D0000D5E0550D8A0053C0C5E0650D8A0063C1D
:1010E000085E086A0C6A0D6AD8A07EEF08F0D890F6
:1010F0000232013200320832010E0E6E0750035EDA
:10110000D8A08BEF08F07E0E0E240326D8B0F1EFA6
:1011100008F091EF08F07E0E0E240326D8A0F6EF1B
:1011200008F0180E0B6E0D360C36083600360136F8
:1011300002360E360450005E0550D8A0053C015E14
:101140000650D8A0063C025E06340E120EA0ACEF8C
:1011500008F00D80B7EF08F0045000260550D8B015
:10116000053C01260650D8B0062802260D900B2E0D
:1011700093EF08F0DDEF08F0D89000360136023624
:101180000E360450005E0550D8A0053C015E0650A6
:10119000D8A0063C025E06340E10010B0D26D8B016
:1011A0000C2AD8B4082AD8A4DDEF08F008320C3293
:1011B0000D32032AD8B4F1EF08F00AAE089E0850A9
:1011C000026E0C50016E0D50006EF9EF08F0010E2A
:1011D000A9EC04F0F9EF08F0020EC0EC00F0F9EF12
:1011E00008F0040E48EC01F0F9EF08F0080EC7EC27
:1011F00000F012000450000A12E10550000A0FE14D
:101200000650000A0CE10750000A09E1FF0E006ECB
:10121000FF0E016EFF0E026E7F0E036E99D00C6AF8
:1012200007BE0C2A0D6A0B6A0A6A096A086A03502B
:10123000021001100010D8B485D0035007180E6EAC
:101240000EBE0D1E07AE0BD0041E051E061E071E89
:10125000042AD8B4052AD8B4062AD8B4072A03AE7B
:101260000BD0001E011E021E031E002AD8B4012A44
:10127000D8B4022AD8B4032A035007100E6E0EBE4B
:101280001DD07DEC03F00CBE36D00DAE5BD0001E41
:10129000011E021E031E002AD8B4012AD8B4022A55
:1012A000D8B4032A081E091E0A1E0B1E082AD8B429
:1012B000092AD8B40A2AD8B40B2A44D007AE15D0CC
:1012C00003BE0DD003500B6E02500A6E0150096E22
:1012D0000050086E036A026A016A006AD6D7036A80
:1012E000026A016A006A002A000C031E021E011E27
:1012F000001E0C8EC6D7082AD8B4092AD8B40A2AE8
:10130000D8B40B2A0450085CD8A4BFD70550095C98
:10131000D8A4BBD706500A5CD8A4B7D707500B5C3B
:10132000D8A4B3D70B6A0A6A096A086A002AD8B433
:10133000012AD8B4022AD8B4032A03AEA6D70E6A6B
:101340000E88FF0C0E6A0CA002D071EC03F0000FA7
:101350001200A00E0201EB6F0F0EEC6F000EED6F8E
:10136000EE6FA00E006E0F0E016E000E026E000EEC
:10137000036EE9C204F0EAC205F0000E066E076EC5
:10138000C4DC00C0EBF201C0ECF202C0EDF203C01D
:10139000EEF2000E035C08E1000E025C05E1020EB5
:1013A000015C02E1940E005C01E231D0940EEB5F2F
:1013B000020EEC5B000EED5BEE5B050E006E005066
:1013C00007E0EE33ED33EC33EB33EE9FFF0FF8D74E
:1013D000EBC200F0ECC201F0EDC202F0EEC203F08D
:1013E000010EEB5F000EEC5BED5BEE5B005001105D
:1013F000021003100CE000000000000000000000DC
:10140000000000000000000000000000E1D7120012
:10141000010E0201F06F23DD00C0E9F201C0EAF223
:101420000150040A02E1000E001804E1010E01015E
:10143000A66F02D00101A66BE9C200F0EAC201F07A
:10144000ADEC04F0890E046E410E056E1C0E066EA6
:10145000810E076E4BEC05F0CDEC04F0120002504B
:1014600006180E6E086A096A0B6A0350076422EFB9
:101470000BF006500A6E068E028E03500B6E07505C
:10148000036E000E0B6472EF0AF00B50075ED8B4C7
:1014900013EF0BF0070E0764E1EF0AF0075E00C0E0
:1014A00008F001C000F002C001F0026A074E13EF1D
:1014B0000BF00764B6EF0AF0075E00C008F001C049
:1014C00000F0016A074E13EF0BF0076494EF0AF087
:1014D000075E00C008F0006A074E13EF0BF00764C8
:1014E0007BEF0AF00AC002F005C001F004C000F072
:1014F000086A3FEF0CF0030E076486EF0AF0075E00
:1015000008380F0B086E074E13EF0BF0D890083217
:10151000074E13EF0BF0D8900832074E13EF0BF085
:10152000D890083213EF0BF0030E0764A5EF0AF012
:10153000075E08380F0B086E0038F00B08260038DD
:101540000F0B006E074E13EF0BF0D89000320832ED
:10155000074E13EF0BF0D89000320832074E13EF0E
:101560000BF0D8900032083213EF0BF0030E076433
:10157000CDEF0AF0075E08380F0B086E0038F00B4D
:10158000082600380F0B006E0138F00B00260138DA
:101590000F0B016E074E13EF0BF0D89001320032A3
:1015A0000832074E13EF0BF0D890013200320832A8
:1015B000074E13EF0BF0D89001320032083213EFD0
:1015C0000BF0030E0764FEEF0AF0075E08380F0BFE
:1015D000086E0038F00B082600380F0B006E01383B
:1015E000F00B002601380F0B016E0238F00B0126BC
:1015F00002380F0B026E074E13EF0BF0D890023239
:10160000013200320832074E13EF0BF0D89002324D
:10161000013200320832074E13EF0BF0D89002323D
:10162000013200320832096A000E0EAE07EF0CF0EC
:10163000081E001E011E021E082A0022012202228C
:1016400007EF0CF00750D8A428EF0BF03FEF0CF099
:10165000096A02C00AF0028E068E0750035C076E0C
:10166000D8B4FAEF0BF0070E0764C8EF0BF0075E73
:101670000450096E0550046E0650056E066A074E4A
:10168000FAEF0BF0070E07649DEF0BF0075E0450B6
:10169000096E0550046E056A074EFAEF0BF0070E4F
:1016A00007647BEF0BF0075E0450096E046A074E77
:1016B000FAEF0BF0070E076462EF0BF00AC002F0BE
:1016C0003FEF0CF0030E07646DEF0BF0075E093877
:1016D0000F0B096E074EFAEF0BF0D8900932074E48
:1016E000FAEF0BF0D8900932074EFAEF0BF0D890D2
:1016F0000932FAEF0BF0030E07648CEF0BF0075E74
:1017000009380F0B096E0438F00B092604380F0B4B
:10171000046E074EFAEF0BF0D89004320932074EF0
:10172000FAEF0BF0D89004320932074EFAEF0BF0C3
:10173000D89004320932FAEF0BF0030E0764B4EFCD
:101740000BF0075E09380F0B096E0438F00B092601
:1017500004380F0B046E0538F00B042605380F0B08
:10176000056E074EFAEF0BF0D890053204320932BD
:10177000074EFAEF0BF0D890053204320932074ECB
:10178000FAEF0BF0D890053204320932FAEF0BF081
:10179000030E0764E5EF0BF0075E09380F0B096EC7
:1017A0000438F00B092604380F0B046E0538F00BD3
:1017B000042605380F0B056E0638F00B0526063893
:1017C0000F0B066E074EFAEF0BF0D890063205327B
:1017D00004320932074EFAEF0BF0D8900632053288
:1017E00004320932074EFAEF0BF0D8900632053278
:1017F00004320932086A000E0EAE07EF0CF0091E23
:10180000041E051E061E092A04220522062209506E
:1018100008260450002205500122065002220EBE66
:101820001EEF0CF0D8A02DEF0CF002320132003286
:101830000832033E2DEF0CF039EF0CF0D8B033EF47
:101840000CF0000E081E001E011E021E082A0022B7
:10185000012202220A7E33EF0CF0010E0C6E47ECDF
:1018600007F041EF0CF0020E0C6E47EC07F041EF71
:101870000CF0040E0C6E48EC01F041EF0CF0000E81
:101880000C6E1200E9C200F0EAC201F0030E046E11
:10189000000E056EDEEC05F000C0E9F201C0EAF2D0
:1018A000800E026E800E0118025C02E100505008AA
:1018B00003E3006A016ABCD0800E006E800E020154
:1018C000EA19005C02E1E951AB0805E3F40EE927EF
:1018D000000EEA23A9D0800E010A006E800EEA19DC
:1018E000005C02E1E951480805E3FE0EE927000E1D
:1018F000EA239AD0800E020A006E800EEA19005C7C
:1019000002E1E951460805E3180EE927010EEA2332
:101910008BD0800E030A006E800EEA19005C02E193
:10192000E951340805E3290EE927010EEA237CD0AA
:10193000800E040A006E800EEA19005C02E1E95193
:101940004C0805E3360EE927010EEA236DD0800E20
:10195000080A006E800EEA19005C02E1E951850870
:1019600005E3AE0EE927010EEA235ED0800E0C0AD5
:10197000006E800EEA19005C02E1E951FA0805E305
:10198000E40EE927010EEA234FD0800E120A006E02
:10199000800EEA19005C02E1E9510F0805E3120E1E
:1019A000E927020EEA2340D0800E160A006E800E50
:1019B000EA19005C02E1E951E60805E3880EE9272F
:1019C000020EEA2331D0800E1B0A006E800EEA1947
:1019D000005C02E1E951EA0805E3E70EE927020E9F
:1019E000EA2322D0800E210A006E800EEA19005CE4
:1019F00002E1E951360805E3340EE927030EEA2334
:101A000013D0800E290A006E800EEA19005C02E1F4
:101A1000E951040805E3840EE927030EEA2304D004
:101A2000520EE927030EEA23E9C200F0EAC201F0F0
:101A3000120002017E51010805E2AF0EF06F1DECAD
:101A400007F00CD07E51010A09E1010E896F886B05
:101A5000FA6B92EC01F0FA6B92EC01F012000201C9
:101A6000F06B2FEC07F037EC05F0890E046E410E99
:101A7000056E1C0E066E810E076E4BEC05F0CDEC6C
:101A800004F0120000C008F00B6A0C6A9E0E036E90
:101A90000A6A026A016A006A020E0C6E47EC07F0DD
:101AA00012000400BAC133F00201766B776B0101BA
:101AB000BAA105D00201745176277551772301012F
:101AC000BAA305D002017251762773517723010121
:101AD000BAA505D002017C5176277D5177230101FB
:101AE000BAA705D002017A5176277B5177230101ED
:101AF000BAA905D0020178517627795177230201DE
:101B0000A151040A010ED8A4000E016EA151050ACC
:101B1000010ED8A4000E006E0150001251E076C2F2
:101B2000F0F277C2F1F2A90EF26F020EF36FAEEC93
:101B300006F0AB51200A03E0ABC2A2F202D0300E95
:101B4000A26F2E0EA36FAC51200A03E0ACC2A4F228
:101B500002D0300EA46FAD51200A03E0ADC2A5F251
:101B600002D0300EA56F1C51010A03E1040EE96F8B
:101B700002D0060EE96FE9C2F0F2100EF16F800E8E
:101B8000F26F000EF36F020EF46F06EC06F0E9C27E
:101B9000F0F2580EF16F770EF26F000EF36F020E37
:101BA000F46F06EC06F0E9C2F0F2280EF16FA20E17
:101BB000F26F020EF36F040EF46F06EC06F0B3D072
:101BC000A151020A010ED8A4000E016EA151030A10
:101BD000010ED8A4000E006E0150001250E076C233
:101BE000F0F277C2F1F2A90EF26F020EF36FAEECD3
:101BF00006F0AB51200A03E0ABC2A2F202D0300ED5
:101C0000A26F2E0EA36FAC51200A03E0ACC2A4F267
:101C100002D0300EA46FAD51200A03E0ADC2A5F290
:101C200002D0300EA56F1C51010A02E1E96B02D00F
:101C3000010EE96FE9C2F0F2090EF16F740EF26F56
:101C4000000EF36F020EF46F06EC06F0E9C2F0F23C
:101C50000F0EF16F710EF26F000EF36F020EF46F44
:101C600006EC06F0E9C2F0F20B0EF16FA20EF26F75
:101C7000020EF36F040EF46F06EC06F054D0A1517F
:101C8000010A51E1320E7625006E000E7721016EB9
:101C900000C076F201C077F200C0F0F201C0F1F2AC
:101CA000A90EF26F020EF36FAEEC06F0AB51200AF4
:101CB00003E0ABC2A2F202D0300EA26F2E0EA36FD1
:101CC000AC51200A03E0ACC2A4F202D0300EA46FE3
:101CD0001C51010A02E1E96B02D0010EE96FE9C271
:101CE000F0F2090EF16F7D0EF26F000EF36F020E2F
:101CF000F46F06EC06F0E9C2F0F20E0EF16F7A0E08
:101D0000F26F000EF36F020EF46F06EC06F0E9C2FC
:101D1000F0F20B0EF16FA20EF26F020EF36F030ED4
:101D2000F46F06EC06F0040076C132F0766B776B48
:101D3000010176A105D002017051762771517723F8
:101D4000010176A305D002018E5176278F517723AA
:101D5000010176A505D002018C5176278D5177239C
:101D6000010176A705D002018A5176278B5177238E
:101D7000010176A905D00201905176279151772370
:101D80000201A151040A010ED8A4000E016EA15156
:101D9000050A010ED8A4000E006E015000123FE0AB
:101DA00076C2F0F277C2F1F2A90EF26F020EF36F73
:101DB000AEEC06F0ABC2A2F2ACC2A3F2ADC2A4F28A
:101DC000AEC2A5F21C51010A03E1060EE96F02D072
:101DD000040EE96FE9C2F0F2100EF16F3E0EF26FE1
:101DE000010EF36F020EF46F06EC06F0E9C2F0F29A
:101DF000580EF16F3B0EF26F010EF36F020EF46F8F
:101E000006EC06F0E9C2F0F2280EF16FA20EF26FB6
:101E1000020EF36F040EF46F06EC06F08BD0A151A6
:101E2000020A010ED8A4000E016EA151030A010E90
:101E3000D8A4000E006E015000123EE076C2F0F20F
:101E400077C2F1F2A90EF26F020EF36FAEEC06F05C
:101E5000ABC2A2F2ACC2A3F2ADC2A4F2AEC2A5F272
:101E60001C51010A03E1010EE96F01D0E96BE9C2DF
:101E7000F0F2090EF16F380EF26F010EF36F020EE1
:101E8000F46F06EC06F0E9C2F0F20F0EF16F200ECF
:101E9000F26F010EF36F020EF46F06EC06F0E9C26A
:101EA000F0F20B0EF16FA20EF26F020EF36F040E42
:101EB000F46F06EC06F03ED0A151010A3BE176C278
:101EC000F0F277C2F1F2A90EF26F020EF36FAEECF0
:101ED00006F0ACC2A2F2ADC2A3F2AEC2A4F21C5193
:101EE000010A03E1010EE96F01D0E96BE9C2F0F2EA
:101EF000090EF16F1D0EF26F010EF36F020EF46FFB
:101F000006EC06F0E9C2F0F20E0EF16F1A0EF26F57
:101F1000010EF36F020EF46F06EC06F0E9C2F0F268
:101F20000B0EF16FA20EF26F020EF36F030EF46F41
:101F300006EC06F004001CC237F112000201EF6B40
:101F4000EBC201F0010E006E015004E0003600907B
:101F5000FF0FFBD700C0EEF2E9C2E9FFEAC2EAFFD9
:101F60000050EE14016E0152010ED8A4000E006E56
:101F7000ED51001A1AE0EC51000806E27CEC06F084
:101F80007CEC06F0EC07F7D7E9C2E9FFEAC2EAFF0A
:101F9000EE51EE14016E0152010ED8A4000E006E37
:101FA000ED51001A02E0FF0EEF6FEFC200F01200D9
:101FB0000201D3B102D08B9201D08B82D3B302D075
:101FC0008B9401D08B84D3B502D08B9601D08B86B5
:101FD000D3B702D08B9801D08B88D3B902D08B9A1B
:101FE00001D08B8A9FC2E9F2A0C2EAF2A9EC09F003
:101FF00012000201D3B102D08A9201D08A82D3B3F7
:1020000002D08A9401D08A84D3B502D0899401D0B9
:102010008984D3B702D0899801D08988D3B902D0F6
:10202000899A01D0898A9FC2E9F2A0C2EAF2A9EC9A
:1020300009F0120004000101BB51000A010ED8A4EE
:10204000000E016EBD51010A010ED8A4000E006EF3
:1020500000500116800E0201D619006E800E005C41
:1020600002E1640ED55D000ED8B0010E006E015085
:10207000001672E00101BC51000A6AE10201A1519F
:10208000040A010ED8A4000E016EA151050A010E2A
:10209000D8A4000E006E0150001219E0040EF06F7B
:1020A000100EF16FD90EF26F010EF36F080EF46F80
:1020B00006EC06F0060EF06F100EF16FD00EF26F08
:1020C000010EF36F080EF46F06EC06F041D0A1513B
:1020D000020A010ED8A4000E016EA151030A010EDE
:1020E000D8A4000E006E0150001218E0F06B090E2B
:1020F000F16FEB0EF26F010EF36F080EF46F06EC4A
:1021000006F0010EF06F090EF16FE20EF26F010E94
:10211000F36F080EF46F06EC06F01AD0A151010A15
:1021200017E1F06B090EF16FC80EF26F010EF36F3D
:10213000070EF46F06EC06F0010EF06F090EF16F5A
:10214000C00EF26F010EF36F070EF46F06EC06F08F
:10215000010E0101BC6F07D00101BC51010A01E170
:10216000A0DC0101BC6B04000201D4510101BF19C4
:1021700003E1BE510201D319D8B4BDD20201D3C2CA
:10218000BEF1D4C2BFF1800ED419006E800E005C87
:1021900002E1640ED35D1DE3050ED325006E000E33
:1021A000D421016E00C0D3F201C0D4F200C0F0F21D
:1021B00001C0F1F2A90EF26F020EF36FAEEC06F061
:1021C000ABC2A2F2ACC2A3F2ADC2A4F2570EA56F8D
:1021D0001ED0D3C2F0F2D4C2F1F2A90EF26F020EF9
:1021E000F36FAEEC06F0AD51200A03E0ADC2A2F2EF
:1021F00002D0300EA26F2E0EA36FAE51200A03E064
:10220000AEC2A4F202D0300EA46F570EA56FA1513A
:10221000040A010ED8A4000E016EA151050A010E98
:10222000D8A4000E006E015000120CE0F06B400EBE
:10223000F16FA20EF26F020EF36F040EF46F06EC54
:1022400006F00ED0A151000A0BE0F06B040EF16F06
:10225000A20EF26F020EF36F040EF46F06EC06F09E
:102260000101BC51010AD8A446D2BA51000A010E9C
:10227000D8A4000E016E7651000A010ED8A4000EFB
:10228000006E0150001604E0D5C29AF2D6C29BF24D
:102290009AC200F09BC201F0ADEC04F000C0E1F284
:1022A00001C0E2F202C0E3F203C0E4F2000E046EE9
:1022B000000E056E480E066E850E076EE1C200F038
:1022C000E2C201F0E3C202F0E4C203F03CEC08F029
:1022D00000C0DDF201C0DEF202C0DFF203C0E0F2B6
:1022E000E1C204F0E2C205F0E3C206F0E4C207F086
:1022F000000E006E000E016E480E026E850E036E1B
:102300003CEC08F0DDC204F0DEC205F0DFC206F0EE
:10231000E0C207F02FEC0AF000C0DDF201C0DEF2EF
:1023200002C0DFF203C0E0F29EC200F042EC0DF00A
:10233000DDC204F0DEC205F0DFC206F0E0C207F045
:102340004BEC05F0000E046E000E056E200E066EBE
:10235000820E076E3CEC08F01F0E046E850E056EB3
:102360006B0E066E7B0E076E4BEC05F0000E046ED6
:10237000000E056E000E066E7F0E076E2FEC0AF043
:1023800000C004F001C005F002C006F003C007F071
:10239000000E006E000E016E000E026E7F0E036EC8
:1023A0003CEC08F000C0E5F201C0E6F202C0E7F242
:1023B00003C0E8F2D5C200F0D6C201F0ADEC04F0E3
:1023C00000C0E1F201C0E2F202C0E3F203C0E4F2B5
:1023D000000E046E000E056E480E066E850E076E2A
:1023E000E1C200F0E2C201F0E3C202F0E4C203F095
:1023F0003CEC08F0000E046E000E056E000E066E3A
:10240000800E076E2FEC0AF000C0DDF201C0DEF294
:1024100002C0DFF203C0E0F2E1C204F0E2C205F064
:10242000E3C206F0E4C207F0000E006E000E016E7B
:10243000480E026E850E036E3CEC08F0DDC204F01F
:10244000DEC205F0DFC206F0E0C207F02FEC0AF0B2
:1024500000C004F001C005F002C006F003C007F0A0
:10246000000E006E000E016E000E026E810E036EF5
:102470003CEC08F0E5C204F0E6C205F0E7C206F065
:10248000E8C207F04BEC05F00A0E046ED70E056E9D
:10249000230E066E770E076E2FEC0AF000C0E1F2F5
:1024A00001C0E2F202C0E3F203C0E4F2E1C2D9F2F9
:1024B000E2C2DAF2E3C2DBF2E4C2DCF2D3C200F041
:1024C000D4C201F0ADEC04F0E1C204F0E2C205F0C8
:1024D000E3C206F0E4C207F04BEC05F0CDEC04F0EB
:1024E00000C0DDF201C0DEF2DDC2D7F2DEC2D8F2FA
:1024F000E1C200F0E2C201F0E3C202F0E4C203F084
:10250000000E046E000E056E480E066E850E076EF8
:102510004BEC05F000C0D9F201C0DAF202C0DBF2E8
:1025200003C0DCF2800E0201DE19006E800E005C3A
:1025300002E1640EDD5D1DE3050ED725006E000E81
:10254000D821016E00C0D7F201C0D8F200C0F0F26D
:1025500001C0F1F2A90EF26F020EF36FAEEC06F0BD
:10256000ABC2A2F2ACC2A3F2ADC2A4F2570EA56FE9
:102570001ED0D7C2F0F2D8C2F1F2A90EF26F020E4D
:10258000F36FAEEC06F0AD51200A03E0ADC2A2F24B
:1025900002D0300EA26F2E0EA36FAE51200A03E0C0
:1025A000AEC2A4F202D0300EA46F570EA56FA15197
:1025B000040A010ED8A4000E016EA151050A010EF5
:1025C000D8A4000E006E015000120DE0040EF06F52
:1025D000400EF16FA20EF26F020EF36F040EF46F55
:1025E00006EC06F029D0A151020A010ED8A4000E73
:1025F000016EA151030A010ED8A4000E006E015015
:1026000000120CE0F06B0D0EF16FA20EF26F020ED5
:10261000F36F040EF46F06EC06F00ED0A151010A20
:102620000BE1F06B0C0EF16FA20EF26F020EF36F66
:10263000040EF46F06EC06F0D9C200F0DAC201F025
:10264000DBC202F0DCC203F0CDEC04F000C0F0F21B
:1026500001C0F1F2A90EF26F020EF36FAEEC06F0BC
:10266000ADC2A2F2AEC2A3F2A151040A010ED8A4D7
:10267000000E016EA151050A010ED8A4000E006ED5
:10268000015000120DE0060EF06F4C0EF16FA20E1D
:10269000F26F020EF36F020EF46F06EC06F02BD011
:1026A000A151030A010ED8A4000E016EA151040A23
:1026B000010ED8A4000E006E015000120DE0010EB4
:1026C000F06F0E0EF16FA20EF26F020EF36F020E9C
:1026D000F46F06EC06F00FD0A151010A0CE1010ED7
:1026E000F06F0D0EF16FA20EF26F020EF36F020E7D
:1026F000F46F06EC06F004001200810E0201E96F8F
:102700000F0EEA6FEB6B190EEC6FED6B17DC00C070
:10271000D3F2810EE96F0F0EEA6F010EEB6F190E07
:10272000EC6FED6B0BDC0050D313810EE96F0F0ED5
:10273000EA6F020EEB6F190EEC6FED6B9EEC0FF073
:10274000D351001203E0010E0101746F1200040066
:1027500008EC0AF000C0D3F201C0D4F2000E01BEB2
:10276000FF0E0201D56FD66F2FEC0DF000C0D7F22F
:1027700001C0D8F2000E01BEFF0E0201D96FDA6F60
:10278000D3C2E9F2D4C2EAF242EC0CF0ADEC04F0B0
:1027900000C0DBF201C0DCF202C0DDF203C0DEF2F9
:1027A000800E0201DA19006E800ED619005C08E175
:1027B000D551D95D05E1D451D85D02E1D351D75D42
:1027C00008E3E70ED36F030ED46F000ED56FD66FFC
:1027D00045D0D751D325006ED851D421016ED9519F
:1027E000D521026EDA51D621036E640E046E000EFE
:1027F000056E066E076E85EC06F0D3C204F0D4C2F7
:1028000005F0D5C206F0D6C207F0D751045ED85104
:10281000055AD951065ADA51075AFAEC08F000C0A5
:10282000D3F201C0D4F202C0D5F203C0D6F2800EBA
:10283000046E800E0318045C08E10250000805E1F4
:102840000150030802E10050E70808E2E70E020128
:10285000D36F030ED46F000ED56FD66FDBC200F0BE
:10286000DCC201F0DDC202F0DEC203F0000E046E35
:10287000000E056E200E066E820E076E4BEC05F004
:10288000000E046E000E056E7A0E066E880E076E40
:102890003CEC08F000C0DBF201C0DCF202C0DDF26B
:1028A00003C0DEF2F40E046EFD0E056E340E066EED
:1028B0007F0E076E3CEC08F000C0DBF201C0DCF2DA
:1028C00002C0DDF203C0DEF200C004F001C005F07A
:1028D00002C006F003C007F04BEC05F0000E046EDA
:1028E000000E056E200E066E810E076E3CEC08F0A1
:1028F00000C0DBF201C0DCF202C0DDF203C0DEF298
:10290000000E046E000E056E000E066E7E0E076E43
:102910002FEC0AF000C0DBF201C0DCF202C0DDF2F5
:1029200003C0DEF2CDEC04F000C098F201C099F2D1
:10293000800E0118026E800E025C02E10A0E005C3D
:1029400006E2010E0201946F000E956F19D002018C
:10295000800ED619006E800E005C08E1000ED55D79
:1029600005E1000ED45D02E1640ED35D05E2E70EE1
:10297000946F030E956F04D0D3C294F2D4C295F233
:10298000120004000201D4516F1902E16E51D319F3
:10299000D8B4D3D0D3C26EF2D4C26FF2000ED41921
:1029A00002E1010ED31937E1A151040A010ED8A4A6
:1029B000000E016EA151050A010ED8A4000E006E92
:1029C000015000120DE0020EF06F400EF16F920EFA
:1029D000F26F000EF36F040EF46F06EC06F015D0E4
:1029E000A151000A0DE0010EF06F040EF16FE70E29
:1029F000F26F000EF36F040EF46F06EC06F005D0D4
:102A0000A151000A02E18A8C8A8E8B908B9C8B9E4E
:102A10006E6B6F6B92D019EC0DF0E4C000F042ECDD
:102A20000DF0F5C004F0F6C005F0F7C006F0F8C0F0
:102A300007F04BEC05F0CDEC04F000C0E5F001C070
:102A4000E6F0D3C26EF2D4C26FF2D3C2F0F2D4C2B7
:102A5000F1F2A90EF26F020EF36FAEEC06F0ACC20B
:102A6000A2F22E0EA36FADC2A4F2AEC2A5F2A15186
:102A7000040A010ED8A4000E016EA151050A010E30
:102A8000D8A4000E006E015000120DE0020EF06F8F
:102A9000400EF16FA20EF26F020EF36F040EF46F90
:102AA00006EC06F02DD0A151000A0DE0010EF06FEA
:102AB000040EF16FA20EF26F020EF36F040EF46FAC
:102AC00006EC06F01DD0A151000A1AE1800E006E3E
:102AD000800ED419005C02E1D351960803E38A9C6E
:102AE0008A8E0ED0800E006E800ED419005C02E13A
:102AF000D351FA0803E3819C819E02D0818C819E90
:102B0000800E006E800ED419005C02E1D35196084D
:102B100004E38B808B9C8B9E10D0800E006E800E09
:102B2000D419005C02E1D351FA0804E38B908B8C3A
:102B30008B9E03D08B908B9C8B8E04001200A6A2E0
:102B400002D00000FCD7A69CCBC2A9FFCCC2A8FF34
:102B5000A69EA684F2CF00F0F29E550EA76EAA0E96
:102B6000A76EA68200BE02D0F29E01D0F28EA6947D
:102B7000A1B802D00000FCD7A19812000201CBB18D
:102B800002D0899C01D0898C9FC2E9F2A0C2EAF2EE
:102B9000A9EC09F012000101BA6B766B0201D36B4C
:102BA000F9EC0FF076C1D3F2D8EC0FF09FC2E9F246
:102BB000A0C2EAF2A9EC09F012000201CF6BD06BBF
:102BC000640E9C5DCC6F000E9D59CD6F010ED16FD0
:102BD000000ED26F986B996B0400780ECE6FCB6BA2
:102BE000CE51CB5D42E281B802D0068001D0069082
:102BF00081BA02D0D88001D0D89006B003D002E2CA
:102C0000069001D0068081B002D0D88001D0D89043
:102C100006B003D002E2069001D0068006A007D0DD
:102C20006CDD01017451010A02E1746B93D28FDDF6
:102C3000800ED019006E800E9919005C02E1985147
:102C4000CF5D08E298C2CFF299C2D0F294C2D1F21D
:102C500095C2D2F2100E0C6E940E0D6E0D2EFED794
:102C60000C2EFCD70000CB2BBBD70400CFC296F2B2
:102C7000D0C297F2D1C2D3F2D2C2D4F282DE800E99
:102C8000D219006E800E9D19005C02E19C51D15D4D
:102C9000000ED8B0010E006E005001017515056ED2
:102CA000800E7819036E800E0201D219035C03E1D5
:102CB000D1510101775D0101010ED8B0000E036E04
:102CC00077510201D15D016E010178510201D259A3
:102CD000026E800ECD19006E800E0218005C02E1BB
:102CE0000150CC5D010ED8B0000E006E00500314F0
:102CF000046E800ED219036E800E01017819035CF8
:102D000003E177510201D15D0201010ED8B0000E3E
:102D1000036ED1510101775D016E0201D2510101B3
:102D20007859026E800E0201CD19006E800E0218D5
:102D3000005C02E10150CC5D010ED8B0000E006EC7
:102D40000350001600500410016E01017851030A6F
:102D500002E1E70E7719010ED8A4000E006E0150B3
:102D600000120550001602E0010EA76F81B802D0D4
:102D7000068001D0069081BA02D0D88001D0D890C8
:102D800006B003D002E2069001D0068081B002D0E6
:102D9000D88001D0D89006B003D002E2069001D0CE
:102DA000068006A007D0A9DC01017451010A02E1E6
:102DB000746BD0D196C2D3F297C2D4F2D1C2D5F2FD
:102DC000D2C2D6F21AEC10F081B802D0068001D03F
:102DD000069081BA02D0D88001D0D89006B003D036
:102DE00002E2069001D0068081B002D0D88001D0E6
:102DF000D89006B003D002E2069001D0068006A06B
:102E000007D07BDC01017451010A02E1746BA2D18D
:102E100001010400A651010AD8A49CD10201A151CC
:102E2000040A010ED8A4000E016EA151050A010E7C
:102E3000D8A4000E006E01500012D8B4C3D0020E08
:102E4000F06F100EF16FB10EF26F010EF36F080EFE
:102E5000F46F06EC06F0030E0B6E080E0C6E770E88
:102E60000D6E0D2EFED70C2EFCD70B2EFAD70400BC
:102E7000020EF06F100EF16FA80EF26F010EF36FDD
:102E8000080EF46F06EC06F00B0E0B6E260E0C6EA1
:102E90005D0E0D6E0D2EFED70C2EFCD70B2EFAD725
:102EA000000000000400020EF06F100EF16F9D0E86
:102EB000F26F010EF36F080EF46F06EC06F0070ECA
:102EC0000B6E170E0C6E6A0E0D6E0D2EFED70C2EAD
:102ED000FCD70B2EFAD700000400020EF06F100E84
:102EE000F16F820EF26F010EF36F080EF46F06ECB5
:102EF00006F00B0E0B6E260E0C6E5D0E0D6E0D2E7B
:102F0000FED70C2EFCD70B2EFAD7000000000400D1
:102F1000020EF06F100EF16F790EF26F010EF36F6B
:102F2000080EF46F06EC06F0070E0B6E170E0C6E13
:102F30006A0E0D6E0D2EFED70C2EFCD70B2EFAD777
:102F400000000400020EF06F100EF16F940EF26F8D
:102F5000010EF36F080EF46F06EC06F00B0E0B6E0D
:102F6000260E0C6E5D0E0D6E0D2EFED70C2EFCD7B0
:102F70000B2EFAD7000000000400020EF06F100EB6
:102F8000F16F8B0EF26F010EF36F080EF46F06EC0B
:102F900006F0030E0B6E080E0C6E770E0D6E0D2EE6
:102FA000FED70C2EFCD70B2EFAD7020EF06F100EA8
:102FB000F16F650EF26F020EF36F080EF46F06EC00
:102FC00006F0BED0A151000AD8B4BAD0010EF06FFD
:102FD000F16B260EF26F020EF36F080EF46F06EC23
:102FE00006F0030E0B6E080E0C6E770E0D6E0D2E96
:102FF000FED70C2EFCD70B2EFAD70400010EF06F73
:10300000F16B4A0EF26F020EF36F080EF46F06ECCE
:1030100006F00B0E0B6E260E0C6E5D0E0D6E0D2E59
:10302000FED70C2EFCD70B2EFAD7000000000400B0
:10303000010EF06FF16B410EF26F020EF36F080E8E
:10304000F46F06EC06F0070E0B6E170E0C6E6A0E90
:103050000D6E0D2EFED70C2EFCD70B2EFAD70000CE
:103060000400010EF06FF16B5C0EF26F020EF36F55
:10307000080EF46F06EC06F00B0E0B6E260E0C6EAF
:103080005D0E0D6E0D2EFED70C2EFCD70B2EFAD733
:10309000000000000400010EF06FF16B530EF26FA0
:1030A000020EF36F080EF46F06EC06F0070E0B6EBF
:1030B000170E0C6E6A0E0D6E0D2EFED70C2EFCD761
:1030C0000B2EFAD700000400010EF06FF16B1D0EFD
:1030D000F26F020EF36F080EF46F06EC06F00B0EA3
:1030E0000B6E260E0C6E5D0E0D6E0D2EFED70C2E89
:1030F000FCD70B2EFAD7000000000400010EF06F81
:10310000F16B380EF26F020EF36F080EF46F06ECDF
:1031100006F0030E0B6E080E0C6E770E0D6E0D2E64
:10312000FED70C2EFCD70B2EFAD7010EF06FF16BE9
:103130002F0EF26F020EF36F080EF46F06EC06F01E
:103140000400100E6E6F270E6F6FD1C2D3F2D2C281
:10315000D4F217DC120004001EDD010E1C6F010EFC
:10316000CB6F0CDDFF0ECB6FCC6BE9DCFE0E0201EA
:10317000CB6FCC6BE4DCFD0E0201CB6F010ECC6F8C
:10318000DEDC51EC0DF00101BC6B899E89860201E9
:10319000946B956B986B996B0101776B786B02015F
:1031A000A151040A010ED8A4000E016EA151050A16
:1031B000010ED8A4000E006E0150001229E0020E8C
:1031C000F06F100EF16F0F0EF26F020EF36F080E1C
:1031D000F46F06EC06F004000D0E0B6E2D0E0C6E57
:1031E000D70E0D6E0D2EFED70C2EFCD70B2EFAD758
:1031F00000000000020EF06F100EF16F060EF26F6D
:10320000020EF36F080EF46F06EC06F004002CD0EB
:10321000A151000A27E0010EF06FF16BF40EF26F7E
:10322000010EF36F080EF46F06EC06F004000D0EAD
:103230000B6E2D0E0C6ED70E0D6E0D2EFED70C2EB6
:10324000FCD70B2EFAD700000000010EF06FF16BD7
:10325000FD0EF26F010EF36F080EF46F06EC06F030
:10326000040002D08A8C8A8E8B908B9C8B9E100ED1
:103270006E6F270E6F6F100E0101BE6F270EBF6FAE
:103280009CDC12000134083609360450085E0550F3
:10329000D8A0053C095E003601360F0E0C6E0134D5
:1032A00008360936045000A006D0085E0550D8A0A4
:1032B000053C095E05D008260550D8B0053C092616
:1032C000003601360C2EEBD700B006D0045008268D
:1032D0000550D8B0053C0926000012000450000A31
:1032E00008E10550000A05E1FF0E006E7F0E016E39
:1032F00057D00D6A096A086A01500010D8B4000C52
:10330000015005180A6E0ABE0D1E0B6A05AE05D0E7
:10331000041E051E042AD8B4052A01AE05D0001EDD
:10332000011E002AD8B4012A015005100A6E0ABEF7
:1033300010D0A8DF0BB020D00DAE000C001E011E77
:10334000002AD8B4012A081E091E082AD8B4092A5E
:10335000000C05AE0DD001BE07D00150096E005023
:10336000086E016A006AE8D7016A006A002A000C48
:10337000011E001E0B2ADDD7082AD8B4092A0450E2
:10338000085CD8A4D9D70550095CD8A4D5D7096A58
:10339000086A002AD8B4012A01AECED70000FF0C7B
:1033A0001200A7EC13F01951640A10E0192B800EDB
:1033B0001B19006E800E9919005C02E198511A5D8C
:1033C00004E298C21AF299C21BF20ED0196B1AC20B
:1033D000D3F21BC2D4F294C2D5F295C2D6F21AEC43
:1033E00010F002011A6B1B6B800E9919026E800E91
:1033F000B319025C02E1B251985D010ED8B0000E23
:10340000026E800EB119016E800E9919015C02E105
:103410009851B05D010ED8B0000E016E800E006EA6
:10342000800EB119005C02E1B0510008010ED8B065
:10343000000E006E01500016025000124EE0040013
:10344000A7EC13F01951640A10E0192B800E1B1918
:10345000006E800E9919005C02E198511A5D04E239
:1034600098C21AF299C21BF20ED0196B1AC2D3F28B
:103470001BC2D4F294C2D5F295C2D6F21AEC10F067
:1034800002011A6B1B6B810EE96F0F0EEA6FEB6B7B
:10349000050EEC6F010EED6F9EEC0FF0005202E096
:1034A000010E186F1851010A010ED8A4000ECA6F40
:1034B000810EE96F0F0EEA6FEB6B050EEC6FED6B93
:1034C0009EEC0FF0CA51001607E045DE0201946B36
:1034D000956B006A016A05D087D794C200F095C247
:1034E00001F01200030E0201C76F0101766B0201A9
:1034F000D36BD8EC0FF055DF00C0C8F201C0C9F2A1
:10350000C8C294F2C9C295F2140E046E000E056E84
:10351000C8C200F0C9C201F0E1DE00500201C825B6
:10352000C56F0150C921C66FC7C2C4F2C4511F087C
:1035300046E3C4C2D3F2D8EC0FF033DF00C094F2FC
:1035400001C095F2800E0118026E800EC619025C51
:1035500002E1C551005C31E2140E046E000E056EEE
:1035600094C200F095C201F0B9DE0050020194252A
:10357000C56F01509521C66FC4C276F1C7C29BF0DA
:10358000800E9519006E800E005C02E1780E945D4D
:1035900001E215D0C751C425016E01C0C4F201502B
:1035A000090A03E1080EC46F07D0C451110A04E1EF
:1035B000100EC46F040EC76F01D001D0B7D776C10B
:1035C000D3F2D8EC0FF01200030E0201C36FBF6BF1
:1035D000C3C29CF0030EC06F140E046E000E056E85
:1035E00094C200F095C201F079DE005002019425EA
:1035F000C16F01509521C26FBE6BBE511F084BE3D6
:10360000BEC2D3F2F9EC0FF06DDFCBDE00C094F256
:1036100001C095F2800E0118026E800EC219025C84
:1036200002E1C151005C35E2140E046E000E056E1D
:1036300094C200F095C201F051DE005002019425C1
:10364000C16F01509521C26FBEC2BAF176C1BFF2FF
:10365000C3C29CF09BC0C0F2800E9519006E800E14
:10366000005C02E1780E945D01E215D0C351BE25E5
:10367000016E01C0BEF20150090A03E1080EBE6FDF
:1036800007D0BE51110A04E1100EBE6F040EC36FC5
:1036900001D001D0B2D7BFC276F1BAC1D3F2F9ECF2
:1036A0000FF076C1D3F2D8EC0FF0C0C29BF0340E0D
:1036B0000C6EF10E0D6E0D2EFED70C2EFCD70000F9
:1036C000000012009BC0BEF200019B510101762553
:1036D000016E01C0C0F201501F0803E21F0E02017B
:1036E000C06F010176510201BE5D06E2BE510101CB
:1036F000765D0201C16F01D0C16BC1C276F1C1C25A
:10370000D3F2D8EC0FF04DDE00C094F201C095F278
:10371000000E011802E1000E001801E16ED094C203
:10372000C2F295C2C3F2C151010FBF6FBF51C05D5C
:1037300060E3BFC2D3F2D8EC0FF033DE00C094F2E6
:1037400001C095F2000E011802E1000E001801E11F
:1037500054D0800E9519006E800EC319005C02E1F2
:10376000C251945D0FE3340E0C6EF10E0D6E0D2EF2
:10377000FED70C2EFCD70000000013DE00C094F230
:1037800001C095F2800E9519006E800EC319005C81
:1037900002E1C251945D0FE3340E0C6EF10E0D6E1A
:1037A0000D2EFED70C2EFCD700000000FADD00C065
:1037B00094F201C095F2800E9519006E800EC31927
:1037C000005C02E1C251945D11E294C2C2F295C262
:1037D000C3F2BFC276F1800E9519006E800E005CB8
:1037E00002E1780E945D01E204D001D002D0BF2B3B
:1037F0009DD776C1D3F2D8EC0FF012009CC0BEF278
:1038000000019C510101BA25016E01C0C0F20150B6
:103810001F0803E21F0E0201C06F0101BA5102012D
:10382000BE5D06E2BE510101BA5D0201C16F01D069
:10383000C16BC1C2BAF1C1C2D3F2F9EC0FF0B1DD74
:1038400000C094F201C095F2000E011802E1000ED2
:10385000001801E16ED094C2C2F295C2C3F2C15108
:10386000010FBF6FBF51C05D60E3BFC2D3F2F9EC7F
:103870000FF097DD00C094F201C095F2000E011820
:1038800002E1000E001801E154D0800E9519006E7F
:10389000800EC319005C02E1C251945D0FE3340E47
:1038A0000C6EF10E0D6E0D2EFED70C2EFCD7000007
:1038B000000077DD00C094F201C095F2800E9519EA
:1038C000006E800EC319005C02E1C251945D0FE3EB
:1038D000340E0C6EF10E0D6E0D2EFED70C2EFCD795
:1038E000000000005EDD00C094F201C095F2800E81
:1038F0009519006E800EC319005C02E1C251945DFF
:1039000011E294C2C2F295C2C3F2BFC2BAF1800EF4
:103910009519006E800E005C02E1780E945D01E264
:1039200004D001D002D0BF2B9DD7BAC1D3F2F9EC9D
:103930000FF0120004000201186B1A6B1B6B196B5D
:1039400030DD94C29AF295C29BF2800E9519006EFA
:10395000800E005C02E16E0E945D01E248D1CBEC7A
:1039600015F051EC0DF0020E0B6E040E0C6EBA0E3B
:103970000D6E0D2EFED70C2EFCD70B2EFAD70000A5
:1039800010DD94C29AF295C29BF2800E9519006EDA
:10399000800E005C02E16E0E945D01E228D1800E83
:1039A000016E800E9319015C02E192516E08010EC6
:1039B000D8B0000E016E800E9319006E800E95191E
:1039C000005C02E19451925D010ED8B0000E006ED1
:1039D0000150001601E00BD194C2B8F295C2B9F2C1
:1039E000F3DD000E951902E1000E941903E1CBEC12
:1039F00015F0FDD0D6DC800E9519006E800E005CAF
:103A000002E1780E945D01E2F2D0F8DE000E951925
:103A100002E1000E941903E1CBEC15F0E8D0C1DC13
:103A2000800E9519006E800E005C02E1780E945DA8
:103A300001E2DDD047DE000E951902E1000E941977
:103A400003E1CBEC15F0D3D0ACDC800E9519006E01
:103A5000800E005C02E1780E945D01E2C8D0800E19
:103A60009519016E800E015C02E1C80E945D010E95
:103A7000D8B0000E016E800E9519006E800EB91937
:103A8000005C02E1B851945D010ED8B0000E006EEA
:103A900000500114036E9451B85D016E9551B959EF
:103AA000026E800E006E800E0218005C02E1015072
:103AB0006408010ED8B0000E006E0350001601E03D
:103AC00096D094C2B8F295C2B9F2BAC1BAF2000E59
:103AD000BB6F76C1BCF2000EBD6F1C51010A02E142
:103AE0001C6B02D0010E1C6FCBEC15F01CC2CBF28C
:103AF000BEEC15F0020E0B6E040E0C6EBA0E0D6EBF
:103B00000D2EFED70C2EFCD70B2EFAD7000049DC69
:103B1000800E9519006E800E005C02E1780E945DB7
:103B200001E265D051DD000E951902E1000E9419F5
:103B300003E1CBEC15F05BD034DC800E9519006E00
:103B4000800E005C02E1780E945D01E250D056DEFA
:103B5000000E951902E1000E941903E1CBEC15F06B
:103B600046D01FDC800E9519006E800E005C02E1CD
:103B7000780E945D01E23BD0A5DD000E951902E1BF
:103B8000000E941903E1CBEC15F031D00ADC800E65
:103B90009519006E800E005C02E1780E945D01E2E2
:103BA00026D0800EB919006E800E9519005C02E1D6
:103BB0009451B85D1BE21C51010A02E11C6B02D05A
:103BC000010E1C6F1CC2CBF2BEEC15F0BAC2BAF1EA
:103BD000BCC276F1BAC2D3F2F9EC0FF076C1D3F2DF
:103BE000D8EC0FF0B8C294F2B9C295F204001200FA
:103BF000B6C200F00032009E0032009E0032009EED
:103C00000032009E0A0E0002F3CF01F00F0E0201F7
:103C1000B615006E0150002612000EEC00F086C2B0
:103C200009F32BEC00F00301096B2BEC00F0AE0E56
:103C30000301096F2BEC00F002017E51020A010E14
:103C4000D8A4000E016E7E51030A010ED8A4000E06
:103C5000006E01500012D8B497D0D50E0301096F41
:103C60002BEC00F0800E0301096F2BEC00F0A80E86
:103C70000301096F2BEC00F03F0E0301096F2BECE1
:103C800000F0D30E0301096F2BEC00F002017E510E
:103C9000020A05E17FC209F32BEC00F007D0020114
:103CA0007F511F0F0301096F2BEC00F0400E030141
:103CB000096F2BEC00F08D0E0301096F2BEC00F067
:103CC000140E0301096F2BEC00F0810E0301096F44
:103CD0002BEC00F0B40E0301096F2BEC00F0D90EB1
:103CE0000301096F2BEC00F0220E0301096F2BEC8E
:103CF00000F0200E0301096F2BEC00F0020E03010F
:103D0000096F2BEC00F0210E0301096F2BEC00F082
:103D10000301096B2BEC00F07F0E0301096F2BEC04
:103D200000F02E0E0301096F2BEC00F002017E5112
:103D3000020A0BE1A00E0301096F2BEC00F0C00E8C
:103D40000301096F2BEC00F00AD0A10E0301096FEB
:103D50002BEC00F0C80E0301096F2BEC00F0DA0E1B
:103D60000301096F2BEC00F0020E0301096F2BEC2D
:103D700000F0DB0E0301096F2BEC00F0400E030195
:103D8000096F2BEC00F08AD0D50E0301096F2BECE4
:103D900000F0800E0301096F2BEC00F0A80E030168
:103DA000096F2BEC00F03F0E0301096F2BEC00F0C4
:103DB000D30E0301096F2BEC00F07FC209F32BEC4B
:103DC00000F0400E0301096F2BEC00F08D0E030193
:103DD000096F2BEC00F0140E0301096F2BEC00F0BF
:103DE000810E0301096F2BEC00F0FF0E0301096F38
:103DF0002BEC00F0D90E0301096F2BEC00F0F10E53
:103E00000301096F2BEC00F0200E0301096F2BEC6E
:103E100000F0020E0301096F2BEC00F0210E0301EC
:103E2000096F2BEC00F00301096B2BEC00F07F0E07
:103E30000301096F2BEC00F02E0E0301096F2BEC30
:103E400000F002017E51040A0BE1A00E0301096F8C
:103E50002BEC00F0C00E0301096F2BEC00F00AD030
:103E6000A10E0301096F2BEC00F0C80E0301096FCE
:103E70002BEC00F0DA0E0301096F2BEC00F0120EB0
:103E80000301096F2BEC00F0DB0E0301096F2BEC33
:103E900000F0400E0301096F2BEC00F0A40E0301AB
:103EA000096F2BEC00F0A60E0301096F2BEC00F05C
:103EB000D8EC00F0030E0B6E080E0C6E770E0D6E34
:103EC0000D2EFED70C2EFCD70B2EFAD70EEC00F0E1
:103ED00086C209F32BEC00F0400E0301096F2BECB6
:103EE00000F002017E51020A010ED8A4000E016EFC
:103EF0007E51030A010ED8A4000E006E015000127C
:103F00001AE0B76BB751030815E3B7C204F3030116
:103F1000056B62EC00F00201B66B0201800EB65D2B
:103F200006E2B62B0301096B2BEC00F0F6D7020179
:103F3000B72BE8D719D0B76BB751070815E3B7C24D
:103F400004F30301056B62EC00F00201B66B0201A1
:103F5000800EB65D06E2B62B0301096B2BEC00F078
:103F6000F6D70201B72BE8D7D8EC00F0AF0EF06F10
:103F70001DEC07F01200A69CB6C2A9FFA69EA68063
:103F8000A8CF00F012005E0E0201816F0E0E826F4C
:103F9000F00E836F020E846FC26A0101171D006E5E
:103FA0000050C116070EC012C08EC280120004005D
:103FB0000201A151040A010ED8A4000E016EA15104
:103FC000050A010ED8A4000E006E01500012D8B4EC
:103FD000B8D00001F451000A7EE10201F06B160E28
:103FE000F16FEC0EF26F000EF36F070EF46F06EC3C
:103FF00006F0020EF06F040EF16FD90EF26F000E94
:10400000F36F0A0EF46F06EC06F0040EF06F100E5C
:10401000F16FB10EF26F000EF36F080EF46F06EC45
:1040200006F0060EF06F040EF16FA60EF26F000E92
:10403000F36F0A0EF46F06EC06F004000D0E0B6E23
:104040002D0E0C6ED70E0D6E0D2EFED70C2EFCD73E
:104050000B2EFAD70000000004000B0E0B6E260E8C
:104060000C6E5D0E0D6E0D2EFED70C2EFCD70B2E9A
:10407000FAD7000000000400F06B100EF16F9D0EE7
:10408000F26F000EF36F080EF46F06EC06F0020EEE
:10409000F06F040EF16FCE0EF26F000EF36F0A0E8A
:1040A000F46F06EC06F0040EF06F100EF16FC50E03
:1040B000F26F000EF36F080EF46F06EC06F0060EBA
:1040C000F06F040EF16FBA0EF26F000EF36F0A0E6E
:1040D000F46F06EC06F0040E0B6E0C0E0C6E330E35
:1040E0000D6E02010D2EFDD70C2EFBD70B2EF9D72E
:1040F00000000000F06B100EF16F830EF26F000EE7
:10410000F36F080EF46F06EC06F0020EF06F100E5F
:10411000F16F490EF26F000EF36F080EF46F06ECAC
:1041200006F0010175530CE00201F06B700EF16FA7
:10413000470EF26F000EF36F010EF46F06EC06F0FF
:10414000BFD00201A151000AD8B4BAD00001F45185
:10415000000AD8A482D00201F06B040EF16F3F0E6A
:10416000F26F000EF36F070EF46F06EC06F0010E0F
:10417000F06F030EF16F660EF26F000EF36F0A0E12
:10418000F46F06EC06F004000F0E0B6E350E0C6E8D
:10419000510E0D6E0D2EFED70C2EFCD70B2EFAD71E
:1041A00004000B0E0B6E260E0C6E5D0E0D6E0D2EAA
:1041B000FED70C2EFCD70B2EFAD70000000004000F
:1041C000F06B040EF16F5D0EF26F000EF36F080ED0
:1041D000F46F06EC06F0010EF06F030EF16F520E55
:1041E000F26F000EF36F0A0EF46F06EC06F0040097
:1041F0000D0E0B6E2D0E0C6ED70E0D6E0D2EFED706
:104200000C2EFCD70B2EFAD70000000004000B0E7A
:104210000B6E260E0C6E5D0E0D6E0D2EFED70C2E47
:10422000FCD70B2EFAD7000000000400F06B040E40
:10423000F16F360EF26F000EF36F080EF46F06EC9E
:1042400006F0010EF06F030EF16F270EF26F000EF5
:10425000F36F0A0EF46F06EC06F0040E0B6E0C0EF4
:104260000C6E330E0D6E02010D2EFDD70C2EFBD7FA
:104270000B2EF9D700000000F06BF16B1E0EF26FF1
:10428000000EF36F080EF46F06EC06F0010EF06FEF
:10429000F16B150EF26F000EF36F080EF46F06EC63
:1042A00006F0010175530CE00201F06B080EF16F8E
:1042B000340EF26F000EF36F010EF46F06EC06F091
:1042C0000400FF0E336EFF0E326E51EC0DF0120043
:1042D00004000201A151040A010ED8A4000E016ECF
:1042E000A151050A010ED8A4000E006E0150001263
:1042F0000DE0020EF06F400EF16F040EF26F010E32
:10430000F36F040EF46F06EC06F012D0A151000A10
:104310000DE0010EF06F040EF16FFF0EF26F000E54
:10432000F36F040EF46F06EC06F002D08A8C8A8ECE
:104330008B908B9C8B9E9AEC1CF0A151000A1AE189
:10434000800E006E800E9519005C02E19451960873
:1043500003E38A9C8A8E0ED0800E006E800E951923
:10436000005C02E19451FA0803E3819C819E02D033
:10437000818C819E800E006E800E9519005C02E19A
:104380009451960802E38B800CD0800E006E800E54
:104390009519005C02E19451FA0802E38B8C01D07C
:1043A0008B8EFF0ECB6F76C1CCF29FEC15F0FE0E1C
:1043B0000201CB6FBAC1CCF29FEC15F0FD0E0201E9
:1043C000CB6F1CC2CCF29FEC15F0100E02016E6F89
:1043D000270E6F6F100E0101BE6F270EBF6FDDEC51
:1043E00015F094C277F195C278F1899E8986040010
:1043F00012000400010E0201B66FBDDD00C0A1F283
:10440000020EB66FB8DD0050010A03E1010E010192
:10441000756F030E0201B66FAEDD00C0B6F2F8ECA8
:104420001DF000C09FF2000EA06F040EB66FA3DD5A
:1044300000C0B6F2F8EC1DF00A0E0002F3CF9CF2B9
:10444000F4CF9DF2050EB66F96DD00C0B6F2F8EC23
:104450001DF00A0E0002F3CFB2F2F4CFB3F2060E53
:10446000B66F89DD00C0B6F2F8EC1DF00A0E00024E
:10447000F3CFB0F2F4CFB1F2090EB66F7CDD00C01D
:10448000B6F2F8EC1DF00A0E0002F3CF92F2F4CF70
:1044900093F20400100EB66F6EDD00C0B6F2F8ECB9
:1044A0001DF0640E0002F3CFB4F2F4CFB5F2110E9A
:1044B000B66F61DD00C0B6F2F8EC1DF00050B42517
:1044C000746F000EB521756F120EB66F54DD00C00B
:1044D000B6F2F8EC1DF0640E0002F3CFB4F2F4CFA4
:1044E000B5F2130EB66F47DD00C0B6F2F8EC1DF062
:1044F0000050B425726F000EB521736F140EB66FA5
:104500003ADD00C0B6F2F8EC1DF0640E0002F3CF05
:10451000B4F2F4CFB5F2150EB66F2DDD00C0B6F2D1
:10452000F8EC1DF00050B4257C6F000EB5217D6FB6
:10453000160EB66F20DD00C0B6F2F8EC1DF0640E6A
:104540000002F3CFB4F2F4CFB5F2170EB66F13DD5D
:1045500000C0B6F2F8EC1DF00050B4257A6F000EE2
:10456000B5217B6F180EB66F06DD00C0B6F2F8EC11
:104570001DF0640E0002F3CFB4F2F4CFB5F2190EC1
:10458000B66FF9DC00C0B6F2F8EC1DF00050B425AF
:10459000786F000EB521796F200EB66FECDC00C08D
:1045A000B6F2F8EC1DF0640E0002F3CFB4F2F4CFD3
:1045B000B5F2210EB66FDFDC00C0B6F2F8EC1DF0EC
:1045C0000050B425706F000EB521716F220EB66FCA
:1045D000D2DC00C0B6F2F8EC1DF0640E0002F3CF9E
:1045E000B4F2F4CFB5F2230EB66FC5DC00C0B6F25C
:1045F000F8EC1DF00050B4258E6F000EB5218F6FC2
:10460000240EB66FB8DC00C0B6F2F8EC1DF0640EF4
:104610000002F3CFB4F2F4CFB5F2250EB66FABDCE7
:1046200000C0B6F2F8EC1DF00050B4258C6F000EFF
:10463000B5218D6F260EB66F9EDC00C0B6F2F8EC89
:104640001DF0640E0002F3CFB4F2F4CFB5F2270EE2
:10465000B66F91DC00C0B6F2F8EC1DF00050B42546
:104660008A6F000EB5218B6F280EB66F84DC00C0F8
:10467000B6F2F8EC1DF0640E0002F3CFB4F2F4CF02
:10468000B5F2290EB66F77DC00C0B6F2F8EC1DF07B
:104690000050B425906F000EB521916F300EB66FAB
:1046A0006ADC00C0B6F2F8EC1DF000C0E4F0310E98
:1046B000B66F61DC00C0BDF1320EB66F5CDC00C0CD
:1046C000B6F2F8EC1DF000C09EF2040012000201E8
:1046D0007E51010805E2AE0EF06F1DEC07F00BD025
:1046E0007E51010A08E1896B886BFA6B92EC01F04C
:1046F000FA6B92EC01F012000900F5CFE6FF00061C
:10470000FBE10106F9E11200070EB46E600ED36EF4
:104710009B8C806A816A826A080E896E8A6A8B6ABB
:10472000030E926EF90E936E946A2DDC0D0EC16E1F
:10473000F19EF29E1200810E0201E96F0F0EEA6FE8
:10474000EB6B320EEC6FED6B9EEC0FF00052D8B4B9
:1047500090D0060E0B6E130E0C6EAD0E0D6E0D2E60
:10476000FED70C2EFCD70B2EFAD700000000040059
:1047700081A00ED01C51000A03E1010E1C6F01D074
:104780001C6B1CC2CBF2BEEC15F051EC0DF060D0EE
:1047900000019A51010A02E19A6B02D0010E9A6F50
:1047A0009A51010A2BE10201A151040A010ED8A479
:1047B000000E016EA151050A010ED8A4000E006E74
:1047C000015000120CE0F06B700EF16F900EF26F62
:1047D000000EF36F010EF46F06EC06F00ED0A1513F
:1047E000000A0BE0F06B080EF16F8E0EF26F000EF8
:1047F000F36F010EF46F06EC06F02AD00201A1510E
:10480000040A010ED8A4000E016EA151050A010E82
:10481000D8A4000E006E015000120CE0F06B700E78
:10482000F16F8C0EF26F000EF36F010EF46F06EC59
:1048300006F00ED0A151000A0BE0F06B080EF16FEC
:10484000980EF26F000EF36F010EF46F06EC06F097
:104850000201810EE96F0F0EEA6FEB6B320EEC6F07
:10486000ED6B9EEC0FF0005204E0DDEC15F004005F
:10487000EFD7810E0201E96F0F0EEA6F050EEB6FA5
:10488000320EEC6FED6B9EEC0FF0005238E004003E
:1048900081BA35D01F0E0101BA5D010ED8B0000EED
:1048A000006E00019A51001607E00101BA2BBAC14F
:1048B000D3F2F9EC0FF015D000019A53010ED8A4F1
:1048C000000E016E1F0E0101765D010ED8B0000EC4
:1048D000006E0150001605E0762B76C1D3F2D8ECBD
:1048E0000FF051EC0DF0DDEC15F09C0E0C6ED70EB8
:1048F0000D6E0D2EFED70C2EFCD70400C9D7810EED
:104900000201E96F0F0EEA6F040EEB6F320EEC6FCF
:10491000ED6B9EEC0FF000019751000A010ED8A438
:10492000000E016E0150001638E0040081B835D049
:104930000101BA510008010ED8B0000E006E00014E
:104940009A51001607E00101BA07BAC1D3F2F9EC97
:104950000FF015D000019A53010ED8A4000E016E7D
:10496000010176510008010ED8B0000E006E015012
:10497000001605E0760776C1D3F2D8EC0FF051ECC3
:104980000DF0DDEC15F09C0E0C6ED70E0D6E0D2E9D
:10499000FED70C2EFCD70400C9D71200810E0201ED
:1049A000E96F0F0EEA6FEB6B320EEC6FED6B9EEC66
:1049B0000FF00101A751001264E019EC0DF0E4C002
:1049C00000F042EC0DF0F5C004F0F6C005F0F7C0C1
:1049D00006F0F8C007F04BEC05F0CDEC04F000C099
:1049E000E5F001C0E6F0060E0B6E130E0C6EAD0E78
:1049F0000D6E0D2EFED70C2EFCD70B2EFAD7000015
:104A0000000004000101A751000A010ED8A4000E05
:104A1000016E81B002D0D89001D0D880006AD8B0A1
:104A2000002A0150001605E0ABEC18F00001976B6E
:104A300028D0898E89960400060E0B6E130E0C6E1C
:104A4000AD0E0D6E0D2EFED70C2EFCD70B2EFAD709
:104A50000000000004003CDC0001976B810E0201A5
:104A6000E96F0F0EEA6FEB6B320EEC6FED6B9EECA5
:104A70000FF0005204E0DDEC15F00400EFD7010167
:104A8000A76B810E0201E96F0F0EEA6F050EEB6F47
:104A9000320EEC6FED6B9EEC0FF00052D8B4E9D003
:104AA00019EC0DF0E4C000F042EC0DF0F5C004F09C
:104AB000F6C005F0F7C006F0F8C007F04BEC05F0C3
:104AC000CDEC04F000C0E5F001C0E6F00400000108
:104AD0009751000A1EE1010E976F76C142F1BAC1EB
:104AE00041F11CC246F10101766BBA6B010E020165
:104AF0001C6FD36BF9EC0FF076C1D3F2D8EC0FF04A
:104B00001CC2CBF2BEEC15F075C145F10101756B0D
:104B100016D00001976B42C176F141C1BAF146C18E
:104B20001CF242C1D3F2D8EC0FF0BAC1D3F2F9ECC7
:104B30000FF01CC2CBF2BEEC15F045C175F10201BD
:104B4000A151040A010ED8A4000E016EA151050A5C
:104B5000010ED8A4000E006E015000123BE00001CF
:104B60009753010ED8A4000E006E01017551001676
:104B70000DE00201F06B700EF16F430EF26F010E4B
:104B8000F36F010EF46F06EC06F023D001017553AC
:104B9000010ED8A4000E006E0001975100160DE022
:104BA0000201F06B700EF16F180EF26F010EF36FD1
:104BB000010EF46F06EC06F00CD00201F06B700EE3
:104BC000F16F0F0EF26F010EF36F010EF46F06EC32
:104BD00006F03DD0A151000A3AE000019753010EC2
:104BE000D8A4000E006E0101755100160DE00201FF
:104BF000F06B080EF16F0D0EF26F010EF36F010EE8
:104C0000F46F06EC06F023D001017553010ED8A411
:104C1000000E006E0001975100160DE00201F06BCE
:104C2000080EF16F0B0EF26F010EF36F010EF46FB1
:104C300006EC06F00CD00201F06B080EF16F150EB9
:104C4000F26F010EF36F010EF46F06EC06F0020135
:104C5000810EE96F0F0EEA6F050EEB6F320EEC6FEF
:104C6000ED6B9EEC0FF0005204E0DDEC15F004005B
:104C7000EED7810E0201E96F0F0EEA6F040EEB6FA3
:104C8000320EEC6FED6B9EEC0FF000019751000AB5
:104C9000010ED8A4000E016E01500016D8B4C0D089
:104CA00019EC0DF0E4C000F042EC0DF0F5C004F09A
:104CB000F6C005F0F7C006F0F8C007F04BEC05F0C1
:104CC000CDEC04F000C0E5F001C0E6F00400010105
:104CD0007551000A03E1010E756F01D0756B020E6C
:104CE0000201CB6F75C1CCF29FEC15F00201A1510E
:104CF000040A010ED8A4000E016EA151050A010E8E
:104D0000D8A4000E006E015000123BE00001975342
:104D1000010ED8A4000E006E0101755100160DE0C1
:104D20000201F06B700EF16F130EF26F010EF36F54
:104D3000010EF46F06EC06F023D001017553010E4D
:104D4000D8A4000E006E0001975100160DE002017C
:104D5000F06B700EF16F110EF26F010EF36F010E1A
:104D6000F46F06EC06F00CD00201F06B700EF16FE0
:104D7000090EF26F010EF36F010EF46F06EC06F0F0
:104D80003DD0A151000A3AE000019753010ED8A48A
:104D9000000E006E0101755100160DE00201F06B6E
:104DA000080EF16FFD0EF26F000EF36F010EF46F3F
:104DB00006EC06F023D001017553010ED8A4000EB5
:104DC000006E0001975100160DE00201F06B080E15
:104DD000F16FFB0EF26F000EF36F010EF46F06EC35
:104DE00006F00CD00201F06B080EF16FF90EF26FB5
:104DF000000EF36F010EF46F06EC06F00201810E57
:104E0000E96F0F0EEA6F040EEB6F320EEC6FED6B75
:104E10009EEC0FF0005204E0DDEC15F00400EED73C
:104E200012000201A151040A010ED8A4000E016E65
:104E3000A151050A010ED8A4000E006E0150001207
:104E40000CE0F06B0A0EF16F2D0EF26F010EF36F96
:104E5000090EF46F06EC06F00ED0A151000A0BE02B
:104E6000F06B030EF16F230EF26F010EF36F090E5C
:104E7000F46F06EC06F004000B0E0B6E260E0C6EA3
:104E80005D0E0D6E0D2EFED70C2EFCD70B2EFAD715
:104E90000000000004000B0E0B6E260E0C6E5D0E63
:104EA0000D6E0D2EFED70C2EFCD70B2EFAD7000060
:104EB000000004000B0E0B6E260E0C6E5D0E0D6EC8
:104EC0000D2EFED70C2EFCD70B2EFAD700000000BB
:104ED00004000B0E0B6E260E0C6E5D0E0D6E0D2E6D
:104EE000FED70C2EFCD70B2EFAD7000000000400D2
:104EF000A151040A010ED8A4000E016EA151050AA9
:104F0000010ED8A4000E006E015000120CE0F06BF0
:104F10000A0EF16F5D0EF26F010EF36F090EF46F62
:104F200006EC06F00ED0A151000A0BE0F06B030E68
:104F3000F16F530EF26F010EF36F090EF46F06EC72
:104F400006F0CBEC15F0010E1C6F010ECB6FBEEC22
:104F500015F0FF0ECB6F76C1CCF29FEC15F0FE0E74
:104F60000201CB6FBAC1CCF29FEC15F0FD0E02012D
:104F7000CB6F1CC2CCF29FEC15F00201A151040AC8
:104F8000010ED8A4000E016EA151050A010ED8A48D
:104F9000000E006E015000120CE0F06B700EF16F0D
:104FA000510EF26F010EF36F010EF46F06EC06F076
:104FB0000ED0A151000A0BE0F06B080EF16F720EDB
:104FC000F26F010EF36F010EF46F06EC06F0010EA6
:104FD0000001F46FD7EC1FF012000201B66BBBECBE
:104FE0001FF000C086F2010EB66FBBEC1FF000C0D0
:104FF0007EF20050000A05E1939C939E8A8C8A8E73
:1050000004D0938C938E8A9C8A9E1200010E02011A
:10501000B66FBBEC1FF000C07EF2070EB66FBBECA4
:105020001FF000C07FF2080EB66FBBEC1FF000C08F
:1050300087F27E51010A03E00DEC1EF052D0010E02
:10504000896F886B030EFA6F92EC01F01A0E0C6EEA
:10505000F80E0D6E0D2EFED70C2EFCD70000030EA1
:10506000FA6F92EC01F0060E0C6E300E0D6E0D2EE6
:10507000FED70C2EFCD70000030EFA6F92EC01F065
:10508000020EFA6F92EC01F0020EFA6F92EC01F050
:10509000080EFA6F92EC01F0FA6B92EC01F0080E38
:1050A000FA6F92EC01F0FA6B92EC01F0010EFA6FDC
:1050B00092EC01F01A0E0C6EF80E0D6E0D2EFED74E
:1050C0000C2EFCD70000FA6B92EC01F0060EFA6F82
:1050D00092EC01F0FA6B92EC01F00C0EFA6F92EC8C
:1050E00001F012009EEC2BF0D0B603D0010E0101AE
:1050F000716F84EC23F0030E0B6E080E0C6E770EAE
:105100000D6E0D2EFED70C2EFCD70B2EFAD70400F9
:10511000F9EC21F062DFA151000A02E18A8C8A8E4B
:105120008B908B9C8B9EE4C000F042EC0DF0F5C0A0
:1051300004F0F6C005F0F7C006F0F8C007F04BEC3D
:1051400005F0CDEC04F000C0E5F001C0E6F0050E7E
:105150000B6E0F0E0C6EF10E0D6E0D2EFED70C2E7B
:10516000FCD70B2EFAD7040081B802D0048001D0FE
:10517000049081BA02D0D88001D0D89004A003D086
:1051800002E3048001D0049004A003D0010E0101C9
:10519000BB6F3CDF81B802D0048001D0049081BA9B
:1051A00002D0D88001D0D89004A003D002E30480BC
:1051B00001D0049081B002D0D88001D0D89004A052
:1051C00003D002E3048001D0049004A03BD002018C
:1051D000A151010A0CE1F06B030EF16F670EF26F43
:1051E000010EF36F090EF46F06EC06F00ED0A1511C
:1051F000000A0BE0F06B0C0EF16F470EF26F010E20
:10520000F36F090EF46F06EC06F0FF0ED36FD8ECC7
:105210000FF0FF0ED36FF9EC0FF0010ECB6FBEEC69
:1052200015F004000B0E0B6E260E0C6E5D0E0D6E4F
:105230000D2EFED70C2EFCD70B2EFAD70000000047
:105240000400F0D704000101BB51000A29E1FF0E60
:105250000201B66FBBEC1FF000C076F1FE0EB66F18
:10526000BBEC1FF000C0BAF1FD0EB66FBBEC1FF037
:1052700000C01CF2BAC1D3F2F9EC0FF076C1D3F240
:10528000D8EC0FF01CC2CBF2BEEC15F0010171514D
:10529000010A03E1010E0001F46FD7EC1FF001D009
:1052A000C0DD51EC0DF00400DDEC15F00101BB5147
:1052B000000A03E1CEEC24F002D09BEC23F0000EB8
:1052C0000001E61902E1000EE51905E0010EE55FB7
:1052D000000EE65B13D00101BB51000A010ED8A4F9
:1052E000000E016E0001E451000A000ED8A4010E68
:1052F000006E0150001602E067EC23F0D4D7FFD710
:105300005357523D302E3030005057523D302E30E2
:1053100057002020202020202020202000FDFD2ECE
:10532000002020202020202020004154552D313005
:1053300030002E005357523D302E3030004657205B
:1053400076657220322E39006279204E374444430C
:10535000006D696E6920626F617264007548004C6F
:105360003D007548007548004C3D004C3D005057CD
:10537000523D302E30570063006C006C00302E30F0
:105380003000006300010000202020202020202089
:105390000046572076657220322E39006279204E01
:1053A00037444443002020202020202020202000BB
:1053B000202020202020202000202020202020200D
:1053C000202020006D696E6920626F6172640000A8
:1053D0000000302E3030004154552D313030000067
:1053E0003333138020005F002E0054554E45005487
:1053F000554E450020005F002E0020005F002E006B
:105400002000305F00704600433D00704600544568
:105410005354204D4F44450054455354204D4F4460
:10542000450001433D00704600433D0000002E0052
:105430000000464153542054455354006C00202032
:10544000202020202020200020202020202020207C
:10545000200046415354205445535400006C000032
:10546000000000002020202020202020004F564552
:10547000524C4F4144002020202020202020004F6B
:105480005645524C4F41440020202020202020200F
:105490000000004F5645524C4F4144002020202030
:1054A00020202020000000000010274546463D2017
:1054B000302500414E3D302E3057004546463D20B8
:1054C00020302500414E543D302E30570045464691
:1054D0003D2020302500414E543D302E30570052A3
:1054E00045534554202020005357523D302E303034
:1054F000005357523D302E30300052455345542012
:1055000020200000000000004F5645524C4F4144FF
:10551000002020202020202020005357523D202012
:1055200020200020202020202020200020202020BB
:1055300020202020004F5645524C4F41440020204F
:10554000202020202020004F5645524C4F4144003F
:105550005357523D2020202000102700000000005B
:1055600000005F00000007000700147F147F142470
:105570002A7F2A12231308646236495522500005F7
:10558000030000001C2241000041221C00082A1CCC
:105590002A0808083E0808005030000008080808DB
:1055A00008003030000020100804023E5149453EFA
:1055B00000427F400042615149462141454B31182C
:1055C00014127F1027454545393C4A49493001713D
:1055D0000905033649494936064949291E00363628
:1055E0000000005636000000081422411414141460
:1055F0001441221408000201510906324979413E42
:105600007E1111117E7F494949363E414141227F39
:105610004141221C7F494949417F090901013E411D
:105620004151327F0808087F00417F4100204041FE
:105630003F017F081422417F404040407F02040226
:105640007F7F0408107F3E4141413E7F09090906E2
:105650003E4151215E7F0919294646494949310198
:10566000017F01013F4040403F1F2040201F7F201D
:1056700018207F63140814630304780403615149FC
:10568000454300007F4141020408102041417F0052
:1056900000040201020440404040400001020400B6
:1056A00020545454787F4844443838444444203883
:1056B0004444487F3854545418087E0901020814A1
:1056C00054543C7F0804047800447D40002040444A
:1056D0003D00007F10284400417F40007C041804F6
:1056E000787C0804047838444444387C1414140842
:1056F000081414187C7C08040408485454542004EA
:105700003F4440203C4040207C1C2040201C3C402A
:1057100030403C44281028440C5050503C446454C1
:105720004C44000836410000007F0000004136086C
:105730000008082A1C08081C2A0808FF10EE15F0AB
:105740005B0E006E030E016E000EF66E530EF76ECA
:10575000000EF86E7CEC23F01200FFFFFFFFFFFF4E
:020000040030CA
:0D000100081A11FF8181FF0FC00FE00F40B2
:0200000400F00A
:100000004E010015130500010200FFFFFFFFFFFF77
:1000100001100220045010002200FFFFFFFFFFFF2D
:1000200000100022004701000220FFFFFFFFFFFF3A
:10003000000112FFFFFFFFFFFFFFFFFFFFFFFFFFBA
:10004000FFFFFFFFFFFFFFFFFFFFFFFFFFFFFFFFC0
:10005000FFFFFFFFFFFFFFFFFFFFFFFFFFFFFFFFB0
:10006000FFFFFFFFFFFFFFFFFFFFFFFFFFFFFFFFA0
:10007000FFFFFFFFFFFFFFFFFFFFFFFFFFFFFFFF90
:10008000FFFFFFFFFFFFFFFFFFFFFFFFFFFFFFFF80
:10009000FFFFFFFFFFFFFFFFFFFFFFFFFFFFFFFF70
:1000A000FFFFFFFFFFFFFFFFFFFFFFFFFFFFFFFF60
:1000B000FFFFFFFFFFFFFFFFFFFFFFFFFFFFFFFF50
:1000C000FFFFFFFFFFFFFFFFFFFFFFFFFFFFFFFF40
:1000D000FFFFFFFFFFFFFFFFFFFFFFFFFFFFFFFF30
:1000E000FFFFFFFFFFFFFFFFFFFFFFFFFFFFFFFF20
:1000F000FFFFFFFFFFFFFFFFFFFFFFFFFF0100000C
:00000001FF

