:10000000A831F428FF3F28006A08003A03193D2868
:10001000F1017108073C031C2A282A00C91B132878
:1000200021008D13152821008D170630FD00FD0BD2
:10003000172800000D170630FD00FD0B1D280000DD
:100040000D130630FD00FD0B232800002A00C935E2
:10005000F10A092821008D170630FD00FD0B2E281E
:1000600000000D170630FD00FD0B342800000D13B5
:100070000630FD00FD0B3A280000080028006A0841
:10008000003A03195C2821000D170630FD00FD0B16
:10009000472800008D170630FD00FD0B4D2800009D
:1000A0008D130630FD00FD0B532800000D130630A4
:1000B000FD00FD0B59280000080028006C082A00EC
:1000C0004507C8003E2028006A082A00C90003200E
:1000D0002A00C90103202A004408B03EC9000320B9
:1000E0002A0048080F3C031C79284808C600C701AD
:1000F0008A284808F200F236F236F236F2367208F2
:10010000C7007208F000F035F035F035F0357008B2
:100110004802C6004608C90003202A004708103ECE
:10012000C90003203E2028006A082A00C9000320D5
:1001300040302A00C900032008002000F801F9011E
:100140001030FC00710DF80DF90D7408F8027508F7
:10015000031C750FF9020318B4287408F807750812
:100160000318750FF9070310F00DF10DFC0BA22811
:10017000080020002230FC00F801F901FA01FB011F
:10018000FC030319EE280310FB0CFA0CF90CF80C15
:10019000F30CF20CF10CF00C031CC028FC03031947
:1001A000E0287408F80775080318750FF907760832
:1001B0000318760FFA0777080318770FFB07C42890
:1001C0007408F80775080318750FF90776080318FF
:1001D000760FFA0777080318770FFB07080020004F
:1001E0007008F100F0010830FC007108F40C0318ED
:1001F000FD28FC0BF628F101003403100229F40C51
:100200000318F107F10CF00CFC0BFF280800280084
:100210006A08003A03191F2921008D130630FD00DA
:10022000FD0B102900000D170630FD00FD0B1629EF
:1002300000008D170630FD00FD0B1C290000080092
:10024000FA1FF21300300800A0302A00BC000F3063
:10025000BD00BE01BF01A030F0000F30F100003042
:10026000F2000030F3003A08F4003B08F500F60114
:10027000F701B92070082A00BC007108BD0072089F
:10028000BE007308BF0000307302031D5129003007
:100290007202031D512902307102031D5129B2302F
:1002A0007002031854298329B230BC020230BD3BCE
:1002B0000030BE3BBF3B0530F000700803196629D3
:1002C000BF36BE0CBD0CBC0CFF3E5E293C08F000E6
:1002D0003D08F1003E08F2003F08F3000130BC0287
:1002E0000030BD3BBE3BBF3B700871047204730419
:1002F0000319832900000000000000000000000036
:100300000000000066290800F201F101F001F80187
:10031000F301003008002A00BB012800EE01013083
:100320002900A5002A003A08BB00BB35BB35BB3508
:10033000BB35290024080319A02908302A00BB076F
:10034000290025080319A72904302A00BB07280023
:100350006E080319AE2902302A00BB0728006F0877
:100360000319B4292A00BB0A3E2028006A082A0083
:10037000C90003202A003B08C900032007210630DA
:10038000FC003030FD00FD0BC329FC0BC32900002D
:1003900004302A00BB023E2028006A082A00C90057
:1003A00003202A003B08C900032007210630FC0077
:1003B0003030FD00FD0BDA29FC0BDA2900000800C3
:1003C000FB14FB1FEA29FF30F300F200F100F000FC
:1003D000FA0DF20CFF3008003E2028006A082A00BF
:1003E000C900032040302A00C90003202A003B082E
:1003F000C4003A08C5005D202A00BF013E083F0244
:100400000318B22A3F083C07840000303D3D8500B8
:100410000008003A031D0E2AC101172A3F083C07B5
:10042000840000303D3D850020300002C100C00145
:100430004008043C031CAA2A4108F0000530F400DF
:10044000EF202A004008F0070030F13D5C307007D3
:100450008400AA30713D85000008C2003B08023AC2
:10046000013003190030F1003B08043A0130031950
:100470000030F0007008F1053B08063A013003191E
:100480000030F0007108F00503196F2AC2194A2ADA
:10049000C3134B2AC317C2194F2A4313502A4317B9
:1004A0004219542AC312552AC3164219592A431213
:1004B0005A2A4316C2185E2AC3115F2AC315C218EE
:1004C000632A4311642A43154218682AC310692A13
:1004D000C31442186D2A43106E2A43148F2A4219FE
:1004E000732AC313742AC3174219782A4313792A2B
:1004F0004317C2187D2AC3127E2AC316C218822A45
:100500004312832A43164218872AC311882AC31527
:1005100042188C2A43118D2A4315C31043104308F7
:10052000C900032028006D08043A0130031D003083
:10053000F1006D08053A0130031D0030F00071082C
:10054000F0040319A72A2A004308C90003202A003F
:10055000C00A182AC90103202A00C90103202A0061
:10056000BF0AFE293B0AC4003A08C5005D202A00E4
:10057000BF013E083F020318752B3F083C0784006B
:1005800000303D3D85000008003A031DC92AC10125
:10059000D22A3F083C07840000303D3D85002030D2
:1005A0000002C100C0014008043C031C6D2B41083F
:1005B000F0000530F400EF202A004008F00700307A
:1005C000F13D5C3070078400AA30713D8500000861
:1005D000C2003B08023A013003190030F1003B0829
:1005E000043A013003190030F0007008F1053B08AF
:1005F000063A013003190030F0007108F0050319C4
:100600002A2BC21B052BC313062BC317C21B0A2B95
:1006100043130B2B4317421B0F2BC312102BC31674
:10062000421B142B4312152B4316C21A192BC3114C
:100630001A2BC315C21A1E2B43111F2B4315421A26
:10064000232BC310242BC314421A282B4310292B0D
:100650004314522B421B2E2BC3132F2BC317421BA9
:10066000332B4313342B4317C21A382BC312392BA5
:10067000C316C21A3D2B43123E2B4316421A422B7D
:10068000C311432BC315421A472B4311482B431563
:10069000C2194C2BC3104D2BC314C219512B43103C
:1006A000522B43144308C900032028006D08043A64
:1006B0000130031D0030F1006D08053A0130031DC3
:1006C0000030F0007108F00403196A2B2A00430877
:1006D000C90003202A00C00AD32AC90103202A0026
:1006E000C90103202A00BF0AB92A072108002A00ED
:1006F000BE0105303E020318872B3E083C078600EA
:1007000000303D3D870020308100BE0A792B3E0835
:100710003C07860000303D3D87008101BE033E0856
:100720003C07BF0000303D3DC0000A30F400F50139
:100730003A08F0003B08F1009D207808F0007908A5
:10074000F1003030F0072A003F088600400887009B
:10075000700881000A30F400F5013A08F0003B0807
:10076000F1009D2070082A00BA007108BB0000301B
:100770007106031DBD2B00307006031DC02BC22B5C
:10078000BE038F2B08007B15FB1FCD2B0130F30020
:10079000F201F101F001FA0DF20CFF3008001D30FA
:1007A000FD00FD0BD12B08002A00B601B70130086F
:1007B000B8003108B90080303106F0008030700296
:1007C000031DE42B003030020318F22B0130B60079
:1007D0000030B7003008003CB8003108031C013E6F
:1007E000B901B9023808BA003908BB003208BC00A8
:1007F0003308BD0077230630B4000030B50035085B
:10080000003C031D052C3408003C0318202C340840
:10081000320786003508333D870001303402F0008E
:100820000030353BF1007008320784007108333D19
:100830008500000881000130B4020030B53BFF2B79
:1008400032088600330887002030810036083704DC
:100850000319462CB401B501340832078400350869
:10086000333D85000008203A031D3A2CB40A0319D1
:10087000B50A2C2C0130B4020030B53B34083207E5
:1008800086003508333D87002D30810008002000A8
:10089000FB01FA01F9018030F800F10CF00C031CA7
:1008A0005A2C7408F90775080318750FFA0703180E
:1008B000FB0A0310F01F622C7408FA07750803186E
:1008C000750FFB07FB0CFA0CF90CF80C031C4D2CF4
:1008D0007B08F3007A08F2007908F1007808F0004C
:1008E0000800A1017208031D862C7108F20070082F
:1008F000F100F001A1157208031D862C7108F200A9
:10090000F101A111211672080319942C2108F30298
:10091000031D031C982C0310F21B9C2CF00DF10DF1
:10092000F20DF30B8C2C982C0130FC0084219F2CB1
:100930000230FC00C3239F2C0430FC00202108005F
:10094000833021009D052A003008F000F035F03595
:10095000700821009D04CF239D149D1CB02CAD2C4C
:100960001C08F100F0011B08F0040030F10408003D
:1009700028006D08043A0130031D0030F1006D08B5
:10098000053A0130031D0030F0007108F00403192E
:10099000D62C2A003108BA003008BB003208BC004F
:1009A0003308BD003408BE00EC21302D28006D084E
:1009B000023A0130031D0030F1006D08033A0130A6
:1009C000031D0030F0007108F0040319FC2C0730FF
:1009D000F0002A003108F400EF20043070072A00EC
:1009E000BA003008BB00BB353208BC003308BD007C
:1009F0003408BE00EC21302D2800EF012A00300819
:100A0000F000F035F0357008083EBA008B212A005E
:100A10003108BA008B2101302800EF002A00B5010F
:100A2000340835020318302D3508320784000030B1
:100A3000333D85000008F1007108BA00BA36BA36B5
:100A4000BA36BA368B212A003508320784000030C6
:100A5000333D85000008BA008B212A00B50A102D0D
:100A600008002A003018372D22008E10392D220060
:100A70008E142A00B0183F2D22000E11412D2200A5
:100A80000E152A003019472D22008E11492D220003
:100A90008E152A00B0194F2D22000E12512D220062
:100AA0000E162A00301A572D22008E12592D2200C0
:100AB0008E16290057082A00BA00290058082A0073
:100AC000BB00242108002A003018692D22008D1057
:100AD0006B2D22008D142A00B018712D22000D11EB
:100AE000732D22000D152A003019792D22000C11CA
:100AF0007B2D22000C152A00B019812D22000C122A
:100B0000832D22000C162A00301A892D22008C1207
:100B10008B2D22008C16290057082A00BA002900C4
:100B200058082A00BB00242108007408F802750840
:100B3000031C750FF9027608031C760FFA0277087A
:100B4000031C770FFB02F30D0730FC00730DF80D4B
:100B5000F90DFA0DFB0D7408731CBC2DF802750815
:100B6000031C750FF9027608031C760FFA0277084A
:100B7000031C770FFB02C92DF80775080318750FC2
:100B8000F90776080318760FFA0777080318770F26
:100B9000FB07F30DFC0BA62D720DF80DF90DFA0DE8
:100BA000FB0D7408731CE22DF8027508031C750F09
:100BB000F9027608031C760FFA027708031C770FF8
:100BC000FB02EF2DF80775080318750FF907760873
:100BD0000318760FFA0777080318770FFB07F20D53
:100BE0000730FC00720DF80DF90DFA0DFB0D7408BD
:100BF000721C082EF8027508031C750FF90276089E
:100C0000031C760FFA027708031C770FFB02152EE0
:100C1000F80775080318750FF90776080318760F9B
:100C2000FA0777080318770FFB07F20DFC0BF22D7C
:100C3000710DF80DF90DFA0DFB0D7408721C2E2EB6
:100C4000F8027508031C750FF9027608031C760F6D
:100C5000FA027708031C770FFB023B2EF807750892
:100C60000318750FF90776080318760FFA07770847
:100C70000318770FFB07F10D0730FC00710DF80D1D
:100C8000F90DFA0DFB0D7408711C542EF80275084D
:100C9000031C750FF9027608031C760FFA02770819
:100CA000031C770FFB02612EF80775080318750FF8
:100CB000F90776080318760FFA0777080318770FF5
:100CC000FB07F10DFC0B3E2E700DF80DF90DFA0D22
:100CD000FB0D7408711C7A2EF8027508031C750F41
:100CE000F9027608031C760FFA027708031C770FC7
:100CF000FB02872EF80775080318750FF9077608A9
:100D00000318760FFA0777080318770FFB07F00D23
:100D10000730FC00700DF80DF90DFA0DFB0D74088D
:100D2000701CA02EF8027508031C750FF9027608D6
:100D3000031C760FFA027708031C770FFB02AD2E17
:100D4000F80775080318750FF90776080318760F6A
:100D5000FA0777080318770FFB07F00DFC0B8A2EB4
:100D60007018C02E7408F80775080318750FF90776
:100D700076080318760FFA0777080318770FFB0732
:100D80000800FB09FA09F909F809F80A0319F90A30
:100D90000319FA0A0319FB0A08007C18032FFC1830
:100DA000D42E7C19222FCD2EA1017208031DF42E02
:100DB0007108F2007008F1007808F000F801A11540
:100DC0007208031DF42E7108F2007008F100F001A2
:100DD000A11121167208031DF42E7108F200F10111
:100DE000A11572080319162F2108F302031D031C15
:100DF0001A2F0310F21B032FF80DF00DF10DF20D59
:100E0000F30BFA2E1A2F7B1B701C1E2FF81F1E2FA0
:100E1000F00A0319F10A0319F20A031D1E2FF20C3E
:100E2000F10CF00CF30A0319222F1E2F0130FC00E5
:100E30008421252F0230FC00C323252F0430FC0021
:100E40002021252F0830FC00E02100000800FB15C0
:100E5000FF3008007B14FB1F352FF201FA1FFF3013
:100E6000F200F100F000FA0DF20CFF3008007408F7
:100E7000003A031D502F7508003A031D502F7608C5
:100E8000003A031D502F7708003A031D502FFF3002
:100E9000F000FF30F100FF30F2007F30F300E82F68
:100EA0002000FC01F71BFC0AFD01FB01FA01F9011E
:100EB000F80173087204710470040319E32F7308B6
:100EC0007706A000A01BFD09F71F712FF409F50993
:100ED000F609F709F40A0319F50A0319F60A0319C2
:100EE000F70AF31F7E2FF009F109F209F309F00A5E
:100EF0000319F10A0319F20A0319F30A73087704B4
:100F0000A000A01B9F2F9525FC1BBC2FFD1FE32FCE
:100F1000F009F109F209F309F00A0319F10A0319BA
:100F2000F20A0319F30AF809F909FA09FB09F80AA0
:100F30000319F90A0319FA0A0319FB0AE32FF71F29
:100F4000B62FF31BB02F7308FB007208FA0071086C
:100F5000F9007008F800F301F201F101F001862FA9
:100F6000F301F201F101F001F00A0034F309F20992
:100F7000F109F009FC17832FF80A0319F90A03197C
:100F8000FA0A0319FB0A74087802031D862F7508F4
:100F90007902031D862F76087A02031D862F7708B3
:100FA0007B02031D862FFB01FA01F901F801F00A0B
:100FB0000319F10A0319F20A0319F30AF31F862F22
:100FC000A0012016FF34A0017C1CE72FC126003EA3
:100FD00008000330FC009530FD00FD0BED2FFC0BED
:100FE000ED2F080029005D08230091009201951360
:100FF000151315141308F0000800003400340034F1
:101000002000FB017308031D770803195628720896
:101010007606FA007708F3077E30031C1328F302E4
:1010200003185B281628F302031C60287208F800D6
:101030007108FC007008FD00F817F6170310F201A4
:10104000F101F0011830A1007D1C30287408F00770
:1010500075080318750FF10776080318760FF20765
:10106000F20CF10CF00CF80CFC0CFD0C0310A10BB5
:101070002428F21B4028F80DF00DF10DF20DF303BA
:101080007B1B701C5228F81F5228F00A0319F10A22
:101090000319F20A031D5228F20CF10CF00CF30AAA
:1010A00003195B28FA1FF2130030642801308031E5
:1010B00084218831642802308031E021883164281D
:1010C00004308031C3238831000008002800E90182
:1010D000AE012A00B00180316325883128002E0836
:1010E0002A00B000803131258831290057082A00B4
:1010F000BA00290058082A00BB0080312421883119
:10110000080020007008F8007108F000F101F201F9
:10111000F301FB01FC019630F300FA01F01F962861
:10112000F809F009F80A0319F00AFA177008F10033
:101130007808F000F801F20180317124883108004C
:101140007408003A031DB9287508003A031DB92830
:101150007608003A031DB9287708003A031DB9281C
:10116000FF30F000FF30F1007F30F200FF30F3007D
:101170005B292000770803194729730803194C29B4
:10118000720876068039FA00F217F617A101720884
:10119000F8007108FC007008FD007408FD02750875
:1011A000031C750FFC027608031C760FF802F80189
:1011B000FC01FD01031CE3280310F20CF10CF00C00
:1011C000F80C0130A1007708F302031CED287E30F3
:1011D0002107F30703185129F2287E302107F3076E
:1011E000031C56291830FA07FD0DFC0DF80DF00D03
:1011F000F10DF20DA10D7408F0027508031C750FB6
:10120000F1027608031C760FF202760DA104211C70
:101210000B297D1416297408F00775080318750F3B
:10122000F10776080318760AF2077D10FA031F30DB
:101230007A05031DF4287B1B7D1C3D290310F00D4E
:10124000F10DF20DA10D7408F0027508031C750F65
:10125000F1027608031C760FF202760D21040139A3
:10126000FD070318FC0A0319F80A031D3D29F80CB1
:10127000FC0CFD0CF30A03195129FA1FF813780826
:10128000F2007C08F1007D08F00000305A2901309E
:101290008031272788315A290230803184218831D2
:1012A0005A2904308031E02188315A2908308031B0
:1012B000C323883100000800813022009700171BEB
:1012C00062295F292A00B0018031A024883170088A
:1012D0002A00AE007108AF008030033AF20080307F
:1012E00071067202031D76297008E83C031C7D29F3
:1012F0002E08F0002F08F100BC2982302200970050
:10130000171B832980292A00B0018031A02488314D
:1013100070082A00AE007108AF008030033AF20076
:10132000803071067202031D97297008E83C031C87
:10133000A0292E08F0002F08F100F035F10DBC298E
:10134000833022009700171BA629A3292A00B00189
:101350008031A024883170082A00AE007108AF00E7
:101360007008F2007108F300F235F30DF235F30D59
:101370007208F0007308F100080020007208760679
:10138000A100F801F90173087702031CDF2977082F
:10139000FD007308F7007D08F3007608FD00720871
:1013A000F6007D08F2007508FD007108F5007D0863
:1013B000F1007408FD007008F4007D08F000770863
:1013C0000319602A7208FA00F217F61777087302F9
:1013D000F7000319122A08307702031C082AF700C5
:1013E0007408F9007508F4007608F500F601083075
:1013F0007702031C082AF7007408F9007508F40046
:10140000F50108307702031C082A7A08F200602AE6
:1014100077080319122A0310F60CF50CF40CF90CDA
:10142000F70B0B2AA11F1F2AF909F409F509F60980
:10143000F90A0319F40A0319F50A0319F60A7908D7
:10144000F80774080318740FF00775080318750F70
:10145000F10776080318760FF207A11B382A031C40
:10146000482AF20CF10CF00CF80CF30F482A5A2A17
:1014700003184E2AF809F009F109F209F80A0319CC
:10148000F00A0319F10A0319F20A8030FA06542A05
:101490000130FC008031CD268831622A0230FC0008
:1014A0008031CD268831622A0430FC0080317124DD
:1014B0008831622A0830FC008031E0218831622ABC
:1014C0000030FC0000000800813022009700171B4C
:1014D0006A2A672A01302A00B0008031A0248831AE
:1014E00070082A00AE007108AF008030033AF200A5
:1014F000803071067202031D7F2A7008E83C031CCD
:10150000862A2E08F0002F08F100C72A8230220018
:101510009700171B8C2A892A01302A00B0008031DD
:10152000A024883170082A00AE007108AF00803016
:10153000033AF200803071067202031DA12A70087E
:10154000E83C031CAA2A2E08F0002F08F100F03511
:10155000F10DC72A833022009700171BB02AAD2A4D
:1015600001302A00B0008031A024883170082A00A0
:10157000AE007108AF007008F2007108F300F23598
:10158000F30DF235F30D7208F0007308F100080056
:101590002000FB0173080319042B7208FA00F217EC
:1015A0008E30F302F31F072BF309F30A083073029E
:1015B000031CEA2AF300F10D7208F100F201083071
:1015C0007302031CEA2AF300F10DF1017308031DF5
:1015D0000310F22A73080319F22A0310F20CF10C1B
:1015E000F30BED2A7B1B711CFC2A031CFC2AF10A5D
:1015F0000319F20AF21B132BFA1F162BF209F10939
:10160000F10A0319F20A162BF201F101162B7B14D1
:10161000FB1F192BF201FA1F192BFF30F200F1000A
:10162000FA0DF20C192B0130FC001B2B0030FC00D2
:101630001B2BFF30FC00FC080319212B80312A27CB
:1016400088317108F0007208F10008006400280079
:1016500069086606013003190030F1006708680662
:10166000013003190030F0007108F0040319742CE4
:101670006908E6002900D901DA012800691C452B18
:1016800029005508D9075608DA3D2800E91C4D2BDA
:1016900029004B08D9074C08DA3D2800691D552B55
:1016A00029004308D9074408DA3D2800E91D5D2BCD
:1016B00029004508D9074608DA3D2800691E652B30
:1016C00029004708D9074808DA3D29003C08003AB4
:1016D000013003190030F1003C08013A01300319D0
:1016E0000030F0007108F00503190D2C59082A008C
:1016F000B00029005A082A00B100AF30B20004300F
:10170000B3008031D423883129003108203A0319ED
:101710008C2B3108A8008E2B3030A8002E30A90069
:101720003208203A0319972B3208AA00992B30303F
:10173000AA003308203A0319A02B3308AB00A22BD0
:101740003030AB003C08043A0130031D0030F1009A
:101750003C08053A0130031D0030F0007108F00428
:101760000319E02B28006708013A031DBB2B043046
:101770002A00AE00BE2B2A000630AE002800670803
:1017800068060319D12B2A002E08B0001030B100D2
:101790003030B2000430B3000830B4008031B824D7
:1017A00088312A002E08B0002830B100A830B200DD
:1017B0000430B3000430B4008031B82488310C2CDC
:1017C00028006708013A031DE82B2A00AE01EB2B25
:1017D0002A000130AE002800670868060319FE2BB6
:1017E0002A002E08B0000930B1003A30B2000430AF
:1017F000B3000830B4008031B82488312A002E08A4
:10180000B0000B30B100A830B2000430B300043097
:10181000B4008031B8248831742C29003C08003A87
:101820000319742C5508F0005608F100F137F00C3C
:10183000F11F1F2C031C1F2CF00A0319F10A590871
:10184000F0075A08F13D7008D9007108DA007008F5
:101850002A00B0007108B100AF30B2000430B3000C
:101860008031D423883129003108203A03193B2CD8
:101870003108A8003D2C3030A8002E30A9003208D5
:10188000203A0319462C3208AA00482C3030AA000E
:1018900028006708013A031D502C2A00AE01532C82
:1018A0002A000130AE002800670868060319662C7C
:1018B0002A002E08B0000930B1004330B2000430D5
:1018C000B3000730B4008031B82488312A002E08D4
:1018D000B0000B30B100A830B2000430B3000330C8
:1018E000B4008031B824883128002E083906013030
:1018F00003190030F1006708680601300319003051
:10190000F0007108F0040319872D2E08B900290092
:10191000D901DA0128002E1C922C29005108D90780
:101920005208DA3D2800AE1C9A2C29004F08D9072E
:101930005008DA3D28002E1DA22C29005308D90793
:101940005408DA3D2800AE1DAA2C29004D08D907FD
:101950004E08DA3D28002E1EB22C29004908D9076E
:101960004A08DA3D29003C08003A013003190030EA
:10197000F1003C08013A013003190030F000710811
:10198000F0050319452D59082A00B00029005A080E
:101990002A00B100AF30B2000430B3008031D4234C
:1019A000883129003108A8003208A9003308AA00AC
:1019B0003408AB003C08043A0130031D0030F1004C
:1019C0003C08053A0130031D0030F0007108F004B6
:1019D0000319182D28006708013A031DF32C06305F
:1019E0002A00AE00F62C2A000430AE00280067085A
:1019F00068060319092D2A002E08B0001030B10026
:101A00004B30B2000430B3000830B4008031B82449
:101A100088312A002E08B0002830B100A830B2006A
:101A20000430B3000430B4008031B8248831442D30
:101A300028006708013A031D212D01302A00AE005D
:101A4000232D2A00AE012800670868060319362DE9
:101A50002A002E08B0000930B1005D30B200043019
:101A6000B3000830B4008031B82488312A002E0831
:101A7000B0000B30B100A830B2000430B300043025
:101A8000B4008031B8248831872D290059082A00F4
:101A9000B00029005A082A00B100AF30B20004306B
:101AA000B3008031D423883129003208A8003308DC
:101AB000A9003408AA0028006708013A031D642D14
:101AC00001302A00AE00662D2A00AE01280067080A
:101AD00068060319792D2A002E08B0000930B100DC
:101AE0005530B2000430B3000730B4008031B82460
:101AF00088312A002E08B0000B30B100A830B200A7
:101B00000430B3000330B4008031B824883164005D
:101B100028006708E80026006C08003A031D252EFF
:101B200029003C08043A0130031D0030F1003C0854
:101B3000053A0130031D0030F0007108F00403196C
:101B4000E12D280054080130031D0030F00026006C
:101B50006F08F0050319BA2D2A00B0017030B100EA
:101B60006330B2000130B3000130B4008031B824DA
:101B70008831E02D26006F080130031D0030F00091
:101B800028005408F0050319D32D2A00B001703045
:101B9000B100EE30B2000030B3000130B40080314B
:101BA000B8248831E02D2A00B0017030B100EC304B
:101BB000B2000030B3000130B4008031B824883165
:101BC000252E29003C08003A0319252E2800540828
:101BD0000130031D0030F00026006F08F0050319E6
:101BE000FF2D2A00B0010830B1006930B200013089
:101BF000B3000130B4008031B8248831252E26008E
:101C00006F080130031D0030F00028005408F00573
:101C10000319182E2A00B0010830B1006730B20055
:101C20000130B3000130B4008031B8248831252E52
:101C30002A00B0010830B1006530B2000130B300B5
:101C40000130B4008031B8248831640008002A00D3
:101C50002E082300910092012A002F0823009300F0
:101C60001513951315150B08F0008B1355309600BE
:101C7000AA3096009514F01B3F2E8B13402E8B1725
:101C80001511951C442E412E08002A002E08F00044
:101C90002F08F1000330F4000030F50080314724B4
:101CA000883170082A00AE007108AF008030F20061
:101CB000803071067202031D5F2E7008503C031CB9
:101CC000642EF001F101372F8030F00080302F06B4
:101CD0007002031D6D2E2E08AB3C031C742EF430D5
:101CE000AE070030AF3D332F8030013AF000803036
:101CF0002F067002031D7E2E2E08483C031C852EE5
:101D0000FE30AE070030AF3D332F8030023AF00096
:101D100080302F067002031D8F2E2E08463C031CB8
:101D2000962E1830AE070130AF3D332F8030033A86
:101D3000F00080302F067002031DA02E2E08343CC8
:101D4000031CA72E2930AE070130AF3D332F803062
:101D5000043AF00080302F067002031DB12E2E08C9
:101D60004C3C031CB82E3630AE070130AF3D332F4C
:101D70008030083AF00080302F067002031DC22E1A
:101D80002E08853C031CC92EAE30AE070130AF3D96
:101D9000332F80300C3AF00080302F067002031D84
:101DA000D32E2E08FA3C031CDA2EE430AE070130A5
:101DB000AF3D332F8030123AF00080302F06700292
:101DC000031DE42E2E080F3C031CEB2E1230AE0731
:101DD0000230AF3D332F8030163AF00080302F06AE
:101DE0007002031DF52E2E08E63C031CFC2E8830E5
:101DF000AE070230AF3D332F80301B3AF000803009
:101E00002F067002031D062F2E08EA3C031C0D2F1F
:101E1000E730AE070230AF3D332F8030213AF0007B
:101E200080302F067002031D172F2E08363C031C2E
:101E30001E2F3430AE070330AF3D332F8030293AA8
:101E4000F00080302F067002031D282F2E08043C5E
:101E5000031C2F2F8430AE070330AF3D332F523099
:101E6000AE070330AF3D2E08F0002F08F100080048
:101E70002A00A8012408F1000130F00071080319BC
:101E8000442FF035FF3E3F2F7008A7002208840042
:101E90002308850070080005F10071080130031D5A
:101EA0000030F0002608F0060319742F2508003CC6
:101EB0000318622F8031E92788318031E927883182
:101EC000A503562F22088400230885002708000553
:101ED000F10071080130031D0030F0002608F00603
:101EE0000319742FFF30A8002808F0000800710DB6
:101EF000F80DF90D7408F8027508031C750FF90246
:101F0000F00DF10D0F30FC00710DF80DF90D740896
:101F1000701C902FF8027508031C750FF902952F9D
:101F2000F80775080318750FF907F00DF10DFC0B94
:101F3000842F7018A12F7408F80775080318750FFF
:101F4000F907000008000D302A00A2000030A300AD
:101F5000A4013230A500A601382770082900E50049
:101F60000D302A00A2000030A3000430A40032305B
:101F7000A500A601382770082900E5040D302A00C5
:101F8000A2000030A3000530A4003230A500A60155
:101F9000382729006508F0040319D12F01302600E5
:101FA000EB00080029006518D82F22000C13DA2F47
:101FB00022000C17290057082A00BA0029005808E7
:101FC0002A00BB008031242188310800A03029007C
:101FD000A0000430A1003030A2000530A300F03092
:101FE00021009E009D011D14080012001E00F00338
:101FF000031DF52FF103031DF52F080000340034F5
:10200000883166209031FF30AE00AF01883127263D
:102010009031FE302A00AE00AF0188312726903182
:10202000FD302A00AE00AF0188312726903188317B
:102030002623903129003C08003A031D2228220063
:102040000D178D1722008C138C150E100E138E1386
:102050002900BF01C001B601B7012700ED01EE0163
:1020600029003C08043A0130031D0030F1003C080F
:10207000053A0130031D0030F0007108F004031927
:102080007B2802302A00B0001030B100CD30B20001
:102090000130B3000830B4008031B82490316400BE
:1020A0000D30FB002D30FC00D730FD00FD0B562815
:1020B000FC0B5628FB0B56280000000002302A00BB
:1020C000B0001030B100B230B2000130B3000830BF
:1020D000B4008031B82490312A00B0011030B10032
:1020E000A930B2000130B3000830B4008031B82408
:1020F00090316400B62829003C08003A0319B6283C
:1021000001302A00B000B101A030B2000130B300AC
:102110000830B4008031B824903164000D30FB00E9
:102120002D30FC00D730FD00FD0B9428FC0B9428CB
:10213000FB0B94280000000001302A00B000B10120
:10214000C430B2000130B3000830B4008031B8248C
:1021500090312A00B001B101BB30B2000130B300B0
:102160000830B4008031B824903164000800640065
:1021700088315C2190317008A2007108A300003002
:10218000A31BFF30A400A5008831642290317008A1
:10219000A6007108A7000030A71BFF30A800A90007
:1021A0002208AE002308AF008831452690318831DF
:1021B0008120903170082A00AA007108AB007208D3
:1021C000AC007308AD0080302906F0008030250691
:1021D0007002031DF52824082802031DF528230892
:1021E0002702031DF52822082602031CFE28E730DB
:1021F000A2000330A300A401A50148292608220754
:10220000F0002708233DF1002808243DF2002908AA
:10221000253DF3006430F400F501F601F70180314B
:10222000B92090312A002208F4002308F500240880
:10223000F6002508F7002608F4022708F53B2808D1
:10224000F63B2908F73B80313727903170082A0088
:10225000A2007108A3007208A4007308A5008030D2
:10226000F400803073067402031D40297208003C9C
:10227000031D40297108033C031D40297008E73CF9
:1022800003184829E730A2000330A300A401A501E8
:102290002A08F0002B08F1002C08F2002D08F300AA
:1022A0000030F4000030F5002030F6008230F700F6
:1022B0008831002090310030F4000030F5007A3091
:1022C000F6008830F7008831A020903170082A008D
:1022D000AA007108AB007208AC007308AD00F430BE
:1022E000F400FD30F5003430F6007F30F70088311F
:1022F000A020903170082A00AA007108AB00720873
:10230000AC007308AD007008F4007108F5007208A5
:10231000F6007308F7008831002090310030F40097
:102320000030F5002030F6008130F7008831A02021
:10233000903170082A00AA007108AB007208AC0046
:102340007308AD000030F4000030F5000030F600F6
:102350007E30F7008831BD21903170082A00AA0034
:102360007108AB007208AC007308AD008831C82258
:10237000903170082900B6007108B70080307106EE
:10238000F20080307202031DC7290A307002031860
:10239000CE290130BF000030C000F02980302A0073
:1023A0002506F00080307002031DE0290030240271
:1023B000031DE02900302302031DE02964302202BE
:1023C0000318E829E7302900BF000330C000F029D6
:1023D0002A0022082900BF002A0023082900C00083
:1023E00008007408003A031DFE297508003A031D11
:1023F000FE29FF30F0007F30F100582A2000FD0157
:10240000F901F801710870040319003471087506A8
:10241000FA00FA1BFD09FB01F51F132AF409F5095F
:10242000F40A0319F50AF11F1A2AF009F109F00A52
:102430000319F10A71087504FA00FA1B2F2A883172
:10244000772790317B18442AFD1F0034F009F109E9
:10245000F00A0319F10AF809F909F80A0319F90A47
:102460000034F51F402AF11B3C2A7108F90070085E
:10247000F800F101F001242AF101F001F00A003422
:10248000F109F009FB0A212AF80A0319F90A74086C
:102490007802031D242A75087902031D242AF901F4
:1024A000F801F00A0319F10AF11F242A0000FF3491
:1024B0000800B72080303706F20080303B067202F9
:1024C000031D642A3A083602013003180030F20076
:1024D00080303906F100803037067102031D722A00
:1024E00036083802013003180030F1008030F00067
:1024F000803039067002031D7F2A3808003C013005
:1025000003180030F0007108F0057208F004031998
:10251000BF2A6400B7200D302A00A2000030A300BB
:10252000A4010530A5000130A6008831382790317C
:10253000700803199E2A01302700EF0027006F085A
:10254000013A0130031D00302900EF000D302A0050
:10255000A2000030A300A4010530A500A601883127
:102560003827903129006F08F0050319BE2A002092
:102570002900BF01C001F001F101C32A5A2A3F0816
:10258000F0004008F100080003302900EE002800A8
:10259000AE012A00B00180313125903159227008F6
:1025A0002A00A0007108A10020082900BF002A000D
:1025B00021082900C0001430F4000030F5002A0082
:1025C0002008F0002108F100F12170082A002007FE
:1025D0002900EC0071082A00213D2900ED006E0859
:1025E000EB006B081F3C031C472B6B082A00B00054
:1025F00080313125903159227008BF007108C00028
:1026000080307106F20080306D067202031D0A2BC5
:102610006C0870020318452B1430F4000030F500EC
:102620003F08F0004008F100F121700829003F0741
:10263000EC007108403DED006B082800AE00290059
:102640006E082800AF00803029004006F00080307E
:102650007002031D2D2B78303F020318302B472BBF
:102660006E086B07F1007108EB007108093A031D51
:102670003C2B0830EB00442B6B08113A031D442B14
:102680001030EB000430EE00462B472BF12A2800D7
:102690002E082A00B000803131259031080020003A
:1026A0006F082900E50020006F0828006907F10085
:1026B00071082900E70071081F3C0318612B1F30C7
:1026C000E700280069082900650203186D2B6508DA
:1026D000280069022900E8006E2BE801680828003C
:1026E000E900290068082A00B00080316325903194
:1026F00059227008BF007108C00000307106031D28
:10270000832B00307006031D862B052C3F08E90043
:102710004008EA00680AE60066086702031CFE2B10
:1027200066082A00B0008031632590315922700874
:10273000BF007108C00000307106031DA12B0030DE
:102740007006031DA42B052C80304006F00080305D
:102750006A067002031DAE2B69083F02031CBF2BE3
:102760003430FC00F130FD00FD0BB42BFC0BB42B1E
:102770000000000059227008BF007108C0008030BE
:102780004006F00080306A067002031DC92B6908FC
:102790003F02031CDA2B3430FC00F130FD00FD0B4E
:1027A000CF2BFC0BCF2B0000000059227008BF007C
:1027B0007108C00080304006F00080306A06700268
:1027C000031DE42B69083F020318FB2B3F08E900B7
:1027D0004008EA0066082800E90080302900400629
:1027E000F00080307002031DF72B78303F02031891
:1027F000FA2BFE2BFC2BFE2BE60A8C2B28006908FB
:102800002A00B0008031632590310800640029005F
:10281000660826006A06031D102C69082900650653
:102820000319AB2C290065082600E9002900660879
:102830002600EA00003029006606031D212C013025
:102840006506031D592C3C08043A0130031D003075
:10285000F1003C08053A0130031D0030F00071081A
:10286000F0040319422C02302A00B0004030B100BD
:102870002930B2000430B3000430B4008031B824F1
:102880009031552C29003C08003A0319552C013091
:102890002A00B0000430B100E830B2000330B300C9
:1028A0000430B4008031B82490312600E901EA01F7
:1028B000AB2C290065082600E900290066082600DF
:1028C000EA00290065082A00B000290066082A00ED
:1028D000B100AF30B2000430B3008031D423903166
:1028E00029003208A8002E30A9003308AA003408B5
:1028F000AB003C08043A0130031D0030F1003C08F5
:10290000053A0130031D0030F0007108F00403198E
:10291000982C02302A00B0004030B100A830B2003C
:102920000430B3000430B4008031B8249031AB2CB3
:1029300029003C08003A0319AB2C01302A00B000F2
:102940000430B100A830B2000430B3000430B40049
:102950008031B82490316400080028002F08290035
:10296000E50028002F082E07F10071082900E70074
:1029700071081F3C0318BE2C1F30E70028002E08EA
:10298000290065020318CA2C650828002E022900B8
:10299000E800CB2CE80168082800AE002900680890
:1029A0002A00B00080313125903159227008BF00D3
:1029B0007108C00000307106031DE02C0030700665
:1029C000031DE32C622D3F08E9004008EA00680A75
:1029D000E60066086702031C5B2D66082A00B0004B
:1029E00080313125903159227008BF007108C00034
:1029F00000307106031DFE2C00307006031D012DF2
:102A0000622D80304006F00080306A067002031D9F
:102A10000B2D69083F02031C1C2D3430FC00F130E3
:102A2000FD00FD0B112DFC0B112D000000005922A3
:102A30007008BF007108C00080304006F000803090
:102A40006A067002031D262D69083F02031C372DFC
:102A50003430FC00F130FD00FD0B2C2DFC0B2C2D37
:102A60000000000059227008BF007108C0008030CB
:102A70004006F00080306A067002031D412D69088F
:102A80003F020318582D3F08E9004008EA00660895
:102A90002800AE00803029004006F000803070022F
:102AA000031D542D78303F020318572D5B2D592DEF
:102AB0005B2DE60AE92C28002E082A00B0008031A0
:102AC00031259031080003302900EA00E6016A0848
:102AD0002000EF0003302900E7001430F40000303C
:102AE000F5003F08F0004008F100F12170082900CE
:102AF0003F07E8007108403DE9006A08E500650805
:102B00001F3C031CDB2D65082A00B00080316325C3
:102B10009031C42259227008BF007108C000803073
:102B20007106F200803069067202031D992D680853
:102B300070020318D92D1430F4000030F5003F085E
:102B4000F0004008F100F121700829003F07E8007B
:102B50007108403DE90065082800E9002E082900B9
:102B6000E6006A082000EF0028002F082900E7008F
:102B700080304006F00080307002031DC12D783097
:102B80003F020318C42DDB2D6A086507F1007108A8
:102B9000E5007108093A031DD02D0830E500D82D55
:102BA0006508113A031DD82D1030E5000430EA0005
:102BB000DA2DDB2D7F2D66082800AE0069082A007B
:102BC000B00080316325903128002E082A00B00023
:102BD000803131259031290067082800AF0034305A
:102BE000FC00F130FD00FD0BF32DFC0BF32D00007C
:102BF0000000080080313E20903128006A082A0039
:102C0000C90080310320903180302A00C900803112
:102C10000320903129005F082A00C9008031032079
:102C20009031803107219031080064002700EF01C6
:102C3000592280304006F00080307002031D222EA1
:102C40006E303F020318252EB02F88316620903158
:102C50000230FB000430FC00BA30FD00FD0B2E2ECC
:102C6000FC0B2E2EFB0B2E2E00005922803040062E
:102C7000F00080307002031D3F2E6E303F020318BB
:102C8000422EB02F8030F100803027067102031DE4
:102C90004B2E26086E3C013003180030F1008030C6
:102CA0002706F000803040067002031D592E3F08B1
:102CB0002602013003180030F0007108F0050319F6
:102CC000622EB02F3F08DF004008E000632500308F
:102CD00029004006031D6E2E00303F06031D742E92
:102CE000883166209031B02F592280304006F000A4
:102CF00080307002031D7E2E78303F020318812E33
:102D0000B02F4F23003029004006031D892E0030CC
:102D10003F06031D8F2E883166209031B02F592237
:102D200080304006F00080307002031D992E78300C
:102D30003F0203189C2EB02FAD240030290040061E
:102D4000031DA42E00303F06031DAA2E88316620E5
:102D50009031B02F592280304006F0008030700250
:102D6000031DB42E78303F020318B72EB02F8030E9
:102D70004006F10080307102031DC02EC8303F02B2
:102D8000013003180030F10080304006F000803040
:102D900060067002031DCE2E5F083F02013003184B
:102DA0000030F00070087105F3003F085F02F10089
:102DB0004008603BF2008030F00080307206700204
:102DC000031DE42E7108643C013003180030F0004C
:102DD0007308F0050319ED2EB02F3F08DF004008FF
:102DE000E000280069082900E100E20128002E081F
:102DF0002900E300E40128006708013A031D022FBF
:102E0000E701042F0130E700883166209031280067
:102E100067082900E5008831D22790310230FB0095
:102E20000430FC00BA30FD00FD0B142FFC0B142FF6
:102E3000FB0B142F0000592280304006F000803038
:102E40007002031D252F78303F020318282FB02F62
:102E50006325003029004006031D302F00303F0657
:102E6000031D362F883166209031B02F59228030D3
:102E70004006F00080307002031D402F78303F0282
:102E80000318432FB02F4F23003029004006031DA5
:102E90004B2F00303F06031D512F883166209031A3
:102EA000B02F592280304006F00080307002031DA0
:102EB0005B2F78303F0203185E2FB02FAD24003017
:102EC00029004006031D662F00303F06031D6C2FAE
:102ED000883166209031B02F592280304006F000B2
:102EE00080307002031D762F78303F020318792F4F
:102EF000B02F80306006F000803040067002031D65
:102F0000832F3F085F020318AF2F28006708013A9C
:102F1000031D8C2FE7018E2F0130E7006708290081
:102F2000E5008831D2279031290061082800E900A6
:102F3000290063082800AE00290061082A00B000BB
:102F400080316325903128002E082A00B00080319E
:102F50003125903129005F08BF006008C00064007F
:102F6000080029005D08F000F036F036F036F03643
:102F70000A30F4008031EF2090310F3029005D05D8
:102F8000F1007108F00708002900DD018031F22707
:102F9000903170082800EA007008003A031DD72F0E
:102FA00021000D138D1322000D178D17DD2F210029
:102FB0000D178D1722000D138D1308005234453460
:102FC00053344534543420342034203400345034C5
:102FD000573452343D3430342E3430345734003486
:102FE0005334573452343D3430342E34303430344A
:102FF000003430342E343034303400340034003473
:103000002900E301E40164304102E0000030423B6A
:10301000E100B601B70101302600ED000030EE00FE
:1030200064006C080319182828302900E2001B28C6
:1030300029007830E200DF0162085F0203187D2872
:1030400026006C08003A0130031D0030F10020001A
:103050000D182C2876142D2876100D1A31280314FB
:1030600032280310761838280318382876103928A3
:10307000761420008D1A3E2803143F28031076187A
:10308000452803184528761046287614F00176184E
:10309000F00A7108F005031957288831A3279831E1
:1030A00026006B08013A031D5728EB01EC2B9031E9
:1030B000B720983180306406F00080303706700207
:1030C000031D642836086302031871283608E300DC
:1030D0003708E4003F082600ED00290040082600DC
:1030E000EE001030FC009430FD00FD0B7528FC0B49
:1030F000752800002900DF0A1C2864006308BD0051
:103100006408BE0026006D082900E50026006E0850
:103110002900E600903106249831803026006E06A2
:10312000F0008030290042067002031D9A284108F1
:1031300026006D0226000130031C0030F0007008EC
:103140006F05F500803027006E06F3008030260002
:103150006E067302031DAF286D0827006D0227005D
:10316000013003180030F3006D0826006D02F100F5
:1031700027006E0826006E3BF200803029006106B1
:10318000F000803072067002031DC82871086002CA
:10319000013003180030F00070087305F40080302F
:1031A00026006E06F300803027006E067302031DB2
:1031B000DC286D0826006D0226000130031800305F
:1031C000F3006D0827006D02F10026006E0827004D
:1031D0006E3BF200803029006106F00080307206FC
:1031E0007002031DF52871086002013003180030D9
:1031F000F0007308F00570087404F10027006E08F1
:10320000033A031D0529E7306D060130031D003028
:10321000F0007108F0047508F00503191229013057
:103220002600E80026006C08003A0130031D00303B
:10323000F10020000D181E2976141F2976108D1814
:10324000232903142429031076182A2903182A296C
:1032500076102B29761420000D19302903143129FA
:103260000310761837290318372976103829761471
:10327000F0017618F00A7108F00503194929883120
:10328000A327983126006B08013A031D4929EB0159
:10329000EC2B29003E0826005E06031D52295D081E
:1032A00029003D060319DD2929003D082600DD001F
:1032B00029003E082600DE00803029003E06F0008E
:1032C00080307002031D662964303D02031C88298A
:1032D00005303D07F00000303E3DF1007008BD00B4
:1032E0007108BE0070082A00B0007108B100AF304C
:1032F000B2000430B3008031D42398312900310862
:10330000A8003208A9003308AA005730AB00AD2945
:103310003D082A00B00029003E082A00B100AF3065
:10332000B2000430B3008031D4239831290033082F
:10333000203A03199E293308A800A0293030A8009C
:103340002E30A9003408203A0319A9293408AA000C
:10335000AB293030AA005730AB003C08043A0130AA
:10336000031D0030F1003C08053A0130031D003018
:10337000F0007108F0040319CB292A00B001403095
:10338000B100A830B2000430B3000430B400803182
:10339000B8249831DD2929003C08003A0319DD29B9
:1033A0002A00B0010430B100A830B2000430B300EC
:1033B0000430B4008031B824983126006C08003AFB
:1033C0000130031D0030F10020000D18E9297614AA
:1033D000EA2976108D18EE290314EF2903107618C8
:1033E000F5290318F5297610F629761420000D1911
:1033F000FB290314FC2903107618022A0318022A59
:103400007610032A7614F0017618F00A7108F00598
:103410000319142A8831A327983126006B08013A32
:10342000031D142AEB01EC2B64008030053AF000F8
:10343000803029003E067002031D202A3D08DC3C36
:103440000318EC2B3C08043A0130031D0030F10056
:103450003C08053A0130031D0030F0007108F0040B
:103460000319022B02302A00B0001030B100543092
:10347000B2000330B3000830B4008031B824983172
:103480000330FB000830FC007730FD00FD0B462ABE
:10349000FC0B462AFB0B462A02302A00B0001030F3
:1034A000B1005F30B2000330B3000830B4008031A7
:1034B000B82498310B30FB002630FC005D30FD0055
:1034C000FD0B602AFC0B602AFB0B602A0000000049
:1034D000640002302A00B0001030B100A930B20000
:1034E0000330B3000830B4008031B824983107307D
:1034F000FB001730FC006A30FD00FD0B7D2AFC0B41
:103500007D2AFB0B7D2A000002302A00B00010301B
:10351000B100A030B2000330B3000830B4008031F5
:10352000B82498310B30FB002630FC005D30FD00E4
:10353000FD0B982AFC0B982AFB0B982A0000000030
:10354000640002302A00B0001030B1003030B20008
:103550000330B3000830B4008031B824983107300C
:10356000FB001730FC006A30FD00FD0BB52AFC0B98
:10357000B52AFB0BB52A000002302A00B00010303B
:10358000B1002730B2000330B3000830B4008031FE
:10359000B82498310B30FB002630FC005D30FD0074
:1035A000FD0BD02AFC0BD02AFB0BD02A0000000018
:1035B000640002302A00B0001030B1003930B2008F
:1035C0000330B3000830B4008031B82498310330A0
:1035D000FB000830FC007730FD00FD0BED2AFC0BF2
:1035E000ED2AFB0BED2A02302A00B0001030B100AA
:1035F0004B30B2000330B3000830B4008031B8243F
:103600009831CE2B29003C08003A0319CE2B01300B
:103610002A00B000B1014230B2000330B3000830DC
:10362000B4008031B82498310330FB000830FC002E
:103630007730FD00FD0B1A2BFC0B1A2BFB0B1A2B02
:1036400001302A00B000B101CD30B2000330B30028
:103650000830B4008031B82498310B30FB0026309C
:10366000FC005D30FD00FD0B332BFC0B332BFB0B03
:10367000332B00000000640001302A00B000B101CB
:10368000C430B2000330B3000830B4008031B82435
:1036900098310730FB001730FC006A30FD00FD0B4D
:1036A0004F2BFC0B4F2BFB0B4F2B000001302A0044
:1036B000B000B101D630B2000330B3000830B4001E
:1036C0008031B82498310B30FB002630FC005D308F
:1036D000FD00FD0B692BFC0B692BFB0B692B00001C
:1036E0000000640001302A00B000B1012030B200B7
:1036F0000430B3000830B4008031B824983107306A
:10370000FB001730FC006A30FD00FD0B852BFC0B25
:10371000852BFB0B852B000001302A00B000B10186
:10372000DF30B2000330B3000830B4008031B82479
:1037300098310B30FB002630FC005D30FD00FD0BA6
:103740009F2BFC0B9F2BFB0B9F2B000000006400AA
:1037500001302A00B000B101BB30B2000330B30029
:103760000830B4008031B82498310330FB000830B1
:10377000FC007730FD00FD0BBB2BFC0BBB2BFB0BC8
:10378000BB2B01302A00B000B101B230B2000330CF
:10379000B3000830B4008031B82498310B30FB00FE
:1037A0002630FC005D30FD00FD0BD42BFC0BD42B30
:1037B000FB0BD42B00000000640010302600E90051
:1037C0002730EA006D082900E50026006E08290070
:1037D000E6009031062498310800640022000E10A3
:1037E0000E138E1329003C08003A031DFA2B220009
:1037F0000D178D1729003C08043A0130031D0030D5
:10380000F1003C08053A0130031D0030F00071085A
:10381000F0040319272C2A00B0014030B100DA303F
:10382000B2000230B3000430B4008031B8249831C3
:1038300002302A00B0004030B100E930B20002305E
:10384000B3000430B4008031B8249831472C2900EB
:103850003C08003A0319472C2A00B0010430B1009B
:10386000E430B2000230B3000430B4008031B82438
:10387000983101302A00B0000430B100DF30B200CE
:103880000230B3000430B4008031B8249831903154
:1038900015269831FF302A00AE0028002E082A0095
:1038A000AF00883127269831FE302A00AE0028006C
:1038B00069082A00AF00883127269831FD302A0098
:1038C000AE00280067082A00AF008831272698310B
:1038D00029003C08003A031D8D2C8030F000803018
:1038E00040067002031D762C3F08963C031C7B2C7F
:1038F00022000D138D2C8030F0008030290040060E
:103900007002031D852C3F08FA3C031C8B2C200001
:103910000D138D138D2C20008D138030F00080301E
:10392000290040067002031D972C3F08963C031C9B
:103930009C2C22000E14AD2C8030F0008030290029
:1039400040067002031DA62C3F08FA3C031CAB2C5A
:1039500022000E17AD2C22008E172600E901EA0185
:103960001030DD002730DE00002029003F0827004E
:10397000ED00290040082700EE0088312623983109
:1039800022008C138C1564000800640029003C0898
:10399000043A0130031D0030F1003C08053A0130C3
:1039A000031D0030F0007108F0040319262D2A00D1
:1039B000B0011030B1005630B2000230B300083010
:1039C000B4008031B824983102302A00B0001030A1
:1039D000B1003B30B2000230B3000830B400803197
:1039E000B824983104302A00B0001030B1003230D1
:1039F000B2000230B3000830B4008031B8249831EE
:103A000006302A00B0001030B1002930B200023078
:103A1000B3000830B4008031B824983126006C0817
:103A20000130031D0030F0006F08F0050319252D4B
:103A30002A00B0017030B1006D30B2000130B30027
:103A40000130B4008031B8249831972D29003C080A
:103A5000003A0319972D2A00B001B1014D30B20090
:103A60000230B3000830B4008031B82498310130FE
:103A70002A00B000B1014430B2000230B300083077
:103A8000B4008031B824983129003C08013A031D64
:103A9000652D2A00B0010930B100E730B2000130D5
:103AA000B3000730B4008031B824983101302A00C7
:103AB000B0000930B100DF30B2000130B300073090
:103AC000B4008031B8249831802D2A00B00109302B
:103AD000B100D630B2000130B3000830B4008031FC
:103AE000B824983101302A00B0000930B1002030EC
:103AF000B2000230B3000830B4008031B8249831ED
:103B000026006C080130031D0030F0006F08F0053E
:103B10000319972D2A00B0010830B1006B30B200B4
:103B20000130B3000130B4008031B8249831640012
:103B30002800E601B9018831262398310800803138
:103B40003E20983128006A082A00C90080310320ED
:103B500098312A00C901803103209831AE302A0003
:103B6000C90080310320983128006D08023A0130E5
:103B7000031D0030F1006D08033A0130031D0030D1
:103B8000F0007108F00403197B2ED5302A00C9001B
:103B900080310320983180302A00C9008031032011
:103BA0009831A8302A00C9008031032098313F3075
:103BB0002A00C900803103209831D3302A00C9007F
:103BC00080310320983128006D08023A031DEF2D43
:103BD0006B082A00C900803103209831F72D280096
:103BE0006B081F3E2A00C900803103209831403005
:103BF0002A00C9008031032098318D302A00C90085
:103C000080310320983114302A00C900803103200C
:103C1000983181302A00C900803103209831B430B6
:103C20002A00C900803103209831D9302A00C90008
:103C300080310320983122302A00C90080310320CE
:103C4000983120302A00C900803103209831023099
:103C50002A00C90080310320983121302A00C90090
:103C60008031032098312A00C90180310320983126
:103C70007F302A00C9008031032098312E302A007D
:103C8000C90080310320983128006D08023A031DD5
:103C9000562EA0302A00C900803103209831C03050
:103CA0002A00C900803103209831622EA1302A00F9
:103CB000C900803103209831C8302A00C900803102
:103CC00003209831DA302A00C9008031032098316E
:103CD00002302A00C900803103209831DB302A00ED
:103CE000C90080310320983140302A00C90080315A
:103CF00003209831232FD5302A00C90080310320BA
:103D0000983180302A00C900803103209831A830D2
:103D10002A00C9008031032098313F302A00C900B1
:103D2000803103209831D3302A00C900803103202C
:103D3000983128006B082A00C9008031032098318F
:103D400040302A00C9008031032098318D302A008C
:103D5000C90080310320983114302A00C900803115
:103D60000320983181302A00C90080310320983126
:103D7000FF302A00C900803103209831D9302A0051
:103D8000C900803103209831F1302A00C900803108
:103D90000320983120302A00C90080310320983157
:103DA00002302A00C90080310320983121302A00D6
:103DB000C9008031032098312A00C90180310320D5
:103DC00098317F302A00C9008031032098312E308D
:103DD0002A00C90080310320983128006D08043A78
:103DE000031DFF2EA0302A00C90080310320983126
:103DF000C0302A00C9008031032098310B2FA13038
:103E00002A00C900803103209831C8302A00C90037
:103E1000803103209831DA302A00C9008031032034
:103E2000983112302A00C900803103209831DB30EC
:103E30002A00C90080310320983140302A00C9008F
:103E4000803103209831A4302A00C900803103203A
:103E50009831A6302A00C900803103209831803182
:103E6000072198310330FB000830FC007730FD005B
:103E7000FD0B382FFC0B382FFB0B382F80313E20E9
:103E8000983128006A082A00C9008031032098313F
:103E900040302A00C90080310320983128006D0885
:103EA000023A0130031D0030F1006D08033A013081
:103EB000031D0030F0007108F00403197E2F290063
:103EC000DE015E08033C031C7D2F5E082A00C4004F
:103ED000C50180315D2098312900DD012900803045
:103EE0005D0203187A2FDD0A2A00C9018031032000
:103EF00098316E2F2900DE0A612F9C2F2900DE01E8
:103F00005E08073C031C9C2F5E082A00C400C50104
:103F100080315D2098312900DD01290080305D026B
:103F20000318992FDD0A2A00C90180310320983136
:103F30008D2F2900DE0A802F803107219831AF3084
:103F40002900DF009031FA259831080021009712EE
:103F50001716971117159710640023008C010C1485
:103F60008C148D0122009113931378302100990055
:103F700020008C018D018E0122008C018D018E01AB
:103F8000033021008C00F9308D008E018831E62746
:103F900098311E149E14951324000D148D150D16C2
:103FA0008D168B1308004634413453345434203476
:103FB00054344534533454340034203420342034C1
:103FC000203420342034203420342034003454343D
:103FD00045345334543420344D344F344434453410
:103FE0000034543445345334543420344D344F3435
:103FF00044344534003430342E34303430340034DA
:104000000D302A00A2000030A300A4013230A50028
:10401000A60188313827A03170080319B828063066
:10402000FB001330FC00AD30FD00FD0B1528FC0B30
:104030001528FB0B152800000000640020000D1C53
:10404000342828006708003A031D29280130E700BA
:104050002A28E70167082900E5008831D227A03126
:1040600088312623A031A42823006F08013A031DBC
:104070003B28EF013D280130EF006F08013A031D96
:10408000732829003C08043A0130031D0030F10078
:104090003C08053A0130031D0030F0007108F004BF
:1040A000031960282A00B0017030B1002230B2003C
:1040B0000330B3000130B4008031B824A03172283D
:1040C00029003C08003A031972282A00B001083080
:1040D000B1002030B2000330B3000130B4008031B1
:1040E000B824A031A42829003C08043A0130031D5B
:1040F0000030F1003C08053A0130031D0030F000AB
:104100007108F004031992282A00B0017030B10040
:10411000EE30B2000230B3000130B4008031B82478
:10412000A031A42829003C08003A0319A4282A0039
:10413000B0010830B1002530B2000330B3000130C7
:10414000B4008031B824A0310D302A00A200003024
:10415000A300A4013230A500A60188313827A03180
:1041600070080319B82898310020A0316400A428F1
:104170000D302A00A2000030A3000530A400323028
:10418000A500A60188313827A031700803190E292F
:1041900064002A000D30A2000030A3000530A40006
:1041A0003230A500A60188313827A03170080319E4
:1041B0000E291F3028006902013003180030F0007A
:1041C00023006F08F0050319EE282800E90A6908A2
:1041D0002A00B00080316325A031062923006F0832
:1041E0000130031D0030F1001F3028002E02013085
:1041F00003180030F0007108F00503190629AE0A13
:104200002E082A00B00080313125A03188312623C4
:10421000A03198310020A0316400C9280D302A0057
:10422000A2000030A3000430A4003230A500A60193
:1042300088313827A03128005408003A0130031D86
:104240000030F1007108F00503196C2964000D308D
:104250002A00A2000030A3000430A4003230A500E0
:10426000A60188313827A031700803196C2928006D
:104270006908003C013003180030F00023006F088B
:10428000F00503194C292800E90369082A00B00049
:1042900080316325A031642923006F080130031D9C
:1042A0000030F10028002E08003C013003180030D7
:1042B000F0007108F00503196429AE032E082A00E6
:1042C000B00080313125A03188312623A0319831CA
:1042D0000020A031640027290800640029003C0860
:1042E000043A0130031D0030F1003C08053A01306A
:1042F000031D0030F0007108F00403199A2A2A0007
:10430000B0011630B1005B30B2000130B3000730AD
:10431000B4008031B824A03102302A00B00004304B
:10432000B100A030B2000030B3000A30B4008031D8
:10433000B824A03104302A00B0001030B1005E3043
:10434000B2000030B3000830B4008031B824A0318E
:104350000630FC003030FD00FD0BAC29FC0BAC2915
:10436000000004302A00B0001030B1005E30B2000E
:104370000030B3000830B4008031B824A0310630DA
:10438000FC003030FD00FD0BC329FC0BC3290000ED
:1043900004302A00B0001030B1005E30B2000030AE
:1043A000B3000830B4008031B824A0310630FC00DE
:1043B0003030FD00FD0BDA29FC0BDA290000063055
:1043C0002A00B0000430B1005330B2000030B30016
:1043D0000A30B4008031B824A03164000D30FB00F5
:1043E0002D30FC00D730FD00FD0BF429FC0BF42927
:1043F000FB0BF4290000000064000B30FB002630AA
:10440000FC005D30FD00FD0B032AFC0B032AFB0BB7
:10441000032A0000000064002A00B0011030B1003F
:10442000B630B2000030B3000830B4008031B82498
:10443000A03102302A00B0000430B100AB30B2002D
:104440000030B3000A30B4008031B824A031043009
:104450002A00B0001030B1006630B2000030B30066
:104460000830B4008031B824A03106302A00B000F2
:104470000430B1003430B2000030B3000A30B40070
:104480008031B824A0310430FB000C30FC00333004
:10449000FD00FD0B492AFC0B492AFB0B492A0000B1
:1044A00000002A00B0011030B1002B30B200003003
:1044B000B3000830B4008031B824A03102302A00A3
:1044C000B0001030B1002230B2000030B30008302C
:1044D000B4008031B824A03104302A00B00010307C
:1044E000B1004A30B2000030B3000830B40080316F
:1044F000B824A03106302A00B0001030B10041309D
:10450000B2000030B3000830B4008031B824A031CC
:1045100026006F080319992A2A00B0017030B100F3
:104520003F30B2000030B3000130B4008031B82415
:10453000A031D52B29003C08003A0319D52B2A00BD
:10454000B0010430B1003630B2000130B3000730A2
:10455000B4008031B824A03101302A00B00003300B
:10456000B1002B30B2000130B3000A30B40080310A
:10457000B824A03164000F30FB003530FC0051300E
:10458000FD00FD0BC12AFC0BC12AFB0BC12A6400F4
:104590000B30FB002630FC005D30FD00FD0BCE2A09
:1045A000FC0BCE2AFB0BCE2A0000000064002A0080
:1045B000B0010430B1005E30B2000030B30008300A
:1045C000B4008031B824A0310630FC003030FD004A
:1045D000FD0BE82AFC0BE82A00002A00B001043099
:1045E000B1005E30B2000030B3000830B40080315A
:1045F000B824A0310630FC003030FD00FD0BFE2A4F
:10460000FC0BFE2A00002A00B0010430B1005E302D
:10461000B2000030B3000830B4008031B824A031BB
:104620000630FC003030FD00FD0B142BFC0B142B6E
:10463000000001302A00B0000330B1002030B20089
:104640000130B3000A30B4008031B824A0316400D6
:104650000D30FB002D30FC00D730FD00FD0B2E2B64
:10466000FC0B2E2BFB0B2E2B0000000064000B30EC
:10467000FB002630FC005D30FD00FD0B3D2BFC0BEC
:104680003D2BFB0B3D2B0000000064002A00B00115
:104690000430B1005230B2000130B3000830B40031
:1046A0008031B824A03101302A00B0000330B100BD
:1046B0004730B2000130B3000A30B4008031B82472
:1046C000A0310430FB000C30FC003330FD00FD0B4A
:1046D000672BFC0B672BFB0B672B000000002A00ED
:1046E000B001B1013E30B2000130B3000830B40077
:1046F0008031B824A03101302A00B000B101CF30A0
:10470000B2000030B3000830B4008031B824A031CA
:1047100029003C08013A031DA92B2A00B0010930E9
:10472000B100C730B2000030B3000730B4008031B0
:10473000B824A03101302A00B0000930B100BF30E8
:10474000B2000030B3000730B4008031B824A0318B
:10475000C42B2A00B0010930B100E330B2000030B0
:10476000B3000830B4008031B824A03101302A00F1
:10477000B0000930B100DA30B2000030B3000830C8
:10478000B4008031B824A03126006F080319D52B5E
:104790002A00B0010830B100D830B2000030B300B8
:1047A0000130B4008031B824A03164000800013029
:1047B0002900DD008031F227A03170082800ED00CB
:1047C00007302900DD008031F227A0317008280071
:1047D000EB0008302900DD008031F227A03170089D
:1047E0002800EC006D08013A0319FA2B98319F2537
:1047F000A0316A2C01302900A4002800EF01033009
:104800002A00BA0080318B21A0311A30FC00F83028
:10481000FD00FD0B092CFC0B092C000003302A00C5
:10482000BA0080318B21A0310630FC003030FD0011
:10483000FD0B182CFC0B182C000003302A00BA00CA
:1048400080318B21A03102302A00BA0080318B21C7
:10485000A03102302A00BA0080318B21A03108300B
:104860002A00BA0080318B21A0312A00BA018031A0
:104870008B21A03108302A00BA0080318B21A03171
:104880002A00BA0180318B21A03101302A00BA0000
:1048900080318B21A0311A30FC00F830FD00FD0B77
:1048A0004F2CFC0B4F2C00002A00BA0180318B21C9
:1048B000A03106302A00BA0080318B21A0312A00B5
:1048C000BA0180318B21A0310C302A00BA0080312E
:1048D0008B21A03108000D302A00A2000030A30077
:1048E000A4013230A500A60188313827A031260066
:1048F0006808F0040319C62C22008C178C110630AE
:10490000FB001330FC00AD30FD00FD0B852CFC0BD3
:10491000852CFB0B852C0000000064002600680835
:10492000003A0130031D0030F10020000D189A2CD0
:1049300003109B2C0314F0010318F00A7108F00512
:104940000319A82C90310020A0312800D401C32CD9
:104950009831ED23A0312800D4010D302A00A200A7
:104960000030A300A4013230A500A6018831382709
:10497000A03170080319C12C98310020A0316400C7
:10498000AD2C2600E80188312623A0310D302A0005
:10499000A2000030A3000530A4003230A500A6011B
:1049A00088313827A031700803194A2D6400280087
:1049B0005408003A031D0B2D0130D4002E082600A8
:1049C000A400280069082400EF00280067082400DC
:1049D000EE002800AE01E9010130E7002A00B00135
:1049E00080316325A03128002E082A00B0008031D4
:1049F0003125A031280067082900E5008831D22739
:104A0000A03126006F082400ED002600EF01883158
:104A10002623A031352D2800D401260024082800A3
:104A2000AE0024006F082800E90024006E0828006A
:104A3000E700260024082A00B00080313125A0318B
:104A4000280069082A00B00080316325A0312800C1
:104A500067082900E5008831D227A03124006D08BD
:104A60002600EF0088312623A0310D302A00A20055
:104A70000030A3000530A4003230A500A601883123
:104A80003827A031700803194A2D98310020A03131
:104A90006400352D0D302A00A2000030A300043040
:104AA000A4003230A500A60188313827A0312800A3
:104AB0005408003A0130031D0030F1007108F00580
:104AC00003198E2D640026006F08003A031D6B2D1C
:104AD0000130EF006C2DEF0102302A00AE002600FD
:104AE0006F082A00AF0088312726A031883126239D
:104AF000A0310D302A00A2000030A3000430A40031
:104B00003230A500A60188313827A031700803197A
:104B10008E2D98310020A0316400792D08006400AA
:104B200001302900DD008031F227A0317008290012
:104B3000BC000230DD008031F227A0317008013A5C
:104B4000031DA52D01302600EF0003302900DD00F4
:104B50008031F227A03170082900DD009031B127A3
:104B6000A0317008D700D8010430DD008031F22771
:104B7000A03170082900DD009031B127A0310A3042
:104B8000F4008031EF20A03170082900C1007108C5
:104B9000C2000530DD008031F227A0317008290005
:104BA000DD009031B127A0310A30F4008031EF20D0
:104BB000A03170082900BA007108BB000630DD0082
:104BC0008031F227A03170082900DD009031B12733
:104BD000A0310A30F4008031EF20A03170082900A4
:104BE000B8007108B9000930DD008031F227A0312A
:104BF00070082900DD009031B127A0310A30F4009F
:104C00008031EF20A03170082900A6007108A700AC
:104C100064001030DD008031F227A03170082900D7
:104C2000DD009031B127A0316430F4008031EF20F5
:104C3000A03170082900DB007108DC001130DD00B4
:104C40008031F227A03170082900DD009031B127B2
:104C5000A03170085B07D50000305C3DD6001230F3
:104C6000DD008031F227A03170082900DD0090318D
:104C7000B127A0316430F4008031EF20A0317008FA
:104C80002900DB007108DC001330DD008031F227E1
:104C9000A03170082900DD009031B127A0317008E3
:104CA0005B07CB0000305C3DCC001430DD00803170
:104CB000F227A03170082900DD009031B127A03122
:104CC0006430F4008031EF20A03170082900DB004F
:104CD0007108DC001530DD008031F227A03170084A
:104CE0002900DD009031B127A03170085B07C300B7
:104CF00000305C3DC4001630DD008031F227A03169
:104D000070082900DD009031B127A0316430F40033
:104D10008031EF20A03170082900DB007108DC0031
:104D20001730DD008031F227A03170082900DD0046
:104D30009031B127A03170085B07C50000305C3DA1
:104D4000C6001830DD008031F227A031700829003C
:104D5000DD009031B127A0316430F4008031EF20C4
:104D6000A03170082900DB007108DC001930DD007B
:104D70008031F227A03170082900DD009031B12781
:104D8000A03170085B07C70000305C3DC8002030D0
:104D9000DD008031F227A03170082900DD0090315C
:104DA000B127A0316430F4008031EF20A0317008C9
:104DB0002900DB007108DC002130DD008031F227A2
:104DC000A03170082900DD009031B127A0317008B2
:104DD0005B07D10000305C3DD2002230DD00803125
:104DE000F227A03170082900DD009031B127A031F1
:104DF0006430F4008031EF20A03170082900DB001E
:104E00007108DC002330DD008031F227A03170080A
:104E10002900DD009031B127A03170085B07CF0079
:104E200000305C3DD0002430DD008031F227A0311D
:104E300070082900DD009031B127A0316430F40002
:104E40008031EF20A03170082900DB007108DC0000
:104E50002530DD008031F227A03170082900DD0007
:104E60009031B127A03170085B07D30000305C3D62
:104E7000D4002630DD008031F227A03170082900EF
:104E8000DD009031B127A0316430F4008031EF2093
:104E9000A03170082900DB007108DC002730DD003C
:104EA0008031F227A03170082900DD009031B12750
:104EB000A03170085B07CD0000305C3DCE0028308B
:104EC000DD008031F227A03170082900DD0090312B
:104ED000B127A0316430F4008031EF20A031700898
:104EE0002900DB007108DC002930DD008031F22769
:104EF000A03170082900DD009031B127A031700881
:104F00005B07C90000305C3DCA00640008004F34F4
:104F10005634453452344C344F34413444340034E4
:104F200020342034203420342034203420342034E1
:104F300000345334573452343D3420342034203438
:104F400020340034203420342034203420342034E1
:104F500020342034003420342034203420342034D1
:104F600020342034203400344F3456344534523405
:104F70004C344F344134443400344F345634453487
:104F800052344C344F344134443400344F3456346A
:104F9000453452344C344F3441344434003450346A
:104FA000573452343D3430342E3430345734003496
:104FB0004634413453345434203454344534533417
:104FC00054340034543455344E344534003457345A
:104FD0004134493454340034543455344E34453417
:104FE0000034633400346D3469346E3469342034F1
:104FF00062346F3461347234643400342E340034DB
:1050000029003C08043A0130031D0030F1003C083F
:10501000053A0130031D0030F0007108F004031957
:105020001F282A00B0010A30B100C630B200023099
:10503000B3000930B4008031B824A83131282900E8
:105040003C08003A031931282A00B0010330B100AE
:10505000BC30B2000230B3000930B4008031B82453
:10506000A83164000B30FB002630FC005D30FD00F1
:10507000FD0B3828FC0B3828FB0B382800000000FB
:1050800064000B30FB002630FC005D30FD00FD0BA2
:105090004728FC0B4728FB0B472800000000640052
:1050A0000B30FB002630FC005D30FD00FD0B562868
:1050B000FC0B5628FB0B56280000000064000B3048
:1050C000FB002630FC005D30FD00FD0B6528FC0B6D
:1050D0006528FB0B652800000000640029003C08DF
:1050E000043A0130031D0030F1003C08053A01305C
:1050F000031D0030F0007108F00403198D282A0008
:10510000B0010A30B100B230B2000230B300093051
:10511000B4008031B824A8319F2829003C08003A07
:1051200003199F282A00B0010330B100D030B2002B
:105130000230B3000930B4008031B824A83188317E
:105140006620A831FF30AE00AF0188312726A83194
:10515000FE302A00AE00AF0188312726A831FD308D
:105160002A00AE00AF0188312726A831013028007F
:10517000E70001302900E5008831D227A831290055
:105180003C08043A0130031D0030F1003C08053AA8
:105190000130031D0030F0007108F0040319DE280F
:1051A0002A00B0017030B1006B30B2000230B300A1
:1051B0000130B4008031B824A831F02829003C081F
:1051C000003A0319F0282A00B0010830B100693014
:1051D000B2000230B3000130B4008031B824A831ED
:1051E0009831C524A8310800B0310020A831031A35
:1051F000FC2801302200EF0022008C1555302500DC
:1052000020072000DE002D30250027072000E500C4
:105210009831A627A8317230250021072000DF0031
:105220003230250026072000E4000330FB00083060
:10523000FC007730FD00FD0B1B29FC0B1B29FB0B31
:105240001B2964001E30250022072000E0003B30AF
:10525000250025072000E300A0318F25A8319031DB
:10526000C427A8314230250023072000E100053083
:10527000FB000F30FC00F130FD00FD0B3D29FC0B65
:105280003D29FB0B3D2964000D1A48297214492958
:1052900072108D1A4D2903144E290310721C5429C3
:1052A000031C5429721455297210721C5A2901309A
:1052B0002600EC00A031D723A83120000D1A622966
:1052C0007214632972108D1A672903146829031058
:1052D000721C6E29031C6E2972146F297210200033
:1052E0000D187429031475290310721C7B29031CE3
:1052F0007B2972147C297210721CC42929003C0875
:105300000A3A031D91292A00B0010330B1005F3031
:10531000B2000230B3000930B4008031B824A831A3
:10532000A32929003C08003A0319A3292A00B00147
:105330000C30B100A830B2000230B3000930B40024
:105340008031B824A831FF302A00B00080313125E7
:10535000A831FF30B00080316325A8310130290029
:10536000E5008831D227A8310B30FB002630FC0045
:105370005D30FD00FD0BBA29FC0BBA29FB0BBA29E5
:10538000000000006400B4291C3025002407200020
:10539000E200640022006F08003A0130031D003073
:1053A000F10026006C08003A0130031D0030F000C7
:1053B0007108F0050319002A88316620A831FF30F2
:1053C000AE00AF0188312726A831FE302A00AE009A
:1053D000AF0188312726A831FD302A00AE00AF0189
:1053E00088312726A83101302800E7000130290044
:1053F000E5008831D227A831A0316D21A831462A95
:1054000022006F08013A0130031D0030F100260030
:105410006C08003A0130031D0030F0007108F005FF
:105420000319452AFF302900DD008031F227A83119
:1054300070082800AE00FE302900DD008031F22720
:10544000A83170082800E900FD302900DD00803116
:10545000F227A83170082800E70069082A00B00088
:1054600080316325A83128002E082A00B000803141
:105470003125A831280067082900E5008831D227A6
:10548000A8319831C524A831462A00208831262326
:10549000A831640098310020A83126006C08003A39
:1054A000031D562AA0316B24A831592AA0310020AF
:1054B000A831492A5A2AFF3F00340034003400340E
:1054C0000034003400345F340034003400340734D6
:1054D00000340734003414347F3414347F341434EB
:1054E00024342A347F342A341234233413340834D5
:1054F0006434623436344934553422345034003400
:10550000053403340034003400341C342234413474
:1055100000340034413422341C34003408342A343A
:105520001C342A340834083408343E34083408342F
:105530000034503430340034003408340834083433
:10554000083408340034303430340034003420342B
:1055500010340834043402343E3451344934453470
:105560003E34003442347F344034003442346134B9
:105570005134493446342134413445344B34313488
:105580001834143412347F341034273445344534FD
:10559000453439343C344A344934493430340134A4
:1055A00071340934053403343634493449344934C8
:1055B000363406344934493429341E340034363400
:1055C0003634003400340034563436340034003479
:1055D0000034083414342234413414341434143470
:1055E0001434143441342234143408340034023472
:1055F0000134513409340634323449347934413475
:105600003E347E341134113411347E347F344934C5
:105610004934493436343E344134413441342234FF
:105620007F344134413422341C347F34493449348A
:10563000493441347F3409340934013401343E346F
:1056400041344134513432347F340834083408341E
:105650007F34003441347F344134003420344034CA
:1056600041343F3401347F3408341434223441341B
:105670007F3440344034403440347F340234043486
:1056800002347F347F340434083410347F343E34A1
:105690004134413441343E347F34093409340934CF
:1056A00006343E344134513421345E347F3409347D
:1056B0001934293446344634493449344934313470
:1056C000013401347F34013401343F3440344034F8
:1056D00040343F341F342034403420341F347F346E
:1056E0002034183420347F346334143408341434B0
:1056F000633403340434783404340334613451346F
:10570000493445344334003400347F344134413427
:1057100002340434083410342034413441347F34AA
:10572000003400340434023401340234043440348C
:1057300040344034403440340034013402340434C2
:105740000034203454345434543478347F3448345E
:1057500044344434383438344434443444342034C5
:1057600038344434443448347F3438345434543432
:105770005434183408347E34093401340234083483
:105780001434543454343C347F34083404340434F2
:105790007834003444347D34403400342034403490
:1057A00044343D34003400347F34103428344434DD
:1057B000003441347F34403400347C3404341834B1
:1057C000043478347C340834043404347834383481
:1057D00044344434443438347C341434143414346D
:1057E000083408341434143418347C347C340834C9
:1057F0000434043408344834543454345434203495
:1058000004343F344434403420343C344034403455
:1058100020347C341C342034403420341C343C3458
:105820004034303440343C34443428341034283448
:1058300044340C345034503450343C3444346434A4
:1058400054344C3444340034083436344134003455
:10585000003400347F3400340034003441343634B2
:1058600008340034083408342A341C34083408342A
:105870001C342A34083408340034633400344F3480
:105880005634453452344C344F344134443400346B
:105890002034203420342034203420342034203468
:1058A0000034203420342034203420342034203478
:1058B0002034003420342034203420342034203468
:1058C0002034203400345334573452343D3420349F
:1058D0002034203420340034203420342034203448
:1058E00020342034203420340034103427344F3412
:1058F0005634453452344C344F34413444340034FB
:105900005334573452343D3430342E343034303400
:1059100000345034573452343D3430342E34303423
:1059200057340034203420342034203420342034C0
:10593000203420342034203400342E3400344334D6
:105940003D34203420342034303470344634003434
:105950004C343D3430342E343034303475344834A3
:10596000003446345734203476346534723420346D
:1059700032342E34353400340C3410340E340D34BB
:1059800012340B3410341334463457342034763404
:1059900065347234203432342E34353400346D346E
:1059A00069346E346934203462346F346134723453
:1059B000643400344134543455342D34313430346B
:1059C000303400345034573452343D3430342E3473
:1059D0003034573400342034203420342034203400
:1059E0002034203420342034203400342034203437
:1059F0002034203420342034203420340034413406
:105A0000543455342D34313430343034003420346F
:105A100020342034203420342034203420342034E6
:105A200020340034203420342034203420342034F6
:105A300020342034003443343D3420342034303496
:105A40007034463400344C343D3430342E343034E9
:105A50007534483400345334573452343D34303480
:105A60002E343034303400342E34003443343D345A
:105A700020342034203430347034463400344C34F4
:105A80003D3430342E3430343034753448340034BE
:105A9000003400344C343D3420342034203420345D
:105AA000753448340034FD344C343D3420342034D3
:105AB000203420347534483400344C343D342034A0
:105AC0002034203475344834003443343D34203499
:105AD00020342034203470344634003400344334CD
