:10000000A8312D28FF3F28006308003A0319212852
:1000100021000D170630FD00FD0B0C2800008D1788
:100020000630FD00FD0B122800008D130630FD0088
:10003000FD0B182800000D130630FD00FD0B1E28D7
:100040000000080028006308003A03195C28F10149
:100050007108073C031C49282A00C31B32282100D1
:100060008D13342821008D170630FD00FD0B362836
:1000700000000D170630FD00FD0B3C2800000D139D
:100080000630FD00FD0B422800002A00C335F10AAE
:10009000282821008D170630FD00FD0B4D2800009B
:1000A0000D170630FD00FD0B532800000D13063020
:1000B000FD00FD0B59280000080020002230FC0044
:1000C000F801F901FA01FB01FC030319922803105E
:1000D000FB0CFA0CF90CF80CF30CF20CF10CF00C14
:1000E000031C6428FC03031984287408F8077508A6
:1000F0000318750FF90776080318760FFA077708C3
:100100000318770FFB0768287408F80775080318A9
:10011000750FF90776080318760FFA0777080318A2
:10012000770FFB07080020007008F100F00108308D
:10013000FC007108F40C0318A128FC0B9A28F101AB
:1001400000340310A628F40C0318F107F10CF00C8E
:10015000FC0BA32808007B15FB1FB5280130F3001A
:10016000F201F101F001FA0DF20CFF300800F2018A
:10017000F101F001F801F30100300800FA1FF21359
:10018000003008002000F801F9011030FC00710D6A
:10019000F80DF90D7408F8027508031C750FF902C3
:1001A0000318D9287408F80775080318750FF9079C
:1001B0000310F00DF10DFC0BC728080028006F0894
:1001C0002A003F07C2000320280063082A00C3005A
:1001D00022202A00C30122202A003E08B03EC3008C
:1001E00022202A0042080F3C031CFA284208C000C3
:1001F000C1010B294208F200F236F236F236F2362D
:100200007208C1007208F000F035F035F035F035B5
:1002100070084202C0004008C30022202A004108A2
:10022000103EC30022200320280063082A00C300D8
:10023000222040302A00C300222008002800630842
:10024000003A0319362921008D130630FD00FD0BFD
:10025000272900000D170630FD00FD0B2D29000099
:100260008D170630FD00FD0B332900000800A101A9
:100270007208031D4C297108F2007008F100F001AA
:10028000A1157208031D4C297108F200F101A1119A
:100290002116720803195A292108F302031D031CB1
:1002A0005E290310F21B6229F00DF10DF20DF30B24
:1002B00052295E290130FC00B72065290230FC007C
:1002C000AB2065290430FC00BE200800FB14FB1F96
:1002D0007029FF30F300F200F100F000FA0DF20C8B
:1002E000FF3008002A00B5012800EC010130EB00C6
:1002F0002A003408B500B535B535B535B535280013
:1003000066080319862908302A00B50728006B08FB
:1003100003198D2904302A00B50728006C08031939
:10032000942902302A00B5072900200803199A29C8
:100330002A00B50A0320280063082A00C3002220EF
:100340002A003508C30022201E210630FC00303070
:10035000FD00FD0BA929FC0BA929000004302A008F
:10036000B5020320280063082A00C30022202A00C7
:100370003508C30022201E210630FC003030FD006D
:10038000FD0BC029FC0BC029000008001D30FD003A
:10039000FD0BC82908007B14FB1FD629F201FA1FA8
:1003A000FF30F200F100F000FA0DF20CFF3008000F
:1003B000A0302A00B6000F30B700B801B901A03054
:1003C000F0000F30F1000030F2000030F30034088C
:1003D000F4003508F500F601F7015D2070082A00E9
:1003E000B6007108B7007208B8007308B900003091
:1003F0007302031D052A00307202031D052A023014
:100400007102031D052AB23070020318082A372A28
:10041000B230B6020230B73B0030B83BB93B0530D2
:10042000F000700803191A2AB936B80CB70CB60CCC
:10043000FF3E122A3608F0003708F1003808F200B3
:100440003908F3000130B6020030B73BB83BB93B86
:1004500070087104720473040319372A0000000045
:100460000000000000000000000000001A2A080040
:100470002A00B801053038020318482A3808360720
:1004800086000030373D870020308100B80A3A2AC4
:100490003808360786000030373D87008101B803F1
:1004A00038083607B9000030373DBA000A30F4008A
:1004B000F5013408F0003508F100C2207808F0009A
:1004C0007908F1003030F0072A00390886003A0830
:1004D0008700700881000A30F400F5013408F0004C
:1004E0003508F100C22070082A00B4007108B50078
:1004F00000307106031D7E2A00307006031D812A1C
:10050000832AB803502A08000320280063082A0021
:10051000C300222040302A00C30022202A003508D0
:10052000BE003408BF00DE202A00B90138083902B5
:1005300003184A2B3908360784000030373D850000
:100540000008003A031DA62ABB01AF2A3908360766
:1005500084000030373D850020300002BB00BA0126
:100560003A08043C031C422B3B08F0000530F40021
:1005700093202A003A08F0070030F13D96307007CA
:100580008400A930713D85000008BC003508023A9E
:10059000013003190030F1003508043A0130031925
:1005A0000030F0007008F1053508063A01300319F3
:1005B0000030F0007108F0050319072BBC19E22A7E
:1005C000BD13E32ABD17BC19E72A3D13E82A3D17DE
:1005D0003C19EC2ABD12ED2ABD163C19F12A3D1238
:1005E000F22A3D16BC18F62ABD11F72ABD15BC1813
:1005F000FB2A3D11FC2A3D153C18002BBD10012B98
:10060000BD143C18052B3D10062B3D14272B3C191F
:100610000B2BBD130C2BBD173C19102B3D13112BAD
:100620003D17BC18152BBD12162BBD16BC181A2B66
:100630003D121B2B3D163C181F2BBD11202BBD1549
:100640003C18242B3D11252B3D15BD103D103D08B8
:10065000C300222028006D08043A0130031D003039
:10066000F1006D08053A0130031D0030F0007108FB
:10067000F00403193F2B2A003D08C30022202A0062
:10068000BA0AB02AC30122202A00C30122202A006C
:10069000B90A962A350ABE003408BF00DE202A00B7
:1006A000B9013808390203180D2C390836078400BF
:1006B0000030373D85000008003A031D612BBB0167
:1006C0006A2B3908360784000030373D850020301A
:1006D0000002BB00BA013A08043C031C052C3B088D
:1006E000F0000530F40093202A003A08F0070030AB
:1006F000F13D963070078400A930713D85000008F7
:10070000BC003508023A013003190030F100350809
:10071000043A013003190030F0007008F105350883
:10072000063A013003190030F0007108F005031992
:10073000C22BBC1B9D2BBD139E2BBD17BC1BA22B1C
:100740003D13A32B3D173C1BA72BBD12A82BBD1699
:100750003C1BAC2B3D12AD2B3D16BC1AB12BBD1171
:10076000B22BBD15BC1AB62B3D11B72B3D153C1A4B
:10077000BB2BBD10BC2BBD143C1AC02B3D10C12B94
:100780003D14EA2B3C1BC62BBD13C72BBD173C1BCE
:10079000CB2B3D13CC2B3D17BC1AD02BBD12D12B2C
:1007A000BD16BC1AD52B3D12D62B3D163C1ADA2BA2
:1007B000BD11DB2BBD153C1ADF2B3D11E02B3D1588
:1007C000BC19E42BBD10E52BBD14BC19E92B3D1061
:1007D000EA2B3D143D08C300222028006D08043A8E
:1007E0000130031D0030F1006D08053A0130031D92
:1007F0000030F0007108F0040319022C2A003D08B3
:10080000C30022202A00BA0A6B2BC30122202A002F
:10081000C30122202A00B90A512B1E210800200002
:100820007008F8007108F000F101F201F301FB011A
:10083000FC019630F300FA017008F1007808F0002E
:10084000F801F201372108002000FB0173080319A9
:10085000602C7208FA00F2178E30F302F31F632C3B
:10086000F309F30A08307302031C462CF300F10D60
:100870007208F100F20108307302031C462CF300E9
:10088000F10DF1017308031D03104E2C73080319B9
:100890004E2C0310F20CF10CF30B492C7B1B711C3A
:1008A000582C031C582CF10A0319F20AF21B6F2C66
:1008B000FA1F722CF209F109F10A0319F20A722CDB
:1008C000F201F101722C7B14FB1F752CF201FA1F4F
:1008D000752CFF30F200F100FA0DF20C752C01308E
:1008E000FC00772C0030FC00772CFF30FC00FC086B
:1008F00003197B2CCB217108F0007208F10008006D
:100900002A00B001B1012A08B2002B08B3008030E0
:100910002B06F00080307002031D902C00302A025C
:1009200003189E2C0130B0000030B1002A08003CB2
:10093000B2002B08031C013EB301B3023208B4001D
:100940003308B5002C08B6002D08B7003822063051
:10095000AE000030AF002F08003C031DB12C2E0864
:10096000003C0318CC2C2E082C0786002F082D3DA8
:10097000870001302E02F00000302F3BF10070089C
:100980002C07840071082D3D85000008810001308E
:10099000AE020030AF3BAB2C2C0886002D08870040
:1009A00020308100300831040319F22CAE01AF0170
:1009B0002E082C0784002F082D3D85000008203AC2
:1009C000031DE62CAE0A0319AF0AD82C0130AE0283
:1009D0000030AF3B2E082C0786002F082D3D8700E6
:1009E0002D30810008002000FB017308031D7708EB
:1009F0000319492D72087606FA007708F3077E304E
:100A0000031C062DF30203184C2D092DF302031CC1
:100A10004F2D7208F8007108FC007008FD00F817EF
:100A2000F6170310F201F101F0011830A1007D1C4E
:100A3000232D7408F00775080318750FF107760861
:100A40000318760FF207F20CF10CF00CF80CFC0C0A
:100A5000FD0C0310A10B172DF21B332DF80DF00D1B
:100A6000F10DF20DF3037B1B701C452DF81F452D76
:100A7000F00A0319F10A0319F20A031D452DF20CBD
:100A8000F10CF00CF30A03194C2DFA1FF21300308D
:100A9000512D0130B720512D02306621512D0430E7
:100AA000AB200000080028006D08043A0130031D47
:100AB0000030F1006D08053A0130031D0030F000F0
:100AC0007108F0040319712D2A002B08B4002A08BC
:100AD000B5002C08B6002D08B7002E08B8008422F7
:100AE000CB2D28006D08023A0130031D0030F100C3
:100AF0006D08033A0130031D0030F0007108F00466
:100B00000319972D0730F0002A002B08F4009320DA
:100B1000043070072A00B4002A08B500B5352C0847
:100B2000B6002D08B7002E08B8008422CB2D29006E
:100B3000A0012A002A08F000F035F0357008083EC0
:100B4000B40072212A002B08B40072210130290060
:100B5000A0002A00AF012E082F020318CB2D2F086A
:100B60002C07840000302D3D85000008F10071083D
:100B7000B400B436B436B436B43672212A002F0825
:100B80002C07840000302D3D85000008B400722140
:100B90002A00AF0AAB2D08002A002A18D22D220005
:100BA0008E10D42D22008E142A00AA18DA2D2200CD
:100BB0000E11DC2D22000E152A002A19E22D22002A
:100BC0008E11E42D22008E152A00AA19EA2D22008A
:100BD0000E12EC2D22000E162A002A1AF22D2200E7
:100BE0008E12F42D22008E16290025082A00B4004A
:100BF000290026082A00B500D821080083302100EA
:100C00009D052A002A08F000F035F0357008210013
:100C10009D04C6219D149D1C0E2E0B2E1C08F10058
:100C2000F0011B08F0040030F10408007C184C2E81
:100C3000FC181D2E7C196B2E162EA1017208031DA7
:100C40003D2E7108F2007008F1007808F000F801FC
:100C5000A1157208031D3D2E7108F2007008F10005
:100C6000F001A11121167208031D3D2E7108F2003A
:100C7000F101A115720803195F2E2108F302031D6B
:100C8000031C632E0310F21B4C2EF80DF00DF10D1A
:100C9000F20DF30B432E632E7B1B701C672EF81F87
:100CA000672EF00A0319F10A0319F20A031D672ED1
:100CB000F20CF10CF00CF30A03196B2E672E0130C5
:100CC000FC00B7206E2E0230FC00AB206E2E0430EC
:100CD000FC00BE206E2E0830FC00662100000800DB
:100CE0002A002A18762E22008D10782E22008D14CC
:100CF0002A00AA187E2E22000D11802E22000D152A
:100D00002A002A19862E22000C11882E22000C158A
:100D10002A00AA198E2E22000C12902E22000C16E8
:100D20002A002A1A962E22008C12982E22008C1647
:100D3000290025082A00B400290026082A00B50049
:100D4000D82108002000FB01FA01F9018030F800E9
:100D5000F10CF00C031CB52E7408F9077508031884
:100D6000750FFA070318FB0A0310F01FBD2E740855
:100D7000FA0775080318750FFB07FB0CFA0CF90C42
:100D8000F80C031CA82E7B08F3007A08F2007908FF
:100D9000F1007808F0000800FB15FF300800740827
:100DA000F8027508031C750FF9027608031C760F0C
:100DB000FA027708031C770FFB02F30D0730FC00E3
:100DC000730DF80DF90DFA0DFB0D7408731CF62E5A
:100DD000F8027508031C750FF9027608031C760FDC
:100DE000FA027708031C770FFB02032FF807750838
:100DF0000318750FF90776080318760FFA077708B6
:100E00000318770FFB07F30DFC0BE02E720DF80DA6
:100E1000F90DFA0DFB0D7408731C1C2FF8027508F0
:100E2000031C750FF9027608031C760FFA02770887
:100E3000031C770FFB02292FF80775080318750F9D
:100E4000F90776080318760FFA0777080318770F63
:100E5000FB07F20D0730FC00720DF80DF90DFA0DCD
:100E6000FB0D7408721C422FF8027508031C750FE5
:100E7000F9027608031C760FFA027708031C770F35
:100E8000FB024F2FF80775080318750FF90776084E
:100E90000318760FFA0777080318770FFB07F20D90
:100EA000FC0B2C2F710DF80DF90DFA0DFB0D7408CC
:100EB000721C682FF8027508031C750FF90276087A
:100EC000031C760FFA027708031C770FFB02752FBD
:100ED000F80775080318750FF90776080318760FD9
:100EE000FA0777080318770FFB07F10D0730FC00AE
:100EF000710DF80DF90DFA0DFB0D7408711C8E2F94
:100F0000F8027508031C750FF9027608031C760FAA
:100F1000FA027708031C770FFB029B2FF80775086E
:100F20000318750FF90776080318760FFA07770884
:100F30000318770FFB07F10DFC0B782F700DF80DE0
:100F4000F90DFA0DFB0D7408711CB42FF802750829
:100F5000031C750FF9027608031C760FFA02770856
:100F6000031C770FFB02C12FF80775080318750FD4
:100F7000F90776080318760FFA0777080318770F32
:100F8000FB07F00D0730FC00700DF80DF90DFA0DA0
:100F9000FB0D7408701CDA2FF8027508031C750F1E
:100FA000F9027608031C760FFA027708031C770F04
:100FB000FB02E72FF80775080318750FF907760885
:100FC0000318760FFA0777080318770FFB07F00D61
:100FD000FC0BC42F7018FA2F7408F8077508031853
:100FE000750FF90776080318760FFA0777080318C4
:100FF000770FFB070800543455344E344534003421
:10100000FB09FA09F909F809F80A0319F90A031999
:10101000FA0A0319FB0A08002A002808F000290828
:10102000F1000330F4000030F5008031A226883151
:1010300070082A00A8007108A9008030F2008030F2
:1010400071067202031D26287008503C031C2B28D1
:10105000F001F101FE288030F00080302906700296
:10106000031D34282808AB3C031C3B28F430A80798
:101070000030A93DFA288030013AF000803029067E
:101080007002031D45282808483C031C4C28FE30EC
:10109000A8070030A93DFA288030023AF0008030DD
:1010A00029067002031D56282808463C031C5D28AB
:1010B0001830A8070130A93DFA288030033AF00023
:1010C000803029067002031D67282808343C031C61
:1010D0006E282930A8070130A93DFA288030043A4B
:1010E000F000803029067002031D782828084C3C47
:1010F000031C7F283630A8070130A93DFA2880302C
:10110000083AF000803029067002031D892828085B
:10111000853C031C9028AE30A8070130A93DFA2871
:1011200080300C3AF000803029067002031D9A28A6
:101130002808FA3C031CA128E430A8070130A93D87
:10114000FA288030123AF000803029067002031D20
:10115000AB2828080F3C031CB2281230A807023025
:10116000A93DFA288030163AF00080302906700236
:10117000031DBC282808E63C031CC3288830A807A8
:101180000230A93DFA2880301B3AF0008030290651
:101190007002031DCD282808EA3C031CD428E73040
:1011A000A8070230A93DFA288030213AF0008030AB
:1011B00029067002031DDE282808363C031CE5289A
:1011C0003430A8070330A93DFA288030293AF000CE
:1011D000803029067002031DEF282808043C031CF8
:1011E000F6288430A8070330A93DFA285230A80712
:1011F0000330A93D2808F0002908F100080001305B
:101200002A00AA008031FE25883180310F248831E0
:101210008930F4004130F5001C30F6008130F700D1
:101220008031F32488318031242488310800200063
:101230007008F8007108F000F101F201F301FB0100
:10124000FC019630F300FA01F01F2C29F809F0098F
:10125000F80A0319F00AFA177008F1007808F0008C
:10126000F801F20180313721883108002A00AA01F3
:101270008031FE25883180310F2488318930F40097
:101280004130F5001C30F6008130F7008031F32446
:10129000883180312424883108007408003A031D05
:1012A00066297508003A031D66297608003A031D71
:1012B00066297708003A031D6629FF30F000FF30E9
:1012C000F100FF30F2007F30F300002A2000FC0123
:1012D000F71BFC0AFD01FB01FA01F901F801730893
:1012E0007204710470040319FB2973087706A000C7
:1012F000A01BFD09F71F8729F409F509F609F7096D
:10130000F40A0319F50A0319F60A0319F70AF31F79
:101310009429F009F109F209F309F00A0319F10A15
:101320000319F20A0319F30A73087704A000A01B3B
:10133000B7298031CF268831FC1BD429FD1FFB291A
:10134000F009F109F209F309F00A0319F10A031986
:10135000F20A0319F30AF809F909FA09FB09F80A6C
:101360000319F90A0319FA0A0319FB0AFB29F71FE3
:10137000CE29F31BC8297308FB007208FA00710814
:10138000F9007008F800F301F201F101F0019E2963
:10139000F301F201F101F001F00A0034F309F2095E
:1013A000F109F009FC179929F80A0319F90A031938
:1013B000FA0A0319FB0A74087802031D9E297508AE
:1013C0007902031D9E2976087A02031D9E2977085B
:1013D0007B02031D9E29FB01FA01F901F801F00AC5
:1013E0000319F10A0319F20A0319F30AF31F9E29DC
:1013F000A0012016FF34A0017C1CFF290020003E24
:1014000008002A0028082300910092012A002908D8
:10141000230093001513951315150B08F0008B137B
:1014200055309600AA3096009514F01B192A8B139C
:101430001A2A8B171511951C1E2A1B2A080020003A
:1014400072087606A100F801F90173087702031CFF
:10145000412A7708FD007308F7007D08F30076083D
:10146000FD007208F6007D08F2007508FD007108A5
:10147000F5007D08F1007408FD007008F4007D0897
:10148000F00077080319C22A7208FA00F217F6175B
:1014900077087302F7000319742A08307702031CD7
:1014A0006A2AF7007408F9007508F4007608F50058
:1014B000F60108307702031C6A2AF7007408F90065
:1014C0007508F400F50108307702031C6A2A7A08CF
:1014D000F200C22A77080319742A0310F60CF50CDF
:1014E000F40CF90CF70B6D2AA11F812AF909F409F4
:1014F000F509F609F90A0319F40A0319F50A03199B
:10150000F60A7908F80774080318740FF0077508CD
:101510000318750FF10776080318760FF207A11B61
:101520009A2A031CAA2AF20CF10CF00CF80CF30F07
:10153000AA2ABC2A0318B02AF809F009F109F2090D
:10154000F80A0319F00A0319F10A0319F20A8030A4
:10155000FA06B62A0130FC00803116268831C42AEA
:101560000230FC00803116268831C42A0430FC0089
:10157000803137218831C42A0830FC00803166214F
:101580008831C42A0030FC00000008007408003ACA
:10159000031DDF2A7508003A031DDF2A7608003A8A
:1015A000031DDF2A7708003A031DDF2AFF30F00011
:1015B000FF30F1007F30F200FF30F300812B20007C
:1015C000770803196D2B73080319722B72087606BE
:1015D0008039FA00F217F617A1017208F8007108B5
:1015E000FC007008FD007408FD027508031C750FEF
:1015F000FC027608031C760FF802F801FC01FD01DD
:10160000031C092B0310F20CF10CF00CF80C013048
:10161000A1007708F302031C132B7E302107F30788
:101620000318772B182B7E302107F307031C7C2B24
:101630001830FA07FD0DFC0DF80DF00DF10DF20D4F
:10164000A10D7408F0027508031C750FF1027608ED
:10165000031C760FF202760DA104211C312B7D14A0
:101660003C2B7408F00775080318750FF10776080E
:101670000318760AF2077D10FA031F307A05031D5E
:101680001A2B7B1B7D1C632B0310F00DF10DF20D4B
:10169000A10D7408F0027508031C750FF10276089D
:1016A000031C760FF202760D21040139FD070318A1
:1016B000FC0A0319F80A031D632BF80CFC0CFD0C43
:1016C000F30A0319772BFA1FF8137808F2007C0845
:1016D000F1007D08F0000030802B01308031CC26F5
:1016E0008831802B02308031B7208831802B043044
:1016F000803166218831802B08308031AB208831E1
:10170000000008002800E1012600B4012A00AA0117
:10171000803170268831260034082A00AA008031E2
:10172000CC258831290025082A00B4002900260884
:101730002A00B5008031D821883108000330FC0030
:101740009530FD00FD0BA22BFC0BA22B08006400C2
:10175000280061086206013003190030F1004E08CC
:101760003A06013003190030F0007108F004031943
:10177000F52C6108E2002900BE01BF012800611CB0
:10178000C62B29004008BE074108BF3D2800E11CC8
:10179000CE2B29004A08BE074B08BF3D2800611D1B
:1017A000D62B29004408BE074508BF3D2800E11D8F
:1017B000DE2B29004808BE074908BF3D2800611EEE
:1017C000E62B29004608BE074708BF3D29003D0813
:1017D000003A013003190030F1003D08013A0130B0
:1017E00003190030F0007108F00503198E2C3E0833
:1017F0002A00AA0029003F082A00AB00AE30AC0046
:101800000430AD0080318024883129003008203A2E
:1018100003190D2C3008A7000F2C3030A7002E30F4
:10182000A8003108203A0319182C3108A9001A2CF5
:101830003030A9003208203A0319212C3208AA00BE
:10184000232C3030AA003D08043A0130031D00303B
:10185000F1003D08053A0130031D0030F000710829
:10186000F0040319612C28004E08013A031D3C2C9A
:1018700004302A00A8003F2C2A000630A8002800C7
:101880004E083A060319522C2A002808AA001030E4
:10189000AB004530AC000430AD000830AE00803104
:1018A000532588312A002808AA002830AB00A73029
:1018B000AC000430AD000430AE00803153258831D7
:1018C0008D2C28004E08013A031D692C2A00A8011E
:1018D0006C2C2A000130A80028004E083A06031993
:1018E0007F2C2A002808AA000930AB003C30AC004D
:1018F0000430AD000830AE008031532588312A0015
:101900002808AA000B30AB00A730AC000430AD00B3
:101910000430AE00803153258831F52C29003D0874
:10192000003A0319F52C4008F0004108F100F137A6
:10193000F00CF11FA02C031CA02CF00A0319F10AD3
:101940003E08F0073F08F13D7008BE007108BF0077
:1019500070082A00AA007108AB00AE30AC00043059
:10196000AD0080318024883129003008203A0319E5
:10197000BC2C3008A700BE2C3030A7002E30A800A9
:101980003108203A0319C72C3108A900C92C30307E
:10199000A90028004E08013A031DD12C2A00A801F5
:1019A000D42C2A000130A80028004E083A0603195A
:1019B000E72C2A002808AA000930AB003230AC001E
:1019C0000430AD000730AE008031532588312A0045
:1019D0002808AA000B30AB00A730AC000430AD00E3
:1019E0000330AE00803153258831260034082800AA
:1019F0003B06013003190030F1004E083A06013071
:101A000003190030F0007108F00403190B2E2600B2
:101A100034082800BB002900BE01BF012600341C89
:101A2000162D29004208BE074308BF3D2600B41CFE
:101A30001E2D29004E08BE074F08BF3D2600341D4D
:101A4000262D29005208BE075308BF3D2600B41DAD
:101A50002E2D29005008BE075108BF3D2600341E18
:101A6000362D29004C08BE074D08BF3D29003D0812
:101A7000003A013003190030F1003D08013A01300D
:101A800003190030F0007108F0050319C92D3E0854
:101A90002A00AA0029003F082A00AB00AE30AC00A3
:101AA0000430AD0080318024883129003008A7003F
:101AB0003108A8003208A9003308AA003D08043AFA
:101AC0000130031D0030F1003D08053A0130031DCF
:101AD0000030F0007108F00403199C2D28004E0816
:101AE000013A031D772D06302A00A8007A2D2A001E
:101AF0000430A80028004E083A0603198D2D2A004C
:101B00002808AA001030AB005830AC000430AD00FB
:101B10000830AE008031532588312A002808AA00F9
:101B20002830AB00A730AC000430AD000430AE006C
:101B3000803153258831C82D28004E08013A031DF5
:101B4000A52D01302A00A800A72D2A00A8012800F1
:101B50004E083A060319BA2D2A002808AA000930AF
:101B6000AB004F30AC000430AD000830AE00803127
:101B7000532588312A002808AA000B30AB00A73073
:101B8000AC000430AD000430AE0080315325883104
:101B90000B2E29003E082A00AA0029003F082A002F
:101BA000AB00AE30AC000430AD0080318024883111
:101BB00029003108A7003208A8003308A90028002E
:101BC0004E08013A031DE82D01302A00A800EA2D35
:101BD0002A00A80128004E083A060319FD2D2A0004
:101BE0002808AA000930AB005D30AC000130AD0020
:101BF0000730AE008031532588312A002808AA001A
:101C00000B30AB00A730AC000430AD000330AE00A9
:101C1000803153258831640028004E08BA0027001F
:101C20003008003A031DA92E29003D08043A01306E
:101C3000031D0030F1003D08053A0130031D00305E
:101C4000F0007108F0040319652E22005C080130D1
:101C5000031D0030F00027002908F00503193E2E6F
:101C60002A00AA017030AB005A30AC000130AD0040
:101C70000130AE00803153258831642E27002908B9
:101C80000130031D0030F00022005C08F00503194C
:101C9000572E2A00AA017030AB006930AC00013029
:101CA000AD000130AE00803153258831642E2A000A
:101CB000AA017030AB006730AC000130AD000130DC
:101CC000AE00803153258831A92E29003D08003A05
:101CD0000319A92E22005C080130031D0030F0001A
:101CE00027002908F0050319832E2A00AA010830CD
:101CF000AB006530AC000130AD000130AE0080318A
:101D000053258831A92E270029080130031D0030F2
:101D1000F00022005C08F00503199C2E2A00AA019D
:101D20000830AB005830AC000130AD000130AE00DF
:101D3000803153258831A92E2A00AA010830AB0032
:101D4000EE30AC000030AD000130AE0080315325E4
:101D500088316400080029006C0821002106031D59
:101D6000B42E200829006B0603193B2F29006B08AD
:101D70002100A00029006C082100A100803029006A
:101D80006C06F00080307002031DC82E64306B02B8
:101D9000031CE82E05306B07F00000306C3DF100AD
:101DA0007008EB007108EC0070082A00AA007108A6
:101DB000AB00AE30AC000430AD00803180248831FF
:101DC00029003008A7003108A8003208A9000B2F0D
:101DD0006B082A00AA0029006C082A00AB00AE306C
:101DE000AC000430AD0080318024883129003208F5
:101DF000203A0319FE2E3208A700002F3030A7002A
:101E00002E30A8003308203A0319092F3308A900FF
:101E10000B2F3030A9003D08043A0130031D00307B
:101E2000F1003D08053A0130031D0030F000710853
:101E3000F0040319292F2A00AA014030AB00A73073
:101E4000AC000430AD000330AE0080315325883142
:101E50003B2F29003D08003A03193B2F2A00AA0115
:101E60000430AB00A730AC000430AD000330AE004E
:101E700080315325883108008223FF30A800A90152
:101E80000122FE302A00A800A9010122FD302A000B
:101E9000A800A9010122A72329003D08003A031D3B
:101EA000542F22000D178D1722008C138C150E1045
:101EB0000E138E132900B701B801B901BA0127002A
:101EC000AB01AC0129003D08043A0130031D00308C
:101ED000F1003D08053A0130031D0030F0007108A3
:101EE000F0040319AD2F02302A00AA001030AB0015
:101EF000B230AC000130AD000830AE008031532567
:101F0000883164000D30FB002D30FC00D730FD001F
:101F1000FD0B882FFC0B882FFB0B882F0000000087
:101F200002302A00AA001030AB00A930AC0001300A
:101F3000AD000830AE008031532588312A00AA0157
:101F40001030AB00A030AC000130AD000830AE0066
:101F50008031532588316400E82F29003D08003A7C
:101F60000319E82F01302A00AA00AB01CD30AC00E4
:101F70000130AD000830AE00803153258831640057
:101F80000D30FB002D30FC00D730FD00FD0BC62FBF
:101F9000FC0BC62FFB0BC62F0000000001302A00EF
:101FA000AA00AB01C430AC000130AD000830AE0077
:101FB0008031532588312A00AA01AB01BB30AC0027
:101FC0000130AD000830AE00803153258831640007
:101FD000080029005E18EF2F22000C13F12F2200B9
:101FE0000C17290025082A00B400290026082A0019
:101FF000B5008031D8218831080001342E340034F6
:102000002A00A10129006D08F1000130F0007108DB
:1020100003190D28F035FF3E082870082A00A0009B
:1020200029006B0884006C08850070080005F10029
:1020300071080130031D0030F0006F08F00603192D
:1020400042286E08003C03182D2888319E239031C9
:1020500088319E239031EE0321286B0884006C08A0
:1020600085002A0020080005F10071080130031DD9
:102070000030F00029006F08F00603194228FF30F5
:102080002A00A1002A002108F0000800640088311D
:102090003621903170082900EB007108EC00003007
:1020A000EC1BFF30ED00EE008831FF20903170080E
:1020B0002A00A0007108A1000030A11BFF30A2007F
:1020C000A30029006B082A00A80029006C082A0038
:1020D000A90088310C209031883117219031700887
:1020E0002A00A4007108A5007208A6007308A700C2
:1020F00080302306F000803029006E067002031D38
:1021000090286D082A002202031D902829006C08DF
:102110002A002102031D902829006B082A002002B2
:10212000031C9A28E7302900EB000330EC00ED0196
:10213000EE01EE282A00200829006B07F0002A0093
:10214000210829006C3DF1002A00220829006D3D7C
:10215000F2002A00230829006E3DF3006430F400E9
:10216000F501F601F70180315D20903129006B08FF
:10217000F4006C08F5006D08F6006E08F7002A0000
:102180002008F4022108F53B2208F63B2308F73B20
:1021900088314D21903170082900EB007108EC0066
:1021A0007208ED007308EE008030F4008030730692
:1021B0007402031DE5287208003C031DE528710820
:1021C000033C031DE5287008E73C0318EE282900AE
:1021D000E730EB000330EC00ED01EE012A002408AB
:1021E000F0002508F1002608F2002708F30000306F
:1021F000F4000030F5002030F6008230F700803126
:10220000F32490310030F4000030F5007A30F6000D
:102210008830F7008831C622903170082A00A40067
:102220007108A5007208A6007308A700F430F40036
:10223000FD30F5003430F6007F30F7008831C622DB
:10224000903170082A00A4007108A5007208A60049
:102250007308A7007008F4007108F5007208F60012
:102260007308F7008031F32490310030F40000301F
:10227000F5002030F6008130F7008831C622903119
:1022800070082A00A4007108A5007208A60073084F
:10229000A7000030F4000030F5000030F6007E307A
:1022A000F70088311F22903170082A00A4007108BD
:1022B000A5007208A6007308A7008031242490317D
:1022C00070082900B9007108BA0080307106F20068
:1022D00080307202031D6E290A30700203187529BE
:1022E0000130B7000030B800912980306E06F00050
:1022F00080307002031D862900306D02031D86297F
:1023000000306C02031D862964306B0203188D298E
:10231000E730B7000330B80091296B08B7006C08AC
:10232000B8000800710DF80DF90D7408F802750871
:10233000031C750FF902F00DF10D0F30FC00710D4B
:10234000F80DF90D7408701CAB29F8027508031C10
:10235000750FF902B029F80775080318750FF9070A
:10236000F00DF10DFC0B9F297018BC297408F807BB
:1023700075080318750FF907000008007408003A83
:10238000031DCB297508003A031DCB29FF30F0004F
:102390007F30F100232A2000FD01F901F8017108C6
:1023A00070040319003471087506FA00FA1BFD0960
:1023B000FB01F51FE029F409F509F40A0319F50AF0
:1023C000F11FE729F009F109F00A0319F10A710870
:1023D0007504FA00FA1BFC2992217B180F2AFD1FB5
:1023E0000034F009F109F00A0319F10AF809F909B2
:1023F000F80A0319F90A0034F51F0B2AF11B072A02
:102400007108F9007008F800F101F001EF29F101FD
:10241000F001F00A0034F109F009FB0AEC29F80A8E
:102420000319F90A74087802031DEF297508790267
:10243000031DEF29F901F801F00A0319F10AF11F50
:10244000EF290000FF340800462026006408643AA3
:102450000319422AE40A80306306F0008030290024
:102460003A067002031D372A390826006202031853
:10247000412A290039082600E20029003A082600EE
:10248000E300512A2600E40162082900EB0026003F
:1024900063082900EC008831AB2690312600E20168
:1024A000E301803029003A06F200803022067202F1
:1024B000031D5C2A21083902013003180030F200A4
:1024C00080302406F10080303A067102031D6A2A2A
:1024D00039082302013003180030F1008030F00089
:1024E000803024067002031D772A2308003C013047
:1024F00003180030F0007108F0057208F0040319A9
:10250000E02A6400462026006408643A0319A02AE1
:10251000E40A80306306F000803029003A06700239
:10252000031D952A39082600620203189F2A2900F4
:1025300039082600E20029003A082600E300AF2A05
:102540002600E40162082900EB0026006308290048
:10255000EC008831AB2690312600E201E3010D301A
:102560002900EB000030EC00ED010530EE000130F9
:10257000EF00002070080319C02A01302600E50092
:1025800026006508013A0130031D00302900EA00E9
:102590000D30EB000030EC00ED010530EE00EF01F6
:1025A000002029006A08F0050319DF2A88313C273A
:1025B00090312900B701B801F001F101E42A512A54
:1025C0003708F0003808F100080003302900E70060
:1025D0002600B4012A00AA018031CC2590312422A2
:1025E0007008E8007108E9006808B7006908B800D9
:1025F0001430F4000030F5006808F0006908F100BC
:10260000BE21700829006807E5007108693DE600F1
:102610006708E40064081F3C031C602B64082A0060
:10262000AA008031CC25903124227008B7007108AF
:10263000B80080307106F200803066067202031D19
:10264000232B6508700203185E2B1430F400003051
:10265000F5003708F0003808F100BE2170082900A5
:102660003707E5007108383DE60064082600B4002D
:10267000290067082600B300803029003806F000E2
:1026800080307002031D462B783037020318492B27
:10269000602B67086407F1007108E4007108093ACB
:1026A000031D552B0830E4005D2B6408113A031D0F
:1026B0005D2B1030E4000430E7005F2B602B0A2B09
:1026C000260034082A00AA008031CC259031080069
:1026D0000D302900EB000030EC00ED013230EE004F
:1026E000EF01002070082900DE000D30EB00003003
:1026F000EC000430ED003230EE00EF0100207008F5
:102700002900DE040D30EB000030EC000530ED0058
:102710003230EE00EF01002029005E08F0040319BA
:10272000942B01302700AF000800640029005F08E7
:1027300026002906031D9F2B280829005E06031981
:102740003A2C29005E082600A80029005F08260010
:10275000A900003029005F06031DB02B01305E0682
:10276000031DE82B3D08043A0130031D0030F10041
:102770003D08053A0130031D0030F0007108F004F7
:102780000319D12B02302A00AA004030AB0066307A
:10279000AC000330AD000430AE00803153259031E1
:1027A000E42B29003D08003A0319E42B01302A00EC
:1027B000AA000430AB006B30AC000330AD00043035
:1027C000AE008031532590312600A801A9013A2C92
:1027D00029005E082600A80029005F082600A9003D
:1027E00029005E082A00AA0029005F082A00AB0021
:1027F000AE30AC000430AD0080318024903129002F
:102800003108A7002E30A8003208A9003308AA001A
:102810003D08043A0130031D0030F1003D08053A3F
:102820000130031D0030F0007108F0040319272C5B
:1028300002302A00AA004030AB00A730AC000430C0
:10284000AD000430AE008031532590313A2C290080
:102850003D08003A03193A2C01302A00AA0004303E
:10286000AB00A730AC000430AD000430AE008031C6
:102870005325903164000800260033082900DE004B
:10288000260033083407F10071082900E0007108C0
:102890001F3C03184D2C1F30E0002600340829008F
:1028A0005E020318592C5E08260034022900E1005C
:1028B0005A2CE10161082600B400290061082A00B1
:1028C000AA008031CC25903124227008B70071080D
:1028D000B80000307106031D6F2C00307006031D18
:1028E000722CF12C3708E2003808E300610ADF009F
:1028F0005F086002031CEA2C5F082A00AA008031EE
:10290000CC25903124227008B7007108B80000303F
:102910007106031D8D2C00307006031D902CF12CC8
:1029200080303806F000803063067002031D9A2C58
:1029300062083702031CAB2C3430FC00F130FD0080
:10294000FD0BA02CFC0BA02C000000002422700822
:10295000B7007108B80080303806F0008030630698
:102960007002031DB52C62083702031CC62C3430DC
:10297000FC00F130FD00FD0BBB2CFC0BBB2C000060
:10298000000024227008B7007108B80080303806B3
:10299000F000803063067002031DD02C62083702FD
:1029A0000318E72C3708E2003808E3005F08260028
:1029B000B400803029003806F00080307002031D1A
:1029C000E32C783037020318E62CEA2CE82CEA2CAA
:1029D000DF0A782C260034082A00AA008031CC2592
:1029E0009031080020006F082900DE0020006F08E9
:1029F00028006107F10071082900E00071081F3C00
:102A00000318042D1F30E0002800610829005E0231
:102A10000318102D5E08280061022900E100112D25
:102A2000E10161082800E100290061082A00AA00EC
:102A300080317026903124227008B7007108B800E8
:102A400000307106031D262D00307006031D292D50
:102A5000A82D3708E2003808E300610ADF005F08AC
:102A60006002031CA12D5F082A00AA008031702695
:102A7000903124227008B7007108B8000030710648
:102A8000031D442D00307006031D472DA82D8030F6
:102A90003806F000803063067002031D512D620875
:102AA0003702031C622D3430FC00F130FD00FD0BB9
:102AB000572DFC0B572D0000000024227008B70092
:102AC0007108B80080303806F0008030630670026C
:102AD000031D6C2D62083702031C7D2D3430FC0071
:102AE000F130FD00FD0B722DFC0B722D000000007B
:102AF00024227008B7007108B80080303806F00052
:102B0000803063067002031D872D620837020318A8
:102B10009E2D3708E2003808E3005F082800E10036
:102B2000803029003806F00080307002031D9A2D95
:102B30007830370203189D2DA12D9F2DA12DDF0A7E
:102B40002F2D280061082A00AA00803170269031BC
:102B5000080003302900E300DF0163082000EF00D4
:102B600003302900E0001430F4000030F50037088D
:102B7000F0003808F100BE21700829003707E10095
:102B80007108383DE2006308DE005E081F3C031C4C
:102B9000222E5E082A00AA00803170269031E5229C
:102BA00024227008B7007108B80080307106F20066
:102BB000803062067202031DDF2D61087002031867
:102BC000202E1430F4000030F5003708F0003808EB
:102BD000F100BE21700829003707E1007108383D77
:102BE000E2005E082800E100260034082900DF002A
:102BF00063082000EF00260033082900E000803041
:102C00003806F00080307002031D082E783037023D
:102C100003180B2E222E63085E07F1007108DE00F8
:102C20007108093A031D172E0830DE001F2E5E08BA
:102C3000113A031D1F2E1030DE000430E300212E58
:102C4000222EC52D5F082600B400280061082A0046
:102C5000AA00803170269031260034082A00AA008C
:102C60008031CC259031290060082600B300343033
:102C7000FC00F130FD00FD0B3B2EFC0B3B2E000059
:102C800000000800803103209031280063082A00EA
:102C9000C30080312220903180302A00C30080316F
:102CA00022209031290058082A00C30080312220B8
:102CB000903180311E219031080029005608F00023
:102CC000F036F036F036F0360A30F40080319320DA
:102CD00090310F3029005605F1007108F007080007
:102CE000640029003D08043A0130031D0030F10062
:102CF0003D08053A0130031D0030F0007108F00472
:102D00000319D12E2A00AA011030AB003430AC00D8
:102D10000230AD000830AE008031532590310230D2
:102D20002A00AA001030AB004F30AC000230AD00DA
:102D30000830AE0080315325903104302A00AA00BB
:102D40001030AB004630AC000230AD000830AE00B1
:102D500080315325903106302A00AA001030AB0094
:102D60003D30AC000230AD000830AE00803153255C
:102D70009031270030080130031D0030F000290891
:102D8000F0050319D02E2A00AA017030AB00DD3007
:102D9000AC000230AD000130AE00803153259031DF
:102DA000422F29003D08003A0319422F2A00AA01A8
:102DB000AB01D430AC000230AD000830AE00803141
:102DC0005325903101302A00AA00AB01CB30AC0072
:102DD0000230AD000830AE0080315325903129001B
:102DE0003D08013A031D102F2A00AA010930AB004B
:102DF0002030AC000330AD000730AE0080315325E9
:102E0000903101302A00AA000930AB00E830AC0054
:102E10000230AD000730AE008031532590312B2FAA
:102E20002A00AA010930AB00DF30AC000230AD004F
:102E30000830AE0080315325903101302A00AA00BD
:102E40000930AB00BE30AC000230AD000830AE003F
:102E5000803153259031270030080130031D0030A8
:102E6000F0002908F0050319422F2A00AA010830B2
:102E7000AB006C30AC000230AD000130AE008031F0
:102E80005325903164002800E201BB018831A7235B
:102E900090310800FE302800E7000530E8002A30B5
:102EA000E9000530EA00F03021009E009D011D146C
:102EB000080029005608230091009201951315136C
:102EC00015141308F000080001302900D600592716
:102ED00070082800ED0007302900D6005927700837
:102EE0002800EE0008302900D60059277008280075
:102EF000EF006D08013A0319812F9831D4259031E4
:102F0000F12F01302800E6002900A00103302A003B
:102F1000B4008031722190311A30FC00F830FD008D
:102F2000FD0B902FFC0B902F000003302A00B40003
:102F30008031722190310630FC003030FD00FD0BF5
:102F40009F2FFC0B9F2F000003302A00B40080311C
:102F50007221903102302A00B40080317221903108
:102F600002302A00B40080317221903108302A00EA
:102F7000B4008031722190312A00B4018031722175
:102F8000903108302A00B4008031722190312A003B
:102F9000B40180317221903101302A00B4008031B7
:102FA000722190311A30FC00F830FD00FD0BD62F55
:102FB000FC0BD62F00002A00B40180317221903121
:102FC00006302A00B4008031722190312A00B40109
:102FD0008031722190310C302A00B400803172218E
:102FE0009031080012001E00F003031DF22FF103C0
:102FF000031DF22F0800543455344E344534003448
:103000002900DC01DD0164303B02D90000303C3B8B
:10301000DA00B901BA0101302700AD000030AE007E
:10302000640030080319182828302900DB001B2809
:1030300029007830DB00D8015B08580203187D288E
:1030400027003008003A0130031D0030F100200055
:103050000D182C2876142D2876100D1A31280314FB
:1030600032280310761838280318382876103928A3
:10307000761420008D1A3E2803143F28031076187A
:10308000452803184528761046287614F00176184E
:10309000F00A7108F0050319572890316823983118
:1030A00027002F08013A031D5728AF01522B9031FA
:1030B0004620983180305D06F00080303A0670027C
:1030C000031D642839085C02031871283908DC00E4
:1030D0003A08DD0037082700AD002900380827002E
:1030E000AE001030FC009430FD00FD0B7528FC0B89
:1030F000752800002900D80A1C2864005C08B50067
:103100005D08B60027002D082900DE0027002E08E4
:103110002900DF00903195239831803027002E065A
:10312000F000803029003C067002031D9A283B08FD
:1031300027002D0227000130031C0030F00070082A
:103140002905F50080302C06F30080302E0673022E
:10315000031DAC282D082B02013003180030F300AA
:103160002B082D02F1002C082E3BF20080302900A4
:103170005A06F000803072067002031DC1287108E3
:103180005902013003180030F00070087305F40094
:10319000803027002E06F30080302C067302031DBA
:1031A000D3282B082D02013003180030F3002D081E
:1031B0002B02F1002E082C3BF200803029005A0629
:1031C000F000803072067002031DE8287108590271
:1031D000013003180030F0007308F0057008740423
:1031E000F10027002C08033A031DF828E7302B06CE
:1031F0000130031D0030F0007108F0047508F0057F
:10320000031904290130AA003008003A0130031DD7
:103210000030F10020000D180F29761410297610C7
:103220008D18142903141529031076181B29031867
:103230001B2976101C29761420000D19212903144E
:1032400022290310761828290318282976102929FD
:103250007614F0017618F00A7108F00503193A297E
:1032600090316823983127002F08013A031D3A292D
:10327000AF01522B29003508EB003608EC008831ED
:10328000AB26983127003008003A0130031D00308A
:10329000F10020000D184E2976144F2976108D1854
:1032A000532903145429031076185A2903185A294C
:1032B00076105B29761420000D196029031461290A
:1032C0000310761867290318672976106829761481
:1032D000F0017618F00A7108F00503197929903188
:1032E0006823983127002F08013A031D7929AF017F
:1032F000522B64008030053AF000803029003606F9
:103300007002031D85293508DC3C0318522B3D084B
:10331000043A0130031D0030F1003D08053A013048
:10332000031D0030F0007108F0040319672A023011
:103330002A00AA001030AB00DE30AC000330AD0034
:103340000830AE008031532598310330FB0008303F
:10335000FC007730FD00FD0BAB29FC0BAB29FB0B10
:10336000AB2902302A00AA001030AB00E730AC00D5
:103370000330AD000830AE008031532598310B305A
:10338000FB002630FC005D30FD00FD0BC529FC0B69
:10339000C529FB0BC52900000000640002302A008B
:1033A000AA001030AB002930AC000430AD0008306A
:1033B000AE008031532598310730FB001730FC00F8
:1033C0006A30FD00FD0BE229FC0BE229FB0BE22930
:1033D000000002302A00AA001030AB002030AC0000
:1033E0000430AD000830AE008031532598310B30E9
:1033F000FB002630FC005D30FD00FD0BFD29FC0BC1
:10340000FD29FB0BFD2900000000640002302A00AA
:10341000AA001030AB00BA30AC000330AD00083069
:10342000AE008031532598310730FB001730FC0087
:103430006A30FD00FD0B1A2AFC0B1A2AFB0B1A2A14
:10344000000002302A00AA001030AB00B130AC00FE
:103450000330AD000830AE008031532598310B3079
:10346000FB002630FC005D30FD00FD0B352AFC0B17
:10347000352AFB0B352A00000000640002302A00C8
:10348000AA001030AB00C330AC000330AD000830F0
:10349000AE008031532598310330FB000830FC002A
:1034A0007730FD00FD0B522AFC0B522AFB0B522AEF
:1034B00002302A00AA001030AB00D530AC00033037
:1034C000AD000830AE00803153259831332B2900F0
:1034D0003D08003A0319332B01302A00AA00AB0142
:1034E000CC30AC000330AD000830AE008031532545
:1034F00098310330FB000830FC007730FD00FD0BF5
:103500007F2AFC0B7F2AFB0B7F2A01302A00AA00AE
:10351000AB01A030AC000330AD000830AE0080310C
:10352000532598310B30FB002630FC005D30FD0048
:10353000FD0B982AFC0B982AFB0B982A0000000030
:10354000640001302A00AA00AB013E30AC00033019
:10355000AD000830AE008031532598310730FB00B4
:103560001730FC006A30FD00FD0BB42AFC0BB42AB6
:10357000FB0BB42A000001302A00AA00AB01353051
:10358000AC000330AD000830AE00803153259831D7
:103590000B30FB002630FC005D30FD00FD0BCE2A19
:1035A000FC0BCE2AFB0BCE2A000000006400013089
:1035B0002A00AA00AB014730AC000330AD00083050
:1035C000AE008031532598310730FB001730FC00E6
:1035D0006A30FD00FD0BEA2AFC0BEA2AFB0BEA2A03
:1035E000000001302A00AA00AB015930AC000330C2
:1035F000AD000830AE008031532598310B30FB0010
:103600002630FC005D30FD00FD0B042BFC0B042B71
:10361000FB0B042B00000000640001302A00AA000C
:10362000AB015030AC000330AD000830AE0080314B
:10363000532598310330FB000830FC007730FD0043
:10364000FD0B202BFC0B202BFB0B202B01302A0029
:10365000AA00AB012A30AC000330AD000830AE0048
:103660008031532598310B30FB002630FC005D3053
:10367000FD00FD0B392BFC0B392BFB0B392B00000C
:103680000000640010302600A8002730A9002700A1
:103690002D082900DE0027002E082900DF009031C8
:1036A00095239831080064002600E501E201E3015A
:1036B000E40190312422983180303806F0008030C7
:1036C0007002031D652B6E3037020318682B162D10
:1036D0008831822398318831A72398310230FB004A
:1036E0000430FC00BA30FD00FD0B742BFC0B742B76
:1036F000FB0B742B00009031242298318030380667
:10370000F00080307002031D872B6E3037020318E3
:103710008A2B162D8030F10080302800650671025A
:10372000031D942B64086E3C013003180030F10037
:1037300080306506F0008030290038067002031DD5
:10374000A42B370828006402013003180030F00071
:103750007108F0050319AD2B162D29003708D80084
:103760003808D9009031A925983100302900380651
:10377000031DBC2B00303706031DC22B883182236A
:103780009831162D90312422983180303806F0007F
:1037900080307002031DCE2B783037020318D12BF6
:1037A000162D9031F2249831003029003806031D7F
:1037B000DB2B00303706031DE12B88318223983143
:1037C000162D90312422983180303806F000803058
:1037D0007002031DED2B783037020318F02B162DE5
:1037E00090313C249831003029003806031DFA2B13
:1037F00000303706031D002C883182239831162DA6
:1038000090312422983180303806F00080307002E8
:10381000031D0C2C7830370203180F2C162D803026
:103820003806F10080307102031D182CC8303702B1
:10383000013003180030F10080303806F00080308D
:1038400059067002031D262C580837020130031850
:103850000030F00070087105F30037085802F100DD
:103860003808593BF2008030F00080307206700258
:10387000031D3C2C7108643C013003180030F0003B
:103880007308F0050319452C162D3708D8003808A1
:10389000D900280061082900DA00DB01260034087D
:1038A0002900DC00DD0128004E08013A031D5A2CD6
:1038B000CE015C2C0130CE00883182239831280063
:1038C0004E082900DE008831E92798310230FB00DC
:1038D0000430FC00BA30FD00FD0B6C2CFC0B6C2C92
:1038E000FB0B6C2C0000903124229831803038067C
:1038F000F00080307002031D7F2C783037020318EF
:10390000822C162D9031A9259831003029003806D7
:10391000031D8C2C00303706031D922C8831822326
:103920009831162D90312422983180303806F000DD
:1039300080307002031D9E2C783037020318A12CB2
:10394000162D9031F2249831003029003806031DDD
:10395000AB2C00303706031DB12C883182239831FF
:10396000162D90312422983180303806F0008030B6
:103970007002031DBD2C783037020318C02C162DA1
:1039800090313C249831003029003806031DCA2CA0
:1039900000303706031DD02C883182239831162D34
:1039A00090312422983180303806F0008030700247
:1039B000031DDC2C783037020318DF2C162D8030E5
:1039C0005906F000803038067002031DE92C3708D4
:1039D00058020318152D28004E08013A031DF22C39
:1039E000CE01F42C0130CE004E082900DE008831D3
:1039F000E927983129005A082800E10029005C08CD
:103A00002600B40029005A082A00AA008031702636
:103A10009831260034082A00AA008031CC2598313C
:103A200029005808B7005908B8006400080064006D
:103A300022000E100E138E1329003D08003A031DBC
:103A4000242D22000D178D1729003D08043A01305E
:103A5000031D0030F1003D08053A0130031D003020
:103A6000F0007108F0040319442D02302A00AA0066
:103A70004030AB00E330AC000130AD000430AE00AC
:103A8000803153259831572D29003D08003A0319FC
:103A9000572D01302A00AA000430AB00D630AC000C
:103AA0000130AD000430AE008031532598315323EE
:103AB000FF302A00A800260034082A00A900883117
:103AC00001229831FE302A00A800280061082A004F
:103AD000A900883101229831FD302A00A800280071
:103AE0004E082A00A90088310122983129003D089A
:103AF000003A031D9B2D8030F000803038067002A4
:103B0000031D842D3708963C031C892D22000D13BC
:103B10009B2D8030F0008030290038067002031D94
:103B2000932D3708FA3C031C992D20000D138D139B
:103B30009B2D20008D138030F00080302900380646
:103B40007002031DA52D3708963C031CAA2D2200E8
:103B50000E14BB2D8030F000803029003806700232
:103B6000031DB42D3708FA3C031CB92D22000E1793
:103B7000BB2D22008E172600A801A90110302100BC
:103B8000A0002730A1000020290037082700AB0043
:103B9000290038082700AC008831A723983122007B
:103BA0008C138C15640008008031032098312800A4
:103BB00063082A00C3008031222098312A00C30103
:103BC000803122209831AE302A00C300803122207B
:103BD000983128006D08023A0130031D0030F100D1
:103BE0006D08033A0130031D0030F0007108F00445
:103BF0000319B02ED5302A00C3008031222098311D
:103C000080302A00C300803122209831A8302A0059
:103C1000C3008031222098313F302A00C300803118
:103C200022209831D3302A00C300803122209831DD
:103C300028006D08023A031D242E6E082A00C300D6
:103C40008031222098312C2E28006E081F3E2A0039
:103C5000C30080312220983140302A00C3008031D7
:103C6000222098318D302A00C300803122209831E3
:103C700014302A00C30080312220983181302A007C
:103C8000C300803122209831B4302A00C300803133
:103C900022209831D9302A00C30080312220983167
:103CA00022302A00C30080312220983120302A009F
:103CB000C30080312220983102302A00C3008031B5
:103CC0002220983121302A00C300803122209831EF
:103CD0002A00C3018031222098317F302A00C3009E
:103CE0008031222098312E302A00C30080312220DA
:103CF000983128006D08023A031D8B2EA0302A004F
:103D0000C300803122209831C0302A00C3008031A6
:103D100022209831972EA1302A00C3008031222022
:103D20009831C8302A00C300803122209831DA301F
:103D30002A00C30080312220983102302A00C300BB
:103D4000803122209831DB302A00C30080312220CC
:103D5000983140302A00C300803122209831582FFA
:103D6000D5302A00C30080312220983180302A00CB
:103D7000C300803122209831A8302A00C30080314E
:103D8000222098313F302A00C30080312220983110
:103D9000D3302A00C30080312220983128006E08D9
:103DA0002A00C30080312220983140302A00C3000D
:103DB0008031222098318D302A00C30080312220AA
:103DC000983114302A00C30080312220983181308C
:103DD0002A00C300803122209831FF302A00C3001E
:103DE000803122209831D9302A00C300803122202E
:103DF0009831F1302A00C3008031222098312030E0
:103E00002A00C30080312220983102302A00C300EA
:103E100080312220983121302A00C30080312220B5
:103E200098312A00C3018031222098317F302A0046
:103E3000C3008031222098312E302A00C300803107
:103E40002220983128006D08043A031D342FA03039
:103E50002A00C300803122209831C0302A00C300DC
:103E6000803122209831402FA1302A00C3008031B8
:103E700022209831C8302A00C30080312220983196
:103E8000DA302A00C30080312220983112302A0013
:103E9000C300803122209831DB302A00C3008031FA
:103EA0002220983140302A00C300803122209831EE
:103EB000A4302A00C300803122209831A6302A0085
:103EC000C30080312220983180311E219831033087
:103ED000FB000830FC007730FD00FD0B6D2FFC0B64
:103EE0006D2FFB0B6D2F8031032098312800630864
:103EF0002A00C30080312220983140302A00C300BC
:103F000080312220983128006D08023A0130031DCB
:103F10000030F1006D08033A0130031D0030F0005D
:103F20007108F0040319B32F2900D7015708033C87
:103F3000031CB22F57082A00BE00BF018031DE20CB
:103F400098312900D6012900803056020318AF2F7E
:103F5000D60A2A00C301803122209831A32F2900DC
:103F6000D70A962FD12F2900D7015708073C031CE9
:103F7000D12F57082A00BE00BF018031DE209831C2
:103F80002900D6012900803056020318CE2FD60A08
:103F90002A00C301803122209831C22F2900D70A7C
:103FA000B52F80311E219831AF302900D8009031D3
:103FB0004226983108002900D601903159279831BE
:103FC00070082800E3007008003A031DEE2F21005E
:103FD0000D138D1322000D178D17F42F21000D17CF
:103FE0008D1722000D138D130800503457345234AE
:103FF0003D3430342E343034573400342E340034D1
:1040000029003D08043A0130031D0030F1003D084D
:10401000053A0130031D0030F0007108F004031967
:104020001F282A00AA010A30AB005830AC00023029
:10403000AD000930AE0080315325A0313128290070
:104040003D08003A031931282A00AA010330AB00C9
:10405000B430AC000230AD000930AE0080315325E1
:10406000A03164000B30FB002630FC005D30FD0009
:10407000FD0B3828FC0B3828FB0B3828000000000B
:1040800064000B30FB002630FC005D30FD00FD0BB2
:104090004728FC0B4728FB0B472800000000640062
:1040A0000B30FB002630FC005D30FD00FD0B562878
:1040B000FC0B5628FB0B56280000000064000B3058
:1040C000FB002630FC005D30FD00FD0B6528FC0B7D
:1040D0006528FB0B652800000000640029003D08EE
:1040E000043A0130031D0030F1003D08053A01306B
:1040F000031D0030F0007108F00403198D282A0018
:10410000AA010A30AB00AA30AC000230AD00093081
:10411000AE0080315325A0319F2829003D08003A88
:1041200003199F282A00AA010330AB00A030AC007D
:104130000230AD000930AE0080315325A031883106
:104140008223A031FF30A800A90188310122A031CB
:10415000FE302A00A800A90188310122A031FD30DB
:104160002A00A800A90188310122A03101302800CD
:10417000CE0001302900DE008831E927A031290076
:104180003D08043A0130031D0030F1003D08053AB6
:104190000130031D0030F0007108F0040319DE281F
:1041A0002A00AA017030AB00EC30AC000130AD0049
:1041B0000130AE0080315325A031F02829003D08A0
:1041C000003A0319F0282A00AA010830AB00EA30AF
:1041D000AC000130AD000130AE0080315325A0317C
:1041E00090317026A03108000D302900EB0000301E
:1041F000EC00ED013230EE00EF0190310020A031F3
:1042000027002A08F00403194E2922008C178C116C
:104210000630FB001330FC00AD30FD00FD0B0E2915
:10422000FC0B0E29FB0B0E29000000006400270088
:104230002A08003A0130031D0030F10020000D185B
:104240002329031024290314F0010318F00A71082C
:10425000F0050319312988313C27A0312200DC0107
:104260004B2998311725A031DC010D302900EB00D6
:104270000030EC00ED013230EE00EF019031002013
:10428000A03170080319492998310020A031640039
:1042900035292700AA018831A723A0310D30290034
:1042A000EB000030EC000530ED003230EE00EF01A5
:1042B00090310020A03170080319D3296400220036
:1042C0005C08003A031D95290130DC002600340803
:1042D0002200EC00280061082200EB0028004E08B4
:1042E0002200EE002600B4012800E1010130CE00DA
:1042F0002A00AA0180317026A031260034082A0045
:10430000AA008031CC25A03128004E082900DE000B
:104310008831E927A031270029082200ED00270075
:10432000A9018831A723A031BE292200DC016C0835
:104330002600B40022006B082800E10022006E086D
:104340002800CE0022006C082A00AA008031CC256B
:10435000A031280061082A00AA0080317026A0310F
:1043600028004E082900DE008831E927A03122000C
:104370006D082700A9008831A723A0310D3029003E
:10438000EB000030EC000530ED003230EE00EF01C4
:1043900090310020A03170080319D32998310020F2
:1043A000A0316400BE290D302900EB000030EC0084
:1043B0000430ED003230EE00EF0190310020A031EA
:1043C00022005C08003A0130031D0030F100710842
:1043D000F0050319172A640027002908003A031D75
:1043E000F4290130A900F529A90102302A00A8000A
:1043F000270029082A00A90088310122A03188312C
:10440000A723A0310D302900EB000030EC00043070
:10441000ED003230EE00EF0190310020A031700845
:104420000319172A98310020A0316400022A0800DD
:10443000640029003D08043A0130031D0030F100FA
:104440003D08053A0130031D0030F0007108F0040A
:104450000319452B2A00AA011630AB006730AC00C7
:104460000030AD000730AE0080315325A03102305E
:104470002A00AA000430AB005C30AC000030AD0074
:104480000A30AE0080315325A03104302A00AA0042
:104490001030AB00B630AC000030AD000830AE00DC
:1044A00080315325A0310630FC003030FD00FD0B7B
:1044B000572AFC0B572A000004302A00AA001030AB
:1044C000AB00B630AC000030AD000830AE0080313B
:1044D0005325A0310630FC003030FD00FD0B6E2A64
:1044E000FC0B6E2A000004302A00AA001030AB003A
:1044F000B630AC000030AD000830AE00803153253E
:10450000A0310630FC003030FD00FD0B852AFC0B8D
:10451000852A000006302A00AA000430AB00AB3028
:10452000AC000030AD000A30AE0080315325A03120
:1045300064000D30FB002D30FC00D730FD00FD0B7A
:104540009F2AFC0B9F2AFB0B9F2A0000000064009F
:104550000B30FB002630FC005D30FD00FD0BAE2A69
:10456000FC0BAE2AFB0BAE2A0000000064002A0000
:10457000AA011030AB00A230AC000030AD00083012
:10458000AE0080315325A03102302A00AA00043049
:10459000AB003630AC000030AD000A30AE008031E8
:1045A0005325A03104302A00AA001030AB002D3072
:1045B000AC000030AD000830AE0080315325A03192
:1045C00006302A00AA000430AB002230AC000030D4
:1045D000AD000A30AE0080315325A0310430FB001D
:1045E0000C30FC003330FD00FD0BF42AFC0BF42AE8
:1045F000FB0BF42A000000002A00AA011030AB00D7
:104600005330AC000030AD000830AE00803153258F
:10461000A03102302A00AA001030AB004A30AC00B2
:104620000030AD000830AE0080315325A031043099
:104630002A00AA001030AB004130AC000030AD00C1
:104640000830AE0080315325A03106302A00AA0080
:104650001030AB003030AC000130AD000830AE009F
:1046600080315325A031270029080319442B2A0043
:10467000AA017030AB00EC30AC000030AD0001306E
:10468000AE0080315325A031802C29003D08003A2E
:104690000319802C2A00AA010430AB002830AC009A
:1046A0000130AD000730AE0080315325A03101301C
:1046B0002A00AA000330AB004D30AC000130AD0041
:1046C0000A30AE0080315325A03164000F30FB006A
:1046D0003530FC005130FD00FD0B6C2BFC0B6C2BBE
:1046E000FB0B6C2B64000B30FB002630FC005D30B4
:1046F000FD00FD0B792BFC0B792BFB0B792B0000BC
:10470000000064002A00AA010430AB00B630AC00FF
:104710000030AD000830AE0080315325A0310630A6
:10472000FC003030FD00FD0B932BFC0B932B0000A5
:104730002A00AA010430AB00B630AC000030AD0056
:104740000830AE0080315325A0310630FC003030F7
:10475000FD00FD0BA92BFC0BA92B00002A00AA01D0
:104760000430AB00B630AC000030AD000830AE0015
:1047700080315325A0310630FC003030FD00FD0BA8
:10478000BF2BFC0BBF2B000001302A00AA00033016
:10479000AB004230AC000130AD000A30AE008031D9
:1047A0005325A03164000D30FB002D30FC00D730C4
:1047B000FD00FD0BD92BFC0BD92BFB0BD92B0000DB
:1047C000000064000B30FB002630FC005D30FD0073
:1047D000FD0BE82BFC0BE82BFB0BE82B000000008B
:1047E00064002A00AA010430AB003930AC0001306B
:1047F000AD000830AE0080315325A03101302A00D1
:10480000AA000330AB00D030AC000030AD000A305D
:10481000AE0080315325A0310430FB000C30FC0089
:104820003330FD00FD0B122CFC0B122CFB0B122C59
:10483000000000002A00AA01AB01C730AC00003024
:10484000AD000830AE0080315325A03101302A0080
:10485000AA00AB01BE30AC000030AD000830AE00A5
:1048600080315325A03129003D08013A031D542C05
:104870002A00AA010930AB002030AC000130AD00A5
:104880000730AE0080315325A03101302A00AA0044
:104890000930AB00E430AC000030AD000730AE00B2
:1048A00080315325A0316F2C2A00AA010930AB00BA
:1048B000DB30AC000030AD000830AE008031532555
:1048C000A03101302A00AA000930AB006230AC00F0
:1048D0000230AD000830AE0080315325A0312700F2
:1048E00029080319802C2A00AA010830AB00EE30F9
:1048F000AC000130AD000130AE0080315325A03155
:1049000064000800640001302900D6009031592766
:10491000A03170082900BD000230D600903159271F
:10492000A0317008013A031D982C01302700A9001E
:1049300003302900D60090315927A0317008290092
:10494000D60090315D26A0317008A500A601043084
:10495000D60090315927A03170082900D600903137
:104960005D26A0310A30F40080319320A031700818
:104970002900BB007108BC000530D60090315927D2
:10498000A03170082900D60090315D26A0310A3090
:10499000F40080319320A03170082900A100710833
:1049A000A2000630D60090315927A03170082900A6
:1049B000D60090315D26A0310A30F400803193207A
:1049C000A03170082900A3007108A4000930D600A6
:1049D00090315927A03170082900D60090315D260A
:1049E000A0310A30F40080319320A03170082800F3
:1049F000E4007108E500640010302900D600903111
:104A00005927A03170082900D60090315D26A031C9
:104A10006430F40080319320A03170082900D40064
:104A20007108D5001130D60090315927A031700897
:104A30002900D60090315D26A03170085407C000CF
:104A40000030553DC1001230D60090315927A031B9
:104A500070082900D60090315D26A0316430F40042
:104A600080319320A03170082900D4007108D5004E
:104A70001330D60090315927A03170082900D60094
:104A800090315D26A03170085407CA000030553DB2
:104A9000CB001430D60090315927A031700829007E
:104AA000D60090315D26A0316430F400803193202F
:104AB000A03170082900D4007108D5001530D60047
:104AC00090315927A03170082900D60090315D2619
:104AD000A03170085407C4000030553DC5001630A1
:104AE000D60090315927A03170082900D6009031A6
:104AF0005D26A0316430F40080319320A03170082D
:104B00002900D4007108D5001730D60090315927FC
:104B1000A03170082900D60090315D26A0317008C0
:104B20005407C8000030553DC9001830D6009031F8
:104B30005927A03170082900D60090315D26A03198
:104B40006430F40080319320A03170082900D40033
:104B50007108D5001930D60090315927A03170085E
:104B60002900D60090315D26A03170085407C60098
:104B70000030553DC7002030D60090315927A03174
:104B800070082900D60090315D26A0316430F40011
:104B900080319320A03170082900D4007108D5001D
:104BA0002130D60090315927A03170082900D60055
:104BB00090315D26A03170085407C2000030553D89
:104BC000C3002230D60090315927A0317008290047
:104BD000D60090315D26A0316430F40080319320FE
:104BE000A03170082900D4007108D5002330D60008
:104BF00090315927A03170082900D60090315D26E8
:104C0000A03170085407CE000030553DCF0024304D
:104C1000D60090315927A03170082900D600903174
:104C20005D26A0316430F40080319320A0317008FB
:104C30002900D4007108D5002530D60090315927BD
:104C4000A03170082900D60090315D26A03170088F
:104C50005407D2000030553DD3002630D6009031A5
:104C60005927A03170082900D60090315D26A03167
:104C70006430F40080319320A03170082900D40002
:104C80007108D5002730D60090315927A03170081F
:104C90002900D60090315D26A03170085407D0005D
:104CA0000030553DD1002830D60090315927A03131
:104CB00070082900D60090315D26A0316430F400E0
:104CC00080319320A03170082900D4007108D500EC
:104CD0002930D60090315927A03170082900D6001C
:104CE00090315D26A03170085407CC000030553D4E
:104CF000CD00640008000D302900EB000030EC000E
:104D0000ED013230EE00EF0190310020A03170084B
:104D10000319332F0630FB001330FC00AD30FD00CB
:104D2000FD0B902EFC0B902EFB0B902E0000000034
:104D3000640020000D1CAF2E28004E08003A031D11
:104D4000A42E0130CE00A52ECE014E082900DE0093
:104D50008831E927A0318831A723A0311F2F2400F3
:104D60006B08013A031DB62EEB01B82E0130EB00A3
:104D70006B08013A031DEE2E29003D08043A01306C
:104D8000031D0030F1003D08053A0130031D0030DD
:104D9000F0007108F0040319DB2E2A00AA0170301C
:104DA000AB00C930AC000230AD000130AE00803144
:104DB0005325A031ED2E29003D08003A0319ED2EB0
:104DC0002A00AA010830AB00C730AC000230AD00A9
:104DD0000130AE0080315325A0311F2F29003D083E
:104DE000043A0130031D0030F1003D08053A01305E
:104DF000031D0030F0007108F00403190D2F2A0084
:104E0000AA017030AB006E30AC000230AD00013052
:104E1000AE0080315325A0311F2F29003D08003AF4
:104E200003191F2F2A00AA010830AB00E830AC009C
:104E30000130AD000130AE0080315325A0310D307E
:104E40002900EB000030EC00ED013230EE00EF0104
:104E500090310020A03170080319332F98310020C1
:104E6000A03164001F2F0D302900EB000030EC0052
:104E70000530ED003230EE00EF0190310020A0311E
:104E800070080319892F64000D302900EB000030F1
:104E9000EC000530ED003230EE00EF0190310020E3
:104EA000A03170080319892F1F30280061020130DA
:104EB00003180030F00024006B08F0050319692F77
:104EC0002800E10A61082A00AA0080317026A0317A
:104ED000812F24006B080130031D0030F1001F30CA
:104EE00026003402013003180030F0007108F0058C
:104EF0000319812FB40A34082A00AA008031CC2576
:104F0000A0318831A723A03198310020A03164005E
:104F1000442F0D302900EB000030EC000430ED0090
:104F20003230EE00EF0190310020A03122005C0809
:104F3000003A0130031D0030F1007108F00503193B
:104F4000E72F64000D302900EB000030EC00043046
:104F5000ED003230EE00EF0190310020A0317008FA
:104F60000319E72F28006108003C013003180030C6
:104F7000F00024006B08F0050319C72F2800E10397
:104F800061082A00AA0080317026A031DF2F24009A
:104F90006B080130031D0030F10026003408003C8E
:104FA000013003180030F0007108F0050319DF2FFD
:104FB000B40334082A00AA008031CC25A0318831FE
:104FC000A723A03198310020A0316400A22F08004F
:104FD00046344134533454342034543445345334F7
:104FE000543400344634413453345434203454342B
:104FF00045345334543400346C3400346C3400344D
:1050000021009712171697111715971064002300A7
:105010008C010C148C148D012200911393137830A1
:105020002100990020008C018D018E0122008C014D
:105030008D018E01033021008C00F9308D008E012E
:1050400090314A27A8311E149E14951324000D1484
:105050008D150D168D168B1308000826031A33289C
:1050600001302200EF0022008C15553023005B0731
:105070002100B6002D30230062072100BD00002072
:10508000723023005C072100B70032302300610733
:105090002100BC000330FB000830FC007730FD002D
:1050A000FD0B5028FC0B5028FB0B502864001E30D1
:1050B00023005D072100B8003B302300600721007A
:1050C000BB00A0318224A8319831DB27A8314230BF
:1050D00023005E072100B9000530FB000F30FC0003
:1050E000F130FD00FD0B7228FC0B7228FB0B7228BF
:1050F000640020000D1A7E2872147F2872108D1A09
:105100008328031484280310721C8A28031C8A280D
:1051100072148B287210721C902801302700B00086
:1051200090316427A83120000D1A9828721499280C
:1051300072108D1A9D2803149E280310721CA42837
:10514000031CA4287214A528721020000D18AA2888
:105150000314AB280310721CB128031CB12872146D
:10516000B2287210721CFA2829003D080A3A031D61
:10517000C7282A00AA010330AB002A30AC00023055
:10518000AD000930AE0080315325A831D92829005F
:105190003D08003A0319D9282A00AA010C30AB00B7
:1051A0002030AC000230AD000930AE008031532514
:1051B000A831FF302A00AA008031CC25A831FF3069
:1051C000AA0080317026A83101302900DE00883124
:1051D000E927A8310B30FB002630FC005D30FD00D4
:1051E000FD0BF028FC0BF028FB0BF0280000000062
:1051F0006400EA281C3023005F072100BA00640025
:1052000022006F08003A0130031D0030F100270032
:105210003008003A0130031D0030F0007108F0053D
:105220000319362988318223A831FF30A800A9014B
:1052300088310122A831FE302A00A800A901883156
:105240000122A831FD302A00A800A90188310122DD
:10525000A83101302800CE0001302900DE0088315D
:10526000E927A831A0311822A8317E2922006F0831
:10527000013A0130031D0030F10027003008003AE8
:105280000130031D0030F0007108F00503197B297F
:10529000FF302900D60090315927A8317008260028
:1052A000B400FE302900D60090315927A83170088B
:1052B0002800E100FD302900D60090315927A8319F
:1052C00070082800CE0061082A00AA0080317026EC
:1052D000A831260034082A00AA008031CC25A83144
:1052E00028004E082900DE008831E927A8319031D6
:1052F0007026A8317E29A0310020A8318831A7234B
:10530000A831640098310020A83127003008003A05
:10531000031D8E29A031F420A8319129A0317B26CC
:10532000A83181299229FF3FFF3FFF3F003400341D
:10533000003400340034003400345F34003400346E
:105340000034073400340734003414347F34143408
:105350007F34143424342A347F342A3412342334EE
:1053600013340834643462343634493455342234C6
:1053700050340034053403340034003400341C3419
:105380002234413400340034413422341C3400349B
:1053900008342A341C342A340834083408343E349F
:1053A00008340834003450343034003400340834C5
:1053B00008340834083408340034303430340034CD
:1053C0000034203410340834043402343E34513470
:1053D000493445343E34003442347F344034003460
:1053E00042346134513449344634213441344534F3
:1053F0004B3431341834143412347F34103427349D
:1054000045344534453439343C344A3449344934DC
:1054100030340134713409340534033436344934BA
:1054200049344934363406344934493429341E3435
:1054300000343634363400340034003456343634D4
:105440000034003400340834143422344134143429
:1054500014341434143414344134223414340834DD
:1054600000340234013451340934063432344934BE
:10547000793441343E347E341134113411347E3465
:105480007F3449344934493436343E34413441342C
:10549000413422347F344134413422341C347F344B
:1054A00049344934493441347F34093409340134AE
:1054B00001343E3441344134513432347F34083481
:1054C000083408347F34003441347F3441340034AC
:1054D0002034403441343F3401347F3408341434B0
:1054E000223441347F3440344034403440347F34BB
:1054F0000234043402347F347F34043408341034EA
:105500007F343E344134413441343E347F340934B5
:105510000934093406343E344134513421345E3484
:105520007F340934193429344634463449344934F3
:1055300049343134013401347F34013401343F348F
:105540004034403440343F341F342034403420341D
:105550001F347F342034183420347F3463341434BF
:105560000834143463340334043478340434033496
:1055700061345134493445344334003400347F3489
:10558000413441340234043408341034203441347A
:1055900041347F34003400340434023401340234A2
:1055A0000434403440344034403440340034013416
:1055B00002340434003420345434543454347834B1
:1055C0007F344834443444343834383444344434F4
:1055D0004434203438344434443448347F34383408
:1055E000543454345434183408347E340934013477
:1055F000023408341434543454343C347F34083482
:10560000043404347834003444347D344034003479
:105610002034403444343D34003400347F3410347A
:1056200028344434003441347F34403400347C34F2
:1056300004341834043478347C34083404340434A6
:105640007834383444344434443438347C34143476
:1056500014341434083408341434143418347C34B6
:105660007C34083404340434083448345434543416
:105670005434203404343F344434403420343C34F3
:105680004034403420347C341C34203440342034C2
:105690001C343C344034303440343C3444342834BA
:1056A0001034283444340C345034503450343C34A6
:1056B0004434643454344C34443400340834363480
:1056C00041340034003400347F340034003400347A
:1056D0004134363408340034083408342A341C3455
:1056E000083408341C342A34083408344F3456340F
:1056F000453452344C344F34413444340034003453
:1057000000340034003400340034003400344F34AA
:105710005634453452344C344F34413444340034DC
:1057200020342034203420342034203420342034D9
:1057300000342034203420342034203420342034E9
:1057400020340034203420342034203420342034D9
:105750002034203400345334573452343D34203410
:1057600020342034203400342034203420342034B9
:10577000203420342034203400344F34563445341F
:1057800052344C344F344134443400344C343D347E
:1057900030342E34303475344834003410342734E7
:1057A0005334573452343D342034203420342034A0
:1057B0000034003400344F345634453452344C34C1
:1057C0004F344134443400342034203420342034E5
:1057D0002034203420342034003420342034203449
:1057E0002034203420342034203400342034203439
:1057F00020342034203420342034203400344F34FA
:105800005634453452344C344F34413444340034EB
:10581000003400340034003430342E34303430342A
:10582000003430342E3430343034003420342034DA
:1058300020342034203420342034203420342034C8
:1058400000342034203420342034203420342034D8
:1058500020340034203420342034203420342034C8
:10586000203420342034203400344C343D3430345F
:105870002E34303430347534483400345334573493
:1058800052343D3430342E343034303400345034DB
:10589000573452343D3430342E343034573400349D
:1058A0006D3469346E346934203462346F34613459
:1058B0007234643400344134543455342D3431342A
:1058C0003034303400341034273420342034203441
:1058D00020342034203420342034003446345734EB
:1058E0002034763465347234203432342E343634F5
:1058F00000340C3410340E340D3412340B341034A4
:1059000013345334573452343D3430342E3430341D
:10591000303400345034573452343D3430342E3423
:1059200030345734003420342034203420342034B0
:105930002034203420342034203400344C343D349E
:1059400030342E34303430347534483400344334F9
:105950003D342034203430347034463400344F34F5
:105960005634453452344C344F344134443400348A
:105970002034203420342034203420342034203487
:1059800000344C343D3420342034203475344834D1
:1059900000340134FD344C343D3420342034203480
:1059A00020347534483400344C343D3420342034B1
:1059B00020342034753448340034003443343D34CA
:1059C00020342034203420347034463400344334BE
:1059D0003D342034203420342034703446340034B4
:1059E0000034FD345034573452343D3430342E3486
:1059F0003034573400345334573452343D34303417
:105A00002E34303430340034523445345334453439
:105A10005434203420342034003450345734523439
:105A20003D3430342E34303457340034533457340A
:105A300052343D3430342E34303430340034523427
:105A40004534533445345434203420342034003425
:105A50006C3400346C3400345334573452343D3495
:105A600030342E34303430340034503457345234DF
:105A70003D3430342E343034573400342E34003436
:105A80004C343D3430342E34303431347534483471
:105A9000003443343D3420342034303470344634C0
:105AA000003443343D3420342034203430347034D6
:105AB0004634003420342034203420342034203440
:105AC000203420340034463457342034763465345E
:105AD0007234203432342E34363400346D34693428
